{
  "_format": "hh-sol-artifact-1",
  "contractName": "Process_0_WorkList",
  "sourceName": "contracts/caterPillar/Process_0_WorkList.sol",
  "abi": [
    {
      "inputs": [
        {
          "internalType": "uint256",
          "name": "reqId",
          "type": "uint256"
        }
      ],
      "name": "DefaultTask_callback",
      "outputs": [],
      "stateMutability": "nonpayable",
      "type": "function"
    },
    {
      "inputs": [
        {
          "internalType": "function (uint256) external returns (bool)",
          "name": "callback",
          "type": "function"
        }
      ],
      "name": "DefaultTask_start",
      "outputs": [
        {
          "internalType": "uint256",
          "name": "",
          "type": "uint256"
        }
      ],
      "stateMutability": "nonpayable",
      "type": "function"
    }
  ],
  "bytecode": "0x608060405234801561001057600080fd5b50610268806100206000396000f3fe608060405234801561001057600080fd5b50600436106100365760003560e01c806354285bea1461003b578063b50c113d146100da575b600080fd5b6100c8610049366004610194565b60008054604080516020808201835286901b63ffffffff80871691909117831b8252600184018555938052517f290decd9548b62a8d60345a988386fc84ba6bc95484008f6362f93160ef3e56383018054640100000000600160c01b039290931c91821691909416176001600160c01b03199091161790915592915050565b60405190815260200160405180910390f35b6100ed6100e83660046101da565b6100ef565b005b60008181548110610102576101026101f3565b9060005260206000200160000160009054906101000a90048060201c6001600160a01b03169063ffffffff16826040518263ffffffff1660e01b815260040161014d91815260200190565b6020604051808303816000875af115801561016c573d6000803e3d6000fd5b505050506040513d601f19601f820116820180604052508101906101909190610209565b5050565b600080602083850312156101a757600080fd5b823567ffffffffffffffff19811681146101c057600080fd5b8060601c925063ffffffff8160401c169150509250929050565b6000602082840312156101ec57600080fd5b5035919050565b634e487b7160e01b600052603260045260246000fd5b60006020828403121561021b57600080fd5b8151801515811461022b57600080fd5b939250505056fea2646970667358221220fdb5b498abec1566eab7c987b2b3c3bc7c72454ae04653098d30d1ff9af289cf64736f6c63430008180033",
  "linkReferences": {},
  "deployedLinkReferences": {}
}