{
  "_format": "hh-sol-artifact-1",
  "contractName": "SeadmeteGarantii",
  "sourceName": "contracts/monolithic/SeadmeteGarantii.sol",
  "abi": [
    {
      "inputs": [],
      "stateMutability": "nonpayable",
      "type": "constructor"
    },
    {
      "anonymous": false,
      "inputs": [
        {
          "indexed": true,
          "internalType": "address",
          "name": "_from",
          "type": "address"
        },
        {
          "indexed": false,
          "internalType": "string",
          "name": "_id",
          "type": "string"
        },
        {
          "indexed": false,
          "internalType": "string",
          "name": "_data",
          "type": "string"
        },
        {
          "indexed": false,
          "internalType": "string",
          "name": "_timestamp",
          "type": "string"
        }
      ],
      "name": "taskExecuted",
      "type": "event"
    },
    {
      "anonymous": false,
      "inputs": [
        {
          "indexed": true,
          "internalType": "address",
          "name": "_from",
          "type": "address"
        },
        {
          "indexed": false,
          "internalType": "string",
          "name": "_id",
          "type": "string"
        },
        {
          "indexed": false,
          "internalType": "string",
          "name": "_timestamp",
          "type": "string"
        }
      ],
      "name": "taskExecutionError",
      "type": "event"
    },
    {
      "inputs": [
        {
          "internalType": "uint256",
          "name": "",
          "type": "uint256"
        },
        {
          "internalType": "uint256",
          "name": "",
          "type": "uint256"
        }
      ],
      "name": "ChildrenOptim",
      "outputs": [
        {
          "internalType": "string",
          "name": "",
          "type": "string"
        }
      ],
      "stateMutability": "view",
      "type": "function"
    },
    {
      "inputs": [
        {
          "internalType": "uint256",
          "name": "_actId",
          "type": "uint256"
        },
        {
          "internalType": "string",
          "name": "_lane",
          "type": "string"
        },
        {
          "internalType": "string",
          "name": "_upd",
          "type": "string"
        },
        {
          "internalType": "string",
          "name": "_timestamp",
          "type": "string"
        }
      ],
      "name": "Invoke",
      "outputs": [],
      "stateMutability": "payable",
      "type": "function"
    },
    {
      "inputs": [
        {
          "internalType": "uint256",
          "name": "",
          "type": "uint256"
        },
        {
          "internalType": "uint256",
          "name": "",
          "type": "uint256"
        }
      ],
      "name": "MsgInOptim",
      "outputs": [
        {
          "internalType": "string",
          "name": "",
          "type": "string"
        }
      ],
      "stateMutability": "view",
      "type": "function"
    },
    {
      "inputs": [
        {
          "internalType": "uint256",
          "name": "",
          "type": "uint256"
        },
        {
          "internalType": "uint256",
          "name": "",
          "type": "uint256"
        }
      ],
      "name": "MsgOutOptim",
      "outputs": [
        {
          "internalType": "string",
          "name": "",
          "type": "string"
        }
      ],
      "stateMutability": "view",
      "type": "function"
    },
    {
      "inputs": [
        {
          "internalType": "uint256",
          "name": "",
          "type": "uint256"
        },
        {
          "internalType": "uint256",
          "name": "",
          "type": "uint256"
        }
      ],
      "name": "ParentsOptim",
      "outputs": [
        {
          "internalType": "string",
          "name": "",
          "type": "string"
        }
      ],
      "stateMutability": "view",
      "type": "function"
    },
    {
      "inputs": [
        {
          "internalType": "uint256",
          "name": "",
          "type": "uint256"
        }
      ],
      "name": "activities",
      "outputs": [
        {
          "internalType": "uint256",
          "name": "id",
          "type": "uint256"
        },
        {
          "internalType": "enum SeadmeteGarantii.NodeType",
          "name": "nodeType",
          "type": "uint8"
        },
        {
          "internalType": "string",
          "name": "xmlID",
          "type": "string"
        },
        {
          "internalType": "string",
          "name": "name",
          "type": "string"
        },
        {
          "internalType": "string",
          "name": "lane",
          "type": "string"
        },
        {
          "internalType": "string",
          "name": "dataIn",
          "type": "string"
        },
        {
          "internalType": "string",
          "name": "dataOut",
          "type": "string"
        },
        {
          "internalType": "string",
          "name": "timestamp",
          "type": "string"
        }
      ],
      "stateMutability": "view",
      "type": "function"
    },
    {
      "inputs": [
        {
          "internalType": "uint256",
          "name": "_id",
          "type": "uint256"
        },
        {
          "internalType": "enum SeadmeteGarantii.NodeType",
          "name": "_type",
          "type": "uint8"
        },
        {
          "internalType": "string",
          "name": "_xmlID",
          "type": "string"
        },
        {
          "internalType": "string",
          "name": "_name",
          "type": "string"
        },
        {
          "internalType": "string",
          "name": "_lane",
          "type": "string"
        },
        {
          "internalType": "string",
          "name": "_data_in",
          "type": "string"
        },
        {
          "internalType": "string",
          "name": "_data_out",
          "type": "string"
        },
        {
          "internalType": "string",
          "name": "_timestamp",
          "type": "string"
        }
      ],
      "name": "addActivity",
      "outputs": [],
      "stateMutability": "nonpayable",
      "type": "function"
    },
    {
      "inputs": [
        {
          "internalType": "string",
          "name": "_name",
          "type": "string"
        },
        {
          "internalType": "uint256",
          "name": "_activityIdsLength",
          "type": "uint256"
        }
      ],
      "name": "addWorkflowInstance",
      "outputs": [],
      "stateMutability": "nonpayable",
      "type": "function"
    },
    {
      "inputs": [
        {
          "internalType": "address",
          "name": "",
          "type": "address"
        }
      ],
      "name": "addresses2lanes",
      "outputs": [
        {
          "internalType": "string",
          "name": "",
          "type": "string"
        }
      ],
      "stateMutability": "view",
      "type": "function"
    },
    {
      "inputs": [
        {
          "internalType": "string",
          "name": "a",
          "type": "string"
        },
        {
          "internalType": "string",
          "name": "b",
          "type": "string"
        }
      ],
      "name": "compareStrings",
      "outputs": [
        {
          "internalType": "bool",
          "name": "",
          "type": "bool"
        }
      ],
      "stateMutability": "pure",
      "type": "function"
    },
    {
      "inputs": [
        {
          "internalType": "uint256",
          "name": "num",
          "type": "uint256"
        },
        {
          "internalType": "uint256[]",
          "name": "numbers1",
          "type": "uint256[]"
        }
      ],
      "name": "exists1",
      "outputs": [
        {
          "internalType": "bool",
          "name": "",
          "type": "bool"
        }
      ],
      "stateMutability": "pure",
      "type": "function"
    },
    {
      "inputs": [
        {
          "internalType": "uint256",
          "name": "_id",
          "type": "uint256"
        }
      ],
      "name": "getActivityDataFromActivityId",
      "outputs": [
        {
          "internalType": "uint256",
          "name": "_actId",
          "type": "uint256"
        },
        {
          "internalType": "uint256",
          "name": "_type",
          "type": "uint256"
        },
        {
          "internalType": "string",
          "name": "_xmlID",
          "type": "string"
        },
        {
          "internalType": "string",
          "name": "_name",
          "type": "string"
        },
        {
          "internalType": "string",
          "name": "_dataIn",
          "type": "string"
        },
        {
          "internalType": "string",
          "name": "_dataOut",
          "type": "string"
        },
        {
          "internalType": "string",
          "name": "_lane",
          "type": "string"
        }
      ],
      "stateMutability": "view",
      "type": "function"
    },
    {
      "inputs": [
        {
          "internalType": "uint256",
          "name": "_id",
          "type": "uint256"
        }
      ],
      "name": "getActivityIdsFromWorkflow",
      "outputs": [
        {
          "internalType": "uint256[]",
          "name": "",
          "type": "uint256[]"
        }
      ],
      "stateMutability": "view",
      "type": "function"
    },
    {
      "inputs": [],
      "name": "getExecuted",
      "outputs": [
        {
          "internalType": "uint256[]",
          "name": "",
          "type": "uint256[]"
        }
      ],
      "stateMutability": "view",
      "type": "function"
    },
    {
      "inputs": [],
      "name": "getIncluded",
      "outputs": [
        {
          "internalType": "uint256[]",
          "name": "",
          "type": "uint256[]"
        }
      ],
      "stateMutability": "view",
      "type": "function"
    },
    {
      "inputs": [],
      "name": "getPending",
      "outputs": [
        {
          "internalType": "uint256[]",
          "name": "",
          "type": "uint256[]"
        }
      ],
      "stateMutability": "view",
      "type": "function"
    },
    {
      "inputs": [
        {
          "internalType": "string",
          "name": "_xmlID",
          "type": "string"
        }
      ],
      "name": "getPosFromXML",
      "outputs": [
        {
          "internalType": "uint256",
          "name": "",
          "type": "uint256"
        }
      ],
      "stateMutability": "view",
      "type": "function"
    },
    {
      "inputs": [
        {
          "internalType": "uint256",
          "name": "key",
          "type": "uint256"
        }
      ],
      "name": "isChildrenOptimNotEmpty",
      "outputs": [
        {
          "internalType": "bool",
          "name": "",
          "type": "bool"
        }
      ],
      "stateMutability": "view",
      "type": "function"
    },
    {
      "inputs": [
        {
          "internalType": "uint256",
          "name": "key",
          "type": "uint256"
        }
      ],
      "name": "isMsgInOptimNotEmpty",
      "outputs": [
        {
          "internalType": "bool",
          "name": "",
          "type": "bool"
        }
      ],
      "stateMutability": "view",
      "type": "function"
    },
    {
      "inputs": [
        {
          "internalType": "uint256",
          "name": "key",
          "type": "uint256"
        }
      ],
      "name": "isMsgOutOptimNotEmpty",
      "outputs": [
        {
          "internalType": "bool",
          "name": "",
          "type": "bool"
        }
      ],
      "stateMutability": "view",
      "type": "function"
    },
    {
      "inputs": [
        {
          "internalType": "uint256",
          "name": "key",
          "type": "uint256"
        }
      ],
      "name": "isParentOptimNotEmpty",
      "outputs": [
        {
          "internalType": "bool",
          "name": "",
          "type": "bool"
        }
      ],
      "stateMutability": "view",
      "type": "function"
    },
    {
      "inputs": [],
      "name": "killProcess",
      "outputs": [
        {
          "internalType": "uint256",
          "name": "",
          "type": "uint256"
        }
      ],
      "stateMutability": "payable",
      "type": "function"
    },
    {
      "inputs": [
        {
          "internalType": "string",
          "name": "startXML",
          "type": "string"
        },
        {
          "internalType": "string",
          "name": "triggerXML",
          "type": "string"
        }
      ],
      "name": "setActivitiesSegment",
      "outputs": [],
      "stateMutability": "nonpayable",
      "type": "function"
    },
    {
      "inputs": [
        {
          "internalType": "uint256",
          "name": "_actId",
          "type": "uint256"
        }
      ],
      "name": "updateChildren",
      "outputs": [],
      "stateMutability": "payable",
      "type": "function"
    }
  ],
  "bytecode": "0x6080604052600060085560006009553480156200001b57600080fd5b5060408051808201909152600a8152691b5e50dbdb9d1c9858dd60b21b60208201526200004a90602962003f53565b6040805161052081018252600080825260208201819052918101829052606081018290526080810182905260a0810182905260c0810182905260e08101829052610100810182905261012081018290526101408101829052610160810182905261018081018290526101a081018290526101c081018290526101e081018290526102008101829052610220810182905261024081018290526102608101829052610280810182905260016102a082018190526102c082018190526102e0820152610300810182905261032081018290526103408101829052610360810182905261038081018290526103a081018290526103c081018290526103e08101829052610400810182905261042081018290526104408101829052610460810182905261048081018290526104a081018290526104c081018290526104e08101829052610500810191909152620001a390600a90602962004184565b506040805161052081018252600080825260208201819052918101829052606081018290526080810182905260a0810182905260c0810182905260e08101829052610100810182905261012081018290526101408101829052610160810182905261018081018290526101a081018290526101c081018290526101e08101829052610200810182905261022081018290526102408101829052610260810182905261028081018290526102a081018290526102c081018290526102e08101829052610300810182905261032081018290526103408101829052610360810182905261038081018290526103a081018290526103c081018290526103e08101829052610400810182905261042081018290526104408101829052610460810182905261048081018290526104a081018290526104c081018290526104e08101829052610500810191909152620002fd90600c90602962004184565b506040805161052081018252600080825260208201819052918101829052606081018290526080810182905260a0810182905260c0810182905260e08101829052610100810182905261012081018290526101408101829052610160810182905261018081018290526101a081018290526101c081018290526101e08101829052610200810182905261022081018290526102408101829052610260810182905261028081018290526102a081018290526102c081018290526102e08101829052610300810182905261032081018290526103408101829052610360810182905261038081018290526103a081018290526103c081018290526103e08101829052610400810182905261042081018290526104408101829052610460810182905261048081018290526104a081018290526104c081018290526104e081018290526105008101919091526200045790600b90602962004184565b50604051806020016040528060405180606001604052806028815260200162007f4b602891399052600080526003602052620004b7907f3617319a054d772f909f7c479a2cebe5066e836a939412e32403c99029b92eff906001620041d9565b50604051806020016040528060405180606001604052806028815260200162007bf760289139905260008052600460205262000517907f17ef568e3e12ab5b9c7254a8d58478811de00f9e6eb34345acd53bf8fd09d3ec906001620041d9565b50620005c760006004604051806060016040528060288152602001620080916028913960405180606001604052806025815260200162008225602591396040518060400160405280600b81526020016a4c616f6a75686174616a6160a81b81525060405180602001604052806000815250604051806020016040528060008152506040518060400160405280600a8152602001691899179998979918191960b11b8152506200405160201b60201c565b604051806020016040528060405180606001604052806028815260200162007b8260289139905260016000819052600360205262000627917fa15bc60c955c405d20d9149c709e2460f1c2d9a497496a7f46004d1772c3054c91620041d9565b5060405180602001604052806040518060600160405280602881526020016200792d60289139905260016000819052600460205262000688917fabd6e7cb50984ff9c2f3e18a2660c3353dadf4e3291deeb275dae2cd1e44fe0591620041d9565b50620007386001600460405180606001604052806028815260200162007b0a602891396040518060600160405280602a815260200162007cf5602a91396040518060400160405280600b81526020016a4c616f6a75686174616a6160a81b81525060405180602001604052806000815250604051806020016040528060008152506040518060400160405280600a8152602001691899179998979918191960b11b8152506200405160201b60201c565b6040518060200160405280604051806060016040528060288152602001620081fd6028913990526002600052600360205262000798907fc3a24b0501bd2c13a7e57f2db4369ec4c223447539fc0724a9d55ac4a06ebd4d906001620041d9565b5060405180602001604052806040518060600160405280602d81526020016200784a602d9139905260026000526004602052620007f9907f91da3fd0782e51c6b3986e9e672fd566868e71f3dbc2d6c2cd6fbb3e361af2a7906001620041d9565b50620008c5600260046040518060600160405280602881526020016200799e602891396040518060400160405280601d81526020017f5361616461625f736561646d655f6b756c6c65726967615f76616c6a610000008152506040518060400160405280600b81526020016a4c616f6a75686174616a6160a81b81525060405180602001604052806000815250604051806020016040528060008152506040518060400160405280600a8152602001691899179998979918191960b11b8152506200405160201b60201c565b604051806020016040528060405180606001604052806028815260200162007e5a6028913990526003600081905260205262000925907fcbc4e5fb02c3d1de23a9f1e014b4d2ee5aeaea9505df5e855c9210bf472495af906001620041d9565b50604051806040016040528060405180606001604052806028815260200162007b3260289139815260200160405180606001604052806028815260200162007d1f60289139905260036000526004602052620009a5907f2e174c10e159ea99b867ce3205125c24a42d128804e4070ed6fcc8cc98166aa090600262004232565b5062000a716003600460405180606001604052806028815260200162007e32602891396040518060400160405280601881526020017f56617461625f736561646d655f76617374755f6c6174747500000000000000008152506040518060400160405280600b81526020016a4c616f6a75686174616a6160a81b81525060405180602001604052806000815250604051806020016040528060008152506040518060400160405280600a8152602001691899179998979918191960b11b8152506200405160201b60201c565b604051806020016040528060405180606001604052806028815260200162007b5a6028913990526004600052600360205262000ad1907f83ec6a1f0257b830b5e016457c9cf1435391bf56cc98f369a58a54fe93772465906001620041d9565b5060405180604001604052806040518060600160405280602d815260200162007fe7602d913981526020016040518060600160405280602d8152602001620080b9602d913990526004600081905260205262000b51907f1a1e6821cde7d0159c0d293177871e09677b4e42307c7db3ba94f8648a5a050f90600262004232565b5062000c016004806040518060600160405280602881526020016200814d602891396040518060600160405280603f81526020016200810e603f913960405180604001604052806010815260200160008051602062007fc783398151915281525060405180602001604052806000815250604051806020016040528060008152506040518060400160405280600a8152602001691899179998979918191960b11b8152506200405160201b60201c565b604051806020016040528060405180606001604052806028815260200162007d6f6028913990526005600052600360205262000c61907f405aad32e1adbac89bb7f176e338b8fc6e994ca210c9bb7bdca249b465942250906001620041d9565b50604051806040016040528060405180606001604052806028815260200162008091602891398152602001604051806060016040528060288152602001620078cc6028913990526005600052600460205262000ce1907f04cde762ef08b6b6c5ded8e8c4c0b3f4e5c9ad7342c88fcc93681b4588b73f0590600262004232565b5062000d926005600460405180606001604052806028815260200162007f4b6028913960405180606001604052806030815260200162007c986030913960405180604001604052806010815260200160008051602062007fc783398151915281525060405180602001604052806000815250604051806020016040528060008152506040518060400160405280600a8152602001691899179998979918191960b11b8152506200405160201b60201c565b604051806020016040528060405180606001604052806028815260200162007b0a6028913990526006600052600360205262000df2907fc69056f16cbaa3c616b828e333ab7d3a32310765507f8f58359e99ebb7a885f3906001620041d9565b5060405180604001604052806040518060600160405280602d815260200162007877602d9139815260200160405180606001604052806028815260200162007ab56028913990526006600052600460205262000e72907fc59312466997bb42aaaf719ece141047820e6b34531e1670dc1852a453648f0f90600262004232565b5062000f3f600660046040518060600160405280602881526020016200792d602891396040518060400160405280601981526020017f566f726d69737461625f7361617465646f6b756d656e6469640000000000000081525060405180604001604052806010815260200160008051602062007fc783398151915281525060405180602001604052806000815250604051806020016040528060008152506040518060400160405280600a8152602001691899179998979918191960b11b8152506200405160201b60201c565b6040518060200160405280604051806060016040528060288152602001620080696028913990526007600052600360205262000f9f907ff2c49132ed1cee2a7e75bde50d332a2f81f1d01e5456d8a19d1df09bd561dbd2906001620041d9565b50604051806020016040528060405180606001604052806028815260200162007b0a6028913990526007600052600460205262001000907fbeb3bad75134cb432e5707980e3245c52c5998a1125ee30f2f0dbf3925b1e551906001620041d9565b50620010cd6007600460405180606001604052806028815260200162007b82602891396040518060400160405280601b81526020017f50616b69625f6b617562615f6a615f7361616461625f76616c6a61000000000081525060405180604001604052806010815260200160008051602062007fc783398151915281525060405180602001604052806000815250604051806020016040528060008152506040518060400160405280600a8152602001691899179998979918191960b11b8152506200405160201b60201c565b604051806020016040528060405180606001604052806028815260200162007de9602891399052600860005260036020526200112d907f85aaa47b6dc46495bb8824fad4583769726fea36efd831a35556690b830a8fbe906001620041d9565b50604051806020016040528060405180606001604052806028815260200162007e5a602891399052600860005260046020526200118e907f2645749a946633740611cfc8178319f0958659d6922e4bf7e3a08b44789f53a4906001620041d9565b506200123f6008600460405180606001604052806028815260200162007955602891396040518060600160405280603881526020016200819d6038913960405180604001604052806010815260200160008051602062007fc783398151915281525060405180602001604052806000815250604051806020016040528060008152506040518060400160405280600a8152602001691899179998979918191960b11b8152506200405160201b60201c565b604051806020016040528060405180606001604052806028815260200162007955602891399052600960005260036020526200129f907f8a8dc4e5242ea8b1ab1d60606dae757e6c2cca9f92a2cced9f72c19960bcb458906001620041d9565b50604051806020016040528060405180606001604052806028815260200162007e326028913990526009600052600460205262001300907f4ad5a04d53b5856f318545bb721f67d3f6d0a5a999f25eec7e20eaeb4c47b933906001620041d9565b50620013b16009600460405180606001604052806028815260200162007e5a6028913960405180608001604052806054815260200162007ecf6054913960405180604001604052806010815260200160008051602062007fc783398151915281525060405180602001604052806000815250604051806020016040528060008152506040518060400160405280600a8152602001691899179998979918191960b11b8152506200405160201b60201c565b6040518060200160405280604051806060016040528060288152602001620081fd602891399052600a600052600360205262001411907f9dcb9783ba5cd0b54745f65f4f918525e461e91888c334e5342cb380ac558d53906001620041d9565b5060405180602001604052806040518060600160405280602d815260200162007a60602d91399052600a600052600460205262001472907f5c6b02db8b672415ffad906d7ccee10bd53dbad7d0b29e2bc0e50c93d5f31093906001620041d9565b506200153f600a6004604051806060016040528060288152602001620078a4602891396040518060400160405280601681526020017f416e6e61625f736561646d655f7465686e696b756c650000000000000000000081525060405180604001604052806010815260200160008051602062007fc783398151915281525060405180602001604052806000815250604051806020016040528060008152506040518060400160405280600a8152602001691899179998979918191960b11b8152506200405160201b60201c565b604051806020016040528060405180606001604052806028815260200162007baa602891399052600b60005260036020526200159f907f2d72af3c1b2b2956e6f694fb741556d5ca9524373974378cdbec16afa8b84164906001620041d9565b5060405180604001604052806040518060600160405280602d815260200162007cc8602d9139815260200160405180606001604052806028815260200162008175602891399052600b60005260046020526200161f907f0c1469ad586d86b6976c45826d7ae56d76ee516e37a2bccffbe904b74dbae7ea90600262004232565b50620016d1600b6004604051806060016040528060288152602001620080416028913960405180606001604052806024815260200162007c1f602491396040518060400160405280600d81526020016c52656d6f6e64697465686e696b60981b81525060405180602001604052806000815250604051806020016040528060008152506040518060400160405280600a8152602001691899179998979918191960b11b8152506200405160201b60201c565b604051806020016040528060405180606001604052806028815260200162007d47602891399052600c600052600360205262001731907fd56a60595ebefebed7f22dcee6c2acc61b06cf8c68e84c88677840365d1ff92b906001620041d9565b5060405180602001604052806040518060600160405280602d815260200162008014602d91399052600c600052600460205262001792907f140aabff1a85df08546c9a350c79ae18341bde4a2cef5d2fd460885c0128ce26906001620041d9565b5062001852600c600460405180606001604052806028815260200162007ea7602891396040518060400160405280600f81526020016e52656d6f6e6469625f736561646d6560881b8152506040518060400160405280600d81526020016c52656d6f6e64697465686e696b60981b81525060405180602001604052806000815250604051806020016040528060008152506040518060400160405280600a8152602001691899179998979918191960b11b8152506200405160201b60201c565b604051806020016040528060405180606001604052806028815260200162007e32602891399052600d6000526003602052620018b2907fa8f2d96126c6d0ad63adabaef7bf5cf47f163fb0c218a473d28f62312d197bcf906001620041d9565b506040518060200160405280604051806060016040528060288152602001620080e6602891399052600d600052600460205262001913907fa5022b2bfd144bf9103d80168549b5df7c72ab60bd51bf71a02a08d844853b4a906001620041d9565b50620019e1600d600460405180606001604052806028815260200162007b32602891396040518060400160405280601c81526020017f566969625f72656d6f6e64697475645f736561646d655f6c61747475000000008152506040518060400160405280600d81526020016c52656d6f6e64697465686e696b60981b81525060405180602001604052806000815250604051806020016040528060008152506040518060400160405280600a8152602001691899179998979918191960b11b8152506200405160201b60201c565b604051806020016040528060405180606001604052806028815260200162007a8d602891399052600e600052600360205262001a41907fd6ebcc64c739277b117ce359e436534b234b76e914c80ad276abf5b562078939906001620041d9565b5060405180602001604052806040518060600160405280602d815260200162007c6b602d91399052600e600052600460205262001aa2907feb3e677499e881fe1bdbc344a49c412138038a9f40883b6dc68f713aab483523906001620041d9565b5062001b54600e600460405180606001604052806028815260200162007f236028913960405180606001604052806028815260200162007c43602891396040518060400160405280600d81526020016c52656d6f6e64697465686e696b60981b81525060405180602001604052806000815250604051806020016040528060008152506040518060400160405280600a8152602001691899179998979918191960b11b8152506200405160201b60201c565b604051806020016040528060405180606001604052806028815260200162007b32602891399052600f600052600360205262001bb4907ff60b7f6a315ec68a6ac240e69dca53652b38627f709a2caa217d9e18af4d7a60906001620041d9565b5060405180602001604052806040518060600160405280602d815260200162007dbc602d91399052600f600052600460205262001c15907f66b61daf77b854ca6ba000a8d4b340eafcdb71b6583753b4af89fceb54988fff906001620041d9565b5062001cc7600f6004604051806060016040528060288152602001620080e66028913960405180606001604052806021815260200162007e11602191396040518060400160405280600d81526020016c52656d6f6e64697465686e696b60981b81525060405180602001604052806000815250604051806020016040528060008152506040518060400160405280600a8152602001691899179998979918191960b11b8152506200405160201b60201c565b60405180602001604052806040518060600160405280602881526020016200792d6028913990526010600052600360205262001d27907f47d4745e02b343689a5e7ac121d2a352b7a15c10328a8759fd7d4cf0999002bb906001620041d9565b5060405180602001604052806040518060600160405280602d815260200162007add602d913990526010600052600460205262001d88907f4a597304b2df0a7a7b428b3c24c35ba6373aabebf9972387f5610f74a01b21bd906001620041d9565b5062001e526010600460405180606001604052806028815260200162007ab5602891396040518060400160405280601e81526020017f53656c67697461625f76616c6a615f746f6f746a615f6b6f6e74616b7469000081525060405180604001604052806009815260200168135d5d59da5a9d5a1d60ba1b81525060405180602001604052806000815250604051806020016040528060008152506040518060400160405280600a8152602001691899179998979918191960b11b8152506200405160201b60201c565b6040518060200160405280604051806060016040528060288152602001620080416028913990526011600052600360205262001eb2907ffc111d09a6e2f0958402cbe16a5aef32c9d8ddb9a4df7271140de57bfed6525a906001620041d9565b506040518060200160405280604051806060016040528060288152602001620081d56028913990526011600052600460205262001f13907fac375bcb880242328180c23d4a918023a12a7caf7cf12b8c4074e4a3f39900a0906001620041d9565b5062001fc16011600460405180606001604052806028815260200162008175602891396040518060600160405280602c815260200162007a0c602c913960405180604001604052806009815260200168105cdcda5cdd195b9d60ba1b81525060405180602001604052806000815250604051806020016040528060008152506040518060400160405280600a8152602001691899179998979918191960b11b8152506200405160201b60201c565b604051806020016040528060405180606001604052806028815260200162007a386028913990526012600052600360205262002021907f6a2b6bffaca788160f671fa62d34758b717f75a90ad5a468757c50d61f33c443906001620041d9565b50604051806020016040528060405180606001604052806028815260200162007f236028913990526012600052600460205262002082907f7f6fa3f34639ea1891363ca773619dbd5f652d7ab50411111dde2f57e3ae13ad906001620041d9565b506200214c6012600460405180606001604052806028815260200162007a8d602891396040518060400160405280601a81526020017f416e6e61625f6b6c69656e64696c655f736561646d655f756c6500000000000081525060405180604001604052806009815260200168105cdcda5cdd195b9d60ba1b81525060405180602001604052806000815250604051806020016040528060008152506040518060400160405280600a8152602001691899179998979918191960b11b8152506200405160201b60201c565b604051806020016040528060405180606001604052806028815260200162007d1f60289139905260136000526003602052620021ac907f8a8166be5f30abeb6c91ee2f07eeb0b2eb14b4d59534d10a1c143964bd617919906001620041d9565b50604051806020016040528060405180606001604052806028815260200162007b82602891399052601360005260046020526200220d907f9bbf2ad10217b6212df1939350a047a69b6887b770020d3fa8c328c0653ee987906001620041d9565b50620022cf60136004604051806060016040528060288152602001620080696028913960405180606001604052806025815260200162007bd2602591396040518060400160405280601481526020017f546f6f746a612072656d6f6e64696b65736b757300000000000000000000000081525060405180602001604052806000815250604051806020016040528060008152506040518060400160405280600a8152602001691899179998979918191960b11b8152506200405160201b60201c565b604051806020016040528060405180606001604052806028815260200162007e32602891399052601460005260036020526200232f907f0ffe031ee7f67944a037276fd51f48fcc2fe05a729c43144606bc8777da8014f906001620041d9565b506040518060200160405280604051806060016040528060288152602001620080696028913990526014600052600460205262002390907ff7deed9399d719bf61dcb1322c056a03a885c275ab093673b0cc182b84bea061906001620041d9565b506200246e6014600460405180606001604052806028815260200162007d1f602891396040518060400160405280601f81526020017f5361616461625f736561646d655f7461676173695f48616e73616269737365008152506040518060400160405280601481526020017f546f6f746a612072656d6f6e64696b65736b757300000000000000000000000081525060405180602001604052806000815250604051806020016040528060008152506040518060400160405280600a8152602001691899179998979918191960b11b8152506200405160201b60201c565b60405180602001604052806040518060600160405280602881526020016200809160289139905260156000526003602052620024ce907f94f2575c7592b1dfd5a8846a17482da7b0e38fb10c93880d74916c5f16792464906001620041d9565b506200259a6015600060405180606001604052806028815260200162007bf7602891396040518060400160405280601d81526020017f53656164655f73616162756272656d6f6e74695f6b756c6c65726967610000008152506040518060400160405280600b81526020016a4c616f6a75686174616a6160a81b81525060405180602001604052806000815250604051806020016040528060008152506040518060400160405280600a8152602001691899179998979918191960b11b8152506200405160201b60201c565b604051806020016040528060405180606001604052806028815260200162007f4b60289139905260166000526003602052620025fa907f370c8c7c6215b209793aa720f65163fbeecd5f5114008532ba0649ee23405402906001620041d9565b50620026ab60166000604051806060016040528060288152602001620078cc60289139604051806060016040528060398152602001620078f46039913960405180604001604052806010815260200160008051602062007fc783398151915281525060405180602001604052806000815250604051806020016040528060008152506040518060400160405280600a8152602001691899179998979918191960b11b8152506200405160201b60201c565b604051806020016040528060405180606001604052806028815260200162008175602891399052601760005260036020526200270b907f0f0519a40093d7edad68f12e2ec868fdf92a03df1cbec3e035c987d6b218f2f4906001620041d9565b50620027b960176000604051806060016040528060288152602001620081d56028913960405180606001604052806028815260200162007f9f6028913960405180604001604052806009815260200168105cdcda5cdd195b9d60ba1b81525060405180602001604052806000815250604051806020016040528060008152506040518060400160405280600a8152602001691899179998979918191960b11b8152506200405160201b60201c565b60405180604001604052806040518060600160405280602881526020016200799e602891398152602001604051806060016040528060288152602001620078a46028913990526018600052600460205262002838907f1ac66383b86984a837d32661c9fdda480194de6e2dbd3891e29fadcb763a62da90600262004232565b506200290460186001604051806060016040528060288152602001620081fd602891396040518060400160405280601c81526020017f52656d6f6e64697475645f73656164655f76616c6a61737461747564000000008152506040518060400160405280600b81526020016a4c616f6a75686174616a6160a81b81525060405180602001604052806000815250604051806020016040528060008152506040518060400160405280600a8152602001691899179998979918191960b11b8152506200405160201b60201c565b604051806020016040528060405180606001604052806028815260200162007a8d6028913990526019600052600460205262002964907feb5726be0cc40daa58a5f8f81528465ddb0c35e1e56e157eca916d69d6c34324906001620041d9565b5062002a126019600160405180606001604052806028815260200162007a3860289139604051806060016040528060258152602001620079e76025913960405180604001604052806009815260200168105cdcda5cdd195b9d60ba1b81525060405180602001604052806000815250604051806020016040528060008152506040518060400160405280600a8152602001691899179998979918191960b11b8152506200405160201b60201c565b60405180604001604052806040518060600160405280602d815260200162007fe7602d913981526020016040518060600160405280602d815260200162007cc8602d91399052601a600052600360205262002a91907f68fc0e82119a780903c8e97d959a36d433d1e401ad7b7a461ff2087e524d54a890600262004232565b50604051806020016040528060405180606001604052806028815260200162007f4b602891399052601a600052600460205262002af2907ff6eb4279aa452568dd287204244d7e29d7ca1bc7a01440f08342bf2599f4b9b6906001620041d9565b5062002b81601a600560405180606001604052806028815260200162007d6f6028913960408051602080820183526000808352835180850185526010815260008051602062007fc78339815191528184015284518084018652828152855180850187529283528551808701909652600a8652691899179998979918191960b11b93860193909352929362004051565b60405180604001604052806040518060600160405280602d815260200162007add602d913981526020016040518060600160405280602d815260200162007877602d91399052601b600052600360205262002c00907f925be0b447003e4366d6addf976a9e5448b14e56ca3733fe4a9ca6f86b0dcbd590600262004232565b5060405180602001604052806040518060600160405280602881526020016200814d602891399052601b600052600460205262002c61907fd8906b3e50614809ec86d7bb29bf3c4e8647f5376e87f81687a4a770137f7d59906001620041d9565b5062002cf0601b600560405180606001604052806028815260200162007b5a6028913960408051602080820183526000808352835180850185526010815260008051602062007fc78339815191528184015284518084018652828152855180850187529283528551808701909652600a8652691899179998979918191960b11b93860193909352929362004051565b60405180604001604052806040518060600160405280602d81526020016200784a602d913981526020016040518060600160405280602d815260200162007a60602d91399052601c600052600360205262002d6f907f57023ef7fe58b878582140ea36f22723905ad724896eaf74090fba76c229bd2290600262004232565b50604051806020016040528060405180606001604052806028815260200162007955602891399052601c600052600460205262002dd0907f69bc8c08a6b955aec2072ca430bac7123bc3539264a736d1a23621b0f0c62f31906001620041d9565b5062002e5f601c600560405180606001604052806028815260200162007de96028913960408051602080820183526000808352835180850185526010815260008051602062007fc78339815191528184015284518084018652828152855180850187529283528551808701909652600a8652691899179998979918191960b11b93860193909352929362004051565b60405180604001604052806040518060600160405280602d8152602001620080b9602d913981526020016040518060600160405280602d815260200162008014602d91399052601d600052600360205262002ede907f4ba0d371c59a4c8176901cb7799ecdd8b41b974be3a1349b5d0a9ff9aaa230d990600262004232565b50604051806020016040528060405180606001604052806028815260200162008041602891399052601d600052600460205262002f3f907f547911337f50119fe7598b1be3fa84d3d0506ffe5c730db17c43bc74040bbfce906001620041d9565b5062002fcf601d600560405180606001604052806028815260200162007baa602891396040805160208082018352600080835283518085018552600d81526c52656d6f6e64697465686e696b60981b8184015284518084018652828152855180850187529283528551808701909652600a8652691899179998979918191960b11b93860193909352929362004051565b60405180604001604052806040518060600160405280602d815260200162007c6b602d913981526020016040518060600160405280602d815260200162007dbc602d91399052601e60005260036020526200304e907f6117fee2f1274e1b392d2c3fe842478040a980d896757f38cbfe2ceebfa9f55f90600262004232565b50604051806020016040528060405180606001604052806028815260200162007ea7602891399052601e6000526004602052620030af907f9041ee6632bd2142b9cc58f348e0761559f8d964fe48ac6d87dc2b689213e3bb906001620041d9565b506200313f601e600560405180606001604052806028815260200162007d47602891396040805160208082018352600080835283518085018552600d81526c52656d6f6e64697465686e696b60981b8184015284518084018652828152855180850187529283528551808701909652600a8652691899179998979918191960b11b93860193909352929362004051565b60405180602001604052806040518060600160405280602881526020016200799e602891399052601f60005260036020526200319f907fbb7ea1d025e27e153f156855239b4b128e9da3a64a6f0a0270f8920989588142906001620041d9565b50604051806020016040528060405180606001604052806028815260200162007de9602891399052601f600052600460205262003200907f4c55bec45be59a99d441ccb7880f9b68f316b687ab5ac77efc4386a807007768906001620041d9565b506200328f601f60046040518060600160405280602d81526020016200784a602d913960408051602080820183526000808352835180850185526010815260008051602062007fc78339815191528184015284518084018652828152855180850187529283528551808701909652600a8652691899179998979918191960b11b93860193909352929362004051565b60405180602001604052806040518060600160405280602881526020016200814d6028913990526020600081905260039052620032f0907fe0033292d8349127dd6b6fa9c34f6f3d290151b2785dbcbf18fa2c3985d1f743906001620041d9565b50604051806020016040528060405180606001604052806028815260200162007d6f602891399052602060008190526004905262003352907f96648185182926add89ee4d5c354d3f3e8383a8966d4d875bd8575e13aa27a96906001620041d9565b50620033e1602060046040518060600160405280602d815260200162007fe7602d913960408051602080820183526000808352835180850185526010815260008051602062007fc78339815191528184015284518084018652828152855180850187529283528551808701909652600a8652691899179998979918191960b11b93860193909352929362004051565b6040518060200160405280604051806060016040528060288152602001620080416028913990526021600052600360205262003441907fb79c508b45d95db38395ed273cca5afa4bcb8f1225ec7e9c849430db27d6f0fe906001620041d9565b50604051806020016040528060405180606001604052806028815260200162007d6f60289139905260216000526004602052620034a2907f1a6a7f21c46330bc6f6a1e986d3ef56bc7833cc3006bfde177cce9f142837659906001620041d9565b5062003531602160046040518060600160405280602d815260200162007cc8602d913960408051602080820183526000808352835180850185526010815260008051602062007fc78339815191528184015284518084018652828152855180850187529283528551808701909652600a8652691899179998979918191960b11b93860193909352929362004051565b6040518060200160405280604051806060016040528060288152602001620078a46028913990526022600052600360205262003591907f9f4e12e393433b9749089d7660b578840ae05c9423ce1aefceb0c80c340a21c6906001620041d9565b50604051806020016040528060405180606001604052806028815260200162007de960289139905260226000526004602052620035f2907f7817f7889f42986426820e39b6be36471d2facb3b03609d32089206107cd0e8a906001620041d9565b5062003681602260046040518060600160405280602d815260200162007a60602d913960408051602080820183526000808352835180850185526010815260008051602062007fc78339815191528184015284518084018652828152855180850187529283528551808701909652600a8652691899179998979918191960b11b93860193909352929362004051565b604051806020016040528060405180606001604052806028815260200162007ab560289139905260236000526003602052620036e1907f4f8c9d329171a3577e6beb939d329b1f26da4c7a51f25bbe134c866f0feee945906001620041d9565b50604051806020016040528060405180606001604052806028815260200162007b5a6028913990526023600052600460205262003742907fb91c9b6e3cf94511f58867e361a9e0dd6a5c84a5d216d6f87ae5fdb9bf257b2b906001620041d9565b50620037f3602360046040518060600160405280602d815260200162007add602d913960405180606001604052806025815260200162007d976025913960405180604001604052806010815260200160008051602062007fc783398151915281525060405180602001604052806000815250604051806020016040528060008152506040518060400160405280600a8152602001691899179998979918191960b11b8152506200405160201b60201c565b60405180602001604052806040518060600160405280602881526020016200792d6028913990526024600052600360205262003853907f10f5232ee9f6343d8bf0b7c9043a31ee616d8f028dcf3d2e9033ff8e0ce0ef0f906001620041d9565b50604051806020016040528060405180606001604052806028815260200162007b5a60289139905260246000526004602052620038b4907f724ad3d24f57aae4bebead5383879105ce62b9d5fa67d4343ae412b59bd7971d906001620041d9565b5062003965602460046040518060600160405280602d815260200162007877602d9139604051806060016040528060218152602001620079c66021913960405180604001604052806010815260200160008051602062007fc783398151915281525060405180602001604052806000815250604051806020016040528060008152506040518060400160405280600a8152602001691899179998979918191960b11b8152506200405160201b60201c565b60405180602001604052806040518060600160405280602881526020016200814d60289139905260256000526003602052620039c5907f37e56e4c2b6ed73b31a7a63e641bfee67245b50921806a650aa65bb58a213ba7906001620041d9565b50604051806020016040528060405180606001604052806028815260200162007baa6028913990526025600052600460205262003a26907f2b9c662716c34a6b24cd9b4f63fe731a136a5a3399a9750ed5cdee99e40faa3a906001620041d9565b5062003ad8602560046040518060600160405280602d8152602001620080b9602d91396040518060600160405280602c815260200162007f73602c91396040518060400160405280600d81526020016c52656d6f6e64697465686e696b60981b81525060405180602001604052806000815250604051806020016040528060008152506040518060400160405280600a8152602001691899179998979918191960b11b8152506200405160201b60201c565b604051806020016040528060405180606001604052806028815260200162007f236028913990526026600052600360205262003b38907f6e80044b428a86ddb5f7277680f16ac528219bbc3f477f367a023fd1680fef05906001620041d9565b50604051806020016040528060405180606001604052806028815260200162007d476028913990526026600052600460205262003b99907ff8f9fbe49577efd32b3647a88078df070961ceaa913763423b34eeb65953041b906001620041d9565b5062003c67602660046040518060600160405280602d815260200162007c6b602d91396040518060400160405280601d81526020017f53656164655f6f6e5f746f6f6475645f6b6c69656e64695f706f6f6c740000008152506040518060400160405280600d81526020016c52656d6f6e64697465686e696b60981b81525060405180602001604052806000815250604051806020016040528060008152506040518060400160405280600a8152602001691899179998979918191960b11b8152506200405160201b60201c565b604051806020016040528060405180606001604052806028815260200162007ea76028913990526027600052600360205262003cc7907f10f3a17841c6d818ccbb16e4596978865bb77ba586b583c9de26b166e55de864906001620041d9565b50604051806020016040528060405180606001604052806028815260200162007baa6028913990526027600052600460205262003d28907faaded8c7cb956d25d285cba29213c176ec5fc32f3996cb04804f6c9dc496ea72906001620041d9565b5062003dda602760046040518060600160405280602d815260200162008014602d913960405180606001604052806025815260200162007e82602591396040518060400160405280600d81526020016c52656d6f6e64697465686e696b60981b81525060405180602001604052806000815250604051806020016040528060008152506040518060400160405280600a8152602001691899179998979918191960b11b8152506200405160201b60201c565b6040518060200160405280604051806060016040528060288152602001620080e66028913990526028600052600360205262003e3a907ff787d5ff306ee7ea1d7b35b5cacd5a837646921c113945dbc3a3b6329ce40033906001620041d9565b50604051806020016040528060405180606001604052806028815260200162007d476028913990526028600052600460205262003e9b907f2b634da6ab875d88498f503820d9b51f6eb10d3d2f378c32aef2289b509f3def906001620041d9565b5062003f4d602860046040518060600160405280602d815260200162007dbc602d91396040518060600160405280602181526020016200797d602191396040518060400160405280600d81526020016c52656d6f6e64697465686e696b60981b81525060405180602001604052806000815250604051806020016040528060008152506040518060400160405280600a8152602001691899179998979918191960b11b8152506200405160201b60201c565b620044fc565b6000816001600160401b0381111562003f705762003f7062004335565b60405190808252806020026020018201604052801562003f9a578160200160208202803683370190505b50905060005b8281101562003fd3578082828151811062003fbf5762003fbf6200434b565b602090810291909101015260010162003fa0565b506040805160608101825260085480825260208083018781528385018690526000928352908290529290208151815591519091906001820190620040189082620043f2565b5060408201518051620040369160028401916020909101906200427d565b50506008546200404991506001620044be565b600855505050565b604051806101000160405280898152602001886007811115620040785762004078620044e6565b815260200187815260200186815260200185815260200184815260200183815260200182815250600260008a81526020019081526020016000206000820151816000015560208201518160010160006101000a81548160ff02191690836007811115620040e957620040e9620044e6565b021790555060408201516002820190620041049082620043f2565b50606082015160038201906200411b9082620043f2565b5060808201516004820190620041329082620043f2565b5060a08201516005820190620041499082620043f2565b5060c08201516006820190620041609082620043f2565b5060e08201516007820190620041779082620043f2565b5050505050505050505050565b828054828255906000526020600020908101928215620041c7579160200282015b82811115620041c7578251829060ff16905591602001919060010190620041a5565b50620041d5929150620042bb565b5090565b82805482825590600052602060002090810192821562004224579160200282015b82811115620042245782518290620042139082620043f2565b5091602001919060010190620041fa565b50620041d5929150620042d2565b82805482825590600052602060002090810192821562004224579160200282015b828111156200422457825182906200426c9082620043f2565b509160200191906001019062004253565b828054828255906000526020600020908101928215620041c7579160200282015b82811115620041c75782518255916020019190600101906200429e565b5b80821115620041d55760008155600101620042bc565b80821115620041d5576000620042e98282620042f3565b50600101620042d2565b508054620043019062004361565b6000825580601f1062004312575050565b601f016020900490600052602060002090810190620043329190620042bb565b50565b634e487b7160e01b600052604160045260246000fd5b634e487b7160e01b600052603260045260246000fd5b600181811c908216806200437657607f821691505b6020821081036200439757634e487b7160e01b600052602260045260246000fd5b50919050565b601f821115620043ed576000816000526020600020601f850160051c81016020861015620043c85750805b601f850160051c820191505b81811015620043e957828155600101620043d4565b5050505b505050565b81516001600160401b038111156200440e576200440e62004335565b62004426816200441f845462004361565b846200439d565b602080601f8311600181146200445e5760008415620044455750858301515b600019600386901b1c1916600185901b178555620043e9565b600085815260208120601f198616915b828110156200448f578886015182559484019460019091019084016200446e565b5085821015620044ae5787850151600019600388901b60f8161c191681555b5050505050600190811b01905550565b80820180821115620044e057634e487b7160e01b600052601160045260246000fd5b92915050565b634e487b7160e01b600052602160045260246000fd5b61333e806200450c6000396000f3fe60806040526004361061014b5760003560e01c806379a42d06116100b657806398d46dfd1161006f57806398d46dfd146103ee578063a58603e01461040e578063af12a5711461042e578063bed34bba14610443578063c29de7ca14610463578063ecd3645e1461048357600080fd5b806379a42d061461033257806386209b871461034857806386f612271461037b57806394d55eaf1461039b57806395755d17146103bb57806397ada366146103ce57600080fd5b80633a3e8a95116101085780633a3e8a951461025f5780634b5ae0771461028e578063581cf028146102a357806359b97b97146102c35780635f03facd146102e357806378660f5e1461031257600080fd5b806309be70b2146101505780630b09c8ce1461017b5780630d1657e8146101ba57806311ae9ed2146101ee57806319dfc19d1461020357806324a4dd9414610230575b600080fd5b34801561015c57600080fd5b506101656104a3565b60405161017291906129b5565b60405180910390f35b34801561018757600080fd5b506101aa6101963660046129f9565b600090815260066020526040902054151590565b6040519015158152602001610172565b3480156101c657600080fd5b506101da6101d53660046129f9565b6104fb565b604051610172989796959493929190612a78565b3480156101fa57600080fd5b50610165610871565b34801561020f57600080fd5b5061022361021e366004612b29565b6108c7565b6040516101729190612b4b565b34801561023c57600080fd5b506101aa61024b3660046129f9565b600090815260036020526040902054151590565b34801561026b57600080fd5b506101aa61027a3660046129f9565b600090815260046020526040902054151590565b6102a161029c3660046129f9565b610980565b005b3480156102af57600080fd5b506102236102be366004612b29565b610a14565b3480156102cf57600080fd5b506101aa6102de366004612bac565b610a30565b3480156102ef57600080fd5b506101aa6102fe3660046129f9565b600090815260056020526040902054151590565b34801561031e57600080fd5b5061016561032d3660046129f9565b610a7b565b61033a610ade565b604051908152602001610172565b34801561035457600080fd5b506103686103633660046129f9565b610af1565b6040516101729796959493929190612c5e565b34801561038757600080fd5b50610223610396366004612cd9565b610e29565b3480156103a757600080fd5b506102236103b6366004612b29565b610e42565b6102a16103c9366004612d72565b610e5e565b3480156103da57600080fd5b5061033a6103e9366004612e04565b61106a565b3480156103fa57600080fd5b506102a1610409366004612e55565b6110e2565b34801561041a57600080fd5b506102a1610429366004612f66565b611203565b34801561043a57600080fd5b506101656112f3565b34801561044f57600080fd5b506101aa61045e366004612fab565b611349565b34801561046f57600080fd5b506102a161047e366004612fab565b6113a2565b34801561048f57600080fd5b5061022361049e366004612b29565b6115fb565b6060600a8054806020026020016040519081016040528092919081815260200182805480156104f157602002820191906000526020600020905b8154815260200190600101908083116104dd575b5050505050905090565b6002602081905260009182526040909120805460018201549282018054919360ff1692916105289061300f565b80601f01602080910402602001604051908101604052809291908181526020018280546105549061300f565b80156105a15780601f10610576576101008083540402835291602001916105a1565b820191906000526020600020905b81548152906001019060200180831161058457829003601f168201915b5050505050908060030180546105b69061300f565b80601f01602080910402602001604051908101604052809291908181526020018280546105e29061300f565b801561062f5780601f106106045761010080835404028352916020019161062f565b820191906000526020600020905b81548152906001019060200180831161061257829003601f168201915b5050505050908060040180546106449061300f565b80601f01602080910402602001604051908101604052809291908181526020018280546106709061300f565b80156106bd5780601f10610692576101008083540402835291602001916106bd565b820191906000526020600020905b8154815290600101906020018083116106a057829003601f168201915b5050505050908060050180546106d29061300f565b80601f01602080910402602001604051908101604052809291908181526020018280546106fe9061300f565b801561074b5780601f106107205761010080835404028352916020019161074b565b820191906000526020600020905b81548152906001019060200180831161072e57829003601f168201915b5050505050908060060180546107609061300f565b80601f016020809104026020016040519081016040528092919081815260200182805461078c9061300f565b80156107d95780601f106107ae576101008083540402835291602001916107d9565b820191906000526020600020905b8154815290600101906020018083116107bc57829003601f168201915b5050505050908060070180546107ee9061300f565b80601f016020809104026020016040519081016040528092919081815260200182805461081a9061300f565b80156108675780601f1061083c57610100808354040283529160200191610867565b820191906000526020600020905b81548152906001019060200180831161084a57829003601f168201915b5050505050905088565b6060600b8054806020026020016040519081016040528092919081815260200182805480156104f157602002820191906000526020600020908154815260200190600101908083116104dd575050505050905090565b600360205281600052604060002081815481106108e357600080fd5b906000526020600020016000915091505080546108ff9061300f565b80601f016020809104026020016040519081016040528092919081815260200182805461092b9061300f565b80156109785780601f1061094d57610100808354040283529160200191610978565b820191906000526020600020905b81548152906001019060200180831161095b57829003601f168201915b505050505081565b600061098c6000610a7b565b6000838152600560209081526040808320546002928390529083206001015493945015159260ff1660078111156109c5576109c5612a12565b149050816109dc576109d78484611617565b610a04565b8180156109e65750805b156109f5576109d784846116fb565b80610a0457610a048484611617565b610a0e8484611719565b50505050565b600560205281600052604060002081815481106108e357600080fd5b6000805b8251811015610a6f5783838281518110610a5057610a50613049565b602002602001015103610a67576001915050610a75565b600101610a34565b50600090505b92915050565b60008181526020818152604091829020600201805483518184028101840190945280845260609392830182828015610ad257602002820191906000526020600020905b815481526020019060010190808311610abe575b50505050509050919050565b6000610aeb600a82612937565b50600090565b600081815260026020526040812080546001909101548291606091829182918291829160ff166007811115610b2857610b28612a12565b60008a8152600260208190526040909120908101805490916003810191600582019160068101916004909101908590610b609061300f565b80601f0160208091040260200160405190810160405280929190818152602001828054610b8c9061300f565b8015610bd95780601f10610bae57610100808354040283529160200191610bd9565b820191906000526020600020905b815481529060010190602001808311610bbc57829003601f168201915b50505050509450838054610bec9061300f565b80601f0160208091040260200160405190810160405280929190818152602001828054610c189061300f565b8015610c655780601f10610c3a57610100808354040283529160200191610c65565b820191906000526020600020905b815481529060010190602001808311610c4857829003601f168201915b50505050509350828054610c789061300f565b80601f0160208091040260200160405190810160405280929190818152602001828054610ca49061300f565b8015610cf15780601f10610cc657610100808354040283529160200191610cf1565b820191906000526020600020905b815481529060010190602001808311610cd457829003601f168201915b50505050509250818054610d049061300f565b80601f0160208091040260200160405190810160405280929190818152602001828054610d309061300f565b8015610d7d5780601f10610d5257610100808354040283529160200191610d7d565b820191906000526020600020905b815481529060010190602001808311610d6057829003601f168201915b50505050509150808054610d909061300f565b80601f0160208091040260200160405190810160405280929190818152602001828054610dbc9061300f565b8015610e095780601f10610dde57610100808354040283529160200191610e09565b820191906000526020600020905b815481529060010190602001808311610dec57829003601f168201915b505050505090509650965096509650965096509650919395979092949650565b600160205260009081526040902080546108ff9061300f565b600460205281600052604060002081815481106108e357600080fd5b60008481526002602052604090206004018054610f03918591610e809061300f565b80601f0160208091040260200160405190810160405280929190818152602001828054610eac9061300f565b8015610ef95780601f10610ece57610100808354040283529160200191610ef9565b820191906000526020600020905b815481529060010190602001808311610edc57829003601f168201915b5050505050611349565b610f0c57600080fd5b600084815260026020526040902060010154610f2a9060ff16611760565b610f3357600080fd5b6000600a8581548110610f4857610f48613049565b906000526020600020015460011490506000600b8681548110610f6d57610f6d613049565b906000526020600020015460011490508180610f865750805b1561106257600560008781526002602052604090206001015460ff166007811115610fb357610fb3612a12565b03610fc657610fc186611823565b611007565b600660008781526002602052604090206001015460ff166007811115610fee57610fee612a12565b03610ffc57610fc1866119f6565b611007868585611d07565b336001600160a01b03167f32e4ea1ee1b7d04aff7692ad7aa9a1db44a16ce2b519efa717ddd98034b9f1c3600260008981526020019081526020016000206002018686604051611059939291906130dc565b60405180910390a25b505050505050565b6000806110776000610a7b565b905060005b81518110156110d7576110c3846002600085858151811061109f5761109f613049565b602002602001015181526020019081526020016000206002018054610e809061300f565b156110cf579392505050565b60010161107c565b506101949392505050565b60405180610100016040528089815260200188600781111561110657611106612a12565b815260200187815260200186815260200185815260200184815260200183815260200182815250600260008a81526020019081526020016000206000820151816000015560208201518160010160006101000a81548160ff0219169083600781111561117457611174612a12565b02179055506040820151600282019061118d9082613167565b50606082015160038201906111a29082613167565b50608082015160048201906111b79082613167565b5060a082015160058201906111cc9082613167565b5060c082015160068201906111e19082613167565b5060e082015160078201906111f69082613167565b5050505050505050505050565b60008167ffffffffffffffff81111561121e5761121e612b65565b604051908082528060200260200182016040528015611247578160200160208202803683370190505b50905060005b8281101561127b578082828151811061126857611268613049565b602090810291909101015260010161124d565b5060408051606081018252600854808252602080830187815283850186905260009283529082905292902081518155915190919060018201906112be9082613167565b50604082015180516112da916002840191602090910190612955565b50506008546112eb91506001613227565b600855505050565b6060600c8054806020026020016040519081016040528092919081815260200182805480156104f157602002820191906000526020600020908154815260200190600101908083116104dd575050505050905090565b60008160405160200161135c9190613248565b60405160208183030381529060405280519060200120836040516020016113839190613248565b6040516020818303038152906040528051906020012014905092915050565b60006113ad8361106a565b90506001600a82815481106113c4576113c4613049565b90600052602060002001819055506000600c82815481106113e7576113e7613049565b90600052602060002001819055506000600b828154811061140a5761140a613049565b906000526020600020018190555060005b60078360405161142b9190613248565b9081526040519081900360200190205481101561158057600061150e6007856040516114579190613248565b9081526020016040518091039020838154811061147657611476613049565b90600052602060002001805461148b9061300f565b80601f01602080910402602001604051908101604052809291908181526020018280546114b79061300f565b80156115045780601f106114d957610100808354040283529160200191611504565b820191906000526020600020905b8154815290600101906020018083116114e757829003601f168201915b505050505061106a565b90506000600a828154811061152557611525613049565b90600052602060002001819055506000600c828154811061154857611548613049565b90600052602060002001819055506000600b828154811061156b5761156b613049565b6000918252602090912001555060010161141b565b50600061158c8361106a565b90506000600a82815481106115a3576115a3613049565b90600052602060002001819055506000600c82815481106115c6576115c6613049565b90600052602060002001819055506000600b82815481106115e9576115e9613049565b60009182526020909120015550505050565b600660205281600052604060002081815481106108e357600080fd5b60005b6000838152600360205260409020548110156116f657600083815260036020526040902080546116ee9184918490811061165657611656613049565b90600052602060002001805461166b9061300f565b80601f01602080910402602001604051908101604052809291908181526020018280546116979061300f565b80156116e45780601f106116b9576101008083540402835291602001916116e4565b820191906000526020600020905b8154815290600101906020018083116116c757829003601f168201915b5050505050611d79565b60010161161a565b505050565b60006117078383611e2d565b905080156116f6576116f68383611617565b60005b6000838152600660205260409020548110156116f657600083815260066020526040902080546117589184918490811061165657611656613049565b60010161171c565b60008082600781111561177557611775612a12565b14806117925750600282600781111561179057611790612a12565b145b806117ae575060038260078111156117ac576117ac612a12565b145b806117ca575060048260078111156117c8576117c8612a12565b145b806117e6575060018260078111156117e4576117e4612a12565b145b806118025750600582600781111561180057611800612a12565b145b80610a755750600682600781111561181c5761181c612a12565b1492915050565b6000600a828154811061183857611838613049565b90600052602060002001819055506001600c828154811061185b5761185b613049565b906000526020600020018190555060006118756000610a7b565b905060005b6000838152600360205260409020548110156116f65760008381526003602052604081208054839081106118b0576118b0613049565b9060005260206000200180546118c59061300f565b80601f01602080910402602001604051908101604052809291908181526020018280546118f19061300f565b801561193e5780601f106119135761010080835404028352916020019161193e565b820191906000526020600020905b81548152906001019060200180831161192157829003601f168201915b5050505050905060005b83518110156119ec5761196b826002600087858151811061109f5761109f613049565b156119e4576001600a85838151811061198657611986613049565b60200260200101518154811061199e5761199e613049565b9060005260206000200181905550600d8482815181106119c0576119c0613049565b602090810291909101810151825460018101845560009384529190922001556119ec565b600101611948565b505060010161187a565b600080611a036000610a7b565b905060005b600084815260046020526040902054811015611b61576000848152600460205260408120805483908110611a3e57611a3e613049565b906000526020600020018054611a539061300f565b80601f0160208091040260200160405190810160405280929190818152602001828054611a7f9061300f565b8015611acc5780601f10611aa157610100808354040283529160200191611acc565b820191906000526020600020905b815481529060010190602001808311611aaf57829003601f168201915b5050505050905060005b8351811015611b5757611af9826002600087858151811061109f5761109f613049565b15611b4f57600c848281518110611b1257611b12613049565b602002602001015181548110611b2a57611b2a613049565b9060005260206000200154600103611b4a57611b47856001613227565b94505b611b57565b600101611ad6565b5050600101611a08565b5060008381526004602052604090205482036116f6576000600a8481548110611b8c57611b8c613049565b90600052602060002001819055506001600c8481548110611baf57611baf613049565b906000526020600020018190555060005b600084815260036020526040902054811015610a0e576000848152600360205260408120805483908110611bf657611bf6613049565b906000526020600020018054611c0b9061300f565b80601f0160208091040260200160405190810160405280929190818152602001828054611c379061300f565b8015611c845780601f10611c5957610100808354040283529160200191611c84565b820191906000526020600020905b815481529060010190602001808311611c6757829003601f168201915b5050505050905060005b8351811015611cfd57611cb1826002600087858151811061109f5761109f613049565b15611cf5576001600a858381518110611ccc57611ccc613049565b602002602001015181548110611ce457611ce4613049565b600091825260209091200155611cfd565b600101611c8e565b5050600101611bc0565b611d12838383611f9d565b611d6c83600d805480602002602001604051908101604052809291908181526020018280548015611d6257602002820191906000526020600020905b815481526020019060010190808311611d4e575b5050505050610a30565b156116f6576116f66120a6565b60005b82518110156116f657611d9f826002600086858151811061109f5761109f613049565b8015611de157506001600c848381518110611dbc57611dbc613049565b602002602001015181548110611dd457611dd4613049565b9060005260206000200154105b15611e25576001600a848381518110611dfc57611dfc613049565b602002602001015181548110611e1457611e14613049565b600091825260209091200155505050565b600101611d7c565b6000805b8251811015610a6f5760008481526005602052604081208054611f049290611e5b57611e5b613049565b906000526020600020018054611e709061300f565b80601f0160208091040260200160405190810160405280929190818152602001828054611e9c9061300f565b8015611ee95780601f10611ebe57610100808354040283529160200191611ee9565b820191906000526020600020905b815481529060010190602001808311611ecc57829003601f168201915b50505050506002600086858151811061109f5761109f613049565b8015611f8657506000600b848381518110611f2157611f21613049565b602002602001015181548110611f3957611f39613049565b90600052602060002001541180611f8657506000600c848381518110611f6157611f61613049565b602002602001015181548110611f7957611f79613049565b9060005260206000200154115b15611f95576001915050610a75565b600101611e31565b600083815260026020526040812060060180546120519190611fbe9061300f565b80601f0160208091040260200160405190810160405280929190818152602001828054611fea9061300f565b80156120375780601f1061200c57610100808354040283529160200191612037565b820191906000526020600020905b81548152906001019060200180831161201a57829003601f168201915b505050505060405180602001604052806000815250611349565b159050600061207a600260008781526020019081526020016000206005018054611fbe9061300f565b159050816120935761208e85858584612108565b61209f565b61209f8585858461249f565b5050505050565b60005b600d548110156120f9576000600a600d83815481106120ca576120ca613049565b9060005260206000200154815481106120e5576120e5613049565b6000918252602090912001556001016120a9565b50612106600d6000612937565b565b801561212b5760008481526002602052604090206005016121298482613167565b505b60006121376000610a7b565b6000868152600660205260408120549192509015159061215787846124df565b9050600061216588856124df565b905060006007600260008b815260200190815260200160002060020160405161218e9190613264565b90815260405190819003602001902054151590508380156121ac5750805b1561230e576000898152600660205260408120805461230992906121d2576121d2613049565b9060005260206000200180546121e79061300f565b80601f01602080910402602001604051908101604052809291908181526020018280546122139061300f565b80156122605780601f1061223557610100808354040283529160200191612260565b820191906000526020600020905b81548152906001019060200180831161224357829003601f168201915b5050505050600260008c815260200190815260200160002060020180546122869061300f565b80601f01602080910402602001604051908101604052809291908181526020018280546122b29061300f565b80156122ff5780601f106122d4576101008083540402835291602001916122ff565b820191906000526020600020905b8154815290600101906020018083116122e257829003601f168201915b50505050506113a2565b612494565b83158061232057508280156123205750815b1561232e5761230989612627565b8261243b576001600c8a8154811061234857612348613049565b90600052602060002001819055506000600a8a8154811061236b5761236b613049565b90600052602060002001819055506123098986600660008d81526020019081526020016000206000815481106123a3576123a3613049565b9060005260206000200180546123b89061300f565b80601f01602080910402602001604051908101604052809291908181526020018280546123e49061300f565b80156124315780601f1061240657610100808354040283529160200191612431565b820191906000526020600020905b81548152906001019060200180831161241457829003601f168201915b50505050506126b1565b336001600160a01b03167ffc98137258110aa472f6dbf39f2051f7045162382f61b13bb1445bdb0a3e8b8a600260008c81526020019081526020016000206002018960405161248b9291906132da565b60405180910390a25b505050505050505050565b600b84815481106124b2576124b2613049565b90600052602060002001546000036124d4576124cf8482856127ab565b610a0e565b610a0e8484846127e3565b600080805b835181101561261f576000858152600560205260409020541561261757600085815260056020526040812080546125cb929061252257612522613049565b9060005260206000200180546125379061300f565b80601f01602080910402602001604051908101604052809291908181526020018280546125639061300f565b80156125b05780601f10612585576101008083540402835291602001916125b0565b820191906000526020600020905b81548152906001019060200180831161259357829003601f168201915b50505050506002600087858151811061109f5761109f613049565b1561261757600c8482815181106125e4576125e4613049565b6020026020010151815481106125fc576125fc613049565b9060005260206000200154600103612617576001915061261f565b6001016124e4565b509392505050565b6000600b828154811061263c5761263c613049565b90600052602060002001819055506000600a828154811061265f5761265f613049565b90600052602060002001819055506001600c828154811061268257612682613049565b600091825260208083209091019290925582815260039091526040902054156126ae576126ae81610980565b50565b60005b600084815260066020526040902054811015610a0e5760005b83518110156127a2576126f0836002600087858151811061109f5761109f613049565b801561273257506001600c85838151811061270d5761270d613049565b60200260200101518154811061272557612725613049565b9060005260206000200154105b1561279a576001600c85838151811061274d5761274d613049565b60200260200101518154811061276557612765613049565b906000526020600020018190555061279584828151811061278857612788613049565b6020026020010151610980565b6127a2565b6001016126cd565b506001016126b4565b81156127ce5760008381526002602052604090206005016127cc8282613167565b505b6001600b8481548110611e1457611e14613049565b60008381526002602052604090206006016127fe8382613167565b50600061280b6000610a7b565b6000858152600660205260408120549192509015159061282b86846124df565b9050600061283987856124df565b905082158061284d575081801561284d5750805b156128605761285b87612627565b61292e565b816128d5576001600b888154811061287a5761287a613049565b90600052602060002001819055506000600a888154811061289d5761289d613049565b906000526020600020018190555061285b8785600660008b81526020019081526020016000206000815481106123a3576123a3613049565b336001600160a01b03167ffc98137258110aa472f6dbf39f2051f7045162382f61b13bb1445bdb0a3e8b8a600260008a8152602001908152602001600020600201876040516129259291906132da565b60405180910390a25b50505050505050565b50805460008255906000526020600020908101906126ae91906129a0565b828054828255906000526020600020908101928215612990579160200282015b82811115612990578251825591602001919060010190612975565b5061299c9291506129a0565b5090565b5b8082111561299c57600081556001016129a1565b6020808252825182820181905260009190848201906040850190845b818110156129ed578351835292840192918401916001016129d1565b50909695505050505050565b600060208284031215612a0b57600080fd5b5035919050565b634e487b7160e01b600052602160045260246000fd5b60005b83811015612a43578181015183820152602001612a2b565b50506000910152565b60008151808452612a64816020860160208601612a28565b601f01601f19169290920160200192915050565b60006101008a835260088a10612a9e57634e487b7160e01b600052602160045260246000fd5b896020840152806040840152612ab68184018a612a4c565b90508281036060840152612aca8189612a4c565b90508281036080840152612ade8188612a4c565b905082810360a0840152612af28187612a4c565b905082810360c0840152612b068186612a4c565b905082810360e0840152612b1a8185612a4c565b9b9a5050505050505050505050565b60008060408385031215612b3c57600080fd5b50508035926020909101359150565b602081526000612b5e6020830184612a4c565b9392505050565b634e487b7160e01b600052604160045260246000fd5b604051601f8201601f1916810167ffffffffffffffff81118282101715612ba457612ba4612b65565b604052919050565b60008060408385031215612bbf57600080fd5b8235915060208084013567ffffffffffffffff80821115612bdf57600080fd5b818601915086601f830112612bf357600080fd5b813581811115612c0557612c05612b65565b8060051b9150612c16848301612b7b565b8181529183018401918481019089841115612c3057600080fd5b938501935b83851015612c4e57843582529385019390850190612c35565b8096505050505050509250929050565b87815286602082015260e060408201526000612c7d60e0830188612a4c565b8281036060840152612c8f8188612a4c565b90508281036080840152612ca38187612a4c565b905082810360a0840152612cb78186612a4c565b905082810360c0840152612ccb8185612a4c565b9a9950505050505050505050565b600060208284031215612ceb57600080fd5b81356001600160a01b0381168114612b5e57600080fd5b600082601f830112612d1357600080fd5b813567ffffffffffffffff811115612d2d57612d2d612b65565b612d40601f8201601f1916602001612b7b565b818152846020838601011115612d5557600080fd5b816020850160208301376000918101602001919091529392505050565b60008060008060808587031215612d8857600080fd5b84359350602085013567ffffffffffffffff80821115612da757600080fd5b612db388838901612d02565b94506040870135915080821115612dc957600080fd5b612dd588838901612d02565b93506060870135915080821115612deb57600080fd5b50612df887828801612d02565b91505092959194509250565b600060208284031215612e1657600080fd5b813567ffffffffffffffff811115612e2d57600080fd5b612e3984828501612d02565b949350505050565b803560088110612e5057600080fd5b919050565b600080600080600080600080610100898b031215612e7257600080fd5b88359750612e8260208a01612e41565b9650604089013567ffffffffffffffff80821115612e9f57600080fd5b612eab8c838d01612d02565b975060608b0135915080821115612ec157600080fd5b612ecd8c838d01612d02565b965060808b0135915080821115612ee357600080fd5b612eef8c838d01612d02565b955060a08b0135915080821115612f0557600080fd5b612f118c838d01612d02565b945060c08b0135915080821115612f2757600080fd5b612f338c838d01612d02565b935060e08b0135915080821115612f4957600080fd5b50612f568b828c01612d02565b9150509295985092959890939650565b60008060408385031215612f7957600080fd5b823567ffffffffffffffff811115612f9057600080fd5b612f9c85828601612d02565b95602094909401359450505050565b60008060408385031215612fbe57600080fd5b823567ffffffffffffffff80821115612fd657600080fd5b612fe286838701612d02565b93506020850135915080821115612ff857600080fd5b5061300585828601612d02565b9150509250929050565b600181811c9082168061302357607f821691505b60208210810361304357634e487b7160e01b600052602260045260246000fd5b50919050565b634e487b7160e01b600052603260045260246000fd5b6000815461306c8161300f565b80855260206001838116801561308957600181146130a3576130d1565b60ff1985168884015283151560051b8801830195506130d1565b866000528260002060005b858110156130c95781548a82018601529083019084016130ae565b890184019650505b505050505092915050565b6060815260006130ef606083018661305f565b82810360208401526131018186612a4c565b905082810360408401526131158185612a4c565b9695505050505050565b601f8211156116f6576000816000526020600020601f850160051c810160208610156131485750805b601f850160051c820191505b8181101561106257828155600101613154565b815167ffffffffffffffff81111561318157613181612b65565b6131958161318f845461300f565b8461311f565b602080601f8311600181146131ca57600084156131b25750858301515b600019600386901b1c1916600185901b178555611062565b600085815260208120601f198616915b828110156131f9578886015182559484019460019091019084016131da565b50858210156132175787850151600019600388901b60f8161c191681555b5050505050600190811b01905550565b80820180821115610a7557634e487b7160e01b600052601160045260246000fd5b6000825161325a818460208701612a28565b9190910192915050565b60008083546132728161300f565b6001828116801561328a576001811461329f576132ce565b60ff19841687528215158302870194506132ce565b8760005260208060002060005b858110156132c55781548a8201529084019082016132ac565b50505082870194505b50929695505050505050565b6040815260006132ed604083018561305f565b82810360208401526132ff8185612a4c565b9594505050505056fea264697066735822122039d420e119ed6fd6f740a5acf99d488570c58697baebdb1ed85c76acdea2d10564736f6c63430008180033436f6e646974696f6e5f334633393442352d323441332d343142322d413730412d464544454438313638313036436f6e646974696f6e5f333438453037322d463735312d343733392d413339362d3546414239334234324646467369642d44444335463833332d344444362d343346452d424144372d3541443746383931463545327369642d33303942464134372d323031382d343836422d413243362d37323041433246433837423453656164655f747575616b73655f72656d6f6e74695f6f7473655f746f6f6b6f7474615f48616e736162695f746f6f74616a615f706f6f6c747369642d42453037333242432d354246412d344245412d414131392d3733334433464141423234317369642d44344536443136452d443046342d343437332d413444442d38323945434631363535454553656164655f65695f6f6c655f746f6f6475645f6b6c69656e64695f706f6f6c747369642d45423639353739432d454631362d343431342d424338432d314631423746323030303542546f6f746a615f72656d6f6e646974696e67696d757365645f6f6e5f74656164614b6c69656e745f736161625f72656d6f6e64697475645f736561646d656c655f6b617474655265676973747265657269625f74656c6c696d7573655f6a615f76617461625f736561646d655f76617374757369642d42353342394533382d413934432d343037462d424346452d423934414439303238463031436f6e646974696f6e5f464432363236322d394133452d344431302d393732332d3846383233374145363646357369642d45394636364535462d423436412d344346342d383538452d4434333844393832344632437369642d46383639303231372d323330372d343041352d413631452d334546354633394239434145436f6e646974696f6e5f454435374531302d464137352d344332382d384231332d3632374332423645433741467369642d38373931323042382d344344392d344334372d383245332d4546423931343437443338447369642d34303039383932372d333532422d344344462d413642432d3535313037393738443343377369642d38344235434233432d453743422d343045362d423545412d3644453132463934394641417369642d45324435303634322d314441392d343842342d413141422d3535314645324635394336337369642d45323843433831302d444230442d343133442d413046452d35464441303339344242414156617461625f736561646d655f76617374755f6a615f616c75737461625f72656d6f6e74697369642d31423745393639362d394335342d343045382d384239412d38373041304142444636333556617461625f736561646d655f76617374755f6a615f74757661737461625f72696b6b65566969625f72656d6f6e64697475645f736561646d655f617373697374656e64695f6a7575726465436f6e646974696f6e5f384633443230462d444133412d344238362d393735352d32334434433345353531443948696e6461625f6b61735f7365616465745f6f6e5f7661696d616c696b5f72656d6f6e746964615f48616e7361626973436f6e646974696f6e5f303044373232412d373842462d343142382d414637412d30324139463346364546434254656c6c69625f7472616e73706f7264695f746f6f746a615f72656d6f6e64696b65736b7573657373657369642d32434642343031462d453844412d344334342d424146312d3332443445354543304435387369642d42333241303931362d423041352d344543382d424233342d3436303534464533433937467369642d30334636373432422d393633352d343036392d384643442d453043333031413546463043546f6f746a615f72656d6f6e646974696e67696d757365645f65695f6f6c655f7465616461436f6e646974696f6e5f323130363142452d313145332d343132372d393141412d4442444244393441334142317369642d35333437443746312d363130422d344343332d414543312d314639343435343339374635496e666f726d65657269625f6b6c69656e746f655f737065747369616c697374697369642d42334145323443432d464645362d343539322d394333392d3732384343394134353334317369642d31363443304546462d324239412d343839332d423244422d3332354335353839313732305365616465745f6f6e5f7661696d616c696b5f72656d6f6e746964615f48616e73616269737369642d41303431323539382d344435422d343542352d393239322d3034303942453839454646435265676973747265657269625f736561646d655f73616162756d6973655f6a615f74757661737461625f6d696c6c6973656c5f76696973696c5f6f6e5f73656164655f48616e736162697373655f746f6f6475647369642d35444133394641352d353634432d343836342d394234352d3942423831434530383936317369642d44414235463530372d454646392d343745462d383332312d46394332463546413043304653656164655f6f6e5f76616a615f73616174615f746f6f746a615f72656d6f6e64696b65736b75736573736553656164655f6f6e5f746f6f6475645f48616e736162697373655f6b6c69656e64695f706f6f6c74546f6f6b6f6a61206a75686174616a6100000000000000000000000000000000436f6e646974696f6e5f393042323143322d464237322d343937462d423431412d414236454533453442383534436f6e646974696f6e5f363836333245322d313235302d343142332d394633452d3032303038443134413742457369642d41423733434344342d374436432d343837322d423542332d4245414546303936354642337369642d35353839373032372d453436432d343638412d413542442d3632353531323835333332397369642d31434430343642322d463144452d344537322d423138362d444637353746304630433034436f6e646974696f6e5f343141354242412d424242302d343534452d413934372d3635423535303336433545317369642d32343933303746322d393843352d343532452d393234382d3544453638383632463535375265676973747265657269625f736561646d655f746f6f746a615f6a75757264655f5f73616164657475645f736561646d6574655f616e646d6562616173697369642d36353542434235302d364334302d343134322d424141312d3236313438394634353438417369642d36353736353330312d344232352d344337362d393533352d444543434634433345413739416e6e61625f6b6c69656e6469746f655f7370657473696c697374696c655f74656164615f72656d6f6e64697475645f736561646d6573747369642d31374141343639332d433345302d344430442d393436332d4437424538324341433745417369642d35343345383637422d464539352d343232452d413235452d453835383434303041413730546f696d657461625f736561646d655f746f6f6b6f6a616a75686174616a615f6b61747465",
  "linkReferences": {},
  "deployedLinkReferences": {}
}