{
  "_format": "hh-sol-artifact-1",
  "contractName": "SecuRoutiere",
  "sourceName": "contracts/monolithic/SecuRoutiere.sol",
  "abi": [
    {
      "inputs": [],
      "stateMutability": "nonpayable",
      "type": "constructor"
    },
    {
      "anonymous": false,
      "inputs": [
        {
          "indexed": true,
          "internalType": "address",
          "name": "_from",
          "type": "address"
        },
        {
          "indexed": false,
          "internalType": "string",
          "name": "_id",
          "type": "string"
        },
        {
          "indexed": false,
          "internalType": "string",
          "name": "_data",
          "type": "string"
        },
        {
          "indexed": false,
          "internalType": "string",
          "name": "_timestamp",
          "type": "string"
        }
      ],
      "name": "taskExecuted",
      "type": "event"
    },
    {
      "anonymous": false,
      "inputs": [
        {
          "indexed": true,
          "internalType": "address",
          "name": "_from",
          "type": "address"
        },
        {
          "indexed": false,
          "internalType": "string",
          "name": "_id",
          "type": "string"
        },
        {
          "indexed": false,
          "internalType": "string",
          "name": "_timestamp",
          "type": "string"
        }
      ],
      "name": "taskExecutionError",
      "type": "event"
    },
    {
      "inputs": [
        {
          "internalType": "uint256",
          "name": "",
          "type": "uint256"
        },
        {
          "internalType": "uint256",
          "name": "",
          "type": "uint256"
        }
      ],
      "name": "ChildrenOptim",
      "outputs": [
        {
          "internalType": "string",
          "name": "",
          "type": "string"
        }
      ],
      "stateMutability": "view",
      "type": "function"
    },
    {
      "inputs": [
        {
          "internalType": "uint256",
          "name": "_actId",
          "type": "uint256"
        },
        {
          "internalType": "string",
          "name": "_lane",
          "type": "string"
        },
        {
          "internalType": "string",
          "name": "_upd",
          "type": "string"
        },
        {
          "internalType": "string",
          "name": "_timestamp",
          "type": "string"
        }
      ],
      "name": "Invoke",
      "outputs": [],
      "stateMutability": "payable",
      "type": "function"
    },
    {
      "inputs": [
        {
          "internalType": "uint256",
          "name": "",
          "type": "uint256"
        },
        {
          "internalType": "uint256",
          "name": "",
          "type": "uint256"
        }
      ],
      "name": "MsgInOptim",
      "outputs": [
        {
          "internalType": "string",
          "name": "",
          "type": "string"
        }
      ],
      "stateMutability": "view",
      "type": "function"
    },
    {
      "inputs": [
        {
          "internalType": "uint256",
          "name": "",
          "type": "uint256"
        },
        {
          "internalType": "uint256",
          "name": "",
          "type": "uint256"
        }
      ],
      "name": "MsgOutOptim",
      "outputs": [
        {
          "internalType": "string",
          "name": "",
          "type": "string"
        }
      ],
      "stateMutability": "view",
      "type": "function"
    },
    {
      "inputs": [
        {
          "internalType": "uint256",
          "name": "",
          "type": "uint256"
        },
        {
          "internalType": "uint256",
          "name": "",
          "type": "uint256"
        }
      ],
      "name": "ParentsOptim",
      "outputs": [
        {
          "internalType": "string",
          "name": "",
          "type": "string"
        }
      ],
      "stateMutability": "view",
      "type": "function"
    },
    {
      "inputs": [
        {
          "internalType": "uint256",
          "name": "",
          "type": "uint256"
        }
      ],
      "name": "activities",
      "outputs": [
        {
          "internalType": "uint256",
          "name": "id",
          "type": "uint256"
        },
        {
          "internalType": "enum SecuRoutiere.NodeType",
          "name": "nodeType",
          "type": "uint8"
        },
        {
          "internalType": "string",
          "name": "xmlID",
          "type": "string"
        },
        {
          "internalType": "string",
          "name": "name",
          "type": "string"
        },
        {
          "internalType": "string",
          "name": "lane",
          "type": "string"
        },
        {
          "internalType": "string",
          "name": "dataIn",
          "type": "string"
        },
        {
          "internalType": "string",
          "name": "dataOut",
          "type": "string"
        },
        {
          "internalType": "string",
          "name": "timestamp",
          "type": "string"
        }
      ],
      "stateMutability": "view",
      "type": "function"
    },
    {
      "inputs": [
        {
          "internalType": "uint256",
          "name": "_id",
          "type": "uint256"
        },
        {
          "internalType": "enum SecuRoutiere.NodeType",
          "name": "_type",
          "type": "uint8"
        },
        {
          "internalType": "string",
          "name": "_xmlID",
          "type": "string"
        },
        {
          "internalType": "string",
          "name": "_name",
          "type": "string"
        },
        {
          "internalType": "string",
          "name": "_lane",
          "type": "string"
        },
        {
          "internalType": "string",
          "name": "_data_in",
          "type": "string"
        },
        {
          "internalType": "string",
          "name": "_data_out",
          "type": "string"
        },
        {
          "internalType": "string",
          "name": "_timestamp",
          "type": "string"
        }
      ],
      "name": "addActivity",
      "outputs": [],
      "stateMutability": "nonpayable",
      "type": "function"
    },
    {
      "inputs": [
        {
          "internalType": "string",
          "name": "_name",
          "type": "string"
        },
        {
          "internalType": "uint256",
          "name": "_activityIdsLength",
          "type": "uint256"
        }
      ],
      "name": "addWorkflowInstance",
      "outputs": [],
      "stateMutability": "nonpayable",
      "type": "function"
    },
    {
      "inputs": [
        {
          "internalType": "address",
          "name": "",
          "type": "address"
        }
      ],
      "name": "addresses2lanes",
      "outputs": [
        {
          "internalType": "string",
          "name": "",
          "type": "string"
        }
      ],
      "stateMutability": "view",
      "type": "function"
    },
    {
      "inputs": [
        {
          "internalType": "string",
          "name": "a",
          "type": "string"
        },
        {
          "internalType": "string",
          "name": "b",
          "type": "string"
        }
      ],
      "name": "compareStrings",
      "outputs": [
        {
          "internalType": "bool",
          "name": "",
          "type": "bool"
        }
      ],
      "stateMutability": "pure",
      "type": "function"
    },
    {
      "inputs": [
        {
          "internalType": "uint256",
          "name": "num",
          "type": "uint256"
        },
        {
          "internalType": "uint256[]",
          "name": "numbers1",
          "type": "uint256[]"
        }
      ],
      "name": "exists1",
      "outputs": [
        {
          "internalType": "bool",
          "name": "",
          "type": "bool"
        }
      ],
      "stateMutability": "pure",
      "type": "function"
    },
    {
      "inputs": [
        {
          "internalType": "uint256",
          "name": "_id",
          "type": "uint256"
        }
      ],
      "name": "getActivityDataFromActivityId",
      "outputs": [
        {
          "internalType": "uint256",
          "name": "_actId",
          "type": "uint256"
        },
        {
          "internalType": "uint256",
          "name": "_type",
          "type": "uint256"
        },
        {
          "internalType": "string",
          "name": "_xmlID",
          "type": "string"
        },
        {
          "internalType": "string",
          "name": "_name",
          "type": "string"
        },
        {
          "internalType": "string",
          "name": "_dataIn",
          "type": "string"
        },
        {
          "internalType": "string",
          "name": "_dataOut",
          "type": "string"
        },
        {
          "internalType": "string",
          "name": "_lane",
          "type": "string"
        }
      ],
      "stateMutability": "view",
      "type": "function"
    },
    {
      "inputs": [
        {
          "internalType": "uint256",
          "name": "_id",
          "type": "uint256"
        }
      ],
      "name": "getActivityIdsFromWorkflow",
      "outputs": [
        {
          "internalType": "uint256[]",
          "name": "",
          "type": "uint256[]"
        }
      ],
      "stateMutability": "view",
      "type": "function"
    },
    {
      "inputs": [],
      "name": "getExecuted",
      "outputs": [
        {
          "internalType": "uint256[]",
          "name": "",
          "type": "uint256[]"
        }
      ],
      "stateMutability": "view",
      "type": "function"
    },
    {
      "inputs": [],
      "name": "getIncluded",
      "outputs": [
        {
          "internalType": "uint256[]",
          "name": "",
          "type": "uint256[]"
        }
      ],
      "stateMutability": "view",
      "type": "function"
    },
    {
      "inputs": [],
      "name": "getPending",
      "outputs": [
        {
          "internalType": "uint256[]",
          "name": "",
          "type": "uint256[]"
        }
      ],
      "stateMutability": "view",
      "type": "function"
    },
    {
      "inputs": [
        {
          "internalType": "string",
          "name": "_xmlID",
          "type": "string"
        }
      ],
      "name": "getPosFromXML",
      "outputs": [
        {
          "internalType": "uint256",
          "name": "",
          "type": "uint256"
        }
      ],
      "stateMutability": "view",
      "type": "function"
    },
    {
      "inputs": [
        {
          "internalType": "uint256",
          "name": "key",
          "type": "uint256"
        }
      ],
      "name": "isChildrenOptimNotEmpty",
      "outputs": [
        {
          "internalType": "bool",
          "name": "",
          "type": "bool"
        }
      ],
      "stateMutability": "view",
      "type": "function"
    },
    {
      "inputs": [
        {
          "internalType": "uint256",
          "name": "key",
          "type": "uint256"
        }
      ],
      "name": "isMsgInOptimNotEmpty",
      "outputs": [
        {
          "internalType": "bool",
          "name": "",
          "type": "bool"
        }
      ],
      "stateMutability": "view",
      "type": "function"
    },
    {
      "inputs": [
        {
          "internalType": "uint256",
          "name": "key",
          "type": "uint256"
        }
      ],
      "name": "isMsgOutOptimNotEmpty",
      "outputs": [
        {
          "internalType": "bool",
          "name": "",
          "type": "bool"
        }
      ],
      "stateMutability": "view",
      "type": "function"
    },
    {
      "inputs": [
        {
          "internalType": "uint256",
          "name": "key",
          "type": "uint256"
        }
      ],
      "name": "isParentOptimNotEmpty",
      "outputs": [
        {
          "internalType": "bool",
          "name": "",
          "type": "bool"
        }
      ],
      "stateMutability": "view",
      "type": "function"
    },
    {
      "inputs": [],
      "name": "killProcess",
      "outputs": [
        {
          "internalType": "uint256",
          "name": "",
          "type": "uint256"
        }
      ],
      "stateMutability": "payable",
      "type": "function"
    },
    {
      "inputs": [
        {
          "internalType": "string",
          "name": "startXML",
          "type": "string"
        },
        {
          "internalType": "string",
          "name": "triggerXML",
          "type": "string"
        }
      ],
      "name": "setActivitiesSegment",
      "outputs": [],
      "stateMutability": "nonpayable",
      "type": "function"
    },
    {
      "inputs": [
        {
          "internalType": "uint256",
          "name": "_actId",
          "type": "uint256"
        }
      ],
      "name": "updateChildren",
      "outputs": [],
      "stateMutability": "payable",
      "type": "function"
    }
  ],
  "bytecode": "0x6080604052600060085560006009553480156200001b57600080fd5b5060408051808201909152600a8152691b5e50dbdb9d1c9858dd60b21b60208201526200004a90601c6200304f565b6040805161038081018252600080825260208201819052918101829052606081018290526080810182905260a0810182905260c0810182905260e08101829052610100810182905261012081018290526101408101829052610160810182905261018081018290526101a0810182905260016101c082018190526101e0820181905261020082018190526102208201526102408101829052610260810182905261028081018290526102a081018290526102c081018290526102e081018290526103008101829052610320810182905261034081018290526103608101919091526200013b90600a90601c62003280565b506040805161038081018252600080825260208201819052918101829052606081018290526080810182905260a0810182905260c0810182905260e08101829052610100810182905261012081018290526101408101829052610160810182905261018081018290526101a081018290526101c081018290526101e08101829052610200810182905261022081018290526102408101829052610260810182905261028081018290526102a081018290526102c081018290526102e081018290526103008101829052610320810182905261034081018290526103608101919091526200022d90600c90601c62003280565b506040805161038081018252600080825260208201819052918101829052606081018290526080810182905260a0810182905260c0810182905260e08101829052610100810182905261012081018290526101408101829052610160810182905261018081018290526101a081018290526101c081018290526101e08101829052610200810182905261022081018290526102408101829052610260810182905261028081018290526102a081018290526102c081018290526102e081018290526103008101829052610320810182905261034081018290526103608101919091526200031f90600b90601c62003280565b5060408051606081018252600f60208083019182526e476174657761795f3173306564386b60881b93830193909352815260008052600390915262000388907f3617319a054d772f909f7c479a2cebe5066e836a939412e32403c99029b92eff906001620032d5565b5060408051606081018252600f60208083019182526e476174657761795f3073616c656d3560881b938301939093528152600080526004909152620003f1907f17ef568e3e12ab5b9c7254a8d58478811de00f9e6eb34345acd53bf8fd09d3ec906001620032d5565b50620004ba600060046040518060400160405280601081526020016f1058dd1a5d9a5d1e57cc0c9d1c4c9a5d60821b8152506040518060400160405280601181526020017020b730b63cb9b2b929b4ba3ab0ba34b7b760791b81525060405180604001604052806005815260200164435249524360d81b81525060405180602001604052806000815250604051806020016040528060008152506040518060400160405280600a8152602001691899179998979918191960b11b8152506200314d60201b60201c565b60408051606081018252600f60208083019182526e476174657761795f3073616c656d3560881b93830193909352815260016000819052600390925262000524917fa15bc60c955c405d20d9149c709e2460f1c2d9a497496a7f46004d1772c3054c9190620032d5565b5060408051606081018252600f60208083019182526e476174657761795f30617a3268633760881b9383019390935281526001600081905260049092526200058f917fabd6e7cb50984ff9c2f3e18a2660c3353dadf4e3291deeb275dae2cd1e44fe059190620032d5565b5062000664600160046040518060400160405280601081526020016f20b1ba34bb34ba3caf98b8bab19c3a3b60811b8152506040518060400160405280601781526020017f526563657074696f6e6e6572436f6d6d756e697175657300000000000000000081525060405180604001604052806005815260200164435249524360d81b81525060405180602001604052806000815250604051806020016040528060008152506040518060400160405280600a8152602001691899179998979918191960b11b8152506200314d60201b60201c565b60408051606081018252600f60208083019182526e476174657761795f3073616c656d3560881b93830193909352815260026000526003909152620006cd907fc3a24b0501bd2c13a7e57f2db4369ec4c223447539fc0724a9d55ac4a06ebd4d906001620032d5565b5060408051606081018252600f60208083019182526e476174657761795f30617a3268633760881b9383019390935281526002600052600490915262000737907f91da3fd0782e51c6b3986e9e672fd566868e71f3dbc2d6c2cd6fbb3e361af2a7906001620032d5565b50620007fa600260046040518060400160405280601081526020016f41637469766974795f3031797338717360801b8152506040518060400160405280600b81526020016a21b2b73a3930b634b9b2b960a91b81525060405180604001604052806005815260200164435249524360d81b81525060405180602001604052806000815250604051806020016040528060008152506040518060400160405280600a8152602001691899179998979918191960b11b8152506200314d60201b60201c565b60408051606081018252600f60208083019182526e11d85d195dd85e57cc0e5e5c98ce5d608a1b9383019390935281526003600081905290915262000863907fcbc4e5fb02c3d1de23a9f1e014b4d2ee5aeaea9505df5e855c9210bf472495af906001620032d5565b5060408051606081018252600f60208083019182526e476174657761795f3173306564386b60881b93830193909352815260036000526004909152620008cd907f2e174c10e159ea99b867ce3205125c24a42d128804e4070ed6fcc8cc98166aa0906001620032d5565b50620009a2600360046040518060400160405280601081526020016f41637469766974795f306371776d766360801b8152506040518060400160405280601981526020017f456e766f79657253796e7468657365417578416374657572730000000000000081525060405180604001604052806005815260200164435249524360d81b81525060405180602001604052806000815250604051806020016040528060008152506040518060400160405280600a8152602001691899179998979918191960b11b8152506200314d60201b60201c565b60408051606081018252600f60208083019182526e11d85d195dd85e57cc0e5e5c98ce5d608a1b9383019390935281526004600052600390915262000a0b907f83ec6a1f0257b830b5e016457c9cf1435391bf56cc98f369a58a54fe93772465906001620032d5565b5060408051606081018252600f60208083019182526e476174657761795f3173306564386b60881b9383019390935281526004600081905290915262000a75907f1a1e6821cde7d0159c0d293177871e09677b4e42307c7db3ba94f8648a5a050f906001620032d5565b5060408051606081018252600d60208083019182526c4576656e745f316a783863696f60981b9383019390935281526004600052600690915262000add907fc5069e24aaadb2addc3e52e868fcf3f4f8acf5a87e24300992fd4540c2a87eed906001620032d5565b5062000b956004806040518060400160405280601081526020016f41637469766974795f316570676d346360801b815250604051806060016040528060278152602001620069f56027913960405180604001604052806005815260200164435249524360d81b81525060405180602001604052806000815250604051806020016040528060008152506040518060400160405280600a8152602001691899179998979918191960b11b8152506200314d60201b60201c565b60408051606081018252600f60208083019182526e11d85d195dd85e57cc0e5e5c98ce5d608a1b9383019390935281526005600052600390915262000bfe907f405aad32e1adbac89bb7f176e338b8fc6e994ca210c9bb7bdca249b465942250906001620032d5565b5060408051606081018252600f60208083019182526e476174657761795f3173306564386b60881b9383019390935281526005600052600490915262000c68907f04cde762ef08b6b6c5ded8e8c4c0b3f4e5c9ad7342c88fcc93681b4588b73f05906001620032d5565b5062000d2f600560046040518060400160405280601081526020016f41637469766974795f30393337676d6160801b8152506040518060400160405280600f81526020016e496e666f726d65725573616765727360881b81525060405180604001604052806005815260200164435249524360d81b81525060405180602001604052806000815250604051806020016040528060008152506040518060400160405280600a8152602001691899179998979918191960b11b8152506200314d60201b60201c565b60408051606081018252600f60208083019182526e11d85d195dd85e57cc0e5e5c98ce5d608a1b9383019390935281526006600052600390915262000d98907fc69056f16cbaa3c616b828e333ab7d3a32310765507f8f58359e99ebb7a885f3906001620032d5565b5060408051606081018252600f60208083019182526e476174657761795f3173306564386b60881b9383019390935281526006600052600490915262000e02907fc59312466997bb42aaaf719ece141047820e6b34531e1670dc1852a453648f0f906001620032d5565b5060408051606081018252600d60208083019182526c08aeccadce8be62deea70f0cc7609b1b9383019390935281526006600081905290915262000e6a907f697b2bd7bb2984c4e0dc14c79c987d37818484a62958b9c45a0e8b962f20650f906001620032d5565b5062000f3f600660046040518060400160405280601081526020016f041637469766974795f303633366f35360841b8152506040518060400160405280601c81526020017f496e666f726d657243656c6c756c65436f6d6d756e69636174696f6e0000000081525060405180604001604052806005815260200164435249524360d81b81525060405180602001604052806000815250604051806020016040528060008152506040518060400160405280600a8152602001691899179998979918191960b11b8152506200314d60201b60201c565b60408051606081018252600f60208083019182526e476174657761795f313430666a613360881b9383019390935281526007600052600390915262000fa8907ff2c49132ed1cee2a7e75bde50d332a2f81f1d01e5456d8a19d1df09bd561dbd2906001620032d5565b5060408051606081018252600d60208083019182526c08aeccadce8be62deea70f0cc7609b1b9383019390935281526007600052600490915262001010907fbeb3bad75134cb432e5707980e3245c52c5998a1125ee30f2f0dbf3925b1e551906001620032d5565b50620010e0600760046040518060400160405280601081526020016f20b1ba34bb34ba3caf981830bb3c9ab360811b81525060405180604001604052806011815260200170526563657074696f6e6e6572496e666f7360781b815250604051806040016040528060108152602001600080516020620069b483398151915281525060405180602001604052806000815250604051806020016040528060008152506040518060400160405280600a8152602001691899179998979918191960b11b8152506200314d60201b60201c565b60408051606081018252601060208083019182526f41637469766974795f3035746832373760801b938301939093528152600860005260039091526200114a907f85aaa47b6dc46495bb8824fad4583769726fea36efd831a35556690b830a8fbe906001620032d5565b5060408051606081018252600f60208083019182526e476174657761795f313430666a613360881b93830193909352815260086000526004909152620011b4907f2645749a946633740611cfc8178319f0958659d6922e4bf7e3a08b44789f53a4906001620032d5565b5060408051606081018252600d60208083019182526c22bb32b73a2f981a3230999ab360991b938301939093528152600860005260069091526200121c907fb8d683c9d414f481826f3e7fe14b3ac6ae8c73450778287390c4bb8cb9f2e80b906001620032d5565b50620012f8600860046040518060400160405280601081526020016f41637469766974795f316b3173616f7960801b8152506040518060400160405280601c81526020017f52656469676572436f6d6d756e69717565735072657373654e69763300000000815250604051806040016040528060108152602001600080516020620069b483398151915281525060405180602001604052806000815250604051806020016040528060008152506040518060400160405280600a8152602001691899179998979918191960b11b8152506200314d60201b60201c565b60408051606081018252600f60208083019182526e11d85d195dd85e57cc4c8cd9d8dcdb608a1b9383019390935281526009600052600390915262001361907f8a8dc4e5242ea8b1ab1d60606dae757e6c2cca9f92a2cced9f72c19960bcb458906001620032d5565b5060408051606081018252601060208083019182526f41637469766974795f316b3173616f7960801b93830193909352815260096000526004909152620013cc907f4ad5a04d53b5856f318545bb721f67d3f6d0a5a999f25eec7e20eaeb4c47b933906001620032d5565b5060408051606081018252601060208083019182526f41637469766974795f306e653176307360801b9383019390935281526009600052600590915262001437907fc0a4a8be475dfebc377ebef2d7c4ff47656f572a08dd92b81017efcdba0febe1906001620032d5565b50620014f7600960046040518060400160405280601081526020016f41637469766974795f3035746832373760801b815250604051806060016040528060218152602001620069d460219139604051806040016040528060108152602001600080516020620069b483398151915281525060405180602001604052806000815250604051806020016040528060008152506040518060400160405280600a8152602001691899179998979918191960b11b8152506200314d60201b60201c565b60408051606081018252600d60208083019182526c22bb32b73a2f9831bc38ba33bd60991b938301939093528152600a60005260039091526200155e907f9dcb9783ba5cd0b54745f65f4f918525e461e91888c334e5342cb380ac558d53906001620032d5565b5060408051606081018252600f60208083019182526e11d85d195dd85e57cc4c8cd9d8dcdb608a1b938301939093528152600a6000526004909152620015c8907f5c6b02db8b672415ffad906d7ccee10bd53dbad7d0b29e2bc0e50c93d5f31093906001620032d5565b5062001699600a60046040518060400160405280601081526020016f41637469766974795f3137697932656360801b815250604051806040016040528060128152602001715075626c696572436f6d6d756e697175657360701b815250604051806040016040528060108152602001600080516020620069b483398151915281525060405180602001604052806000815250604051806020016040528060008152506040518060400160405280600a8152602001691899179998979918191960b11b8152506200314d60201b60201c565b60408051606081018252601060208083019182526f41637469766974795f306e653176307360801b938301939093528152600b600052600390915262001703907f2d72af3c1b2b2956e6f694fb741556d5ca9524373974378cdbec16afa8b84164906001620032d5565b5060408051606081018252600d60208083019182526c22bb32b73a2f981a3230999ab360991b938301939093528152600b60005260049091526200176b907f0c1469ad586d86b6976c45826d7ae56d76ee516e37a2bccffbe904b74dbae7ea906001620032d5565b5062001845600b60046040518060400160405280601081526020016f20b1ba34bb34ba3caf98b11a9c9b331960811b8152506040518060400160405280601c81526020017f526563657074696f6e6572436f6d6d756e6971756573507265737365000000008152506040518060400160405280600a8152602001695072656665745a6f6e6560b01b81525060405180602001604052806000815250604051806020016040528060008152506040518060400160405280600a8152602001691899179998979918191960b11b8152506200314d60201b60201c565b60408051606081018252600d60208083019182526c22bb32b73a2f989c34b1b332b960991b938301939093528152600c6000526003909152620018ac907fd56a60595ebefebed7f22dcee6c2acc61b06cf8c68e84c88677840365d1ff92b906001620032d5565b5060408051606081018252601060208083019182526f20b1ba34bb34ba3caf98b11a9c9b331960811b938301939093528152600c600052600490915262001917907f140aabff1a85df08546c9a350c79ae18341bde4a2cef5d2fd460885c0128ce26906001620032d5565b5060408051606081018252601060208083019182526f41637469766974795f3035746832373760801b938301939093528152600c600052600690915262001982907f0b94fa1b86997cc1f1148bfbe25b674e8cefc7cc6f976aa8d7c7966bd4cca347906001620032d5565b5062001a51600c60046040518060400160405280601081526020016f41637469766974795f306e653176307360801b8152506040518060400160405280601281526020017156616c69646572436f6d6d756e697175657360701b8152506040518060400160405280600a8152602001695072656665745a6f6e6560b01b81525060405180602001604052806000815250604051806020016040528060008152506040518060400160405280600a8152602001691899179998979918191960b11b8152506200314d60201b60201c565b60408051606081018252600d60208083018281526c4576656e745f313975737a706b60981b94840194909452928252600052600390915262001ab7907fa8f2d96126c6d0ad63adabaef7bf5cf47f163fb0c218a473d28f62312d197bcf906001620032d5565b5060408051606081018252600d60208083018281526c4576656e745f316a783863696f60981b94840194909452928252600052600490915262001b1e907fa5022b2bfd144bf9103d80168549b5df7c72ab60bd51bf71a02a08d844853b4a906001620032d5565b5062001bda600d60046040518060400160405280601081526020016f082c6e8d2ecd2e8f2be606cded26cd4760831b81525060405180606001604052806023815260200162006991602391396040518060400160405280600881526020016722a6a4ad2221a7ad60c11b81525060405180602001604052806000815250604051806020016040528060008152506040518060400160405280600a8152602001691899179998979918191960b11b8152506200314d60201b60201c565b60408051606081018252600f60208083019182526e476174657761795f30617a3268633760881b938301939093528152600e600052600390915262001c43907fd6ebcc64c739277b117ce359e436534b234b76e914c80ad276abf5b562078939906001620032d5565b5062001cee600e60006040518060400160405280600c81526020016b53746172744576656e745f3160a01b8152506040518060200160405280600081525060405180604001604052806005815260200164435249524360d81b81525060405180602001604052806000815250604051806020016040528060008152506040518060400160405280600a8152602001691899179998979918191960b11b8152506200314d60201b60201c565b60408051606081018252601060208083019182526f20b1ba34bb34ba3caf981830bb3c9ab360811b938301939093528152600f600052600390915262001d58907ff60b7f6a315ec68a6ac240e69dca53652b38627f709a2caa217d9e18af4d7a60906001620032d5565b5060408051606081018252601060208083019182526f041637469766974795f303633366f35360841b938301939093528152600f600052600590915262001dc3907f58f00e8ecc6f5419941dd0bafec65a4cc188d31713fb1fe224257460930df8af906001620032d5565b5062001e76600f60006040518060400160405280600d81526020016c08aeccadce8be62deea70f0cc7609b1b81525060405180602001604052806000815250604051806040016040528060108152602001600080516020620069b483398151915281525060405180602001604052806000815250604051806020016040528060008152506040518060400160405280600a8152602001691899179998979918191960b11b8152506200314d60201b60201c565b60408051606081018252601060208083018281526f20b1ba34bb34ba3caf98b11a9c9b331960811b94840194909452928252600052600390915262001edf907f47d4745e02b343689a5e7ac121d2a352b7a15c10328a8759fd7d4cf0999002bb906001620032d5565b5060408051606081018252601060208083018281526f41637469766974795f316b3173616f7960801b94840194909452928252600052600590915262001f49907f8b32256db898364c465749decac34aee435952ffe1739257aa5b0235e266d9c5906001620032d5565b5062001ffa601060006040518060400160405280600d81526020016c22bb32b73a2f981a3230999ab360991b815250604051806020016040528060008152506040518060400160405280600a8152602001695072656665745a6f6e6560b01b81525060405180602001604052806000815250604051806020016040528060008152506040518060400160405280600a8152602001691899179998979918191960b11b8152506200314d60201b60201c565b60408051606081018252601060208083019182526f082c6e8d2ecd2e8f2be606cded26cd4760831b9383019390935281526011600052600390915262002064907ffc111d09a6e2f0958402cbe16a5aef32c9d8ddb9a4df7271140de57bfed6525a906001620032d5565b5060408051606081018252601060208083019182526f41637469766974795f316570676d346360801b93830193909352815260116000526005909152620020cf907fb4e18992ad424cdedc46668609f2bafcf665a8d99577618d5923c69264d9cf5f906001620032d5565b506200217e601160006040518060400160405280600d81526020016c4576656e745f316a783863696f60981b815250604051806020016040528060008152506040518060400160405280600881526020016722a6a4ad2221a7ad60c11b81525060405180602001604052806000815250604051806020016040528060008152506040518060400160405280600a8152602001691899179998979918191960b11b8152506200314d60201b60201c565b60408051606081018252600f60208083019182526e11d85d195dd85e57cc0e5e5c98ce5d608a1b93830193909352815260126000526004909152620021e7907f7f6fa3f34639ea1891363ca773619dbd5f652d7ab50411111dde2f57e3ae13ad906001620032d5565b5062002293601260016040518060400160405280600d81526020016c4576656e745f3032626138346160981b8152506040518060200160405280600081525060405180604001604052806005815260200164435249524360d81b81525060405180602001604052806000815250604051806020016040528060008152506040518060400160405280600a8152602001691899179998979918191960b11b8152506200314d60201b60201c565b60408051606081018252601060208083019182526f41637469766974795f3137697932656360801b93830193909352815260136000526004909152620022fd907f9bbf2ad10217b6212df1939350a047a69b6887b770020d3fa8c328c0653ee987906001620032d5565b50620023b0601360016040518060400160405280600d81526020016c22bb32b73a2f9831bc38ba33bd60991b81525060405180602001604052806000815250604051806040016040528060108152602001600080516020620069b483398151915281525060405180602001604052806000815250604051806020016040528060008152506040518060400160405280600a8152602001691899179998979918191960b11b8152506200314d60201b60201c565b60408051606081018252601060208083019182526f41637469766974795f306e653176307360801b938301939093528152601460005260049091526200241a907ff7deed9399d719bf61dcb1322c056a03a885c275ab093673b0cc182b84bea061906001620032d5565b50620024cb601460016040518060400160405280600d81526020016c22bb32b73a2f989c34b1b332b960991b815250604051806020016040528060008152506040518060400160405280600a8152602001695072656665745a6f6e6560b01b81525060405180602001604052806000815250604051806020016040528060008152506040518060400160405280600a8152602001691899179998979918191960b11b8152506200314d60201b60201c565b60408051606081018252601060208083019182526f082c6e8d2ecd2e8f2be606cded26cd4760831b9383019390935281526015600052600490915262002535907f1bb30a1647f6f6723cb3a88838ce0319afabe51263fc466f2f669a7a24ad88c6906001620032d5565b50620025e4601560016040518060400160405280600d81526020016c4576656e745f313975737a706b60981b815250604051806020016040528060008152506040518060400160405280600881526020016722a6a4ad2221a7ad60c11b81525060405180602001604052806000815250604051806020016040528060008152506040518060400160405280600a8152602001691899179998979918191960b11b8152506200314d60201b60201c565b6040805160808101825260108183018181526f41637469766974795f3031797338717360801b60608401528252825180840190935282526f20b1ba34bb34ba3caf98b8bab19c3a3b60811b602083810191909152808201929092526016600052600390915262002678907f370c8c7c6215b209793aa720f65163fbeecd5f5114008532ba0649ee234054029060026200332e565b5060408051606081018252600c60208083019182526b53746172744576656e745f3160a01b93830193909352815260166000526004909152620026df907f87e655ef16e4075af30c6a90c2b439f7dcd2d83a606dafadaee10cffaf918132906001620032d5565b506200278d601660056040518060400160405280600f81526020016e476174657761795f30617a3268633760881b8152506040518060200160405280600081525060405180604001604052806005815260200164435249524360d81b81525060405180602001604052806000815250604051806020016040528060008152506040518060400160405280600a8152602001691899179998979918191960b11b8152506200314d60201b60201c565b60408051606081018252601060208083019182526f1058dd1a5d9a5d1e57cc0c9d1c4c9a5d60821b93830193909352815260176000526003909152620027f7907f0f0519a40093d7edad68f12e2ec868fdf92a03df1cbec3e035c987d6b218f2f4906001620032d5565b506040805160808101825260108183018181526f20b1ba34bb34ba3caf98b8bab19c3a3b60811b60608401528252825180840190935282526f41637469766974795f3031797338717360801b60208381019190915280820192909252601760005260049091526200288c907fff624574ceefb6578b3887a7448cf2ca4d120002f646987b0a9b9ad3f6dc2c109060026200332e565b506200293a601760056040518060400160405280600f81526020016e476174657761795f3073616c656d3560881b8152506040518060200160405280600081525060405180604001604052806005815260200164435249524360d81b81525060405180602001604052806000815250604051806020016040528060008152506040518060400160405280600a8152602001691899179998979918191960b11b8152506200314d60201b60201c565b6040805160c0810182526010608082018181526f41637469766974795f306371776d766360801b60a08401528252825180840184528181526f41637469766974795f316570676d346360801b60208281019190915280840191909152835180850185528281526f41637469766974795f30393337676d6160801b818301528385015283518085019094529083526f041637469766974795f303633366f35360841b8382015260608201929092526018600052600390915262002a20907fa3ddc4e8d053be09ec661eb04964a206cbd921c2c11fc03088857923bed1485a90600462003379565b5060408051606081018252601060208083019182526f1058dd1a5d9a5d1e57cc0c9d1c4c9a5d60821b9383019390935281526018600052600490915262002a8b907f1ac66383b86984a837d32661c9fdda480194de6e2dbd3891e29fadcb763a62da906001620032d5565b5062002b39601860056040518060400160405280600f81526020016e476174657761795f3173306564386b60881b8152506040518060200160405280600081525060405180604001604052806005815260200164435249524360d81b81525060405180602001604052806000815250604051806020016040528060008152506040518060400160405280600a8152602001691899179998979918191960b11b8152506200314d60201b60201c565b60408051606081018252600d60208083019182526c4576656e745f3032626138346160981b9383019390935281526019600052600390915262002ba0907fad96411afed98a37aa585ce71717b0782fa4bee47da09d8f483e532128238611906001620032d5565b506040805160c0810182526010608082018181526f41637469766974795f316570676d346360801b60a08401528252825180840184528181526f41637469766974795f306371776d766360801b60208281019190915280840191909152835180850185528281526f41637469766974795f30393337676d6160801b818301528385015283518085019094529083526f041637469766974795f303633366f35360841b838201526060820192909252601960005260049182905262002c87917feb5726be0cc40daa58a5f8f81528465ddb0c35e1e56e157eca916d69d6c34324919062003379565b5062002d35601960056040518060400160405280600f81526020016e11d85d195dd85e57cc0e5e5c98ce5d608a1b8152506040518060200160405280600081525060405180604001604052806005815260200164435249524360d81b81525060405180602001604052806000815250604051806020016040528060008152506040518060400160405280600a8152602001691899179998979918191960b11b8152506200314d60201b60201c565b60408051606081018252601060208083019182526f41637469766974795f316b3173616f7960801b938301939093528152601a600052600390915262002d9f907f68fc0e82119a780903c8e97d959a36d433d1e401ad7b7a461ff2087e524d54a8906001620032d5565b5060408051606081018252601060208083019182526f20b1ba34bb34ba3caf981830bb3c9ab360811b938301939093528152601a600052600490915262002e0a907ff6eb4279aa452568dd287204244d7e29d7ca1bc7a01440f08342bf2599f4b9b6906001620032d5565b5062002ebf601a60056040518060400160405280600f81526020016e476174657761795f313430666a613360881b81525060405180602001604052806000815250604051806040016040528060108152602001600080516020620069b483398151915281525060405180602001604052806000815250604051806020016040528060008152506040518060400160405280600a8152602001691899179998979918191960b11b8152506200314d60201b60201c565b60408051606081018252601060208083019182526f41637469766974795f3137697932656360801b938301939093528152601b600052600390915262002f29907f925be0b447003e4366d6addf976a9e5448b14e56ca3733fe4a9ca6f86b0dcbd5906001620032d5565b5060408051606081018252601060208083019182526f41637469766974795f3035746832373760801b938301939093528152601b600052600490915262002f94907fd8906b3e50614809ec86d7bb29bf3c4e8647f5376e87f81687a4a770137f7d59906001620032d5565b5062003049601b60056040518060400160405280600f81526020016e11d85d195dd85e57cc4c8cd9d8dcdb608a1b81525060405180602001604052806000815250604051806040016040528060108152602001600080516020620069b483398151915281525060405180602001604052806000815250604051806020016040528060008152506040518060400160405280600a8152602001691899179998979918191960b11b8152506200314d60201b60201c565b62003643565b6000816001600160401b038111156200306c576200306c6200347c565b60405190808252806020026020018201604052801562003096578160200160208202803683370190505b50905060005b82811015620030cf5780828281518110620030bb57620030bb62003492565b60209081029190910101526001016200309c565b50604080516060810182526008548082526020808301878152838501869052600092835290829052929020815181559151909190600182019062003114908262003539565b506040820151805162003132916002840191602090910190620033c4565b5050600854620031459150600162003605565b600855505050565b6040518061010001604052808981526020018860078111156200317457620031746200362d565b815260200187815260200186815260200185815260200184815260200183815260200182815250600260008a81526020019081526020016000206000820151816000015560208201518160010160006101000a81548160ff02191690836007811115620031e557620031e56200362d565b02179055506040820151600282019062003200908262003539565b506060820151600382019062003217908262003539565b50608082015160048201906200322e908262003539565b5060a0820151600582019062003245908262003539565b5060c082015160068201906200325c908262003539565b5060e0820151600782019062003273908262003539565b5050505050505050505050565b828054828255906000526020600020908101928215620032c3579160200282015b82811115620032c3578251829060ff16905591602001919060010190620032a1565b50620032d192915062003402565b5090565b82805482825590600052602060002090810192821562003320579160200282015b828111156200332057825182906200330f908262003539565b5091602001919060010190620032f6565b50620032d192915062003419565b82805482825590600052602060002090810192821562003320579160200282015b8281111562003320578251829062003368908262003539565b50916020019190600101906200334f565b82805482825590600052602060002090810192821562003320579160200282015b82811115620033205782518290620033b3908262003539565b50916020019190600101906200339a565b828054828255906000526020600020908101928215620032c3579160200282015b82811115620032c3578251825591602001919060010190620033e5565b5b80821115620032d1576000815560010162003403565b80821115620032d15760006200343082826200343a565b5060010162003419565b5080546200344890620034a8565b6000825580601f1062003459575050565b601f01602090049060005260206000209081019062003479919062003402565b50565b634e487b7160e01b600052604160045260246000fd5b634e487b7160e01b600052603260045260246000fd5b600181811c90821680620034bd57607f821691505b602082108103620034de57634e487b7160e01b600052602260045260246000fd5b50919050565b601f82111562003534576000816000526020600020601f850160051c810160208610156200350f5750805b601f850160051c820191505b8181101562003530578281556001016200351b565b5050505b505050565b81516001600160401b038111156200355557620035556200347c565b6200356d81620035668454620034a8565b84620034e4565b602080601f831160018114620035a557600084156200358c5750858301515b600019600386901b1c1916600185901b17855562003530565b600085815260208120601f198616915b82811015620035d657888601518255948401946001909101908401620035b5565b5085821015620035f55787850151600019600388901b60f8161c191681555b5050505050600190811b01905550565b808201808211156200362757634e487b7160e01b600052601160045260246000fd5b92915050565b634e487b7160e01b600052602160045260246000fd5b61333e80620036536000396000f3fe60806040526004361061014b5760003560e01c806379a42d06116100b657806398d46dfd1161006f57806398d46dfd146103ee578063a58603e01461040e578063af12a5711461042e578063bed34bba14610443578063c29de7ca14610463578063ecd3645e1461048357600080fd5b806379a42d061461033257806386209b871461034857806386f612271461037b57806394d55eaf1461039b57806395755d17146103bb57806397ada366146103ce57600080fd5b80633a3e8a95116101085780633a3e8a951461025f5780634b5ae0771461028e578063581cf028146102a357806359b97b97146102c35780635f03facd146102e357806378660f5e1461031257600080fd5b806309be70b2146101505780630b09c8ce1461017b5780630d1657e8146101ba57806311ae9ed2146101ee57806319dfc19d1461020357806324a4dd9414610230575b600080fd5b34801561015c57600080fd5b506101656104a3565b60405161017291906129b5565b60405180910390f35b34801561018757600080fd5b506101aa6101963660046129f9565b600090815260066020526040902054151590565b6040519015158152602001610172565b3480156101c657600080fd5b506101da6101d53660046129f9565b6104fb565b604051610172989796959493929190612a78565b3480156101fa57600080fd5b50610165610871565b34801561020f57600080fd5b5061022361021e366004612b29565b6108c7565b6040516101729190612b4b565b34801561023c57600080fd5b506101aa61024b3660046129f9565b600090815260036020526040902054151590565b34801561026b57600080fd5b506101aa61027a3660046129f9565b600090815260046020526040902054151590565b6102a161029c3660046129f9565b610980565b005b3480156102af57600080fd5b506102236102be366004612b29565b610a14565b3480156102cf57600080fd5b506101aa6102de366004612bac565b610a30565b3480156102ef57600080fd5b506101aa6102fe3660046129f9565b600090815260056020526040902054151590565b34801561031e57600080fd5b5061016561032d3660046129f9565b610a7b565b61033a610ade565b604051908152602001610172565b34801561035457600080fd5b506103686103633660046129f9565b610af1565b6040516101729796959493929190612c5e565b34801561038757600080fd5b50610223610396366004612cd9565b610e29565b3480156103a757600080fd5b506102236103b6366004612b29565b610e42565b6102a16103c9366004612d72565b610e5e565b3480156103da57600080fd5b5061033a6103e9366004612e04565b61106a565b3480156103fa57600080fd5b506102a1610409366004612e55565b6110e2565b34801561041a57600080fd5b506102a1610429366004612f66565b611203565b34801561043a57600080fd5b506101656112f3565b34801561044f57600080fd5b506101aa61045e366004612fab565b611349565b34801561046f57600080fd5b506102a161047e366004612fab565b6113a2565b34801561048f57600080fd5b5061022361049e366004612b29565b6115fb565b6060600a8054806020026020016040519081016040528092919081815260200182805480156104f157602002820191906000526020600020905b8154815260200190600101908083116104dd575b5050505050905090565b6002602081905260009182526040909120805460018201549282018054919360ff1692916105289061300f565b80601f01602080910402602001604051908101604052809291908181526020018280546105549061300f565b80156105a15780601f10610576576101008083540402835291602001916105a1565b820191906000526020600020905b81548152906001019060200180831161058457829003601f168201915b5050505050908060030180546105b69061300f565b80601f01602080910402602001604051908101604052809291908181526020018280546105e29061300f565b801561062f5780601f106106045761010080835404028352916020019161062f565b820191906000526020600020905b81548152906001019060200180831161061257829003601f168201915b5050505050908060040180546106449061300f565b80601f01602080910402602001604051908101604052809291908181526020018280546106709061300f565b80156106bd5780601f10610692576101008083540402835291602001916106bd565b820191906000526020600020905b8154815290600101906020018083116106a057829003601f168201915b5050505050908060050180546106d29061300f565b80601f01602080910402602001604051908101604052809291908181526020018280546106fe9061300f565b801561074b5780601f106107205761010080835404028352916020019161074b565b820191906000526020600020905b81548152906001019060200180831161072e57829003601f168201915b5050505050908060060180546107609061300f565b80601f016020809104026020016040519081016040528092919081815260200182805461078c9061300f565b80156107d95780601f106107ae576101008083540402835291602001916107d9565b820191906000526020600020905b8154815290600101906020018083116107bc57829003601f168201915b5050505050908060070180546107ee9061300f565b80601f016020809104026020016040519081016040528092919081815260200182805461081a9061300f565b80156108675780601f1061083c57610100808354040283529160200191610867565b820191906000526020600020905b81548152906001019060200180831161084a57829003601f168201915b5050505050905088565b6060600b8054806020026020016040519081016040528092919081815260200182805480156104f157602002820191906000526020600020908154815260200190600101908083116104dd575050505050905090565b600360205281600052604060002081815481106108e357600080fd5b906000526020600020016000915091505080546108ff9061300f565b80601f016020809104026020016040519081016040528092919081815260200182805461092b9061300f565b80156109785780601f1061094d57610100808354040283529160200191610978565b820191906000526020600020905b81548152906001019060200180831161095b57829003601f168201915b505050505081565b600061098c6000610a7b565b6000838152600560209081526040808320546002928390529083206001015493945015159260ff1660078111156109c5576109c5612a12565b149050816109dc576109d78484611617565b610a04565b8180156109e65750805b156109f5576109d784846116fb565b80610a0457610a048484611617565b610a0e8484611719565b50505050565b600560205281600052604060002081815481106108e357600080fd5b6000805b8251811015610a6f5783838281518110610a5057610a50613049565b602002602001015103610a67576001915050610a75565b600101610a34565b50600090505b92915050565b60008181526020818152604091829020600201805483518184028101840190945280845260609392830182828015610ad257602002820191906000526020600020905b815481526020019060010190808311610abe575b50505050509050919050565b6000610aeb600a82612937565b50600090565b600081815260026020526040812080546001909101548291606091829182918291829160ff166007811115610b2857610b28612a12565b60008a8152600260208190526040909120908101805490916003810191600582019160068101916004909101908590610b609061300f565b80601f0160208091040260200160405190810160405280929190818152602001828054610b8c9061300f565b8015610bd95780601f10610bae57610100808354040283529160200191610bd9565b820191906000526020600020905b815481529060010190602001808311610bbc57829003601f168201915b50505050509450838054610bec9061300f565b80601f0160208091040260200160405190810160405280929190818152602001828054610c189061300f565b8015610c655780601f10610c3a57610100808354040283529160200191610c65565b820191906000526020600020905b815481529060010190602001808311610c4857829003601f168201915b50505050509350828054610c789061300f565b80601f0160208091040260200160405190810160405280929190818152602001828054610ca49061300f565b8015610cf15780601f10610cc657610100808354040283529160200191610cf1565b820191906000526020600020905b815481529060010190602001808311610cd457829003601f168201915b50505050509250818054610d049061300f565b80601f0160208091040260200160405190810160405280929190818152602001828054610d309061300f565b8015610d7d5780601f10610d5257610100808354040283529160200191610d7d565b820191906000526020600020905b815481529060010190602001808311610d6057829003601f168201915b50505050509150808054610d909061300f565b80601f0160208091040260200160405190810160405280929190818152602001828054610dbc9061300f565b8015610e095780601f10610dde57610100808354040283529160200191610e09565b820191906000526020600020905b815481529060010190602001808311610dec57829003601f168201915b505050505090509650965096509650965096509650919395979092949650565b600160205260009081526040902080546108ff9061300f565b600460205281600052604060002081815481106108e357600080fd5b60008481526002602052604090206004018054610f03918591610e809061300f565b80601f0160208091040260200160405190810160405280929190818152602001828054610eac9061300f565b8015610ef95780601f10610ece57610100808354040283529160200191610ef9565b820191906000526020600020905b815481529060010190602001808311610edc57829003601f168201915b5050505050611349565b610f0c57600080fd5b600084815260026020526040902060010154610f2a9060ff16611760565b610f3357600080fd5b6000600a8581548110610f4857610f48613049565b906000526020600020015460011490506000600b8681548110610f6d57610f6d613049565b906000526020600020015460011490508180610f865750805b1561106257600560008781526002602052604090206001015460ff166007811115610fb357610fb3612a12565b03610fc657610fc186611823565b611007565b600660008781526002602052604090206001015460ff166007811115610fee57610fee612a12565b03610ffc57610fc1866119f6565b611007868585611d07565b336001600160a01b03167f32e4ea1ee1b7d04aff7692ad7aa9a1db44a16ce2b519efa717ddd98034b9f1c3600260008981526020019081526020016000206002018686604051611059939291906130dc565b60405180910390a25b505050505050565b6000806110776000610a7b565b905060005b81518110156110d7576110c3846002600085858151811061109f5761109f613049565b602002602001015181526020019081526020016000206002018054610e809061300f565b156110cf579392505050565b60010161107c565b506101949392505050565b60405180610100016040528089815260200188600781111561110657611106612a12565b815260200187815260200186815260200185815260200184815260200183815260200182815250600260008a81526020019081526020016000206000820151816000015560208201518160010160006101000a81548160ff0219169083600781111561117457611174612a12565b02179055506040820151600282019061118d9082613167565b50606082015160038201906111a29082613167565b50608082015160048201906111b79082613167565b5060a082015160058201906111cc9082613167565b5060c082015160068201906111e19082613167565b5060e082015160078201906111f69082613167565b5050505050505050505050565b60008167ffffffffffffffff81111561121e5761121e612b65565b604051908082528060200260200182016040528015611247578160200160208202803683370190505b50905060005b8281101561127b578082828151811061126857611268613049565b602090810291909101015260010161124d565b5060408051606081018252600854808252602080830187815283850186905260009283529082905292902081518155915190919060018201906112be9082613167565b50604082015180516112da916002840191602090910190612955565b50506008546112eb91506001613227565b600855505050565b6060600c8054806020026020016040519081016040528092919081815260200182805480156104f157602002820191906000526020600020908154815260200190600101908083116104dd575050505050905090565b60008160405160200161135c9190613248565b60405160208183030381529060405280519060200120836040516020016113839190613248565b6040516020818303038152906040528051906020012014905092915050565b60006113ad8361106a565b90506001600a82815481106113c4576113c4613049565b90600052602060002001819055506000600c82815481106113e7576113e7613049565b90600052602060002001819055506000600b828154811061140a5761140a613049565b906000526020600020018190555060005b60078360405161142b9190613248565b9081526040519081900360200190205481101561158057600061150e6007856040516114579190613248565b9081526020016040518091039020838154811061147657611476613049565b90600052602060002001805461148b9061300f565b80601f01602080910402602001604051908101604052809291908181526020018280546114b79061300f565b80156115045780601f106114d957610100808354040283529160200191611504565b820191906000526020600020905b8154815290600101906020018083116114e757829003601f168201915b505050505061106a565b90506000600a828154811061152557611525613049565b90600052602060002001819055506000600c828154811061154857611548613049565b90600052602060002001819055506000600b828154811061156b5761156b613049565b6000918252602090912001555060010161141b565b50600061158c8361106a565b90506000600a82815481106115a3576115a3613049565b90600052602060002001819055506000600c82815481106115c6576115c6613049565b90600052602060002001819055506000600b82815481106115e9576115e9613049565b60009182526020909120015550505050565b600660205281600052604060002081815481106108e357600080fd5b60005b6000838152600360205260409020548110156116f657600083815260036020526040902080546116ee9184918490811061165657611656613049565b90600052602060002001805461166b9061300f565b80601f01602080910402602001604051908101604052809291908181526020018280546116979061300f565b80156116e45780601f106116b9576101008083540402835291602001916116e4565b820191906000526020600020905b8154815290600101906020018083116116c757829003601f168201915b5050505050611d79565b60010161161a565b505050565b60006117078383611e2d565b905080156116f6576116f68383611617565b60005b6000838152600660205260409020548110156116f657600083815260066020526040902080546117589184918490811061165657611656613049565b60010161171c565b60008082600781111561177557611775612a12565b14806117925750600282600781111561179057611790612a12565b145b806117ae575060038260078111156117ac576117ac612a12565b145b806117ca575060048260078111156117c8576117c8612a12565b145b806117e6575060018260078111156117e4576117e4612a12565b145b806118025750600582600781111561180057611800612a12565b145b80610a755750600682600781111561181c5761181c612a12565b1492915050565b6000600a828154811061183857611838613049565b90600052602060002001819055506001600c828154811061185b5761185b613049565b906000526020600020018190555060006118756000610a7b565b905060005b6000838152600360205260409020548110156116f65760008381526003602052604081208054839081106118b0576118b0613049565b9060005260206000200180546118c59061300f565b80601f01602080910402602001604051908101604052809291908181526020018280546118f19061300f565b801561193e5780601f106119135761010080835404028352916020019161193e565b820191906000526020600020905b81548152906001019060200180831161192157829003601f168201915b5050505050905060005b83518110156119ec5761196b826002600087858151811061109f5761109f613049565b156119e4576001600a85838151811061198657611986613049565b60200260200101518154811061199e5761199e613049565b9060005260206000200181905550600d8482815181106119c0576119c0613049565b602090810291909101810151825460018101845560009384529190922001556119ec565b600101611948565b505060010161187a565b600080611a036000610a7b565b905060005b600084815260046020526040902054811015611b61576000848152600460205260408120805483908110611a3e57611a3e613049565b906000526020600020018054611a539061300f565b80601f0160208091040260200160405190810160405280929190818152602001828054611a7f9061300f565b8015611acc5780601f10611aa157610100808354040283529160200191611acc565b820191906000526020600020905b815481529060010190602001808311611aaf57829003601f168201915b5050505050905060005b8351811015611b5757611af9826002600087858151811061109f5761109f613049565b15611b4f57600c848281518110611b1257611b12613049565b602002602001015181548110611b2a57611b2a613049565b9060005260206000200154600103611b4a57611b47856001613227565b94505b611b57565b600101611ad6565b5050600101611a08565b5060008381526004602052604090205482036116f6576000600a8481548110611b8c57611b8c613049565b90600052602060002001819055506001600c8481548110611baf57611baf613049565b906000526020600020018190555060005b600084815260036020526040902054811015610a0e576000848152600360205260408120805483908110611bf657611bf6613049565b906000526020600020018054611c0b9061300f565b80601f0160208091040260200160405190810160405280929190818152602001828054611c379061300f565b8015611c845780601f10611c5957610100808354040283529160200191611c84565b820191906000526020600020905b815481529060010190602001808311611c6757829003601f168201915b5050505050905060005b8351811015611cfd57611cb1826002600087858151811061109f5761109f613049565b15611cf5576001600a858381518110611ccc57611ccc613049565b602002602001015181548110611ce457611ce4613049565b600091825260209091200155611cfd565b600101611c8e565b5050600101611bc0565b611d12838383611f9d565b611d6c83600d805480602002602001604051908101604052809291908181526020018280548015611d6257602002820191906000526020600020905b815481526020019060010190808311611d4e575b5050505050610a30565b156116f6576116f66120a6565b60005b82518110156116f657611d9f826002600086858151811061109f5761109f613049565b8015611de157506001600c848381518110611dbc57611dbc613049565b602002602001015181548110611dd457611dd4613049565b9060005260206000200154105b15611e25576001600a848381518110611dfc57611dfc613049565b602002602001015181548110611e1457611e14613049565b600091825260209091200155505050565b600101611d7c565b6000805b8251811015610a6f5760008481526005602052604081208054611f049290611e5b57611e5b613049565b906000526020600020018054611e709061300f565b80601f0160208091040260200160405190810160405280929190818152602001828054611e9c9061300f565b8015611ee95780601f10611ebe57610100808354040283529160200191611ee9565b820191906000526020600020905b815481529060010190602001808311611ecc57829003601f168201915b50505050506002600086858151811061109f5761109f613049565b8015611f8657506000600b848381518110611f2157611f21613049565b602002602001015181548110611f3957611f39613049565b90600052602060002001541180611f8657506000600c848381518110611f6157611f61613049565b602002602001015181548110611f7957611f79613049565b9060005260206000200154115b15611f95576001915050610a75565b600101611e31565b600083815260026020526040812060060180546120519190611fbe9061300f565b80601f0160208091040260200160405190810160405280929190818152602001828054611fea9061300f565b80156120375780601f1061200c57610100808354040283529160200191612037565b820191906000526020600020905b81548152906001019060200180831161201a57829003601f168201915b505050505060405180602001604052806000815250611349565b159050600061207a600260008781526020019081526020016000206005018054611fbe9061300f565b159050816120935761208e85858584612108565b61209f565b61209f8585858461249f565b5050505050565b60005b600d548110156120f9576000600a600d83815481106120ca576120ca613049565b9060005260206000200154815481106120e5576120e5613049565b6000918252602090912001556001016120a9565b50612106600d6000612937565b565b801561212b5760008481526002602052604090206005016121298482613167565b505b60006121376000610a7b565b6000868152600660205260408120549192509015159061215787846124df565b9050600061216588856124df565b905060006007600260008b815260200190815260200160002060020160405161218e9190613264565b90815260405190819003602001902054151590508380156121ac5750805b1561230e576000898152600660205260408120805461230992906121d2576121d2613049565b9060005260206000200180546121e79061300f565b80601f01602080910402602001604051908101604052809291908181526020018280546122139061300f565b80156122605780601f1061223557610100808354040283529160200191612260565b820191906000526020600020905b81548152906001019060200180831161224357829003601f168201915b5050505050600260008c815260200190815260200160002060020180546122869061300f565b80601f01602080910402602001604051908101604052809291908181526020018280546122b29061300f565b80156122ff5780601f106122d4576101008083540402835291602001916122ff565b820191906000526020600020905b8154815290600101906020018083116122e257829003601f168201915b50505050506113a2565b612494565b83158061232057508280156123205750815b1561232e5761230989612627565b8261243b576001600c8a8154811061234857612348613049565b90600052602060002001819055506000600a8a8154811061236b5761236b613049565b90600052602060002001819055506123098986600660008d81526020019081526020016000206000815481106123a3576123a3613049565b9060005260206000200180546123b89061300f565b80601f01602080910402602001604051908101604052809291908181526020018280546123e49061300f565b80156124315780601f1061240657610100808354040283529160200191612431565b820191906000526020600020905b81548152906001019060200180831161241457829003601f168201915b50505050506126b1565b336001600160a01b03167ffc98137258110aa472f6dbf39f2051f7045162382f61b13bb1445bdb0a3e8b8a600260008c81526020019081526020016000206002018960405161248b9291906132da565b60405180910390a25b505050505050505050565b600b84815481106124b2576124b2613049565b90600052602060002001546000036124d4576124cf8482856127ab565b610a0e565b610a0e8484846127e3565b600080805b835181101561261f576000858152600560205260409020541561261757600085815260056020526040812080546125cb929061252257612522613049565b9060005260206000200180546125379061300f565b80601f01602080910402602001604051908101604052809291908181526020018280546125639061300f565b80156125b05780601f10612585576101008083540402835291602001916125b0565b820191906000526020600020905b81548152906001019060200180831161259357829003601f168201915b50505050506002600087858151811061109f5761109f613049565b1561261757600c8482815181106125e4576125e4613049565b6020026020010151815481106125fc576125fc613049565b9060005260206000200154600103612617576001915061261f565b6001016124e4565b509392505050565b6000600b828154811061263c5761263c613049565b90600052602060002001819055506000600a828154811061265f5761265f613049565b90600052602060002001819055506001600c828154811061268257612682613049565b600091825260208083209091019290925582815260039091526040902054156126ae576126ae81610980565b50565b60005b600084815260066020526040902054811015610a0e5760005b83518110156127a2576126f0836002600087858151811061109f5761109f613049565b801561273257506001600c85838151811061270d5761270d613049565b60200260200101518154811061272557612725613049565b9060005260206000200154105b1561279a576001600c85838151811061274d5761274d613049565b60200260200101518154811061276557612765613049565b906000526020600020018190555061279584828151811061278857612788613049565b6020026020010151610980565b6127a2565b6001016126cd565b506001016126b4565b81156127ce5760008381526002602052604090206005016127cc8282613167565b505b6001600b8481548110611e1457611e14613049565b60008381526002602052604090206006016127fe8382613167565b50600061280b6000610a7b565b6000858152600660205260408120549192509015159061282b86846124df565b9050600061283987856124df565b905082158061284d575081801561284d5750805b156128605761285b87612627565b61292e565b816128d5576001600b888154811061287a5761287a613049565b90600052602060002001819055506000600a888154811061289d5761289d613049565b906000526020600020018190555061285b8785600660008b81526020019081526020016000206000815481106123a3576123a3613049565b336001600160a01b03167ffc98137258110aa472f6dbf39f2051f7045162382f61b13bb1445bdb0a3e8b8a600260008a8152602001908152602001600020600201876040516129259291906132da565b60405180910390a25b50505050505050565b50805460008255906000526020600020908101906126ae91906129a0565b828054828255906000526020600020908101928215612990579160200282015b82811115612990578251825591602001919060010190612975565b5061299c9291506129a0565b5090565b5b8082111561299c57600081556001016129a1565b6020808252825182820181905260009190848201906040850190845b818110156129ed578351835292840192918401916001016129d1565b50909695505050505050565b600060208284031215612a0b57600080fd5b5035919050565b634e487b7160e01b600052602160045260246000fd5b60005b83811015612a43578181015183820152602001612a2b565b50506000910152565b60008151808452612a64816020860160208601612a28565b601f01601f19169290920160200192915050565b60006101008a835260088a10612a9e57634e487b7160e01b600052602160045260246000fd5b896020840152806040840152612ab68184018a612a4c565b90508281036060840152612aca8189612a4c565b90508281036080840152612ade8188612a4c565b905082810360a0840152612af28187612a4c565b905082810360c0840152612b068186612a4c565b905082810360e0840152612b1a8185612a4c565b9b9a5050505050505050505050565b60008060408385031215612b3c57600080fd5b50508035926020909101359150565b602081526000612b5e6020830184612a4c565b9392505050565b634e487b7160e01b600052604160045260246000fd5b604051601f8201601f1916810167ffffffffffffffff81118282101715612ba457612ba4612b65565b604052919050565b60008060408385031215612bbf57600080fd5b8235915060208084013567ffffffffffffffff80821115612bdf57600080fd5b818601915086601f830112612bf357600080fd5b813581811115612c0557612c05612b65565b8060051b9150612c16848301612b7b565b8181529183018401918481019089841115612c3057600080fd5b938501935b83851015612c4e57843582529385019390850190612c35565b8096505050505050509250929050565b87815286602082015260e060408201526000612c7d60e0830188612a4c565b8281036060840152612c8f8188612a4c565b90508281036080840152612ca38187612a4c565b905082810360a0840152612cb78186612a4c565b905082810360c0840152612ccb8185612a4c565b9a9950505050505050505050565b600060208284031215612ceb57600080fd5b81356001600160a01b0381168114612b5e57600080fd5b600082601f830112612d1357600080fd5b813567ffffffffffffffff811115612d2d57612d2d612b65565b612d40601f8201601f1916602001612b7b565b818152846020838601011115612d5557600080fd5b816020850160208301376000918101602001919091529392505050565b60008060008060808587031215612d8857600080fd5b84359350602085013567ffffffffffffffff80821115612da757600080fd5b612db388838901612d02565b94506040870135915080821115612dc957600080fd5b612dd588838901612d02565b93506060870135915080821115612deb57600080fd5b50612df887828801612d02565b91505092959194509250565b600060208284031215612e1657600080fd5b813567ffffffffffffffff811115612e2d57600080fd5b612e3984828501612d02565b949350505050565b803560088110612e5057600080fd5b919050565b600080600080600080600080610100898b031215612e7257600080fd5b88359750612e8260208a01612e41565b9650604089013567ffffffffffffffff80821115612e9f57600080fd5b612eab8c838d01612d02565b975060608b0135915080821115612ec157600080fd5b612ecd8c838d01612d02565b965060808b0135915080821115612ee357600080fd5b612eef8c838d01612d02565b955060a08b0135915080821115612f0557600080fd5b612f118c838d01612d02565b945060c08b0135915080821115612f2757600080fd5b612f338c838d01612d02565b935060e08b0135915080821115612f4957600080fd5b50612f568b828c01612d02565b9150509295985092959890939650565b60008060408385031215612f7957600080fd5b823567ffffffffffffffff811115612f9057600080fd5b612f9c85828601612d02565b95602094909401359450505050565b60008060408385031215612fbe57600080fd5b823567ffffffffffffffff80821115612fd657600080fd5b612fe286838701612d02565b93506020850135915080821115612ff857600080fd5b5061300585828601612d02565b9150509250929050565b600181811c9082168061302357607f821691505b60208210810361304357634e487b7160e01b600052602260045260246000fd5b50919050565b634e487b7160e01b600052603260045260246000fd5b6000815461306c8161300f565b80855260206001838116801561308957600181146130a3576130d1565b60ff1985168884015283151560051b8801830195506130d1565b866000528260002060005b858110156130c95781548a82018601529083019084016130ae565b890184019650505b505050505092915050565b6060815260006130ef606083018661305f565b82810360208401526131018186612a4c565b905082810360408401526131158185612a4c565b9695505050505050565b601f8211156116f6576000816000526020600020601f850160051c810160208610156131485750805b601f850160051c820191505b8181101561106257828155600101613154565b815167ffffffffffffffff81111561318157613181612b65565b6131958161318f845461300f565b8461311f565b602080601f8311600181146131ca57600084156131b25750858301515b600019600386901b1c1916600185901b178555611062565b600085815260208120601f198616915b828110156131f9578886015182559484019460019091019084016131da565b50858210156132175787850151600019600388901b60f8161c191681555b5050505050600190811b01905550565b80820180821115610a7557634e487b7160e01b600052601160045260246000fd5b6000825161325a818460208701612a28565b9190910192915050565b60008083546132728161300f565b6001828116801561328a576001811461329f576132ce565b60ff19841687528215158302870194506132ce565b8760005260208060002060005b858110156132c55781548a8201529084019082016132ac565b50505082870194505b50929695505050505050565b6040815260006132ed604083018561305f565b82810360208401526132ff8185612a4c565b9594505050505056fea264697066735822122016457eee7792fdcf54ed8732c717a0a4e6d19ad3961806e214926ce00a785ef764736f6c63430008180033526563657074696f6e6e65724d6573757265735365637572697465526f75746965726543656c6c756c65436f6d50726566333500000000000000000000000000000000526563657074696f6e6e657256616c69646174696f6e436f6d6d756e697175657352656e736569676e6572434f5a7375724d6573757265735365637572697465526f757469657265",
  "linkReferences": {},
  "deployedLinkReferences": {}
}