{
  "_format": "hh-sol-artifact-1",
  "contractName": "Process_0_Contract",
  "sourceName": "contracts/caterPillar/Process_0_Contract.sol",
  "abi": [
    {
      "inputs": [],
      "stateMutability": "nonpayable",
      "type": "constructor"
    },
    {
      "anonymous": false,
      "inputs": [
        {
          "indexed": false,
          "internalType": "uint256",
          "name": "elementId",
          "type": "uint256"
        }
      ],
      "name": "Element_Execution_Completed",
      "type": "event"
    },
    {
      "inputs": [
        {
          "internalType": "uint256",
          "name": "reqId",
          "type": "uint256"
        }
      ],
      "name": "a_callback",
      "outputs": [
        {
          "internalType": "bool",
          "name": "",
          "type": "bool"
        }
      ],
      "stateMutability": "nonpayable",
      "type": "function"
    },
    {
      "inputs": [],
      "name": "broadcastSignal_Process_0",
      "outputs": [],
      "stateMutability": "nonpayable",
      "type": "function"
    },
    {
      "inputs": [],
      "name": "getRunningFlowNodes",
      "outputs": [
        {
          "internalType": "uint256",
          "name": "",
          "type": "uint256"
        }
      ],
      "stateMutability": "nonpayable",
      "type": "function"
    },
    {
      "inputs": [],
      "name": "getStartedFlowNodes",
      "outputs": [
        {
          "internalType": "uint256",
          "name": "",
          "type": "uint256"
        }
      ],
      "stateMutability": "nonpayable",
      "type": "function"
    },
    {
      "inputs": [
        {
          "internalType": "uint256",
          "name": "taskId",
          "type": "uint256"
        }
      ],
      "name": "getTaskRequestIndex",
      "outputs": [
        {
          "internalType": "uint256",
          "name": "",
          "type": "uint256"
        }
      ],
      "stateMutability": "view",
      "type": "function"
    },
    {
      "inputs": [],
      "name": "getToken",
      "outputs": [
        {
          "internalType": "uint256",
          "name": "",
          "type": "uint256"
        }
      ],
      "stateMutability": "view",
      "type": "function"
    },
    {
      "inputs": [],
      "name": "getWorkListAddress",
      "outputs": [
        {
          "internalType": "address",
          "name": "",
          "type": "address"
        }
      ],
      "stateMutability": "view",
      "type": "function"
    },
    {
      "inputs": [],
      "name": "handleGlobalDefaultEnd",
      "outputs": [],
      "stateMutability": "nonpayable",
      "type": "function"
    },
    {
      "inputs": [
        {
          "internalType": "bytes32",
          "name": "eventName",
          "type": "bytes32"
        }
      ],
      "name": "handleGlobalErrorEnd",
      "outputs": [],
      "stateMutability": "nonpayable",
      "type": "function"
    },
    {
      "inputs": [
        {
          "internalType": "bytes32",
          "name": "eventName",
          "type": "bytes32"
        }
      ],
      "name": "handleGlobalEscalationEnd",
      "outputs": [],
      "stateMutability": "nonpayable",
      "type": "function"
    },
    {
      "inputs": [],
      "name": "kill_Process_0",
      "outputs": [
        {
          "internalType": "uint256",
          "name": "",
          "type": "uint256"
        }
      ],
      "stateMutability": "nonpayable",
      "type": "function"
    },
    {
      "inputs": [
        {
          "internalType": "address",
          "name": "newParent",
          "type": "address"
        }
      ],
      "name": "setParent",
      "outputs": [],
      "stateMutability": "nonpayable",
      "type": "function"
    },
    {
      "inputs": [
        {
          "internalType": "uint256",
          "name": "localTokens",
          "type": "uint256"
        }
      ],
      "name": "step",
      "outputs": [],
      "stateMutability": "nonpayable",
      "type": "function"
    }
  ],
  "bytecode": "0x608060405260026000556000600355600060065534801561001f57600080fd5b50600180546001600160a01b0319163317905560405161003e90610080565b604051809103906000f08015801561005a573d6000803e3d6000fd5b50600580546001600160a01b0319166001600160a01b039290921691909117905561008d565b6102888061063e83390190565b6105a28061009c6000396000f3fe608060405234801561001057600080fd5b50600436106100cf5760003560e01c80636b99255b1161008c57806384bef6791161006657806384bef67914610154578063b7db7f6d1461016f578063baf564e614610177578063be8017571461019a57600080fd5b80636b99255b146100e757806372aaaa461461013a5780637a6eadeb1461014157600080fd5b80631499c592146100d457806321df0da7146100e95780632e47fbd5146101005780633a1cde7514610113578063506b6ab0146100e75780635def08cb14610126575b600080fd5b6100e76100e236600461050a565b6101ad565b005b6000545b6040519081526020015b60405180910390f35b6100e761010e36600461053a565b6101e0565b6100e761012136600461053a565b610265565b6000600681905580546006191681556100ed565b60006100ed565b6100ed61014f36600461053a565b6102aa565b6005546040516001600160a01b0390911681526020016100f7565b6100ed6102c1565b61018a61018536600461053a565b6102dd565b60405190151581526020016100f7565b6100e76101a836600461053a565b610360565b600154336001600160a01b03909116036101dd57600280546001600160a01b0319166001600160a01b0383161790555b50565b6002546001600160a01b03161561025357600254604051632e47fbd560e01b8152600481018390526001600160a01b0390911690632e47fbd5906024015b600060405180830381600087803b15801561023857600080fd5b505af115801561024c573d6000803e3d6000fd5b5050505050565b50600060068190558054600619169055565b60005b806102a4578160021660020361028857610281826103a2565b9150610268565b8160041660040361029c5761028182610439565b506001610268565b50600055565b6000816001036102bc57505060065490565b919050565b60008054600654829190156102d7576001821791505b50919050565b60006006546000036102f157506000919050565b6006546001831b9081168190036103575760068054821916905560005461031a90600417610265565b604051600181527fd14e1275459d597e11394bd4f2705f67625abb817299d3f66faffc080162996d9060200160405180910390a150600192915050565b50600092915050565b6002546001600160a01b0316156101dd5760025460405163be80175760e01b8152600481018390526001600160a01b039091169063be8017579060240161021e565b60055460408051632a142df560e11b81523060201b63baf564e61790911b600482015260009182916001600160a01b03909116906354285bea906024016020604051808303816000875af11580156103fe573d6000803e3d6000fd5b505050506040513d601f19601f820116820180604052508101906104229190610553565b60068054600190921b909117905550506002191690565b60041981166000908155600282161561045457505060005490565b6002546001600160a01b0316156104ce57600260009054906101000a90046001600160a01b03166001600160a01b0316636b99255b6040518163ffffffff1660e01b8152600401600060405180830381600087803b1580156104b557600080fd5b505af11580156104c9573d6000803e3d6000fd5b505050505b604051600281527fd14e1275459d597e11394bd4f2705f67625abb817299d3f66faffc080162996d9060200160405180910390a1505060005490565b60006020828403121561051c57600080fd5b81356001600160a01b038116811461053357600080fd5b9392505050565b60006020828403121561054c57600080fd5b5035919050565b60006020828403121561056557600080fd5b505191905056fea26469706673582212204db3553ec03841e459530084e91e8e2a7c541f0c14aa75b5e3c0edc9bbfa19b464736f6c63430008180033608060405234801561001057600080fd5b50610268806100206000396000f3fe608060405234801561001057600080fd5b50600436106100365760003560e01c806354285bea1461003b578063b50c113d146100da575b600080fd5b6100c8610049366004610194565b60008054604080516020808201835286901b63ffffffff80871691909117831b8252600184018555938052517f290decd9548b62a8d60345a988386fc84ba6bc95484008f6362f93160ef3e56383018054640100000000600160c01b039290931c91821691909416176001600160c01b03199091161790915592915050565b60405190815260200160405180910390f35b6100ed6100e83660046101da565b6100ef565b005b60008181548110610102576101026101f3565b9060005260206000200160000160009054906101000a90048060201c6001600160a01b03169063ffffffff16826040518263ffffffff1660e01b815260040161014d91815260200190565b6020604051808303816000875af115801561016c573d6000803e3d6000fd5b505050506040513d601f19601f820116820180604052508101906101909190610209565b5050565b600080602083850312156101a757600080fd5b823567ffffffffffffffff19811681146101c057600080fd5b8060601c925063ffffffff8160401c169150509250929050565b6000602082840312156101ec57600080fd5b5035919050565b634e487b7160e01b600052603260045260246000fd5b60006020828403121561021b57600080fd5b8151801515811461022b57600080fd5b939250505056fea2646970667358221220fdb5b498abec1566eab7c987b2b3c3bc7c72454ae04653098d30d1ff9af289cf64736f6c63430008180033",
  "linkReferences": {},
  "deployedLinkReferences": {}
}