{
  "_format": "hh-sol-artifact-1",
  "contractName": "ModelFactoryFacetV2",
  "sourceName": "contracts/facets/Process/ModelFactoryFacetV2.sol",
  "abi": [
    {
      "anonymous": false,
      "inputs": [
        {
          "indexed": false,
          "internalType": "string",
          "name": "pName",
          "type": "string"
        }
      ],
      "name": "newModelFactory",
      "type": "event"
    },
    {
      "inputs": [
        {
          "internalType": "string",
          "name": "_name",
          "type": "string"
        },
        {
          "components": [
            {
              "internalType": "uint256",
              "name": "id",
              "type": "uint256"
            },
            {
              "internalType": "enum LibApp.NodeType",
              "name": "nodeType",
              "type": "uint8"
            },
            {
              "internalType": "string",
              "name": "xmlID",
              "type": "string"
            },
            {
              "internalType": "string",
              "name": "name",
              "type": "string"
            },
            {
              "internalType": "string",
              "name": "lane",
              "type": "string"
            },
            {
              "internalType": "string",
              "name": "dataIn",
              "type": "string"
            },
            {
              "internalType": "string",
              "name": "dataOut",
              "type": "string"
            },
            {
              "internalType": "string",
              "name": "timestamp",
              "type": "string"
            }
          ],
          "internalType": "struct LibApp.Activity[]",
          "name": "_activities",
          "type": "tuple[]"
        },
        {
          "internalType": "string[][]",
          "name": "_tabChildrenOptim",
          "type": "string[][]"
        },
        {
          "internalType": "string[][]",
          "name": "_tabParentsOptim",
          "type": "string[][]"
        },
        {
          "internalType": "string[][]",
          "name": "_msgInOptim",
          "type": "string[][]"
        },
        {
          "internalType": "string[][]",
          "name": "_msgOutOptim",
          "type": "string[][]"
        },
        {
          "internalType": "string[]",
          "name": "_keyReplay",
          "type": "string[]"
        },
        {
          "internalType": "string[][]",
          "name": "_valueReplay",
          "type": "string[][]"
        }
      ],
      "name": "addModel",
      "outputs": [],
      "stateMutability": "nonpayable",
      "type": "function"
    }
  ],
  "bytecode": "0x608060405234801561001057600080fd5b50610da4806100206000396000f3fe608060405234801561001057600080fd5b506004361061002b5760003560e01c80638d30bf3c14610030575b600080fd5b61004361003e366004610a44565b610045565b005b6040805180820190915260068152654d6f64656c5f60d01b60208201527f34b903b1c9f516e29bcc70e55a6bc2ac2c43ec324e4a6cfb468f0c027487621c908990600160005b8251811015610100578351811015806100ea57508281815181106100b1576100b1610b84565b602001015160f81c60f81b6001600160f81b0319168482815181106100d8576100d8610b84565b01602001516001600160f81b03191614155b156100f85760009150610100565b60010161008b565b508061015f5760405162461bcd60e51b815260206004820152602360248201527f4d6f64656c206e616d65206d757374207374617274207769746820274d6f64656044820152626c5f2760e81b60648201526084015b60405180910390fd5b604051849061016f908e90610bbe565b9081526040519081900360200190205460ff16156101c75760405162461bcd60e51b81526020600482015260156024820152742730b6b29034b99030b63932b0b23c903a30b5b2b760591b6044820152606401610156565b6001846000018d6040516101db9190610bbe565b908152604051908190036020018120805492151560ff19909316929092179091558b5190859061020c908f90610bbe565b9081526040519081900360200190206001015560005b6040518590610232908f90610bbe565b9081526020016040518091039020600101548110156104d5578b818151811061025d5761025d610b84565b6020026020010151856000018e6040516102779190610bbe565b908152604080516020928190038301902060008581526004909101835220825181559082015160018083018054909160ff19909116908360078111156102bf576102bf610bda565b0217905550604082015160028201906102d89082610c7b565b50606082015160038201906102ed9082610c7b565b50608082015160048201906103029082610c7b565b5060a082015160058201906103179082610c7b565b5060c0820151600682019061032c9082610c7b565b5060e082015160078201906103419082610c7b565b509050508a818151811061035757610357610b84565b6020026020010151856000018e6040516103719190610bbe565b9081526020016040518091039020600501600083815260200190815260200160002090805190602001906103a69291906105b6565b508981815181106103b9576103b9610b84565b6020026020010151856000018e6040516103d39190610bbe565b9081526020016040518091039020600601600083815260200190815260200160002090805190602001906104089291906105b6565b5088818151811061041b5761041b610b84565b6020026020010151856000018e6040516104359190610bbe565b90815260200160405180910390206007016000838152602001908152602001600020908051906020019061046a9291906105b6565b5087818151811061047d5761047d610b84565b6020026020010151856000018e6040516104979190610bbe565b9081526020016040518091039020600801600083815260200190815260200160002090805190602001906104cc9291906105b6565b50600101610222565b5060005b8651811015610570578581815181106104f4576104f4610b84565b6020026020010151856000018e60405161050e9190610bbe565b908152602001604051809103902060090188838151811061053157610531610b84565b60200260200101516040516105469190610bbe565b908152602001604051809103902090805190602001906105679291906105b6565b506001016104d9565b507f199aab2f4d8489f44c22def22ddc192f95a7736dda51493af0a19361b0964d448c6040516105a09190610d3b565b60405180910390a1505050505050505050505050565b8280548282559060005260206000209081019282156105fc579160200282015b828111156105fc57825182906105ec9082610c7b565b50916020019190600101906105d6565b5061060892915061060c565b5090565b808211156106085760006106208282610629565b5060010161060c565b50805461063590610bf0565b6000825580601f10610645575050565b601f0160209004906000526020600020908101906106639190610666565b50565b5b808211156106085760008155600101610667565b634e487b7160e01b600052604160045260246000fd5b604051610100810167ffffffffffffffff811182821017156106b5576106b561067b565b60405290565b604051601f8201601f1916810167ffffffffffffffff811182821017156106e4576106e461067b565b604052919050565b600082601f8301126106fd57600080fd5b813567ffffffffffffffff8111156107175761071761067b565b61072a601f8201601f19166020016106bb565b81815284602083860101111561073f57600080fd5b816020850160208301376000918101602001919091529392505050565b600067ffffffffffffffff8211156107765761077661067b565b5060051b60200190565b80356008811061078f57600080fd5b919050565b600082601f8301126107a557600080fd5b813560206107ba6107b58361075c565b6106bb565b82815260059290921b840181019181810190868411156107d957600080fd5b8286015b8481101561093957803567ffffffffffffffff808211156107fe5760008081fd5b90880190610100828b03601f19018113156108195760008081fd5b610821610691565b8784013581526040610834818601610780565b898301526060808601358581111561084c5760008081fd5b61085a8f8c838a01016106ec565b83850152506080915081860135858111156108755760008081fd5b6108838f8c838a01016106ec565b82850152505060a0808601358581111561089d5760008081fd5b6108ab8f8c838a01016106ec565b838501525060c0915081860135858111156108c65760008081fd5b6108d48f8c838a01016106ec565b82850152505060e080860135858111156108ee5760008081fd5b6108fc8f8c838a01016106ec565b848401525092850135928484111561091657600091508182fd5b6109248e8b868901016106ec565b908301525086525050509183019183016107dd565b509695505050505050565b600082601f83011261095557600080fd5b813560206109656107b58361075c565b82815260059290921b8401810191818101908684111561098457600080fd5b8286015b8481101561093957803567ffffffffffffffff8111156109a85760008081fd5b6109b68986838b01016106ec565b845250918301918301610988565b600082601f8301126109d557600080fd5b813560206109e56107b58361075c565b82815260059290921b84018101918181019086841115610a0457600080fd5b8286015b8481101561093957803567ffffffffffffffff811115610a285760008081fd5b610a368986838b0101610944565b845250918301918301610a08565b600080600080600080600080610100898b031215610a6157600080fd5b883567ffffffffffffffff80821115610a7957600080fd5b610a858c838d016106ec565b995060208b0135915080821115610a9b57600080fd5b610aa78c838d01610794565b985060408b0135915080821115610abd57600080fd5b610ac98c838d016109c4565b975060608b0135915080821115610adf57600080fd5b610aeb8c838d016109c4565b965060808b0135915080821115610b0157600080fd5b610b0d8c838d016109c4565b955060a08b0135915080821115610b2357600080fd5b610b2f8c838d016109c4565b945060c08b0135915080821115610b4557600080fd5b610b518c838d01610944565b935060e08b0135915080821115610b6757600080fd5b50610b748b828c016109c4565b9150509295985092959890939650565b634e487b7160e01b600052603260045260246000fd5b60005b83811015610bb5578181015183820152602001610b9d565b50506000910152565b60008251610bd0818460208701610b9a565b9190910192915050565b634e487b7160e01b600052602160045260246000fd5b600181811c90821680610c0457607f821691505b602082108103610c2457634e487b7160e01b600052602260045260246000fd5b50919050565b601f821115610c76576000816000526020600020601f850160051c81016020861015610c535750805b601f850160051c820191505b81811015610c7257828155600101610c5f565b5050505b505050565b815167ffffffffffffffff811115610c9557610c9561067b565b610ca981610ca38454610bf0565b84610c2a565b602080601f831160018114610cde5760008415610cc65750858301515b600019600386901b1c1916600185901b178555610c72565b600085815260208120601f198616915b82811015610d0d57888601518255948401946001909101908401610cee565b5085821015610d2b5787850151600019600388901b60f8161c191681555b5050505050600190811b01905550565b6020815260008251806020840152610d5a816040850160208701610b9a565b601f01601f1916919091016040019291505056fea2646970667358221220676ca20bf02a06b2c9c3ef6f5b6f1f4c8cd76f13d1424af12482e44ba5a52b1d64736f6c63430008180033",
  "linkReferences": {},
  "deployedLinkReferences": {}
}