{
  "_format": "hh-sol-artifact-1",
  "contractName": "GettersFacetV2",
  "sourceName": "contracts/facets/Process/GettersFacetV2.sol",
  "abi": [
    {
      "inputs": [
        {
          "internalType": "string",
          "name": "_modelName",
          "type": "string"
        },
        {
          "internalType": "uint256",
          "name": "_activityId",
          "type": "uint256"
        }
      ],
      "name": "getActivity",
      "outputs": [
        {
          "internalType": "uint256",
          "name": "id",
          "type": "uint256"
        },
        {
          "internalType": "enum LibAppV2.NodeType",
          "name": "nodeType",
          "type": "uint8"
        },
        {
          "internalType": "string",
          "name": "xmlID",
          "type": "string"
        },
        {
          "internalType": "string",
          "name": "name",
          "type": "string"
        },
        {
          "internalType": "string",
          "name": "lane",
          "type": "string"
        },
        {
          "internalType": "string",
          "name": "dataIn",
          "type": "string"
        },
        {
          "internalType": "string",
          "name": "dataOut",
          "type": "string"
        },
        {
          "internalType": "string",
          "name": "timestamp",
          "type": "string"
        }
      ],
      "stateMutability": "view",
      "type": "function"
    },
    {
      "inputs": [
        {
          "internalType": "string",
          "name": "_modelName",
          "type": "string"
        },
        {
          "internalType": "uint256",
          "name": "_activityId",
          "type": "uint256"
        }
      ],
      "name": "getActivityMetadata",
      "outputs": [
        {
          "internalType": "string",
          "name": "",
          "type": "string"
        }
      ],
      "stateMutability": "view",
      "type": "function"
    },
    {
      "inputs": [
        {
          "internalType": "string",
          "name": "_name",
          "type": "string"
        }
      ],
      "name": "getModel",
      "outputs": [
        {
          "internalType": "bool",
          "name": "isSet",
          "type": "bool"
        },
        {
          "internalType": "address",
          "name": "owner",
          "type": "address"
        },
        {
          "internalType": "uint256",
          "name": "nbActivity",
          "type": "uint256"
        },
        {
          "internalType": "uint256",
          "name": "nbInstance",
          "type": "uint256"
        }
      ],
      "stateMutability": "view",
      "type": "function"
    }
  ],
  "bytecode": "0x608060405234801561001057600080fd5b50610903806100206000396000f3fe608060405234801561001057600080fd5b50600436106100415760003560e01c8063ded34ca414610046578063e2930d2014610076578063fab5740414610096575b600080fd5b6100596100543660046106da565b6100d3565b60405161006d98979695949392919061076f565b60405180910390f35b6100896100843660046106da565b6104cf565b60405161006d9190610820565b6100a96100a436600461083a565b6105b8565b6040805194151585526001600160a01b03909316602085015291830152606082015260800161006d565b60008060608080808080867f34b903b1c9f516e29bcc70e55a6bc2ac2c43ec324e4a6cfb468f0c027487621c90506000816000018c6040516101159190610877565b908152602001604051809103902060040160008c8152602001908152602001600020905080600001548160010160009054906101000a900460ff1682600201836003018460040185600501866006018760070185805461017490610893565b80601f01602080910402602001604051908101604052809291908181526020018280546101a090610893565b80156101ed5780601f106101c2576101008083540402835291602001916101ed565b820191906000526020600020905b8154815290600101906020018083116101d057829003601f168201915b5050505050955084805461020090610893565b80601f016020809104026020016040519081016040528092919081815260200182805461022c90610893565b80156102795780601f1061024e57610100808354040283529160200191610279565b820191906000526020600020905b81548152906001019060200180831161025c57829003601f168201915b5050505050945083805461028c90610893565b80601f01602080910402602001604051908101604052809291908181526020018280546102b890610893565b80156103055780601f106102da57610100808354040283529160200191610305565b820191906000526020600020905b8154815290600101906020018083116102e857829003601f168201915b5050505050935082805461031890610893565b80601f016020809104026020016040519081016040528092919081815260200182805461034490610893565b80156103915780601f1061036657610100808354040283529160200191610391565b820191906000526020600020905b81548152906001019060200180831161037457829003601f168201915b505050505092508180546103a490610893565b80601f01602080910402602001604051908101604052809291908181526020018280546103d090610893565b801561041d5780601f106103f25761010080835404028352916020019161041d565b820191906000526020600020905b81548152906001019060200180831161040057829003601f168201915b5050505050915080805461043090610893565b80601f016020809104026020016040519081016040528092919081815260200182805461045c90610893565b80156104a95780601f1061047e576101008083540402835291602001916104a9565b820191906000526020600020905b81548152906001019060200180831161048c57829003601f168201915b505050505090509950995099509950995099509950995050509295985092959890939650565b6040516060907f34b903b1c9f516e29bcc70e55a6bc2ac2c43ec324e4a6cfb468f0c027487621c908190610504908690610877565b9081526020016040518091039020600a016000848152602001908152602001600020805461053190610893565b80601f016020809104026020016040519081016040528092919081815260200182805461055d90610893565b80156105aa5780601f1061057f576101008083540402835291602001916105aa565b820191906000526020600020905b81548152906001019060200180831161058d57829003601f168201915b505050505091505092915050565b6000808080807f34b903b1c9f516e29bcc70e55a6bc2ac2c43ec324e4a6cfb468f0c027487621c9050600081600001876040516105f59190610877565b9081526040516020918190039190910190208054600182015460029092015460ff82169a6101009092046001600160a01b031699509197509095509350505050565b634e487b7160e01b600052604160045260246000fd5b600082601f83011261065e57600080fd5b813567ffffffffffffffff8082111561067957610679610637565b604051601f8301601f19908116603f011681019082821181831017156106a1576106a1610637565b816040528381528660208588010111156106ba57600080fd5b836020870160208301376000602085830101528094505050505092915050565b600080604083850312156106ed57600080fd5b823567ffffffffffffffff81111561070457600080fd5b6107108582860161064d565b95602094909401359450505050565b60005b8381101561073a578181015183820152602001610722565b50506000910152565b6000815180845261075b81602086016020860161071f565b601f01601f19169290920160200192915050565b60006101008a835260088a1061079557634e487b7160e01b600052602160045260246000fd5b8960208401528060408401526107ad8184018a610743565b905082810360608401526107c18189610743565b905082810360808401526107d58188610743565b905082810360a08401526107e98187610743565b905082810360c08401526107fd8186610743565b905082810360e08401526108118185610743565b9b9a5050505050505050505050565b6020815260006108336020830184610743565b9392505050565b60006020828403121561084c57600080fd5b813567ffffffffffffffff81111561086357600080fd5b61086f8482850161064d565b949350505050565b6000825161088981846020870161071f565b9190910192915050565b600181811c908216806108a757607f821691505b6020821081036108c757634e487b7160e01b600052602260045260246000fd5b5091905056fea264697066735822122062e6e751f719b30e37238c0cca7a753ee6694d07f66213886d81731d3ff4872664736f6c63430008180033",
  "linkReferences": {},
  "deployedLinkReferences": {}
}