{
  "_format": "hh-sol-artifact-1",
  "contractName": "ExecLogicFacet",
  "sourceName": "contracts/facets/Process/ExecLogicFacet.sol",
  "abi": [
    {
      "anonymous": false,
      "inputs": [
        {
          "indexed": true,
          "internalType": "address",
          "name": "_from",
          "type": "address"
        },
        {
          "indexed": false,
          "internalType": "string",
          "name": "_id",
          "type": "string"
        },
        {
          "indexed": false,
          "internalType": "string",
          "name": "_data",
          "type": "string"
        },
        {
          "indexed": false,
          "internalType": "string",
          "name": "_timestamp",
          "type": "string"
        },
        {
          "indexed": false,
          "internalType": "string",
          "name": "_model",
          "type": "string"
        },
        {
          "indexed": false,
          "internalType": "uint256",
          "name": "_instance",
          "type": "uint256"
        }
      ],
      "name": "taskExecutedDiamond",
      "type": "event"
    },
    {
      "anonymous": false,
      "inputs": [
        {
          "indexed": true,
          "internalType": "address",
          "name": "_from",
          "type": "address"
        },
        {
          "indexed": false,
          "internalType": "string",
          "name": "_id",
          "type": "string"
        },
        {
          "indexed": false,
          "internalType": "string",
          "name": "_timestamp",
          "type": "string"
        }
      ],
      "name": "taskExecutionError",
      "type": "event"
    },
    {
      "inputs": [
        {
          "internalType": "uint256",
          "name": "_actId",
          "type": "uint256"
        },
        {
          "internalType": "string",
          "name": "_model",
          "type": "string"
        },
        {
          "internalType": "uint256",
          "name": "_instanceId",
          "type": "uint256"
        },
        {
          "internalType": "string",
          "name": "_lane",
          "type": "string"
        },
        {
          "internalType": "string",
          "name": "_upd",
          "type": "string"
        },
        {
          "internalType": "string",
          "name": "_timestamp",
          "type": "string"
        }
      ],
      "name": "Invoke",
      "outputs": [],
      "stateMutability": "payable",
      "type": "function"
    },
    {
      "inputs": [
        {
          "internalType": "uint256",
          "name": "_actId",
          "type": "uint256"
        },
        {
          "internalType": "string",
          "name": "_model",
          "type": "string"
        },
        {
          "internalType": "uint256",
          "name": "_instanceId",
          "type": "uint256"
        }
      ],
      "name": "checkIncomingMsgExecuted",
      "outputs": [
        {
          "internalType": "bool",
          "name": "",
          "type": "bool"
        }
      ],
      "stateMutability": "view",
      "type": "function"
    },
    {
      "inputs": [
        {
          "internalType": "string",
          "name": "a",
          "type": "string"
        },
        {
          "internalType": "string",
          "name": "b",
          "type": "string"
        }
      ],
      "name": "compareStrings",
      "outputs": [
        {
          "internalType": "bool",
          "name": "",
          "type": "bool"
        }
      ],
      "stateMutability": "pure",
      "type": "function"
    },
    {
      "inputs": [
        {
          "internalType": "string",
          "name": "_model",
          "type": "string"
        },
        {
          "internalType": "uint256",
          "name": "_instanceId",
          "type": "uint256"
        }
      ],
      "name": "disableConcurrentActivities",
      "outputs": [],
      "stateMutability": "nonpayable",
      "type": "function"
    },
    {
      "inputs": [
        {
          "internalType": "uint256",
          "name": "_actId",
          "type": "uint256"
        },
        {
          "internalType": "string",
          "name": "_model",
          "type": "string"
        },
        {
          "internalType": "uint256",
          "name": "_instanceId",
          "type": "uint256"
        }
      ],
      "name": "execTask",
      "outputs": [],
      "stateMutability": "nonpayable",
      "type": "function"
    },
    {
      "inputs": [
        {
          "internalType": "uint256",
          "name": "_actId",
          "type": "uint256"
        },
        {
          "internalType": "string",
          "name": "_model",
          "type": "string"
        },
        {
          "internalType": "uint256",
          "name": "_instanceId",
          "type": "uint256"
        }
      ],
      "name": "executeANDGate",
      "outputs": [],
      "stateMutability": "nonpayable",
      "type": "function"
    },
    {
      "inputs": [
        {
          "internalType": "uint256",
          "name": "_actId",
          "type": "uint256"
        },
        {
          "internalType": "string",
          "name": "_model",
          "type": "string"
        },
        {
          "internalType": "uint256",
          "name": "_instanceId",
          "type": "uint256"
        }
      ],
      "name": "executeXORGate",
      "outputs": [],
      "stateMutability": "nonpayable",
      "type": "function"
    },
    {
      "inputs": [
        {
          "internalType": "uint256",
          "name": "num",
          "type": "uint256"
        },
        {
          "internalType": "uint256[]",
          "name": "numbers1",
          "type": "uint256[]"
        }
      ],
      "name": "exists1",
      "outputs": [
        {
          "internalType": "bool",
          "name": "",
          "type": "bool"
        }
      ],
      "stateMutability": "pure",
      "type": "function"
    },
    {
      "inputs": [
        {
          "internalType": "string",
          "name": "_model",
          "type": "string"
        },
        {
          "internalType": "string",
          "name": "_xmlID",
          "type": "string"
        }
      ],
      "name": "getPosFromXML",
      "outputs": [
        {
          "internalType": "uint256",
          "name": "",
          "type": "uint256"
        }
      ],
      "stateMutability": "view",
      "type": "function"
    },
    {
      "inputs": [
        {
          "internalType": "uint256",
          "name": "_actId",
          "type": "uint256"
        },
        {
          "internalType": "string",
          "name": "_model",
          "type": "string"
        },
        {
          "internalType": "uint256",
          "name": "_instanceId",
          "type": "uint256"
        },
        {
          "internalType": "string",
          "name": "msgOut",
          "type": "string"
        }
      ],
      "name": "handleChildMarkings",
      "outputs": [],
      "stateMutability": "nonpayable",
      "type": "function"
    },
    {
      "inputs": [
        {
          "internalType": "uint256",
          "name": "_actId",
          "type": "uint256"
        },
        {
          "internalType": "string",
          "name": "_model",
          "type": "string"
        },
        {
          "internalType": "uint256",
          "name": "_instanceId",
          "type": "uint256"
        },
        {
          "internalType": "string",
          "name": "_upd",
          "type": "string"
        },
        {
          "internalType": "string",
          "name": "_timestamp",
          "type": "string"
        },
        {
          "internalType": "bool",
          "name": "hasDataIn",
          "type": "bool"
        }
      ],
      "name": "handleDataOut",
      "outputs": [],
      "stateMutability": "nonpayable",
      "type": "function"
    },
    {
      "inputs": [
        {
          "internalType": "uint256",
          "name": "_actId",
          "type": "uint256"
        },
        {
          "internalType": "string",
          "name": "_model",
          "type": "string"
        },
        {
          "internalType": "uint256",
          "name": "_instanceId",
          "type": "uint256"
        }
      ],
      "name": "handleIncomingMsgStart",
      "outputs": [],
      "stateMutability": "nonpayable",
      "type": "function"
    },
    {
      "inputs": [
        {
          "internalType": "uint256",
          "name": "_actId",
          "type": "uint256"
        },
        {
          "internalType": "string",
          "name": "_model",
          "type": "string"
        },
        {
          "internalType": "uint256",
          "name": "_instanceId",
          "type": "uint256"
        },
        {
          "internalType": "string",
          "name": "_upd",
          "type": "string"
        },
        {
          "internalType": "string",
          "name": "_timestamp",
          "type": "string"
        },
        {
          "internalType": "bool",
          "name": "hasDataIn",
          "type": "bool"
        }
      ],
      "name": "handleNoDataOut",
      "outputs": [],
      "stateMutability": "nonpayable",
      "type": "function"
    },
    {
      "inputs": [
        {
          "internalType": "string",
          "name": "_model",
          "type": "string"
        },
        {
          "internalType": "uint256",
          "name": "key",
          "type": "uint256"
        }
      ],
      "name": "isParentOptimNotEmpty",
      "outputs": [
        {
          "internalType": "bool",
          "name": "",
          "type": "bool"
        }
      ],
      "stateMutability": "view",
      "type": "function"
    },
    {
      "inputs": [
        {
          "internalType": "string",
          "name": "_model",
          "type": "string"
        },
        {
          "internalType": "uint256",
          "name": "key",
          "type": "uint256"
        }
      ],
      "name": "ischildrenOptimNotEmpty",
      "outputs": [
        {
          "internalType": "bool",
          "name": "",
          "type": "bool"
        }
      ],
      "stateMutability": "view",
      "type": "function"
    },
    {
      "inputs": [
        {
          "internalType": "string",
          "name": "_model",
          "type": "string"
        },
        {
          "internalType": "uint256",
          "name": "key",
          "type": "uint256"
        }
      ],
      "name": "ismsgInOptimNotEmpty",
      "outputs": [
        {
          "internalType": "bool",
          "name": "",
          "type": "bool"
        }
      ],
      "stateMutability": "view",
      "type": "function"
    },
    {
      "inputs": [
        {
          "internalType": "string",
          "name": "_model",
          "type": "string"
        },
        {
          "internalType": "uint256",
          "name": "key",
          "type": "uint256"
        }
      ],
      "name": "ismsgOutOptimNotEmpty",
      "outputs": [
        {
          "internalType": "bool",
          "name": "",
          "type": "bool"
        }
      ],
      "stateMutability": "view",
      "type": "function"
    },
    {
      "inputs": [
        {
          "internalType": "string",
          "name": "_model",
          "type": "string"
        },
        {
          "internalType": "uint256",
          "name": "_instanceId",
          "type": "uint256"
        }
      ],
      "name": "killProcess",
      "outputs": [
        {
          "internalType": "uint256",
          "name": "",
          "type": "uint256"
        }
      ],
      "stateMutability": "payable",
      "type": "function"
    },
    {
      "inputs": [
        {
          "internalType": "uint256",
          "name": "_actId",
          "type": "uint256"
        },
        {
          "internalType": "string",
          "name": "_model",
          "type": "string"
        },
        {
          "internalType": "uint256",
          "name": "_instanceId",
          "type": "uint256"
        },
        {
          "internalType": "string",
          "name": "_upd",
          "type": "string"
        },
        {
          "internalType": "string",
          "name": "_timestamp",
          "type": "string"
        }
      ],
      "name": "pendingNotarizationEnd",
      "outputs": [],
      "stateMutability": "nonpayable",
      "type": "function"
    },
    {
      "inputs": [
        {
          "internalType": "uint256",
          "name": "_actId",
          "type": "uint256"
        },
        {
          "internalType": "string",
          "name": "_model",
          "type": "string"
        },
        {
          "internalType": "uint256",
          "name": "_instanceId",
          "type": "uint256"
        },
        {
          "internalType": "bool",
          "name": "hasDataIn",
          "type": "bool"
        },
        {
          "internalType": "string",
          "name": "_upd",
          "type": "string"
        }
      ],
      "name": "pendingNotarizationStart",
      "outputs": [],
      "stateMutability": "nonpayable",
      "type": "function"
    },
    {
      "inputs": [
        {
          "internalType": "string",
          "name": "startXML",
          "type": "string"
        },
        {
          "internalType": "string",
          "name": "triggerXML",
          "type": "string"
        },
        {
          "internalType": "string",
          "name": "_model",
          "type": "string"
        },
        {
          "internalType": "uint256",
          "name": "_instanceId",
          "type": "uint256"
        }
      ],
      "name": "setActivitiesSegment",
      "outputs": [],
      "stateMutability": "nonpayable",
      "type": "function"
    },
    {
      "inputs": [
        {
          "internalType": "string",
          "name": "_model",
          "type": "string"
        },
        {
          "internalType": "uint256",
          "name": "_instanceId",
          "type": "uint256"
        },
        {
          "internalType": "string",
          "name": "childName",
          "type": "string"
        }
      ],
      "name": "updateChildMarking",
      "outputs": [],
      "stateMutability": "nonpayable",
      "type": "function"
    },
    {
      "inputs": [
        {
          "internalType": "uint256",
          "name": "_actId",
          "type": "uint256"
        },
        {
          "internalType": "string",
          "name": "_model",
          "type": "string"
        },
        {
          "internalType": "uint256",
          "name": "_instanceId",
          "type": "uint256"
        }
      ],
      "name": "updateChildren",
      "outputs": [],
      "stateMutability": "payable",
      "type": "function"
    },
    {
      "inputs": [
        {
          "internalType": "uint256",
          "name": "_actId",
          "type": "uint256"
        },
        {
          "internalType": "string",
          "name": "_model",
          "type": "string"
        },
        {
          "internalType": "uint256",
          "name": "_instanceId",
          "type": "uint256"
        }
      ],
      "name": "updateExternalChildren",
      "outputs": [],
      "stateMutability": "nonpayable",
      "type": "function"
    },
    {
      "inputs": [
        {
          "internalType": "uint256",
          "name": "_actId",
          "type": "uint256"
        },
        {
          "internalType": "string",
          "name": "_model",
          "type": "string"
        },
        {
          "internalType": "uint256",
          "name": "_instanceId",
          "type": "uint256"
        }
      ],
      "name": "updateInternalChildren",
      "outputs": [],
      "stateMutability": "nonpayable",
      "type": "function"
    }
  ],
  "bytecode": "0x608060405234801561001057600080fd5b506137e1806100206000396000f3fe6080604052600436106101665760003560e01c806359b97b97116100d1578063cf326b601161008a578063dc37b12c11610064578063dc37b12c14610409578063e4cdb77d14610429578063e71d80e114610449578063f42df8061461046957600080fd5b8063cf326b60146103a9578063d1efd490146103c9578063d56450f9146103e957600080fd5b806359b97b971461030357806361f0f81b1461032357806379e979ff14610343578063888a190414610356578063acbfdc1614610369578063bed34bba1461038957600080fd5b806335f542321161012357806335f54232146102425780633619542014610262578063370b721e146102905780633ffbb98f146102b05780634181ed1c146102d057806347b10686146102f057600080fd5b8063033842641461016b5780630bbdaffb1461018d5780630be9037a146101ad5780630e69ae98146101cd5780631827337814610202578063238169c714610222575b600080fd5b34801561017757600080fd5b5061018b610186366004612ea9565b610489565b005b34801561019957600080fd5b5061018b6101a8366004612ef8565b6109ec565b3480156101b957600080fd5b5061018b6101c8366004612f79565b610b00565b3480156101d957600080fd5b506101ed6101e8366004613000565b610bb6565b60405190151581526020015b60405180910390f35b34801561020e57600080fd5b5061018b61021d366004613044565b610c08565b34801561022e57600080fd5b5061018b61023d366004612ea9565b610c96565b34801561024e57600080fd5b5061018b61025d366004613044565b610dcc565b34801561026e57600080fd5b5061028261027d3660046130ee565b6112bb565b6040519081526020016101f9565b34801561029c57600080fd5b506101ed6102ab366004612ea9565b61132c565b3480156102bc57600080fd5b506101ed6102cb366004613000565b611531565b3480156102dc57600080fd5b5061018b6102eb366004613151565b611582565b61018b6102fe3660046131c7565b6116ea565b34801561030f57600080fd5b506101ed61031e366004613285565b611999565b34801561032f57600080fd5b506101ed61033e366004613000565b6119e2565b61018b610351366004612ea9565b611a33565b610282610364366004613000565b611ae6565b34801561037557600080fd5b5061018b610384366004612ea9565b611b36565b34801561039557600080fd5b506101ed6103a43660046130ee565b611c90565b3480156103b557600080fd5b5061018b6103c4366004613336565b611ce9565b3480156103d557600080fd5b5061018b6103e4366004612ea9565b612159565b3480156103f557600080fd5b5061018b610404366004612ea9565b612179565b34801561041557600080fd5b5061018b610424366004612ea9565b612217565b34801561043557600080fd5b506101ed610444366004613000565b6124e5565b34801561045557600080fd5b5061018b610464366004613000565b612536565b34801561047557600080fd5b5061018b6104843660046133c5565b612676565b6000610493612917565b90506000805b60405183906104a9908790613454565b908152602001604051809103902060060160008781526020019081526020016000208054905081101561072957600083600001866040516104ea9190613454565b90815260200160405180910390206006016000888152602001908152602001600020828154811061051d5761051d613470565b90600052602060002001805461053290613486565b80601f016020809104026020016040519081016040528092919081815260200182805461055e90613486565b80156105ab5780601f10610580576101008083540402835291602001916105ab565b820191906000526020600020905b81548152906001019060200180831161058e57829003601f168201915b5050505050905060005b60405185906105c5908990613454565b90815260200160405180910390206001015481101561071f576106a78286600001896040516105f49190613454565b90815260200160405180910390206004016000848152602001908152602001600020600201805461062490613486565b80601f016020809104026020016040519081016040528092919081815260200182805461065090613486565b801561069d5780601f106106725761010080835404028352916020019161069d565b820191906000526020600020905b81548152906001019060200180831161068057829003601f168201915b5050505050611c90565b156107175760405185906106bc908990613454565b9081526020016040518091039020600301600087815260200190815260200160002060040181815481106106f2576106f2613470565b90600052602060002001546001036107125761070f8460016134c0565b93505b61071f565b6001016105b5565b5050600101610499565b50604051829061073a908690613454565b908152602001604051809103902060060160008681526020019081526020016000208054905081036109e5576000826000018560405161077a9190613454565b9081526020016040518091039020600301600085815260200190815260200160002060020186815481106107b0576107b0613470565b60009182526020909120015560405160019083906107cf908790613454565b90815260200160405180910390206003016000858152602001908152602001600020600401868154811061080557610805613470565b906000526020600020018190555060005b6040518390610826908790613454565b90815260200160405180910390206005016000878152602001908152602001600020805490508110156109e357600083600001866040516108679190613454565b90815260200160405180910390206005016000888152602001908152602001600020828154811061089a5761089a613470565b9060005260206000200180546108af90613486565b80601f01602080910402602001604051908101604052809291908181526020018280546108db90613486565b80156109285780601f106108fd57610100808354040283529160200191610928565b820191906000526020600020905b81548152906001019060200180831161090b57829003601f168201915b5050505050905060005b6040518590610942908990613454565b9081526020016040518091039020600101548110156109d9576109718286600001896040516105f49190613454565b156109d1576001856000018860405161098a9190613454565b9081526020016040518091039020600301600088815260200190815260200160002060020182815481106109c0576109c0613470565b6000918252602090912001556109d9565b600101610932565b5050600101610816565b505b5050505050565b60006109f6612917565b905060005b6040518290610a0b908790613454565b9081526020016040518091039020600101548110156109e557610a3a8383600001876040516105f49190613454565b8015610a98575060018260000186604051610a559190613454565b908152602001604051809103902060030160008681526020019081526020016000206004018281548110610a8b57610a8b613470565b9060005260206000200154105b15610af85760018260000186604051610ab19190613454565b908152602001604051809103902060030160008681526020019081526020016000206002018281548110610ae757610ae7613470565b6000918252602090912001556109e5565b6001016109fb565b6000610b0a612917565b90508215610b5857818160000186604051610b259190613454565b908152602001604051809103902060040160008881526020019081526020016000206005019081610b569190613529565b505b60018160000186604051610b6c9190613454565b908152602001604051809103902060030160008681526020019081526020016000206003018781548110610ba257610ba2613470565b600091825260209091200155505050505050565b600080610bc1612917565b905060008160000185604051610bd79190613454565b9081526020016040518091039020600701600085815260200190815260200160002080549050119150505b92915050565b6000610c12612917565b90508060000186604051610c269190613454565b908152602001604051809103902060030160008681526020019081526020016000206003018781548110610c5c57610c5c613470565b9060005260206000200154600003610c8057610c7b8787878588610b00565b610c8d565b610c8d8787878787612676565b50505050505050565b6000610ca0612917565b905060005b6040518290610cb5908690613454565b90815260200160405180910390206005016000868152602001908152602001600020805490508110156109e557610dc484848460000187604051610cf99190613454565b908152602001604051809103902060050160008981526020019081526020016000208481548110610d2c57610d2c613470565b906000526020600020018054610d4190613486565b80601f0160208091040260200160405190810160405280929190818152602001828054610d6d90613486565b8015610dba5780601f10610d8f57610100808354040283529160200191610dba565b820191906000526020600020905b815481529060010190602001808311610d9d57829003601f168201915b50505050506109ec565b600101610ca5565b6000610dd6612917565b90508115610e2457838160000187604051610df19190613454565b908152602001604051809103902060040160008981526020019081526020016000206005019081610e229190613529565b505b6000610e3087896124e5565b90506000610e3f89898961293b565b90506000610e4e8a8a8a61293b565b90506000846000018a604051610e649190613454565b908152604051908190036020018120600901908690610e84908d90613454565b908152602001604051809103902060040160008d8152602001908152602001600020600201604051610eb691906135e8565b9081526040519081900360200190205415159050838015610ed45750805b1561107f5761107a856000018b604051610eee9190613454565b908152602001604051809103902060080160008d8152602001908152602001600020600081548110610f2257610f22613470565b906000526020600020018054610f3790613486565b80601f0160208091040260200160405190810160405280929190818152602001828054610f6390613486565b8015610fb05780601f10610f8557610100808354040283529160200191610fb0565b820191906000526020600020905b815481529060010190602001808311610f9357829003601f168201915b50506040518a9350610fc592508f9150613454565b908152602001604051809103902060040160008e81526020019081526020016000206002018054610ff590613486565b80601f016020809104026020016040519081016040528092919081815260200182805461102190613486565b801561106e5780601f106110435761010080835404028352916020019161106e565b820191906000526020600020905b81548152906001019060200180831161105157829003601f168201915b50505050508c8c611ce9565b6112ae565b83158061109157508280156110915750815b156110a15761107a8b8b8b611b36565b8261123d576001856000018b6040516110ba9190613454565b908152602001604051809103902060030160008b81526020019081526020016000206004018c815481106110f0576110f0613470565b6000918252602082200191909155604051869061110e908d90613454565b908152602001604051809103902060030160008b81526020019081526020016000206002018c8154811061114457611144613470565b60009182526020822001919091556040518690611162908d90613454565b908152602001604051809103902060080160008d815260200190815260200160002060008154811061119657611196613470565b9060005260206000200180546111ab90613486565b80601f01602080910402602001604051908101604052809291908181526020018280546111d790613486565b80156112245780601f106111f957610100808354040283529160200191611224565b820191906000526020600020905b81548152906001019060200180831161120757829003601f168201915b505050505090506112378c8c8c84611582565b506112ae565b60405133907ffc98137258110aa472f6dbf39f2051f7045162382f61b13bb1445bdb0a3e8b8a908790611271908e90613454565b908152602001604051809103902060040160008e8152602001908152602001600020600201896040516112a5929190613707565b60405180910390a25b5050505050505050505050565b6000806112c6612917565b905060005b60405182906112db908790613454565b9081526020016040518091039020600101548110156113205761130a8483600001876040516105f49190613454565b15611318579150610c029050565b6001016112cb565b50610194949350505050565b600080611337612917565b905060005b604051829061134c908790613454565b90815260200160405180910390206001015481101561152357611451826000018660405161137a9190613454565b908152602001604051809103902060070160008881526020019081526020016000206000815481106113ae576113ae613470565b9060005260206000200180546113c390613486565b80601f01602080910402602001604051908101604052809291908181526020018280546113ef90613486565b801561143c5780601f106114115761010080835404028352916020019161143c565b820191906000526020600020905b81548152906001019060200180831161141f57829003601f168201915b50506040518793506105f492508a9150613454565b801561150b57506000826000018660405161146c9190613454565b9081526020016040518091039020600301600086815260200190815260200160002060030182815481106114a2576114a2613470565b9060005260206000200154118061150b5750600082600001866040516114c89190613454565b9081526020016040518091039020600301600086815260200190815260200160002060040182815481106114fe576114fe613470565b9060005260206000200154115b1561151b5760019250505061152a565b60010161133c565b5060009150505b9392505050565b60008061153c612917565b9050600081600001856040516115529190613454565b90815260200160405180910390206006016000858152602001908152602001600020805490501191505092915050565b600061158c612917565b905060005b60405182906115a1908790613454565b90815260200160405180910390206008016000878152602001908152602001600020805490508110156109e35760005b60405183906115e1908890613454565b9081526020016040518091039020600101548110156116e1576116108484600001886040516105f49190613454565b801561166e57506001836000018760405161162b9190613454565b90815260200160405180910390206003016000878152602001908152602001600020600401828154811061166157611661613470565b9060005260206000200154105b156116d957600183600001876040516116879190613454565b9081526020016040518091039020600301600087815260200190815260200160002060040182815481106116bd576116bd613470565b6000918252602090912001556116d4818787611a33565b6116e1565b6001016115d1565b50600101611591565b60006116f4612917565b905061173c84826000018860405161170c9190613454565b908152602001604051809103902060040160008a8152602001908152602001600020600401805461062490613486565b61174557600080fd5b611786816000018760405161175a9190613454565b908152604080516020928190038301902060008b8152600490910190925290206001015460ff16612ae8565b61178f57600080fd5b600081600001876040516117a39190613454565b9081526020016040518091039020600301600087815260200190815260200160002060020188815481106117d9576117d9613470565b90600052602060002001546001149050600082600001886040516117fd9190613454565b90815260200160405180910390206003016000888152602001908152602001600020600301898154811061183357611833613470565b90600052602060002001546001149050818061184c5750805b1561198e5760056040518490611863908b90613454565b908152604080516020928190038301902060008d8152600490910190925290206001015460ff16600781111561189b5761189b613735565b036118b0576118ab898989612217565b611917565b600660405184906118c2908b90613454565b908152604080516020928190038301902060008d8152600490910190925290206001015460ff1660078111156118fa576118fa613735565b0361190a576118ab898989610489565b6119178989898888612bab565b60405133907fa829b988cccd6d8260c3668520ae000314a7ae5b3e36280149a07eeca491811790859061194b908c90613454565b908152602001604051809103902060040160008c815260200190815260200160002060020187878c8c60405161198595949392919061374b565b60405180910390a25b505050505050505050565b6000805b82518110156119d857838382815181106119b9576119b9613470565b6020026020010151036119d0576001915050610c02565b60010161199d565b5060009392505050565b6000806119ed612917565b905060008160000185604051611a039190613454565b90815260200160405180910390206005016000858152602001908152602001600020805490501191505092915050565b6000611a3d612917565b90506000611a4b8486610bb6565b9050600060026040518490611a61908890613454565b908152604080516020928190038301902060008a8152600490910190925290206001015460ff166007811115611a9957611a99613735565b14905081611ab157611aac868686610c96565b611adb565b818015611abb5750805b15611acb57611aac868686612159565b80611adb57611adb868686610c96565b6109e3868686612179565b600080611af1612917565b90508060000184604051611b059190613454565b9081526020016040518091039020600301600084815260200190815260200160002060020160006119d89190612dba565b6000611b40612917565b905060008160000184604051611b569190613454565b908152602001604051809103902060030160008481526020019081526020016000206003018581548110611b8c57611b8c613470565b60009182526020822001919091556040518290611baa908690613454565b908152602001604051809103902060030160008481526020019081526020016000206002018581548110611be057611be0613470565b6000918252602090912001556040516001908290611bff908690613454565b908152602001604051809103902060030160008481526020019081526020016000206004018581548110611c3557611c35613470565b60009182526020822001919091556040518290611c53908690613454565b90815260200160405180910390206005016000868152602001908152602001600020805490501115611c8a57611c8a848484611a33565b50505050565b600081604051602001611ca39190613454565b6040516020818303038152906040528051906020012083604051602001611cca9190613454565b6040516020818303038152906040528051906020012014905092915050565b6000611cf3612917565b90506000611d0184876112bb565b905060018260000185604051611d179190613454565b908152602001604051809103902060030160008581526020019081526020016000206002018281548110611d4d57611d4d613470565b60009182526020822001919091556040518390611d6b908790613454565b908152602001604051809103902060030160008581526020019081526020016000206004018281548110611da157611da1613470565b60009182526020822001919091556040518390611dbf908790613454565b908152602001604051809103902060030160008581526020019081526020016000206003018281548110611df557611df5613470565b906000526020600020018190555060005b6040518390611e16908790613454565b908152602001604051809103902060090186604051611e359190613454565b90815260405190819003602001902054811015612043576000611f3a868560000188604051611e649190613454565b908152602001604051809103902060090189604051611e839190613454565b90815260200160405180910390208481548110611ea257611ea2613470565b906000526020600020018054611eb790613486565b80601f0160208091040260200160405190810160405280929190818152602001828054611ee390613486565b8015611f305780601f10611f0557610100808354040283529160200191611f30565b820191906000526020600020905b815481529060010190602001808311611f1357829003601f168201915b50505050506112bb565b905060008460000187604051611f509190613454565b908152602001604051809103902060030160008781526020019081526020016000206002018281548110611f8657611f86613470565b60009182526020822001919091556040518590611fa4908990613454565b908152602001604051809103902060030160008781526020019081526020016000206004018281548110611fda57611fda613470565b60009182526020822001919091556040518590611ff8908990613454565b90815260200160405180910390206003016000878152602001908152602001600020600301828154811061202e5761202e613470565b60009182526020909120015550600101611e06565b50600061205085876112bb565b9050600083600001866040516120669190613454565b90815260200160405180910390206003016000868152602001908152602001600020600201828154811061209c5761209c613470565b600091825260208220019190915560405184906120ba908890613454565b9081526020016040518091039020600301600086815260200190815260200160002060040182815481106120f0576120f0613470565b6000918252602082200191909155604051849061210e908890613454565b90815260200160405180910390206003016000868152602001908152602001600020600301828154811061214457612144613470565b60009182526020909120015550505050505050565b600061216684848461132c565b90508015611c8a57611c8a848484610c96565b6000612183612917565b905060005b6040518290612198908690613454565b90815260200160405180910390206008016000868152602001908152602001600020805490508110156109e55761220f848484600001876040516121dc9190613454565b908152602001604051809103902060080160008981526020019081526020016000208481548110610d2c57610d2c613470565b600101612188565b6000612221612917565b9050600081600001846040516122379190613454565b90815260200160405180910390206003016000848152602001908152602001600020600201858154811061226d5761226d613470565b600091825260209091200155604051600190829061228c908690613454565b9081526020016040518091039020600301600084815260200190815260200160002060040185815481106122c2576122c2613470565b906000526020600020018190555060005b60405182906122e3908690613454565b90815260200160405180910390206005016000868152602001908152602001600020805490508110156109e557600082600001856040516123249190613454565b90815260200160405180910390206005016000878152602001908152602001600020828154811061235757612357613470565b90600052602060002001805461236c90613486565b80601f016020809104026020016040519081016040528092919081815260200182805461239890613486565b80156123e55780601f106123ba576101008083540402835291602001916123e5565b820191906000526020600020905b8154815290600101906020018083116123c857829003601f168201915b5050505050905060005b60405184906123ff908890613454565b9081526020016040518091039020600101548110156124db5761242e8285600001886040516105f49190613454565b156124d357600184600001876040516124479190613454565b90815260200160405180910390206003016000878152602001908152602001600020600201828154811061247d5761247d613470565b6000918252602090912001556040518490612499908890613454565b90815260408051602092819003830190206000888152600390910183529081206005018054600181018255908252919020018190556124db565b6001016123ef565b50506001016122d3565b6000806124f0612917565b9050600081600001856040516125069190613454565b90815260200160405180910390206008016000858152602001908152602001600020805490501191505092915050565b6000612540612917565b905060005b6040518290612555908690613454565b908152602001604051809103902060030160008481526020019081526020016000206005018054905081101561262f57600082600001856040516125999190613454565b90815260408051918290036020908101832060008881526003909101909152206002019084906125ca908890613454565b90815260200160405180910390206003016000868152602001908152602001600020600501838154811061260057612600613470565b90600052602060002001548154811061261b5761261b613470565b600091825260209091200155600101612545565b506040518190612640908590613454565b9081526020016040518091039020600301600083815260200190815260200160002060050160006126719190612dba565b505050565b6000612680612917565b90508281600001866040516126959190613454565b9081526020016040518091039020600401600088815260200190815260200160002060060190816126c69190613529565b5060006126d386886124e5565b905060006126e288888861293b565b905060006126f189898961293b565b905082158061270557508180156127055750805b1561271a57612715898989611b36565b61198e565b816128af57600184600001896040516127339190613454565b908152602001604051809103902060030160008981526020019081526020016000206003018a8154811061276957612769613470565b60009182526020822001919091556040518590612787908b90613454565b908152602001604051809103902060030160008981526020019081526020016000206002018a815481106127bd576127bd613470565b9060005260206000200181905550612715898989876000018c6040516127e39190613454565b908152602001604051809103902060080160008e815260200190815260200160002060008154811061281757612817613470565b90600052602060002001805461282c90613486565b80601f016020809104026020016040519081016040528092919081815260200182805461285890613486565b80156128a55780601f1061287a576101008083540402835291602001916128a5565b820191906000526020600020905b81548152906001019060200180831161288857829003601f168201915b5050505050611582565b60405133907ffc98137258110aa472f6dbf39f2051f7045162382f61b13bb1445bdb0a3e8b8a9086906128e3908c90613454565b908152602001604051809103902060040160008c815260200190815260200160002060020187604051611985929190613707565b7f34b903b1c9f516e29bcc70e55a6bc2ac2c43ec324e4a6cfb468f0c027487621c90565b600080612946612917565b90506000805b604051839061295c908890613454565b908152602001604051809103902060010154811015612ade5761297f8688610bb6565b15612ad657612a7083600001876040516129999190613454565b908152602001604051809103902060070160008981526020019081526020016000206000815481106129cd576129cd613470565b9060005260206000200180546129e290613486565b80601f0160208091040260200160405190810160405280929190818152602001828054612a0e90613486565b8015612a5b5780601f10612a3057610100808354040283529160200191612a5b565b820191906000526020600020905b815481529060010190602001808311612a3e57829003601f168201915b50506040518893506105f492508b9150613454565b15612ad6576040518390612a85908890613454565b908152602001604051809103902060030160008681526020019081526020016000206004018181548110612abb57612abb613470565b9060005260206000200154600103612ad65760019150612ade565b60010161294c565b5095945050505050565b600080826007811115612afd57612afd613735565b1480612b1a57506002826007811115612b1857612b18613735565b145b80612b3657506003826007811115612b3457612b34613735565b145b80612b5257506004826007811115612b5057612b50613735565b145b80612b6e57506001826007811115612b6c57612b6c613735565b145b80612b8a57506005826007811115612b8857612b88613735565b145b80610c0257506006826007811115612ba457612ba4613735565b1492915050565b6000612bb5612917565b9050612bc48686868686612c57565b612c48868260000187604051612bda9190613454565b90815260408051918290036020908101832060008a8152600390910182528290206005018054808302850183019093528284529190830182828015612c3e57602002820191906000526020600020905b815481526020019060010190808311612c2a575b5050505050611999565b156109e3576109e38585612536565b6000612c61612917565b90506000612d3d8260000187604051612c7a9190613454565b908152602001604051809103902060040160008981526020019081526020016000206006018054612caa90613486565b80601f0160208091040260200160405190810160405280929190818152602001828054612cd690613486565b8015612d235780601f10612cf857610100808354040283529160200191612d23565b820191906000526020600020905b815481529060010190602001808311612d0657829003601f168201915b505050505060405180602001604052806000815250611c90565b1590506000612d878360000188604051612d579190613454565b908152602001604051809103902060040160008a81526020019081526020016000206005018054612caa90613486565b15905081612da257612d9d888888888886610dcc565b612db0565b612db0888888888886610c08565b5050505050505050565b5080546000825590600052602060002090810190612dd89190612ddb565b50565b5b80821115612df05760008155600101612ddc565b5090565b634e487b7160e01b600052604160045260246000fd5b604051601f8201601f191681016001600160401b0381118282101715612e3257612e32612df4565b604052919050565b600082601f830112612e4b57600080fd5b81356001600160401b03811115612e6457612e64612df4565b612e77601f8201601f1916602001612e0a565b818152846020838601011115612e8c57600080fd5b816020850160208301376000918101602001919091529392505050565b600080600060608486031215612ebe57600080fd5b8335925060208401356001600160401b03811115612edb57600080fd5b612ee786828701612e3a565b925050604084013590509250925092565b600080600060608486031215612f0d57600080fd5b83356001600160401b0380821115612f2457600080fd5b612f3087838801612e3a565b9450602086013593506040860135915080821115612f4d57600080fd5b50612f5a86828701612e3a565b9150509250925092565b80358015158114612f7457600080fd5b919050565b600080600080600060a08688031215612f9157600080fd5b8535945060208601356001600160401b0380821115612faf57600080fd5b612fbb89838a01612e3a565b955060408801359450612fd060608901612f64565b93506080880135915080821115612fe657600080fd5b50612ff388828901612e3a565b9150509295509295909350565b6000806040838503121561301357600080fd5b82356001600160401b0381111561302957600080fd5b61303585828601612e3a565b95602094909401359450505050565b60008060008060008060c0878903121561305d57600080fd5b8635955060208701356001600160401b038082111561307b57600080fd5b6130878a838b01612e3a565b96506040890135955060608901359150808211156130a457600080fd5b6130b08a838b01612e3a565b945060808901359150808211156130c657600080fd5b506130d389828a01612e3a565b9250506130e260a08801612f64565b90509295509295509295565b6000806040838503121561310157600080fd5b82356001600160401b038082111561311857600080fd5b61312486838701612e3a565b9350602085013591508082111561313a57600080fd5b5061314785828601612e3a565b9150509250929050565b6000806000806080858703121561316757600080fd5b8435935060208501356001600160401b038082111561318557600080fd5b61319188838901612e3a565b94506040870135935060608701359150808211156131ae57600080fd5b506131bb87828801612e3a565b91505092959194509250565b60008060008060008060c087890312156131e057600080fd5b8635955060208701356001600160401b03808211156131fe57600080fd5b61320a8a838b01612e3a565b965060408901359550606089013591508082111561322757600080fd5b6132338a838b01612e3a565b9450608089013591508082111561324957600080fd5b6132558a838b01612e3a565b935060a089013591508082111561326b57600080fd5b5061327889828a01612e3a565b9150509295509295509295565b6000806040838503121561329857600080fd5b823591506020808401356001600160401b03808211156132b757600080fd5b818601915086601f8301126132cb57600080fd5b8135818111156132dd576132dd612df4565b8060051b91506132ee848301612e0a565b818152918301840191848101908984111561330857600080fd5b938501935b838510156133265784358252938501939085019061330d565b8096505050505050509250929050565b6000806000806080858703121561334c57600080fd5b84356001600160401b038082111561336357600080fd5b61336f88838901612e3a565b9550602087013591508082111561338557600080fd5b61339188838901612e3a565b945060408701359150808211156133a757600080fd5b506133b487828801612e3a565b949793965093946060013593505050565b600080600080600060a086880312156133dd57600080fd5b8535945060208601356001600160401b03808211156133fb57600080fd5b61340789838a01612e3a565b955060408801359450606088013591508082111561342457600080fd5b612fd089838a01612e3a565b60005b8381101561344b578181015183820152602001613433565b50506000910152565b60008251613466818460208701613430565b9190910192915050565b634e487b7160e01b600052603260045260246000fd5b600181811c9082168061349a57607f821691505b6020821081036134ba57634e487b7160e01b600052602260045260246000fd5b50919050565b80820180821115610c0257634e487b7160e01b600052601160045260246000fd5b601f821115612671576000816000526020600020601f850160051c8101602086101561350a5750805b601f850160051c820191505b818110156109e357828155600101613516565b81516001600160401b0381111561354257613542612df4565b613556816135508454613486565b846134e1565b602080601f83116001811461358b57600084156135735750858301515b600019600386901b1c1916600185901b1785556109e3565b600085815260208120601f198616915b828110156135ba5788860151825594840194600190910190840161359b565b50858210156135d85787850151600019600388901b60f8161c191681555b5050505050600190811b01905550565b60008083546135f681613486565b6001828116801561360e576001811461362357613652565b60ff1984168752821515830287019450613652565b8760005260208060002060005b858110156136495781548a820152908401908201613630565b50505082870194505b50929695505050505050565b6000815461366b81613486565b80855260206001838116801561368857600181146136a2576136d0565b60ff1985168884015283151560051b8801830195506136d0565b866000528260002060005b858110156136c85781548a82018601529083019084016136ad565b890184019650505b505050505092915050565b600081518084526136f3816020860160208601613430565b601f01601f19169290920160200192915050565b60408152600061371a604083018561365e565b828103602084015261372c81856136db565b95945050505050565b634e487b7160e01b600052602160045260246000fd5b60a08152600061375e60a083018861365e565b828103602084015261377081886136db565b9050828103604084015261378481876136db565b9050828103606084015261379881866136db565b915050826080830152969550505050505056fea264697066735822122086f5f692d1f09ef07022019c30c6fdb887aaa7484aaba5efd8d3c04f65e491de64736f6c63430008180033",
  "linkReferences": {},
  "deployedLinkReferences": {}
}