{
  "_format": "hh-sol-artifact-1",
  "contractName": "Zad2Kolab",
  "sourceName": "contracts/monolithic/Zad2Kolab.sol",
  "abi": [
    {
      "inputs": [],
      "stateMutability": "nonpayable",
      "type": "constructor"
    },
    {
      "anonymous": false,
      "inputs": [
        {
          "indexed": true,
          "internalType": "address",
          "name": "_from",
          "type": "address"
        },
        {
          "indexed": false,
          "internalType": "string",
          "name": "_id",
          "type": "string"
        },
        {
          "indexed": false,
          "internalType": "string",
          "name": "_data",
          "type": "string"
        },
        {
          "indexed": false,
          "internalType": "string",
          "name": "_timestamp",
          "type": "string"
        }
      ],
      "name": "taskExecuted",
      "type": "event"
    },
    {
      "anonymous": false,
      "inputs": [
        {
          "indexed": true,
          "internalType": "address",
          "name": "_from",
          "type": "address"
        },
        {
          "indexed": false,
          "internalType": "string",
          "name": "_id",
          "type": "string"
        },
        {
          "indexed": false,
          "internalType": "string",
          "name": "_timestamp",
          "type": "string"
        }
      ],
      "name": "taskExecutionError",
      "type": "event"
    },
    {
      "inputs": [
        {
          "internalType": "uint256",
          "name": "",
          "type": "uint256"
        },
        {
          "internalType": "uint256",
          "name": "",
          "type": "uint256"
        }
      ],
      "name": "ChildrenOptim",
      "outputs": [
        {
          "internalType": "string",
          "name": "",
          "type": "string"
        }
      ],
      "stateMutability": "view",
      "type": "function"
    },
    {
      "inputs": [
        {
          "internalType": "uint256",
          "name": "_actId",
          "type": "uint256"
        },
        {
          "internalType": "string",
          "name": "_lane",
          "type": "string"
        },
        {
          "internalType": "string",
          "name": "_upd",
          "type": "string"
        },
        {
          "internalType": "string",
          "name": "_timestamp",
          "type": "string"
        }
      ],
      "name": "Invoke",
      "outputs": [],
      "stateMutability": "payable",
      "type": "function"
    },
    {
      "inputs": [
        {
          "internalType": "uint256",
          "name": "",
          "type": "uint256"
        },
        {
          "internalType": "uint256",
          "name": "",
          "type": "uint256"
        }
      ],
      "name": "MsgInOptim",
      "outputs": [
        {
          "internalType": "string",
          "name": "",
          "type": "string"
        }
      ],
      "stateMutability": "view",
      "type": "function"
    },
    {
      "inputs": [
        {
          "internalType": "uint256",
          "name": "",
          "type": "uint256"
        },
        {
          "internalType": "uint256",
          "name": "",
          "type": "uint256"
        }
      ],
      "name": "MsgOutOptim",
      "outputs": [
        {
          "internalType": "string",
          "name": "",
          "type": "string"
        }
      ],
      "stateMutability": "view",
      "type": "function"
    },
    {
      "inputs": [
        {
          "internalType": "uint256",
          "name": "",
          "type": "uint256"
        },
        {
          "internalType": "uint256",
          "name": "",
          "type": "uint256"
        }
      ],
      "name": "ParentsOptim",
      "outputs": [
        {
          "internalType": "string",
          "name": "",
          "type": "string"
        }
      ],
      "stateMutability": "view",
      "type": "function"
    },
    {
      "inputs": [
        {
          "internalType": "uint256",
          "name": "",
          "type": "uint256"
        }
      ],
      "name": "activities",
      "outputs": [
        {
          "internalType": "uint256",
          "name": "id",
          "type": "uint256"
        },
        {
          "internalType": "enum Zad2Kolab.NodeType",
          "name": "nodeType",
          "type": "uint8"
        },
        {
          "internalType": "string",
          "name": "xmlID",
          "type": "string"
        },
        {
          "internalType": "string",
          "name": "name",
          "type": "string"
        },
        {
          "internalType": "string",
          "name": "lane",
          "type": "string"
        },
        {
          "internalType": "string",
          "name": "dataIn",
          "type": "string"
        },
        {
          "internalType": "string",
          "name": "dataOut",
          "type": "string"
        },
        {
          "internalType": "string",
          "name": "timestamp",
          "type": "string"
        }
      ],
      "stateMutability": "view",
      "type": "function"
    },
    {
      "inputs": [
        {
          "internalType": "uint256",
          "name": "_id",
          "type": "uint256"
        },
        {
          "internalType": "enum Zad2Kolab.NodeType",
          "name": "_type",
          "type": "uint8"
        },
        {
          "internalType": "string",
          "name": "_xmlID",
          "type": "string"
        },
        {
          "internalType": "string",
          "name": "_name",
          "type": "string"
        },
        {
          "internalType": "string",
          "name": "_lane",
          "type": "string"
        },
        {
          "internalType": "string",
          "name": "_data_in",
          "type": "string"
        },
        {
          "internalType": "string",
          "name": "_data_out",
          "type": "string"
        },
        {
          "internalType": "string",
          "name": "_timestamp",
          "type": "string"
        }
      ],
      "name": "addActivity",
      "outputs": [],
      "stateMutability": "nonpayable",
      "type": "function"
    },
    {
      "inputs": [
        {
          "internalType": "string",
          "name": "_name",
          "type": "string"
        },
        {
          "internalType": "uint256",
          "name": "_activityIdsLength",
          "type": "uint256"
        }
      ],
      "name": "addWorkflowInstance",
      "outputs": [],
      "stateMutability": "nonpayable",
      "type": "function"
    },
    {
      "inputs": [
        {
          "internalType": "address",
          "name": "",
          "type": "address"
        }
      ],
      "name": "addresses2lanes",
      "outputs": [
        {
          "internalType": "string",
          "name": "",
          "type": "string"
        }
      ],
      "stateMutability": "view",
      "type": "function"
    },
    {
      "inputs": [
        {
          "internalType": "string",
          "name": "a",
          "type": "string"
        },
        {
          "internalType": "string",
          "name": "b",
          "type": "string"
        }
      ],
      "name": "compareStrings",
      "outputs": [
        {
          "internalType": "bool",
          "name": "",
          "type": "bool"
        }
      ],
      "stateMutability": "pure",
      "type": "function"
    },
    {
      "inputs": [
        {
          "internalType": "uint256",
          "name": "num",
          "type": "uint256"
        },
        {
          "internalType": "uint256[]",
          "name": "numbers1",
          "type": "uint256[]"
        }
      ],
      "name": "exists1",
      "outputs": [
        {
          "internalType": "bool",
          "name": "",
          "type": "bool"
        }
      ],
      "stateMutability": "pure",
      "type": "function"
    },
    {
      "inputs": [
        {
          "internalType": "uint256",
          "name": "_id",
          "type": "uint256"
        }
      ],
      "name": "getActivityDataFromActivityId",
      "outputs": [
        {
          "internalType": "uint256",
          "name": "_actId",
          "type": "uint256"
        },
        {
          "internalType": "uint256",
          "name": "_type",
          "type": "uint256"
        },
        {
          "internalType": "string",
          "name": "_xmlID",
          "type": "string"
        },
        {
          "internalType": "string",
          "name": "_name",
          "type": "string"
        },
        {
          "internalType": "string",
          "name": "_dataIn",
          "type": "string"
        },
        {
          "internalType": "string",
          "name": "_dataOut",
          "type": "string"
        },
        {
          "internalType": "string",
          "name": "_lane",
          "type": "string"
        }
      ],
      "stateMutability": "view",
      "type": "function"
    },
    {
      "inputs": [
        {
          "internalType": "uint256",
          "name": "_id",
          "type": "uint256"
        }
      ],
      "name": "getActivityIdsFromWorkflow",
      "outputs": [
        {
          "internalType": "uint256[]",
          "name": "",
          "type": "uint256[]"
        }
      ],
      "stateMutability": "view",
      "type": "function"
    },
    {
      "inputs": [],
      "name": "getExecuted",
      "outputs": [
        {
          "internalType": "uint256[]",
          "name": "",
          "type": "uint256[]"
        }
      ],
      "stateMutability": "view",
      "type": "function"
    },
    {
      "inputs": [],
      "name": "getIncluded",
      "outputs": [
        {
          "internalType": "uint256[]",
          "name": "",
          "type": "uint256[]"
        }
      ],
      "stateMutability": "view",
      "type": "function"
    },
    {
      "inputs": [],
      "name": "getPending",
      "outputs": [
        {
          "internalType": "uint256[]",
          "name": "",
          "type": "uint256[]"
        }
      ],
      "stateMutability": "view",
      "type": "function"
    },
    {
      "inputs": [
        {
          "internalType": "string",
          "name": "_xmlID",
          "type": "string"
        }
      ],
      "name": "getPosFromXML",
      "outputs": [
        {
          "internalType": "uint256",
          "name": "",
          "type": "uint256"
        }
      ],
      "stateMutability": "view",
      "type": "function"
    },
    {
      "inputs": [
        {
          "internalType": "uint256",
          "name": "key",
          "type": "uint256"
        }
      ],
      "name": "isChildrenOptimNotEmpty",
      "outputs": [
        {
          "internalType": "bool",
          "name": "",
          "type": "bool"
        }
      ],
      "stateMutability": "view",
      "type": "function"
    },
    {
      "inputs": [
        {
          "internalType": "uint256",
          "name": "key",
          "type": "uint256"
        }
      ],
      "name": "isMsgInOptimNotEmpty",
      "outputs": [
        {
          "internalType": "bool",
          "name": "",
          "type": "bool"
        }
      ],
      "stateMutability": "view",
      "type": "function"
    },
    {
      "inputs": [
        {
          "internalType": "uint256",
          "name": "key",
          "type": "uint256"
        }
      ],
      "name": "isMsgOutOptimNotEmpty",
      "outputs": [
        {
          "internalType": "bool",
          "name": "",
          "type": "bool"
        }
      ],
      "stateMutability": "view",
      "type": "function"
    },
    {
      "inputs": [
        {
          "internalType": "uint256",
          "name": "key",
          "type": "uint256"
        }
      ],
      "name": "isParentOptimNotEmpty",
      "outputs": [
        {
          "internalType": "bool",
          "name": "",
          "type": "bool"
        }
      ],
      "stateMutability": "view",
      "type": "function"
    },
    {
      "inputs": [],
      "name": "killProcess",
      "outputs": [
        {
          "internalType": "uint256",
          "name": "",
          "type": "uint256"
        }
      ],
      "stateMutability": "payable",
      "type": "function"
    },
    {
      "inputs": [
        {
          "internalType": "string",
          "name": "startXML",
          "type": "string"
        },
        {
          "internalType": "string",
          "name": "triggerXML",
          "type": "string"
        }
      ],
      "name": "setActivitiesSegment",
      "outputs": [],
      "stateMutability": "nonpayable",
      "type": "function"
    },
    {
      "inputs": [
        {
          "internalType": "uint256",
          "name": "_actId",
          "type": "uint256"
        }
      ],
      "name": "updateChildren",
      "outputs": [],
      "stateMutability": "payable",
      "type": "function"
    }
  ],
  "bytecode": "0x6080604052600060085560006009553480156200001b57600080fd5b5060408051808201909152600a8152691b5e50dbdb9d1c9858dd60b21b60208201526200004a90602d62005142565b604080516105a081018252600080825260208201819052918101829052606081018290526080810182905260a0810182905260c0810182905260e081018290526101008101829052610120810182905261014081018290526001610160820181905261018082018190526101a082018190526101c08201526101e08101829052610200810182905261022081018290526102408101829052610260810182905261028081018290526102a081018290526102c081018290526102e08101829052610300810182905261032081018290526103408101829052610360810182905261038081018290526103a081018290526103c081018290526103e08101829052610400810182905261042081018290526104408101829052610460810182905261048081018290526104a081018290526104c081018290526104e081018290526105008101829052610520810182905261054081018290526105608101829052610580810191909152620001c390600a90602d62005373565b50604080516105a081018252600080825260208201819052918101829052606081018290526080810182905260a0810182905260c0810182905260e08101829052610100810182905261012081018290526101408101829052610160810182905261018081018290526101a081018290526101c081018290526101e08101829052610200810182905261022081018290526102408101829052610260810182905261028081018290526102a081018290526102c081018290526102e08101829052610300810182905261032081018290526103408101829052610360810182905261038081018290526103a081018290526103c081018290526103e08101829052610400810182905261042081018290526104408101829052610460810182905261048081018290526104a081018290526104c081018290526104e0810182905261050081018290526105208101829052610540810182905261056081018290526105808101919091526200033d90600c90602d62005373565b50604080516105a081018252600080825260208201819052918101829052606081018290526080810182905260a0810182905260c0810182905260e08101829052610100810182905261012081018290526101408101829052610160810182905261018081018290526101a081018290526101c081018290526101e08101829052610200810182905261022081018290526102408101829052610260810182905261028081018290526102a081018290526102c081018290526102e08101829052610300810182905261032081018290526103408101829052610360810182905261038081018290526103a081018290526103c081018290526103e08101829052610400810182905261042081018290526104408101829052610460810182905261048081018290526104a081018290526104c081018290526104e081018290526105008101829052610520810182905261054081018290526105608101829052610580810191909152620004b790600b90602d62005373565b5060408051606081018252600d60208083019182526c4576656e745f30616f6e616d3960981b9383019390935281526000805260039091526200051e907f3617319a054d772f909f7c479a2cebe5066e836a939412e32403c99029b92eff906001620053c8565b5060408051606081018252600d60208083019182526c22bb32b73a2f981bb8353d3d3560991b93830193909352815260008052600490915262000585907f17ef568e3e12ab5b9c7254a8d58478811de00f9e6eb34345acd53bf8fd09d3ec906001620053c8565b5062000651600060046040518060400160405280601081526020016f20b1ba34bb34ba3caf98b9b93430b33560811b81525060405180604001604052806012815260200171506f646e6f73656e6a655f7a61687465766160701b8152506040518060400160405280600781526020016614dd1d59195b9d60ca1b81525060405180602001604052806000815250604051806020016040528060008152506040518060400160405280600a8152602001691899179998979918191960b11b8152506200524060201b60201c565b60408051606081018252600f60208083019182526e476174657761795f3062616974693160881b938301939093528152600160008190526003909252620006bb917fa15bc60c955c405d20d9149c709e2460f1c2d9a497496a7f46004d1772c3054c9190620053c8565b5060408051606081018252600d60208083019182526c115d995b9d17cc1adb4dcc9899609a1b93830193909352815260016000819052600490925262000724917fabd6e7cb50984ff9c2f3e18a2660c3353dadf4e3291deeb275dae2cd1e44fe059190620053c8565b50620007fb600160046040518060400160405280601081526020016f1058dd1a5d9a5d1e57cc0dce59de8dcd60821b8152506040518060400160405280601481526020017f506f6e6f766e6f5f706f70756e6a6176616e6a650000000000000000000000008152506040518060400160405280600781526020016614dd1d59195b9d60ca1b81525060405180602001604052806000815250604051806020016040528060008152506040518060400160405280600a8152602001691899179998979918191960b11b8152506200524060201b60201c565b60408051606081018252600f60208083019182526e08ec2e8caeec2f2be62f0e062c8607608b1b9383019390935281526002600052600390915262000864907fc3a24b0501bd2c13a7e57f2db4369ec4c223447539fc0724a9d55ac4a06ebd4d906001620053c8565b5060408051606081018252600f60208083019182526e476174657761795f307838647a793160881b93830193909352815260026000526004909152620008ce907f91da3fd0782e51c6b3986e9e672fd566868e71f3dbc2d6c2cd6fbb3e361af2a7906001620053c8565b5062000996600260046040518060400160405280601081526020016f1058dd1a5d9a5d1e57cc18588c999cdd60821b8152506040518060400160405280600c81526020016b57616974696e675f74696d6560a01b81525060405180604001604052806009815260200168536c757a62656e696b60b81b81525060405180602001604052806000815250604051806020016040528060008152506040518060400160405280600a8152602001691899179998979918191960b11b8152506200524060201b60201c565b60408051606081018252600f60208083019182526e476174657761795f307838647a793160881b93830193909352815260036000819052909152620009ff907fcbc4e5fb02c3d1de23a9f1e014b4d2ee5aeaea9505df5e855c9210bf472495af906001620053c8565b5060408051606081018252600f60208083019182526e23b0ba32bbb0bcaf981c3a9ab7323760891b9383019390935281526003600052600490915262000a69907f2e174c10e159ea99b867ce3205125c24a42d128804e4070ed6fcc8cc98166aa0906001620053c8565b5062000b42600360046040518060400160405280601081526020016f41637469766974795f316c696866683560801b8152506040518060400160405280602081526020017f50726f7665726176616e6a655f6973707261766e6f7374695f7a61687465766181525060405180604001604052806009815260200168536c757a62656e696b60b81b81525060405180602001604052806000815250604051806020016040528060008152506040518060400160405280600a8152602001691899179998979918191960b11b8152506200524060201b60201c565b60408051606081018252600f60208083019182526e476174657761795f307838647a793160881b9383019390935281526004600052600390915262000bab907f83ec6a1f0257b830b5e016457c9cf1435391bf56cc98f369a58a54fe93772465906001620053c8565b5060408051606081018252600f60208083019182526e23b0ba32bbb0bcaf981c3a9ab7323760891b9383019390935281526004600081905290915262000c15907f1a1e6821cde7d0159c0d293177871e09677b4e42307c7db3ba94f8648a5a050f906001620053c8565b5062000ced6004806040518060400160405280601081526020016f41637469766974795f30313468396f3160801b8152506040518060400160405280601e81526020017f50726f7665726176616e6a655f706f646174616b615f73747564656e7461000081525060405180604001604052806009815260200168536c757a62656e696b60b81b81525060405180602001604052806000815250604051806020016040528060008152506040518060400160405280600a8152602001691899179998979918191960b11b8152506200524060201b60201c565b60408051606081018252600f60208083019182526e476174657761795f31777a76306e3760881b9383019390935281526005600052600390915262000d56907f405aad32e1adbac89bb7f176e338b8fc6e994ca210c9bb7bdca249b465942250906001620053c8565b5060408051606081018252600f60208083019182526e08ec2e8caeec2f2be62f0e062c8607608b1b9383019390935281526005600052600490915262000dc0907f04cde762ef08b6b6c5ded8e8c4c0b3f4e5c9ad7342c88fcc93681b4588b73f05906001620053c8565b5062000e7e600560046040518060400160405280601081526020016f41637469766974795f31366d666c797760801b815250604051806040016040528060028152602001616e6560f01b81525060405180604001604052806009815260200168536c757a62656e696b60b81b81525060405180602001604052806000815250604051806020016040528060008152506040518060400160405280600a8152602001691899179998979918191960b11b8152506200524060201b60201c565b60408051606081018252600f60208083019182526e23b0ba32bbb0bcaf983a39b33719b160891b9383019390935281526006600052600390915262000ee7907fc69056f16cbaa3c616b828e333ab7d3a32310765507f8f58359e99ebb7a885f3906001620053c8565b5060408051606081018252600d60208083019182526c08aeccadce8be62e2c46862f0f609b1b9383019390935281526006600052600490915262000f4f907fc59312466997bb42aaaf719ece141047820e6b34531e1670dc1852a453648f0f906001620053c8565b5062001028600660046040518060400160405280601081526020016f41637469766974795f316a6e3873763360801b8152506040518060400160405280601581526020017f4b6f6d706c65746972616e6a655f7a616874657661000000000000000000000081525060405180604001604052806009815260200168536c757a62656e696b60b81b81525060405180602001604052806000815250604051806020016040528060008152506040518060400160405280600a8152602001691899179998979918191960b11b8152506200524060201b60201c565b60408051606081018252600f60208083019182526e23b0ba32bbb0bcaf983a39b33719b160891b9383019390935281526007600052600390915262001091907ff2c49132ed1cee2a7e75bde50d332a2f81f1d01e5456d8a19d1df09bd561dbd2906001620053c8565b5060408051606081018252600f60208083019182526e476174657761795f31777a76306e3760881b93830193909352815260076000526004909152620010fb907fbeb3bad75134cb432e5707980e3245c52c5998a1125ee30f2f0dbf3925b1e551906001620053c8565b50620011b9600760046040518060400160405280601081526020016f41637469766974795f3164726934713360801b81525060405180604001604052806002815260200161646160f01b81525060405180604001604052806009815260200168536c757a62656e696b60b81b81525060405180602001604052806000815250604051806020016040528060008152506040518060400160405280600a8152602001691899179998979918191960b11b8152506200524060201b60201c565b60408051606081018252600f60208083019182526e476174657761795f306f796e38376560881b9383019390935281526008600052600390915262001222907f85aaa47b6dc46495bb8824fad4583769726fea36efd831a35556690b830a8fbe906001620053c8565b5060408051606081018252600d60208083019182526c115d995b9d17cc5c5a1cd9da0d609a1b938301939093528152600860005260049091526200128a907f2645749a946633740611cfc8178319f0958659d6922e4bf7e3a08b44789f53a4906001620053c8565b5062001362600860046040518060400160405280601081526020016f082c6e8d2ecd2e8f2be60dcd6c8d6ccf60831b8152506040518060400160405280601581526020017f50726f7665726176616e6a655f706f646174616b6100000000000000000000008152506040518060400160405280600881526020016726b2b730b23d32b960c11b81525060405180602001604052806000815250604051806020016040528060008152506040518060400160405280600a8152602001691899179998979918191960b11b8152506200524060201b60201c565b60408051606081018252600d60208083019182526c4576656e745f3132797838697160981b93830193909352815260096000526003909152620013c9907f8a8dc4e5242ea8b1ab1d60606dae757e6c2cca9f92a2cced9f72c19960bcb458906001620053c8565b5060408051606081018252600f60208083019182526e476174657761795f306f796e38376560881b9383019390935281526009600052600490915262001433907f4ad5a04d53b5856f318545bb721f67d3f6d0a5a999f25eec7e20eaeb4c47b933906001620053c8565b50620014fa600960046040518060400160405280601081526020016f41637469766974795f31636f6474686d60801b8152506040518060400160405280600c81526020016b506f747069736976616e6a6560a01b8152506040518060400160405280600881526020016726b2b730b23d32b960c11b81525060405180602001604052806000815250604051806020016040528060008152506040518060400160405280600a8152602001691899179998979918191960b11b8152506200524060201b60201c565b60408051606081018252600d60208083019182526c4576656e745f3131636269393360981b938301939093528152600a600052600390915262001561907f9dcb9783ba5cd0b54745f65f4f918525e461e91888c334e5342cb380ac558d53906001620053c8565b5060408051606081018252600d60208083019182526c115d995b9d17cc595b0c8dd91d609a1b938301939093528152600a6000526004909152620015c9907f5c6b02db8b672415ffad906d7ccee10bd53dbad7d0b29e2bc0e50c93d5f31093906001620053c8565b5062001694600a60046040518060400160405280601081526020016f20b1ba34bb34ba3caf98b0b43437983360811b8152506040518060400160405280600c81526020016b497a7261646a6976616e6a6560a01b81525060405180604001604052806018815260200160008051602062008b0783398151915281525060405180602001604052806000815250604051806020016040528060008152506040518060400160405280600a8152602001691899179998979918191960b11b8152506200524060201b60201c565b60408051606081018252601060208083019182526f20b1ba34bb34ba3caf98b9b93430b33560811b938301939093528152600b6000526003909152620016fe907f2d72af3c1b2b2956e6f694fb741556d5ca9524373974378cdbec16afa8b84164906001620053c8565b50620017ac600b60006040518060400160405280600d81526020016c22bb32b73a2f981bb8353d3d3560991b815250604051806020016040528060008152506040518060400160405280600781526020016614dd1d59195b9d60ca1b81525060405180602001604052806000815250604051806020016040528060008152506040518060400160405280600a8152602001691899179998979918191960b11b8152506200524060201b60201c565b60408051606081018252600f60208083019182526e23b0ba32bbb0bcaf981c3a9ab7323760891b938301939093528152600c600052600390915262001815907fd56a60595ebefebed7f22dcee6c2acc61b06cf8c68e84c88677840365d1ff92b906001620053c8565b5060408051606081018252600d60208083019182526c4576656e745f30616f6e616d3960981b938301939093528152600c60005260059091526200187d907ff907e7e6656fa73566b18c1215272fe9fca2c55c552e62c923e21e000ac4b4e6906001620053c8565b5062001945600c60006040518060400160405280600d81526020016c4576656e745f3161696c68723560981b8152506040518060400160405280600f81526020016e283934b6b63532b7103d30b43a32bb60891b81525060405180604001604052806009815260200168536c757a62656e696b60b81b81525060405180602001604052806000815250604051806020016040528060008152506040518060400160405280600a8152602001691899179998979918191960b11b8152506200524060201b60201c565b60408051606081018252601060208083019182526f082c6e8d2ecd2e8f2be60dcd6c8d6ccf60831b938301939093528152600d6000526003909152620019af907fa8f2d96126c6d0ad63adabaef7bf5cf47f163fb0c218a473d28f62312d197bcf906001620053c8565b5060408051606081018252600d60208083018281526c4576656e745f3063653138333360981b94840194909452928252600052600590915262001a16907f03145c75015e7a856ecd94c41432ef3cb669d6360af23433588937fefdfac825906001620053c8565b5062001add600d60006040518060400160405280600d81526020016c115d995b9d17cc5c5a1cd9da0d609a1b8152506040518060400160405280600f81526020016e283934b6b63532b7103d30b43a32bb60891b8152506040518060400160405280600881526020016726b2b730b23d32b960c11b81525060405180602001604052806000815250604051806020016040528060008152506040518060400160405280600a8152602001691899179998979918191960b11b8152506200524060201b60201c565b60408051606081018252601060208083019182526f20b1ba34bb34ba3caf98b0b43437983360811b938301939093528152600e600052600390915262001b47907fd6ebcc64c739277b117ce359e436534b234b76e914c80ad276abf5b562078939906001620053c8565b5060408051606081018252600d60208083019182526c4576656e745f3132797838697160981b938301939093528152600e600052600590915262001baf907f783638979e3582b3ffd6d53fc06c949ac31d1ac75a5e2c3531fbe1f91045eb53906001620053c8565b5062001c88600e60006040518060400160405280600d81526020016c115d995b9d17cc595b0c8dd91d609a1b8152506040518060400160405280601a81526020017f5072696d6c6a656e207a6168746576207a6120697a726164756100000000000081525060405180604001604052806018815260200160008051602062008b0783398151915281525060405180602001604052806000815250604051806020016040528060008152506040518060400160405280600a8152602001691899179998979918191960b11b8152506200524060201b60201c565b60408051606081018252600f60208083018281526e476174657761795f3062616974693160881b94840194909452928252600052600390915262001cf0907ff60b7f6a315ec68a6ac240e69dca53652b38627f709a2caa217d9e18af4d7a60906001620053c8565b5060408051606081018252601060208083019182526f20b1ba34bb34ba3caf98b9b93430b33560811b938301939093528152600f600052600490915262001d5b907f66b61daf77b854ca6ba000a8d4b340eafcdb71b6583753b4af89fceb54988fff906001620053c8565b5060408051606081018252600d60208083019182526c4576656e745f3161696c68723560981b938301939093528152600f600052600690915262001dc3907ff130046d53bc87538ab17e4752ba5f5082985eecc06ccb932c5a55e8242dd502906001620053c8565b5062001e80600f60036040518060400160405280600d81526020016c4576656e745f30616f6e616d3960981b815250604051806040016040528060068152602001652d30b43a32bb60d11b8152506040518060400160405280600781526020016614dd1d59195b9d60ca1b81525060405180602001604052806000815250604051806020016040528060008152506040518060400160405280600a8152602001691899179998979918191960b11b8152506200524060201b60201c565b60408051606081018252601060208083018281526f1058dd1a5d9a5d1e57cc0dce59de8dcd60821b94840194909452928252600052600390915262001ee9907f47d4745e02b343689a5e7ac121d2a352b7a15c10328a8759fd7d4cf0999002bb906001620053c8565b5060408051606081018252600d60208083019182526c4576656e745f306e387573787360981b9383019390935281526010600052600490915262001f51907f4a597304b2df0a7a7b428b3c24c35ba6373aabebf9972387f5610f74a01b21bd906001620053c8565b5060408051606081018252600d60208083019182526c08aeccadce8be62e2c46862f0f609b1b9383019390935281526010600052600690915262001fb9907f6fac4587033fa036e2426ad0134940d3a683633cc2b2b7862f39195344f163d1906001620053c8565b5062002074601060036040518060400160405280600d81526020016c115d995b9d17cc1adb4dcc9899609a1b815250604051806040016040528060048152602001631cd95b9960e21b8152506040518060400160405280600781526020016614dd1d59195b9d60ca1b81525060405180602001604052806000815250604051806020016040528060008152506040518060400160405280600a8152602001691899179998979918191960b11b8152506200524060201b60201c565b60408051606081018252600f60208083019182526e08ec2e8caeec2f2be62f0e062c8607608b1b93830193909352815260116000526004909152620020dd907fac375bcb880242328180c23d4a918023a12a7caf7cf12b8c4074e4a3f39900a0906001620053c8565b5060408051606081018252600d60208083019182526c115d995b9d17cc1d1a595cd9cd609a1b9383019390935281526011600052600690915262002145907f84a4048ee77615560f9afb39551a46e123dd0dd6c928af241dc565271d032569906001620053c8565b50620021ff601160036040518060400160405280600d81526020016c08aeccadce8be62d872c46edc7609b1b81525060405180606001604052806035815260200162008ad26035913960405180604001604052806009815260200168536c757a62656e696b60b81b81525060405180602001604052806000815250604051806020016040528060008152506040518060400160405280600a8152602001691899179998979918191960b11b8152506200524060201b60201c565b60408051606081018252600d60208083019182526c08aeccadce8be62e2c46862f0f609b1b9383019390935281526012600052600390915262002266907f6a2b6bffaca788160f671fa62d34758b717f75a90ad5a468757c50d61f33c443906001620053c8565b5060408051606081018252600f60208083019182526e476174657761795f31777a76306e3760881b93830193909352815260126000526004909152620022d0907f7f6fa3f34639ea1891363ca773619dbd5f652d7ab50411111dde2f57e3ae13ad906001620053c8565b5060408051606081018252600d60208083019182526c4576656e745f306e387573787360981b9383019390935281526012600052600690915262002338907fee4750d043edce57577a49a1f0c4b389e3b8c38c27dc693bc6b7154c07280771906001620053c8565b50620023f2601260036040518060400160405280600d81526020016c115d995b9d17cc0d8d8d5b9e9d609a1b81525060405180606001604052806026815260200162008aac6026913960405180604001604052806009815260200168536c757a62656e696b60b81b81525060405180602001604052806000815250604051806020016040528060008152506040518060400160405280600a8152602001691899179998979918191960b11b8152506200524060201b60201c565b60408051606081018252600f60208083019182526e476174657761795f303168726a706d60881b938301939093528152601360005260039091526200245b907f8a8166be5f30abeb6c91ee2f07eeb0b2eb14b4d59534d10a1c143964bd617919906001620053c8565b5060408051606081018252600f60208083019182526e23b0ba32bbb0bcaf983a39b33719b160891b93830193909352815260136000526004909152620024c5907f9bbf2ad10217b6212df1939350a047a69b6887b770020d3fa8c328c0653ee987906001620053c8565b5060408051606081018252600d60208083019182526c115d995b9d17cc5c5a1cd9da0d609a1b938301939093528152601360005260069091526200252d907fb72a5233413dd9985e70abb239a7ba917e489fbf2ece87f523c6e26971cc821f906001620053c8565b5062002603601360036040518060400160405280600d81526020016c4576656e745f3063653138333360981b8152506040518060400160405280601781526020017f506f736c6174207a6168746576206d656e61647a65727500000000000000000081525060405180604001604052806009815260200168536c757a62656e696b60b81b81525060405180602001604052806000815250604051806020016040528060008152506040518060400160405280600a8152602001691899179998979918191960b11b8152506200524060201b60201c565b60408051606081018252600d60208083019182526c22bb32b73a2f98b39abbba37b160991b938301939093528152601460005260049091526200266a907ff7deed9399d719bf61dcb1322c056a03a885c275ab093673b0cc182b84bea061906001620053c8565b5060408051606081018252600d60208083019182526c22bb32b73a2f9831b9b7b1b3bb60991b93830193909352815260146000526006909152620026d2907f098d468efb4f874d617491296c759dc9ae46efb517fe36bcf30699ad3f714c0f906001620053c8565b50620027a8601460036040518060400160405280600d81526020016c08aeccadce8be62da6ad4eed0d609b1b8152506040518060400160405280601981526020017f506f736c61746f206f626176657374656e6a65206f202e2e2e0000000000000081525060405180604001604052806009815260200168536c757a62656e696b60b81b81525060405180602001604052806000815250604051806020016040528060008152506040518060400160405280600a8152602001691899179998979918191960b11b8152506200524060201b60201c565b60408051606081018252600d60208083019182526c04576656e745f3035776e76717609c1b938301939093528152601560005260049091526200280f907f1bb30a1647f6f6723cb3a88838ce0319afabe51263fc466f2f669a7a24ad88c6906001620053c8565b5060408051606081018252600d60208083019182526c04576656e745f3030776b35743609c1b9383019390935281526015600052600690915262002877907feda6feebfb4ffb7de2d0dc45a13b92dc953c2ed6ee96fa7fe8179e7c4266747f906001620053c8565b5062002931601560036040518060400160405280600d81526020016c4576656e745f3069697735643360981b81525060405180606001604052806028815260200162008a846028913960405180604001604052806009815260200168536c757a62656e696b60b81b81525060405180602001604052806000815250604051806020016040528060008152506040518060400160405280600a8152602001691899179998979918191960b11b8152506200524060201b60201c565b60408051606081018252600d60208083019182526c4576656e745f303977386b643360981b9383019390935281526016600052600390915262002998907f370c8c7c6215b209793aa720f65163fbeecd5f5114008532ba0649ee23405402906001620053c8565b5060408051606081018252601060208083019182526f41637469766974795f31636f6474686d60801b9383019390935281526016600052600490915262002a03907f87e655ef16e4075af30c6a90c2b439f7dcd2d83a606dafadaee10cffaf918132906001620053c8565b5060408051606081018252600d60208083019182526c115d995b9d17cc595b0c8dd91d609a1b9383019390935281526016600052600690915262002a6b907f7d35cc2b0520994422695eb24e3bf4f74e9cba2704cae72ecd9ec54409a56afb906001620053c8565b5062002b40601660036040518060400160405280600d81526020016c4576656e745f3132797838697160981b8152506040518060400160405280601781526020017f506f736c6174207a6168746576207a6120697a726164750000000000000000008152506040518060400160405280600881526020016726b2b730b23d32b960c11b81525060405180602001604052806000815250604051806020016040528060008152506040518060400160405280600a8152602001691899179998979918191960b11b8152506200524060201b60201c565b60408051606081018252600d60208083019182526c22bb32b73a2f989b3ab9379b3560991b9383019390935281526017600052600390915262002ba7907f0f0519a40093d7edad68f12e2ec868fdf92a03df1cbec3e035c987d6b218f2f4906001620053c8565b5060408051606081018252600f60208083019182526e476174657761795f3062616974693160881b9383019390935281526017600052600490915262002c11907fff624574ceefb6578b3887a7448cf2ca4d120002f646987b0a9b9ad3f6dc2c10906001620053c8565b5060408051606081018252600d60208083019182526c08aeccadce8be62d872c46edc7609b1b9383019390935281526017600052600590915262002c79907f1759eeb783be12e6871ee15567296c25cea65699ad38e9965540ba6254a9037f906001620053c8565b5062002d31601760036040518060400160405280600d81526020016c115d995b9d17cc1d1a595cd9cd609a1b8152506040518060600160405280602e815260200162008b27602e91396040518060400160405280600781526020016614dd1d59195b9d60ca1b81525060405180602001604052806000815250604051806020016040528060008152506040518060400160405280600a8152602001691899179998979918191960b11b8152506200524060201b60201c565b60408051606081018252600d60208083019182526c115d995b9d17cc1adb4dcc9899609a1b9383019390935281526018600052600390915262002d98907fa3ddc4e8d053be09ec661eb04964a206cbd921c2c11fc03088857923bed1485a906001620053c8565b5060408051606081018252600d60208083019182526c115d995b9d17cc0d8d8d5b9e9d609a1b9383019390935281526018600052600590915262002e00907f5cc25df4297f13907c2e8c8bb7612ac7d899f1e24c7e8664c22a89192ac286a7906001620053c8565b5062002eb8601860036040518060400160405280600d81526020016c4576656e745f306e387573787360981b81525060405180606001604052806029815260200162008b55602991396040518060400160405280600781526020016614dd1d59195b9d60ca1b81525060405180602001604052806000815250604051806020016040528060008152506040518060400160405280600a8152602001691899179998979918191960b11b8152506200524060201b60201c565b60408051606081018252600d60208083019182526c4576656e745f306f366969653760981b9383019390935281526019600052600390915262002f1f907fad96411afed98a37aa585ce71717b0782fa4bee47da09d8f483e532128238611906001620053c8565b5060408051606081018252600f60208083019182526e476174657761795f3062616974693160881b9383019390935281526019600052600490915262002f89907feb5726be0cc40daa58a5f8f81528465ddb0c35e1e56e157eca916d69d6c34324906001620053c8565b5060408051606081018252600d60208083019182526c4576656e745f3069697735643360981b9383019390935281526019600052600590915262002ff1907fae2f6b16f0e0ac80673d6caef460ba44e001264158bf422be5bc239018ccc677906001620053c8565b50620030a9601960036040518060400160405280600d81526020016c04576656e745f3030776b35743609c1b81525060405180606001604052806030815260200162008b7e603091396040518060400160405280600781526020016614dd1d59195b9d60ca1b81525060405180602001604052806000815250604051806020016040528060008152506040518060400160405280600a8152602001691899179998979918191960b11b8152506200524060201b60201c565b60408051606081018252600d60208083019182526c115d995b9d17cc0e588d189c9d609a1b938301939093528152601a600052600390915262003110907f68fc0e82119a780903c8e97d959a36d433d1e401ad7b7a461ff2087e524d54a8906001620053c8565b5060408051606081018252600f60208083019182526e476174657761795f3062616974693160881b938301939093528152601a60005260049091526200317a907ff6eb4279aa452568dd287204244d7e29d7ca1bc7a01440f08342bf2599f4b9b6906001620053c8565b5060408051606081018252600d60208083019182526c08aeccadce8be62da6ad4eed0d609b1b938301939093528152601a6000526005909152620031e2907fce1f324a8a5d5daa4a6b2281780ab321637fd4089413dd89c573bbf705027cb9906001620053c8565b50620032b6601a60036040518060400160405280600d81526020016c22bb32b73a2f9831b9b7b1b3bb60991b8152506040518060400160405280601a81526020017f5072696d6c6a656e6f206f626176657374656e6a65206f2e2e2e0000000000008152506040518060400160405280600781526020016614dd1d59195b9d60ca1b81525060405180602001604052806000815250604051806020016040528060008152506040518060400160405280600a8152602001691899179998979918191960b11b8152506200524060201b60201c565b60408051606081018252601060208083019182526f41637469766974795f316a6e3873763360801b938301939093528152601b600052600390915262003320907f925be0b447003e4366d6addf976a9e5448b14e56ca3733fe4a9ca6f86b0dcbd5906001620053c8565b5060408051606081018252600d60208083019182526c115d995b9d17cc0d8d8d5b9e9d609a1b938301939093528152601b600052600490915262003388907fd8906b3e50614809ec86d7bb29bf3c4e8647f5376e87f81687a4a770137f7d59906001620053c8565b5060408051606081018252600d60208083019182526c115d995b9d17cc1adb4dcc9899609a1b938301939093528152601b6000526005909152620033f0907f2c8eed490e2e8e94ab99e89b6202d0db22c83d972d2b78b681fe35c98d2baa33906001620053c8565b50620034c6601b60036040518060400160405280600d81526020016c08aeccadce8be62e2c46862f0f609b1b8152506040518060400160405280601f81526020017f5072696d6c6a656e20706f6e6f766f20706f70756e6a656e207a61687465760081525060405180604001604052806009815260200168536c757a62656e696b60b81b81525060405180602001604052806000815250604051806020016040528060008152506040518060400160405280600a8152602001691899179998979918191960b11b8152506200524060201b60201c565b60408051606081018252600d60208083019182526c08aeccadce8be62da6ad4eed0d609b1b938301939093528152601c60005260039091526200352d907f57023ef7fe58b878582140ea36f22723905ad724896eaf74090fba76c229bd22906001620053c8565b5060408051606081018252600f60208083019182526e476174657761795f303168726a706d60881b938301939093528152601c600052600490915262003597907f69bc8c08a6b955aec2072ca430bac7123bc3539264a736d1a23621b0f0c62f31906001620053c8565b5060408051606081018252600d60208083019182526c22bb32b73a2f989abbb8b6323d60991b938301939093528152601c6000526005909152620035ff907f66eeecffab615cf4c69d47d3aa51576e95b697767264fa754ea36f4e363ea193906001620053c8565b50620036d5601c60036040518060400160405280600d81526020016c22bb32b73a2f98b39abbba37b160991b8152506040518060400160405280601a81526020017f5072696d6c6a656e6f206f626176657374656e6a65206f2e2e2e00000000000081525060405180604001604052806009815260200168536c757a62656e696b60b81b81525060405180602001604052806000815250604051806020016040528060008152506040518060400160405280600a8152602001691899179998979918191960b11b8152506200524060201b60201c565b60408051606081018252600d60208083019182526c4576656e745f3069697735643360981b938301939093528152601d60005260039091526200373c907f4ba0d371c59a4c8176901cb7799ecdd8b41b974be3a1349b5d0a9ff9aaa230d9906001620053c8565b5060408051606081018252600f60208083019182526e476174657761795f303168726a706d60881b938301939093528152601d6000526004909152620037a6907f547911337f50119fe7598b1be3fa84d3d0506ffe5c730db17c43bc74040bbfce906001620053c8565b5060408051606081018252600d60208083019182526c115d995b9d17cc0d1d1b0dcc9b609a1b938301939093528152601d60005260059091526200380e907f348e8fe0716b12afdd2e814ae0b8b1bb9b5c7a197ef418c73b8bdd93bee14de5906001620053c8565b50620038d8601d60036040518060400160405280600d81526020016c04576656e745f3035776e76717609c1b815250604051806040016040528060118152602001705072696d6c6a656e61206b61727469636160781b81525060405180604001604052806009815260200168536c757a62656e696b60b81b81525060405180602001604052806000815250604051806020016040528060008152506040518060400160405280600a8152602001691899179998979918191960b11b8152506200524060201b60201c565b60408051606081018252600d60208083019182526c115d995b9d17cc0d1d1b0dcc9b609a1b938301939093528152601e60005260039091526200393f907f6117fee2f1274e1b392d2c3fe842478040a980d896757f38cbfe2ceebfa9f55f906001620053c8565b5060408051606081018252600d60208083019182526c4576656e745f3132797838697160981b938301939093528152601e6000526004909152620039a7907f9041ee6632bd2142b9cc58f348e0761559f8d964fe48ac6d87dc2b689213e3bb906001620053c8565b5060408051606081018252600d60208083019182526c4576656e745f3131636269393360981b938301939093528152601e600052600590915262003a0f907f3fb1f8b5b572f385df2ff517fa4200d6781fd017f742a2f073e874e0dca7758b906001620053c8565b5062003ad8601e60036040518060400160405280600d81526020016c4576656e745f303977386b643360981b815250604051806040016040528060118152602001705072696d6c6a656e61206b61727469636160781b8152506040518060400160405280600881526020016726b2b730b23d32b960c11b81525060405180602001604052806000815250604051806020016040528060008152506040518060400160405280600a8152602001691899179998979918191960b11b8152506200524060201b60201c565b60408051606081018252600d60208083019182526c115d995b9d17cc1d1a595cd9cd609a1b938301939093528152601f600052600490915262003b3f907f4c55bec45be59a99d441ccb7880f9b68f316b687ab5ac77efc4386a807007768906001620053c8565b5062003bf7601f60016040518060400160405280600d81526020016c22bb32b73a2f989b3ab9379b3560991b81525060405180606001604052806022815260200162008bae602291396040518060400160405280600781526020016614dd1d59195b9d60ca1b81525060405180602001604052806000815250604051806020016040528060008152506040518060400160405280600a8152602001691899179998979918191960b11b8152506200524060201b60201c565b60408051606081018252600d60208083019182526c04576656e745f3030776b35743609c1b9383019390935281526000829052600490915262003c5e907f96648185182926add89ee4d5c354d3f3e8383a8966d4d875bd8575e13aa27a96906001620053c8565b5062003d32602060016040518060400160405280600d81526020016c4576656e745f306f366969653760981b8152506040518060400160405280601d81526020017f4b72616a2075736c6564206f646c61736b6120706f206b6172746963750000008152506040518060400160405280600781526020016614dd1d59195b9d60ca1b81525060405180602001604052806000815250604051806020016040528060008152506040518060400160405280600a8152602001691899179998979918191960b11b8152506200524060201b60201c565b60408051606081018252600d60208083019182526c22bb32b73a2f9831b9b7b1b3bb60991b9383019390935281526021600052600490915262003d99907f1a6a7f21c46330bc6f6a1e986d3ef56bc7833cc3006bfde177cce9f142837659906001620053c8565b5062003e5d602160016040518060400160405280600d81526020016c115d995b9d17cc0e588d189c9d609a1b8152506040518060400160405280600d81526020016c25b930b5103ab9b632b217171760991b8152506040518060400160405280600781526020016614dd1d59195b9d60ca1b81525060405180602001604052806000815250604051806020016040528060008152506040518060400160405280600a8152602001691899179998979918191960b11b8152506200524060201b60201c565b60408051606081018252600f60208083019182526e476174657761795f306f796e38376560881b9383019390935281526022600052600490915262003ec6907f7817f7889f42986426820e39b6be36471d2facb3b03609d32089206107cd0e8a906001620053c8565b5060408051606081018252600d60208083019182526c22bb32b73a2f98b39abbba37b160991b9383019390935281526022600052600690915262003f2e907f08af5381260e66889371782fbe46d40aca6dd5be0ae554320299edbbb452ab6d906001620053c8565b5062003fe7602260016040518060400160405280600d81526020016c22bb32b73a2f989abbb8b6323d60991b81525060405180606001604052806027815260200162008bd0602791396040518060400160405280600881526020016726b2b730b23d32b960c11b81525060405180602001604052806000815250604051806020016040528060008152506040518060400160405280600a8152602001691899179998979918191960b11b8152506200524060201b60201c565b60408051606081018252600d60208083019182526c4576656e745f303977386b643360981b938301939093528152602360005260049091526200404e907fb91c9b6e3cf94511f58867e361a9e0dd6a5c84a5d216d6f87ae5fdb9bf257b2b906001620053c8565b5060408051606081018252600d60208083019182526c04576656e745f3035776e76717609c1b93830193909352815260236000526006909152620040b6907fe48df43c9c2e40abe481a46147d0b2adbaf395b9b6d89ca6749a6ecefa692f3e906001620053c8565b506200418b602360016040518060400160405280600d81526020016c115d995b9d17cc0d1d1b0dcc9b609a1b8152506040518060400160405280601a81526020017f506f736c617461206b61727469636120736c757a62656e696b750000000000008152506040518060400160405280600881526020016726b2b730b23d32b960c11b81525060405180602001604052806000815250604051806020016040528060008152506040518060400160405280600a8152602001691899179998979918191960b11b8152506200524060201b60201c565b60408051606081018252601060208083019182526f20b1ba34bb34ba3caf98b0b43437983360811b93830193909352815260246000526004909152620041f5907f724ad3d24f57aae4bebead5383879105ce62b9d5fa67d4343ae412b59bd7971d906001620053c8565b5060408051606081018252600d60208083019182526c4576656e745f303977386b643360981b938301939093528152602460005260069091526200425d907f1db7b1394727b4ec83580f945ddf3bdf76fcb71f6c6109779c749ee7ec003004906001620053c8565b5062004336602460016040518060400160405280600d81526020016c4576656e745f3131636269393360981b8152506040518060400160405280601981526020017f506f736c617461206b617274696361206d656e61647a6572750000000000000081525060405180604001604052806018815260200160008051602062008b0783398151915281525060405180602001604052806000815250604051806020016040528060008152506040518060400160405280600a8152602001691899179998979918191960b11b8152506200524060201b60201c565b6040805160a081018252600d606082018181526c115d995b9d17cc1d1a595cd9cd609a1b60808401528252825180840184528181526c22bb32b73a2f9831b9b7b1b3bb60991b60208281019190915280840191909152835180850185529182526c04576656e745f3030776b35743609c1b82820152928201526025600052600391829052620043e8917f37e56e4c2b6ed73b31a7a63e641bfee67245b50921806a650aa65bb58a213ba7919062005421565b5060408051608081018252600d8183019081526c4576656e745f30616f6e616d3960981b606083015281528151808301909252601082526f1058dd1a5d9a5d1e57cc0dce59de8dcd60821b60208381019190915280820192909252602560005260049091526200447c907f2b9c662716c34a6b24cd9b4f63fe731a136a5a3399a9750ed5cdee99e40faa3a9060026200546c565b506200452c602560056040518060400160405280600f81526020016e476174657761795f3062616974693160881b815250604051806020016040528060008152506040518060400160405280600781526020016614dd1d59195b9d60ca1b81525060405180602001604052806000815250604051806020016040528060008152506040518060400160405280600a8152602001691899179998979918191960b11b8152506200524060201b60201c565b60408051608081018252600d8183019081526c08aeccadce8be62d872c46edc7609b1b606083015281528151808301909252601082526f41637469766974795f31366d666c797760801b6020838101919091528082019290925260266000526003909152620045bf907f6e80044b428a86ddb5f7277680f16ac528219bbc3f477f367a023fd1680fef059060026200546c565b5060408051606081018252601060208083019182526f1058dd1a5d9a5d1e57cc18588c999cdd60821b938301939093528152602660005260049091526200462a907ff8f9fbe49577efd32b3647a88078df070961ceaa913763423b34eeb65953041b906001620053c8565b50620046dc602660056040518060400160405280600f81526020016e08ec2e8caeec2f2be62f0e062c8607608b1b8152506040518060200160405280600081525060405180604001604052806009815260200168536c757a62656e696b60b81b81525060405180602001604052806000815250604051806020016040528060008152506040518060400160405280600a8152602001691899179998979918191960b11b8152506200524060201b60201c565b60408051608081018252600d8183019081526c115d995b9d17cc0d8d8d5b9e9d609a1b606083015281528151808301909252601082526f41637469766974795f3164726934713360801b60208381019190915280820192909252602760005260039091526200476f907f10f3a17841c6d818ccbb16e4596978865bb77ba586b583c9de26b166e55de8649060026200546c565b5060408051606081018252601060208083019182526f41637469766974795f31366d666c797760801b93830193909352815260276000526004909152620047da907faaded8c7cb956d25d285cba29213c176ec5fc32f3996cb04804f6c9dc496ea72906001620053c8565b50620048b2602760056040518060400160405280600f81526020016e476174657761795f31777a76306e3760881b8152506040518060400160405280601b81526020017f5b4461204a616e6520446f6520646f62726f20706f70756e696f3f000000000081525060405180604001604052806009815260200168536c757a62656e696b60b81b81525060405180602001604052806000815250604051806020016040528060008152506040518060400160405280600a8152602001691899179998979918191960b11b8152506200524060201b60201c565b60408051606081018252600d60208083019182526c4576656e745f3063653138333360981b9383019390935281526028600052600390915262004919907ff787d5ff306ee7ea1d7b35b5cacd5a837646921c113945dbc3a3b6329ce40033906001620053c8565b506040805160808101825260108183018181526f41637469766974795f3164726934713360801b60608401528252825180840190935282526f41637469766974795f316a6e3873763360801b6020838101919091528082019290925260286000526004909152620049ae907f2b634da6ab875d88498f503820d9b51f6eb10d3d2f378c32aef2289b509f3def9060026200546c565b5062004a60602860056040518060400160405280600f81526020016e23b0ba32bbb0bcaf983a39b33719b160891b8152506040518060200160405280600081525060405180604001604052806009815260200168536c757a62656e696b60b81b81525060405180602001604052806000815250604051806020016040528060008152506040518060400160405280600a8152602001691899179998979918191960b11b8152506200524060201b60201c565b60408051608081018252600d8183018181526c22bb32b73a2f98b39abbba37b160991b60608401528252825180840190935282526c04576656e745f3035776e76717609c1b602083810191909152808201929092526029600052600390915262004aee907fa6d60d4ff1c38ae572157a43d1b8579039e4b4cc96e22c75c07379751785fe519060026200546c565b5060408051606081018252600d60208083019182526c4576656e745f3063653138333360981b9383019390935281526029600052600490915262004b56907fda151e1f1eb9b837d3da35d08f1188bdcb6e944aa00ae0cc2fa12060555d939b906001620053c8565b5062004c08602960056040518060400160405280600f81526020016e476174657761795f303168726a706d60881b8152506040518060200160405280600081525060405180604001604052806009815260200168536c757a62656e696b60b81b81525060405180602001604052806000815250604051806020016040528060008152506040518060400160405280600a8152602001691899179998979918191960b11b8152506200524060201b60201c565b60408051608081018252600d8183019081526c22bb32b73a2f989abbb8b6323d60991b606083015281528151808301909252601082526f41637469766974795f31636f6474686d60801b60208381019190915280820192909252602a600052600390915262004c9b907ffbefd6df65b5da21e9f0dc3da2df6dc37be71551086f5aba2b0ad548c47581509060026200546c565b5060408051606081018252601060208083019182526f082c6e8d2ecd2e8f2be60dcd6c8d6ccf60831b938301939093528152602a600052600490915262004d06907f4045736e0d6732881e3d4bd60e2ea0771cee9b1fc6c317a33475d710474b9adc906001620053c8565b5062004ddd602a60056040518060400160405280600f81526020016e476174657761795f306f796e38376560881b8152506040518060400160405280601881526020017f5b4461204a616e6520446f6520737665207520726564753f00000000000000008152506040518060400160405280600881526020016726b2b730b23d32b960c11b81525060405180602001604052806000815250604051806020016040528060008152506040518060400160405280600a8152602001691899179998979918191960b11b8152506200524060201b60201c565b60408051606081018252601060208083019182526f1058dd1a5d9a5d1e57cc18588c999cdd60821b938301939093528152602b600052600390915262004e47907f47bd603b2672149df187087e649a417345c22ebc601af252344b2472b5a5fea8906001620053c8565b506040805160808101825260108183018181526f41637469766974795f30313468396f3160801b60608401528252825180840190935282526f41637469766974795f316c696866683560801b60208381019190915280820192909252602b600052600490915262004edc907f90cda500e35aaf03a1a434c6c35e405898eb7e8c3b95c3a697cd23106146040e9060026200546c565b5062004f8e602b60066040518060400160405280600f81526020016e476174657761795f307838647a793160881b8152506040518060200160405280600081525060405180604001604052806009815260200168536c757a62656e696b60b81b81525060405180602001604052806000815250604051806020016040528060008152506040518060400160405280600a8152602001691899179998979918191960b11b8152506200524060201b60201c565b6040805160808101825260108183018181526f41637469766974795f30313468396f3160801b60608401528252825180840190935282526f41637469766974795f316c696866683560801b60208381019190915280820192909252602c600052600390915262005022907f181ec19a0f957384e4ecbe9410e516ad0fe8cc3e53caac5ffc50eb11e64bf4889060026200546c565b5060408051606081018252600d60208083019182526c4576656e745f3161696c68723560981b938301939093528152602c60005260049091526200508a907fcee00ef6983e77a7e1db3b46722f66f35b443eda730735f8d62ca455b3aed108906001620053c8565b506200513c602c60066040518060400160405280600f81526020016e23b0ba32bbb0bcaf981c3a9ab7323760891b8152506040518060200160405280600081525060405180604001604052806009815260200168536c757a62656e696b60b81b81525060405180602001604052806000815250604051806020016040528060008152506040518060400160405280600a8152602001691899179998979918191960b11b8152506200524060201b60201c565b62005736565b6000816001600160401b038111156200515f576200515f6200556f565b60405190808252806020026020018201604052801562005189578160200160208202803683370190505b50905060005b82811015620051c25780828281518110620051ae57620051ae62005585565b60209081029190910101526001016200518f565b5060408051606081018252600854808252602080830187815283850186905260009283529082905292902081518155915190919060018201906200520790826200562c565b506040820151805162005225916002840191602090910190620054b7565b50506008546200523891506001620056f8565b600855505050565b60405180610100016040528089815260200188600781111562005267576200526762005720565b815260200187815260200186815260200185815260200184815260200183815260200182815250600260008a81526020019081526020016000206000820151816000015560208201518160010160006101000a81548160ff02191690836007811115620052d857620052d862005720565b021790555060408201516002820190620052f390826200562c565b50606082015160038201906200530a90826200562c565b50608082015160048201906200532190826200562c565b5060a082015160058201906200533890826200562c565b5060c082015160068201906200534f90826200562c565b5060e082015160078201906200536690826200562c565b5050505050505050505050565b828054828255906000526020600020908101928215620053b6579160200282015b82811115620053b6578251829060ff1690559160200191906001019062005394565b50620053c4929150620054f5565b5090565b82805482825590600052602060002090810192821562005413579160200282015b828111156200541357825182906200540290826200562c565b5091602001919060010190620053e9565b50620053c49291506200550c565b82805482825590600052602060002090810192821562005413579160200282015b828111156200541357825182906200545b90826200562c565b509160200191906001019062005442565b82805482825590600052602060002090810192821562005413579160200282015b82811115620054135782518290620054a690826200562c565b50916020019190600101906200548d565b828054828255906000526020600020908101928215620053b6579160200282015b82811115620053b6578251825591602001919060010190620054d8565b5b80821115620053c45760008155600101620054f6565b80821115620053c45760006200552382826200552d565b506001016200550c565b5080546200553b906200559b565b6000825580601f106200554c575050565b601f0160209004906000526020600020908101906200556c9190620054f5565b50565b634e487b7160e01b600052604160045260246000fd5b634e487b7160e01b600052603260045260246000fd5b600181811c90821680620055b057607f821691505b602082108103620055d157634e487b7160e01b600052602260045260246000fd5b50919050565b601f82111562005627576000816000526020600020601f850160051c81016020861015620056025750805b601f850160051c820191505b8181101562005623578281556001016200560e565b5050505b505050565b81516001600160401b038111156200564857620056486200556f565b62005660816200565984546200559b565b84620055d7565b602080601f8311600181146200569857600084156200567f5750858301515b600019600386901b1c1916600185901b17855562005623565b600085815260208120601f198616915b82811015620056c957888601518255948401946001909101908401620056a8565b5085821015620056e85787850151600019600388901b60f8161c191681555b5050505050600190811b01905550565b808201808211156200571a57634e487b7160e01b600052601160045260246000fd5b92915050565b634e487b7160e01b600052602160045260246000fd5b61333e80620057466000396000f3fe60806040526004361061014b5760003560e01c806379a42d06116100b657806398d46dfd1161006f57806398d46dfd146103ee578063a58603e01461040e578063af12a5711461042e578063bed34bba14610443578063c29de7ca14610463578063ecd3645e1461048357600080fd5b806379a42d061461033257806386209b871461034857806386f612271461037b57806394d55eaf1461039b57806395755d17146103bb57806397ada366146103ce57600080fd5b80633a3e8a95116101085780633a3e8a951461025f5780634b5ae0771461028e578063581cf028146102a357806359b97b97146102c35780635f03facd146102e357806378660f5e1461031257600080fd5b806309be70b2146101505780630b09c8ce1461017b5780630d1657e8146101ba57806311ae9ed2146101ee57806319dfc19d1461020357806324a4dd9414610230575b600080fd5b34801561015c57600080fd5b506101656104a3565b60405161017291906129b5565b60405180910390f35b34801561018757600080fd5b506101aa6101963660046129f9565b600090815260066020526040902054151590565b6040519015158152602001610172565b3480156101c657600080fd5b506101da6101d53660046129f9565b6104fb565b604051610172989796959493929190612a78565b3480156101fa57600080fd5b50610165610871565b34801561020f57600080fd5b5061022361021e366004612b29565b6108c7565b6040516101729190612b4b565b34801561023c57600080fd5b506101aa61024b3660046129f9565b600090815260036020526040902054151590565b34801561026b57600080fd5b506101aa61027a3660046129f9565b600090815260046020526040902054151590565b6102a161029c3660046129f9565b610980565b005b3480156102af57600080fd5b506102236102be366004612b29565b610a14565b3480156102cf57600080fd5b506101aa6102de366004612bac565b610a30565b3480156102ef57600080fd5b506101aa6102fe3660046129f9565b600090815260056020526040902054151590565b34801561031e57600080fd5b5061016561032d3660046129f9565b610a7b565b61033a610ade565b604051908152602001610172565b34801561035457600080fd5b506103686103633660046129f9565b610af1565b6040516101729796959493929190612c5e565b34801561038757600080fd5b50610223610396366004612cd9565b610e29565b3480156103a757600080fd5b506102236103b6366004612b29565b610e42565b6102a16103c9366004612d72565b610e5e565b3480156103da57600080fd5b5061033a6103e9366004612e04565b61106a565b3480156103fa57600080fd5b506102a1610409366004612e55565b6110e2565b34801561041a57600080fd5b506102a1610429366004612f66565b611203565b34801561043a57600080fd5b506101656112f3565b34801561044f57600080fd5b506101aa61045e366004612fab565b611349565b34801561046f57600080fd5b506102a161047e366004612fab565b6113a2565b34801561048f57600080fd5b5061022361049e366004612b29565b6115fb565b6060600a8054806020026020016040519081016040528092919081815260200182805480156104f157602002820191906000526020600020905b8154815260200190600101908083116104dd575b5050505050905090565b6002602081905260009182526040909120805460018201549282018054919360ff1692916105289061300f565b80601f01602080910402602001604051908101604052809291908181526020018280546105549061300f565b80156105a15780601f10610576576101008083540402835291602001916105a1565b820191906000526020600020905b81548152906001019060200180831161058457829003601f168201915b5050505050908060030180546105b69061300f565b80601f01602080910402602001604051908101604052809291908181526020018280546105e29061300f565b801561062f5780601f106106045761010080835404028352916020019161062f565b820191906000526020600020905b81548152906001019060200180831161061257829003601f168201915b5050505050908060040180546106449061300f565b80601f01602080910402602001604051908101604052809291908181526020018280546106709061300f565b80156106bd5780601f10610692576101008083540402835291602001916106bd565b820191906000526020600020905b8154815290600101906020018083116106a057829003601f168201915b5050505050908060050180546106d29061300f565b80601f01602080910402602001604051908101604052809291908181526020018280546106fe9061300f565b801561074b5780601f106107205761010080835404028352916020019161074b565b820191906000526020600020905b81548152906001019060200180831161072e57829003601f168201915b5050505050908060060180546107609061300f565b80601f016020809104026020016040519081016040528092919081815260200182805461078c9061300f565b80156107d95780601f106107ae576101008083540402835291602001916107d9565b820191906000526020600020905b8154815290600101906020018083116107bc57829003601f168201915b5050505050908060070180546107ee9061300f565b80601f016020809104026020016040519081016040528092919081815260200182805461081a9061300f565b80156108675780601f1061083c57610100808354040283529160200191610867565b820191906000526020600020905b81548152906001019060200180831161084a57829003601f168201915b5050505050905088565b6060600b8054806020026020016040519081016040528092919081815260200182805480156104f157602002820191906000526020600020908154815260200190600101908083116104dd575050505050905090565b600360205281600052604060002081815481106108e357600080fd5b906000526020600020016000915091505080546108ff9061300f565b80601f016020809104026020016040519081016040528092919081815260200182805461092b9061300f565b80156109785780601f1061094d57610100808354040283529160200191610978565b820191906000526020600020905b81548152906001019060200180831161095b57829003601f168201915b505050505081565b600061098c6000610a7b565b6000838152600560209081526040808320546002928390529083206001015493945015159260ff1660078111156109c5576109c5612a12565b149050816109dc576109d78484611617565b610a04565b8180156109e65750805b156109f5576109d784846116fb565b80610a0457610a048484611617565b610a0e8484611719565b50505050565b600560205281600052604060002081815481106108e357600080fd5b6000805b8251811015610a6f5783838281518110610a5057610a50613049565b602002602001015103610a67576001915050610a75565b600101610a34565b50600090505b92915050565b60008181526020818152604091829020600201805483518184028101840190945280845260609392830182828015610ad257602002820191906000526020600020905b815481526020019060010190808311610abe575b50505050509050919050565b6000610aeb600a82612937565b50600090565b600081815260026020526040812080546001909101548291606091829182918291829160ff166007811115610b2857610b28612a12565b60008a8152600260208190526040909120908101805490916003810191600582019160068101916004909101908590610b609061300f565b80601f0160208091040260200160405190810160405280929190818152602001828054610b8c9061300f565b8015610bd95780601f10610bae57610100808354040283529160200191610bd9565b820191906000526020600020905b815481529060010190602001808311610bbc57829003601f168201915b50505050509450838054610bec9061300f565b80601f0160208091040260200160405190810160405280929190818152602001828054610c189061300f565b8015610c655780601f10610c3a57610100808354040283529160200191610c65565b820191906000526020600020905b815481529060010190602001808311610c4857829003601f168201915b50505050509350828054610c789061300f565b80601f0160208091040260200160405190810160405280929190818152602001828054610ca49061300f565b8015610cf15780601f10610cc657610100808354040283529160200191610cf1565b820191906000526020600020905b815481529060010190602001808311610cd457829003601f168201915b50505050509250818054610d049061300f565b80601f0160208091040260200160405190810160405280929190818152602001828054610d309061300f565b8015610d7d5780601f10610d5257610100808354040283529160200191610d7d565b820191906000526020600020905b815481529060010190602001808311610d6057829003601f168201915b50505050509150808054610d909061300f565b80601f0160208091040260200160405190810160405280929190818152602001828054610dbc9061300f565b8015610e095780601f10610dde57610100808354040283529160200191610e09565b820191906000526020600020905b815481529060010190602001808311610dec57829003601f168201915b505050505090509650965096509650965096509650919395979092949650565b600160205260009081526040902080546108ff9061300f565b600460205281600052604060002081815481106108e357600080fd5b60008481526002602052604090206004018054610f03918591610e809061300f565b80601f0160208091040260200160405190810160405280929190818152602001828054610eac9061300f565b8015610ef95780601f10610ece57610100808354040283529160200191610ef9565b820191906000526020600020905b815481529060010190602001808311610edc57829003601f168201915b5050505050611349565b610f0c57600080fd5b600084815260026020526040902060010154610f2a9060ff16611760565b610f3357600080fd5b6000600a8581548110610f4857610f48613049565b906000526020600020015460011490506000600b8681548110610f6d57610f6d613049565b906000526020600020015460011490508180610f865750805b1561106257600560008781526002602052604090206001015460ff166007811115610fb357610fb3612a12565b03610fc657610fc186611823565b611007565b600660008781526002602052604090206001015460ff166007811115610fee57610fee612a12565b03610ffc57610fc1866119f6565b611007868585611d07565b336001600160a01b03167f32e4ea1ee1b7d04aff7692ad7aa9a1db44a16ce2b519efa717ddd98034b9f1c3600260008981526020019081526020016000206002018686604051611059939291906130dc565b60405180910390a25b505050505050565b6000806110776000610a7b565b905060005b81518110156110d7576110c3846002600085858151811061109f5761109f613049565b602002602001015181526020019081526020016000206002018054610e809061300f565b156110cf579392505050565b60010161107c565b506101949392505050565b60405180610100016040528089815260200188600781111561110657611106612a12565b815260200187815260200186815260200185815260200184815260200183815260200182815250600260008a81526020019081526020016000206000820151816000015560208201518160010160006101000a81548160ff0219169083600781111561117457611174612a12565b02179055506040820151600282019061118d9082613167565b50606082015160038201906111a29082613167565b50608082015160048201906111b79082613167565b5060a082015160058201906111cc9082613167565b5060c082015160068201906111e19082613167565b5060e082015160078201906111f69082613167565b5050505050505050505050565b60008167ffffffffffffffff81111561121e5761121e612b65565b604051908082528060200260200182016040528015611247578160200160208202803683370190505b50905060005b8281101561127b578082828151811061126857611268613049565b602090810291909101015260010161124d565b5060408051606081018252600854808252602080830187815283850186905260009283529082905292902081518155915190919060018201906112be9082613167565b50604082015180516112da916002840191602090910190612955565b50506008546112eb91506001613227565b600855505050565b6060600c8054806020026020016040519081016040528092919081815260200182805480156104f157602002820191906000526020600020908154815260200190600101908083116104dd575050505050905090565b60008160405160200161135c9190613248565b60405160208183030381529060405280519060200120836040516020016113839190613248565b6040516020818303038152906040528051906020012014905092915050565b60006113ad8361106a565b90506001600a82815481106113c4576113c4613049565b90600052602060002001819055506000600c82815481106113e7576113e7613049565b90600052602060002001819055506000600b828154811061140a5761140a613049565b906000526020600020018190555060005b60078360405161142b9190613248565b9081526040519081900360200190205481101561158057600061150e6007856040516114579190613248565b9081526020016040518091039020838154811061147657611476613049565b90600052602060002001805461148b9061300f565b80601f01602080910402602001604051908101604052809291908181526020018280546114b79061300f565b80156115045780601f106114d957610100808354040283529160200191611504565b820191906000526020600020905b8154815290600101906020018083116114e757829003601f168201915b505050505061106a565b90506000600a828154811061152557611525613049565b90600052602060002001819055506000600c828154811061154857611548613049565b90600052602060002001819055506000600b828154811061156b5761156b613049565b6000918252602090912001555060010161141b565b50600061158c8361106a565b90506000600a82815481106115a3576115a3613049565b90600052602060002001819055506000600c82815481106115c6576115c6613049565b90600052602060002001819055506000600b82815481106115e9576115e9613049565b60009182526020909120015550505050565b600660205281600052604060002081815481106108e357600080fd5b60005b6000838152600360205260409020548110156116f657600083815260036020526040902080546116ee9184918490811061165657611656613049565b90600052602060002001805461166b9061300f565b80601f01602080910402602001604051908101604052809291908181526020018280546116979061300f565b80156116e45780601f106116b9576101008083540402835291602001916116e4565b820191906000526020600020905b8154815290600101906020018083116116c757829003601f168201915b5050505050611d79565b60010161161a565b505050565b60006117078383611e2d565b905080156116f6576116f68383611617565b60005b6000838152600660205260409020548110156116f657600083815260066020526040902080546117589184918490811061165657611656613049565b60010161171c565b60008082600781111561177557611775612a12565b14806117925750600282600781111561179057611790612a12565b145b806117ae575060038260078111156117ac576117ac612a12565b145b806117ca575060048260078111156117c8576117c8612a12565b145b806117e6575060018260078111156117e4576117e4612a12565b145b806118025750600582600781111561180057611800612a12565b145b80610a755750600682600781111561181c5761181c612a12565b1492915050565b6000600a828154811061183857611838613049565b90600052602060002001819055506001600c828154811061185b5761185b613049565b906000526020600020018190555060006118756000610a7b565b905060005b6000838152600360205260409020548110156116f65760008381526003602052604081208054839081106118b0576118b0613049565b9060005260206000200180546118c59061300f565b80601f01602080910402602001604051908101604052809291908181526020018280546118f19061300f565b801561193e5780601f106119135761010080835404028352916020019161193e565b820191906000526020600020905b81548152906001019060200180831161192157829003601f168201915b5050505050905060005b83518110156119ec5761196b826002600087858151811061109f5761109f613049565b156119e4576001600a85838151811061198657611986613049565b60200260200101518154811061199e5761199e613049565b9060005260206000200181905550600d8482815181106119c0576119c0613049565b602090810291909101810151825460018101845560009384529190922001556119ec565b600101611948565b505060010161187a565b600080611a036000610a7b565b905060005b600084815260046020526040902054811015611b61576000848152600460205260408120805483908110611a3e57611a3e613049565b906000526020600020018054611a539061300f565b80601f0160208091040260200160405190810160405280929190818152602001828054611a7f9061300f565b8015611acc5780601f10611aa157610100808354040283529160200191611acc565b820191906000526020600020905b815481529060010190602001808311611aaf57829003601f168201915b5050505050905060005b8351811015611b5757611af9826002600087858151811061109f5761109f613049565b15611b4f57600c848281518110611b1257611b12613049565b602002602001015181548110611b2a57611b2a613049565b9060005260206000200154600103611b4a57611b47856001613227565b94505b611b57565b600101611ad6565b5050600101611a08565b5060008381526004602052604090205482036116f6576000600a8481548110611b8c57611b8c613049565b90600052602060002001819055506001600c8481548110611baf57611baf613049565b906000526020600020018190555060005b600084815260036020526040902054811015610a0e576000848152600360205260408120805483908110611bf657611bf6613049565b906000526020600020018054611c0b9061300f565b80601f0160208091040260200160405190810160405280929190818152602001828054611c379061300f565b8015611c845780601f10611c5957610100808354040283529160200191611c84565b820191906000526020600020905b815481529060010190602001808311611c6757829003601f168201915b5050505050905060005b8351811015611cfd57611cb1826002600087858151811061109f5761109f613049565b15611cf5576001600a858381518110611ccc57611ccc613049565b602002602001015181548110611ce457611ce4613049565b600091825260209091200155611cfd565b600101611c8e565b5050600101611bc0565b611d12838383611f9d565b611d6c83600d805480602002602001604051908101604052809291908181526020018280548015611d6257602002820191906000526020600020905b815481526020019060010190808311611d4e575b5050505050610a30565b156116f6576116f66120a6565b60005b82518110156116f657611d9f826002600086858151811061109f5761109f613049565b8015611de157506001600c848381518110611dbc57611dbc613049565b602002602001015181548110611dd457611dd4613049565b9060005260206000200154105b15611e25576001600a848381518110611dfc57611dfc613049565b602002602001015181548110611e1457611e14613049565b600091825260209091200155505050565b600101611d7c565b6000805b8251811015610a6f5760008481526005602052604081208054611f049290611e5b57611e5b613049565b906000526020600020018054611e709061300f565b80601f0160208091040260200160405190810160405280929190818152602001828054611e9c9061300f565b8015611ee95780601f10611ebe57610100808354040283529160200191611ee9565b820191906000526020600020905b815481529060010190602001808311611ecc57829003601f168201915b50505050506002600086858151811061109f5761109f613049565b8015611f8657506000600b848381518110611f2157611f21613049565b602002602001015181548110611f3957611f39613049565b90600052602060002001541180611f8657506000600c848381518110611f6157611f61613049565b602002602001015181548110611f7957611f79613049565b9060005260206000200154115b15611f95576001915050610a75565b600101611e31565b600083815260026020526040812060060180546120519190611fbe9061300f565b80601f0160208091040260200160405190810160405280929190818152602001828054611fea9061300f565b80156120375780601f1061200c57610100808354040283529160200191612037565b820191906000526020600020905b81548152906001019060200180831161201a57829003601f168201915b505050505060405180602001604052806000815250611349565b159050600061207a600260008781526020019081526020016000206005018054611fbe9061300f565b159050816120935761208e85858584612108565b61209f565b61209f8585858461249f565b5050505050565b60005b600d548110156120f9576000600a600d83815481106120ca576120ca613049565b9060005260206000200154815481106120e5576120e5613049565b6000918252602090912001556001016120a9565b50612106600d6000612937565b565b801561212b5760008481526002602052604090206005016121298482613167565b505b60006121376000610a7b565b6000868152600660205260408120549192509015159061215787846124df565b9050600061216588856124df565b905060006007600260008b815260200190815260200160002060020160405161218e9190613264565b90815260405190819003602001902054151590508380156121ac5750805b1561230e576000898152600660205260408120805461230992906121d2576121d2613049565b9060005260206000200180546121e79061300f565b80601f01602080910402602001604051908101604052809291908181526020018280546122139061300f565b80156122605780601f1061223557610100808354040283529160200191612260565b820191906000526020600020905b81548152906001019060200180831161224357829003601f168201915b5050505050600260008c815260200190815260200160002060020180546122869061300f565b80601f01602080910402602001604051908101604052809291908181526020018280546122b29061300f565b80156122ff5780601f106122d4576101008083540402835291602001916122ff565b820191906000526020600020905b8154815290600101906020018083116122e257829003601f168201915b50505050506113a2565b612494565b83158061232057508280156123205750815b1561232e5761230989612627565b8261243b576001600c8a8154811061234857612348613049565b90600052602060002001819055506000600a8a8154811061236b5761236b613049565b90600052602060002001819055506123098986600660008d81526020019081526020016000206000815481106123a3576123a3613049565b9060005260206000200180546123b89061300f565b80601f01602080910402602001604051908101604052809291908181526020018280546123e49061300f565b80156124315780601f1061240657610100808354040283529160200191612431565b820191906000526020600020905b81548152906001019060200180831161241457829003601f168201915b50505050506126b1565b336001600160a01b03167ffc98137258110aa472f6dbf39f2051f7045162382f61b13bb1445bdb0a3e8b8a600260008c81526020019081526020016000206002018960405161248b9291906132da565b60405180910390a25b505050505050505050565b600b84815481106124b2576124b2613049565b90600052602060002001546000036124d4576124cf8482856127ab565b610a0e565b610a0e8484846127e3565b600080805b835181101561261f576000858152600560205260409020541561261757600085815260056020526040812080546125cb929061252257612522613049565b9060005260206000200180546125379061300f565b80601f01602080910402602001604051908101604052809291908181526020018280546125639061300f565b80156125b05780601f10612585576101008083540402835291602001916125b0565b820191906000526020600020905b81548152906001019060200180831161259357829003601f168201915b50505050506002600087858151811061109f5761109f613049565b1561261757600c8482815181106125e4576125e4613049565b6020026020010151815481106125fc576125fc613049565b9060005260206000200154600103612617576001915061261f565b6001016124e4565b509392505050565b6000600b828154811061263c5761263c613049565b90600052602060002001819055506000600a828154811061265f5761265f613049565b90600052602060002001819055506001600c828154811061268257612682613049565b600091825260208083209091019290925582815260039091526040902054156126ae576126ae81610980565b50565b60005b600084815260066020526040902054811015610a0e5760005b83518110156127a2576126f0836002600087858151811061109f5761109f613049565b801561273257506001600c85838151811061270d5761270d613049565b60200260200101518154811061272557612725613049565b9060005260206000200154105b1561279a576001600c85838151811061274d5761274d613049565b60200260200101518154811061276557612765613049565b906000526020600020018190555061279584828151811061278857612788613049565b6020026020010151610980565b6127a2565b6001016126cd565b506001016126b4565b81156127ce5760008381526002602052604090206005016127cc8282613167565b505b6001600b8481548110611e1457611e14613049565b60008381526002602052604090206006016127fe8382613167565b50600061280b6000610a7b565b6000858152600660205260408120549192509015159061282b86846124df565b9050600061283987856124df565b905082158061284d575081801561284d5750805b156128605761285b87612627565b61292e565b816128d5576001600b888154811061287a5761287a613049565b90600052602060002001819055506000600a888154811061289d5761289d613049565b906000526020600020018190555061285b8785600660008b81526020019081526020016000206000815481106123a3576123a3613049565b336001600160a01b03167ffc98137258110aa472f6dbf39f2051f7045162382f61b13bb1445bdb0a3e8b8a600260008a8152602001908152602001600020600201876040516129259291906132da565b60405180910390a25b50505050505050565b50805460008255906000526020600020908101906126ae91906129a0565b828054828255906000526020600020908101928215612990579160200282015b82811115612990578251825591602001919060010190612975565b5061299c9291506129a0565b5090565b5b8082111561299c57600081556001016129a1565b6020808252825182820181905260009190848201906040850190845b818110156129ed578351835292840192918401916001016129d1565b50909695505050505050565b600060208284031215612a0b57600080fd5b5035919050565b634e487b7160e01b600052602160045260246000fd5b60005b83811015612a43578181015183820152602001612a2b565b50506000910152565b60008151808452612a64816020860160208601612a28565b601f01601f19169290920160200192915050565b60006101008a835260088a10612a9e57634e487b7160e01b600052602160045260246000fd5b896020840152806040840152612ab68184018a612a4c565b90508281036060840152612aca8189612a4c565b90508281036080840152612ade8188612a4c565b905082810360a0840152612af28187612a4c565b905082810360c0840152612b068186612a4c565b905082810360e0840152612b1a8185612a4c565b9b9a5050505050505050505050565b60008060408385031215612b3c57600080fd5b50508035926020909101359150565b602081526000612b5e6020830184612a4c565b9392505050565b634e487b7160e01b600052604160045260246000fd5b604051601f8201601f1916810167ffffffffffffffff81118282101715612ba457612ba4612b65565b604052919050565b60008060408385031215612bbf57600080fd5b8235915060208084013567ffffffffffffffff80821115612bdf57600080fd5b818601915086601f830112612bf357600080fd5b813581811115612c0557612c05612b65565b8060051b9150612c16848301612b7b565b8181529183018401918481019089841115612c3057600080fd5b938501935b83851015612c4e57843582529385019390850190612c35565b8096505050505050509250929050565b87815286602082015260e060408201526000612c7d60e0830188612a4c565b8281036060840152612c8f8188612a4c565b90508281036080840152612ca38187612a4c565b905082810360a0840152612cb78186612a4c565b905082810360c0840152612ccb8185612a4c565b9a9950505050505050505050565b600060208284031215612ceb57600080fd5b81356001600160a01b0381168114612b5e57600080fd5b600082601f830112612d1357600080fd5b813567ffffffffffffffff811115612d2d57612d2d612b65565b612d40601f8201601f1916602001612b7b565b818152846020838601011115612d5557600080fd5b816020850160208301376000918101602001919091529392505050565b60008060008060808587031215612d8857600080fd5b84359350602085013567ffffffffffffffff80821115612da757600080fd5b612db388838901612d02565b94506040870135915080821115612dc957600080fd5b612dd588838901612d02565b93506060870135915080821115612deb57600080fd5b50612df887828801612d02565b91505092959194509250565b600060208284031215612e1657600080fd5b813567ffffffffffffffff811115612e2d57600080fd5b612e3984828501612d02565b949350505050565b803560088110612e5057600080fd5b919050565b600080600080600080600080610100898b031215612e7257600080fd5b88359750612e8260208a01612e41565b9650604089013567ffffffffffffffff80821115612e9f57600080fd5b612eab8c838d01612d02565b975060608b0135915080821115612ec157600080fd5b612ecd8c838d01612d02565b965060808b0135915080821115612ee357600080fd5b612eef8c838d01612d02565b955060a08b0135915080821115612f0557600080fd5b612f118c838d01612d02565b945060c08b0135915080821115612f2757600080fd5b612f338c838d01612d02565b935060e08b0135915080821115612f4957600080fd5b50612f568b828c01612d02565b9150509295985092959890939650565b60008060408385031215612f7957600080fd5b823567ffffffffffffffff811115612f9057600080fd5b612f9c85828601612d02565b95602094909401359450505050565b60008060408385031215612fbe57600080fd5b823567ffffffffffffffff80821115612fd657600080fd5b612fe286838701612d02565b93506020850135915080821115612ff857600080fd5b5061300585828601612d02565b9150509250929050565b600181811c9082168061302357607f821691505b60208210810361304357634e487b7160e01b600052602260045260246000fd5b50919050565b634e487b7160e01b600052603260045260246000fd5b6000815461306c8161300f565b80855260206001838116801561308957600181146130a3576130d1565b60ff1985168884015283151560051b8801830195506130d1565b866000528260002060005b858110156130c95781548a82018601529083019084016130ae565b890184019650505b505050505092915050565b6060815260006130ef606083018661305f565b82810360208401526131018186612a4c565b905082810360408401526131158185612a4c565b9695505050505050565b601f8211156116f6576000816000526020600020601f850160051c810160208610156131485750805b601f850160051c820191505b8181101561106257828155600101613154565b815167ffffffffffffffff81111561318157613181612b65565b6131958161318f845461300f565b8461311f565b602080601f8311600181146131ca57600084156131b25750858301515b600019600386901b1c1916600185901b178555611062565b600085815260208120601f198616915b828110156131f9578886015182559484019460019091019084016131da565b50858210156132175787850151600019600388901b60f8161c191681555b5050505050600190811b01905550565b80820180821115610a7557634e487b7160e01b600052601160045260246000fd5b6000825161325a818460208701612a28565b9190910192915050565b60008083546132728161300f565b6001828116801561328a576001811461329f576132ce565b60ff19841687528215158302870194506132ce565b8760005260208060002060005b858110156132c55781548a8201529084019082016132ac565b50505082870194505b50929695505050505050565b6040815260006132ed604083018561305f565b82810360208401526132ff8185612a4c565b9594505050505056fea2646970667358221220225cbb13078c4431f7ba154593c9e5aa0e0b8798bf4146b9f13243928c64a47864736f6c63430008180033506f736c61746f206f626176657374656e6a65206461206a65206b61727469636120676f746f7661506f736c6174207a61687465767a6120706f6e6f766e696d20706f70756e6a6176616e6a656d506f736c61746f5f6f626176657374656e6a655f6f5f6f6462696a616e6a755f7a6168746576615f7a626f6720737461726f737469536c757a6261207a6120697a72616475206b61727469636100000000000000005072696d6c6a656e6f206f626176657374656e6a65206f206f6462696a616e6a757a626f6720737461726f7374695072696d6c6a656e207a6168746576207a6120706f6e6f766e696d20706f70756e6a6176616e6a656d5072696d6c6a656e6f206f626176657374656e6a656f20746f6d65206461206a65206b61727469636120676f746f76614b72616a2075736c6564206f6462696a616e6a61207a626f6720737461726f737469506f736c61746f206f626176657374656e6a65206f206f6462696a616e6a75207a616874657661",
  "linkReferences": {},
  "deployedLinkReferences": {}
}