{
  "_format": "hh-sol-artifact-1",
  "contractName": "GettersFacet",
  "sourceName": "contracts/facets/Process/GettersFacet.sol",
  "abi": [
    {
      "inputs": [
        {
          "internalType": "uint256",
          "name": "_id",
          "type": "uint256"
        },
        {
          "internalType": "string",
          "name": "_model",
          "type": "string"
        }
      ],
      "name": "getActivityDataFromActivityId",
      "outputs": [
        {
          "internalType": "uint256",
          "name": "_actId",
          "type": "uint256"
        },
        {
          "internalType": "uint256",
          "name": "_type",
          "type": "uint256"
        },
        {
          "internalType": "string",
          "name": "_xmlID",
          "type": "string"
        },
        {
          "internalType": "string",
          "name": "_name",
          "type": "string"
        },
        {
          "internalType": "string",
          "name": "_dataIn",
          "type": "string"
        },
        {
          "internalType": "string",
          "name": "_dataOut",
          "type": "string"
        },
        {
          "internalType": "string",
          "name": "_lane",
          "type": "string"
        },
        {
          "internalType": "string",
          "name": "_timestamp",
          "type": "string"
        }
      ],
      "stateMutability": "view",
      "type": "function"
    },
    {
      "inputs": [
        {
          "internalType": "string",
          "name": "_model",
          "type": "string"
        },
        {
          "internalType": "uint256",
          "name": "_instanceId",
          "type": "uint256"
        }
      ],
      "name": "getExecuted",
      "outputs": [
        {
          "internalType": "uint256[]",
          "name": "",
          "type": "uint256[]"
        }
      ],
      "stateMutability": "view",
      "type": "function"
    },
    {
      "inputs": [
        {
          "internalType": "string",
          "name": "_model",
          "type": "string"
        },
        {
          "internalType": "uint256",
          "name": "_instanceId",
          "type": "uint256"
        }
      ],
      "name": "getIncluded",
      "outputs": [
        {
          "internalType": "uint256[]",
          "name": "",
          "type": "uint256[]"
        }
      ],
      "stateMutability": "view",
      "type": "function"
    },
    {
      "inputs": [
        {
          "internalType": "string",
          "name": "_model",
          "type": "string"
        }
      ],
      "name": "getNbInstance",
      "outputs": [
        {
          "internalType": "uint256",
          "name": "",
          "type": "uint256"
        }
      ],
      "stateMutability": "view",
      "type": "function"
    },
    {
      "inputs": [
        {
          "internalType": "string",
          "name": "_model",
          "type": "string"
        },
        {
          "internalType": "uint256",
          "name": "_instanceId",
          "type": "uint256"
        }
      ],
      "name": "getPending",
      "outputs": [
        {
          "internalType": "uint256[]",
          "name": "",
          "type": "uint256[]"
        }
      ],
      "stateMutability": "view",
      "type": "function"
    },
    {
      "inputs": [
        {
          "internalType": "string",
          "name": "_keyReplaySegment",
          "type": "string"
        },
        {
          "internalType": "string",
          "name": "_model",
          "type": "string"
        }
      ],
      "name": "getReplaySegment",
      "outputs": [
        {
          "internalType": "string[]",
          "name": "",
          "type": "string[]"
        }
      ],
      "stateMutability": "view",
      "type": "function"
    }
  ],
  "bytecode": "0x608060405234801561001057600080fd5b50610e31806100206000396000f3fe608060405234801561001057600080fd5b50600436106100625760003560e01c80632c55efbd146100675780634096c1cf14610090578063514024ef146100b15780635b838991146100c4578063bf793792146100e4578063c177d0671461010b575b600080fd5b61007a610075366004610ac1565b61011e565b6040516100879190610b06565b60405180910390f35b6100a361009e366004610b4a565b6101b3565b604051908152602001610087565b61007a6100bf366004610ac1565b6101f0565b6100d76100d2366004610b87565b610283565b6040516100879190610c3b565b6100f76100f2366004610c9f565b6103ac565b604051610087989796959493929190610cdc565b61007a610119366004610ac1565b61098d565b604051606090600080516020610ddc833981519152908190610141908690610d6f565b90815260408051918290036020908101832060008781526003909101825282902060040180548083028501830190935282845291908301828280156101a557602002820191906000526020600020905b815481526020019060010190808311610191575b505050505091505092915050565b604051600090600080516020610ddc8339815191529081906101d6908590610d6f565b908152602001604051809103902060020154915050919050565b604051606090600080516020610ddc833981519152908190610213908690610d6f565b90815260408051918290036020908101832060008781526003909101825282902060020180548083028501830190935282845291908301828280156101a5576020028201919060005260206000209081548152602001906001019080831161019157505050505091505092915050565b604051606090600080516020610ddc8339815191529081906102a6908590610d6f565b9081526020016040518091039020600901846040516102c59190610d6f565b9081526020016040518091039020805480602002602001604051908101604052809291908181526020016000905b8282101561039f57838290600052602060002001805461031290610d8b565b80601f016020809104026020016040519081016040528092919081815260200182805461033e90610d8b565b801561038b5780601f106103605761010080835404028352916020019161038b565b820191906000526020600020905b81548152906001019060200180831161036e57829003601f168201915b5050505050815260200190600101906102f3565b5050505091505092915050565b6000806060808080808086600080516020610ddc83398151915290506104116040805161010081019091526000808252602082019081526020016060815260200160608152602001606081526020016060815260200160608152602001606081525090565b6040518290610421908d90610d6f565b908152604080516020928190038301902060008f8152600490910190925290819020548252518290610454908d90610d6f565b908152604080516020928190038301902060008f81526004909101835220600101549082019060ff16600781111561048e5761048e610dc5565b908160078111156104a1576104a1610dc5565b90525060405182906104b4908d90610d6f565b908152602001604051809103902060040160008d815260200190815260200160002060020180546104e490610d8b565b80601f016020809104026020016040519081016040528092919081815260200182805461051090610d8b565b801561055d5780601f106105325761010080835404028352916020019161055d565b820191906000526020600020905b81548152906001019060200180831161054057829003601f168201915b5050505060408084019290925250518290610579908d90610d6f565b908152602001604051809103902060040160008d815260200190815260200160002060030180546105a990610d8b565b80601f01602080910402602001604051908101604052809291908181526020018280546105d590610d8b565b80156106225780601f106105f757610100808354040283529160200191610622565b820191906000526020600020905b81548152906001019060200180831161060557829003601f168201915b50505050506060820152604051829061063c908d90610d6f565b908152602001604051809103902060040160008d8152602001908152602001600020600501805461066c90610d8b565b80601f016020809104026020016040519081016040528092919081815260200182805461069890610d8b565b80156106e55780601f106106ba576101008083540402835291602001916106e5565b820191906000526020600020905b8154815290600101906020018083116106c857829003601f168201915b505050505060a082015260405182906106ff908d90610d6f565b908152602001604051809103902060040160008d8152602001908152602001600020600601805461072f90610d8b565b80601f016020809104026020016040519081016040528092919081815260200182805461075b90610d8b565b80156107a85780601f1061077d576101008083540402835291602001916107a8565b820191906000526020600020905b81548152906001019060200180831161078b57829003601f168201915b505050505060c082015260405182906107c2908d90610d6f565b908152602001604051809103902060040160008d815260200190815260200160002060040180546107f290610d8b565b80601f016020809104026020016040519081016040528092919081815260200182805461081e90610d8b565b801561086b5780601f106108405761010080835404028352916020019161086b565b820191906000526020600020905b81548152906001019060200180831161084e57829003601f168201915b505050505060808201526040518290610885908d90610d6f565b908152602001604051809103902060040160008d815260200190815260200160002060070180546108b590610d8b565b80601f01602080910402602001604051908101604052809291908181526020018280546108e190610d8b565b801561092e5780601f106109035761010080835404028352916020019161092e565b820191906000526020600020905b81548152906001019060200180831161091157829003601f168201915b505050505060e082015280516020820151600781111561095057610950610dc5565b826040015183606001518460a001518560c0015186608001518760e001519950995099509950995099509950995050509295985092959890939650565b604051606090600080516020610ddc8339815191529081906109b0908690610d6f565b9081526040805191829003602090810183206000878152600391820183528390200180548083028501830190935282845291908301828280156101a5576020028201919060005260206000209081548152602001906001019080831161019157505050505091505092915050565b634e487b7160e01b600052604160045260246000fd5b600082601f830112610a4557600080fd5b813567ffffffffffffffff80821115610a6057610a60610a1e565b604051601f8301601f19908116603f01168101908282118183101715610a8857610a88610a1e565b81604052838152866020858801011115610aa157600080fd5b836020870160208301376000602085830101528094505050505092915050565b60008060408385031215610ad457600080fd5b823567ffffffffffffffff811115610aeb57600080fd5b610af785828601610a34565b95602094909401359450505050565b6020808252825182820181905260009190848201906040850190845b81811015610b3e57835183529284019291840191600101610b22565b50909695505050505050565b600060208284031215610b5c57600080fd5b813567ffffffffffffffff811115610b7357600080fd5b610b7f84828501610a34565b949350505050565b60008060408385031215610b9a57600080fd5b823567ffffffffffffffff80821115610bb257600080fd5b610bbe86838701610a34565b93506020850135915080821115610bd457600080fd5b50610be185828601610a34565b9150509250929050565b60005b83811015610c06578181015183820152602001610bee565b50506000910152565b60008151808452610c27816020860160208601610beb565b601f01601f19169290920160200192915050565b600060208083016020845280855180835260408601915060408160051b87010192506020870160005b82811015610c9257603f19888603018452610c80858351610c0f565b94509285019290850190600101610c64565b5092979650505050505050565b60008060408385031215610cb257600080fd5b82359150602083013567ffffffffffffffff811115610cd057600080fd5b610be185828601610a34565b60006101008a8352896020840152806040840152610cfc8184018a610c0f565b90508281036060840152610d108189610c0f565b90508281036080840152610d248188610c0f565b905082810360a0840152610d388187610c0f565b905082810360c0840152610d4c8186610c0f565b905082810360e0840152610d608185610c0f565b9b9a5050505050505050505050565b60008251610d81818460208701610beb565b9190910192915050565b600181811c90821680610d9f57607f821691505b602082108103610dbf57634e487b7160e01b600052602260045260246000fd5b50919050565b634e487b7160e01b600052602160045260246000fdfe34b903b1c9f516e29bcc70e55a6bc2ac2c43ec324e4a6cfb468f0c027487621ca2646970667358221220c44e49a31f9c99bdaa4a518f4217b5689aa9e0509402623660e061008ef61bca64736f6c63430008180033",
  "linkReferences": {},
  "deployedLinkReferences": {}
}