{
  "_format": "hh-sol-artifact-1",
  "contractName": "Circee",
  "sourceName": "contracts/monolithic/Circee.sol",
  "abi": [
    {
      "inputs": [],
      "stateMutability": "nonpayable",
      "type": "constructor"
    },
    {
      "anonymous": false,
      "inputs": [
        {
          "indexed": true,
          "internalType": "address",
          "name": "_from",
          "type": "address"
        },
        {
          "indexed": false,
          "internalType": "string",
          "name": "_id",
          "type": "string"
        },
        {
          "indexed": false,
          "internalType": "string",
          "name": "_data",
          "type": "string"
        },
        {
          "indexed": false,
          "internalType": "string",
          "name": "_timestamp",
          "type": "string"
        }
      ],
      "name": "taskExecuted",
      "type": "event"
    },
    {
      "anonymous": false,
      "inputs": [
        {
          "indexed": true,
          "internalType": "address",
          "name": "_from",
          "type": "address"
        },
        {
          "indexed": false,
          "internalType": "string",
          "name": "_id",
          "type": "string"
        },
        {
          "indexed": false,
          "internalType": "string",
          "name": "_timestamp",
          "type": "string"
        }
      ],
      "name": "taskExecutionError",
      "type": "event"
    },
    {
      "inputs": [
        {
          "internalType": "uint256",
          "name": "",
          "type": "uint256"
        },
        {
          "internalType": "uint256",
          "name": "",
          "type": "uint256"
        }
      ],
      "name": "ChildrenOptim",
      "outputs": [
        {
          "internalType": "string",
          "name": "",
          "type": "string"
        }
      ],
      "stateMutability": "view",
      "type": "function"
    },
    {
      "inputs": [
        {
          "internalType": "uint256",
          "name": "_actId",
          "type": "uint256"
        },
        {
          "internalType": "string",
          "name": "_lane",
          "type": "string"
        },
        {
          "internalType": "string",
          "name": "_upd",
          "type": "string"
        },
        {
          "internalType": "string",
          "name": "_timestamp",
          "type": "string"
        }
      ],
      "name": "Invoke",
      "outputs": [],
      "stateMutability": "payable",
      "type": "function"
    },
    {
      "inputs": [
        {
          "internalType": "uint256",
          "name": "",
          "type": "uint256"
        },
        {
          "internalType": "uint256",
          "name": "",
          "type": "uint256"
        }
      ],
      "name": "MsgInOptim",
      "outputs": [
        {
          "internalType": "string",
          "name": "",
          "type": "string"
        }
      ],
      "stateMutability": "view",
      "type": "function"
    },
    {
      "inputs": [
        {
          "internalType": "uint256",
          "name": "",
          "type": "uint256"
        },
        {
          "internalType": "uint256",
          "name": "",
          "type": "uint256"
        }
      ],
      "name": "MsgOutOptim",
      "outputs": [
        {
          "internalType": "string",
          "name": "",
          "type": "string"
        }
      ],
      "stateMutability": "view",
      "type": "function"
    },
    {
      "inputs": [
        {
          "internalType": "uint256",
          "name": "",
          "type": "uint256"
        },
        {
          "internalType": "uint256",
          "name": "",
          "type": "uint256"
        }
      ],
      "name": "ParentsOptim",
      "outputs": [
        {
          "internalType": "string",
          "name": "",
          "type": "string"
        }
      ],
      "stateMutability": "view",
      "type": "function"
    },
    {
      "inputs": [
        {
          "internalType": "uint256",
          "name": "",
          "type": "uint256"
        }
      ],
      "name": "activities",
      "outputs": [
        {
          "internalType": "uint256",
          "name": "id",
          "type": "uint256"
        },
        {
          "internalType": "enum Circee.NodeType",
          "name": "nodeType",
          "type": "uint8"
        },
        {
          "internalType": "string",
          "name": "xmlID",
          "type": "string"
        },
        {
          "internalType": "string",
          "name": "name",
          "type": "string"
        },
        {
          "internalType": "string",
          "name": "lane",
          "type": "string"
        },
        {
          "internalType": "string",
          "name": "dataIn",
          "type": "string"
        },
        {
          "internalType": "string",
          "name": "dataOut",
          "type": "string"
        },
        {
          "internalType": "string",
          "name": "timestamp",
          "type": "string"
        }
      ],
      "stateMutability": "view",
      "type": "function"
    },
    {
      "inputs": [
        {
          "internalType": "uint256",
          "name": "_id",
          "type": "uint256"
        },
        {
          "internalType": "enum Circee.NodeType",
          "name": "_type",
          "type": "uint8"
        },
        {
          "internalType": "string",
          "name": "_xmlID",
          "type": "string"
        },
        {
          "internalType": "string",
          "name": "_name",
          "type": "string"
        },
        {
          "internalType": "string",
          "name": "_lane",
          "type": "string"
        },
        {
          "internalType": "string",
          "name": "_data_in",
          "type": "string"
        },
        {
          "internalType": "string",
          "name": "_data_out",
          "type": "string"
        },
        {
          "internalType": "string",
          "name": "_timestamp",
          "type": "string"
        }
      ],
      "name": "addActivity",
      "outputs": [],
      "stateMutability": "nonpayable",
      "type": "function"
    },
    {
      "inputs": [
        {
          "internalType": "string",
          "name": "_name",
          "type": "string"
        },
        {
          "internalType": "uint256",
          "name": "_activityIdsLength",
          "type": "uint256"
        }
      ],
      "name": "addWorkflowInstance",
      "outputs": [],
      "stateMutability": "nonpayable",
      "type": "function"
    },
    {
      "inputs": [
        {
          "internalType": "address",
          "name": "",
          "type": "address"
        }
      ],
      "name": "addresses2lanes",
      "outputs": [
        {
          "internalType": "string",
          "name": "",
          "type": "string"
        }
      ],
      "stateMutability": "view",
      "type": "function"
    },
    {
      "inputs": [
        {
          "internalType": "string",
          "name": "a",
          "type": "string"
        },
        {
          "internalType": "string",
          "name": "b",
          "type": "string"
        }
      ],
      "name": "compareStrings",
      "outputs": [
        {
          "internalType": "bool",
          "name": "",
          "type": "bool"
        }
      ],
      "stateMutability": "pure",
      "type": "function"
    },
    {
      "inputs": [
        {
          "internalType": "uint256",
          "name": "num",
          "type": "uint256"
        },
        {
          "internalType": "uint256[]",
          "name": "numbers1",
          "type": "uint256[]"
        }
      ],
      "name": "exists1",
      "outputs": [
        {
          "internalType": "bool",
          "name": "",
          "type": "bool"
        }
      ],
      "stateMutability": "pure",
      "type": "function"
    },
    {
      "inputs": [
        {
          "internalType": "uint256",
          "name": "_id",
          "type": "uint256"
        }
      ],
      "name": "getActivityDataFromActivityId",
      "outputs": [
        {
          "internalType": "uint256",
          "name": "_actId",
          "type": "uint256"
        },
        {
          "internalType": "uint256",
          "name": "_type",
          "type": "uint256"
        },
        {
          "internalType": "string",
          "name": "_xmlID",
          "type": "string"
        },
        {
          "internalType": "string",
          "name": "_name",
          "type": "string"
        },
        {
          "internalType": "string",
          "name": "_dataIn",
          "type": "string"
        },
        {
          "internalType": "string",
          "name": "_dataOut",
          "type": "string"
        },
        {
          "internalType": "string",
          "name": "_lane",
          "type": "string"
        }
      ],
      "stateMutability": "view",
      "type": "function"
    },
    {
      "inputs": [
        {
          "internalType": "uint256",
          "name": "_id",
          "type": "uint256"
        }
      ],
      "name": "getActivityIdsFromWorkflow",
      "outputs": [
        {
          "internalType": "uint256[]",
          "name": "",
          "type": "uint256[]"
        }
      ],
      "stateMutability": "view",
      "type": "function"
    },
    {
      "inputs": [],
      "name": "getExecuted",
      "outputs": [
        {
          "internalType": "uint256[]",
          "name": "",
          "type": "uint256[]"
        }
      ],
      "stateMutability": "view",
      "type": "function"
    },
    {
      "inputs": [],
      "name": "getIncluded",
      "outputs": [
        {
          "internalType": "uint256[]",
          "name": "",
          "type": "uint256[]"
        }
      ],
      "stateMutability": "view",
      "type": "function"
    },
    {
      "inputs": [],
      "name": "getPending",
      "outputs": [
        {
          "internalType": "uint256[]",
          "name": "",
          "type": "uint256[]"
        }
      ],
      "stateMutability": "view",
      "type": "function"
    },
    {
      "inputs": [
        {
          "internalType": "string",
          "name": "_xmlID",
          "type": "string"
        }
      ],
      "name": "getPosFromXML",
      "outputs": [
        {
          "internalType": "uint256",
          "name": "",
          "type": "uint256"
        }
      ],
      "stateMutability": "view",
      "type": "function"
    },
    {
      "inputs": [
        {
          "internalType": "uint256",
          "name": "key",
          "type": "uint256"
        }
      ],
      "name": "isChildrenOptimNotEmpty",
      "outputs": [
        {
          "internalType": "bool",
          "name": "",
          "type": "bool"
        }
      ],
      "stateMutability": "view",
      "type": "function"
    },
    {
      "inputs": [
        {
          "internalType": "uint256",
          "name": "key",
          "type": "uint256"
        }
      ],
      "name": "isMsgInOptimNotEmpty",
      "outputs": [
        {
          "internalType": "bool",
          "name": "",
          "type": "bool"
        }
      ],
      "stateMutability": "view",
      "type": "function"
    },
    {
      "inputs": [
        {
          "internalType": "uint256",
          "name": "key",
          "type": "uint256"
        }
      ],
      "name": "isMsgOutOptimNotEmpty",
      "outputs": [
        {
          "internalType": "bool",
          "name": "",
          "type": "bool"
        }
      ],
      "stateMutability": "view",
      "type": "function"
    },
    {
      "inputs": [
        {
          "internalType": "uint256",
          "name": "key",
          "type": "uint256"
        }
      ],
      "name": "isParentOptimNotEmpty",
      "outputs": [
        {
          "internalType": "bool",
          "name": "",
          "type": "bool"
        }
      ],
      "stateMutability": "view",
      "type": "function"
    },
    {
      "inputs": [],
      "name": "killProcess",
      "outputs": [
        {
          "internalType": "uint256",
          "name": "",
          "type": "uint256"
        }
      ],
      "stateMutability": "payable",
      "type": "function"
    },
    {
      "inputs": [
        {
          "internalType": "string",
          "name": "startXML",
          "type": "string"
        },
        {
          "internalType": "string",
          "name": "triggerXML",
          "type": "string"
        }
      ],
      "name": "setActivitiesSegment",
      "outputs": [],
      "stateMutability": "nonpayable",
      "type": "function"
    },
    {
      "inputs": [
        {
          "internalType": "uint256",
          "name": "_actId",
          "type": "uint256"
        }
      ],
      "name": "updateChildren",
      "outputs": [],
      "stateMutability": "payable",
      "type": "function"
    }
  ],
  "bytecode": "0x6080604052600060085560006009553480156200001b57600080fd5b5060408051808201909152600a8152691b5e50dbdb9d1c9858dd60b21b60208201526200004a906027620045d9565b604080516104e081018252600080825260208201819052918101829052606081018290526080810182905260a0810182905260c0810182905260e08101829052610100810182905261012081018290526101408101829052610160810182905261018081018290526101a081018290526101c0810182905260016101e0820181905261020082018190526102208201819052610240820181905261026082015261028081018290526102a081018290526102c081018290526102e08101829052610300810182905261032081018290526103408101829052610360810182905261038081018290526103a081018290526103c081018290526103e08101829052610400810182905261042081018290526104408101829052610460810182905261048081018290526104a081018290526104c08101919091526200019390600a9060276200480a565b50604080516104e081018252600080825260208201819052918101829052606081018290526080810182905260a0810182905260c0810182905260e08101829052610100810182905261012081018290526101408101829052610160810182905261018081018290526101a081018290526101c081018290526101e08101829052610200810182905261022081018290526102408101829052610260810182905261028081018290526102a081018290526102c081018290526102e08101829052610300810182905261032081018290526103408101829052610360810182905261038081018290526103a081018290526103c081018290526103e08101829052610400810182905261042081018290526104408101829052610460810182905261048081018290526104a081018290526104c0810191909152620002dd90600c9060276200480a565b50604080516104e081018252600080825260208201819052918101829052606081018290526080810182905260a0810182905260c0810182905260e08101829052610100810182905261012081018290526101408101829052610160810182905261018081018290526101a081018290526101c081018290526101e08101829052610200810182905261022081018290526102408101829052610260810182905261028081018290526102a081018290526102c081018290526102e08101829052610300810182905261032081018290526103408101829052610360810182905261038081018290526103a081018290526103c081018290526103e08101829052610400810182905261042081018290526104408101829052610460810182905261048081018290526104a081018290526104c08101919091526200042790600b9060276200480a565b5060408051606081018252600d60208083019182526c4576656e745f31627a7a61346960981b9383019390935281526000805260039091526200048e907f3617319a054d772f909f7c479a2cebe5066e836a939412e32403c99029b92eff9060016200485f565b5060408051606081018252600d60208083019182526c4576656e745f30696e6769777760981b938301939093528152600080526004909152620004f5907f17ef568e3e12ab5b9c7254a8d58478811de00f9e6eb34345acd53bf8fd09d3ec9060016200485f565b50620005fe600060046040518060400160405280601081526020016f1058dd1a5d9a5d1e57cc5dcccdcd8c8d60821b8152506040518060400160405280601e81526020017f4163717569736974696f6e5f7363616e735f617665635f747265706965640000815250604051806040016040528060138152602001725072657374615f4c61736572735f747970653160681b8152506040518060400160405280601581526020017f7b72656c657665734c6173657254313a787878787d0000000000000000000000815250604051806020016040528060008152506040518060400160405280600a8152602001691899179998979918191960b11b815250620046d760201b60201c565b60408051606081018252601060208083019182526f20b1ba34bb34ba3caf981a3138bd311b60811b93830193909352815260016000819052600390925262000669917fa15bc60c955c405d20d9149c709e2460f1c2d9a497496a7f46004d1772c3054c91906200485f565b5060408051606081018252600f60208083019182526e476174657761795f3166333673686960881b938301939093528152600160008190526004909252620006d4917fabd6e7cb50984ff9c2f3e18a2660c3353dadf4e3291deeb275dae2cd1e44fe0591906200485f565b50620007cd600160046040518060400160405280601081526020016f41637469766974795f317068796b696f60801b8152506040518060400160405280601981526020017f5365676d656e746174696f6e5f4e756167655f506f696e7473000000000000008152506040518060400160405280600381526020016222a22360e91b815250604051806020016040528060008152506040518060400160405280601e81526020017f7b747579617574657269655f6e756167655f706f696e74733a787878787d00008152506040518060400160405280600a8152602001691899179998979918191960b11b815250620046d760201b60201c565b60408051606081018252600f60208083019182526e476174657761795f30617a6d77716d60881b9383019390935281526002600052600390915262000836907fc3a24b0501bd2c13a7e57f2db4369ec4c223447539fc0724a9d55ac4a06ebd4d9060016200485f565b5060408051606081018252600f60208083019182526e23b0ba32bbb0bcaf989a3138b1b23760891b93830193909352815260026000526004909152620008a0907f91da3fd0782e51c6b3986e9e672fd566868e71f3dbc2d6c2cd6fbb3e361af2a79060016200485f565b506200097d600260046040518060400160405280601081526020016f41637469766974795f3071306939756160801b81525060405180606001604052806030815260200162008015603091396040518060400160405280600381526020016222a22360e91b815250604051806020016040528060008152506040518060400160405280602081526020017f7b4d65726b6c6554726565416e63686f72696e67496e707574733a787878787d8152506040518060400160405280600a8152602001691899179998979918191960b11b815250620046d760201b60201c565b60408051606081018252600f60208083019182526e476174657761795f30617a6d77716d60881b93830193909352815260036000819052909152620009e6907fcbc4e5fb02c3d1de23a9f1e014b4d2ee5aeaea9505df5e855c9210bf472495af9060016200485f565b5060408051606081018252600f60208083019182526e23b0ba32bbb0bcaf989a3138b1b23760891b9383019390935281526003600052600490915262000a50907f2e174c10e159ea99b867ce3205125c24a42d128804e4070ed6fcc8cc98166aa09060016200485f565b5062000b3c600360046040518060400160405280601081526020016f41637469766974795f3079793579786960801b8152506040518060400160405280601081526020016f537065635f6368617267656d656e747360801b8152506040518060400160405280600381526020016222a22360e91b815250604051806020016040528060008152506040518060400160405280602081526020017f7b6368617267656d656e74735f73746f726167655f45444653503a787878787d8152506040518060400160405280600a8152602001691899179998979918191960b11b815250620046d760201b60201c565b60408051606081018252600f60208083019182526e476174657761795f30617a6d77716d60881b9383019390935281526004600052600390915262000ba5907f83ec6a1f0257b830b5e016457c9cf1435391bf56cc98f369a58a54fe937724659060016200485f565b5060408051606081018252601060208083019182526f41637469766974795f317068796b696f60801b9383019390935281526004600081905290915262000c10907f1a1e6821cde7d0159c0d293177871e09677b4e42307c7db3ba94f8648a5a050f9060016200485f565b5062000d0a6004806040518060400160405280601081526020016f20b1ba34bb34ba3caf981a3138bd311b60811b8152506040518060400160405280601981526020017f5265636f6e737472756374696f6e5f74757961757465726965000000000000008152506040518060400160405280600381526020016222a22360e91b8152506040518060400160405280601e81526020017f7b747579617574657269655f6e756167655f706f696e74733a787878787d000081525060405180606001604052806025815260200162007fc66025913960408051808201909152600a8152691899179998979918191960b11b6020820152620046d7565b60408051606081018252600f60208083019182526e476174657761795f3166333673686960881b9383019390935281526005600052600390915262000d73907f405aad32e1adbac89bb7f176e338b8fc6e994ca210c9bb7bdca249b4659422509060016200485f565b5060408051606081018252600d60208083019182526c4576656e745f3164633770776560981b9383019390935281526005600052600490915262000ddb907f04cde762ef08b6b6c5ded8e8c4c0b3f4e5c9ad7342c88fcc93681b4588b73f059060016200485f565b5062000e91600560046040518060400160405280601081526020016f041637469766974795f3172347a3871360841b81525060405180606001604052806031815260200162007f1b603191396040518060400160405280600381526020016222a22360e91b8152506040518060600160405280602a8152602001620080d7602a91396040805160208082018352600082528251808401909352600a8352691899179998979918191960b11b9083015290620046d7565b60408051606081018252600f60208083019182526e476174657761795f3166333673686960881b9383019390935281526006600052600390915262000efa907fc69056f16cbaa3c616b828e333ab7d3a32310765507f8f58359e99ebb7a885f39060016200485f565b5060408051606081018252600d60208083019182526c22bb32b73a2f98bcbb9a353b1b60991b9383019390935281526006600052600490915262000f62907fc59312466997bb42aaaf719ece141047820e6b34531e1670dc1852a453648f0f9060016200485f565b5062001018600660046040518060400160405280601081526020016f41637469766974795f306e367962653360801b81525060405180606001604052806031815260200162008045603191396040518060400160405280600381526020016222a22360e91b8152506040518060600160405280602a8152602001620081be602a91396040805160208082018352600082528251808401909352600a8352691899179998979918191960b11b9083015290620046d7565b60408051606081018252601060208083019182526f41637469766974795f31346934396c3160801b9383019390935281526007600052600390915262001082907ff2c49132ed1cee2a7e75bde50d332a2f81f1d01e5456d8a19d1df09bd561dbd29060016200485f565b5060408051606081018252600f60208083019182526e476174657761795f30617a6d77716d60881b93830193909352815260076000526004909152620010ec907fbeb3bad75134cb432e5707980e3245c52c5998a1125ee30f2f0dbf3925b1e5519060016200485f565b50620011ae600760046040518060400160405280601081526020016f41637469766974795f3071786b72383760801b8152506040518060400160405280600d81526020016c53796e74686573655f7370656360981b8152506040518060400160405280600381526020016222a22360e91b8152506040518060a001604052806063815260200162008101606391396040805160208082018352600082528251808401909352600a8352691899179998979918191960b11b9083015290620046d7565b60408051606081018252600d60208083019182526c4576656e745f31776b75656b6760981b9383019390935281526008600052600390915262001215907f85aaa47b6dc46495bb8824fad4583769726fea36efd831a35556690b830a8fbe9060016200485f565b506040805160808101825260108183019081526f41637469766974795f3071786b72383760801b606083015281528151808301909252600f82526e476174657761795f30656d7476706760881b6020838101919091528082019290925260086000526004909152620012ab907f2645749a946633740611cfc8178319f0958659d6922e4bf7e3a08b44789f53a4906002620048b8565b5062001392600860046040518060400160405280601081526020016f41637469766974795f31346934396c3160801b815250604051806060016040528060238152602001620081e8602391396040518060400160405280600381526020016222a22360e91b81525060405180606001604052806025815260200162007fc6602591396040518060400160405280601f81526020017f7b466963686965725f636f6d6d616e64655f7061727469656c3a787878787d008152506040518060400160405280600a8152602001691899179998979918191960b11b815250620046d760201b60201c565b60408051606081018252600d60208083019182526c115d995b9d17cc19ccdb9c5c1b609a1b93830193909352815260096000526003909152620013f9907f8a8dc4e5242ea8b1ab1d60606dae757e6c2cca9f92a2cced9f72c19960bcb4589060016200485f565b5060408051606081018252600d60208083019182526c4576656e745f31776b75656b6760981b9383019390935281526009600052600490915262001461907f4ad5a04d53b5856f318545bb721f67d3f6d0a5a999f25eec7e20eaeb4c47b9339060016200485f565b5062001540600960046040518060400160405280601081526020016f20b1ba34bb34ba3caf983bb2b3bc3b3560811b8152506040518060400160405280601a81526020017f526563657074696f6e5f76616c69646174696f6e5f65747564650000000000008152506040518060400160405280600381526020016222a22360e91b8152506040518060600160405280602a815260200162007feb602a91396040518060800160405280605a815260200162008164605a913960408051808201909152600a8152691899179998979918191960b11b6020820152620046d7565b60408051606081018252600d60208083019182526c22bb32b73a2f983337343b341960991b938301939093528152600a6000526003909152620015a7907f9dcb9783ba5cd0b54745f65f4f918525e461e91888c334e5342cb380ac558d539060016200485f565b5060408051606081018252600d60208083019182526c115d995b9d17cc5b4e1b9c9e0d609a1b938301939093528152600a60005260049091526200160f907f5c6b02db8b672415ffad906d7ccee10bd53dbad7d0b29e2bc0e50c93d5f310939060016200485f565b5062001709600a60046040518060400160405280601081526020016f041637469766974795f3062716a7373360841b815250604051806040016040528060128152602001714163717569736974696f6e5f72617069646560701b8152506040518060400160405280600f81526020016e283932b9ba30afa630b9b2b939af9960891b8152506040518060400160405280601581526020017f7b72656c657665734c6173657254323a787878787d0000000000000000000000815250604051806020016040528060008152506040518060400160405280600a8152602001691899179998979918191960b11b815250620046d760201b60201c565b60408051606081018252600d60208083019182526c4576656e745f3162386c37616360981b938301939093528152600b600052600390915262001770907f2d72af3c1b2b2956e6f694fb741556d5ca9524373974378cdbec16afa8b841649060016200485f565b5060408051606081018252600d60208083019182526c4576656e745f3033783368733960981b938301939093528152600b6000526004909152620017d8907f0c1469ad586d86b6976c45826d7ae56d76ee516e37a2bccffbe904b74dbae7ea9060016200485f565b50620018a6600b60046040518060400160405280601081526020016f41637469766974795f30623178616f3960801b8152506040518060400160405280600c81526020016b0c6c2d8c6ead8e6beccd8caf60a31b8152506040518060400160405280600381526020016204245560ec1b815250604051806060016040528060328152602001620080a5603291396040518060600160405280602a815260200162007feb602a913960408051808201909152600a8152691899179998979918191960b11b6020820152620046d7565b60408051606081018252600f60208083019182526e23b0ba32bbb0bcaf9832333137323160891b938301939093528152600c60005260039091526200190f907fd56a60595ebefebed7f22dcee6c2acc61b06cf8c68e84c88677840365d1ff92b9060016200485f565b5060408051606081018252600d60208083019182526c4576656e745f316c316575326960981b938301939093528152600c600052600490915262001977907f140aabff1a85df08546c9a350c79ae18341bde4a2cef5d2fd460885c0128ce269060016200485f565b5062001a47600c60046040518060400160405280601081526020016f41637469766974795f3171643564647760801b81525060405180604001604052806012815260200171185d591a5d17db9bdd195cd7d8d85b18dd5b60721b81525060405180604001604052806017815260200160008051602062007f4c8339815191528152506040518060800160405280605a815260200162007f6c605a91396040805160208082018352600082528251808401909352600a8352691899179998979918191960b11b9083015290620046d7565b60408051606081018252600d60208083018281526c115d995b9d17cc584dcc4d988d609a1b94840194909452928252600052600390915262001aad907fa8f2d96126c6d0ad63adabaef7bf5cf47f163fb0c218a473d28f62312d197bcf9060016200485f565b5060408051606081018252600f60208083019182526e23b0ba32bbb0bcaf9832333137323160891b938301939093528152600d600052600490915262001b17907fa5022b2bfd144bf9103d80168549b5df7c72ab60bd51bf71a02a08d844853b4a9060016200485f565b5062001c0e600d60046040518060400160405280601081526020016f41637469766974795f3075366432613960801b81525060405180604001604052806012815260200171115b5a5cdcda5bdb90d95c9d1a599a58d85d60721b81525060405180604001604052806017815260200160008051602062007f4c833981519152815250604051806020016040528060008152506040518060400160405280601681526020017f7b4365727469666963617445747564653a787878787d000000000000000000008152506040518060400160405280600a8152602001691899179998979918191960b11b815250620046d760201b60201c565b60408051606081018252600d60208083019182526c08aeccadce8be60daecda6af07609b1b938301939093528152600e600052600390915262001c75907fd6ebcc64c739277b117ce359e436534b234b76e914c80ad276abf5b5620789399060016200485f565b5060408051606081018252600f60208083019182526e476174657761795f30716470656d6760881b938301939093528152600e600052600490915262001cdf907feb3e677499e881fe1bdbc344a49c412138038a9f40883b6dc68f713aab4835239060016200485f565b5060408051606081018252600d60208083019182526c115d995b9d17cc584dcc4d988d609a1b938301939093528152600e600052600590915262001d47907f783638979e3582b3ffd6d53fc06c949ac31d1ac75a5e2c3531fbe1f91045eb539060016200485f565b5062001dfe600e60046040518060400160405280601081526020016f41637469766974795f3162746a62667760801b8152506040518060600160405280602f815260200162008076602f91396040518060400160405280600381526020016222a22360e91b81525060405180602001604052806000815250604051806020016040528060008152506040518060400160405280600a8152602001691899179998979918191960b11b815250620046d760201b60201c565b60408051606081018252601060208083019182526f1058dd1a5d9a5d1e57cc5dcccdcd8c8d60821b938301939093528152600f600052600390915262001e68907ff60b7f6a315ec68a6ac240e69dca53652b38627f709a2caa217d9e18af4d7a609060016200485f565b5060408051606081018252600d60208083019182526c22bb32b73a2f989834b8b8361b60991b938301939093528152600f600052600590915262001ed0907f58f00e8ecc6f5419941dd0bafec65a4cc188d31713fb1fe224257460930df8af9060016200485f565b5062001f8a600f60006040518060400160405280600d81526020016c4576656e745f30696e6769777760981b81525060405180602001604052806000815250604051806040016040528060138152602001725072657374615f4c61736572735f747970653160681b81525060405180602001604052806000815250604051806020016040528060008152506040518060400160405280600a8152602001691899179998979918191960b11b815250620046d760201b60201c565b60408051606081018252600f60208083019182526e23b0ba32bbb0bcaf989a3138b1b23760891b9383019390935281526010600052600390915262001ff3907f47d4745e02b343689a5e7ac121d2a352b7a15c10328a8759fd7d4cf0999002bb9060016200485f565b506200209d601060006040518060400160405280600d81526020016c22bb32b73a2f983a1935993cb160991b815250604051806020016040528060008152506040518060400160405280600381526020016222a22360e91b81525060405180602001604052806000815250604051806020016040528060008152506040518060400160405280600a8152602001691899179998979918191960b11b815250620046d760201b60201c565b60408051606081018252601060208083019182526f041637469766974795f3062716a7373360841b9383019390935281526011600052600390915262002107907ffc111d09a6e2f0958402cbe16a5aef32c9d8ddb9a4df7271140de57bfed6525a9060016200485f565b5060408051606081018252600d60208083019182526c22bb32b73a2f98991cb89c3ab760991b938301939093528152601160005260059091526200216f907fb4e18992ad424cdedc46668609f2bafcf665a8d99577618d5923c69264d9cf5f9060016200485f565b5062002225601160006040518060400160405280600d81526020016c115d995b9d17cc5b4e1b9c9e0d609a1b815250604051806020016040528060008152506040518060400160405280600f81526020016e283932b9ba30afa630b9b2b939af9960891b81525060405180602001604052806000815250604051806020016040528060008152506040518060400160405280600a8152602001691899179998979918191960b11b815250620046d760201b60201c565b60408051606081018252601060208083019182526f41637469766974795f30623178616f3960801b938301939093528152601260005260039091526200228f907f6a2b6bffaca788160f671fa62d34758b717f75a90ad5a468757c50d61f33c4439060016200485f565b5060408051606081018252600d60208083019182526c4576656e745f31776b75656b6760981b93830193909352815260126000526005909152620022f7907fd1ccbf1f9f869f51cd81e6f099f905636b057f682c706fe990614b11205169289060016200485f565b50620023a1601260006040518060400160405280600d81526020016c4576656e745f3033783368733960981b815250604051806020016040528060008152506040518060400160405280600381526020016204245560ec1b81525060405180602001604052806000815250604051806020016040528060008152506040518060400160405280600a8152602001691899179998979918191960b11b815250620046d760201b60201c565b60408051606081018252601060208083019182526f41637469766974795f3171643564647760801b938301939093528152601360005260039091526200240b907f8a8166be5f30abeb6c91ee2f07eeb0b2eb14b4d59534d10a1c143964bd6179199060016200485f565b5060408051606081018252600d60208083019182526c115d995b9d17cc19ccdb9c5c1b609a1b9383019390935281526013600052600590915262002473907f872ac8b0ab547ba6ba6686d487265a409b97d09cf043f98287b4b34e7bc04a719060016200485f565b5062002526601360006040518060400160405280600d81526020016c4576656e745f316c316575326960981b8152506040518060200160405280600081525060405180604001604052806017815260200160008051602062007f4c83398151915281525060405180602001604052806000815250604051806020016040528060008152506040518060400160405280600a8152602001691899179998979918191960b11b815250620046d760201b60201c565b60408051606081018252600d60208083019182526c22bb32b73a2f98bcbb9a353b1b60991b938301939093528152601460005260039091526200258d907f0ffe031ee7f67944a037276fd51f48fcc2fe05a729c43144606bc8777da8014f9060016200485f565b5060408051606081018252600f60208083019182526e23b0ba32bbb0bcaf98323abc3bb83d60891b93830193909352815260146000526004909152620025f7907ff7deed9399d719bf61dcb1322c056a03a885c275ab093673b0cc182b84bea0619060016200485f565b5060408051606081018252600d60208083019182526c115d995b9d17cc5b4e1b9c9e0d609a1b938301939093528152601460005260069091526200265f907f098d468efb4f874d617491296c759dc9ae46efb517fe36bcf30699ad3f714c0f9060016200485f565b506200272f601460036040518060400160405280600d81526020016c22bb32b73a2f98991cb89c3ab760991b8152506040518060400160405280601381526020017f64656d616e6465456e71756574655479706532000000000000000000000000008152506040518060400160405280600381526020016222a22360e91b81525060405180602001604052806000815250604051806020016040528060008152506040518060400160405280600a8152602001691899179998979918191960b11b815250620046d760201b60201c565b60408051606081018252600d60208083019182526c4576656e745f3164633770776560981b9383019390935281526015600052600390915262002796907f94f2575c7592b1dfd5a8846a17482da7b0e38fb10c93880d74916c5f167924649060016200485f565b5060408051606081018252600f60208083019182526e23b0ba32bbb0bcaf98323abc3bb83d60891b9383019390935281526015600052600490915262002800907f1bb30a1647f6f6723cb3a88838ce0319afabe51263fc466f2f669a7a24ad88c69060016200485f565b5060408051606081018252600d60208083019182526c4576656e745f30696e6769777760981b9383019390935281526015600052600690915262002868907feda6feebfb4ffb7de2d0dc45a13b92dc953c2ed6ee96fa7fe8179e7c4266747f9060016200485f565b5062002938601560036040518060400160405280600d81526020016c22bb32b73a2f989834b8b8361b60991b8152506040518060400160405280601381526020017f64656d616e6465456e71756574655479706531000000000000000000000000008152506040518060400160405280600381526020016222a22360e91b81525060405180602001604052806000815250604051806020016040528060008152506040518060400160405280600a8152602001691899179998979918191960b11b815250620046d760201b60201c565b60408051606081018252601060208083019182526f20b1ba34bb34ba3caf983bb2b3bc3b3560811b93830193909352815260166000526003909152620029a2907f370c8c7c6215b209793aa720f65163fbeecd5f5114008532ba0649ee234054029060016200485f565b506040805160808101825260108183019081526f41637469766974795f31346934396c3160801b606083015281528151808301909252600f82526e476174657761795f30656d7476706760881b602083810191909152808201929092526016600052600490915262002a38907f87e655ef16e4075af30c6a90c2b439f7dcd2d83a606dafadaee10cffaf918132906002620048b8565b5060408051606081018252600d60208083019182526c4576656e745f3033783368733960981b9383019390935281526016600052600690915262002aa0907f7d35cc2b0520994422695eb24e3bf4f74e9cba2704cae72ecd9ec54409a56afb9060016200485f565b5062002b70601660036040518060400160405280600d81526020016c4576656e745f31776b75656b6760981b8152506040518060400160405280601f81526020017f64656d616e6465536f75735472616974616e636543616c63756c73466c6578008152506040518060400160405280600381526020016222a22360e91b81525060405180602001604052806000815250604051806020016040528060008152506040518060400160405280600a8152602001691899179998979918191960b11b815250620046d760201b60201c565b60408051606081018252600f60208083019182526e476174657761795f30716470656d6760881b9383019390935281526017600052600390915262002bd9907f0f0519a40093d7edad68f12e2ec868fdf92a03df1cbec3e035c987d6b218f2f49060016200485f565b5060408051606081018252601060208083019182526f20b1ba34bb34ba3caf983bb2b3bc3b3560811b9383019390935281526017600052600490915262002c44907fff624574ceefb6578b3887a7448cf2ca4d120002f646987b0a9b9ad3f6dc2c109060016200485f565b5060408051606081018252600d60208083019182526c4576656e745f316c316575326960981b9383019390935281526017600052600690915262002cac907f84f72166cd6dc886f96a4867c4575af2a636c629c04227c9418bfffa7a09a9ed9060016200485f565b5062002d7c601760036040518060400160405280600d81526020016c115d995b9d17cc19ccdb9c5c1b609a1b8152506040518060400160405280601981526020017f64656d616e646543657274696669636174696f6e4574756465000000000000008152506040518060400160405280600381526020016222a22360e91b81525060405180602001604052806000815250604051806020016040528060008152506040518060400160405280600a8152602001691899179998979918191960b11b815250620046d760201b60201c565b60408051606081018252601060208083019182526f41637469766974795f306e367962653360801b9383019390935281526018600052600390915262002de6907fa3ddc4e8d053be09ec661eb04964a206cbd921c2c11fc03088857923bed1485a9060016200485f565b5060408051606081018252600d60208083019182526c22bb32b73a2f98991cb89c3ab760991b9383019390935281526018600052600490915262002e4e907f1ac66383b86984a837d32661c9fdda480194de6e2dbd3891e29fadcb763a62da9060016200485f565b5060408051606081018252600d60208083019182526c22bb32b73a2f983337343b341960991b9383019390935281526018600052600590915262002eb6907f5cc25df4297f13907c2e8c8bb7612ac7d899f1e24c7e8664c22a89192ac286a79060016200485f565b5062002f60601860036040518060400160405280600d81526020016c22bb32b73a2f98bcbb9a353b1b60991b815250604051806020016040528060008152506040518060400160405280600381526020016222a22360e91b81525060405180602001604052806000815250604051806020016040528060008152506040518060400160405280600a8152602001691899179998979918191960b11b815250620046d760201b60201c565b60408051606081018252601060208083019182526f041637469766974795f3172347a3871360841b9383019390935281526019600052600390915262002fca907fad96411afed98a37aa585ce71717b0782fa4bee47da09d8f483e5321282386119060016200485f565b5060408051606081018252600d60208083019182526c22bb32b73a2f989834b8b8361b60991b9383019390935281526019600052600490915262003032907feb5726be0cc40daa58a5f8f81528465ddb0c35e1e56e157eca916d69d6c343249060016200485f565b5060408051606081018252600d60208083019182526c4576656e745f31627a7a61346960981b938301939093528152601960005260059091526200309a907fae2f6b16f0e0ac80673d6caef460ba44e001264158bf422be5bc239018ccc6779060016200485f565b5062003144601960036040518060400160405280600d81526020016c4576656e745f3164633770776560981b815250604051806020016040528060008152506040518060400160405280600381526020016222a22360e91b81525060405180602001604052806000815250604051806020016040528060008152506040518060400160405280600a8152602001691899179998979918191960b11b815250620046d760201b60201c565b60408051606081018252600f60208083019182526e476174657761795f30656d7476706760881b938301939093528152601a6000526003909152620031ad907f68fc0e82119a780903c8e97d959a36d433d1e401ad7b7a461ff2087e524d54a89060016200485f565b5060408051606081018252600f60208083019182526e476174657761795f30716470656d6760881b938301939093528152601a600052600490915262003217907ff6eb4279aa452568dd287204244d7e29d7ca1bc7a01440f08342bf2599f4b9b69060016200485f565b5060408051606081018252600d60208083019182526c08aeccadce8be62dee6d0c4dcf609b1b938301939093528152601a60005260059091526200327f907fce1f324a8a5d5daa4a6b2281780ab321637fd4089413dd89c573bbf705027cb99060016200485f565b506200333d601a60036040518060400160405280600d81526020016c04576656e745f303935626a6d3609c1b8152506040518060400160405280600b81526020016a52656a656374457475646560a81b8152506040518060400160405280600381526020016222a22360e91b81525060405180602001604052806000815250604051806020016040528060008152506040518060400160405280600a8152602001691899179998979918191960b11b815250620046d760201b60201c565b60408051606081018252601060208083019182526f1058dd1a5d9a5d1e57cc5dcccdcd8c8d60821b938301939093528152601b6000526004909152620033a7907fd8906b3e50614809ec86d7bb29bf3c4e8647f5376e87f81687a4a770137f7d599060016200485f565b5060408051606081018252600d60208083019182526c4576656e745f3164633770776560981b938301939093528152601b60005260069091526200340f907f394d598d1fcded9c4097f7e0c482e53467cd63c2a9019859406e3f92603227639060016200485f565b50620034c9601b60016040518060400160405280600d81526020016c4576656e745f31627a7a61346960981b81525060405180602001604052806000815250604051806040016040528060138152602001725072657374615f4c61736572735f747970653160681b81525060405180602001604052806000815250604051806020016040528060008152506040518060400160405280600a8152602001691899179998979918191960b11b815250620046d760201b60201c565b60408051606081018252601060208083019182526f41637469766974795f3162746a62667760801b938301939093528152601c600052600490915262003533907f69bc8c08a6b955aec2072ca430bac7123bc3539264a736d1a23621b0f0c62f319060016200485f565b50620035dd601c60016040518060400160405280600d81526020016c08aeccadce8be60daecda6af07609b1b815250604051806020016040528060008152506040518060400160405280600381526020016222a22360e91b81525060405180602001604052806000815250604051806020016040528060008152506040518060400160405280600a8152602001691899179998979918191960b11b815250620046d760201b60201c565b60408051606081018252601060208083019182526f041637469766974795f3062716a7373360841b938301939093528152601d600052600490915262003647907f547911337f50119fe7598b1be3fa84d3d0506ffe5c730db17c43bc74040bbfce9060016200485f565b5060408051606081018252600d60208083019182526c22bb32b73a2f98bcbb9a353b1b60991b938301939093528152601d6000526006909152620036af907fc695a062ea1c0f75fd266ccc34c407f7d5229534fc96b1932c122008903fa3539060016200485f565b5062003765601d60016040518060400160405280600d81526020016c22bb32b73a2f983337343b341960991b815250604051806020016040528060008152506040518060400160405280600f81526020016e283932b9ba30afa630b9b2b939af9960891b81525060405180602001604052806000815250604051806020016040528060008152506040518060400160405280600a8152602001691899179998979918191960b11b815250620046d760201b60201c565b60408051606081018252601060208083019182526f41637469766974795f30623178616f3960801b938301939093528152601e6000526004909152620037cf907f9041ee6632bd2142b9cc58f348e0761559f8d964fe48ac6d87dc2b689213e3bb9060016200485f565b5062003879601e60016040518060400160405280600d81526020016c4576656e745f3162386c37616360981b815250604051806020016040528060008152506040518060400160405280600381526020016204245560ec1b81525060405180602001604052806000815250604051806020016040528060008152506040518060400160405280600a8152602001691899179998979918191960b11b815250620046d760201b60201c565b60408051606081018252601060208083019182526f41637469766974795f3075366432613960801b938301939093528152601f6000526004909152620038e3907f4c55bec45be59a99d441ccb7880f9b68f316b687ab5ac77efc4386a8070077689060016200485f565b5060408051606081018252601060208083019182526f41637469766974795f3162746a62667760801b938301939093528152601f60005260069091526200394e907fe0f48684da2738819afc60049d8a627ffa250d5e1c7f8a7fedb1ce999915baf69060016200485f565b5062003a01601f60016040518060400160405280600d81526020016c115d995b9d17cc584dcc4d988d609a1b8152506040518060200160405280600081525060405180604001604052806017815260200160008051602062007f4c83398151915281525060405180602001604052806000815250604051806020016040528060008152506040518060400160405280600a8152602001691899179998979918191960b11b815250620046d760201b60201c565b60408051606081018252600f60208083019182526e23b0ba32bbb0bcaf9832333137323160891b9383019390935281526000829052600490915262003a6a907f96648185182926add89ee4d5c354d3f3e8383a8966d4d875bd8575e13aa27a969060016200485f565b5060408051606081018252600d60208083019182526c04576656e745f303935626a6d3609c1b9383019390935281526000829052600690915262003ad2907f8962290a7218a9ad62224806fc2c8bf61f46f0c0289c25ddd8bb0f483a9600329060016200485f565b5062003b85602060016040518060400160405280600d81526020016c08aeccadce8be62dee6d0c4dcf609b1b8152506040518060200160405280600081525060405180604001604052806017815260200160008051602062007f4c83398151915281525060405180602001604052806000815250604051806020016040528060008152506040518060400160405280600a8152602001691899179998979918191960b11b815250620046d760201b60201c565b6040805160808101825260108183019081526f41637469766974795f31346934396c3160801b606083015281528151808301909252600d82526c4576656e745f31776b75656b6760981b602083810191909152808201929092526021600052600390915262003c18907fb79c508b45d95db38395ed273cca5afa4bcb8f1225ec7e9c849430db27d6f0fe906002620048b8565b5060408051606081018252600d60208083019182526c04576656e745f303935626a6d3609c1b9383019390935281526021600052600490915262003c80907f1a6a7f21c46330bc6f6a1e986d3ef56bc7833cc3006bfde177cce9f1428376599060016200485f565b5062003d2c602160056040518060400160405280600f81526020016e476174657761795f30656d7476706760881b815250604051806020016040528060008152506040518060400160405280600381526020016222a22360e91b81525060405180602001604052806000815250604051806020016040528060008152506040518060400160405280600a8152602001691899179998979918191960b11b815250620046d760201b60201c565b60408051608081018252600d8183019081526c08aeccadce8be62dee6d0c4dcf609b1b606083015281528151808301909252601082526f41637469766974795f3075366432613960801b602083810191909152808201929092526022600052600390915262003dbf907f9f4e12e393433b9749089d7660b578840ae05c9423ce1aefceb0c80c340a21c6906002620048b8565b5060408051606081018252601060208083019182526f41637469766974795f3171643564647760801b9383019390935281526022600052600490915262003e2a907f7817f7889f42986426820e39b6be36471d2facb3b03609d32089206107cd0e8a9060016200485f565b5062003edf602260056040518060400160405280600f81526020016e23b0ba32bbb0bcaf9832333137323160891b8152506040518060200160405280600081525060405180604001604052806017815260200160008051602062007f4c83398151915281525060405180602001604052806000815250604051806020016040528060008152506040518060400160405280600a8152602001691899179998979918191960b11b815250620046d760201b60201c565b6040805160a081018252600f606082019081526e23b0ba32bbb0bcaf98323abc3bb83d60891b608083015281528151808301835260108082526f41637469766974795f3079793579786960801b60208381019190915280840192909252835180850185529081526f41637469766974795f3071306939756160801b8183015292820192909252602360005260039182905262003f9e917f4f8c9d329171a3577e6beb939d329b1f26da4c7a51f25bbe134c866f0feee945919062004903565b5060408051606081018252600d60208083019182526c22bb32b73a2f983a1935993cb160991b9383019390935281526023600052600490915262004006907fb91c9b6e3cf94511f58867e361a9e0dd6a5c84a5d216d6f87ae5fdb9bf257b2b9060016200485f565b50620040b2602360066040518060400160405280600f81526020016e23b0ba32bbb0bcaf989a3138b1b23760891b815250604051806020016040528060008152506040518060400160405280600381526020016222a22360e91b81525060405180602001604052806000815250604051806020016040528060008152506040518060400160405280600a8152602001691899179998979918191960b11b815250620046d760201b60201c565b60408051606081018252601060208083019182526f41637469766974795f3071786b72383760801b938301939093528152602460005260039091526200411c907f10f5232ee9f6343d8bf0b7c9043a31ee616d8f028dcf3d2e9033ff8e0ce0ef0f9060016200485f565b506040805160a0810182526010606082018181526f20b1ba34bb34ba3caf981a3138bd311b60811b60808401528252825180840184528181526f41637469766974795f3071306939756160801b60208281019190915280840191909152835180850185529182526f41637469766974795f3079793579786960801b828201529282015260246000526004909152620041d8907f724ad3d24f57aae4bebead5383879105ce62b9d5fa67d4343ae412b59bd7971d90600362004903565b5062004284602460066040518060400160405280600f81526020016e476174657761795f30617a6d77716d60881b815250604051806020016040528060008152506040518060400160405280600381526020016222a22360e91b81525060405180602001604052806000815250604051806020016040528060008152506040518060400160405280600a8152602001691899179998979918191960b11b815250620046d760201b60201c565b60408051608081018252600d8183018181526c22bb32b73a2f989834b8b8361b60991b60608401528252825180840190935282526c22bb32b73a2f98991cb89c3ab760991b602083810191909152808201929092526025600052600390915262004312907f37e56e4c2b6ed73b31a7a63e641bfee67245b50921806a650aa65bb58a213ba7906002620048b8565b5060408051606081018252600f60208083019182526e23b0ba32bbb0bcaf989a3138b1b23760891b938301939093528152602560005260049091526200437c907f2b9c662716c34a6b24cd9b4f63fe731a136a5a3399a9750ed5cdee99e40faa3a9060016200485f565b5062004428602560066040518060400160405280600f81526020016e23b0ba32bbb0bcaf98323abc3bb83d60891b815250604051806020016040528060008152506040518060400160405280600381526020016222a22360e91b81525060405180602001604052806000815250604051806020016040528060008152506040518060400160405280600a8152602001691899179998979918191960b11b815250620046d760201b60201c565b60408051606081018252601060208083019182526f41637469766974795f317068796b696f60801b9383019390935281526026600052600390915262004492907f6e80044b428a86ddb5f7277680f16ac528219bbc3f477f367a023fd1680fef059060016200485f565b506040805160808101825260108183018181526f041637469766974795f3172347a3871360841b60608401528252825180840190935282526f41637469766974795f306e367962653360801b602083810191909152808201929092526026600052600490915262004527907ff8f9fbe49577efd32b3647a88078df070961ceaa913763423b34eeb65953041b906002620048b8565b50620045d3602660066040518060400160405280600f81526020016e476174657761795f3166333673686960881b815250604051806020016040528060008152506040518060400160405280600381526020016222a22360e91b81525060405180602001604052806000815250604051806020016040528060008152506040518060400160405280600a8152602001691899179998979918191960b11b815250620046d760201b60201c565b62004bcd565b6000816001600160401b03811115620045f657620045f662004a06565b60405190808252806020026020018201604052801562004620578160200160208202803683370190505b50905060005b8281101562004659578082828151811062004645576200464562004a1c565b602090810291909101015260010162004626565b5060408051606081018252600854808252602080830187815283850186905260009283529082905292902081518155915190919060018201906200469e908262004ac3565b5060408201518051620046bc9160028401916020909101906200494e565b5050600854620046cf9150600162004b8f565b600855505050565b604051806101000160405280898152602001886007811115620046fe57620046fe62004bb7565b815260200187815260200186815260200185815260200184815260200183815260200182815250600260008a81526020019081526020016000206000820151816000015560208201518160010160006101000a81548160ff021916908360078111156200476f576200476f62004bb7565b0217905550604082015160028201906200478a908262004ac3565b5060608201516003820190620047a1908262004ac3565b5060808201516004820190620047b8908262004ac3565b5060a08201516005820190620047cf908262004ac3565b5060c08201516006820190620047e6908262004ac3565b5060e08201516007820190620047fd908262004ac3565b5050505050505050505050565b8280548282559060005260206000209081019282156200484d579160200282015b828111156200484d578251829060ff169055916020019190600101906200482b565b506200485b9291506200498c565b5090565b828054828255906000526020600020908101928215620048aa579160200282015b82811115620048aa578251829062004899908262004ac3565b509160200191906001019062004880565b506200485b929150620049a3565b828054828255906000526020600020908101928215620048aa579160200282015b82811115620048aa5782518290620048f2908262004ac3565b5091602001919060010190620048d9565b828054828255906000526020600020908101928215620048aa579160200282015b82811115620048aa57825182906200493d908262004ac3565b509160200191906001019062004924565b8280548282559060005260206000209081019282156200484d579160200282015b828111156200484d5782518255916020019190600101906200496f565b5b808211156200485b57600081556001016200498d565b808211156200485b576000620049ba8282620049c4565b50600101620049a3565b508054620049d29062004a32565b6000825580601f10620049e3575050565b601f01602090049060005260206000209081019062004a0391906200498c565b50565b634e487b7160e01b600052604160045260246000fd5b634e487b7160e01b600052603260045260246000fd5b600181811c9082168062004a4757607f821691505b60208210810362004a6857634e487b7160e01b600052602260045260246000fd5b50919050565b601f82111562004abe576000816000526020600020601f850160051c8101602086101562004a995750805b601f850160051c820191505b8181101562004aba5782815560010162004aa5565b5050505b505050565b81516001600160401b0381111562004adf5762004adf62004a06565b62004af78162004af0845462004a32565b8462004a6e565b602080601f83116001811462004b2f576000841562004b165750858301515b600019600386901b1c1916600185901b17855562004aba565b600085815260208120601f198616915b8281101562004b605788860151825594840194600190910190840162004b3f565b508582101562004b7f5787850151600019600388901b60f8161c191681555b5050505050600190811b01905550565b8082018082111562004bb157634e487b7160e01b600052601160045260246000fd5b92915050565b634e487b7160e01b600052602160045260246000fd5b61333e8062004bdd6000396000f3fe60806040526004361061014b5760003560e01c806379a42d06116100b657806398d46dfd1161006f57806398d46dfd146103ee578063a58603e01461040e578063af12a5711461042e578063bed34bba14610443578063c29de7ca14610463578063ecd3645e1461048357600080fd5b806379a42d061461033257806386209b871461034857806386f612271461037b57806394d55eaf1461039b57806395755d17146103bb57806397ada366146103ce57600080fd5b80633a3e8a95116101085780633a3e8a951461025f5780634b5ae0771461028e578063581cf028146102a357806359b97b97146102c35780635f03facd146102e357806378660f5e1461031257600080fd5b806309be70b2146101505780630b09c8ce1461017b5780630d1657e8146101ba57806311ae9ed2146101ee57806319dfc19d1461020357806324a4dd9414610230575b600080fd5b34801561015c57600080fd5b506101656104a3565b60405161017291906129b5565b60405180910390f35b34801561018757600080fd5b506101aa6101963660046129f9565b600090815260066020526040902054151590565b6040519015158152602001610172565b3480156101c657600080fd5b506101da6101d53660046129f9565b6104fb565b604051610172989796959493929190612a78565b3480156101fa57600080fd5b50610165610871565b34801561020f57600080fd5b5061022361021e366004612b29565b6108c7565b6040516101729190612b4b565b34801561023c57600080fd5b506101aa61024b3660046129f9565b600090815260036020526040902054151590565b34801561026b57600080fd5b506101aa61027a3660046129f9565b600090815260046020526040902054151590565b6102a161029c3660046129f9565b610980565b005b3480156102af57600080fd5b506102236102be366004612b29565b610a14565b3480156102cf57600080fd5b506101aa6102de366004612bac565b610a30565b3480156102ef57600080fd5b506101aa6102fe3660046129f9565b600090815260056020526040902054151590565b34801561031e57600080fd5b5061016561032d3660046129f9565b610a7b565b61033a610ade565b604051908152602001610172565b34801561035457600080fd5b506103686103633660046129f9565b610af1565b6040516101729796959493929190612c5e565b34801561038757600080fd5b50610223610396366004612cd9565b610e29565b3480156103a757600080fd5b506102236103b6366004612b29565b610e42565b6102a16103c9366004612d72565b610e5e565b3480156103da57600080fd5b5061033a6103e9366004612e04565b61106a565b3480156103fa57600080fd5b506102a1610409366004612e55565b6110e2565b34801561041a57600080fd5b506102a1610429366004612f66565b611203565b34801561043a57600080fd5b506101656112f3565b34801561044f57600080fd5b506101aa61045e366004612fab565b611349565b34801561046f57600080fd5b506102a161047e366004612fab565b6113a2565b34801561048f57600080fd5b5061022361049e366004612b29565b6115fb565b6060600a8054806020026020016040519081016040528092919081815260200182805480156104f157602002820191906000526020600020905b8154815260200190600101908083116104dd575b5050505050905090565b6002602081905260009182526040909120805460018201549282018054919360ff1692916105289061300f565b80601f01602080910402602001604051908101604052809291908181526020018280546105549061300f565b80156105a15780601f10610576576101008083540402835291602001916105a1565b820191906000526020600020905b81548152906001019060200180831161058457829003601f168201915b5050505050908060030180546105b69061300f565b80601f01602080910402602001604051908101604052809291908181526020018280546105e29061300f565b801561062f5780601f106106045761010080835404028352916020019161062f565b820191906000526020600020905b81548152906001019060200180831161061257829003601f168201915b5050505050908060040180546106449061300f565b80601f01602080910402602001604051908101604052809291908181526020018280546106709061300f565b80156106bd5780601f10610692576101008083540402835291602001916106bd565b820191906000526020600020905b8154815290600101906020018083116106a057829003601f168201915b5050505050908060050180546106d29061300f565b80601f01602080910402602001604051908101604052809291908181526020018280546106fe9061300f565b801561074b5780601f106107205761010080835404028352916020019161074b565b820191906000526020600020905b81548152906001019060200180831161072e57829003601f168201915b5050505050908060060180546107609061300f565b80601f016020809104026020016040519081016040528092919081815260200182805461078c9061300f565b80156107d95780601f106107ae576101008083540402835291602001916107d9565b820191906000526020600020905b8154815290600101906020018083116107bc57829003601f168201915b5050505050908060070180546107ee9061300f565b80601f016020809104026020016040519081016040528092919081815260200182805461081a9061300f565b80156108675780601f1061083c57610100808354040283529160200191610867565b820191906000526020600020905b81548152906001019060200180831161084a57829003601f168201915b5050505050905088565b6060600b8054806020026020016040519081016040528092919081815260200182805480156104f157602002820191906000526020600020908154815260200190600101908083116104dd575050505050905090565b600360205281600052604060002081815481106108e357600080fd5b906000526020600020016000915091505080546108ff9061300f565b80601f016020809104026020016040519081016040528092919081815260200182805461092b9061300f565b80156109785780601f1061094d57610100808354040283529160200191610978565b820191906000526020600020905b81548152906001019060200180831161095b57829003601f168201915b505050505081565b600061098c6000610a7b565b6000838152600560209081526040808320546002928390529083206001015493945015159260ff1660078111156109c5576109c5612a12565b149050816109dc576109d78484611617565b610a04565b8180156109e65750805b156109f5576109d784846116fb565b80610a0457610a048484611617565b610a0e8484611719565b50505050565b600560205281600052604060002081815481106108e357600080fd5b6000805b8251811015610a6f5783838281518110610a5057610a50613049565b602002602001015103610a67576001915050610a75565b600101610a34565b50600090505b92915050565b60008181526020818152604091829020600201805483518184028101840190945280845260609392830182828015610ad257602002820191906000526020600020905b815481526020019060010190808311610abe575b50505050509050919050565b6000610aeb600a82612937565b50600090565b600081815260026020526040812080546001909101548291606091829182918291829160ff166007811115610b2857610b28612a12565b60008a8152600260208190526040909120908101805490916003810191600582019160068101916004909101908590610b609061300f565b80601f0160208091040260200160405190810160405280929190818152602001828054610b8c9061300f565b8015610bd95780601f10610bae57610100808354040283529160200191610bd9565b820191906000526020600020905b815481529060010190602001808311610bbc57829003601f168201915b50505050509450838054610bec9061300f565b80601f0160208091040260200160405190810160405280929190818152602001828054610c189061300f565b8015610c655780601f10610c3a57610100808354040283529160200191610c65565b820191906000526020600020905b815481529060010190602001808311610c4857829003601f168201915b50505050509350828054610c789061300f565b80601f0160208091040260200160405190810160405280929190818152602001828054610ca49061300f565b8015610cf15780601f10610cc657610100808354040283529160200191610cf1565b820191906000526020600020905b815481529060010190602001808311610cd457829003601f168201915b50505050509250818054610d049061300f565b80601f0160208091040260200160405190810160405280929190818152602001828054610d309061300f565b8015610d7d5780601f10610d5257610100808354040283529160200191610d7d565b820191906000526020600020905b815481529060010190602001808311610d6057829003601f168201915b50505050509150808054610d909061300f565b80601f0160208091040260200160405190810160405280929190818152602001828054610dbc9061300f565b8015610e095780601f10610dde57610100808354040283529160200191610e09565b820191906000526020600020905b815481529060010190602001808311610dec57829003601f168201915b505050505090509650965096509650965096509650919395979092949650565b600160205260009081526040902080546108ff9061300f565b600460205281600052604060002081815481106108e357600080fd5b60008481526002602052604090206004018054610f03918591610e809061300f565b80601f0160208091040260200160405190810160405280929190818152602001828054610eac9061300f565b8015610ef95780601f10610ece57610100808354040283529160200191610ef9565b820191906000526020600020905b815481529060010190602001808311610edc57829003601f168201915b5050505050611349565b610f0c57600080fd5b600084815260026020526040902060010154610f2a9060ff16611760565b610f3357600080fd5b6000600a8581548110610f4857610f48613049565b906000526020600020015460011490506000600b8681548110610f6d57610f6d613049565b906000526020600020015460011490508180610f865750805b1561106257600560008781526002602052604090206001015460ff166007811115610fb357610fb3612a12565b03610fc657610fc186611823565b611007565b600660008781526002602052604090206001015460ff166007811115610fee57610fee612a12565b03610ffc57610fc1866119f6565b611007868585611d07565b336001600160a01b03167f32e4ea1ee1b7d04aff7692ad7aa9a1db44a16ce2b519efa717ddd98034b9f1c3600260008981526020019081526020016000206002018686604051611059939291906130dc565b60405180910390a25b505050505050565b6000806110776000610a7b565b905060005b81518110156110d7576110c3846002600085858151811061109f5761109f613049565b602002602001015181526020019081526020016000206002018054610e809061300f565b156110cf579392505050565b60010161107c565b506101949392505050565b60405180610100016040528089815260200188600781111561110657611106612a12565b815260200187815260200186815260200185815260200184815260200183815260200182815250600260008a81526020019081526020016000206000820151816000015560208201518160010160006101000a81548160ff0219169083600781111561117457611174612a12565b02179055506040820151600282019061118d9082613167565b50606082015160038201906111a29082613167565b50608082015160048201906111b79082613167565b5060a082015160058201906111cc9082613167565b5060c082015160068201906111e19082613167565b5060e082015160078201906111f69082613167565b5050505050505050505050565b60008167ffffffffffffffff81111561121e5761121e612b65565b604051908082528060200260200182016040528015611247578160200160208202803683370190505b50905060005b8281101561127b578082828151811061126857611268613049565b602090810291909101015260010161124d565b5060408051606081018252600854808252602080830187815283850186905260009283529082905292902081518155915190919060018201906112be9082613167565b50604082015180516112da916002840191602090910190612955565b50506008546112eb91506001613227565b600855505050565b6060600c8054806020026020016040519081016040528092919081815260200182805480156104f157602002820191906000526020600020908154815260200190600101908083116104dd575050505050905090565b60008160405160200161135c9190613248565b60405160208183030381529060405280519060200120836040516020016113839190613248565b6040516020818303038152906040528051906020012014905092915050565b60006113ad8361106a565b90506001600a82815481106113c4576113c4613049565b90600052602060002001819055506000600c82815481106113e7576113e7613049565b90600052602060002001819055506000600b828154811061140a5761140a613049565b906000526020600020018190555060005b60078360405161142b9190613248565b9081526040519081900360200190205481101561158057600061150e6007856040516114579190613248565b9081526020016040518091039020838154811061147657611476613049565b90600052602060002001805461148b9061300f565b80601f01602080910402602001604051908101604052809291908181526020018280546114b79061300f565b80156115045780601f106114d957610100808354040283529160200191611504565b820191906000526020600020905b8154815290600101906020018083116114e757829003601f168201915b505050505061106a565b90506000600a828154811061152557611525613049565b90600052602060002001819055506000600c828154811061154857611548613049565b90600052602060002001819055506000600b828154811061156b5761156b613049565b6000918252602090912001555060010161141b565b50600061158c8361106a565b90506000600a82815481106115a3576115a3613049565b90600052602060002001819055506000600c82815481106115c6576115c6613049565b90600052602060002001819055506000600b82815481106115e9576115e9613049565b60009182526020909120015550505050565b600660205281600052604060002081815481106108e357600080fd5b60005b6000838152600360205260409020548110156116f657600083815260036020526040902080546116ee9184918490811061165657611656613049565b90600052602060002001805461166b9061300f565b80601f01602080910402602001604051908101604052809291908181526020018280546116979061300f565b80156116e45780601f106116b9576101008083540402835291602001916116e4565b820191906000526020600020905b8154815290600101906020018083116116c757829003601f168201915b5050505050611d79565b60010161161a565b505050565b60006117078383611e2d565b905080156116f6576116f68383611617565b60005b6000838152600660205260409020548110156116f657600083815260066020526040902080546117589184918490811061165657611656613049565b60010161171c565b60008082600781111561177557611775612a12565b14806117925750600282600781111561179057611790612a12565b145b806117ae575060038260078111156117ac576117ac612a12565b145b806117ca575060048260078111156117c8576117c8612a12565b145b806117e6575060018260078111156117e4576117e4612a12565b145b806118025750600582600781111561180057611800612a12565b145b80610a755750600682600781111561181c5761181c612a12565b1492915050565b6000600a828154811061183857611838613049565b90600052602060002001819055506001600c828154811061185b5761185b613049565b906000526020600020018190555060006118756000610a7b565b905060005b6000838152600360205260409020548110156116f65760008381526003602052604081208054839081106118b0576118b0613049565b9060005260206000200180546118c59061300f565b80601f01602080910402602001604051908101604052809291908181526020018280546118f19061300f565b801561193e5780601f106119135761010080835404028352916020019161193e565b820191906000526020600020905b81548152906001019060200180831161192157829003601f168201915b5050505050905060005b83518110156119ec5761196b826002600087858151811061109f5761109f613049565b156119e4576001600a85838151811061198657611986613049565b60200260200101518154811061199e5761199e613049565b9060005260206000200181905550600d8482815181106119c0576119c0613049565b602090810291909101810151825460018101845560009384529190922001556119ec565b600101611948565b505060010161187a565b600080611a036000610a7b565b905060005b600084815260046020526040902054811015611b61576000848152600460205260408120805483908110611a3e57611a3e613049565b906000526020600020018054611a539061300f565b80601f0160208091040260200160405190810160405280929190818152602001828054611a7f9061300f565b8015611acc5780601f10611aa157610100808354040283529160200191611acc565b820191906000526020600020905b815481529060010190602001808311611aaf57829003601f168201915b5050505050905060005b8351811015611b5757611af9826002600087858151811061109f5761109f613049565b15611b4f57600c848281518110611b1257611b12613049565b602002602001015181548110611b2a57611b2a613049565b9060005260206000200154600103611b4a57611b47856001613227565b94505b611b57565b600101611ad6565b5050600101611a08565b5060008381526004602052604090205482036116f6576000600a8481548110611b8c57611b8c613049565b90600052602060002001819055506001600c8481548110611baf57611baf613049565b906000526020600020018190555060005b600084815260036020526040902054811015610a0e576000848152600360205260408120805483908110611bf657611bf6613049565b906000526020600020018054611c0b9061300f565b80601f0160208091040260200160405190810160405280929190818152602001828054611c379061300f565b8015611c845780601f10611c5957610100808354040283529160200191611c84565b820191906000526020600020905b815481529060010190602001808311611c6757829003601f168201915b5050505050905060005b8351811015611cfd57611cb1826002600087858151811061109f5761109f613049565b15611cf5576001600a858381518110611ccc57611ccc613049565b602002602001015181548110611ce457611ce4613049565b600091825260209091200155611cfd565b600101611c8e565b5050600101611bc0565b611d12838383611f9d565b611d6c83600d805480602002602001604051908101604052809291908181526020018280548015611d6257602002820191906000526020600020905b815481526020019060010190808311611d4e575b5050505050610a30565b156116f6576116f66120a6565b60005b82518110156116f657611d9f826002600086858151811061109f5761109f613049565b8015611de157506001600c848381518110611dbc57611dbc613049565b602002602001015181548110611dd457611dd4613049565b9060005260206000200154105b15611e25576001600a848381518110611dfc57611dfc613049565b602002602001015181548110611e1457611e14613049565b600091825260209091200155505050565b600101611d7c565b6000805b8251811015610a6f5760008481526005602052604081208054611f049290611e5b57611e5b613049565b906000526020600020018054611e709061300f565b80601f0160208091040260200160405190810160405280929190818152602001828054611e9c9061300f565b8015611ee95780601f10611ebe57610100808354040283529160200191611ee9565b820191906000526020600020905b815481529060010190602001808311611ecc57829003601f168201915b50505050506002600086858151811061109f5761109f613049565b8015611f8657506000600b848381518110611f2157611f21613049565b602002602001015181548110611f3957611f39613049565b90600052602060002001541180611f8657506000600c848381518110611f6157611f61613049565b602002602001015181548110611f7957611f79613049565b9060005260206000200154115b15611f95576001915050610a75565b600101611e31565b600083815260026020526040812060060180546120519190611fbe9061300f565b80601f0160208091040260200160405190810160405280929190818152602001828054611fea9061300f565b80156120375780601f1061200c57610100808354040283529160200191612037565b820191906000526020600020905b81548152906001019060200180831161201a57829003601f168201915b505050505060405180602001604052806000815250611349565b159050600061207a600260008781526020019081526020016000206005018054611fbe9061300f565b159050816120935761208e85858584612108565b61209f565b61209f8585858461249f565b5050505050565b60005b600d548110156120f9576000600a600d83815481106120ca576120ca613049565b9060005260206000200154815481106120e5576120e5613049565b6000918252602090912001556001016120a9565b50612106600d6000612937565b565b801561212b5760008481526002602052604090206005016121298482613167565b505b60006121376000610a7b565b6000868152600660205260408120549192509015159061215787846124df565b9050600061216588856124df565b905060006007600260008b815260200190815260200160002060020160405161218e9190613264565b90815260405190819003602001902054151590508380156121ac5750805b1561230e576000898152600660205260408120805461230992906121d2576121d2613049565b9060005260206000200180546121e79061300f565b80601f01602080910402602001604051908101604052809291908181526020018280546122139061300f565b80156122605780601f1061223557610100808354040283529160200191612260565b820191906000526020600020905b81548152906001019060200180831161224357829003601f168201915b5050505050600260008c815260200190815260200160002060020180546122869061300f565b80601f01602080910402602001604051908101604052809291908181526020018280546122b29061300f565b80156122ff5780601f106122d4576101008083540402835291602001916122ff565b820191906000526020600020905b8154815290600101906020018083116122e257829003601f168201915b50505050506113a2565b612494565b83158061232057508280156123205750815b1561232e5761230989612627565b8261243b576001600c8a8154811061234857612348613049565b90600052602060002001819055506000600a8a8154811061236b5761236b613049565b90600052602060002001819055506123098986600660008d81526020019081526020016000206000815481106123a3576123a3613049565b9060005260206000200180546123b89061300f565b80601f01602080910402602001604051908101604052809291908181526020018280546123e49061300f565b80156124315780601f1061240657610100808354040283529160200191612431565b820191906000526020600020905b81548152906001019060200180831161241457829003601f168201915b50505050506126b1565b336001600160a01b03167ffc98137258110aa472f6dbf39f2051f7045162382f61b13bb1445bdb0a3e8b8a600260008c81526020019081526020016000206002018960405161248b9291906132da565b60405180910390a25b505050505050505050565b600b84815481106124b2576124b2613049565b90600052602060002001546000036124d4576124cf8482856127ab565b610a0e565b610a0e8484846127e3565b600080805b835181101561261f576000858152600560205260409020541561261757600085815260056020526040812080546125cb929061252257612522613049565b9060005260206000200180546125379061300f565b80601f01602080910402602001604051908101604052809291908181526020018280546125639061300f565b80156125b05780601f10612585576101008083540402835291602001916125b0565b820191906000526020600020905b81548152906001019060200180831161259357829003601f168201915b50505050506002600087858151811061109f5761109f613049565b1561261757600c8482815181106125e4576125e4613049565b6020026020010151815481106125fc576125fc613049565b9060005260206000200154600103612617576001915061261f565b6001016124e4565b509392505050565b6000600b828154811061263c5761263c613049565b90600052602060002001819055506000600a828154811061265f5761265f613049565b90600052602060002001819055506001600c828154811061268257612682613049565b600091825260208083209091019290925582815260039091526040902054156126ae576126ae81610980565b50565b60005b600084815260066020526040902054811015610a0e5760005b83518110156127a2576126f0836002600087858151811061109f5761109f613049565b801561273257506001600c85838151811061270d5761270d613049565b60200260200101518154811061272557612725613049565b9060005260206000200154105b1561279a576001600c85838151811061274d5761274d613049565b60200260200101518154811061276557612765613049565b906000526020600020018190555061279584828151811061278857612788613049565b6020026020010151610980565b6127a2565b6001016126cd565b506001016126b4565b81156127ce5760008381526002602052604090206005016127cc8282613167565b505b6001600b8481548110611e1457611e14613049565b60008381526002602052604090206006016127fe8382613167565b50600061280b6000610a7b565b6000858152600660205260408120549192509015159061282b86846124df565b9050600061283987856124df565b905082158061284d575081801561284d5750805b156128605761285b87612627565b61292e565b816128d5576001600b888154811061287a5761287a613049565b90600052602060002001819055506000600a888154811061289d5761289d613049565b906000526020600020018190555061285b8785600660008b81526020019081526020016000206000815481106123a3576123a3613049565b336001600160a01b03167ffc98137258110aa472f6dbf39f2051f7045162382f61b13bb1445bdb0a3e8b8a600260008a8152602001908152602001600020600201876040516129259291906132da565b60405180910390a25b50505050505050565b50805460008255906000526020600020908101906126ae91906129a0565b828054828255906000526020600020908101928215612990579160200282015b82811115612990578251825591602001919060010190612975565b5061299c9291506129a0565b5090565b5b8082111561299c57600081556001016129a1565b6020808252825182820181905260009190848201906040850190845b818110156129ed578351835292840192918401916001016129d1565b50909695505050505050565b600060208284031215612a0b57600080fd5b5035919050565b634e487b7160e01b600052602160045260246000fd5b60005b83811015612a43578181015183820152602001612a2b565b50506000910152565b60008151808452612a64816020860160208601612a28565b601f01601f19169290920160200192915050565b60006101008a835260088a10612a9e57634e487b7160e01b600052602160045260246000fd5b896020840152806040840152612ab68184018a612a4c565b90508281036060840152612aca8189612a4c565b90508281036080840152612ade8188612a4c565b905082810360a0840152612af28187612a4c565b905082810360c0840152612b068186612a4c565b905082810360e0840152612b1a8185612a4c565b9b9a5050505050505050505050565b60008060408385031215612b3c57600080fd5b50508035926020909101359150565b602081526000612b5e6020830184612a4c565b9392505050565b634e487b7160e01b600052604160045260246000fd5b604051601f8201601f1916810167ffffffffffffffff81118282101715612ba457612ba4612b65565b604052919050565b60008060408385031215612bbf57600080fd5b8235915060208084013567ffffffffffffffff80821115612bdf57600080fd5b818601915086601f830112612bf357600080fd5b813581811115612c0557612c05612b65565b8060051b9150612c16848301612b7b565b8181529183018401918481019089841115612c3057600080fd5b938501935b83851015612c4e57843582529385019390850190612c35565b8096505050505050509250929050565b87815286602082015260e060408201526000612c7d60e0830188612a4c565b8281036060840152612c8f8188612a4c565b90508281036080840152612ca38187612a4c565b905082810360a0840152612cb78186612a4c565b905082810360c0840152612ccb8185612a4c565b9a9950505050505050505050565b600060208284031215612ceb57600080fd5b81356001600160a01b0381168114612b5e57600080fd5b600082601f830112612d1357600080fd5b813567ffffffffffffffff811115612d2d57612d2d612b65565b612d40601f8201601f1916602001612b7b565b818152846020838601011115612d5557600080fd5b816020850160208301376000918101602001919091529392505050565b60008060008060808587031215612d8857600080fd5b84359350602085013567ffffffffffffffff80821115612da757600080fd5b612db388838901612d02565b94506040870135915080821115612dc957600080fd5b612dd588838901612d02565b93506060870135915080821115612deb57600080fd5b50612df887828801612d02565b91505092959194509250565b600060208284031215612e1657600080fd5b813567ffffffffffffffff811115612e2d57600080fd5b612e3984828501612d02565b949350505050565b803560088110612e5057600080fd5b919050565b600080600080600080600080610100898b031215612e7257600080fd5b88359750612e8260208a01612e41565b9650604089013567ffffffffffffffff80821115612e9f57600080fd5b612eab8c838d01612d02565b975060608b0135915080821115612ec157600080fd5b612ecd8c838d01612d02565b965060808b0135915080821115612ee357600080fd5b612eef8c838d01612d02565b955060a08b0135915080821115612f0557600080fd5b612f118c838d01612d02565b945060c08b0135915080821115612f2757600080fd5b612f338c838d01612d02565b935060e08b0135915080821115612f4957600080fd5b50612f568b828c01612d02565b9150509295985092959890939650565b60008060408385031215612f7957600080fd5b823567ffffffffffffffff811115612f9057600080fd5b612f9c85828601612d02565b95602094909401359450505050565b60008060408385031215612fbe57600080fd5b823567ffffffffffffffff80821115612fd657600080fd5b612fe286838701612d02565b93506020850135915080821115612ff857600080fd5b5061300585828601612d02565b9150509250929050565b600181811c9082168061302357607f821691505b60208210810361304357634e487b7160e01b600052602260045260246000fd5b50919050565b634e487b7160e01b600052603260045260246000fd5b6000815461306c8161300f565b80855260206001838116801561308957600181146130a3576130d1565b60ff1985168884015283151560051b8801830195506130d1565b866000528260002060005b858110156130c95781548a82018601529083019084016130ae565b890184019650505b505050505092915050565b6060815260006130ef606083018661305f565b82810360208401526131018186612a4c565b905082810360408401526131158185612a4c565b9695505050505050565b601f8211156116f6576000816000526020600020601f850160051c810160208610156131485750805b601f850160051c820191505b8181101561106257828155600101613154565b815167ffffffffffffffff81111561318157613181612b65565b6131958161318f845461300f565b8461311f565b602080601f8311600181146131ca57600084156131b25750858301515b600019600386901b1c1916600185901b178555611062565b600085815260208120601f198616915b828110156131f9578886015182559484019460019091019084016131da565b50858210156132175787850151600019600388901b60f8161c191681555b5050505050600190811b01905550565b80820180821115610a7557634e487b7160e01b600052601160045260246000fd5b6000825161325a818460208701612a28565b9190910192915050565b60008083546132728161300f565b6001828116801561328a576001811461329f576132ce565b60ff19841687528215158302870194506132ce565b8760005260208060002060005b858110156132c55781548a8201529084019082016132ac565b50505082870194505b50929695505050505050565b6040815260006132ed604083018561305f565b82810360208401526132ff8185612a4c565b9594505050505056fea264697066735822122008dda0832ec307692d8d1633c162b5e5c6ab8f64f26ad393d63d3264cf05c24b64736f6c63430008180033526563657074696f6e5f7363616e5f73315f656e72656769737472656d656e745f6d617175657474655f6879627269646541534e5f6f755f4f7267616e69736d655f5375726574650000000000000000007b4e6f746543616c63756c41726368697665655f73746f726167655f646f737369657245747564653a787878782c526573756c7461747343616c63756c466c6578417263686976655f73746f726167655f4745443a787878787d7b466963686965725f636f6d6d616e64655f706970696e675f6d61737465723a787878787d7b526573756c7461747343616c63756c466c65783a787878782c4e6f746543616c63756c3a787878787d537065635f67656f6d5f6368617267656d656e745f6d617175657474655f6e756d5f736f6674776172655f6a61726f64526563657074696f6e5f7363616e5f73325f656e72656769737472656d656e745f6d617175657474655f6879627269646544657665726f75696c6c6167655f45747564655f64616e735f4745445f706f75725f72657574696c69736174696f6e7b6f7074696f6e7343616c63756c3a787878782c466963686965725f636f6d6d616e64655f7061727469656c3a787878787d7b72656c657665734c6173657254313a787878782c696e666f7343656e7472616c6554313a787878787d7b6368617267656d656e74735f73746f726167655f45444653503a787878782c4d65726b6c6554726565416e63686f72696e67496e707574733a787878782c466963686965725f636f6d6d616e64655f706970696e675f6d61737465723a787878787d7b526573756c7461747343616c63756c466c6578417263686976655f73746f726167655f4745443a787878782c4e6f746543616c63756c41726368697665655f73746f726167655f646f737369657245747564653a787878787d7b72656c657665734c6173657254323a787878782c696e666f7343656e7472616c6554323a787878787d47656e65726174696f6e5f666963686965725f636f6d6d616e64655f7061727469656c",
  "linkReferences": {},
  "deployedLinkReferences": {}
}