{
  "_format": "hh-sol-artifact-1",
  "contractName": "SPARKLogistics",
  "sourceName": "contracts/monolithic/SPARKLogistics.sol",
  "abi": [
    {
      "inputs": [],
      "stateMutability": "nonpayable",
      "type": "constructor"
    },
    {
      "anonymous": false,
      "inputs": [
        {
          "indexed": true,
          "internalType": "address",
          "name": "_from",
          "type": "address"
        },
        {
          "indexed": false,
          "internalType": "string",
          "name": "_id",
          "type": "string"
        },
        {
          "indexed": false,
          "internalType": "string",
          "name": "_data",
          "type": "string"
        },
        {
          "indexed": false,
          "internalType": "string",
          "name": "_timestamp",
          "type": "string"
        }
      ],
      "name": "taskExecuted",
      "type": "event"
    },
    {
      "anonymous": false,
      "inputs": [
        {
          "indexed": true,
          "internalType": "address",
          "name": "_from",
          "type": "address"
        },
        {
          "indexed": false,
          "internalType": "string",
          "name": "_id",
          "type": "string"
        },
        {
          "indexed": false,
          "internalType": "string",
          "name": "_timestamp",
          "type": "string"
        }
      ],
      "name": "taskExecutionError",
      "type": "event"
    },
    {
      "inputs": [
        {
          "internalType": "uint256",
          "name": "",
          "type": "uint256"
        },
        {
          "internalType": "uint256",
          "name": "",
          "type": "uint256"
        }
      ],
      "name": "ChildrenOptim",
      "outputs": [
        {
          "internalType": "string",
          "name": "",
          "type": "string"
        }
      ],
      "stateMutability": "view",
      "type": "function"
    },
    {
      "inputs": [
        {
          "internalType": "uint256",
          "name": "_actId",
          "type": "uint256"
        },
        {
          "internalType": "string",
          "name": "_lane",
          "type": "string"
        },
        {
          "internalType": "string",
          "name": "_upd",
          "type": "string"
        },
        {
          "internalType": "string",
          "name": "_timestamp",
          "type": "string"
        }
      ],
      "name": "Invoke",
      "outputs": [],
      "stateMutability": "payable",
      "type": "function"
    },
    {
      "inputs": [
        {
          "internalType": "uint256",
          "name": "",
          "type": "uint256"
        },
        {
          "internalType": "uint256",
          "name": "",
          "type": "uint256"
        }
      ],
      "name": "MsgInOptim",
      "outputs": [
        {
          "internalType": "string",
          "name": "",
          "type": "string"
        }
      ],
      "stateMutability": "view",
      "type": "function"
    },
    {
      "inputs": [
        {
          "internalType": "uint256",
          "name": "",
          "type": "uint256"
        },
        {
          "internalType": "uint256",
          "name": "",
          "type": "uint256"
        }
      ],
      "name": "MsgOutOptim",
      "outputs": [
        {
          "internalType": "string",
          "name": "",
          "type": "string"
        }
      ],
      "stateMutability": "view",
      "type": "function"
    },
    {
      "inputs": [
        {
          "internalType": "uint256",
          "name": "",
          "type": "uint256"
        },
        {
          "internalType": "uint256",
          "name": "",
          "type": "uint256"
        }
      ],
      "name": "ParentsOptim",
      "outputs": [
        {
          "internalType": "string",
          "name": "",
          "type": "string"
        }
      ],
      "stateMutability": "view",
      "type": "function"
    },
    {
      "inputs": [
        {
          "internalType": "uint256",
          "name": "",
          "type": "uint256"
        }
      ],
      "name": "activities",
      "outputs": [
        {
          "internalType": "uint256",
          "name": "id",
          "type": "uint256"
        },
        {
          "internalType": "enum SPARKLogistics.NodeType",
          "name": "nodeType",
          "type": "uint8"
        },
        {
          "internalType": "string",
          "name": "xmlID",
          "type": "string"
        },
        {
          "internalType": "string",
          "name": "name",
          "type": "string"
        },
        {
          "internalType": "string",
          "name": "lane",
          "type": "string"
        },
        {
          "internalType": "string",
          "name": "dataIn",
          "type": "string"
        },
        {
          "internalType": "string",
          "name": "dataOut",
          "type": "string"
        },
        {
          "internalType": "string",
          "name": "timestamp",
          "type": "string"
        }
      ],
      "stateMutability": "view",
      "type": "function"
    },
    {
      "inputs": [
        {
          "internalType": "uint256",
          "name": "_id",
          "type": "uint256"
        },
        {
          "internalType": "enum SPARKLogistics.NodeType",
          "name": "_type",
          "type": "uint8"
        },
        {
          "internalType": "string",
          "name": "_xmlID",
          "type": "string"
        },
        {
          "internalType": "string",
          "name": "_name",
          "type": "string"
        },
        {
          "internalType": "string",
          "name": "_lane",
          "type": "string"
        },
        {
          "internalType": "string",
          "name": "_data_in",
          "type": "string"
        },
        {
          "internalType": "string",
          "name": "_data_out",
          "type": "string"
        },
        {
          "internalType": "string",
          "name": "_timestamp",
          "type": "string"
        }
      ],
      "name": "addActivity",
      "outputs": [],
      "stateMutability": "nonpayable",
      "type": "function"
    },
    {
      "inputs": [
        {
          "internalType": "string",
          "name": "_name",
          "type": "string"
        },
        {
          "internalType": "uint256",
          "name": "_activityIdsLength",
          "type": "uint256"
        }
      ],
      "name": "addWorkflowInstance",
      "outputs": [],
      "stateMutability": "nonpayable",
      "type": "function"
    },
    {
      "inputs": [
        {
          "internalType": "address",
          "name": "",
          "type": "address"
        }
      ],
      "name": "addresses2lanes",
      "outputs": [
        {
          "internalType": "string",
          "name": "",
          "type": "string"
        }
      ],
      "stateMutability": "view",
      "type": "function"
    },
    {
      "inputs": [
        {
          "internalType": "string",
          "name": "a",
          "type": "string"
        },
        {
          "internalType": "string",
          "name": "b",
          "type": "string"
        }
      ],
      "name": "compareStrings",
      "outputs": [
        {
          "internalType": "bool",
          "name": "",
          "type": "bool"
        }
      ],
      "stateMutability": "pure",
      "type": "function"
    },
    {
      "inputs": [
        {
          "internalType": "uint256",
          "name": "num",
          "type": "uint256"
        },
        {
          "internalType": "uint256[]",
          "name": "numbers1",
          "type": "uint256[]"
        }
      ],
      "name": "exists1",
      "outputs": [
        {
          "internalType": "bool",
          "name": "",
          "type": "bool"
        }
      ],
      "stateMutability": "pure",
      "type": "function"
    },
    {
      "inputs": [
        {
          "internalType": "uint256",
          "name": "_id",
          "type": "uint256"
        }
      ],
      "name": "getActivityDataFromActivityId",
      "outputs": [
        {
          "internalType": "uint256",
          "name": "_actId",
          "type": "uint256"
        },
        {
          "internalType": "uint256",
          "name": "_type",
          "type": "uint256"
        },
        {
          "internalType": "string",
          "name": "_xmlID",
          "type": "string"
        },
        {
          "internalType": "string",
          "name": "_name",
          "type": "string"
        },
        {
          "internalType": "string",
          "name": "_dataIn",
          "type": "string"
        },
        {
          "internalType": "string",
          "name": "_dataOut",
          "type": "string"
        },
        {
          "internalType": "string",
          "name": "_lane",
          "type": "string"
        }
      ],
      "stateMutability": "view",
      "type": "function"
    },
    {
      "inputs": [
        {
          "internalType": "uint256",
          "name": "_id",
          "type": "uint256"
        }
      ],
      "name": "getActivityIdsFromWorkflow",
      "outputs": [
        {
          "internalType": "uint256[]",
          "name": "",
          "type": "uint256[]"
        }
      ],
      "stateMutability": "view",
      "type": "function"
    },
    {
      "inputs": [],
      "name": "getExecuted",
      "outputs": [
        {
          "internalType": "uint256[]",
          "name": "",
          "type": "uint256[]"
        }
      ],
      "stateMutability": "view",
      "type": "function"
    },
    {
      "inputs": [],
      "name": "getIncluded",
      "outputs": [
        {
          "internalType": "uint256[]",
          "name": "",
          "type": "uint256[]"
        }
      ],
      "stateMutability": "view",
      "type": "function"
    },
    {
      "inputs": [],
      "name": "getPending",
      "outputs": [
        {
          "internalType": "uint256[]",
          "name": "",
          "type": "uint256[]"
        }
      ],
      "stateMutability": "view",
      "type": "function"
    },
    {
      "inputs": [
        {
          "internalType": "string",
          "name": "_xmlID",
          "type": "string"
        }
      ],
      "name": "getPosFromXML",
      "outputs": [
        {
          "internalType": "uint256",
          "name": "",
          "type": "uint256"
        }
      ],
      "stateMutability": "view",
      "type": "function"
    },
    {
      "inputs": [
        {
          "internalType": "uint256",
          "name": "key",
          "type": "uint256"
        }
      ],
      "name": "isChildrenOptimNotEmpty",
      "outputs": [
        {
          "internalType": "bool",
          "name": "",
          "type": "bool"
        }
      ],
      "stateMutability": "view",
      "type": "function"
    },
    {
      "inputs": [
        {
          "internalType": "uint256",
          "name": "key",
          "type": "uint256"
        }
      ],
      "name": "isMsgInOptimNotEmpty",
      "outputs": [
        {
          "internalType": "bool",
          "name": "",
          "type": "bool"
        }
      ],
      "stateMutability": "view",
      "type": "function"
    },
    {
      "inputs": [
        {
          "internalType": "uint256",
          "name": "key",
          "type": "uint256"
        }
      ],
      "name": "isMsgOutOptimNotEmpty",
      "outputs": [
        {
          "internalType": "bool",
          "name": "",
          "type": "bool"
        }
      ],
      "stateMutability": "view",
      "type": "function"
    },
    {
      "inputs": [
        {
          "internalType": "uint256",
          "name": "key",
          "type": "uint256"
        }
      ],
      "name": "isParentOptimNotEmpty",
      "outputs": [
        {
          "internalType": "bool",
          "name": "",
          "type": "bool"
        }
      ],
      "stateMutability": "view",
      "type": "function"
    },
    {
      "inputs": [],
      "name": "killProcess",
      "outputs": [
        {
          "internalType": "uint256",
          "name": "",
          "type": "uint256"
        }
      ],
      "stateMutability": "payable",
      "type": "function"
    },
    {
      "inputs": [
        {
          "internalType": "string",
          "name": "startXML",
          "type": "string"
        },
        {
          "internalType": "string",
          "name": "triggerXML",
          "type": "string"
        }
      ],
      "name": "setActivitiesSegment",
      "outputs": [],
      "stateMutability": "nonpayable",
      "type": "function"
    },
    {
      "inputs": [
        {
          "internalType": "uint256",
          "name": "_actId",
          "type": "uint256"
        }
      ],
      "name": "updateChildren",
      "outputs": [],
      "stateMutability": "payable",
      "type": "function"
    }
  ],
  "bytecode": "0x6080604052600060085560006009553480156200001b57600080fd5b5060408051808201909152600a8152691b5e50dbdb9d1c9858dd60b21b60208201526200004a90604462006f55565b6040805161088081018252600080825260208201819052918101829052606081018290526080810182905260a0810182905260c0810182905260e08101829052610100810182905261012081018290526101408101829052610160810182905261018081018290526101a081018290526101c081018290526101e08101829052610200810182905260016102208201526102408101829052610260810182905261028081018290526102a081018290526102c081018290526102e08101829052610300810182905261032081018290526103408101829052610360810182905261038081018290526103a081018290526103c081018290526103e08101829052610400810182905261042081018290526104408101829052610460810182905261048081018290526104a081018290526104c081018290526104e08101829052610500810182905261052081018290526105408101829052610560810182905261058081018290526105a081018290526105c081018290526105e08101829052610600810182905261062081018290526106408101829052610660810182905261068081018290526106a081018290526106c081018290526106e08101829052610700810182905261072081018290526107408101829052610760810182905261078081018290526107a081018290526107c081018290526107e081018290526108008101829052610820810182905261084081018290526108608101919091526200027b90600a90604462007186565b506040805161088081018252600080825260208201819052918101829052606081018290526080810182905260a0810182905260c0810182905260e08101829052610100810182905261012081018290526101408101829052610160810182905261018081018290526101a081018290526101c081018290526101e08101829052610200810182905261022081018290526102408101829052610260810182905261028081018290526102a081018290526102c081018290526102e08101829052610300810182905261032081018290526103408101829052610360810182905261038081018290526103a081018290526103c081018290526103e08101829052610400810182905261042081018290526104408101829052610460810182905261048081018290526104a081018290526104c081018290526104e08101829052610500810182905261052081018290526105408101829052610560810182905261058081018290526105a081018290526105c081018290526105e08101829052610600810182905261062081018290526106408101829052610660810182905261068081018290526106a081018290526106c081018290526106e08101829052610700810182905261072081018290526107408101829052610760810182905261078081018290526107a081018290526107c081018290526107e08101829052610800810182905261082081018290526108408101829052610860810191909152620004ad90600c90604462007186565b506040805161088081018252600080825260208201819052918101829052606081018290526080810182905260a0810182905260c0810182905260e08101829052610100810182905261012081018290526101408101829052610160810182905261018081018290526101a081018290526101c081018290526101e08101829052610200810182905261022081018290526102408101829052610260810182905261028081018290526102a081018290526102c081018290526102e08101829052610300810182905261032081018290526103408101829052610360810182905261038081018290526103a081018290526103c081018290526103e08101829052610400810182905261042081018290526104408101829052610460810182905261048081018290526104a081018290526104c081018290526104e08101829052610500810182905261052081018290526105408101829052610560810182905261058081018290526105a081018290526105c081018290526105e08101829052610600810182905261062081018290526106408101829052610660810182905261068081018290526106a081018290526106c081018290526106e08101829052610700810182905261072081018290526107408101829052610760810182905261078081018290526107a081018290526107c081018290526107e08101829052610800810182905261082081018290526108408101829052610860810191909152620006df90600b90604462007186565b5060405180602001604052806040518060600160405280602881526020016200adaf6028913990526000805260036020526200073f907f3617319a054d772f909f7c479a2cebe5066e836a939412e32403c99029b92eff906001620071db565b5060408051606081018252600d60208083019182526c22bb32b73a2f9831bcb83d1c9b60991b938301939093528152600080526004909152620007a6907f17ef568e3e12ab5b9c7254a8d58478811de00f9e6eb34345acd53bf8fd09d3ec906001620071db565b5062000860600060046040518060600160405280602881526020016200a84c602891396040518060400160405280600e81526020016d51756f74655f416e616c7973697360901b8152506040518060400160405280600881526020016721bab9ba37b6b2b960c11b81525060405180602001604052806000815250604051806020016040528060008152506040518060400160405280600a8152602001691899179998979918191960b11b8152506200705360201b60201c565b60405180602001604052806040518060600160405280602881526020016200a98e602891399052600160008190526003602052620008c0917fa15bc60c955c405d20d9149c709e2460f1c2d9a497496a7f46004d1772c3054c91620071db565b5060405180602001604052806040518060600160405280602d81526020016200ad82602d9139905260016000819052600460205262000921917fabd6e7cb50984ff9c2f3e18a2660c3353dadf4e3291deeb275dae2cd1e44fe0591620071db565b50620009d7600160046040518060600160405280602881526020016200aaa6602891396040518060400160405280600a8152602001695061795f537061726b7360b01b8152506040518060400160405280600881526020016721bab9ba37b6b2b960c11b81525060405180602001604052806000815250604051806020016040528060008152506040518060400160405280600a8152602001691899179998979918191960b11b8152506200705360201b60201c565b60408051606081018252600d60208083019182526c4576656e745f30766a746b637360981b9383019390935281526002600052600390915262000a3e907fc3a24b0501bd2c13a7e57f2db4369ec4c223447539fc0724a9d55ac4a06ebd4d906001620071db565b5060405180602001604052806040518060600160405280602881526020016200a8bc6028913990526002600052600460205262000a9f907f91da3fd0782e51c6b3986e9e672fd566868e71f3dbc2d6c2cd6fbb3e361af2a7906001620071db565b5060408051606081018252600d60208083019182526c4576656e745f3078383239317760981b9383019390935281526002600052600690915262000b07907f8819ef417987f8ae7a81f42cdfb18815282fe989326fbff903d13cf0e03ace29906001620071db565b5062000bce600260046040518060400160405280601081526020016f41637469766974795f3065736b34687360801b8152506040518060400160405280600c81526020016b21b0b731b2b62fb7b93232b960a11b8152506040518060400160405280600881526020016721bab9ba37b6b2b960c11b81525060405180602001604052806000815250604051806020016040528060008152506040518060400160405280600a8152602001691899179998979918191960b11b8152506200705360201b60201c565b60405180602001604052806040518060600160405280602881526020016200aeef6028913990526003600081905260205262000c2e907fcbc4e5fb02c3d1de23a9f1e014b4d2ee5aeaea9505df5e855c9210bf472495af906001620071db565b5060408051606081018252600d60208083019182526c22bb32b73a2f98bb3a3a353b3d60991b9383019390935281526003600052600490915262000c96907f2e174c10e159ea99b867ce3205125c24a42d128804e4070ed6fcc8cc98166aa0906001620071db565b5062000d5d600360046040518060600160405280602881526020016200adf8602891396040518060400160405280601b81526020017f457374696d6174655f7468655f65787065637465645f7573616765000000000081525060405180604001604052806006815260200165535041524b5360d01b81525060405180602001604052806000815250604051806020016040528060008152506040518060400160405280600a8152602001691899179998979918191960b11b8152506200705360201b60201c565b60405180602001604052806040518060600160405280602881526020016200acd86028913990526004600052600360205262000dbd907f83ec6a1f0257b830b5e016457c9cf1435391bf56cc98f369a58a54fe93772465906001620071db565b5060405180602001604052806040518060600160405280602881526020016200adf86028913990526004600081905260205262000e1e907f1a1e6821cde7d0159c0d293177871e09677b4e42307c7db3ba94f8648a5a050f906001620071db565b5062000ed76004806040518060600160405280602881526020016200aeef602891396040518060400160405280601081526020016f507265706172655f615f71756f74655f60801b81525060405180604001604052806006815260200165535041524b5360d01b81525060405180602001604052806000815250604051806020016040528060008152506040518060400160405280600a8152602001691899179998979918191960b11b8152506200705360201b60201c565b60405180602001604052806040518060600160405280602881526020016200ab966028913990526005600052600360205262000f37907f405aad32e1adbac89bb7f176e338b8fc6e994ca210c9bb7bdca249b465942250906001620071db565b5060405180602001604052806040518060600160405280602881526020016200ae4d6028913990526005600052600460205262000f98907f04cde762ef08b6b6c5ded8e8c4c0b3f4e5c9ad7342c88fcc93681b4588b73f05906001620071db565b5062001043600560046040518060600160405280602881526020016200abe6602891396040518060600160405280602c81526020016200ac0e602c913960405180604001604052806006815260200165535041524b5360d01b81525060405180602001604052806000815250604051806020016040528060008152506040518060400160405280600a8152602001691899179998979918191960b11b8152506200705360201b60201c565b60405180602001604052806040518060600160405280602881526020016200abe660289139905260066000526003602052620010a3907fc69056f16cbaa3c616b828e333ab7d3a32310765507f8f58359e99ebb7a885f3906001620071db565b5060405180602001604052806040518060600160405280602d81526020016200af3f602d913990526006600052600460205262001104907fc59312466997bb42aaaf719ece141047820e6b34531e1670dc1852a453648f0f906001620071db565b50620011cb600660046040518060600160405280602881526020016200ae4d602891396040518060400160405280602081526020017f52657472696576655f637573746f6d65725f696e737572616e63655f706c616e81525060405180604001604052806006815260200165535041524b5360d01b81525060405180602001604052806000815250604051806020016040528060008152506040518060400160405280600a8152602001691899179998979918191960b11b8152506200705360201b60201c565b60405180602001604052806040518060600160405280602881526020016200ad5a602891399052600760005260036020526200122b907ff2c49132ed1cee2a7e75bde50d332a2f81f1d01e5456d8a19d1df09bd561dbd2906001620071db565b5060408051606081018252600d60208083019182526c115d995b9d17cc4d4ccc1dd90d609a1b9383019390935281526007600052600490915262001293907fbeb3bad75134cb432e5707980e3245c52c5998a1125ee30f2f0dbf3925b1e551906001620071db565b506200133e600760046040518060600160405280602881526020016200acb0602891396040518060600160405280602381526020016200aa2e6023913960405180604001604052806006815260200165535041524b5360d01b81525060405180602001604052806000815250604051806020016040528060008152506040518060400160405280600a8152602001691899179998979918191960b11b8152506200705360201b60201c565b60405180602001604052806040518060600160405280602881526020016200a9b6602891399052600860005260036020526200139e907f85aaa47b6dc46495bb8824fad4583769726fea36efd831a35556690b830a8fbe906001620071db565b5060405180602001604052806040518060600160405280602d81526020016200ad00602d9139905260086000526004602052620013ff907f2645749a946633740611cfc8178319f0958659d6922e4bf7e3a08b44789f53a4906001620071db565b5060408051606081018252600d60208083019182526c22bb32b73a2f98311b1b9a30b160991b9383019390935281526008600052600690915262001467907fb8d683c9d414f481826f3e7fe14b3ac6ae8c73450778287390c4bb8cb9f2e80b906001620071db565b506200152e600860046040518060600160405280602881526020016200ab6e602891396040518060400160405280601781526020017f436f6e746163745f65787465726e616c5f67617261676500000000000000000081525060405180604001604052806006815260200165535041524b5360d01b81525060405180602001604052806000815250604051806020016040528060008152506040518060400160405280600a8152602001691899179998979918191960b11b8152506200705360201b60201c565b60408051606081018252600d60208083019182526c4576656e745f30717a7367766960981b9383019390935281526009600052600390915262001595907f8a8dc4e5242ea8b1ab1d60606dae757e6c2cca9f92a2cced9f72c19960bcb458906001620071db565b5060405180602001604052806040518060600160405280602881526020016200ab6e60289139905260096000526004602052620015f6907f4ad5a04d53b5856f318545bb721f67d3f6d0a5a999f25eec7e20eaeb4c47b933906001620071db565b5060405180602001604052806040518060600160405280602881526020016200ae9f6028913990526009600052600660205262001657907fca4d0c6c94a9477136dd41a99cc19ecbe441c8f6609efe7c6fa65be007a47323906001620071db565b5062001702600960046040518060600160405280602881526020016200a9b6602891396040518060600160405280602a81526020016200ae75602a913960405180604001604052806006815260200165535041524b5360d01b81525060405180602001604052806000815250604051806020016040528060008152506040518060400160405280600a8152602001691899179998979918191960b11b8152506200705360201b60201c565b60405180602001604052806040518060600160405280602881526020016200ab46602891399052600a600052600360205262001762907f9dcb9783ba5cd0b54745f65f4f918525e461e91888c334e5342cb380ac558d53906001620071db565b5060405180602001604052806040518060600160405280602881526020016200af17602891399052600a6000526004602052620017c3907f5c6b02db8b672415ffad906d7ccee10bd53dbad7d0b29e2bc0e50c93d5f31093906001620071db565b506200188a600a60046040518060600160405280602881526020016200aa7e602891396040518060400160405280601f81526020017f53656e645f63616e63656c6c6174696f6e5f6e6f74696669636174696f6e5f0081525060405180604001604052806006815260200165535041524b5360d01b81525060405180602001604052806000815250604051806020016040528060008152506040518060400160405280600a8152602001691899179998979918191960b11b8152506200705360201b60201c565b60405180602001604052806040518060600160405280602881526020016200aa7e602891399052600b6000526003602052620018ea907f2d72af3c1b2b2956e6f694fb741556d5ca9524373974378cdbec16afa8b84164906001620071db565b5060408051606081018252600d60208083019182526c4576656e745f3078383239317760981b938301939093528152600b600052600490915262001952907f0c1469ad586d86b6976c45826d7ae56d76ee516e37a2bccffbe904b74dbae7ea906001620071db565b5062001a0d600b60046040518060600160405280602881526020016200af1760289139604051806040016040528060118152602001702bb7b935afb1b0b731b2b63630ba34b7b760791b81525060405180604001604052806006815260200165535041524b5360d01b81525060405180602001604052806000815250604051806020016040528060008152506040518060400160405280600a8152602001691899179998979918191960b11b8152506200705360201b60201c565b60405180604001604052806040518060600160405280602881526020016200abbe6028913981526020016040518060600160405280602881526020016200abbe602891399052600c600052600360205262001a8c907fd56a60595ebefebed7f22dcee6c2acc61b06cf8c68e84c88677840365d1ff92b90600262007234565b5060408051606081018252600d60208083019182526c4576656e745f3034717578393960981b938301939093528152600c600052600490915262001af4907f140aabff1a85df08546c9a350c79ae18341bde4a2cef5d2fd460885c0128ce26906001620071db565b5062001bac600c60046040518060600160405280602881526020016200a894602891396040518060400160405280600e81526020016d53746f636b5f616e616c7973697360901b81525060405180604001604052806006815260200165535041524b5360d01b81525060405180602001604052806000815250604051806020016040528060008152506040518060400160405280600a8152602001691899179998979918191960b11b8152506200705360201b60201c565b60405180602001604052806040518060600160405280602881526020016200ad5a602891399052600d600052600360205262001c0c907fa8f2d96126c6d0ad63adabaef7bf5cf47f163fb0c218a473d28f62312d197bcf906001620071db565b5060405180602001604052806040518060600160405280602881526020016200a966602891399052600d600052600460205262001c6d907fa5022b2bfd144bf9103d80168549b5df7c72ab60bd51bf71a02a08d844853b4a906001620071db565b5062001d18600d60046040518060600160405280602881526020016200aace602891396040518060600160405280602381526020016200ac3a6023913960405180604001604052806006815260200165535041524b5360d01b81525060405180602001604052806000815250604051806020016040528060008152506040518060400160405280600a8152602001691899179998979918191960b11b8152506200705360201b60201c565b60408051606081018252600d60208083019182526c4576656e745f306268346a316760981b938301939093528152600e600052600390915262001d7f907fd6ebcc64c739277b117ce359e436534b234b76e914c80ad276abf5b562078939906001620071db565b5060408051606081018252600d60208083019182526c4576656e745f31677a6d37616b60981b938301939093528152600e600052600490915262001de7907feb3e677499e881fe1bdbc344a49c412138038a9f40883b6dc68f713aab483523906001620071db565b5060405180602001604052806040518060600160405280602881526020016200a966602891399052600e600052600660205262001e48907faca6cdb4b5fe0ec50731a73f714dd191dc1911bfeb3f9eeb9e94ed0f6065ef8d906001620071db565b5062001f18600e60046040518060600160405280602881526020016200aa06602891396040518060400160405280601a81526020017f53656e645f6f726465725f636f6e6669726d6174696f6e5f72320000000000008152506040518060400160405280600f81526020016e29b2b1b7b732103932b9b2b63632b960891b81525060405180602001604052806000815250604051806020016040528060008152506040518060400160405280600a8152602001691899179998979918191960b11b8152506200705360201b60201c565b60408051606081018252600f60208083018281526e476174657761795f31396e36356e6360881b94840194909452928252600052600390915262001f80907ff60b7f6a315ec68a6ac240e69dca53652b38627f709a2caa217d9e18af4d7a60906001620071db565b5060408051606081018252600d60208083019182526c22bb32b73a2f98311b1b9a30b160991b938301939093528152600f600052600490915262001fe8907f66b61daf77b854ca6ba000a8d4b340eafcdb71b6583753b4af89fceb54988fff906001620071db565b5062002099600f60046040518060600160405280602881526020016200aec7602891396040518060600160405280602181526020016200add7602191396040518060400160405280600f81526020016000805160206200a87483398151915281525060405180602001604052806000815250604051806020016040528060008152506040518060400160405280600a8152602001691899179998979918191960b11b8152506200705360201b60201c565b60405180602001604052806040518060600160405280602881526020016200a84c60289139905260106000526003602052620020f9907f47d4745e02b343689a5e7ac121d2a352b7a15c10328a8759fd7d4cf0999002bb906001620071db565b5060405180602001604052806040518060600160405280602881526020016200ab96602891399052601060005260056020526200215a907f8b32256db898364c465749decac34aee435952ffe1739257aa5b0235e266d9c5906001620071db565b5062002223601060026040518060400160405280600d81526020016c22bb32b73a2f9831bcb83d1c9b60991b8152506040518060400160405280601181526020017052656365697665207468652071756f746560781b8152506040518060400160405280600881526020016721bab9ba37b6b2b960c11b81525060405180602001604052806000815250604051806020016040528060008152506040518060400160405280600a8152602001691899179998979918191960b11b8152506200705360201b60201c565b60405180602001604052806040518060600160405280602881526020016200adf86028913990526011600052600360205262002283907ffc111d09a6e2f0958402cbe16a5aef32c9d8ddb9a4df7271140de57bfed6525a906001620071db565b506200233a601160006040518060400160405280600d81526020016c22bb32b73a2f98bb3a3a353b3d60991b8152506040518060600160405280602681526020016200ac8a6026913960405180604001604052806006815260200165535041524b5360d01b81525060405180602001604052806000815250604051806020016040528060008152506040518060400160405280600a8152602001691899179998979918191960b11b8152506200705360201b60201c565b60408051606081018252600d60208083019182526c115d995b9d17cc4cdc999c1ddd609a1b93830193909352815260126000526003909152620023a1907f6a2b6bffaca788160f671fa62d34758b717f75a90ad5a468757c50d61f33c443906001620071db565b5060408051606081018252600d60208083019182526c4576656e745f3035656d76713360981b9383019390935281526012600052600590915262002409907fd1ccbf1f9f869f51cd81e6f099f905636b057f682c706fe990614b1120516928906001620071db565b50620024c2601260026040518060400160405280600d81526020016c115d995b9d17cc5b4e5d5e9e4d609a1b815250604051806020016040528060008152506040518060400160405280601281526020017121b2b93a34b334b2b2103932b9b2b63632b960711b81525060405180602001604052806000815250604051806020016040528060008152506040518060400160405280600a8152602001691899179998979918191960b11b8152506200705360201b60201c565b60405180602001604052806040518060600160405280602881526020016200aa066028913990526013600052600360205262002522907f8a8166be5f30abeb6c91ee2f07eeb0b2eb14b4d59534d10a1c143964bd617919906001620071db565b5060408051606081018252600d60208083019182526c4576656e745f317430756e773560981b938301939093528152601360005260059091526200258a907f872ac8b0ab547ba6ba6686d487265a409b97d09cf043f98287b4b34e7bc04a71906001620071db565b5062002640601360026040518060400160405280600d81526020016c4576656e745f31677a6d37616b60981b815250604051806020016040528060008152506040518060400160405280600f81526020016e29b2b1b7b732103932b9b2b63632b960891b81525060405180602001604052806000815250604051806020016040528060008152506040518060400160405280600a8152602001691899179998979918191960b11b8152506200705360201b60201c565b60405180602001604052806040518060600160405280602881526020016200aec760289139905260146000526003602052620026a0907f0ffe031ee7f67944a037276fd51f48fcc2fe05a729c43144606bc8777da8014f906001620071db565b5060405180602001604052806040518060600160405280602881526020016200ab6e6028913990526014600052600560205262002701907f3dfec54401578e5ad10d5cfe74972cfc24c82740aaca9c2d34cbb4be4a761cc5906001620071db565b50620027b4601460026040518060400160405280600d81526020016c22bb32b73a2f98311b1b9a30b160991b815250604051806020016040528060008152506040518060400160405280600f81526020016000805160206200a87483398151915281525060405180602001604052806000815250604051806020016040528060008152506040518060400160405280600a8152602001691899179998979918191960b11b8152506200705360201b60201c565b60408051606081018252600f60208083019182526e23b0ba32bbb0bcaf981ab3b7bcb53160891b938301939093528152601560005260039091526200281d907f94f2575c7592b1dfd5a8846a17482da7b0e38fb10c93880d74916c5f16792464906001620071db565b5060405180602001604052806040518060600160405280602d81526020016200a8e4602d91399052601560005260046020526200287e907f1bb30a1647f6f6723cb3a88838ce0319afabe51263fc466f2f669a7a24ad88c6906001620071db565b5060408051606081018252600d60208083019182526c4576656e745f3034717578393960981b93830193909352815260156000526006909152620028e6907feda6feebfb4ffb7de2d0dc45a13b92dc953c2ed6ee96fa7fe8179e7c4266747f906001620071db565b50620029bb601560036040518060400160405280600d81526020016c4576656e745f3067366c65766760981b8152506040518060400160405280601f81526020017f53656e64206e6f74696669636174696f6e206f6620616363657074616e6365008152506040518060400160405280600881526020016721bab9ba37b6b2b960c11b81525060405180602001604052806000815250604051806020016040528060008152506040518060400160405280600a8152602001691899179998979918191960b11b8152506200705360201b60201c565b60408051606081018252600f60208083019182526e23b0ba32bbb0bcaf98b8b6b1b0bbbb60891b9383019390935281526016600052600390915262002a24907f370c8c7c6215b209793aa720f65163fbeecd5f5114008532ba0649ee23405402906001620071db565b5060405180602001604052806040518060600160405280602881526020016200abe66028913990526016600052600460205262002a85907f87e655ef16e4075af30c6a90c2b439f7dcd2d83a606dafadaee10cffaf918132906001620071db565b5060408051606081018252600d60208083019182526c22bb32b73a2f9831bcb83d1c9b60991b9383019390935281526016600052600690915262002aed907f7d35cc2b0520994422695eb24e3bf4f74e9cba2704cae72ecd9ec54409a56afb906001620071db565b5062002ba4601660036040518060600160405280602881526020016200ab96602891396040518060400160405280600d81526020016c51756f74652073656e64696e6760981b81525060405180604001604052806006815260200165535041524b5360d01b81525060405180602001604052806000815250604051806020016040528060008152506040518060400160405280600a8152602001691899179998979918191960b11b8152506200705360201b60201c565b60408051606081018252600f60208083019182526e23b0ba32bbb0bcaf98b7b43b9b31b760891b9383019390935281526017600052600390915262002c0d907f0f0519a40093d7edad68f12e2ec868fdf92a03df1cbec3e035c987d6b218f2f4906001620071db565b5060408051606081018252600f60208083019182526e23b0ba32bbb0bcaf989aba18bb18b560891b9383019390935281526017600052600490915262002c77907fff624574ceefb6578b3887a7448cf2ca4d120002f646987b0a9b9ad3f6dc2c10906001620071db565b5060408051606081018252600d60208083019182526c4576656e745f31677a6d37616b60981b9383019390935281526017600052600690915262002cdf907f84f72166cd6dc886f96a4867c4575af2a636c629c04227c9418bfffa7a09a9ed906001620071db565b5062002db2601760036040518060400160405280600d81526020016c4576656e745f317430756e773560981b8152506040518060400160405280601981526020017f436f6e746163742061207365636f6e6420726573656c6c65720000000000000081525060405180604001604052806006815260200165535041524b5360d01b81525060405180602001604052806000815250604051806020016040528060008152506040518060400160405280600a8152602001691899179998979918191960b11b8152506200705360201b60201c565b60405180602001604052806040518060600160405280602d81526020016200aa51602d913990526018600052600460205262002e12907f1ac66383b86984a837d32661c9fdda480194de6e2dbd3891e29fadcb763a62da906001620071db565b5060405180602001604052806040518060600160405280602881526020016200ae9f6028913990526018600052600660205262002e73907f7ca528807b45d0675df0059116d2304ca9c7f495d9ab623cd80c79f11948b856906001620071db565b5062002f46601860036040518060400160405280600d81526020016c4576656e745f306573346c656760981b8152506040518060400160405280601981526020017f5363686564756c696e6720616e206170706f696e746d656e740000000000000081525060405180604001604052806006815260200165535041524b5360d01b81525060405180602001604052806000815250604051806020016040528060008152506040518060400160405280600a8152602001691899179998979918191960b11b8152506200705360201b60201c565b60408051606081018252600f60208083019182526e23b0ba32bbb0bcaf989aba18bb18b560891b9383019390935281526019600052600390915262002faf907fad96411afed98a37aa585ce71717b0782fa4bee47da09d8f483e532128238611906001620071db565b5060405180602001604052806040518060600160405280602d81526020016200ae20602d913990526019600052600460205262003010907feb5726be0cc40daa58a5f8f81528465ddb0c35e1e56e157eca916d69d6c34324906001620071db565b5060408051606081018252600d60208083019182526c115d995b9d17cc5b4e5d5e9e4d609a1b9383019390935281526019600052600690915262003078907ff377e614ebf060ffd3a592667b14b65ef761b258b68bf422a9c7bfae70ee46e2906001620071db565b506200314b601960036040518060400160405280600d81526020016c4576656e745f3035656d76713360981b8152506040518060400160405280601a81526020017f436f6e746163742063657274696669656420726573656c6c657200000000000081525060405180604001604052806006815260200165535041524b5360d01b81525060405180602001604052806000815250604051806020016040528060008152506040518060400160405280600a8152602001691899179998979918191960b11b8152506200705360201b60201c565b60408051606081018252600d60208083019182526c4576656e745f3163776276393760981b938301939093528152601a6000526003909152620031b2907f68fc0e82119a780903c8e97d959a36d433d1e401ad7b7a461ff2087e524d54a8906001620071db565b5060408051606081018252600f60208083019182526e23b0ba32bbb0bcaf98b7b43b9b31b760891b938301939093528152601a60005260049091526200321c907ff6eb4279aa452568dd287204244d7e29d7ca1bc7a01440f08342bf2599f4b9b6906001620071db565b5060408051606081018252600d60208083019182526c04576656e745f306d663233307609c1b938301939093528152601a600052600690915262003284907f2d88733daa8d83575c1c435b1a4140007e667f8dfbe2e5678ffec947a513e5cd906001620071db565b506200333b601a60036040518060400160405280600d81526020016c4576656e745f31716b6c37796160981b8152506040518060600160405280602881526020016200aaf66028913960405180604001604052806006815260200165535041524b5360d01b81525060405180602001604052806000815250604051806020016040528060008152506040518060400160405280600a8152602001691899179998979918191960b11b8152506200705360201b60201c565b60408051606081018252600d60208083019182526c04576656e745f3132747978327609c1b938301939093528152601b6000526003909152620033a2907f925be0b447003e4366d6addf976a9e5448b14e56ca3733fe4a9ca6f86b0dcbd5906001620071db565b5060408051606081018252600d60208083019182526c115d995b9d17cc5b4e5d5e9e4d609a1b938301939093528152601b60005260049091526200340a907fd8906b3e50614809ec86d7bb29bf3c4e8647f5376e87f81687a4a770137f7d59906001620071db565b5060408051606081018252600d60208083019182526c115d995b9d17cc4d4ccc1dd90d609a1b938301939093528152601b600052600690915262003472907f394d598d1fcded9c4097f7e0c482e53467cd63c2a9019859406e3f9260322763906001620071db565b5062003551601b60036040518060400160405280600d81526020016c115d995b9d17cc4cdc999c1ddd609a1b8152506040518060400160405280601a81526020017f53656e64206f7264657220636f6e6669726d6174696f6e2072310000000000008152506040518060400160405280601281526020017121b2b93a34b334b2b2103932b9b2b63632b960711b81525060405180602001604052806000815250604051806020016040528060008152506040518060400160405280600a8152602001691899179998979918191960b11b8152506200705360201b60201c565b60408051606081018252600d60208083019182526c22bb32b73a2f98181b9c983cb760991b938301939093528152601c6000526003909152620035b8907f57023ef7fe58b878582140ea36f22723905ad724896eaf74090fba76c229bd22906001620071db565b5060408051606081018252600f60208083019182526e23b0ba32bbb0bcaf981ab3b7bcb53160891b938301939093528152601c600052600490915262003622907f69bc8c08a6b955aec2072ca430bac7123bc3539264a736d1a23621b0f0c62f31906001620071db565b5060408051606081018252600d60208083019182526c4576656e745f31716b6c37796160981b938301939093528152601c60005260059091526200368a907f66eeecffab615cf4c69d47d3aa51576e95b697767264fa754ea36f4e363ea193906001620071db565b506200375f601c60036040518060400160405280600d81526020016c04576656e745f306d663233307609c1b8152506040518060400160405280601781526020017f706172747320617265206e6f7420617661696c61626c650000000000000000008152506040518060400160405280600881526020016721bab9ba37b6b2b960c11b81525060405180602001604052806000815250604051806020016040528060008152506040518060400160405280600a8152602001691899179998979918191960b11b8152506200705360201b60201c565b60405180602001604052806040518060600160405280602881526020016200a8bc602891399052601d6000526003602052620037bf907f4ba0d371c59a4c8176901cb7799ecdd8b41b974be3a1349b5d0a9ff9aaa230d9906001620071db565b5060408051606081018252600f60208083019182526e23b0ba32bbb0bcaf981ab3b7bcb53160891b938301939093528152601d600052600490915262003829907f547911337f50119fe7598b1be3fa84d3d0506ffe5c730db17c43bc74040bbfce906001620071db565b5060405180604001604052806040518060600160405280602881526020016200a9b660289139815260408051808201909152600d81526c4576656e745f306573346c656760981b60208281019190915291820152601d60005260059052620038b5907f348e8fe0716b12afdd2e814ae0b8b1bb9b5c7a197ef418c73b8bdd93bee14de590600262007234565b5062003940601d60036040518060600160405280602881526020016200ae9f602891396040805160208082018352600080835283518085018552600881526721bab9ba37b6b2b960c11b8184015284518084018652828152855180850187529283528551808701909652600a8652691899179998979918191960b11b93860193909352929362007053565b60408051606081018252600d60208083019182526c4576656e745f316c37726b783360981b938301939093528152601e6000526003909152620039a7907f6117fee2f1274e1b392d2c3fe842478040a980d896757f38cbfe2ceebfa9f55f906001620071db565b5060408051606081018252600f60208083019182526e23b0ba32bbb0bcaf98b8b6b1b0bbbb60891b938301939093528152601e600052600490915262003a11907f9041ee6632bd2142b9cc58f348e0761559f8d964fe48ac6d87dc2b689213e3bb906001620071db565b5060405180602001604052806040518060600160405280602881526020016200a9de602891399052601e600052600560205262003a72907f3fb1f8b5b572f385df2ff517fa4200d6781fd017f742a2f073e874e0dca7758b906001620071db565b5062003b2a601e60036040518060400160405280600d81526020016c22bb32b73a2f981a99343c983b60991b815250604051806040016040528060028152602001616b6f60f01b81525060405180604001604052806006815260200165535041524b5360d01b81525060405180602001604052806000815250604051806020016040528060008152506040518060400160405280600a8152602001691899179998979918191960b11b8152506200705360201b60201c565b60405180602001604052806040518060600160405280602881526020016200acb0602891399052601f600052600360205262003b8a907fbb7ea1d025e27e153f156855239b4b128e9da3a64a6f0a0270f8920989588142906001620071db565b5060408051606081018252600f60208083019182526e23b0ba32bbb0bcaf989aba18bb18b560891b938301939093528152601f600052600490915262003bf4907f4c55bec45be59a99d441ccb7880f9b68f316b687ab5ac77efc4386a807007768906001620071db565b5060408051606081018252600d60208083019182526c115d995b9d17cc4cdc999c1ddd609a1b938301939093528152601f600052600590915262003c5c907ff0566fba57f394cfd00b7b328d5cff9d096b0b4609f559321788bcbb79ff612c906001620071db565b5062003d09601f60036040518060400160405280600d81526020016c115d995b9d17cc4d4ccc1dd90d609a1b8152506040518060200160405280600081525060405180604001604052806006815260200165535041524b5360d01b81525060405180602001604052806000815250604051806020016040528060008152506040518060400160405280600a8152602001691899179998979918191960b11b8152506200705360201b60201c565b60405180602001604052806040518060600160405280602881526020016200aace602891399052602060008190526003905262003d6a907fe0033292d8349127dd6b6fa9c34f6f3d290151b2785dbcbf18fa2c3985d1f743906001620071db565b5060408051606081018252600f60208083019182526e23b0ba32bbb0bcaf98b7b43b9b31b760891b9383019390935281526000829052600490915262003dd4907f96648185182926add89ee4d5c354d3f3e8383a8966d4d875bd8575e13aa27a96906001620071db565b5060405180602001604052806040518060600160405280602881526020016200aa06602891399052602060008190526005905262003e36907f071e9cfece6dd892566e0eb3e2a591eadf7d95b3a63c4bb6c30897234d67d5cc906001620071db565b5062003ebf602060036040518060600160405280602881526020016200a9666028913960408051602080820183526000808352835180850185526006815265535041524b5360d01b8184015284518084018652828152855180850187529283528551808701909652600a8652691899179998979918191960b11b93860193909352929362007053565b60405180602001604052806040518060600160405280602881526020016200af176028913990526021600052600360205262003f1f907fb79c508b45d95db38395ed273cca5afa4bcb8f1225ec7e9c849430db27d6f0fe906001620071db565b5060408051606081018252601060208083019182526f41637469766974795f3065736b34687360801b9383019390935281526021600052600590915262003f8a907ffde35737db706c16fba5e9f098619e9536256befd6f412f408865e7267b38573906001620071db565b5062004037602160036040518060400160405280600d81526020016c4576656e745f3078383239317760981b8152506040518060200160405280600081525060405180604001604052806006815260200165535041524b5360d01b81525060405180602001604052806000815250604051806020016040528060008152506040518060400160405280600a8152602001691899179998979918191960b11b8152506200705360201b60201c565b60405180602001604052806040518060600160405280602881526020016200a8946028913990526022600052600360205262004097907f9f4e12e393433b9749089d7660b578840ae05c9423ce1aefceb0c80c340a21c6906001620071db565b5060408051606081018252600f60208083019182526e23b0ba32bbb0bcaf98b8b6b1b0bbbb60891b9383019390935281526022600052600490915262004101907f7817f7889f42986426820e39b6be36471d2facb3b03609d32089206107cd0e8a906001620071db565b5060408051606081018252600d60208083019182526c4576656e745f3067366c65766760981b9383019390935281526022600052600590915262004169907fe220d357edf822f4321b23cffbfab413ad8eeb56a2713716f7e2bbfeb0b54300906001620071db565b506200423c602260036040518060400160405280600d81526020016c4576656e745f3034717578393960981b8152506040518060400160405280601581526020017f4e6f74696669636174696f6e207265636569766564000000000000000000000081525060405180604001604052806006815260200165535041524b5360d01b81525060405180602001604052806000815250604051806020016040528060008152506040518060400160405280600a8152602001691899179998979918191960b11b8152506200705360201b60201c565b60408051606081018252600d60208083019182526c04576656e745f30696d6667727609c1b93830193909352815260236000526003909152620042a3907f4f8c9d329171a3577e6beb939d329b1f26da4c7a51f25bbe134c866f0feee945906001620071db565b5060405180602001604052806040518060600160405280602d81526020016200ad2d602d913990526023600052600460205262004304907fb91c9b6e3cf94511f58867e361a9e0dd6a5c84a5d216d6f87ae5fdb9bf257b2b906001620071db565b5060405180602001604052806040518060600160405280602881526020016200ab466028913990526023600052600560205262004365907fe56c6ef332cefbe99d2b7259f3225990cbd3f699378f2a746f66c2ce6ebd99f2906001620071db565b50620043f4602360036040518060600160405280602881526020016200ab1e602891396040805160208082018352600080835283518085018552600f81526000805160206200a8748339815191528184015284518084018652828152855180850187529283528551808701909652600a8652691899179998979918191960b11b93860193909352929362007053565b60405180602001604052806040518060600160405280602d81526020016200a911602d913990526024600052600460205262004454907f724ad3d24f57aae4bebead5383879105ce62b9d5fa67d4343ae412b59bd7971d906001620071db565b5060408051606081018252600d60208083019182526c22bb32b73a2f981a99343c983b60991b93830193909352815260246000526006909152620044bc907f1db7b1394727b4ec83580f945ddf3bdf76fcb71f6c6109779c749ee7ec003004906001620071db565b5062004585602460016040518060600160405280602881526020016200a9de602891396040518060400160405280601381526020017f52656a656374206e6f74696669636174696f6e000000000000000000000000008152506040518060400160405280600881526020016721bab9ba37b6b2b960c11b81525060405180602001604052806000815250604051806020016040528060008152506040518060400160405280600a8152602001691899179998979918191960b11b8152506200705360201b60201c565b60408051606081018252600d60208083019182526c04576656e745f306d663233307609c1b93830193909352815260256000526004909152620045ec907f2b9c662716c34a6b24cd9b4f63fe731a136a5a3399a9750ed5cdee99e40faa3a906001620071db565b506200469b602560016040518060400160405280600d81526020016c22bb32b73a2f98181b9c983cb760991b815250604051806020016040528060008152506040518060400160405280600881526020016721bab9ba37b6b2b960c11b81525060405180602001604052806000815250604051806020016040528060008152506040518060400160405280600a8152602001691899179998979918191960b11b8152506200705360201b60201c565b60405180602001604052806040518060600160405280602881526020016200aaa660289139905260266000526004602052620046fb907ff8f9fbe49577efd32b3647a88078df070961ceaa913763423b34eeb65953041b906001620071db565b50620047c4602660016040518060600160405280602881526020016200a98e602891396040518060400160405280601481526020017f576f726b206f726465722066756c66696c6c65640000000000000000000000008152506040518060400160405280600881526020016721bab9ba37b6b2b960c11b81525060405180602001604052806000815250604051806020016040528060008152506040518060400160405280600a8152602001691899179998979918191960b11b8152506200705360201b60201c565b60408051606081018252601060208083019182526f41637469766974795f3065736b34687360801b938301939093528152602760005260049091526200482e907faaded8c7cb956d25d285cba29213c176ec5fc32f3996cb04804f6c9dc496ea72906001620071db565b50620048dd602760016040518060400160405280600d81526020016c4576656e745f30766a746b637360981b815250604051806020016040528060008152506040518060400160405280600881526020016721bab9ba37b6b2b960c11b81525060405180602001604052806000815250604051806020016040528060008152506040518060400160405280600a8152602001691899179998979918191960b11b8152506200705360201b60201c565b60405180602001604052806040518060600160405280602d81526020016200ac5d602d91399052602860005260046020526200493d907f2b634da6ab875d88498f503820d9b51f6eb10d3d2f378c32aef2289b509f3def906001620071db565b50620049c6602860016040518060600160405280602881526020016200a93e6028913960408051602080820183526000808352835180850185526006815265535041524b5360d01b8184015284518084018652828152855180850187529283528551808701909652600a8652691899179998979918191960b11b93860193909352929362007053565b60408051606081018252600d60208083019182526c22bb32b73a2f981a99343c983b60991b9383019390935281526029600052600490915262004a2d907fda151e1f1eb9b837d3da35d08f1188bdcb6e944aa00ae0cc2fa12060555d939b906001620071db565b5062004ada602960016040518060400160405280600d81526020016c4576656e745f316c37726b783360981b8152506040518060200160405280600081525060405180604001604052806006815260200165535041524b5360d01b81525060405180602001604052806000815250604051806020016040528060008152506040518060400160405280600a8152602001691899179998979918191960b11b8152506200705360201b60201c565b60408051606081018252600d60208083019182526c4576656e745f31716b6c37796160981b938301939093528152602a600052600490915262004b41907f4045736e0d6732881e3d4bd60e2ea0771cee9b1fc6c317a33475d710474b9adc906001620071db565b5062004bee602a60016040518060400160405280600d81526020016c4576656e745f3163776276393760981b8152506040518060200160405280600081525060405180604001604052806006815260200165535041524b5360d01b81525060405180602001604052806000815250604051806020016040528060008152506040518060400160405280600a8152602001691899179998979918191960b11b8152506200705360201b60201c565b60405180602001604052806040518060600160405280602881526020016200a9b6602891399052602b600052600460205262004c4e907f90cda500e35aaf03a1a434c6c35e405898eb7e8c3b95c3a697cd23106146040e906001620071db565b5062004cfb602b60016040518060400160405280600d81526020016c4576656e745f30717a7367766960981b8152506040518060200160405280600081525060405180604001604052806006815260200165535041524b5360d01b81525060405180602001604052806000815250604051806020016040528060008152506040518060400160405280600a8152602001691899179998979918191960b11b8152506200705360201b60201c565b60405180602001604052806040518060600160405280602881526020016200aa7e602891399052602c600052600460205262004d5b907fcee00ef6983e77a7e1db3b46722f66f35b443eda730735f8d62ca455b3aed108906001620071db565b5060405180602001604052806040518060600160405280602881526020016200ab1e602891399052602c600052600660205262004dbc907fbcf8f20af2ea5452ef730fc21b76c654aa112eeb6bd50a8af28b1e5d63c16cd7906001620071db565b5062004e45602c60016040518060600160405280602881526020016200ab466028913960408051602080820183526000808352835180850185526006815265535041524b5360d01b8184015284518084018652828152855180850187529283528551808701909652600a8652691899179998979918191960b11b93860193909352929362007053565b60408051606081018252600d60208083019182526c115d995b9d17cc4cdc999c1ddd609a1b938301939093528152602d600052600490915262004eac907f23b46c729058bbeb475c41bb0ca0b2ae749b9f5c561c6c7b69407ac2bf123699906001620071db565b5062004f65602d60016040518060400160405280600d81526020016c04576656e745f3132747978327609c1b815250604051806020016040528060008152506040518060400160405280601281526020017121b2b93a34b334b2b2103932b9b2b63632b960711b81525060405180602001604052806000815250604051806020016040528060008152506040518060400160405280600a8152602001691899179998979918191960b11b8152506200705360201b60201c565b60405180602001604052806040518060600160405280602881526020016200aa06602891399052602e600052600460205262004fc5907f3377cca8db66d73c9613cf008dc21372e328915d0ae53c1e79018b2f3033b4be906001620071db565b506200507b602e60016040518060400160405280600d81526020016c4576656e745f306268346a316760981b815250604051806020016040528060008152506040518060400160405280600f81526020016e29b2b1b7b732103932b9b2b63632b960891b81525060405180602001604052806000815250604051806020016040528060008152506040518060400160405280600a8152602001691899179998979918191960b11b8152506200705360201b60201c565b60408051606081018252600f60208083019182526e476174657761795f31396e36356e6360881b938301939093528152602f6000526004909152620050e4907ffac89625171123edccfe88e684fd4aea5c340aeae5af371b184adfb7953ce965906001620071db565b5062005197602f60016040518060400160405280600d81526020016c4576656e745f3038763134736360981b815250604051806020016040528060008152506040518060400160405280600f81526020016000805160206200a87483398151915281525060405180602001604052806000815250604051806020016040528060008152506040518060400160405280600a8152602001691899179998979918191960b11b8152506200705360201b60201c565b60405180602001604052806040518060600160405280602881526020016200ab1e60289139905260306000526004602052620051f7907f8eeeed6187cb0efc838c06115ccee03417eb91ef74d6a7e8c96ea8053a407fae906001620071db565b50620052aa603060016040518060400160405280600d81526020016c04576656e745f30696d6667727609c1b815250604051806020016040528060008152506040518060400160405280600f81526020016000805160206200a87483398151915281525060405180602001604052806000815250604051806020016040528060008152506040518060400160405280600a8152602001691899179998979918191960b11b8152506200705360201b60201c565b60405180604001604052806040518060600160405280602d81526020016200a8e4602d913981526020016040518060600160405280602d81526020016200a911602d913990526031600052600360205262005329907f28eef39a072497d2105dcb780594e4ed840d3beb94e2ea31a78a935b50a4ae2e90600262007234565b5060405180602001604052806040518060600160405280602881526020016200a84c602891399052603160005260046020526200538a907f889c62308daa6a51a3c7dfff70cb50b00b7af78748d7c943941aeb811a32df5d906001620071db565b5062005441603160056040518060600160405280602881526020016200adaf602891396040518060400160405280600b81526020016a416363657074616e63653f60a81b8152506040518060400160405280600881526020016721bab9ba37b6b2b960c11b81525060405180602001604052806000815250604051806020016040528060008152506040518060400160405280600a8152602001691899179998979918191960b11b8152506200705360201b60201c565b60405180604001604052806040518060400160405280600d81526020016c04576656e745f306d663233307609c1b81525081526020016040518060600160405280602881526020016200ae9f60289139905260326000526003602052620054cc907f3ba015d6b845e102ce2f76836007be82508e3543856f2a3c2ff4b56eb46d920e90600262007234565b5060408051606081018252600d60208083019182526c4576656e745f3067366c65766760981b9383019390935281526032600052600490915262005534907feaa72e3626d79eea854e214b64a34b95d0c9348f5b8df0b074d774f7dba83c65906001620071db565b50620055e5603260056040518060400160405280600f81526020016e23b0ba32bbb0bcaf981ab3b7bcb53160891b815250604051806020016040528060008152506040518060400160405280600881526020016721bab9ba37b6b2b960c11b81525060405180602001604052806000815250604051806020016040528060008152506040518060400160405280600a8152602001691899179998979918191960b11b8152506200705360201b60201c565b60405180604001604052806040518060600160405280602d81526020016200ad82602d9139815260408051808201909152601081526f41637469766974795f3065736b34687360801b6020828101919091529182015260336000526003905262005673907f308b08755ec965f49e4d58d22ebbf80dc425791b553f8567a173e85e1abb76c390600262007234565b5060405180602001604052806040518060600160405280602881526020016200ae9f60289139905260336000526004602052620056d4907fd59d36d9a2de213c9d9eb0f9211f3a0af11fcfbb0f65cfc9f3c7b45309667e2e906001620071db565b506200575f603360056040518060600160405280602881526020016200a8bc602891396040805160208082018352600080835283518085018552600881526721bab9ba37b6b2b960c11b8184015284518084018652828152855180850187529283528551808701909652600a8652691899179998979918191960b11b93860193909352929362007053565b60405180604001604052806040518060600160405280602d81526020016200af3f602d913981526020016040518060600160405280602d81526020016200ac5d602d9139905260346000526003602052620057de907fda4c88cb8422456e6dbc87bdc0d70fdf69c0f9f7d6833899744759615d2d4cc590600262007234565b5060405180602001604052806040518060600160405280602881526020016200aeef602891399052603460005260046020526200583f907f07dc151607d341bea6405c6398e0dc78a39309d388b0d5ca847fa0950c593685906001620071db565b50620058f4603460056040518060600160405280602881526020016200acd8602891396040518060400160405280600b81526020016a024b739bab930b731b29f960ad1b81525060405180604001604052806006815260200165535041524b5360d01b81525060405180602001604052806000815250604051806020016040528060008152506040518060400160405280600a8152602001691899179998979918191960b11b8152506200705360201b60201c565b60408051608081018252600d8183018181526c22bb32b73a2f981a99343c983b60991b60608401528252825180840190935282526c4576656e745f3034717578393960981b602083810191909152808201929092526035600052600390915262005982907f6a4c132bb6958029ac3595112f46988f11d4ebbbea74e0a2100963f772df62e290600262007234565b5060405180602001604052806040518060600160405280602881526020016200ab9660289139905260356000526004602052620059e3907fe2b108dd778a5bf8f865adc0a50f1ea8fe250a60446ec6aaace1c5f8d7469078906001620071db565b5062005a92603560056040518060400160405280600f81526020016e23b0ba32bbb0bcaf98b8b6b1b0bbbb60891b8152506040518060200160405280600081525060405180604001604052806006815260200165535041524b5360d01b81525060405180602001604052806000815250604051806020016040528060008152506040518060400160405280600a8152602001691899179998979918191960b11b8152506200705360201b60201c565b60405180604001604052806040518060600160405280602d81526020016200aa51602d913981526020016040518060600160405280602d81526020016200ae20602d913990526036600052600360205262005b11907f1c5556a54fe414bb73b8e027c2ff4bb044a11e7ca4f73a8463fd263d06b76aa690600262007234565b5060405180604001604052806040518060600160405280602881526020016200a8946028913981526020016040518060600160405280602881526020016200a8946028913990526036600052600460205262005b91907f730d07f07f071f74973307d6cc3e11ed033d9a189205b3edf35c60097eb89c4290600262007234565b5062005c41603660056040518060600160405280602881526020016200abbe602891396040518060400160405280600681526020016553746f636b3f60d01b81525060405180604001604052806006815260200165535041524b5360d01b81525060405180602001604052806000815250604051806020016040528060008152506040518060400160405280600a8152602001691899179998979918191960b11b8152506200705360201b60201c565b60405180604001604052806040518060400160405280600d81526020016c4576656e745f31716b6c37796160981b81525081526020016040518060600160405280602881526020016200a9666028913990526037600052600360205262005ccc907f2bb318060b44525c3d947c00393e6d416e9d457a7e83b67b8daab0973739b0fa90600262007234565b5060408051606081018252600d60208083019182526c4576656e745f317430756e773560981b9383019390935281526037600052600490915262005d34907fa8de14f068f1024c1a1b5395efa894ce1c350782aeaf13977a9da37fbd9c52da906001620071db565b5062005de3603760056040518060400160405280600f81526020016e23b0ba32bbb0bcaf98b7b43b9b31b760891b8152506040518060200160405280600081525060405180604001604052806006815260200165535041524b5360d01b81525060405180602001604052806000815250604051806020016040528060008152506040518060400160405280600a8152602001691899179998979918191960b11b8152506200705360201b60201c565b60405180602001604052806040518060600160405280602d81526020016200ad00602d913990526038600052600360205262005e43907f22848320af6c4894685e387cf97d56ba798f5dabcd8f3a2db70374776f0f2f93906001620071db565b5060405180604001604052806040518060600160405280602881526020016200acb06028913981526020016040518060600160405280602881526020016200aace6028913990526038600052600460205262005ec3907f34db2c2506a14ae3565d22daf9fb04f13bcfe9437628061d7d65cec98630673c90600262007234565b5062005f4c603860056040518060600160405280602881526020016200ad5a6028913960408051602080820183526000808352835180850185526006815265535041524b5360d01b8184015284518084018652828152855180850187529283528551808701909652600a8652691899179998979918191960b11b93860193909352929362007053565b60408051608081018252600d8183018181526c4576656e745f317430756e773560981b60608401528252825180840190935282526c115d995b9d17cc4d4ccc1dd90d609a1b602083810191909152808201929092526039600052600390915262005fda907f7328c223b526ac18a2ca34e3cc928d22c174fde8c81d65ae5d17c01763d134b190600262007234565b5060408051606081018252600d60208083019182526c4576656e745f3035656d76713360981b9383019390935281526039600052600490915262006042907f5705310f8d95d9f533c285626b9f795711df8fcd20ef72d3e53d4bba9bcf8155906001620071db565b50620060f1603960056040518060400160405280600f81526020016e23b0ba32bbb0bcaf989aba18bb18b560891b8152506040518060200160405280600081525060405180604001604052806006815260200165535041524b5360d01b81525060405180602001604052806000815250604051806020016040528060008152506040518060400160405280600a8152602001691899179998979918191960b11b8152506200705360201b60201c565b60405180604001604052806040518060600160405280602d81526020016200ad2d602d9139815260408051808201909152600d81526c4576656e745f3038763134736360981b60208281019190915291820152603a600052600390526200617c907f4e68cda4a6128fdfebaae69af59e96a318b50754e0da27477d282f3d224cc4fd90600262007234565b5060405180602001604052806040518060600160405280602881526020016200aec7602891399052603a6000526004602052620061dd907fa7721cb98368aeacc16d9c8f7f0938b7d655c728eb99b2d353abf03836893d98906001620071db565b5062006292603a60056040518060400160405280600f81526020016e476174657761795f31396e36356e6360881b815250604051806020016040528060008152506040518060400160405280600f81526020016000805160206200a87483398151915281525060405180602001604052806000815250604051806020016040528060008152506040518060400160405280600a8152602001691899179998979918191960b11b8152506200705360201b60201c565b60408051606081018252600d60208083019182526c4576656e745f3067366c65766760981b938301939093528152603b6000526003909152620062f9907f9c0ea5b0ac1441361bd97a1871d83799b2d794cf29a9954ddc2e33262e005d67906001620071db565b5060405180602001604052806040518060600160405280602881526020016200adaf602891399052603b60005260046020526200635a907f37ca71ba9c41385501f0a2deff4f54ee55909e9526e91d9924f3c771a52ae7d2906001620071db565b5062006409603b60046040518060600160405280602d81526020016200a8e4602d91396040518060400160405280600381526020016259657360e81b8152506040518060400160405280600881526020016721bab9ba37b6b2b960c11b81525060405180602001604052806000815250604051806020016040528060008152506040518060400160405280600a8152602001691899179998979918191960b11b8152506200705360201b60201c565b60405180602001604052806040518060600160405280602881526020016200a9de602891399052603c600052600360205262006469907f01c8d1bf01472944f62fa726559c57c955f3535856e865cee78082252c0dbe65906001620071db565b5060405180602001604052806040518060600160405280602881526020016200adaf602891399052603c6000526004602052620064ca907f2fc109324a9702a6c6d9ee4cb191009203224963472d729f754fd607ea2f8fd0906001620071db565b5062006578603c60046040518060600160405280602d81526020016200a911602d9139604051806040016040528060028152602001614e6f60f01b8152506040518060400160405280600881526020016721bab9ba37b6b2b960c11b81525060405180602001604052806000815250604051806020016040528060008152506040518060400160405280600a8152602001691899179998979918191960b11b8152506200705360201b60201c565b60405180602001604052806040518060600160405280602881526020016200aaa6602891399052603d6000526003602052620065d8907fa171e6dff2e291b2403638b36fa1900bfb6d28056b9cc28339adf04ff3e24b88906001620071db565b5060405180602001604052806040518060600160405280602881526020016200a8bc602891399052603d600052600460205262006639907ff13a4de10a82cea8926787ad7534bdd0eeb85aaf1d4813cb0c9cf7e399b7ef0b906001620071db565b50620066e8603d60046040518060600160405280602d81526020016200ad82602d91396040518060400160405280600381526020016259657360e81b8152506040518060400160405280600881526020016721bab9ba37b6b2b960c11b81525060405180602001604052806000815250604051806020016040528060008152506040518060400160405280600a8152602001691899179998979918191960b11b8152506200705360201b60201c565b60405180602001604052806040518060600160405280602881526020016200ae4d602891399052603e600052600360205262006748907f7bfa808024a5334b0a1e191d8e95f6724ea40d1a03d1286b6934e670f8c6924b906001620071db565b5060405180602001604052806040518060600160405280602881526020016200acd8602891399052603e6000526004602052620067a9907f6a1b1ef94f6deb640ab38caedbf44252d256d60e00dbeb774c18a4a570e050fc906001620071db565b5062006856603e60046040518060600160405280602d81526020016200af3f602d91396040518060400160405280600381526020016259657360e81b81525060405180604001604052806006815260200165535041524b5360d01b81525060405180602001604052806000815250604051806020016040528060008152506040518060400160405280600a8152602001691899179998979918191960b11b8152506200705360201b60201c565b60405180602001604052806040518060600160405280602881526020016200a93e602891399052603f6000526003602052620068b6907f163a647ba7edd41caabec3eace9ce83f1a89ebea06fc099aa7fb98088da75131906001620071db565b5060405180602001604052806040518060600160405280602881526020016200acd8602891399052603f600052600460205262006917907f964a5c9eebcc463fb4827eeb6f33bfda3a89a93c9d922181be64d4f80a673ec3906001620071db565b50620069c4603f60046040518060600160405280602d81526020016200ac5d602d91396040518060400160405280600381526020016202737960ed1b81525060405180604001604052806006815260200165535041524b5360d01b81525060405180602001604052806000815250604051806020016040528060008152506040518060400160405280600a8152602001691899179998979918191960b11b8152506200705360201b60201c565b60408051606081018252600d60208083019182526c4576656e745f306573346c656760981b83850152908252600092909252600390915262006a2a907f13e779bc7ec8e84a68157fc5c2caa579dc0ee0b80d83944c270539b94cac271f906001620071db565b5060405180602001604052806040518060600160405280602881526020016200abbe6028913990526040600052600460205262006a8b907fb93c443712bfe14e7a639981e333273aa262f031202de6955780cac88aee6001906001620071db565b5062006b38604060046040518060600160405280602d81526020016200aa51602d91396040518060400160405280600381526020016259657360e81b81525060405180604001604052806006815260200165535041524b5360d01b81525060405180602001604052806000815250604051806020016040528060008152506040518060400160405280600a8152602001691899179998979918191960b11b8152506200705360201b60201c565b60408051606081018252600d60208083019182526c4576656e745f3035656d76713360981b9383019390935281526041600052600390915262006b9f907fc20be026ae5ea792bd28b5908d1dfcfd8c2e447d9276607ddf6143e7dddc0fe8906001620071db565b5060405180602001604052806040518060600160405280602881526020016200abbe6028913990526041600052600460205262006c00907fc428ee1ad537b92c49dfe1388414ba8cd624f9af6ebb2d8439967137c4233dc3906001620071db565b5062006cac604160046040518060600160405280602d81526020016200ae20602d9139604051806040016040528060028152602001614e6f60f01b81525060405180604001604052806006815260200165535041524b5360d01b81525060405180602001604052806000815250604051806020016040528060008152506040518060400160405280600a8152602001691899179998979918191960b11b8152506200705360201b60201c565b60405180602001604052806040518060600160405280602881526020016200ab6e6028913990526042600052600360205262006d0c907ffc869d08d1790d4602743c5b6e4adb33c74c1d0d7c8c47359779d859193dcb05906001620071db565b5060405180602001604052806040518060600160405280602881526020016200ad5a6028913990526042600052600460205262006d6d907fdd419dcc043200f77522d748491f1f04f6bdda32a5fda8d28678886df3770445906001620071db565b5062006df6604260046040518060600160405280602d81526020016200ad00602d913960408051602080820183526000808352835180850185526006815265535041524b5360d01b8184015284518084018652828152855180850187529283528551808701909652600a8652691899179998979918191960b11b93860193909352929362007053565b60405180602001604052806040518060600160405280602881526020016200ab1e6028913990526043600052600360205262006e56907f682542400590cecd25f82cad25103b4dc125cd3511d319539197c8bb9765a74f906001620071db565b5060408051606081018252600f60208083019182526e476174657761795f31396e36356e6360881b9383019390935281526043600052600490915262006ec0907fbaceffac4e34c2289017f2773986e04c489fa35b70c7c7ee2509287f03966bed906001620071db565b5062006f4f604360046040518060600160405280602d81526020016200ad2d602d91396040805160208082018352600080835283518085018552600f81526000805160206200a8748339815191528184015284518084018652828152855180850187529283528551808701909652600a8652691899179998979918191960b11b93860193909352929362007053565b620074fe565b6000816001600160401b0381111562006f725762006f7262007337565b60405190808252806020026020018201604052801562006f9c578160200160208202803683370190505b50905060005b8281101562006fd5578082828151811062006fc15762006fc16200734d565b602090810291909101015260010162006fa2565b5060408051606081018252600854808252602080830187815283850186905260009283529082905292902081518155915190919060018201906200701a9082620073f4565b5060408201518051620070389160028401916020909101906200727f565b50506008546200704b91506001620074c0565b600855505050565b6040518061010001604052808981526020018860078111156200707a576200707a620074e8565b815260200187815260200186815260200185815260200184815260200183815260200182815250600260008a81526020019081526020016000206000820151816000015560208201518160010160006101000a81548160ff02191690836007811115620070eb57620070eb620074e8565b021790555060408201516002820190620071069082620073f4565b50606082015160038201906200711d9082620073f4565b5060808201516004820190620071349082620073f4565b5060a082015160058201906200714b9082620073f4565b5060c08201516006820190620071629082620073f4565b5060e08201516007820190620071799082620073f4565b5050505050505050505050565b828054828255906000526020600020908101928215620071c9579160200282015b82811115620071c9578251829060ff16905591602001919060010190620071a7565b50620071d7929150620072bd565b5090565b82805482825590600052602060002090810192821562007226579160200282015b82811115620072265782518290620072159082620073f4565b5091602001919060010190620071fc565b50620071d7929150620072d4565b82805482825590600052602060002090810192821562007226579160200282015b828111156200722657825182906200726e9082620073f4565b509160200191906001019062007255565b828054828255906000526020600020908101928215620071c9579160200282015b82811115620071c9578251825591602001919060010190620072a0565b5b80821115620071d75760008155600101620072be565b80821115620071d7576000620072eb8282620072f5565b50600101620072d4565b508054620073039062007363565b6000825580601f1062007314575050565b601f016020900490600052602060002090810190620073349190620072bd565b50565b634e487b7160e01b600052604160045260246000fd5b634e487b7160e01b600052603260045260246000fd5b600181811c908216806200737857607f821691505b6020821081036200739957634e487b7160e01b600052602260045260246000fd5b50919050565b601f821115620073ef576000816000526020600020601f850160051c81016020861015620073ca5750805b601f850160051c820191505b81811015620073eb57828155600101620073d6565b5050505b505050565b81516001600160401b0381111562007410576200741062007337565b620074288162007421845462007363565b846200739f565b602080601f831160018114620074605760008415620074475750858301515b600019600386901b1c1916600185901b178555620073eb565b600085815260208120601f198616915b82811015620074915788860151825594840194600190910190840162007470565b5085821015620074b05787850151600019600388901b60f8161c191681555b5050505050600190811b01905550565b80820180821115620074e257634e487b7160e01b600052601160045260246000fd5b92915050565b634e487b7160e01b600052602160045260246000fd5b61333e806200750e6000396000f3fe60806040526004361061014b5760003560e01c806379a42d06116100b657806398d46dfd1161006f57806398d46dfd146103ee578063a58603e01461040e578063af12a5711461042e578063bed34bba14610443578063c29de7ca14610463578063ecd3645e1461048357600080fd5b806379a42d061461033257806386209b871461034857806386f612271461037b57806394d55eaf1461039b57806395755d17146103bb57806397ada366146103ce57600080fd5b80633a3e8a95116101085780633a3e8a951461025f5780634b5ae0771461028e578063581cf028146102a357806359b97b97146102c35780635f03facd146102e357806378660f5e1461031257600080fd5b806309be70b2146101505780630b09c8ce1461017b5780630d1657e8146101ba57806311ae9ed2146101ee57806319dfc19d1461020357806324a4dd9414610230575b600080fd5b34801561015c57600080fd5b506101656104a3565b60405161017291906129b5565b60405180910390f35b34801561018757600080fd5b506101aa6101963660046129f9565b600090815260066020526040902054151590565b6040519015158152602001610172565b3480156101c657600080fd5b506101da6101d53660046129f9565b6104fb565b604051610172989796959493929190612a78565b3480156101fa57600080fd5b50610165610871565b34801561020f57600080fd5b5061022361021e366004612b29565b6108c7565b6040516101729190612b4b565b34801561023c57600080fd5b506101aa61024b3660046129f9565b600090815260036020526040902054151590565b34801561026b57600080fd5b506101aa61027a3660046129f9565b600090815260046020526040902054151590565b6102a161029c3660046129f9565b610980565b005b3480156102af57600080fd5b506102236102be366004612b29565b610a14565b3480156102cf57600080fd5b506101aa6102de366004612bac565b610a30565b3480156102ef57600080fd5b506101aa6102fe3660046129f9565b600090815260056020526040902054151590565b34801561031e57600080fd5b5061016561032d3660046129f9565b610a7b565b61033a610ade565b604051908152602001610172565b34801561035457600080fd5b506103686103633660046129f9565b610af1565b6040516101729796959493929190612c5e565b34801561038757600080fd5b50610223610396366004612cd9565b610e29565b3480156103a757600080fd5b506102236103b6366004612b29565b610e42565b6102a16103c9366004612d72565b610e5e565b3480156103da57600080fd5b5061033a6103e9366004612e04565b61106a565b3480156103fa57600080fd5b506102a1610409366004612e55565b6110e2565b34801561041a57600080fd5b506102a1610429366004612f66565b611203565b34801561043a57600080fd5b506101656112f3565b34801561044f57600080fd5b506101aa61045e366004612fab565b611349565b34801561046f57600080fd5b506102a161047e366004612fab565b6113a2565b34801561048f57600080fd5b5061022361049e366004612b29565b6115fb565b6060600a8054806020026020016040519081016040528092919081815260200182805480156104f157602002820191906000526020600020905b8154815260200190600101908083116104dd575b5050505050905090565b6002602081905260009182526040909120805460018201549282018054919360ff1692916105289061300f565b80601f01602080910402602001604051908101604052809291908181526020018280546105549061300f565b80156105a15780601f10610576576101008083540402835291602001916105a1565b820191906000526020600020905b81548152906001019060200180831161058457829003601f168201915b5050505050908060030180546105b69061300f565b80601f01602080910402602001604051908101604052809291908181526020018280546105e29061300f565b801561062f5780601f106106045761010080835404028352916020019161062f565b820191906000526020600020905b81548152906001019060200180831161061257829003601f168201915b5050505050908060040180546106449061300f565b80601f01602080910402602001604051908101604052809291908181526020018280546106709061300f565b80156106bd5780601f10610692576101008083540402835291602001916106bd565b820191906000526020600020905b8154815290600101906020018083116106a057829003601f168201915b5050505050908060050180546106d29061300f565b80601f01602080910402602001604051908101604052809291908181526020018280546106fe9061300f565b801561074b5780601f106107205761010080835404028352916020019161074b565b820191906000526020600020905b81548152906001019060200180831161072e57829003601f168201915b5050505050908060060180546107609061300f565b80601f016020809104026020016040519081016040528092919081815260200182805461078c9061300f565b80156107d95780601f106107ae576101008083540402835291602001916107d9565b820191906000526020600020905b8154815290600101906020018083116107bc57829003601f168201915b5050505050908060070180546107ee9061300f565b80601f016020809104026020016040519081016040528092919081815260200182805461081a9061300f565b80156108675780601f1061083c57610100808354040283529160200191610867565b820191906000526020600020905b81548152906001019060200180831161084a57829003601f168201915b5050505050905088565b6060600b8054806020026020016040519081016040528092919081815260200182805480156104f157602002820191906000526020600020908154815260200190600101908083116104dd575050505050905090565b600360205281600052604060002081815481106108e357600080fd5b906000526020600020016000915091505080546108ff9061300f565b80601f016020809104026020016040519081016040528092919081815260200182805461092b9061300f565b80156109785780601f1061094d57610100808354040283529160200191610978565b820191906000526020600020905b81548152906001019060200180831161095b57829003601f168201915b505050505081565b600061098c6000610a7b565b6000838152600560209081526040808320546002928390529083206001015493945015159260ff1660078111156109c5576109c5612a12565b149050816109dc576109d78484611617565b610a04565b8180156109e65750805b156109f5576109d784846116fb565b80610a0457610a048484611617565b610a0e8484611719565b50505050565b600560205281600052604060002081815481106108e357600080fd5b6000805b8251811015610a6f5783838281518110610a5057610a50613049565b602002602001015103610a67576001915050610a75565b600101610a34565b50600090505b92915050565b60008181526020818152604091829020600201805483518184028101840190945280845260609392830182828015610ad257602002820191906000526020600020905b815481526020019060010190808311610abe575b50505050509050919050565b6000610aeb600a82612937565b50600090565b600081815260026020526040812080546001909101548291606091829182918291829160ff166007811115610b2857610b28612a12565b60008a8152600260208190526040909120908101805490916003810191600582019160068101916004909101908590610b609061300f565b80601f0160208091040260200160405190810160405280929190818152602001828054610b8c9061300f565b8015610bd95780601f10610bae57610100808354040283529160200191610bd9565b820191906000526020600020905b815481529060010190602001808311610bbc57829003601f168201915b50505050509450838054610bec9061300f565b80601f0160208091040260200160405190810160405280929190818152602001828054610c189061300f565b8015610c655780601f10610c3a57610100808354040283529160200191610c65565b820191906000526020600020905b815481529060010190602001808311610c4857829003601f168201915b50505050509350828054610c789061300f565b80601f0160208091040260200160405190810160405280929190818152602001828054610ca49061300f565b8015610cf15780601f10610cc657610100808354040283529160200191610cf1565b820191906000526020600020905b815481529060010190602001808311610cd457829003601f168201915b50505050509250818054610d049061300f565b80601f0160208091040260200160405190810160405280929190818152602001828054610d309061300f565b8015610d7d5780601f10610d5257610100808354040283529160200191610d7d565b820191906000526020600020905b815481529060010190602001808311610d6057829003601f168201915b50505050509150808054610d909061300f565b80601f0160208091040260200160405190810160405280929190818152602001828054610dbc9061300f565b8015610e095780601f10610dde57610100808354040283529160200191610e09565b820191906000526020600020905b815481529060010190602001808311610dec57829003601f168201915b505050505090509650965096509650965096509650919395979092949650565b600160205260009081526040902080546108ff9061300f565b600460205281600052604060002081815481106108e357600080fd5b60008481526002602052604090206004018054610f03918591610e809061300f565b80601f0160208091040260200160405190810160405280929190818152602001828054610eac9061300f565b8015610ef95780601f10610ece57610100808354040283529160200191610ef9565b820191906000526020600020905b815481529060010190602001808311610edc57829003601f168201915b5050505050611349565b610f0c57600080fd5b600084815260026020526040902060010154610f2a9060ff16611760565b610f3357600080fd5b6000600a8581548110610f4857610f48613049565b906000526020600020015460011490506000600b8681548110610f6d57610f6d613049565b906000526020600020015460011490508180610f865750805b1561106257600560008781526002602052604090206001015460ff166007811115610fb357610fb3612a12565b03610fc657610fc186611823565b611007565b600660008781526002602052604090206001015460ff166007811115610fee57610fee612a12565b03610ffc57610fc1866119f6565b611007868585611d07565b336001600160a01b03167f32e4ea1ee1b7d04aff7692ad7aa9a1db44a16ce2b519efa717ddd98034b9f1c3600260008981526020019081526020016000206002018686604051611059939291906130dc565b60405180910390a25b505050505050565b6000806110776000610a7b565b905060005b81518110156110d7576110c3846002600085858151811061109f5761109f613049565b602002602001015181526020019081526020016000206002018054610e809061300f565b156110cf579392505050565b60010161107c565b506101949392505050565b60405180610100016040528089815260200188600781111561110657611106612a12565b815260200187815260200186815260200185815260200184815260200183815260200182815250600260008a81526020019081526020016000206000820151816000015560208201518160010160006101000a81548160ff0219169083600781111561117457611174612a12565b02179055506040820151600282019061118d9082613167565b50606082015160038201906111a29082613167565b50608082015160048201906111b79082613167565b5060a082015160058201906111cc9082613167565b5060c082015160068201906111e19082613167565b5060e082015160078201906111f69082613167565b5050505050505050505050565b60008167ffffffffffffffff81111561121e5761121e612b65565b604051908082528060200260200182016040528015611247578160200160208202803683370190505b50905060005b8281101561127b578082828151811061126857611268613049565b602090810291909101015260010161124d565b5060408051606081018252600854808252602080830187815283850186905260009283529082905292902081518155915190919060018201906112be9082613167565b50604082015180516112da916002840191602090910190612955565b50506008546112eb91506001613227565b600855505050565b6060600c8054806020026020016040519081016040528092919081815260200182805480156104f157602002820191906000526020600020908154815260200190600101908083116104dd575050505050905090565b60008160405160200161135c9190613248565b60405160208183030381529060405280519060200120836040516020016113839190613248565b6040516020818303038152906040528051906020012014905092915050565b60006113ad8361106a565b90506001600a82815481106113c4576113c4613049565b90600052602060002001819055506000600c82815481106113e7576113e7613049565b90600052602060002001819055506000600b828154811061140a5761140a613049565b906000526020600020018190555060005b60078360405161142b9190613248565b9081526040519081900360200190205481101561158057600061150e6007856040516114579190613248565b9081526020016040518091039020838154811061147657611476613049565b90600052602060002001805461148b9061300f565b80601f01602080910402602001604051908101604052809291908181526020018280546114b79061300f565b80156115045780601f106114d957610100808354040283529160200191611504565b820191906000526020600020905b8154815290600101906020018083116114e757829003601f168201915b505050505061106a565b90506000600a828154811061152557611525613049565b90600052602060002001819055506000600c828154811061154857611548613049565b90600052602060002001819055506000600b828154811061156b5761156b613049565b6000918252602090912001555060010161141b565b50600061158c8361106a565b90506000600a82815481106115a3576115a3613049565b90600052602060002001819055506000600c82815481106115c6576115c6613049565b90600052602060002001819055506000600b82815481106115e9576115e9613049565b60009182526020909120015550505050565b600660205281600052604060002081815481106108e357600080fd5b60005b6000838152600360205260409020548110156116f657600083815260036020526040902080546116ee9184918490811061165657611656613049565b90600052602060002001805461166b9061300f565b80601f01602080910402602001604051908101604052809291908181526020018280546116979061300f565b80156116e45780601f106116b9576101008083540402835291602001916116e4565b820191906000526020600020905b8154815290600101906020018083116116c757829003601f168201915b5050505050611d79565b60010161161a565b505050565b60006117078383611e2d565b905080156116f6576116f68383611617565b60005b6000838152600660205260409020548110156116f657600083815260066020526040902080546117589184918490811061165657611656613049565b60010161171c565b60008082600781111561177557611775612a12565b14806117925750600282600781111561179057611790612a12565b145b806117ae575060038260078111156117ac576117ac612a12565b145b806117ca575060048260078111156117c8576117c8612a12565b145b806117e6575060018260078111156117e4576117e4612a12565b145b806118025750600582600781111561180057611800612a12565b145b80610a755750600682600781111561181c5761181c612a12565b1492915050565b6000600a828154811061183857611838613049565b90600052602060002001819055506001600c828154811061185b5761185b613049565b906000526020600020018190555060006118756000610a7b565b905060005b6000838152600360205260409020548110156116f65760008381526003602052604081208054839081106118b0576118b0613049565b9060005260206000200180546118c59061300f565b80601f01602080910402602001604051908101604052809291908181526020018280546118f19061300f565b801561193e5780601f106119135761010080835404028352916020019161193e565b820191906000526020600020905b81548152906001019060200180831161192157829003601f168201915b5050505050905060005b83518110156119ec5761196b826002600087858151811061109f5761109f613049565b156119e4576001600a85838151811061198657611986613049565b60200260200101518154811061199e5761199e613049565b9060005260206000200181905550600d8482815181106119c0576119c0613049565b602090810291909101810151825460018101845560009384529190922001556119ec565b600101611948565b505060010161187a565b600080611a036000610a7b565b905060005b600084815260046020526040902054811015611b61576000848152600460205260408120805483908110611a3e57611a3e613049565b906000526020600020018054611a539061300f565b80601f0160208091040260200160405190810160405280929190818152602001828054611a7f9061300f565b8015611acc5780601f10611aa157610100808354040283529160200191611acc565b820191906000526020600020905b815481529060010190602001808311611aaf57829003601f168201915b5050505050905060005b8351811015611b5757611af9826002600087858151811061109f5761109f613049565b15611b4f57600c848281518110611b1257611b12613049565b602002602001015181548110611b2a57611b2a613049565b9060005260206000200154600103611b4a57611b47856001613227565b94505b611b57565b600101611ad6565b5050600101611a08565b5060008381526004602052604090205482036116f6576000600a8481548110611b8c57611b8c613049565b90600052602060002001819055506001600c8481548110611baf57611baf613049565b906000526020600020018190555060005b600084815260036020526040902054811015610a0e576000848152600360205260408120805483908110611bf657611bf6613049565b906000526020600020018054611c0b9061300f565b80601f0160208091040260200160405190810160405280929190818152602001828054611c379061300f565b8015611c845780601f10611c5957610100808354040283529160200191611c84565b820191906000526020600020905b815481529060010190602001808311611c6757829003601f168201915b5050505050905060005b8351811015611cfd57611cb1826002600087858151811061109f5761109f613049565b15611cf5576001600a858381518110611ccc57611ccc613049565b602002602001015181548110611ce457611ce4613049565b600091825260209091200155611cfd565b600101611c8e565b5050600101611bc0565b611d12838383611f9d565b611d6c83600d805480602002602001604051908101604052809291908181526020018280548015611d6257602002820191906000526020600020905b815481526020019060010190808311611d4e575b5050505050610a30565b156116f6576116f66120a6565b60005b82518110156116f657611d9f826002600086858151811061109f5761109f613049565b8015611de157506001600c848381518110611dbc57611dbc613049565b602002602001015181548110611dd457611dd4613049565b9060005260206000200154105b15611e25576001600a848381518110611dfc57611dfc613049565b602002602001015181548110611e1457611e14613049565b600091825260209091200155505050565b600101611d7c565b6000805b8251811015610a6f5760008481526005602052604081208054611f049290611e5b57611e5b613049565b906000526020600020018054611e709061300f565b80601f0160208091040260200160405190810160405280929190818152602001828054611e9c9061300f565b8015611ee95780601f10611ebe57610100808354040283529160200191611ee9565b820191906000526020600020905b815481529060010190602001808311611ecc57829003601f168201915b50505050506002600086858151811061109f5761109f613049565b8015611f8657506000600b848381518110611f2157611f21613049565b602002602001015181548110611f3957611f39613049565b90600052602060002001541180611f8657506000600c848381518110611f6157611f61613049565b602002602001015181548110611f7957611f79613049565b9060005260206000200154115b15611f95576001915050610a75565b600101611e31565b600083815260026020526040812060060180546120519190611fbe9061300f565b80601f0160208091040260200160405190810160405280929190818152602001828054611fea9061300f565b80156120375780601f1061200c57610100808354040283529160200191612037565b820191906000526020600020905b81548152906001019060200180831161201a57829003601f168201915b505050505060405180602001604052806000815250611349565b159050600061207a600260008781526020019081526020016000206005018054611fbe9061300f565b159050816120935761208e85858584612108565b61209f565b61209f8585858461249f565b5050505050565b60005b600d548110156120f9576000600a600d83815481106120ca576120ca613049565b9060005260206000200154815481106120e5576120e5613049565b6000918252602090912001556001016120a9565b50612106600d6000612937565b565b801561212b5760008481526002602052604090206005016121298482613167565b505b60006121376000610a7b565b6000868152600660205260408120549192509015159061215787846124df565b9050600061216588856124df565b905060006007600260008b815260200190815260200160002060020160405161218e9190613264565b90815260405190819003602001902054151590508380156121ac5750805b1561230e576000898152600660205260408120805461230992906121d2576121d2613049565b9060005260206000200180546121e79061300f565b80601f01602080910402602001604051908101604052809291908181526020018280546122139061300f565b80156122605780601f1061223557610100808354040283529160200191612260565b820191906000526020600020905b81548152906001019060200180831161224357829003601f168201915b5050505050600260008c815260200190815260200160002060020180546122869061300f565b80601f01602080910402602001604051908101604052809291908181526020018280546122b29061300f565b80156122ff5780601f106122d4576101008083540402835291602001916122ff565b820191906000526020600020905b8154815290600101906020018083116122e257829003601f168201915b50505050506113a2565b612494565b83158061232057508280156123205750815b1561232e5761230989612627565b8261243b576001600c8a8154811061234857612348613049565b90600052602060002001819055506000600a8a8154811061236b5761236b613049565b90600052602060002001819055506123098986600660008d81526020019081526020016000206000815481106123a3576123a3613049565b9060005260206000200180546123b89061300f565b80601f01602080910402602001604051908101604052809291908181526020018280546123e49061300f565b80156124315780601f1061240657610100808354040283529160200191612431565b820191906000526020600020905b81548152906001019060200180831161241457829003601f168201915b50505050506126b1565b336001600160a01b03167ffc98137258110aa472f6dbf39f2051f7045162382f61b13bb1445bdb0a3e8b8a600260008c81526020019081526020016000206002018960405161248b9291906132da565b60405180910390a25b505050505050505050565b600b84815481106124b2576124b2613049565b90600052602060002001546000036124d4576124cf8482856127ab565b610a0e565b610a0e8484846127e3565b600080805b835181101561261f576000858152600560205260409020541561261757600085815260056020526040812080546125cb929061252257612522613049565b9060005260206000200180546125379061300f565b80601f01602080910402602001604051908101604052809291908181526020018280546125639061300f565b80156125b05780601f10612585576101008083540402835291602001916125b0565b820191906000526020600020905b81548152906001019060200180831161259357829003601f168201915b50505050506002600087858151811061109f5761109f613049565b1561261757600c8482815181106125e4576125e4613049565b6020026020010151815481106125fc576125fc613049565b9060005260206000200154600103612617576001915061261f565b6001016124e4565b509392505050565b6000600b828154811061263c5761263c613049565b90600052602060002001819055506000600a828154811061265f5761265f613049565b90600052602060002001819055506001600c828154811061268257612682613049565b600091825260208083209091019290925582815260039091526040902054156126ae576126ae81610980565b50565b60005b600084815260066020526040902054811015610a0e5760005b83518110156127a2576126f0836002600087858151811061109f5761109f613049565b801561273257506001600c85838151811061270d5761270d613049565b60200260200101518154811061272557612725613049565b9060005260206000200154105b1561279a576001600c85838151811061274d5761274d613049565b60200260200101518154811061276557612765613049565b906000526020600020018190555061279584828151811061278857612788613049565b6020026020010151610980565b6127a2565b6001016126cd565b506001016126b4565b81156127ce5760008381526002602052604090206005016127cc8282613167565b505b6001600b8481548110611e1457611e14613049565b60008381526002602052604090206006016127fe8382613167565b50600061280b6000610a7b565b6000858152600660205260408120549192509015159061282b86846124df565b9050600061283987856124df565b905082158061284d575081801561284d5750805b156128605761285b87612627565b61292e565b816128d5576001600b888154811061287a5761287a613049565b90600052602060002001819055506000600a888154811061289d5761289d613049565b906000526020600020018190555061285b8785600660008b81526020019081526020016000206000815481106123a3576123a3613049565b336001600160a01b03167ffc98137258110aa472f6dbf39f2051f7045162382f61b13bb1445bdb0a3e8b8a600260008a8152602001908152602001600020600201876040516129259291906132da565b60405180910390a25b50505050505050565b50805460008255906000526020600020908101906126ae91906129a0565b828054828255906000526020600020908101928215612990579160200282015b82811115612990578251825591602001919060010190612975565b5061299c9291506129a0565b5090565b5b8082111561299c57600081556001016129a1565b6020808252825182820181905260009190848201906040850190845b818110156129ed578351835292840192918401916001016129d1565b50909695505050505050565b600060208284031215612a0b57600080fd5b5035919050565b634e487b7160e01b600052602160045260246000fd5b60005b83811015612a43578181015183820152602001612a2b565b50506000910152565b60008151808452612a64816020860160208601612a28565b601f01601f19169290920160200192915050565b60006101008a835260088a10612a9e57634e487b7160e01b600052602160045260246000fd5b896020840152806040840152612ab68184018a612a4c565b90508281036060840152612aca8189612a4c565b90508281036080840152612ade8188612a4c565b905082810360a0840152612af28187612a4c565b905082810360c0840152612b068186612a4c565b905082810360e0840152612b1a8185612a4c565b9b9a5050505050505050505050565b60008060408385031215612b3c57600080fd5b50508035926020909101359150565b602081526000612b5e6020830184612a4c565b9392505050565b634e487b7160e01b600052604160045260246000fd5b604051601f8201601f1916810167ffffffffffffffff81118282101715612ba457612ba4612b65565b604052919050565b60008060408385031215612bbf57600080fd5b8235915060208084013567ffffffffffffffff80821115612bdf57600080fd5b818601915086601f830112612bf357600080fd5b813581811115612c0557612c05612b65565b8060051b9150612c16848301612b7b565b8181529183018401918481019089841115612c3057600080fd5b938501935b83851015612c4e57843582529385019390850190612c35565b8096505050505050509250929050565b87815286602082015260e060408201526000612c7d60e0830188612a4c565b8281036060840152612c8f8188612a4c565b90508281036080840152612ca38187612a4c565b905082810360a0840152612cb78186612a4c565b905082810360c0840152612ccb8185612a4c565b9a9950505050505050505050565b600060208284031215612ceb57600080fd5b81356001600160a01b0381168114612b5e57600080fd5b600082601f830112612d1357600080fd5b813567ffffffffffffffff811115612d2d57612d2d612b65565b612d40601f8201601f1916602001612b7b565b818152846020838601011115612d5557600080fd5b816020850160208301376000918101602001919091529392505050565b60008060008060808587031215612d8857600080fd5b84359350602085013567ffffffffffffffff80821115612da757600080fd5b612db388838901612d02565b94506040870135915080821115612dc957600080fd5b612dd588838901612d02565b93506060870135915080821115612deb57600080fd5b50612df887828801612d02565b91505092959194509250565b600060208284031215612e1657600080fd5b813567ffffffffffffffff811115612e2d57600080fd5b612e3984828501612d02565b949350505050565b803560088110612e5057600080fd5b919050565b600080600080600080600080610100898b031215612e7257600080fd5b88359750612e8260208a01612e41565b9650604089013567ffffffffffffffff80821115612e9f57600080fd5b612eab8c838d01612d02565b975060608b0135915080821115612ec157600080fd5b612ecd8c838d01612d02565b965060808b0135915080821115612ee357600080fd5b612eef8c838d01612d02565b955060a08b0135915080821115612f0557600080fd5b612f118c838d01612d02565b945060c08b0135915080821115612f2757600080fd5b612f338c838d01612d02565b935060e08b0135915080821115612f4957600080fd5b50612f568b828c01612d02565b9150509295985092959890939650565b60008060408385031215612f7957600080fd5b823567ffffffffffffffff811115612f9057600080fd5b612f9c85828601612d02565b95602094909401359450505050565b60008060408385031215612fbe57600080fd5b823567ffffffffffffffff80821115612fd657600080fd5b612fe286838701612d02565b93506020850135915080821115612ff857600080fd5b5061300585828601612d02565b9150509250929050565b600181811c9082168061302357607f821691505b60208210810361304357634e487b7160e01b600052602260045260246000fd5b50919050565b634e487b7160e01b600052603260045260246000fd5b6000815461306c8161300f565b80855260206001838116801561308957600181146130a3576130d1565b60ff1985168884015283151560051b8801830195506130d1565b866000528260002060005b858110156130c95781548a82018601529083019084016130ae565b890184019650505b505050505092915050565b6060815260006130ef606083018661305f565b82810360208401526131018186612a4c565b905082810360408401526131158185612a4c565b9695505050505050565b601f8211156116f6576000816000526020600020601f850160051c810160208610156131485750805b601f850160051c820191505b8181101561106257828155600101613154565b815167ffffffffffffffff81111561318157613181612b65565b6131958161318f845461300f565b8461311f565b602080601f8311600181146131ca57600084156131b25750858301515b600019600386901b1c1916600185901b178555611062565b600085815260208120601f198616915b828110156131f9578886015182559484019460019091019084016131da565b50858210156132175787850151600019600388901b60f8161c191681555b5050505050600190811b01905550565b80820180821115610a7557634e487b7160e01b600052601160045260246000fd5b6000825161325a818460208701612a28565b9190910192915050565b60008083546132728161300f565b6001828116801561328a576001811461329f576132ce565b60ff19841687528215158302870194506132ce565b8760005260208060002060005b858110156132c55781548a8201529084019082016132ac565b50505082870194505b50929695505050505050565b6040815260006132ed604083018561305f565b82810360208401526132ff8185612a4c565b9594505050505056fea264697066735822122097294af2c4a6805b06ccd1e72b7c9a6e415001ba10a1a1fb03253506c3a4f8cc64736f6c634300081800337369642d34373434313333352d413932462d344239352d393939422d35413046434446454530373245787465726e616c2067617261676500000000000000000000000000000000007369642d33433134333144352d443733322d344132332d424439302d4446363433323143393943467369642d36353732304132412d323739342d344244332d423637332d354533384430413444344531436f6e646974696f6e5f394242373832332d313338302d344330332d413535422d374437373434433935343639436f6e646974696f6e5f374439414636382d423737392d343445452d423338322d3038343534324432363243397369642d32463737353644342d433946382d344642362d393444362d4235393735304446413041357369642d41434342323531322d363746352d343138452d393038312d4530414130314435364139307369642d39464437393331392d314237312d344232352d393444302d4331433042433034343137427369642d42464336353830362d364535392d343231342d394543372d4430344441313541453938347369642d30434234343543372d414136302d344443432d384646462d3444463139344644353437327369642d33393043453841382d443537452d343643312d414245332d3333464433394146453138324f726465725f636f6e6669726d6174696f6e5f72656365697665645f66726f6d5f7231436f6e646974696f6e5f323134333246342d303634352d343734412d394231442d4332413237304239333533327369642d46303243353145392d313946322d343839342d413339422d4431394443383144333646387369642d35443844323241372d313734322d344541312d423841412d3737383630373734413632457369642d42463136433544412d464541312d343345422d413532362d304242373244373543313232436f6e7461637420637573746f6d6572206f6620746865206e6f6e20617661696c6162696c6974797369642d37453144333338392d423236392d343234362d413835442d3834423443423531363934337369642d30333636353132432d434236342d344231322d413536432d4536323345303643393742317369642d38393032323633312d383943362d343637442d424231362d3933453535453542323839387369642d33463434343733302d303845322d343841392d394544362d3934434430353545373038317369642d37373937393633382d344346352d343438412d393545372d4435433944353739444330307369642d44463633303343412d383434332d344543462d413037302d413936303238303732414334496e737572616e63655f706c616e5f64657461696c735f61747461636865645f746f5f7468655f71756f74654f726465725f636f6e6669726d6174696f6e5f72656365697665645f66726f6d5f7232436f6e646974696f6e5f323736463041412d304234372d343832312d384239412d3232363544323333443738455265717565737420666f72206d61696e74656e616e6365206f726465722072656365697665647369642d30413738333634372d333434432d344143352d384433302d4143303043313138313232347369642d42374436393738432d393938352d344345392d394438462d353838344445394237354245436f6e646974696f6e5f333035353633352d353839352d344636412d384445362d363138434236443743363443436f6e646974696f6e5f424642393046412d393941412d344439362d383345332d4434464438433043334538467369642d42393135453636422d363831312d343430362d413333432d374630453239323343443946436f6e646974696f6e5f323546393738352d323335462d344241382d384433462d3338353437393845364546307369642d41413346443234442d364131312d343843332d414135382d38454436314630374643463253656e645f636f6e6669726d6174696f6e5f6f665f6170706f696e746d656e745f7369642d39323738373739462d443634432d343441382d424232332d333432464438383531393844436f6e646974696f6e5f323344373645352d314435452d344632372d423842412d4636323239374535414637427369642d44343037344536382d414141422d344145432d384230392d353130433335394445323739466f7277617264735f7468655f636f6e6669726d6174696f6e5f746f5f7468655f637573746f6d65725f7369642d36433541393337382d453344382d344434392d383141302d4237314643344236343932457369642d45364230353042362d464330432d343032362d393533452d3646463839433532434330457369642d32364442454246462d424146312d344238382d413834412d3235453837443842323837387369642d37373034353437442d344533322d344635412d393230452d393835434631354642353832436f6e646974696f6e5f334441413146392d443544332d343531352d424434302d414231323645383536414543",
  "linkReferences": {},
  "deployedLinkReferences": {}
}