{
  "_format": "hh-sol-artifact-1",
  "contractName": "ProcessRegistry",
  "sourceName": "contracts/caterPillar/ProcessRegistry.sol",
  "abi": [
    {
      "anonymous": false,
      "inputs": [
        {
          "indexed": false,
          "internalType": "address",
          "name": "parent",
          "type": "address"
        },
        {
          "indexed": false,
          "internalType": "address",
          "name": "processAddress",
          "type": "address"
        }
      ],
      "name": "NewInstanceCreatedFor",
      "type": "event"
    },
    {
      "inputs": [
        {
          "internalType": "bytes32",
          "name": "parentBundleId",
          "type": "bytes32"
        },
        {
          "internalType": "bytes32",
          "name": "processBundleId",
          "type": "bytes32"
        },
        {
          "internalType": "uint256",
          "name": "nodeIndex",
          "type": "uint256"
        }
      ],
      "name": "addChildBundleId",
      "outputs": [],
      "stateMutability": "nonpayable",
      "type": "function"
    },
    {
      "inputs": [],
      "name": "allInstances",
      "outputs": [
        {
          "internalType": "address[]",
          "name": "",
          "type": "address[]"
        }
      ],
      "stateMutability": "view",
      "type": "function"
    },
    {
      "inputs": [
        {
          "internalType": "address",
          "name": "processInstance",
          "type": "address"
        }
      ],
      "name": "bundleFor",
      "outputs": [
        {
          "internalType": "bytes32",
          "name": "",
          "type": "bytes32"
        }
      ],
      "stateMutability": "view",
      "type": "function"
    },
    {
      "inputs": [
        {
          "internalType": "bytes32",
          "name": "parent",
          "type": "bytes32"
        },
        {
          "internalType": "uint256",
          "name": "nodeInd",
          "type": "uint256"
        }
      ],
      "name": "childrenFor",
      "outputs": [
        {
          "internalType": "bytes32",
          "name": "",
          "type": "bytes32"
        }
      ],
      "stateMutability": "view",
      "type": "function"
    },
    {
      "inputs": [],
      "name": "getInstance",
      "outputs": [
        {
          "internalType": "address[]",
          "name": "",
          "type": "address[]"
        }
      ],
      "stateMutability": "view",
      "type": "function"
    },
    {
      "inputs": [
        {
          "internalType": "bytes32",
          "name": "bundleId",
          "type": "bytes32"
        },
        {
          "internalType": "address",
          "name": "parent",
          "type": "address"
        }
      ],
      "name": "newBundleInstanceFor",
      "outputs": [
        {
          "internalType": "address",
          "name": "",
          "type": "address"
        }
      ],
      "stateMutability": "nonpayable",
      "type": "function"
    },
    {
      "inputs": [
        {
          "internalType": "uint256",
          "name": "nodeIndex",
          "type": "uint256"
        },
        {
          "internalType": "address",
          "name": "parent",
          "type": "address"
        }
      ],
      "name": "newInstanceFor",
      "outputs": [
        {
          "internalType": "address",
          "name": "",
          "type": "address"
        }
      ],
      "stateMutability": "nonpayable",
      "type": "function"
    },
    {
      "inputs": [
        {
          "internalType": "bytes32",
          "name": "bundleId",
          "type": "bytes32"
        },
        {
          "internalType": "address",
          "name": "factory",
          "type": "address"
        }
      ],
      "name": "registerFactory",
      "outputs": [],
      "stateMutability": "nonpayable",
      "type": "function"
    },
    {
      "inputs": [
        {
          "internalType": "bytes32",
          "name": "bundleId",
          "type": "bytes32"
        },
        {
          "internalType": "address",
          "name": "worklist",
          "type": "address"
        }
      ],
      "name": "registerWorklist",
      "outputs": [],
      "stateMutability": "nonpayable",
      "type": "function"
    },
    {
      "inputs": [
        {
          "internalType": "address",
          "name": "worklist",
          "type": "address"
        }
      ],
      "name": "worklistBundleFor",
      "outputs": [
        {
          "internalType": "bytes32",
          "name": "",
          "type": "bytes32"
        }
      ],
      "stateMutability": "view",
      "type": "function"
    }
  ],
  "bytecode": "0x608060405234801561001057600080fd5b50610626806100206000396000f3fe608060405234801561001057600080fd5b506004361061009e5760003560e01c806384b9b07f1161006657806384b9b07f14610171578063c87115a91461019a578063cdd2e164146101ad578063de7b5d1414610219578063fa60dd391461021957600080fd5b80633e683c1d146100a357806349daa989146100d357806358e031bf146100e857806378217c8d14610111578063788b841014610148575b600080fd5b6100b66100b13660046104e4565b61022e565b6040516001600160a01b0390911681526020015b60405180910390f35b6100e66100e13660046104e4565b6103d9565b005b6100e66100f6366004610514565b60009283526020838152604080852092855291905290912055565b61013a61011f366004610540565b60009182526020828152604080842092845291905290205490565b6040519081526020016100ca565b61013a610156366004610562565b6001600160a01b031660009081526004602052604090205490565b61013a61017f366004610562565b6001600160a01b031660009081526002602052604090205490565b6100b66101a83660046104e4565b610429565b6100e66101bb3660046104e4565b6001600160a01b03166000818152600460205260408120929092556005805460018101825592527f036b6384b5eca791c62761152d0c79bb0604c104a5fb6f4eb0703f3154bb3db090910180546001600160a01b0319169091179055565b61022161046a565b6040516100ca9190610586565b6000828152600160205260408120546001600160a01b031661024f57600080fd5b600083815260016020526040808220549051632838d00960e21b81526001600160a01b0385811660048301523060248301529091169063a0e34024906044016020604051808303816000875af11580156102ad573d6000803e3d6000fd5b505050506040513d601f19601f820116820180604052508101906102d191906105d3565b6001600160a01b0381811660008181526002602090815260408083208a90556003805460018082019092557fc2575a0e9e593c00f959f8c92f12db2869c3395a3b0502d05e2516446f71f85b0180546001600160a01b031916861790558a8452909152908190205490516316ec41f160e01b815260048101929092529293509116906316ec41f190602401600060405180830381600087803b15801561037657600080fd5b505af115801561038a573d6000803e3d6000fd5b5050604080516001600160a01b038088168252851660208201527fde0bf0e4783548ceac765551c2db9f3f4ee22d4de7bbdb9d43a83130d267b28b935001905060405180910390a19392505050565b6000828152600160205260409020546001600160a01b0316156103fb57600080fd5b60009182526001602052604090912080546001600160a01b0319166001600160a01b03909216919091179055565b6001600160a01b038116600090815260026020908152604080832054808452838352818420868552909252822054610461818561022e565b95945050505050565b606060038054806020026020016040519081016040528092919081815260200182805480156104c257602002820191906000526020600020905b81546001600160a01b031681526001909101906020018083116104a4575b5050505050905090565b6001600160a01b03811681146104e157600080fd5b50565b600080604083850312156104f757600080fd5b823591506020830135610509816104cc565b809150509250929050565b60008060006060848603121561052957600080fd5b505081359360208301359350604090920135919050565b6000806040838503121561055357600080fd5b50508035926020909101359150565b60006020828403121561057457600080fd5b813561057f816104cc565b9392505050565b6020808252825182820181905260009190848201906040850190845b818110156105c75783516001600160a01b0316835292840192918401916001016105a2565b50909695505050505050565b6000602082840312156105e557600080fd5b815161057f816104cc56fea26469706673582212208b20cb0b64415cf8718e329f87deb45a0c70a462f6ef3d8629bcd1cca54daffc64736f6c63430008180033",
  "linkReferences": {},
  "deployedLinkReferences": {}
}