{
  "_format": "hh-sol-artifact-1",
  "contractName": "ModelFactoryFacet",
  "sourceName": "contracts/facets/Process/ModelFactoryFacet.sol",
  "abi": [
    {
      "anonymous": false,
      "inputs": [
        {
          "indexed": false,
          "internalType": "string",
          "name": "pName",
          "type": "string"
        },
        {
          "indexed": false,
          "internalType": "uint256",
          "name": "_id",
          "type": "uint256"
        }
      ],
      "name": "instanceId",
      "type": "event"
    },
    {
      "anonymous": false,
      "inputs": [
        {
          "indexed": false,
          "internalType": "string",
          "name": "pName",
          "type": "string"
        }
      ],
      "name": "newModelFactory",
      "type": "event"
    },
    {
      "inputs": [
        {
          "internalType": "string",
          "name": "_name",
          "type": "string"
        },
        {
          "components": [
            {
              "internalType": "uint256",
              "name": "id",
              "type": "uint256"
            },
            {
              "internalType": "enum LibApp.NodeType",
              "name": "nodeType",
              "type": "uint8"
            },
            {
              "internalType": "string",
              "name": "xmlID",
              "type": "string"
            },
            {
              "internalType": "string",
              "name": "name",
              "type": "string"
            },
            {
              "internalType": "string",
              "name": "lane",
              "type": "string"
            },
            {
              "internalType": "string",
              "name": "dataIn",
              "type": "string"
            },
            {
              "internalType": "string",
              "name": "dataOut",
              "type": "string"
            },
            {
              "internalType": "string",
              "name": "timestamp",
              "type": "string"
            }
          ],
          "internalType": "struct LibApp.Activity[]",
          "name": "_activities",
          "type": "tuple[]"
        },
        {
          "internalType": "string[][]",
          "name": "_tabChildrenOptim",
          "type": "string[][]"
        },
        {
          "internalType": "string[][]",
          "name": "_tabParentsOptim",
          "type": "string[][]"
        },
        {
          "internalType": "string[][]",
          "name": "_msgInOptim",
          "type": "string[][]"
        },
        {
          "internalType": "string[][]",
          "name": "_msgOutOptim",
          "type": "string[][]"
        },
        {
          "internalType": "string[]",
          "name": "_keyReplay",
          "type": "string[]"
        },
        {
          "internalType": "string[][]",
          "name": "_valueReplay",
          "type": "string[][]"
        }
      ],
      "name": "addModel",
      "outputs": [],
      "stateMutability": "nonpayable",
      "type": "function"
    },
    {
      "inputs": [
        {
          "internalType": "string",
          "name": "_name",
          "type": "string"
        }
      ],
      "name": "newInstance",
      "outputs": [
        {
          "internalType": "uint256",
          "name": "",
          "type": "uint256"
        }
      ],
      "stateMutability": "nonpayable",
      "type": "function"
    }
  ],
  "bytecode": "0x608060405234801561001057600080fd5b50611136806100206000396000f3fe608060405234801561001057600080fd5b50600436106100365760003560e01c80638d30bf3c1461003b578063cc31dd4f14610050575b600080fd5b61004e610049366004610d23565b610075565b005b61006361005e366004610e63565b6104f0565b60405190815260200160405180910390f35b6040517f34b903b1c9f516e29bcc70e55a6bc2ac2c43ec324e4a6cfb468f0c027487621c9081906100a7908b90610ec4565b9081526040519081900360200190205460ff16156101045760405162461bcd60e51b81526020600482015260156024820152742730b6b29034b99030b63932b0b23c903a30b5b2b760591b60448201526064015b60405180910390fd5b6001816000018a6040516101189190610ec4565b908152604051908190036020018120805492151560ff19909316929092179091558851908290610149908c90610ec4565b9081526040519081900360200190206001015560005b604051829061016f908c90610ec4565b9081526020016040518091039020600101548110156104125788818151811061019a5761019a610ee0565b6020026020010151826000018b6040516101b49190610ec4565b908152604080516020928190038301902060008581526004909101835220825181559082015160018083018054909160ff19909116908360078111156101fc576101fc610ef6565b0217905550604082015160028201906102159082610f97565b506060820151600382019061022a9082610f97565b506080820151600482019061023f9082610f97565b5060a082015160058201906102549082610f97565b5060c082015160068201906102699082610f97565b5060e0820151600782019061027e9082610f97565b5090505087818151811061029457610294610ee0565b6020026020010151826000018b6040516102ae9190610ec4565b9081526020016040518091039020600501600083815260200190815260200160002090805190602001906102e3929190610895565b508681815181106102f6576102f6610ee0565b6020026020010151826000018b6040516103109190610ec4565b908152602001604051809103902060060160008381526020019081526020016000209080519060200190610345929190610895565b5085818151811061035857610358610ee0565b6020026020010151826000018b6040516103729190610ec4565b9081526020016040518091039020600701600083815260200190815260200160002090805190602001906103a7929190610895565b508481815181106103ba576103ba610ee0565b6020026020010151826000018b6040516103d49190610ec4565b908152602001604051809103902060080160008381526020019081526020016000209080519060200190610409929190610895565b5060010161015f565b5060005b83518110156104ad5782818151811061043157610431610ee0565b6020026020010151826000018b60405161044b9190610ec4565b908152602001604051809103902060090185838151811061046e5761046e610ee0565b60200260200101516040516104839190610ec4565b908152602001604051809103902090805190602001906104a4929190610895565b50600101610416565b507f199aab2f4d8489f44c22def22ddc192f95a7736dda51493af0a19361b0964d44896040516104dd9190611083565b60405180910390a1505050505050505050565b6040516000907f34b903b1c9f516e29bcc70e55a6bc2ac2c43ec324e4a6cfb468f0c027487621c908190610525908590610ec4565b9081526040519081900360200190205460ff166105845760405162461bcd60e51b815260206004820152601960248201527f54686973204d6f64656c20646f6573206e6f742065786973740000000000000060448201526064016100fb565b60005b6040518290610597908690610ec4565b9081526020016040518091039020600101548110156107cf5760405182906105c0908690610ec4565b9081526020016040518091039020600301600083600001866040516105e59190610ec4565b9081526040805160209281900383019020600290810154845283830194909452918201600090812090930180546001810182559084529083200191909155518290610631908690610ec4565b9081526020016040518091039020600301600083600001866040516106569190610ec4565b908152604080516020928190038301902060020154835282820193909352908201600090812060030180546001810182559082529181209091015551829061069f908690610ec4565b9081526020016040518091039020600301600083600001866040516106c49190610ec4565b9081526040805160209281900383019020600201548352828201939093529101600090812060040180546001810182559082529181209091018190556040518390610710908790610ec4565b90815260408051602092819003830190206000858152600490910190925290206001015460ff16600781111561074857610748610ef6565b036107c757600182600001856040516107619190610ec4565b9081526020016040518091039020600301600084600001876040516107869190610ec4565b908152602001604051809103902060020154815260200190815260200160002060020182815481106107ba576107ba610ee0565b6000918252602090912001555b600101610587565b507f52d8ec9f5b057948b669476918c4b9c4a4a69a1f1500704f7eb9428b7231272d8382600001856040516108049190610ec4565b908152604051908190036020018120600201546108219291611096565b60405180910390a16040518190610839908590610ec4565b9081526040519081900360200190206002018054906000610859836110ce565b9190505550600181600001846040516108729190610ec4565b90815260200160405180910390206002015461088e91906110e7565b9392505050565b8280548282559060005260206000209081019282156108db579160200282015b828111156108db57825182906108cb9082610f97565b50916020019190600101906108b5565b506108e79291506108eb565b5090565b808211156108e75760006108ff8282610908565b506001016108eb565b50805461091490610f0c565b6000825580601f10610924575050565b601f0160209004906000526020600020908101906109429190610945565b50565b5b808211156108e75760008155600101610946565b634e487b7160e01b600052604160045260246000fd5b604051610100810167ffffffffffffffff811182821017156109945761099461095a565b60405290565b604051601f8201601f1916810167ffffffffffffffff811182821017156109c3576109c361095a565b604052919050565b600082601f8301126109dc57600080fd5b813567ffffffffffffffff8111156109f6576109f661095a565b610a09601f8201601f191660200161099a565b818152846020838601011115610a1e57600080fd5b816020850160208301376000918101602001919091529392505050565b600067ffffffffffffffff821115610a5557610a5561095a565b5060051b60200190565b803560088110610a6e57600080fd5b919050565b600082601f830112610a8457600080fd5b81356020610a99610a9483610a3b565b61099a565b82815260059290921b84018101918181019086841115610ab857600080fd5b8286015b84811015610c1857803567ffffffffffffffff80821115610add5760008081fd5b90880190610100828b03601f1901811315610af85760008081fd5b610b00610970565b8784013581526040610b13818601610a5f565b8983015260608086013585811115610b2b5760008081fd5b610b398f8c838a01016109cb565b8385015250608091508186013585811115610b545760008081fd5b610b628f8c838a01016109cb565b82850152505060a08086013585811115610b7c5760008081fd5b610b8a8f8c838a01016109cb565b838501525060c091508186013585811115610ba55760008081fd5b610bb38f8c838a01016109cb565b82850152505060e08086013585811115610bcd5760008081fd5b610bdb8f8c838a01016109cb565b8484015250928501359284841115610bf557600091508182fd5b610c038e8b868901016109cb565b90830152508652505050918301918301610abc565b509695505050505050565b600082601f830112610c3457600080fd5b81356020610c44610a9483610a3b565b82815260059290921b84018101918181019086841115610c6357600080fd5b8286015b84811015610c1857803567ffffffffffffffff811115610c875760008081fd5b610c958986838b01016109cb565b845250918301918301610c67565b600082601f830112610cb457600080fd5b81356020610cc4610a9483610a3b565b82815260059290921b84018101918181019086841115610ce357600080fd5b8286015b84811015610c1857803567ffffffffffffffff811115610d075760008081fd5b610d158986838b0101610c23565b845250918301918301610ce7565b600080600080600080600080610100898b031215610d4057600080fd5b883567ffffffffffffffff80821115610d5857600080fd5b610d648c838d016109cb565b995060208b0135915080821115610d7a57600080fd5b610d868c838d01610a73565b985060408b0135915080821115610d9c57600080fd5b610da88c838d01610ca3565b975060608b0135915080821115610dbe57600080fd5b610dca8c838d01610ca3565b965060808b0135915080821115610de057600080fd5b610dec8c838d01610ca3565b955060a08b0135915080821115610e0257600080fd5b610e0e8c838d01610ca3565b945060c08b0135915080821115610e2457600080fd5b610e308c838d01610c23565b935060e08b0135915080821115610e4657600080fd5b50610e538b828c01610ca3565b9150509295985092959890939650565b600060208284031215610e7557600080fd5b813567ffffffffffffffff811115610e8c57600080fd5b610e98848285016109cb565b949350505050565b60005b83811015610ebb578181015183820152602001610ea3565b50506000910152565b60008251610ed6818460208701610ea0565b9190910192915050565b634e487b7160e01b600052603260045260246000fd5b634e487b7160e01b600052602160045260246000fd5b600181811c90821680610f2057607f821691505b602082108103610f4057634e487b7160e01b600052602260045260246000fd5b50919050565b601f821115610f92576000816000526020600020601f850160051c81016020861015610f6f5750805b601f850160051c820191505b81811015610f8e57828155600101610f7b565b5050505b505050565b815167ffffffffffffffff811115610fb157610fb161095a565b610fc581610fbf8454610f0c565b84610f46565b602080601f831160018114610ffa5760008415610fe25750858301515b600019600386901b1c1916600185901b178555610f8e565b600085815260208120601f198616915b828110156110295788860151825594840194600190910190840161100a565b50858210156110475787850151600019600388901b60f8161c191681555b5050505050600190811b01905550565b6000815180845261106f816020860160208601610ea0565b601f01601f19169290920160200192915050565b60208152600061088e6020830184611057565b6040815260006110a96040830185611057565b90508260208301529392505050565b634e487b7160e01b600052601160045260246000fd5b6000600182016110e0576110e06110b8565b5060010190565b818103818111156110fa576110fa6110b8565b9291505056fea264697066735822122072ce87dc6589cdd19bf574b91769e2e0fd7a0d117065b5ee3a0455506d22b66564736f6c63430008180033",
  "linkReferences": {},
  "deployedLinkReferences": {}
}