{
  "_format": "hh-sol-artifact-1",
  "contractName": "ModelFactoryFacet",
  "sourceName": "contracts/facets/Process/ModelFactoryFacet.sol",
  "abi": [
    {
      "anonymous": false,
      "inputs": [
        {
          "indexed": false,
          "internalType": "string",
          "name": "pName",
          "type": "string"
        },
        {
          "indexed": false,
          "internalType": "uint256",
          "name": "_id",
          "type": "uint256"
        }
      ],
      "name": "instanceId",
      "type": "event"
    },
    {
      "anonymous": false,
      "inputs": [
        {
          "indexed": false,
          "internalType": "string",
          "name": "pName",
          "type": "string"
        }
      ],
      "name": "modelUpdated",
      "type": "event"
    },
    {
      "anonymous": false,
      "inputs": [
        {
          "indexed": false,
          "internalType": "string",
          "name": "pName",
          "type": "string"
        }
      ],
      "name": "newModelFactory",
      "type": "event"
    },
    {
      "inputs": [
        {
          "internalType": "string",
          "name": "_name",
          "type": "string"
        },
        {
          "components": [
            {
              "internalType": "uint256",
              "name": "id",
              "type": "uint256"
            },
            {
              "internalType": "enum LibApp.NodeType",
              "name": "nodeType",
              "type": "uint8"
            },
            {
              "internalType": "string",
              "name": "xmlID",
              "type": "string"
            },
            {
              "internalType": "string",
              "name": "name",
              "type": "string"
            },
            {
              "internalType": "string",
              "name": "lane",
              "type": "string"
            },
            {
              "internalType": "string",
              "name": "dataIn",
              "type": "string"
            },
            {
              "internalType": "string",
              "name": "dataOut",
              "type": "string"
            },
            {
              "internalType": "string",
              "name": "timestamp",
              "type": "string"
            }
          ],
          "internalType": "struct LibApp.Activity[]",
          "name": "_activities",
          "type": "tuple[]"
        },
        {
          "internalType": "string[][]",
          "name": "_tabChildrenOptim",
          "type": "string[][]"
        },
        {
          "internalType": "string[][]",
          "name": "_tabParentsOptim",
          "type": "string[][]"
        },
        {
          "internalType": "string[][]",
          "name": "_msgInOptim",
          "type": "string[][]"
        },
        {
          "internalType": "string[][]",
          "name": "_msgOutOptim",
          "type": "string[][]"
        },
        {
          "internalType": "string[]",
          "name": "_keyReplay",
          "type": "string[]"
        },
        {
          "internalType": "string[][]",
          "name": "_valueReplay",
          "type": "string[][]"
        }
      ],
      "name": "addModel",
      "outputs": [],
      "stateMutability": "nonpayable",
      "type": "function"
    },
    {
      "inputs": [
        {
          "internalType": "string",
          "name": "_name",
          "type": "string"
        }
      ],
      "name": "newInstance",
      "outputs": [
        {
          "internalType": "uint256",
          "name": "",
          "type": "uint256"
        }
      ],
      "stateMutability": "nonpayable",
      "type": "function"
    },
    {
      "inputs": [
        {
          "internalType": "string",
          "name": "_name",
          "type": "string"
        },
        {
          "internalType": "string",
          "name": "_operation",
          "type": "string"
        },
        {
          "internalType": "uint256",
          "name": "_index",
          "type": "uint256"
        },
        {
          "components": [
            {
              "internalType": "uint256",
              "name": "id",
              "type": "uint256"
            },
            {
              "internalType": "enum LibApp.NodeType",
              "name": "nodeType",
              "type": "uint8"
            },
            {
              "internalType": "string",
              "name": "xmlID",
              "type": "string"
            },
            {
              "internalType": "string",
              "name": "name",
              "type": "string"
            },
            {
              "internalType": "string",
              "name": "lane",
              "type": "string"
            },
            {
              "internalType": "string",
              "name": "dataIn",
              "type": "string"
            },
            {
              "internalType": "string",
              "name": "dataOut",
              "type": "string"
            },
            {
              "internalType": "string",
              "name": "timestamp",
              "type": "string"
            }
          ],
          "internalType": "struct LibApp.Activity[]",
          "name": "_newActivities",
          "type": "tuple[]"
        },
        {
          "internalType": "string[][]",
          "name": "_newChildrenOptim",
          "type": "string[][]"
        },
        {
          "internalType": "string[][]",
          "name": "_newParentsOptim",
          "type": "string[][]"
        },
        {
          "internalType": "string[][]",
          "name": "_newMsgInOptim",
          "type": "string[][]"
        },
        {
          "internalType": "string[][]",
          "name": "_newMsgOutOptim",
          "type": "string[][]"
        }
      ],
      "name": "updateModel",
      "outputs": [],
      "stateMutability": "nonpayable",
      "type": "function"
    }
  ],
  "bytecode": "0x608060405234801561001057600080fd5b50611b2b806100206000396000f3fe608060405234801561001057600080fd5b50600436106100415760003560e01c80638d30bf3c14610046578063cc2f5ba11461005b578063cc31dd4f1461006e575b600080fd5b610059610054366004611613565b610093565b005b610059610069366004611753565b61050e565b61008161007c366004611845565b610de4565b60405190815260200160405180910390f35b6040517f34b903b1c9f516e29bcc70e55a6bc2ac2c43ec324e4a6cfb468f0c027487621c9081906100c5908b906118a6565b9081526040519081900360200190205460ff16156101225760405162461bcd60e51b81526020600482015260156024820152742730b6b29034b99030b63932b0b23c903a30b5b2b760591b60448201526064015b60405180910390fd5b6001816000018a60405161013691906118a6565b908152604051908190036020018120805492151560ff19909316929092179091558851908290610167908c906118a6565b9081526040519081900360200190206001015560005b604051829061018d908c906118a6565b908152602001604051809103902060010154811015610430578881815181106101b8576101b86118c2565b6020026020010151826000018b6040516101d291906118a6565b908152604080516020928190038301902060008581526004909101835220825181559082015160018083018054909160ff199091169083600781111561021a5761021a6118d8565b0217905550604082015160028201906102339082611979565b50606082015160038201906102489082611979565b506080820151600482019061025d9082611979565b5060a082015160058201906102729082611979565b5060c082015160068201906102879082611979565b5060e0820151600782019061029c9082611979565b509050508781815181106102b2576102b26118c2565b6020026020010151826000018b6040516102cc91906118a6565b908152602001604051809103902060050160008381526020019081526020016000209080519060200190610301929190611185565b50868181518110610314576103146118c2565b6020026020010151826000018b60405161032e91906118a6565b908152602001604051809103902060060160008381526020019081526020016000209080519060200190610363929190611185565b50858181518110610376576103766118c2565b6020026020010151826000018b60405161039091906118a6565b9081526020016040518091039020600701600083815260200190815260200160002090805190602001906103c5929190611185565b508481815181106103d8576103d86118c2565b6020026020010151826000018b6040516103f291906118a6565b908152602001604051809103902060080160008381526020019081526020016000209080519060200190610427929190611185565b5060010161017d565b5060005b83518110156104cb5782818151811061044f5761044f6118c2565b6020026020010151826000018b60405161046991906118a6565b908152602001604051809103902060090185838151811061048c5761048c6118c2565b60200260200101516040516104a191906118a6565b908152602001604051809103902090805190602001906104c2929190611185565b50600101610434565b507f199aab2f4d8489f44c22def22ddc192f95a7736dda51493af0a19361b0964d44896040516104fb9190611a65565b60405180910390a1505050505050505050565b6040517f34b903b1c9f516e29bcc70e55a6bc2ac2c43ec324e4a6cfb468f0c027487621c908190610540908b906118a6565b9081526040519081900360200190205460ff1661059b5760405162461bcd60e51b8152602060048201526019602482015278151a1a5cc8135bd9195b08191bd95cc81b9bdd08195e1a5cdd603a1b6044820152606401610119565b60408051808201909152600381526218591960ea1b6020918201528851908901207fb0a57447b6dcc818642398b290ce53bb707fe81d9338401cebb04a277901ac9701610951576000816000018a6040516105f691906118a6565b90815260200160405180910390206001015490508651826000018b60405161061e91906118a6565b9081526020016040518091039020600101600082825461063e9190611a8e565b90915550600090505b875181101561091357878181518110610662576106626118c2565b6020026020010151836000018c60405161067c91906118a6565b908152604051908190036020019020600401600061069a8486611a8e565b8152602080820192909252604001600020825181559082015160018083018054909160ff19909116908360078111156106d5576106d56118d8565b0217905550604082015160028201906106ee9082611979565b50606082015160038201906107039082611979565b50608082015160048201906107189082611979565b5060a0820151600582019061072d9082611979565b5060c082015160068201906107429082611979565b5060e082015160078201906107579082611979565b5090505086818151811061076d5761076d6118c2565b6020026020010151836000018c60405161078791906118a6565b90815260405190819003602001902060050160006107a58486611a8e565b815260200190815260200160002090805190602001906107c6929190611185565b508581815181106107d9576107d96118c2565b6020026020010151836000018c6040516107f391906118a6565b90815260405190819003602001902060060160006108118486611a8e565b81526020019081526020016000209080519060200190610832929190611185565b50848181518110610845576108456118c2565b6020026020010151836000018c60405161085f91906118a6565b908152604051908190036020019020600701600061087d8486611a8e565b8152602001908152602001600020908051906020019061089e929190611185565b508381815181106108b1576108b16118c2565b6020026020010151836000018c6040516108cb91906118a6565b90815260405190819003602001902060080160006108e98486611a8e565b8152602001908152602001600020908051906020019061090a929190611185565b50600101610647565b507f54ee93927b07f20107a2424f1a0f254dd437de5d3ce8e462f19efe7ffbd431a08a6040516109439190611a65565b60405180910390a150610dd9565b60408051808201909152600681526572656d6f766560d01b6020918201528851908901207f722d85e6144db689f59b6f572ccbbd5ab4a3c37afbf9769b48bc774017cba74201610a375760405181906109ab908b906118a6565b90815260200160405180910390206001015487106109fb5760405162461bcd60e51b815260206004820152600d60248201526c092dcecc2d8d2c840d2dcc8caf609b1b6044820152606401610119565b7f54ee93927b07f20107a2424f1a0f254dd437de5d3ce8e462f19efe7ffbd431a089604051610a2a9190611a65565b60405180910390a1610dd9565b6040805180820190915260078152667265706c61636560c81b6020918201528851908901207fac5637f7f0236e46a8017ce707388b25bf76f92aa3527588a1f6a125fed063cf01610d98576040518190610a92908b906118a6565b9081526020016040518091039020600101548710610ae25760405162461bcd60e51b815260206004820152600d60248201526c092dcecc2d8d2c840d2dcc8caf609b1b6044820152606401610119565b85600081518110610af557610af56118c2565b6020026020010151816000018a604051610b0f91906118a6565b908152604080516020928190038301902060008b81526004909101835220825181559082015160018083018054909160ff1990911690836007811115610b5757610b576118d8565b021790555060408201516002820190610b709082611979565b5060608201516003820190610b859082611979565b5060808201516004820190610b9a9082611979565b5060a08201516005820190610baf9082611979565b5060c08201516006820190610bc49082611979565b5060e08201516007820190610bd99082611979565b5090505084600081518110610bf057610bf06118c2565b6020026020010151816000018a604051610c0a91906118a6565b908152602001604051809103902060050160008981526020019081526020016000209080519060200190610c3f929190611185565b5083600081518110610c5357610c536118c2565b6020026020010151816000018a604051610c6d91906118a6565b908152602001604051809103902060060160008981526020019081526020016000209080519060200190610ca2929190611185565b5082600081518110610cb657610cb66118c2565b6020026020010151816000018a604051610cd091906118a6565b908152602001604051809103902060070160008981526020019081526020016000209080519060200190610d05929190611185565b5081600081518110610d1957610d196118c2565b6020026020010151816000018a604051610d3391906118a6565b908152602001604051809103902060080160008981526020019081526020016000209080519060200190610d68929190611185565b507f54ee93927b07f20107a2424f1a0f254dd437de5d3ce8e462f19efe7ffbd431a089604051610a2a9190611a65565b60405162461bcd60e51b8152602060048201526016602482015275496e76616c6964206f7065726174696f6e207479706560501b6044820152606401610119565b505050505050505050565b6040516000907f34b903b1c9f516e29bcc70e55a6bc2ac2c43ec324e4a6cfb468f0c027487621c908190610e199085906118a6565b9081526040519081900360200190205460ff16610e745760405162461bcd60e51b8152602060048201526019602482015278151a1a5cc8135bd9195b08191bd95cc81b9bdd08195e1a5cdd603a1b6044820152606401610119565b60005b6040518290610e879086906118a6565b9081526020016040518091039020600101548110156110bf576040518290610eb09086906118a6565b908152602001604051809103902060030160008360000186604051610ed591906118a6565b9081526040805160209281900383019020600290810154845283830194909452918201600090812090930180546001810182559084529083200191909155518290610f219086906118a6565b908152602001604051809103902060030160008360000186604051610f4691906118a6565b9081526040805160209281900383019020600201548352828201939093529082016000908120600301805460018101825590825291812090910155518290610f8f9086906118a6565b908152602001604051809103902060030160008360000186604051610fb491906118a6565b90815260408051602092819003830190206002015483528282019390935291016000908120600401805460018101825590825291812090910181905560405183906110009087906118a6565b90815260408051602092819003830190206000858152600490910190925290206001015460ff166007811115611038576110386118d8565b036110b7576001826000018560405161105191906118a6565b90815260200160405180910390206003016000846000018760405161107691906118a6565b908152602001604051809103902060020154815260200190815260200160002060020182815481106110aa576110aa6118c2565b6000918252602090912001555b600101610e77565b507f52d8ec9f5b057948b669476918c4b9c4a4a69a1f1500704f7eb9428b7231272d8382600001856040516110f491906118a6565b908152604051908190036020018120600201546111119291611aa7565b60405180910390a160405181906111299085906118a6565b908152604051908190036020019020600201805490600061114983611ac9565b91905055506001816000018460405161116291906118a6565b90815260200160405180910390206002015461117e9190611ae2565b9392505050565b8280548282559060005260206000209081019282156111cb579160200282015b828111156111cb57825182906111bb9082611979565b50916020019190600101906111a5565b506111d79291506111db565b5090565b808211156111d75760006111ef82826111f8565b506001016111db565b508054611204906118ee565b6000825580601f10611214575050565b601f0160209004906000526020600020908101906112329190611235565b50565b5b808211156111d75760008155600101611236565b634e487b7160e01b600052604160045260246000fd5b604051610100810167ffffffffffffffff811182821017156112845761128461124a565b60405290565b604051601f8201601f1916810167ffffffffffffffff811182821017156112b3576112b361124a565b604052919050565b600082601f8301126112cc57600080fd5b813567ffffffffffffffff8111156112e6576112e661124a565b6112f9601f8201601f191660200161128a565b81815284602083860101111561130e57600080fd5b816020850160208301376000918101602001919091529392505050565b600067ffffffffffffffff8211156113455761134561124a565b5060051b60200190565b80356008811061135e57600080fd5b919050565b600082601f83011261137457600080fd5b813560206113896113848361132b565b61128a565b82815260059290921b840181019181810190868411156113a857600080fd5b8286015b8481101561150857803567ffffffffffffffff808211156113cd5760008081fd5b90880190610100828b03601f19018113156113e85760008081fd5b6113f0611260565b878401358152604061140381860161134f565b898301526060808601358581111561141b5760008081fd5b6114298f8c838a01016112bb565b83850152506080915081860135858111156114445760008081fd5b6114528f8c838a01016112bb565b82850152505060a0808601358581111561146c5760008081fd5b61147a8f8c838a01016112bb565b838501525060c0915081860135858111156114955760008081fd5b6114a38f8c838a01016112bb565b82850152505060e080860135858111156114bd5760008081fd5b6114cb8f8c838a01016112bb565b84840152509285013592848411156114e557600091508182fd5b6114f38e8b868901016112bb565b908301525086525050509183019183016113ac565b509695505050505050565b600082601f83011261152457600080fd5b813560206115346113848361132b565b82815260059290921b8401810191818101908684111561155357600080fd5b8286015b8481101561150857803567ffffffffffffffff8111156115775760008081fd5b6115858986838b01016112bb565b845250918301918301611557565b600082601f8301126115a457600080fd5b813560206115b46113848361132b565b82815260059290921b840181019181810190868411156115d357600080fd5b8286015b8481101561150857803567ffffffffffffffff8111156115f75760008081fd5b6116058986838b0101611513565b8452509183019183016115d7565b600080600080600080600080610100898b03121561163057600080fd5b883567ffffffffffffffff8082111561164857600080fd5b6116548c838d016112bb565b995060208b013591508082111561166a57600080fd5b6116768c838d01611363565b985060408b013591508082111561168c57600080fd5b6116988c838d01611593565b975060608b01359150808211156116ae57600080fd5b6116ba8c838d01611593565b965060808b01359150808211156116d057600080fd5b6116dc8c838d01611593565b955060a08b01359150808211156116f257600080fd5b6116fe8c838d01611593565b945060c08b013591508082111561171457600080fd5b6117208c838d01611513565b935060e08b013591508082111561173657600080fd5b506117438b828c01611593565b9150509295985092959890939650565b600080600080600080600080610100898b03121561177057600080fd5b883567ffffffffffffffff8082111561178857600080fd5b6117948c838d016112bb565b995060208b01359150808211156117aa57600080fd5b6117b68c838d016112bb565b985060408b0135975060608b01359150808211156117d357600080fd5b6117df8c838d01611363565b965060808b01359150808211156117f557600080fd5b6118018c838d01611593565b955060a08b013591508082111561181757600080fd5b6118238c838d01611593565b945060c08b013591508082111561183957600080fd5b6117208c838d01611593565b60006020828403121561185757600080fd5b813567ffffffffffffffff81111561186e57600080fd5b61187a848285016112bb565b949350505050565b60005b8381101561189d578181015183820152602001611885565b50506000910152565b600082516118b8818460208701611882565b9190910192915050565b634e487b7160e01b600052603260045260246000fd5b634e487b7160e01b600052602160045260246000fd5b600181811c9082168061190257607f821691505b60208210810361192257634e487b7160e01b600052602260045260246000fd5b50919050565b601f821115611974576000816000526020600020601f850160051c810160208610156119515750805b601f850160051c820191505b818110156119705782815560010161195d565b5050505b505050565b815167ffffffffffffffff8111156119935761199361124a565b6119a7816119a184546118ee565b84611928565b602080601f8311600181146119dc57600084156119c45750858301515b600019600386901b1c1916600185901b178555611970565b600085815260208120601f198616915b82811015611a0b578886015182559484019460019091019084016119ec565b5085821015611a295787850151600019600388901b60f8161c191681555b5050505050600190811b01905550565b60008151808452611a51816020860160208601611882565b601f01601f19169290920160200192915050565b60208152600061117e6020830184611a39565b634e487b7160e01b600052601160045260246000fd5b80820180821115611aa157611aa1611a78565b92915050565b604081526000611aba6040830185611a39565b90508260208301529392505050565b600060018201611adb57611adb611a78565b5060010190565b81810381811115611aa157611aa1611a7856fea2646970667358221220036b4166df9ec1d406beaaa7d336cb3f50cfcf24a4f64a0901af6dc2672e73a264736f6c63430008180033",
  "linkReferences": {},
  "deployedLinkReferences": {}
}