{
  "_format": "hh-sol-artifact-1",
  "contractName": "DiamondLoupeFacet",
  "sourceName": "contracts/facets/DiamondLoupeFacet.sol",
  "abi": [
    {
      "inputs": [
        {
          "internalType": "bytes4",
          "name": "_functionSelector",
          "type": "bytes4"
        }
      ],
      "name": "facetAddress",
      "outputs": [
        {
          "internalType": "address",
          "name": "facetAddress_",
          "type": "address"
        }
      ],
      "stateMutability": "view",
      "type": "function"
    },
    {
      "inputs": [],
      "name": "facetAddresses",
      "outputs": [
        {
          "internalType": "address[]",
          "name": "facetAddresses_",
          "type": "address[]"
        }
      ],
      "stateMutability": "view",
      "type": "function"
    },
    {
      "inputs": [
        {
          "internalType": "address",
          "name": "_facet",
          "type": "address"
        }
      ],
      "name": "facetFunctionSelectors",
      "outputs": [
        {
          "internalType": "bytes4[]",
          "name": "_facetFunctionSelectors",
          "type": "bytes4[]"
        }
      ],
      "stateMutability": "view",
      "type": "function"
    },
    {
      "inputs": [],
      "name": "facets",
      "outputs": [
        {
          "components": [
            {
              "internalType": "address",
              "name": "facetAddress",
              "type": "address"
            },
            {
              "internalType": "bytes4[]",
              "name": "functionSelectors",
              "type": "bytes4[]"
            }
          ],
          "internalType": "struct IDiamondLoupe.Facet[]",
          "name": "facets_",
          "type": "tuple[]"
        }
      ],
      "stateMutability": "view",
      "type": "function"
    },
    {
      "inputs": [
        {
          "internalType": "bytes4",
          "name": "_interfaceId",
          "type": "bytes4"
        }
      ],
      "name": "supportsInterface",
      "outputs": [
        {
          "internalType": "bool",
          "name": "",
          "type": "bool"
        }
      ],
      "stateMutability": "view",
      "type": "function"
    }
  ],
  "bytecode": "0x608060405234801561001057600080fd5b50610af0806100206000396000f3fe608060405234801561001057600080fd5b50600436106100575760003560e01c806301ffc9a71461005c57806352ef6b2c146100bd5780637a0ed627146100d2578063adfca15e146100e7578063cdffacc614610107575b600080fd5b6100a861006a36600461089f565b6001600160e01b03191660009081527fc8fcad8db84d3cc18b4c41d551ea0ee66dd599cde068d998e57d5e09332c131f602052604090205460ff1690565b60405190151581526020015b60405180910390f35b6100c5610159565b6040516100b491906108d0565b6100da610309565b6040516100b49190610963565b6100fa6100f53660046109e2565b610738565b6040516100b49190610a0b565b61014161011536600461089f565b6001600160e01b0319166000908152600080516020610a9b833981519152602052604090205460601c90565b6040516001600160a01b0390911681526020016100b4565b7fc8fcad8db84d3cc18b4c41d551ea0ee66dd599cde068d998e57d5e09332c131e54606090600080516020610a9b8339815191529061ffff1667ffffffffffffffff8111156101aa576101aa610a1e565b6040519080825280602002602001820160405280156101d3578160200160208202803683370190505b50915060008060005b600284015461ffff16821015610301576000818152600185016020526040812054905b60088110156102ec578361021281610a4a565b600288015490955061ffff16851190506102ec57600581901b82901b6001600160e01b0319811660009081526020889052604081205460601c90805b88811015610299578a818151811061026857610268610a63565b60200260200101516001600160a01b0316836001600160a01b0316036102915760019150610299565b60010161024e565b5080156102a8575050506102e4565b818a89815181106102bb576102bb610a63565b6001600160a01b0390921660209283029190910190910152876102dd81610a4a565b9850505050505b6001016101ff565b505080806102f990610a4a565b9150506101dc565b505082525090565b7fc8fcad8db84d3cc18b4c41d551ea0ee66dd599cde068d998e57d5e09332c131e54606090600080516020610a9b8339815191529061ffff1667ffffffffffffffff81111561035a5761035a610a1e565b6040519080825280602002602001820160405280156103a057816020015b6040805180820190915260008152606060208201528152602001906001900390816103785790505b50600282015490925060009061ffff1667ffffffffffffffff8111156103c8576103c8610a1e565b6040519080825280602002602001820160405280156103f1578160200160208202803683370190505b50905060008060005b600285015461ffff168210156106d0576000818152600186016020526040812054905b60088110156106bb578361043081610a4a565b600289015490955061ffff16851190506106bb57600581901b82901b6001600160e01b0319811660009081526020899052604081205460601c90805b8881101561058257826001600160a01b03168c828151811061049057610490610a63565b6020026020010151600001516001600160a01b03160361057a57838c82815181106104bd576104bd610a63565b6020026020010151602001518b83815181106104db576104db610a63565b602002602001015161ffff16815181106104f7576104f7610a63565b60200260200101906001600160e01b03191690816001600160e01b0319168152505060ff8a828151811061052d5761052d610a63565b602002602001015161ffff161061054357600080fd5b89818151811061055557610555610a63565b60200260200101805180919061056a90610a79565b61ffff1690525060019150610582565b60010161046c565b508015610591575050506106b3565b818b89815181106105a4576105a4610a63565b60209081029190910101516001600160a01b03909116905260028a015461ffff1667ffffffffffffffff8111156105dd576105dd610a1e565b604051908082528060200260200182016040528015610606578160200160208202803683370190505b508b898151811061061957610619610a63565b602002602001015160200181905250828b898151811061063b5761063b610a63565b60200260200101516020015160008151811061065957610659610a63565b60200260200101906001600160e01b03191690816001600160e01b03191681525050600189898151811061068f5761068f610a63565b61ffff90921660209283029190910190910152876106ac81610a4a565b9850505050505b60010161041d565b505080806106c890610a4a565b9150506103fa565b5060005b8281101561072d5760008482815181106106f0576106f0610a63565b602002602001015161ffff169050600087838151811061071257610712610a63565b602090810291909101810151015191909152506001016106d4565b508185525050505090565b7fc8fcad8db84d3cc18b4c41d551ea0ee66dd599cde068d998e57d5e09332c131e54606090600080516020610a9b8339815191529060009061ffff1667ffffffffffffffff81111561078c5761078c610a1e565b6040519080825280602002602001820160405280156107b5578160200160208202803683370190505b5092506000805b600284015461ffff16821015610895576000818152600185016020526040812054905b600881101561088057836107f281610a4a565b600288015490955061ffff168511905061088057600581901b82901b6001600160e01b0319811660009081526020889052604090205460601c6001600160a01b038a16819003610876578189888151811061084f5761084f610a63565b6001600160e01b0319909216602092830291909101909101528661087281610a4a565b9750505b50506001016107df565b5050808061088d90610a4a565b9150506107bc565b5050825250919050565b6000602082840312156108b157600080fd5b81356001600160e01b0319811681146108c957600080fd5b9392505050565b6020808252825182820181905260009190848201906040850190845b818110156109115783516001600160a01b0316835292840192918401916001016108ec565b50909695505050505050565b60008151808452602080850194506020840160005b838110156109585781516001600160e01b03191687529582019590820190600101610932565b509495945050505050565b600060208083018184528085518083526040925060408601915060408160051b87010184880160005b838110156109d457888303603f19018552815180516001600160a01b031684528701518784018790526109c18785018261091d565b958801959350509086019060010161098c565b509098975050505050505050565b6000602082840312156109f457600080fd5b81356001600160a01b03811681146108c957600080fd5b6020815260006108c9602083018461091d565b634e487b7160e01b600052604160045260246000fd5b634e487b7160e01b600052601160045260246000fd5b600060018201610a5c57610a5c610a34565b5060010190565b634e487b7160e01b600052603260045260246000fd5b600061ffff808316818103610a9057610a90610a34565b600101939250505056fec8fcad8db84d3cc18b4c41d551ea0ee66dd599cde068d998e57d5e09332c131ca26469706673582212203734892d72c4ba889366acfa99fbbba08c55ee69767184ffd60af2307149c03164736f6c63430008180033",
  "linkReferences": {},
  "deployedLinkReferences": {}
}