{
  "_format": "hh-sol-artifact-1",
  "contractName": "ExecLogicFacetV2",
  "sourceName": "contracts/facets/Process/ExecLogicFacetV2.sol",
  "abi": [
    {
      "anonymous": false,
      "inputs": [
        {
          "indexed": true,
          "internalType": "address",
          "name": "from",
          "type": "address"
        },
        {
          "indexed": false,
          "internalType": "string",
          "name": "id",
          "type": "string"
        },
        {
          "indexed": false,
          "internalType": "string",
          "name": "data",
          "type": "string"
        },
        {
          "indexed": false,
          "internalType": "string",
          "name": "timestamp",
          "type": "string"
        }
      ],
      "name": "TaskExecuted",
      "type": "event"
    },
    {
      "anonymous": false,
      "inputs": [
        {
          "indexed": true,
          "internalType": "address",
          "name": "from",
          "type": "address"
        },
        {
          "indexed": false,
          "internalType": "string",
          "name": "id",
          "type": "string"
        },
        {
          "indexed": false,
          "internalType": "string",
          "name": "timestamp",
          "type": "string"
        }
      ],
      "name": "TaskExecutionError",
      "type": "event"
    },
    {
      "inputs": [
        {
          "internalType": "string",
          "name": "_modelName",
          "type": "string"
        },
        {
          "internalType": "uint256",
          "name": "_instanceId",
          "type": "uint256"
        },
        {
          "internalType": "uint256",
          "name": "_activityId",
          "type": "uint256"
        }
      ],
      "name": "addInstanceMarking",
      "outputs": [],
      "stateMutability": "nonpayable",
      "type": "function"
    },
    {
      "inputs": [
        {
          "internalType": "string",
          "name": "_modelName",
          "type": "string"
        },
        {
          "internalType": "uint256",
          "name": "_instanceId",
          "type": "uint256"
        }
      ],
      "name": "executeAllTasks",
      "outputs": [],
      "stateMutability": "nonpayable",
      "type": "function"
    },
    {
      "inputs": [
        {
          "internalType": "string",
          "name": "_modelName",
          "type": "string"
        },
        {
          "internalType": "uint256",
          "name": "_instanceId",
          "type": "uint256"
        },
        {
          "internalType": "uint256",
          "name": "_activityId",
          "type": "uint256"
        },
        {
          "internalType": "string",
          "name": "_data",
          "type": "string"
        }
      ],
      "name": "executeTask",
      "outputs": [],
      "stateMutability": "nonpayable",
      "type": "function"
    },
    {
      "inputs": [
        {
          "internalType": "string",
          "name": "_modelName",
          "type": "string"
        },
        {
          "internalType": "uint256",
          "name": "_activityId",
          "type": "uint256"
        },
        {
          "internalType": "string",
          "name": "_metadata",
          "type": "string"
        }
      ],
      "name": "updateActivityMetadata",
      "outputs": [],
      "stateMutability": "nonpayable",
      "type": "function"
    }
  ],
  "bytecode": "0x608060405234801561001057600080fd5b50610c30806100206000396000f3fe608060405234801561001057600080fd5b506004361061004c5760003560e01c8063813b3de314610051578063a594546c14610066578063b744b4d414610079578063edfe57341461008c575b600080fd5b61006461005f3660046106d1565b61009f565b005b610064610074366004610716565b610222565b61006461008736600461078d565b6103c3565b61006461009a3660046107db565b61054a565b604051600080516020610bdb8339815191529060009082906100c290869061086c565b908152604051908190036020019020805490915060ff166100fe5760405162461bcd60e51b81526004016100f590610888565b60405180910390fd5b60018101546000805b828110156101cc576000818152600485016020526040812090600182015460ff166007811115610139576101396108b6565b036101c357604051869061014e908a9061086c565b90815260408051918290036020908101832060008b8152600391820183529283206004018054600181018255908452919092200184905533917f0ff7661c456473bfca0f796fe76b5cb9d4c8a1bda3062d07856bdc2efc0ba573916101b6919085019061099f565b60405180910390a2600192505b50600101610107565b508061021a5760405162461bcd60e51b815260206004820152601f60248201527f4e6f2076616c6964207461736b7320666f756e6420746f20657865637574650060448201526064016100f5565b505050505050565b604051600080516020610bdb83398151915290600090829061024590889061086c565b908152604051908190036020019020805490915060ff166102785760405162461bcd60e51b81526004016100f590610888565b6000848152600482016020526040812090600182015460ff1660078111156102a2576102a26108b6565b0361032e5760405183906102b790899061086c565b90815260408051918290036020908101832060008a8152600391820183529283206004018054600181018255908452919092200187905533917f0ff7661c456473bfca0f796fe76b5cb9d4c8a1bda3062d07856bdc2efc0ba57391610321919085019088906109f3565b60405180910390a26103ba565b336001600160a01b03167f688d9c041d833c0c193ffe37a0ef243ab737fb8ebfc0d514e8255c1b2a2b6ef68260030160405161036a9190610a4d565b60405180910390a260405162461bcd60e51b815260206004820152601b60248201527f41637469766974792063616e6e6f74206265206578656375746564000000000060448201526064016100f5565b50505050505050565b604051600080516020610bdb8339815191529060009082906103e690879061086c565b908152604051908190036020019020805490915060ff166104195760405162461bcd60e51b81526004016100f590610888565b8060020154841061046c5760405162461bcd60e51b815260206004820152601760248201527f496e7374616e636520646f6573206e6f7420657869737400000000000000000060448201526064016100f5565b806001015483106104b95760405162461bcd60e51b81526020600482015260176024820152761058dd1a5d9a5d1e48191bd95cc81b9bdd08195e1a5cdd604a1b60448201526064016100f5565b60405182906104c990879061086c565b9081526040805191829003602090810183206000888152600391820183528381206004908101805460018101825590835284832001899055888252860190925291902033927f0ff7661c456473bfca0f796fe76b5cb9d4c8a1bda3062d07856bdc2efc0ba5739261053b920190610a71565b60405180910390a25050505050565b604051600080516020610bdb83398151915290600090829061056d90879061086c565b908152604051908190036020019020805490915060ff166105a05760405162461bcd60e51b81526004016100f590610888565b806001015484106105ed5760405162461bcd60e51b81526020600482015260176024820152761058dd1a5d9a5d1e48191bd95cc81b9bdd08195e1a5cdd604a1b60448201526064016100f5565b828260000186604051610600919061086c565b9081526020016040518091039020600a016000868152602001908152602001600020908161021a9190610b1a565b634e487b7160e01b600052604160045260246000fd5b600082601f83011261065557600080fd5b813567ffffffffffffffff808211156106705761067061062e565b604051601f8301601f19908116603f011681019082821181831017156106985761069861062e565b816040528381528660208588010111156106b157600080fd5b836020870160208301376000602085830101528094505050505092915050565b600080604083850312156106e457600080fd5b823567ffffffffffffffff8111156106fb57600080fd5b61070785828601610644565b95602094909401359450505050565b6000806000806080858703121561072c57600080fd5b843567ffffffffffffffff8082111561074457600080fd5b61075088838901610644565b95506020870135945060408701359350606087013591508082111561077457600080fd5b5061078187828801610644565b91505092959194509250565b6000806000606084860312156107a257600080fd5b833567ffffffffffffffff8111156107b957600080fd5b6107c586828701610644565b9660208601359650604090950135949350505050565b6000806000606084860312156107f057600080fd5b833567ffffffffffffffff8082111561080857600080fd5b61081487838801610644565b945060208601359350604086013591508082111561083157600080fd5b5061083e86828701610644565b9150509250925092565b60005b8381101561086357818101518382015260200161084b565b50506000910152565b6000825161087e818460208701610848565b9190910192915050565b602080825260149082015273135bd9195b08191bd95cc81b9bdd08195e1a5cdd60621b604082015260600190565b634e487b7160e01b600052602160045260246000fd5b600181811c908216806108e057607f821691505b60208210810361090057634e487b7160e01b600052602260045260246000fd5b50919050565b60008154610913816108cc565b808552602060018381168015610930576001811461094a57610978565b60ff1985168884015283151560051b880183019550610978565b866000528260002060005b858110156109705781548a8201860152908301908401610955565b890184019650505b505050505092915050565b6009815268074696d657374616d760bc1b602082015260400190565b6060815260006109b26060830184610906565b828103806020850152600d82526c15185cdac8195e1958dd5d1959609a1b6020830152604081016040850152506109eb60408201610983565b949350505050565b606081526000610a066060830185610906565b82810360208401528351808252610a24816020840160208801610848565b601f01601f19160182810360209081016040850152610a44908201610983565b95945050505050565b604081526000610a606040830184610906565b82810360208401526109eb81610983565b606081526000610a846060830184610906565b828103806020850152601982527f4d61726b696e6720616464656420746f20696e7374616e6365000000000000006020830152604081016040850152506109eb60408201610983565b601f821115610b15576000816000526020600020601f850160051c81016020861015610af65750805b601f850160051c820191505b8181101561021a57828155600101610b02565b505050565b815167ffffffffffffffff811115610b3457610b3461062e565b610b4881610b4284546108cc565b84610acd565b602080601f831160018114610b7d5760008415610b655750858301515b600019600386901b1c1916600185901b17855561021a565b600085815260208120601f198616915b82811015610bac57888601518255948401946001909101908401610b8d565b5085821015610bca5787850151600019600388901b60f8161c191681555b5050505050600190811b0190555056fe34b903b1c9f516e29bcc70e55a6bc2ac2c43ec324e4a6cfb468f0c027487621ca264697066735822122034f03713086454ab2250795aafcfc9ec44c9dae79b66b0c769ed9c77a1216b2964736f6c63430008180033",
  "linkReferences": {},
  "deployedLinkReferences": {}
}