{
  "_format": "hh-sol-artifact-1",
  "contractName": "ModelFactoryFacetV3",
  "sourceName": "contracts/facets/Process/ModelFactoryFacetV3.sol",
  "abi": [
    {
      "anonymous": false,
      "inputs": [
        {
          "indexed": false,
          "internalType": "string",
          "name": "pName",
          "type": "string"
        }
      ],
      "name": "newModelFactory",
      "type": "event"
    },
    {
      "inputs": [
        {
          "internalType": "string",
          "name": "_name",
          "type": "string"
        },
        {
          "components": [
            {
              "internalType": "uint256",
              "name": "id",
              "type": "uint256"
            },
            {
              "internalType": "enum LibAppV2.NodeType",
              "name": "nodeType",
              "type": "uint8"
            },
            {
              "internalType": "string",
              "name": "xmlID",
              "type": "string"
            },
            {
              "internalType": "string",
              "name": "name",
              "type": "string"
            },
            {
              "internalType": "string",
              "name": "lane",
              "type": "string"
            },
            {
              "internalType": "string",
              "name": "dataIn",
              "type": "string"
            },
            {
              "internalType": "string",
              "name": "dataOut",
              "type": "string"
            },
            {
              "internalType": "string",
              "name": "timestamp",
              "type": "string"
            },
            {
              "internalType": "uint256[]",
              "name": "markings",
              "type": "uint256[]"
            }
          ],
          "internalType": "struct LibAppV2.Activity[]",
          "name": "_activities",
          "type": "tuple[]"
        },
        {
          "internalType": "string[][]",
          "name": "_tabChildrenOptim",
          "type": "string[][]"
        },
        {
          "internalType": "string[][]",
          "name": "_tabParentsOptim",
          "type": "string[][]"
        },
        {
          "internalType": "string[][]",
          "name": "_msgInOptim",
          "type": "string[][]"
        },
        {
          "internalType": "string[][]",
          "name": "_msgOutOptim",
          "type": "string[][]"
        },
        {
          "internalType": "string[]",
          "name": "_keyReplay",
          "type": "string[]"
        },
        {
          "internalType": "string[][]",
          "name": "_valueReplay",
          "type": "string[][]"
        }
      ],
      "name": "addModel",
      "outputs": [],
      "stateMutability": "nonpayable",
      "type": "function"
    },
    {
      "inputs": [
        {
          "internalType": "string",
          "name": "_name",
          "type": "string"
        }
      ],
      "name": "newInstance",
      "outputs": [
        {
          "internalType": "uint256",
          "name": "",
          "type": "uint256"
        }
      ],
      "stateMutability": "nonpayable",
      "type": "function"
    }
  ],
  "bytecode": "0x608060405234801561001057600080fd5b5061116e806100206000396000f3fe608060405234801561001057600080fd5b50600436106100365760003560e01c80638e361b561461003b578063cc31dd4f14610050575b600080fd5b61004e610049366004610d78565b610075565b005b61006361005e366004610eb8565b61058e565b60405190815260200160405180910390f35b6040517f34b903b1c9f516e29bcc70e55a6bc2ac2c43ec324e4a6cfb468f0c027487621c9081906100a7908b90610f19565b9081526040519081900360200190205460ff161561010c5760405162461bcd60e51b815260206004820152601860248201527f4d6f64656c206e616d6520616c72656164792074616b656e000000000000000060448201526064015b60405180910390fd5b6001816000018a6040516101209190610f19565b908152604051908190036020018120805492151560ff19909316929092179091558851908290610151908c90610f19565b9081526040519081900360200190206001015560005b88518110156104175788818151811061018257610182610f35565b6020026020010151826000018b60405161019c9190610f19565b908152604080516020928190038301902060008581526004909101835220825181559082015160018083018054909160ff19909116908360078111156101e4576101e4610f4b565b0217905550604082015160028201906101fd9082610fec565b50606082015160038201906102129082610fec565b50608082015160048201906102279082610fec565b5060a0820151600582019061023c9082610fec565b5060c082015160068201906102519082610fec565b5060e082015160078201906102669082610fec565b50610100820151805161028391600884019160209091019061081b565b5090505087818151811061029957610299610f35565b6020026020010151826000018b6040516102b39190610f19565b9081526020016040518091039020600501600083815260200190815260200160002090805190602001906102e8929190610866565b508681815181106102fb576102fb610f35565b6020026020010151826000018b6040516103159190610f19565b90815260200160405180910390206006016000838152602001908152602001600020908051906020019061034a929190610866565b5085818151811061035d5761035d610f35565b6020026020010151826000018b6040516103779190610f19565b9081526020016040518091039020600701600083815260200190815260200160002090805190602001906103ac929190610866565b508481815181106103bf576103bf610f35565b6020026020010151826000018b6040516103d99190610f19565b90815260200160405180910390206008016000838152602001908152602001600020908051906020019061040e929190610866565b50600101610167565b5060005b83518110156104b25782818151811061043657610436610f35565b6020026020010151826000018b6040516104509190610f19565b908152602001604051809103902060090185838151811061047357610473610f35565b60200260200101516040516104889190610f19565b908152602001604051809103902090805190602001906104a9929190610866565b5060010161041b565b5060005b885181101561054b5760008982815181106104d3576104d3610f35565b6020026020010151606001516040516020016104ef91906110ac565b604051602081830303815290604052905080836000018c6040516105139190610f19565b9081526020016040518091039020600a01600084815260200190815260200160002090816105419190610fec565b50506001016104b6565b507f199aab2f4d8489f44c22def22ddc192f95a7736dda51493af0a19361b0964d448960405161057b91906110de565b60405180910390a1505050505050505050565b6040516000907f34b903b1c9f516e29bcc70e55a6bc2ac2c43ec324e4a6cfb468f0c027487621c9081906105c3908590610f19565b9081526040519081900360200190205460ff166106195760405162461bcd60e51b8152602060048201526014602482015273135bd9195b08191bd95cc81b9bdd08195e1a5cdd60621b6044820152606401610103565b6000816000018460405161062d9190610f19565b908152602001604051809103902060020154905060005b6040518390610654908790610f19565b9081526020016040518091039020600101548110156107dd57604051839061067d908790610f19565b9081526040805191829003602090810183206000868152600390910182529182206002018054600181018255908352908220015583906106be908790610f19565b908152604080519182900360209081018320600086815260039182018352928320018054600181018255908352908220015583906106fd908790610f19565b908152604080519182900360209081018320600086815260039091018252918220600401805460018101825590835290822001819055908490610741908890610f19565b90815260408051602092819003830190206000858152600490910190925290206001015460ff16600781111561077957610779610f4b565b036107d557600183600001866040516107929190610f19565b9081526020016040518091039020600301600084815260200190815260200160002060020182815481106107c8576107c8610f35565b6000918252602090912001555b600101610644565b5060405182906107ee908690610f19565b908152604051908190036020019020600201805490600061080e83611111565b9091555090949350505050565b828054828255906000526020600020908101928215610856579160200282015b8281111561085657825182559160200191906001019061083b565b506108629291506108b8565b5090565b8280548282559060005260206000209081019282156108ac579160200282015b828111156108ac578251829061089c9082610fec565b5091602001919060010190610886565b506108629291506108cd565b5b8082111561086257600081556001016108b9565b808211156108625760006108e182826108ea565b506001016108cd565b5080546108f690610f61565b6000825580601f10610906575050565b601f01602090049060005260206000209081019061092491906108b8565b50565b634e487b7160e01b600052604160045260246000fd5b604051610120810167ffffffffffffffff8111828210171561096157610961610927565b60405290565b604051601f8201601f1916810167ffffffffffffffff8111828210171561099057610990610927565b604052919050565b600082601f8301126109a957600080fd5b813567ffffffffffffffff8111156109c3576109c3610927565b6109d6601f8201601f1916602001610967565b8181528460208386010111156109eb57600080fd5b816020850160208301376000918101602001919091529392505050565b600067ffffffffffffffff821115610a2257610a22610927565b5060051b60200190565b803560088110610a3b57600080fd5b919050565b600082601f830112610a5157600080fd5b81356020610a66610a6183610a08565b610967565b8083825260208201915060208460051b870101935086841115610a8857600080fd5b602086015b84811015610aa45780358352918301918301610a8d565b509695505050505050565b600082601f830112610ac057600080fd5b81356020610ad0610a6183610a08565b82815260059290921b84018101918181019086841115610aef57600080fd5b8286015b84811015610aa457803567ffffffffffffffff80821115610b145760008081fd5b90880190610120828b03601f1901811315610b2f5760008081fd5b610b3761093d565b8784013581526040610b4a818601610a2c565b8983015260608086013585811115610b625760008081fd5b610b708f8c838a0101610998565b8385015250608091508186013585811115610b8b5760008081fd5b610b998f8c838a0101610998565b82850152505060a08086013585811115610bb35760008081fd5b610bc18f8c838a0101610998565b838501525060c091508186013585811115610bdc5760008081fd5b610bea8f8c838a0101610998565b82850152505060e08086013585811115610c045760008081fd5b610c128f8c838a0101610998565b838501525061010091508186013585811115610c2e5760008081fd5b610c3c8f8c838a0101610998565b82850152505082850135925083831115610c565760008081fd5b610c648d8a85880101610a40565b908201528652505050918301918301610af3565b600082601f830112610c8957600080fd5b81356020610c99610a6183610a08565b82815260059290921b84018101918181019086841115610cb857600080fd5b8286015b84811015610aa457803567ffffffffffffffff811115610cdc5760008081fd5b610cea8986838b0101610998565b845250918301918301610cbc565b600082601f830112610d0957600080fd5b81356020610d19610a6183610a08565b82815260059290921b84018101918181019086841115610d3857600080fd5b8286015b84811015610aa457803567ffffffffffffffff811115610d5c5760008081fd5b610d6a8986838b0101610c78565b845250918301918301610d3c565b600080600080600080600080610100898b031215610d9557600080fd5b883567ffffffffffffffff80821115610dad57600080fd5b610db98c838d01610998565b995060208b0135915080821115610dcf57600080fd5b610ddb8c838d01610aaf565b985060408b0135915080821115610df157600080fd5b610dfd8c838d01610cf8565b975060608b0135915080821115610e1357600080fd5b610e1f8c838d01610cf8565b965060808b0135915080821115610e3557600080fd5b610e418c838d01610cf8565b955060a08b0135915080821115610e5757600080fd5b610e638c838d01610cf8565b945060c08b0135915080821115610e7957600080fd5b610e858c838d01610c78565b935060e08b0135915080821115610e9b57600080fd5b50610ea88b828c01610cf8565b9150509295985092959890939650565b600060208284031215610eca57600080fd5b813567ffffffffffffffff811115610ee157600080fd5b610eed84828501610998565b949350505050565b60005b83811015610f10578181015183820152602001610ef8565b50506000910152565b60008251610f2b818460208701610ef5565b9190910192915050565b634e487b7160e01b600052603260045260246000fd5b634e487b7160e01b600052602160045260246000fd5b600181811c90821680610f7557607f821691505b602082108103610f9557634e487b7160e01b600052602260045260246000fd5b50919050565b601f821115610fe7576000816000526020600020601f850160051c81016020861015610fc45750805b601f850160051c820191505b81811015610fe357828155600101610fd0565b5050505b505050565b815167ffffffffffffffff81111561100657611006610927565b61101a816110148454610f61565b84610f9b565b602080601f83116001811461104f57600084156110375750858301515b600019600386901b1c1916600185901b178555610fe3565b600085815260208120601f198616915b8281101561107e5788860151825594840194600190910190840161105f565b508582101561109c5787850151600019600388901b60f8161c191681555b5050505050600190811b01905550565b69020b1ba34bb34ba3c9d160b51b8152600082516110d181600a850160208701610ef5565b91909101600a0192915050565b60208152600082518060208401526110fd816040850160208701610ef5565b601f01601f19169190910160400192915050565b60006001820161113157634e487b7160e01b600052601160045260246000fd5b506001019056fea2646970667358221220e34a145b35784915f2f9a52d4546e3caa097e388cb9176b716a998bcab8dc16264736f6c63430008180033",
  "linkReferences": {},
  "deployedLinkReferences": {}
}