{
  "_format": "hh-sol-artifact-1",
  "contractName": "factoryBulkBuyer",
  "sourceName": "contracts/caterPillar/factoryBulkBuyer.sol",
  "abi": [
    {
      "inputs": [],
      "name": "getInstance",
      "outputs": [
        {
          "internalType": "address",
          "name": "",
          "type": "address"
        }
      ],
      "stateMutability": "view",
      "type": "function"
    },
    {
      "inputs": [
        {
          "internalType": "address",
          "name": "parent",
          "type": "address"
        },
        {
          "internalType": "address",
          "name": "globalFactory",
          "type": "address"
        }
      ],
      "name": "newInstance",
      "outputs": [
        {
          "internalType": "address",
          "name": "",
          "type": "address"
        }
      ],
      "stateMutability": "nonpayable",
      "type": "function"
    },
    {
      "inputs": [
        {
          "internalType": "address",
          "name": "_worklist",
          "type": "address"
        }
      ],
      "name": "setWorklist",
      "outputs": [],
      "stateMutability": "nonpayable",
      "type": "function"
    },
    {
      "inputs": [
        {
          "internalType": "address",
          "name": "processAddress",
          "type": "address"
        }
      ],
      "name": "startInstanceExecution",
      "outputs": [],
      "stateMutability": "nonpayable",
      "type": "function"
    }
  ],
  "bytecode": "0x6080604052600080546001600160a01b031916905534801561002057600080fd5b5061177d806100306000396000f3fe608060405234801561001057600080fd5b506004361061004c5760003560e01c806316ec41f1146100515780634491bdbe14610066578063a0e3402414610096578063de7b5d14146100c5575b600080fd5b61006461005f3660046101ab565b6100d6565b005b6100646100743660046101ab565b600080546001600160a01b0319166001600160a01b0392909216919091179055565b6100a96100a43660046101cd565b610133565b6040516001600160a01b03909116815260200160405180910390f35b6001546001600160a01b03166100a9565b604051633a1cde7560e01b8152600260048201526001600160a01b03821690633a1cde7590602401600060405180830381600087803b15801561011857600080fd5b505af115801561012c573d6000803e3d6000fd5b5050505050565b60008060405161014290610182565b604051809103906000f08015801561015e573d6000803e3d6000fd5b50600180546001600160a01b0319166001600160a01b038316179055949350505050565b6115478061020183390190565b80356001600160a01b03811681146101a657600080fd5b919050565b6000602082840312156101bd57600080fd5b6101c68261018f565b9392505050565b600080604083850312156101e057600080fd5b6101e98361018f565b91506101f76020840161018f565b9050925092905056fe60806040526002600055600060035560006006556000600755600060085560006009556000600a556000600b556000600c556000600d556000600e556000600f5534801561004c57600080fd5b50600180546001600160a01b0319163317905560405161006b906100ad565b604051809103906000f080158015610087573d6000803e3d6000fd5b50600580546001600160a01b0319166001600160a01b03929092169190911790556100ba565b610288806112bf83390190565b6111f6806100c96000396000f3fe608060405234801561001057600080fd5b506004361061014d5760003560e01c80637a6eadeb116100c3578063b7d11d3f1161007c578063b7d11d3f14610276578063b7db7f6d14610289578063be80175714610291578063dc5bcca8146102a4578063e2d6ff95146102ac578063f02637c1146102bf57600080fd5b80637a6eadeb146101fc5780637dc74da91461020f57806384bef679146102225780638f4c0c6f1461023d578063a96035dc14610250578063af332d951461026357600080fd5b8063506b6ab011610115578063506b6ab014610165578063535d36ea146101c757806353848421146101da5780635def08cb146101ed5780636b99255b1461016557806372aaaa46146101f557600080fd5b80631499c5921461015257806321df0da7146101675780632e47fbd51461017e5780633a1cde75146101915780634118c2a0146101a4575b600080fd5b610165610160366004611117565b6102d2565b005b6000545b6040519081526020015b60405180910390f35b61016561018c366004611147565b610305565b61016561019f366004611147565b61038e565b6101b76101b2366004611147565b6104df565b6040519015158152602001610175565b6101b76101d5366004611147565b610551565b6101b76101e8366004611147565b6105af565b61016b61060c565b600061016b565b61016b61020a366004611147565b61064c565b6101b761021d366004611147565b6106f5565b6005546040516001600160a01b039091168152602001610175565b6101b761024b366004611147565b610751565b6101b761025e366004611147565b6107ae565b6101b7610271366004611147565b61080c565b6101b7610284366004611147565b61086d565b61016b6108c9565b61016561029f366004611147565b61096e565b60105461016b565b6101b76102ba366004611147565b6109b0565b6101b76102cd366004611147565b610a0d565b600154336001600160a01b039091160361030257600280546001600160a01b0319166001600160a01b0383161790555b50565b6002546001600160a01b03161561037857600254604051632e47fbd560e01b8152600481018390526001600160a01b0390911690632e47fbd5906024015b600060405180830381600087803b15801561035d57600080fd5b505af1158015610371573d6000803e3d6000fd5b5050505050565b61038061060c565b600080549119909116905550565b60005b806104d957601080549060006103a683611160565b9190505550816002166002036103c6576103bf82610a69565b9150610391565b816004166004036103da576103bf82610b00565b816010166010036103ee576103bf82610b97565b81602016602003610402576103bf82610c2e565b816101001661010003610418576103bf82610cc5565b81610200166102000361042e576103bf82610d5d565b816104001661040003610444576103bf82610df5565b81610800166108000361045a576103bf82610e8d565b816110001661100003610470576103bf82610f25565b816120001661200003610486576103bf82610fbd565b81614000166140000361049c576103bf82611055565b816008166008036104b65760081982166030179150610391565b8160c01660c0036104d15760c0198216610100179150610391565b506001610391565b50600055565b60006008546000036104f357506000919050565b6008546001831b9081168190036105485760088054821916905560005461051c9060801761038e565b604051600481526000805160206111a1833981519152906020015b60405180910390a150600192915050565b50600092915050565b6000600e5460000361056557506000919050565b600e546001831b90811681900361054857600e8054821916905560005461058f906120001761038e565b60405161010081526000805160206111a183398151915290602001610537565b6000600a546000036105c357506000919050565b600a546001831b90811681900361054857600a805482191690556000546105ed906102001761038e565b604051601081526000805160206111a183398151915290602001610537565b60006006819055600781905560088190556009819055600a819055600b819055600c819055600d819055600e819055600f8190558054617ffe1916815590565b60008160010361065e57505060065490565b8160020361066e57505060075490565b8160040361067e57505060085490565b8160080361068e57505060095490565b8160100361069e575050600a5490565b816020036106ae575050600b5490565b816040036106be575050600c5490565b816080036106ce575050600d5490565b81610100036106df575050600e5490565b81610200036106f0575050600f5490565b919050565b600060095460000361070957506000919050565b6009546001831b908116819003610548576009805482191690556000546107329060401761038e565b604051600881526000805160206111a183398151915290602001610537565b6000600d5460000361076557506000919050565b600d546001831b90811681900361054857600d8054821916905560005461078f906110001761038e565b604051608081526000805160206111a183398151915290602001610537565b6000600f546000036107c257506000919050565b600f546001831b90811681900361054857600f805482191690556000546107ec906140001761038e565b60405161020081526000805160206111a183398151915290602001610537565b600060075460000361082057506000919050565b6007546001831b90811681900361054857600780548219169055600060108190555461084e9060081761038e565b604051600281526000805160206111a183398151915290602001610537565b600060065460000361088157506000919050565b6006546001831b908116819003610548576006805482191690556000546108aa9060041761038e565b604051600181526000805160206111a183398151915290602001610537565b60008054600654829190156108df576001821791505b600754156108ee576002821791505b600854156108fd576004821791505b6009541561090c576008821791505b600a541561091b576010821791505b600b541561092a576020821791505b600c5415610939576040821791505b600d5415610948576080821791505b600e541561095857610100821791505b600f541561096857610200821791505b50919050565b6002546001600160a01b0316156103025760025460405163be80175760e01b8152600481018390526001600160a01b039091169063be80175790602401610343565b6000600c546000036109c457506000919050565b600c546001831b90811681900361054857600c805482191690556000546109ee906108001761038e565b6000805160206111a18339815191526040805161053791815260200190565b6000600b54600003610a2157506000919050565b600b546001831b90811681900361054857600b80548219169055600054610a4b906104001761038e565b60405160208082526000805160206111a18339815191529101610537565b60055460408051632a142df560e11b81523060201b63b7d11d3f1790911b600482015260009182916001600160a01b03909116906354285bea906024016020604051808303816000875af1158015610ac5573d6000803e3d6000fd5b505050506040513d601f19601f82011682018060405250810190610ae99190611187565b60068054600190921b909117905550506002191690565b60055460408051632a142df560e11b81523060201b63af332d951790911b600482015260009182916001600160a01b03909116906354285bea906024016020604051808303816000875af1158015610b5c573d6000803e3d6000fd5b505050506040513d601f19601f82011682018060405250810190610b809190611187565b60078054600190921b909117905550506004191690565b60055460408051632a142df560e11b81523060201b634118c2a01790911b600482015260009182916001600160a01b03909116906354285bea906024016020604051808303816000875af1158015610bf3573d6000803e3d6000fd5b505050506040513d601f19601f82011682018060405250810190610c179190611187565b60088054600190921b909117905550506010191690565b60055460408051632a142df560e11b81523060201b637dc74da91790911b600482015260009182916001600160a01b03909116906354285bea906024016020604051808303816000875af1158015610c8a573d6000803e3d6000fd5b505050506040513d601f19601f82011682018060405250810190610cae9190611187565b60098054600190921b909117905550506020191690565b60055460408051632a142df560e11b81523060201b63538484211790911b600482015260009182916001600160a01b03909116906354285bea906024016020604051808303816000875af1158015610d21573d6000803e3d6000fd5b505050506040513d601f19601f82011682018060405250810190610d459190611187565b600a8054600190921b90911790555050610100191690565b60055460408051632a142df560e11b81523060201b63f02637c11790911b600482015260009182916001600160a01b03909116906354285bea906024016020604051808303816000875af1158015610db9573d6000803e3d6000fd5b505050506040513d601f19601f82011682018060405250810190610ddd9190611187565b600b8054600190921b90911790555050610200191690565b60055460408051632a142df560e11b81523060201b63e2d6ff951790911b600482015260009182916001600160a01b03909116906354285bea906024016020604051808303816000875af1158015610e51573d6000803e3d6000fd5b505050506040513d601f19601f82011682018060405250810190610e759190611187565b600c8054600190921b90911790555050610400191690565b60055460408051632a142df560e11b81523060201b638f4c0c6f1790911b600482015260009182916001600160a01b03909116906354285bea906024016020604051808303816000875af1158015610ee9573d6000803e3d6000fd5b505050506040513d601f19601f82011682018060405250810190610f0d9190611187565b600d8054600190921b90911790555050610800191690565b60055460408051632a142df560e11b81523060201b63535d36ea1790911b600482015260009182916001600160a01b03909116906354285bea906024016020604051808303816000875af1158015610f81573d6000803e3d6000fd5b505050506040513d601f19601f82011682018060405250810190610fa59190611187565b600e8054600190921b90911790555050611000191690565b60055460408051632a142df560e11b81523060201b63a96035dc1790911b600482015260009182916001600160a01b03909116906354285bea906024016020604051808303816000875af1158015611019573d6000803e3d6000fd5b505050506040513d601f19601f8201168201806040525081019061103d9190611187565b600f8054600190921b90911790555050612000191690565b6140001981166000908155613ffe82161561107257505060005490565b6002546001600160a01b0316156110ec57600260009054906101000a90046001600160a01b03166001600160a01b0316636b99255b6040518163ffffffff1660e01b8152600401600060405180830381600087803b1580156110d357600080fd5b505af11580156110e7573d6000803e3d6000fd5b505050505b60405161040081526000805160206111a18339815191529060200160405180910390a1505060005490565b60006020828403121561112957600080fd5b81356001600160a01b038116811461114057600080fd5b9392505050565b60006020828403121561115957600080fd5b5035919050565b60006001820161118057634e487b7160e01b600052601160045260246000fd5b5060010190565b60006020828403121561119957600080fd5b505191905056fed14e1275459d597e11394bd4f2705f67625abb817299d3f66faffc080162996da264697066735822122032a73959dd72e2d48fc4f4a9f69d042b66e6462f7a8d599ebdb04ed130d9d9e764736f6c63430008180033608060405234801561001057600080fd5b50610268806100206000396000f3fe608060405234801561001057600080fd5b50600436106100365760003560e01c806354285bea1461003b578063b50c113d146100da575b600080fd5b6100c8610049366004610194565b60008054604080516020808201835286901b63ffffffff80871691909117831b8252600184018555938052517f290decd9548b62a8d60345a988386fc84ba6bc95484008f6362f93160ef3e56383018054640100000000600160c01b039290931c91821691909416176001600160c01b03199091161790915592915050565b60405190815260200160405180910390f35b6100ed6100e83660046101da565b6100ef565b005b60008181548110610102576101026101f3565b9060005260206000200160000160009054906101000a90048060201c6001600160a01b03169063ffffffff16826040518263ffffffff1660e01b815260040161014d91815260200190565b6020604051808303816000875af115801561016c573d6000803e3d6000fd5b505050506040513d601f19601f820116820180604052508101906101909190610209565b5050565b600080602083850312156101a757600080fd5b823567ffffffffffffffff19811681146101c057600080fd5b8060601c925063ffffffff8160401c169150509250929050565b6000602082840312156101ec57600080fd5b5035919050565b634e487b7160e01b600052603260045260246000fd5b60006020828403121561021b57600080fd5b8151801515811461022b57600080fd5b939250505056fea2646970667358221220fdb5b498abec1566eab7c987b2b3c3bc7c72454ae04653098d30d1ff9af289cf64736f6c63430008180033a2646970667358221220a81892a47a407b40a81d281a552a7de6b2fa7bf4bdcaf1b91c48a638f729231e64736f6c63430008180033",
  "linkReferences": {},
  "deployedLinkReferences": {}
}