{"contracts/facets/Process/ExecLogicFacetV2.sol":{"ExecLogicFacetV2":{"abi":[{"anonymous":false,"inputs":[{"indexed":true,"internalType":"address","name":"from","type":"address"},{"indexed":false,"internalType":"string","name":"id","type":"string"},{"indexed":false,"internalType":"string","name":"data","type":"string"},{"indexed":false,"internalType":"string","name":"timestamp","type":"string"}],"name":"TaskExecuted","type":"event"},{"anonymous":false,"inputs":[{"indexed":true,"internalType":"address","name":"from","type":"address"},{"indexed":false,"internalType":"string","name":"id","type":"string"},{"indexed":false,"internalType":"string","name":"timestamp","type":"string"}],"name":"TaskExecutionError","type":"event"},{"inputs":[{"internalType":"string","name":"_modelName","type":"string"},{"internalType":"uint256","name":"_instanceId","type":"uint256"},{"internalType":"uint256","name":"_activityId","type":"uint256"}],"name":"addInstanceMarking","outputs":[],"stateMutability":"nonpayable","type":"function"},{"inputs":[{"internalType":"string","name":"_modelName","type":"string"},{"internalType":"uint256","name":"_instanceId","type":"uint256"}],"name":"executeAllTasks","outputs":[],"stateMutability":"nonpayable","type":"function"},{"inputs":[{"internalType":"string","name":"_modelName","type":"string"},{"internalType":"uint256","name":"_instanceId","type":"uint256"},{"internalType":"uint256","name":"_activityId","type":"uint256"},{"internalType":"string","name":"_data","type":"string"}],"name":"executeTask","outputs":[],"stateMutability":"nonpayable","type":"function"},{"inputs":[{"internalType":"string","name":"_modelName","type":"string"},{"internalType":"uint256","name":"_activityId","type":"uint256"},{"internalType":"string","name":"_metadata","type":"string"}],"name":"updateActivityMetadata","outputs":[],"stateMutability":"nonpayable","type":"function"}],"evm":{"bytecode":{"linkReferences":{},"object":"608060405234801561001057600080fd5b50610c30806100206000396000f3fe608060405234801561001057600080fd5b506004361061004c5760003560e01c8063813b3de314610051578063a594546c14610066578063b744b4d414610079578063edfe57341461008c575b600080fd5b61006461005f3660046106d1565b61009f565b005b610064610074366004610716565b610222565b61006461008736600461078d565b6103c3565b61006461009a3660046107db565b61054a565b604051600080516020610bdb8339815191529060009082906100c290869061086c565b908152604051908190036020019020805490915060ff166100fe5760405162461bcd60e51b81526004016100f590610888565b60405180910390fd5b60018101546000805b828110156101cc576000818152600485016020526040812090600182015460ff166007811115610139576101396108b6565b036101c357604051869061014e908a9061086c565b90815260408051918290036020908101832060008b8152600391820183529283206004018054600181018255908452919092200184905533917f0ff7661c456473bfca0f796fe76b5cb9d4c8a1bda3062d07856bdc2efc0ba573916101b6919085019061099f565b60405180910390a2600192505b50600101610107565b508061021a5760405162461bcd60e51b815260206004820152601f60248201527f4e6f2076616c6964207461736b7320666f756e6420746f20657865637574650060448201526064016100f5565b505050505050565b604051600080516020610bdb83398151915290600090829061024590889061086c565b908152604051908190036020019020805490915060ff166102785760405162461bcd60e51b81526004016100f590610888565b6000848152600482016020526040812090600182015460ff1660078111156102a2576102a26108b6565b0361032e5760405183906102b790899061086c565b90815260408051918290036020908101832060008a8152600391820183529283206004018054600181018255908452919092200187905533917f0ff7661c456473bfca0f796fe76b5cb9d4c8a1bda3062d07856bdc2efc0ba57391610321919085019088906109f3565b60405180910390a26103ba565b336001600160a01b03167f688d9c041d833c0c193ffe37a0ef243ab737fb8ebfc0d514e8255c1b2a2b6ef68260030160405161036a9190610a4d565b60405180910390a260405162461bcd60e51b815260206004820152601b60248201527f41637469766974792063616e6e6f74206265206578656375746564000000000060448201526064016100f5565b50505050505050565b604051600080516020610bdb8339815191529060009082906103e690879061086c565b908152604051908190036020019020805490915060ff166104195760405162461bcd60e51b81526004016100f590610888565b8060020154841061046c5760405162461bcd60e51b815260206004820152601760248201527f496e7374616e636520646f6573206e6f7420657869737400000000000000000060448201526064016100f5565b806001015483106104b95760405162461bcd60e51b81526020600482015260176024820152761058dd1a5d9a5d1e48191bd95cc81b9bdd08195e1a5cdd604a1b60448201526064016100f5565b60405182906104c990879061086c565b9081526040805191829003602090810183206000888152600391820183528381206004908101805460018101825590835284832001899055888252860190925291902033927f0ff7661c456473bfca0f796fe76b5cb9d4c8a1bda3062d07856bdc2efc0ba5739261053b920190610a71565b60405180910390a25050505050565b604051600080516020610bdb83398151915290600090829061056d90879061086c565b908152604051908190036020019020805490915060ff166105a05760405162461bcd60e51b81526004016100f590610888565b806001015484106105ed5760405162461bcd60e51b81526020600482015260176024820152761058dd1a5d9a5d1e48191bd95cc81b9bdd08195e1a5cdd604a1b60448201526064016100f5565b828260000186604051610600919061086c565b9081526020016040518091039020600a016000868152602001908152602001600020908161021a9190610b1a565b634e487b7160e01b600052604160045260246000fd5b600082601f83011261065557600080fd5b813567ffffffffffffffff808211156106705761067061062e565b604051601f8301601f19908116603f011681019082821181831017156106985761069861062e565b816040528381528660208588010111156106b157600080fd5b836020870160208301376000602085830101528094505050505092915050565b600080604083850312156106e457600080fd5b823567ffffffffffffffff8111156106fb57600080fd5b61070785828601610644565b95602094909401359450505050565b6000806000806080858703121561072c57600080fd5b843567ffffffffffffffff8082111561074457600080fd5b61075088838901610644565b95506020870135945060408701359350606087013591508082111561077457600080fd5b5061078187828801610644565b91505092959194509250565b6000806000606084860312156107a257600080fd5b833567ffffffffffffffff8111156107b957600080fd5b6107c586828701610644565b9660208601359650604090950135949350505050565b6000806000606084860312156107f057600080fd5b833567ffffffffffffffff8082111561080857600080fd5b61081487838801610644565b945060208601359350604086013591508082111561083157600080fd5b5061083e86828701610644565b9150509250925092565b60005b8381101561086357818101518382015260200161084b565b50506000910152565b6000825161087e818460208701610848565b9190910192915050565b602080825260149082015273135bd9195b08191bd95cc81b9bdd08195e1a5cdd60621b604082015260600190565b634e487b7160e01b600052602160045260246000fd5b600181811c908216806108e057607f821691505b60208210810361090057634e487b7160e01b600052602260045260246000fd5b50919050565b60008154610913816108cc565b808552602060018381168015610930576001811461094a57610978565b60ff1985168884015283151560051b880183019550610978565b866000528260002060005b858110156109705781548a8201860152908301908401610955565b890184019650505b505050505092915050565b6009815268074696d657374616d760bc1b602082015260400190565b6060815260006109b26060830184610906565b828103806020850152600d82526c15185cdac8195e1958dd5d1959609a1b6020830152604081016040850152506109eb60408201610983565b949350505050565b606081526000610a066060830185610906565b82810360208401528351808252610a24816020840160208801610848565b601f01601f19160182810360209081016040850152610a44908201610983565b95945050505050565b604081526000610a606040830184610906565b82810360208401526109eb81610983565b606081526000610a846060830184610906565b828103806020850152601982527f4d61726b696e6720616464656420746f20696e7374616e6365000000000000006020830152604081016040850152506109eb60408201610983565b601f821115610b15576000816000526020600020601f850160051c81016020861015610af65750805b601f850160051c820191505b8181101561021a57828155600101610b02565b505050565b815167ffffffffffffffff811115610b3457610b3461062e565b610b4881610b4284546108cc565b84610acd565b602080601f831160018114610b7d5760008415610b655750858301515b600019600386901b1c1916600185901b17855561021a565b600085815260208120601f198616915b82811015610bac57888601518255948401946001909101908401610b8d565b5085821015610bca5787850151600019600388901b60f8161c191681555b5050505050600190811b0190555056fe34b903b1c9f516e29bcc70e55a6bc2ac2c43ec324e4a6cfb468f0c027487621ca264697066735822122034f03713086454ab2250795aafcfc9ec44c9dae79b66b0c769ed9c77a1216b2964736f6c63430008180033","opcodes":"PUSH1 0x80 PUSH1 0x40 MSTORE CALLVALUE DUP1 ISZERO PUSH2 0x10 JUMPI PUSH1 0x0 DUP1 REVERT JUMPDEST POP PUSH2 0xC30 DUP1 PUSH2 0x20 PUSH1 0x0 CODECOPY PUSH1 0x0 RETURN INVALID PUSH1 0x80 PUSH1 0x40 MSTORE CALLVALUE DUP1 ISZERO PUSH2 0x10 JUMPI PUSH1 0x0 DUP1 REVERT JUMPDEST POP PUSH1 0x4 CALLDATASIZE LT PUSH2 0x4C JUMPI PUSH1 0x0 CALLDATALOAD PUSH1 0xE0 SHR DUP1 PUSH4 0x813B3DE3 EQ PUSH2 0x51 JUMPI DUP1 PUSH4 0xA594546C EQ PUSH2 0x66 JUMPI DUP1 PUSH4 0xB744B4D4 EQ PUSH2 0x79 JUMPI DUP1 PUSH4 0xEDFE5734 EQ PUSH2 0x8C JUMPI JUMPDEST PUSH1 0x0 DUP1 REVERT JUMPDEST PUSH2 0x64 PUSH2 0x5F CALLDATASIZE PUSH1 0x4 PUSH2 0x6D1 JUMP JUMPDEST PUSH2 0x9F JUMP JUMPDEST STOP JUMPDEST PUSH2 0x64 PUSH2 0x74 CALLDATASIZE PUSH1 0x4 PUSH2 0x716 JUMP JUMPDEST PUSH2 0x222 JUMP JUMPDEST PUSH2 0x64 PUSH2 0x87 CALLDATASIZE PUSH1 0x4 PUSH2 0x78D JUMP JUMPDEST PUSH2 0x3C3 JUMP JUMPDEST PUSH2 0x64 PUSH2 0x9A CALLDATASIZE PUSH1 0x4 PUSH2 0x7DB JUMP JUMPDEST PUSH2 0x54A JUMP JUMPDEST PUSH1 0x40 MLOAD PUSH1 0x0 DUP1 MLOAD PUSH1 0x20 PUSH2 0xBDB DUP4 CODECOPY DUP2 MLOAD SWAP2 MSTORE SWAP1 PUSH1 0x0 SWAP1 DUP3 SWAP1 PUSH2 0xC2 SWAP1 DUP7 SWAP1 PUSH2 0x86C JUMP JUMPDEST SWAP1 DUP2 MSTORE PUSH1 0x40 MLOAD SWAP1 DUP2 SWAP1 SUB PUSH1 0x20 ADD SWAP1 KECCAK256 DUP1 SLOAD SWAP1 SWAP2 POP PUSH1 0xFF AND PUSH2 0xFE JUMPI PUSH1 0x40 MLOAD PUSH3 0x461BCD PUSH1 0xE5 SHL DUP2 MSTORE PUSH1 0x4 ADD PUSH2 0xF5 SWAP1 PUSH2 0x888 JUMP JUMPDEST PUSH1 0x40 MLOAD DUP1 SWAP2 SUB SWAP1 REVERT JUMPDEST PUSH1 0x1 DUP2 ADD SLOAD PUSH1 0x0 DUP1 JUMPDEST DUP3 DUP2 LT ISZERO PUSH2 0x1CC JUMPI PUSH1 0x0 DUP2 DUP2 MSTORE PUSH1 0x4 DUP6 ADD PUSH1 0x20 MSTORE PUSH1 0x40 DUP2 KECCAK256 SWAP1 PUSH1 0x1 DUP3 ADD SLOAD PUSH1 0xFF AND PUSH1 0x7 DUP2 GT ISZERO PUSH2 0x139 JUMPI PUSH2 0x139 PUSH2 0x8B6 JUMP JUMPDEST SUB PUSH2 0x1C3 JUMPI PUSH1 0x40 MLOAD DUP7 SWAP1 PUSH2 0x14E SWAP1 DUP11 SWAP1 PUSH2 0x86C JUMP JUMPDEST SWAP1 DUP2 MSTORE PUSH1 0x40 DUP1 MLOAD SWAP2 DUP3 SWAP1 SUB PUSH1 0x20 SWAP1 DUP2 ADD DUP4 KECCAK256 PUSH1 0x0 DUP12 DUP2 MSTORE PUSH1 0x3 SWAP2 DUP3 ADD DUP4 MSTORE SWAP3 DUP4 KECCAK256 PUSH1 0x4 ADD DUP1 SLOAD PUSH1 0x1 DUP2 ADD DUP3 SSTORE SWAP1 DUP5 MSTORE SWAP2 SWAP1 SWAP3 KECCAK256 ADD DUP5 SWAP1 SSTORE CALLER SWAP2 PUSH32 0xFF7661C456473BFCA0F796FE76B5CB9D4C8A1BDA3062D07856BDC2EFC0BA573 SWAP2 PUSH2 0x1B6 SWAP2 SWAP1 DUP6 ADD SWAP1 PUSH2 0x99F JUMP JUMPDEST PUSH1 0x40 MLOAD DUP1 SWAP2 SUB SWAP1 LOG2 PUSH1 0x1 SWAP3 POP JUMPDEST POP PUSH1 0x1 ADD PUSH2 0x107 JUMP JUMPDEST POP DUP1 PUSH2 0x21A JUMPI PUSH1 0x40 MLOAD PUSH3 0x461BCD PUSH1 0xE5 SHL DUP2 MSTORE PUSH1 0x20 PUSH1 0x4 DUP3 ADD MSTORE PUSH1 0x1F PUSH1 0x24 DUP3 ADD MSTORE PUSH32 0x4E6F2076616C6964207461736B7320666F756E6420746F206578656375746500 PUSH1 0x44 DUP3 ADD MSTORE PUSH1 0x64 ADD PUSH2 0xF5 JUMP JUMPDEST POP POP POP POP POP POP JUMP JUMPDEST PUSH1 0x40 MLOAD PUSH1 0x0 DUP1 MLOAD PUSH1 0x20 PUSH2 0xBDB DUP4 CODECOPY DUP2 MLOAD SWAP2 MSTORE SWAP1 PUSH1 0x0 SWAP1 DUP3 SWAP1 PUSH2 0x245 SWAP1 DUP9 SWAP1 PUSH2 0x86C JUMP JUMPDEST SWAP1 DUP2 MSTORE PUSH1 0x40 MLOAD SWAP1 DUP2 SWAP1 SUB PUSH1 0x20 ADD SWAP1 KECCAK256 DUP1 SLOAD SWAP1 SWAP2 POP PUSH1 0xFF AND PUSH2 0x278 JUMPI PUSH1 0x40 MLOAD PUSH3 0x461BCD PUSH1 0xE5 SHL DUP2 MSTORE PUSH1 0x4 ADD PUSH2 0xF5 SWAP1 PUSH2 0x888 JUMP JUMPDEST PUSH1 0x0 DUP5 DUP2 MSTORE PUSH1 0x4 DUP3 ADD PUSH1 0x20 MSTORE PUSH1 0x40 DUP2 KECCAK256 SWAP1 PUSH1 0x1 DUP3 ADD SLOAD PUSH1 0xFF AND PUSH1 0x7 DUP2 GT ISZERO PUSH2 0x2A2 JUMPI PUSH2 0x2A2 PUSH2 0x8B6 JUMP JUMPDEST SUB PUSH2 0x32E JUMPI PUSH1 0x40 MLOAD DUP4 SWAP1 PUSH2 0x2B7 SWAP1 DUP10 SWAP1 PUSH2 0x86C JUMP JUMPDEST SWAP1 DUP2 MSTORE PUSH1 0x40 DUP1 MLOAD SWAP2 DUP3 SWAP1 SUB PUSH1 0x20 SWAP1 DUP2 ADD DUP4 KECCAK256 PUSH1 0x0 DUP11 DUP2 MSTORE PUSH1 0x3 SWAP2 DUP3 ADD DUP4 MSTORE SWAP3 DUP4 KECCAK256 PUSH1 0x4 ADD DUP1 SLOAD PUSH1 0x1 DUP2 ADD DUP3 SSTORE SWAP1 DUP5 MSTORE SWAP2 SWAP1 SWAP3 KECCAK256 ADD DUP8 SWAP1 SSTORE CALLER SWAP2 PUSH32 0xFF7661C456473BFCA0F796FE76B5CB9D4C8A1BDA3062D07856BDC2EFC0BA573 SWAP2 PUSH2 0x321 SWAP2 SWAP1 DUP6 ADD SWAP1 DUP9 SWAP1 PUSH2 0x9F3 JUMP JUMPDEST PUSH1 0x40 MLOAD DUP1 SWAP2 SUB SWAP1 LOG2 PUSH2 0x3BA JUMP JUMPDEST CALLER PUSH1 0x1 PUSH1 0x1 PUSH1 0xA0 SHL SUB AND PUSH32 0x688D9C041D833C0C193FFE37A0EF243AB737FB8EBFC0D514E8255C1B2A2B6EF6 DUP3 PUSH1 0x3 ADD PUSH1 0x40 MLOAD PUSH2 0x36A SWAP2 SWAP1 PUSH2 0xA4D JUMP JUMPDEST PUSH1 0x40 MLOAD DUP1 SWAP2 SUB SWAP1 LOG2 PUSH1 0x40 MLOAD PUSH3 0x461BCD PUSH1 0xE5 SHL DUP2 MSTORE PUSH1 0x20 PUSH1 0x4 DUP3 ADD MSTORE PUSH1 0x1B PUSH1 0x24 DUP3 ADD MSTORE PUSH32 0x41637469766974792063616E6E6F742062652065786563757465640000000000 PUSH1 0x44 DUP3 ADD MSTORE PUSH1 0x64 ADD PUSH2 0xF5 JUMP JUMPDEST POP POP POP POP POP POP POP JUMP JUMPDEST PUSH1 0x40 MLOAD PUSH1 0x0 DUP1 MLOAD PUSH1 0x20 PUSH2 0xBDB DUP4 CODECOPY DUP2 MLOAD SWAP2 MSTORE SWAP1 PUSH1 0x0 SWAP1 DUP3 SWAP1 PUSH2 0x3E6 SWAP1 DUP8 SWAP1 PUSH2 0x86C JUMP JUMPDEST SWAP1 DUP2 MSTORE PUSH1 0x40 MLOAD SWAP1 DUP2 SWAP1 SUB PUSH1 0x20 ADD SWAP1 KECCAK256 DUP1 SLOAD SWAP1 SWAP2 POP PUSH1 0xFF AND PUSH2 0x419 JUMPI PUSH1 0x40 MLOAD PUSH3 0x461BCD PUSH1 0xE5 SHL DUP2 MSTORE PUSH1 0x4 ADD PUSH2 0xF5 SWAP1 PUSH2 0x888 JUMP JUMPDEST DUP1 PUSH1 0x2 ADD SLOAD DUP5 LT PUSH2 0x46C JUMPI PUSH1 0x40 MLOAD PUSH3 0x461BCD PUSH1 0xE5 SHL DUP2 MSTORE PUSH1 0x20 PUSH1 0x4 DUP3 ADD MSTORE PUSH1 0x17 PUSH1 0x24 DUP3 ADD MSTORE PUSH32 0x496E7374616E636520646F6573206E6F74206578697374000000000000000000 PUSH1 0x44 DUP3 ADD MSTORE PUSH1 0x64 ADD PUSH2 0xF5 JUMP JUMPDEST DUP1 PUSH1 0x1 ADD SLOAD DUP4 LT PUSH2 0x4B9 JUMPI PUSH1 0x40 MLOAD PUSH3 0x461BCD PUSH1 0xE5 SHL DUP2 MSTORE PUSH1 0x20 PUSH1 0x4 DUP3 ADD MSTORE PUSH1 0x17 PUSH1 0x24 DUP3 ADD MSTORE PUSH23 0x1058DD1A5D9A5D1E48191BD95CC81B9BDD08195E1A5CDD PUSH1 0x4A SHL PUSH1 0x44 DUP3 ADD MSTORE PUSH1 0x64 ADD PUSH2 0xF5 JUMP JUMPDEST PUSH1 0x40 MLOAD DUP3 SWAP1 PUSH2 0x4C9 SWAP1 DUP8 SWAP1 PUSH2 0x86C JUMP JUMPDEST SWAP1 DUP2 MSTORE PUSH1 0x40 DUP1 MLOAD SWAP2 DUP3 SWAP1 SUB PUSH1 0x20 SWAP1 DUP2 ADD DUP4 KECCAK256 PUSH1 0x0 DUP9 DUP2 MSTORE PUSH1 0x3 SWAP2 DUP3 ADD DUP4 MSTORE DUP4 DUP2 KECCAK256 PUSH1 0x4 SWAP1 DUP2 ADD DUP1 SLOAD PUSH1 0x1 DUP2 ADD DUP3 SSTORE SWAP1 DUP4 MSTORE DUP5 DUP4 KECCAK256 ADD DUP10 SWAP1 SSTORE DUP9 DUP3 MSTORE DUP7 ADD SWAP1 SWAP3 MSTORE SWAP2 SWAP1 KECCAK256 CALLER SWAP3 PUSH32 0xFF7661C456473BFCA0F796FE76B5CB9D4C8A1BDA3062D07856BDC2EFC0BA573 SWAP3 PUSH2 0x53B SWAP3 ADD SWAP1 PUSH2 0xA71 JUMP JUMPDEST PUSH1 0x40 MLOAD DUP1 SWAP2 SUB SWAP1 LOG2 POP POP POP POP POP JUMP JUMPDEST PUSH1 0x40 MLOAD PUSH1 0x0 DUP1 MLOAD PUSH1 0x20 PUSH2 0xBDB DUP4 CODECOPY DUP2 MLOAD SWAP2 MSTORE SWAP1 PUSH1 0x0 SWAP1 DUP3 SWAP1 PUSH2 0x56D SWAP1 DUP8 SWAP1 PUSH2 0x86C JUMP JUMPDEST SWAP1 DUP2 MSTORE PUSH1 0x40 MLOAD SWAP1 DUP2 SWAP1 SUB PUSH1 0x20 ADD SWAP1 KECCAK256 DUP1 SLOAD SWAP1 SWAP2 POP PUSH1 0xFF AND PUSH2 0x5A0 JUMPI PUSH1 0x40 MLOAD PUSH3 0x461BCD PUSH1 0xE5 SHL DUP2 MSTORE PUSH1 0x4 ADD PUSH2 0xF5 SWAP1 PUSH2 0x888 JUMP JUMPDEST DUP1 PUSH1 0x1 ADD SLOAD DUP5 LT PUSH2 0x5ED JUMPI PUSH1 0x40 MLOAD PUSH3 0x461BCD PUSH1 0xE5 SHL DUP2 MSTORE PUSH1 0x20 PUSH1 0x4 DUP3 ADD MSTORE PUSH1 0x17 PUSH1 0x24 DUP3 ADD MSTORE PUSH23 0x1058DD1A5D9A5D1E48191BD95CC81B9BDD08195E1A5CDD PUSH1 0x4A SHL PUSH1 0x44 DUP3 ADD MSTORE PUSH1 0x64 ADD PUSH2 0xF5 JUMP JUMPDEST DUP3 DUP3 PUSH1 0x0 ADD DUP7 PUSH1 0x40 MLOAD PUSH2 0x600 SWAP2 SWAP1 PUSH2 0x86C JUMP JUMPDEST SWAP1 DUP2 MSTORE PUSH1 0x20 ADD PUSH1 0x40 MLOAD DUP1 SWAP2 SUB SWAP1 KECCAK256 PUSH1 0xA ADD PUSH1 0x0 DUP7 DUP2 MSTORE PUSH1 0x20 ADD SWAP1 DUP2 MSTORE PUSH1 0x20 ADD PUSH1 0x0 KECCAK256 SWAP1 DUP2 PUSH2 0x21A SWAP2 SWAP1 PUSH2 0xB1A JUMP JUMPDEST PUSH4 0x4E487B71 PUSH1 0xE0 SHL PUSH1 0x0 MSTORE PUSH1 0x41 PUSH1 0x4 MSTORE PUSH1 0x24 PUSH1 0x0 REVERT JUMPDEST PUSH1 0x0 DUP3 PUSH1 0x1F DUP4 ADD SLT PUSH2 0x655 JUMPI PUSH1 0x0 DUP1 REVERT JUMPDEST DUP2 CALLDATALOAD PUSH8 0xFFFFFFFFFFFFFFFF DUP1 DUP3 GT ISZERO PUSH2 0x670 JUMPI PUSH2 0x670 PUSH2 0x62E JUMP JUMPDEST PUSH1 0x40 MLOAD PUSH1 0x1F DUP4 ADD PUSH1 0x1F NOT SWAP1 DUP2 AND PUSH1 0x3F ADD AND DUP2 ADD SWAP1 DUP3 DUP3 GT DUP2 DUP4 LT OR ISZERO PUSH2 0x698 JUMPI PUSH2 0x698 PUSH2 0x62E JUMP JUMPDEST DUP2 PUSH1 0x40 MSTORE DUP4 DUP2 MSTORE DUP7 PUSH1 0x20 DUP6 DUP9 ADD ADD GT ISZERO PUSH2 0x6B1 JUMPI PUSH1 0x0 DUP1 REVERT JUMPDEST DUP4 PUSH1 0x20 DUP8 ADD PUSH1 0x20 DUP4 ADD CALLDATACOPY PUSH1 0x0 PUSH1 0x20 DUP6 DUP4 ADD ADD MSTORE DUP1 SWAP5 POP POP POP POP POP SWAP3 SWAP2 POP POP JUMP JUMPDEST PUSH1 0x0 DUP1 PUSH1 0x40 DUP4 DUP6 SUB SLT ISZERO PUSH2 0x6E4 JUMPI PUSH1 0x0 DUP1 REVERT JUMPDEST DUP3 CALLDATALOAD PUSH8 0xFFFFFFFFFFFFFFFF DUP2 GT ISZERO PUSH2 0x6FB JUMPI PUSH1 0x0 DUP1 REVERT JUMPDEST PUSH2 0x707 DUP6 DUP3 DUP7 ADD PUSH2 0x644 JUMP JUMPDEST SWAP6 PUSH1 0x20 SWAP5 SWAP1 SWAP5 ADD CALLDATALOAD SWAP5 POP POP POP POP JUMP JUMPDEST PUSH1 0x0 DUP1 PUSH1 0x0 DUP1 PUSH1 0x80 DUP6 DUP8 SUB SLT ISZERO PUSH2 0x72C JUMPI PUSH1 0x0 DUP1 REVERT JUMPDEST DUP5 CALLDATALOAD PUSH8 0xFFFFFFFFFFFFFFFF DUP1 DUP3 GT ISZERO PUSH2 0x744 JUMPI PUSH1 0x0 DUP1 REVERT JUMPDEST PUSH2 0x750 DUP9 DUP4 DUP10 ADD PUSH2 0x644 JUMP JUMPDEST SWAP6 POP PUSH1 0x20 DUP8 ADD CALLDATALOAD SWAP5 POP PUSH1 0x40 DUP8 ADD CALLDATALOAD SWAP4 POP PUSH1 0x60 DUP8 ADD CALLDATALOAD SWAP2 POP DUP1 DUP3 GT ISZERO PUSH2 0x774 JUMPI PUSH1 0x0 DUP1 REVERT JUMPDEST POP PUSH2 0x781 DUP8 DUP3 DUP9 ADD PUSH2 0x644 JUMP JUMPDEST SWAP2 POP POP SWAP3 SWAP6 SWAP2 SWAP5 POP SWAP3 POP JUMP JUMPDEST PUSH1 0x0 DUP1 PUSH1 0x0 PUSH1 0x60 DUP5 DUP7 SUB SLT ISZERO PUSH2 0x7A2 JUMPI PUSH1 0x0 DUP1 REVERT JUMPDEST DUP4 CALLDATALOAD PUSH8 0xFFFFFFFFFFFFFFFF DUP2 GT ISZERO PUSH2 0x7B9 JUMPI PUSH1 0x0 DUP1 REVERT JUMPDEST PUSH2 0x7C5 DUP7 DUP3 DUP8 ADD PUSH2 0x644 JUMP JUMPDEST SWAP7 PUSH1 0x20 DUP7 ADD CALLDATALOAD SWAP7 POP PUSH1 0x40 SWAP1 SWAP6 ADD CALLDATALOAD SWAP5 SWAP4 POP POP POP POP JUMP JUMPDEST PUSH1 0x0 DUP1 PUSH1 0x0 PUSH1 0x60 DUP5 DUP7 SUB SLT ISZERO PUSH2 0x7F0 JUMPI PUSH1 0x0 DUP1 REVERT JUMPDEST DUP4 CALLDATALOAD PUSH8 0xFFFFFFFFFFFFFFFF DUP1 DUP3 GT ISZERO PUSH2 0x808 JUMPI PUSH1 0x0 DUP1 REVERT JUMPDEST PUSH2 0x814 DUP8 DUP4 DUP9 ADD PUSH2 0x644 JUMP JUMPDEST SWAP5 POP PUSH1 0x20 DUP7 ADD CALLDATALOAD SWAP4 POP PUSH1 0x40 DUP7 ADD CALLDATALOAD SWAP2 POP DUP1 DUP3 GT ISZERO PUSH2 0x831 JUMPI PUSH1 0x0 DUP1 REVERT JUMPDEST POP PUSH2 0x83E DUP7 DUP3 DUP8 ADD PUSH2 0x644 JUMP JUMPDEST SWAP2 POP POP SWAP3 POP SWAP3 POP SWAP3 JUMP JUMPDEST PUSH1 0x0 JUMPDEST DUP4 DUP2 LT ISZERO PUSH2 0x863 JUMPI DUP2 DUP2 ADD MLOAD DUP4 DUP3 ADD MSTORE PUSH1 0x20 ADD PUSH2 0x84B JUMP JUMPDEST POP POP PUSH1 0x0 SWAP2 ADD MSTORE JUMP JUMPDEST PUSH1 0x0 DUP3 MLOAD PUSH2 0x87E DUP2 DUP5 PUSH1 0x20 DUP8 ADD PUSH2 0x848 JUMP JUMPDEST SWAP2 SWAP1 SWAP2 ADD SWAP3 SWAP2 POP POP JUMP JUMPDEST PUSH1 0x20 DUP1 DUP3 MSTORE PUSH1 0x14 SWAP1 DUP3 ADD MSTORE PUSH20 0x135BD9195B08191BD95CC81B9BDD08195E1A5CDD PUSH1 0x62 SHL PUSH1 0x40 DUP3 ADD MSTORE PUSH1 0x60 ADD SWAP1 JUMP JUMPDEST PUSH4 0x4E487B71 PUSH1 0xE0 SHL PUSH1 0x0 MSTORE PUSH1 0x21 PUSH1 0x4 MSTORE PUSH1 0x24 PUSH1 0x0 REVERT JUMPDEST PUSH1 0x1 DUP2 DUP2 SHR SWAP1 DUP3 AND DUP1 PUSH2 0x8E0 JUMPI PUSH1 0x7F DUP3 AND SWAP2 POP JUMPDEST PUSH1 0x20 DUP3 LT DUP2 SUB PUSH2 0x900 JUMPI PUSH4 0x4E487B71 PUSH1 0xE0 SHL PUSH1 0x0 MSTORE PUSH1 0x22 PUSH1 0x4 MSTORE PUSH1 0x24 PUSH1 0x0 REVERT JUMPDEST POP SWAP2 SWAP1 POP JUMP JUMPDEST PUSH1 0x0 DUP2 SLOAD PUSH2 0x913 DUP2 PUSH2 0x8CC JUMP JUMPDEST DUP1 DUP6 MSTORE PUSH1 0x20 PUSH1 0x1 DUP4 DUP2 AND DUP1 ISZERO PUSH2 0x930 JUMPI PUSH1 0x1 DUP2 EQ PUSH2 0x94A JUMPI PUSH2 0x978 JUMP JUMPDEST PUSH1 0xFF NOT DUP6 AND DUP9 DUP5 ADD MSTORE DUP4 ISZERO ISZERO PUSH1 0x5 SHL DUP9 ADD DUP4 ADD SWAP6 POP PUSH2 0x978 JUMP JUMPDEST DUP7 PUSH1 0x0 MSTORE DUP3 PUSH1 0x0 KECCAK256 PUSH1 0x0 JUMPDEST DUP6 DUP2 LT ISZERO PUSH2 0x970 JUMPI DUP2 SLOAD DUP11 DUP3 ADD DUP7 ADD MSTORE SWAP1 DUP4 ADD SWAP1 DUP5 ADD PUSH2 0x955 JUMP JUMPDEST DUP10 ADD DUP5 ADD SWAP7 POP POP JUMPDEST POP POP POP POP POP SWAP3 SWAP2 POP POP JUMP JUMPDEST PUSH1 0x9 DUP2 MSTORE PUSH9 0x74696D657374616D7 PUSH1 0xBC SHL PUSH1 0x20 DUP3 ADD MSTORE PUSH1 0x40 ADD SWAP1 JUMP JUMPDEST PUSH1 0x60 DUP2 MSTORE PUSH1 0x0 PUSH2 0x9B2 PUSH1 0x60 DUP4 ADD DUP5 PUSH2 0x906 JUMP JUMPDEST DUP3 DUP2 SUB DUP1 PUSH1 0x20 DUP6 ADD MSTORE PUSH1 0xD DUP3 MSTORE PUSH13 0x15185CDAC8195E1958DD5D1959 PUSH1 0x9A SHL PUSH1 0x20 DUP4 ADD MSTORE PUSH1 0x40 DUP2 ADD PUSH1 0x40 DUP6 ADD MSTORE POP PUSH2 0x9EB PUSH1 0x40 DUP3 ADD PUSH2 0x983 JUMP JUMPDEST SWAP5 SWAP4 POP POP POP POP JUMP JUMPDEST PUSH1 0x60 DUP2 MSTORE PUSH1 0x0 PUSH2 0xA06 PUSH1 0x60 DUP4 ADD DUP6 PUSH2 0x906 JUMP JUMPDEST DUP3 DUP2 SUB PUSH1 0x20 DUP5 ADD MSTORE DUP4 MLOAD DUP1 DUP3 MSTORE PUSH2 0xA24 DUP2 PUSH1 0x20 DUP5 ADD PUSH1 0x20 DUP9 ADD PUSH2 0x848 JUMP JUMPDEST PUSH1 0x1F ADD PUSH1 0x1F NOT AND ADD DUP3 DUP2 SUB PUSH1 0x20 SWAP1 DUP2 ADD PUSH1 0x40 DUP6 ADD MSTORE PUSH2 0xA44 SWAP1 DUP3 ADD PUSH2 0x983 JUMP JUMPDEST SWAP6 SWAP5 POP POP POP POP POP JUMP JUMPDEST PUSH1 0x40 DUP2 MSTORE PUSH1 0x0 PUSH2 0xA60 PUSH1 0x40 DUP4 ADD DUP5 PUSH2 0x906 JUMP JUMPDEST DUP3 DUP2 SUB PUSH1 0x20 DUP5 ADD MSTORE PUSH2 0x9EB DUP2 PUSH2 0x983 JUMP JUMPDEST PUSH1 0x60 DUP2 MSTORE PUSH1 0x0 PUSH2 0xA84 PUSH1 0x60 DUP4 ADD DUP5 PUSH2 0x906 JUMP JUMPDEST DUP3 DUP2 SUB DUP1 PUSH1 0x20 DUP6 ADD MSTORE PUSH1 0x19 DUP3 MSTORE PUSH32 0x4D61726B696E6720616464656420746F20696E7374616E636500000000000000 PUSH1 0x20 DUP4 ADD MSTORE PUSH1 0x40 DUP2 ADD PUSH1 0x40 DUP6 ADD MSTORE POP PUSH2 0x9EB PUSH1 0x40 DUP3 ADD PUSH2 0x983 JUMP JUMPDEST PUSH1 0x1F DUP3 GT ISZERO PUSH2 0xB15 JUMPI PUSH1 0x0 DUP2 PUSH1 0x0 MSTORE PUSH1 0x20 PUSH1 0x0 KECCAK256 PUSH1 0x1F DUP6 ADD PUSH1 0x5 SHR DUP2 ADD PUSH1 0x20 DUP7 LT ISZERO PUSH2 0xAF6 JUMPI POP DUP1 JUMPDEST PUSH1 0x1F DUP6 ADD PUSH1 0x5 SHR DUP3 ADD SWAP2 POP JUMPDEST DUP2 DUP2 LT ISZERO PUSH2 0x21A JUMPI DUP3 DUP2 SSTORE PUSH1 0x1 ADD PUSH2 0xB02 JUMP JUMPDEST POP POP POP JUMP JUMPDEST DUP2 MLOAD PUSH8 0xFFFFFFFFFFFFFFFF DUP2 GT ISZERO PUSH2 0xB34 JUMPI PUSH2 0xB34 PUSH2 0x62E JUMP JUMPDEST PUSH2 0xB48 DUP2 PUSH2 0xB42 DUP5 SLOAD PUSH2 0x8CC JUMP JUMPDEST DUP5 PUSH2 0xACD JUMP JUMPDEST PUSH1 0x20 DUP1 PUSH1 0x1F DUP4 GT PUSH1 0x1 DUP2 EQ PUSH2 0xB7D JUMPI PUSH1 0x0 DUP5 ISZERO PUSH2 0xB65 JUMPI POP DUP6 DUP4 ADD MLOAD JUMPDEST PUSH1 0x0 NOT PUSH1 0x3 DUP7 SWAP1 SHL SHR NOT AND PUSH1 0x1 DUP6 SWAP1 SHL OR DUP6 SSTORE PUSH2 0x21A JUMP JUMPDEST PUSH1 0x0 DUP6 DUP2 MSTORE PUSH1 0x20 DUP2 KECCAK256 PUSH1 0x1F NOT DUP7 AND SWAP2 JUMPDEST DUP3 DUP2 LT ISZERO PUSH2 0xBAC JUMPI DUP9 DUP7 ADD MLOAD DUP3 SSTORE SWAP5 DUP5 ADD SWAP5 PUSH1 0x1 SWAP1 SWAP2 ADD SWAP1 DUP5 ADD PUSH2 0xB8D JUMP JUMPDEST POP DUP6 DUP3 LT ISZERO PUSH2 0xBCA JUMPI DUP8 DUP6 ADD MLOAD PUSH1 0x0 NOT PUSH1 0x3 DUP9 SWAP1 SHL PUSH1 0xF8 AND SHR NOT AND DUP2 SSTORE JUMPDEST POP POP POP POP POP PUSH1 0x1 SWAP1 DUP2 SHL ADD SWAP1 SSTORE POP JUMP INVALID CALLVALUE 0xB9 SUB 0xB1 0xC9 CREATE2 AND 0xE2 SWAP12 0xCC PUSH17 0xE55A6BC2AC2C43EC324E4A6CFB468F0C02 PUSH21 0x87621CA264697066735822122034F03713086454AB 0x22 POP PUSH26 0x5AAFCFC9EC44C9DAE79B66B0C769ED9C77A1216B2964736F6C63 NUMBER STOP ADDMOD XOR STOP CALLER "},"methodIdentifiers":{"addInstanceMarking(string,uint256,uint256)":"b744b4d4","executeAllTasks(string,uint256)":"813b3de3","executeTask(string,uint256,uint256,string)":"a594546c","updateActivityMetadata(string,uint256,string)":"edfe5734"}}}}}