{"contracts/facets/Process/ModelFactoryFacetV3.sol":{"ModelFactoryFacetV3":{"abi":[{"anonymous":false,"inputs":[{"indexed":false,"internalType":"string","name":"pName","type":"string"}],"name":"newModelFactory","type":"event"},{"inputs":[{"internalType":"string","name":"_name","type":"string"},{"components":[{"internalType":"uint256","name":"id","type":"uint256"},{"internalType":"enum LibAppV2.NodeType","name":"nodeType","type":"uint8"},{"internalType":"string","name":"xmlID","type":"string"},{"internalType":"string","name":"name","type":"string"},{"internalType":"string","name":"lane","type":"string"},{"internalType":"string","name":"dataIn","type":"string"},{"internalType":"string","name":"dataOut","type":"string"},{"internalType":"string","name":"timestamp","type":"string"},{"internalType":"uint256[]","name":"markings","type":"uint256[]"}],"internalType":"struct LibAppV2.Activity[]","name":"_activities","type":"tuple[]"},{"internalType":"string[][]","name":"_tabChildrenOptim","type":"string[][]"},{"internalType":"string[][]","name":"_tabParentsOptim","type":"string[][]"},{"internalType":"string[][]","name":"_msgInOptim","type":"string[][]"},{"internalType":"string[][]","name":"_msgOutOptim","type":"string[][]"},{"internalType":"string[]","name":"_keyReplay","type":"string[]"},{"internalType":"string[][]","name":"_valueReplay","type":"string[][]"}],"name":"addModel","outputs":[],"stateMutability":"nonpayable","type":"function"},{"inputs":[{"internalType":"string","name":"_name","type":"string"}],"name":"newInstance","outputs":[{"internalType":"uint256","name":"","type":"uint256"}],"stateMutability":"nonpayable","type":"function"}],"evm":{"bytecode":{"linkReferences":{},"object":"608060405234801561001057600080fd5b5061116e806100206000396000f3fe608060405234801561001057600080fd5b50600436106100365760003560e01c80638e361b561461003b578063cc31dd4f14610050575b600080fd5b61004e610049366004610d78565b610075565b005b61006361005e366004610eb8565b61058e565b60405190815260200160405180910390f35b6040517f34b903b1c9f516e29bcc70e55a6bc2ac2c43ec324e4a6cfb468f0c027487621c9081906100a7908b90610f19565b9081526040519081900360200190205460ff161561010c5760405162461bcd60e51b815260206004820152601860248201527f4d6f64656c206e616d6520616c72656164792074616b656e000000000000000060448201526064015b60405180910390fd5b6001816000018a6040516101209190610f19565b908152604051908190036020018120805492151560ff19909316929092179091558851908290610151908c90610f19565b9081526040519081900360200190206001015560005b88518110156104175788818151811061018257610182610f35565b6020026020010151826000018b60405161019c9190610f19565b908152604080516020928190038301902060008581526004909101835220825181559082015160018083018054909160ff19909116908360078111156101e4576101e4610f4b565b0217905550604082015160028201906101fd9082610fec565b50606082015160038201906102129082610fec565b50608082015160048201906102279082610fec565b5060a0820151600582019061023c9082610fec565b5060c082015160068201906102519082610fec565b5060e082015160078201906102669082610fec565b50610100820151805161028391600884019160209091019061081b565b5090505087818151811061029957610299610f35565b6020026020010151826000018b6040516102b39190610f19565b9081526020016040518091039020600501600083815260200190815260200160002090805190602001906102e8929190610866565b508681815181106102fb576102fb610f35565b6020026020010151826000018b6040516103159190610f19565b90815260200160405180910390206006016000838152602001908152602001600020908051906020019061034a929190610866565b5085818151811061035d5761035d610f35565b6020026020010151826000018b6040516103779190610f19565b9081526020016040518091039020600701600083815260200190815260200160002090805190602001906103ac929190610866565b508481815181106103bf576103bf610f35565b6020026020010151826000018b6040516103d99190610f19565b90815260200160405180910390206008016000838152602001908152602001600020908051906020019061040e929190610866565b50600101610167565b5060005b83518110156104b25782818151811061043657610436610f35565b6020026020010151826000018b6040516104509190610f19565b908152602001604051809103902060090185838151811061047357610473610f35565b60200260200101516040516104889190610f19565b908152602001604051809103902090805190602001906104a9929190610866565b5060010161041b565b5060005b885181101561054b5760008982815181106104d3576104d3610f35565b6020026020010151606001516040516020016104ef91906110ac565b604051602081830303815290604052905080836000018c6040516105139190610f19565b9081526020016040518091039020600a01600084815260200190815260200160002090816105419190610fec565b50506001016104b6565b507f199aab2f4d8489f44c22def22ddc192f95a7736dda51493af0a19361b0964d448960405161057b91906110de565b60405180910390a1505050505050505050565b6040516000907f34b903b1c9f516e29bcc70e55a6bc2ac2c43ec324e4a6cfb468f0c027487621c9081906105c3908590610f19565b9081526040519081900360200190205460ff166106195760405162461bcd60e51b8152602060048201526014602482015273135bd9195b08191bd95cc81b9bdd08195e1a5cdd60621b6044820152606401610103565b6000816000018460405161062d9190610f19565b908152602001604051809103902060020154905060005b6040518390610654908790610f19565b9081526020016040518091039020600101548110156107dd57604051839061067d908790610f19565b9081526040805191829003602090810183206000868152600390910182529182206002018054600181018255908352908220015583906106be908790610f19565b908152604080519182900360209081018320600086815260039182018352928320018054600181018255908352908220015583906106fd908790610f19565b908152604080519182900360209081018320600086815260039091018252918220600401805460018101825590835290822001819055908490610741908890610f19565b90815260408051602092819003830190206000858152600490910190925290206001015460ff16600781111561077957610779610f4b565b036107d557600183600001866040516107929190610f19565b9081526020016040518091039020600301600084815260200190815260200160002060020182815481106107c8576107c8610f35565b6000918252602090912001555b600101610644565b5060405182906107ee908690610f19565b908152604051908190036020019020600201805490600061080e83611111565b9091555090949350505050565b828054828255906000526020600020908101928215610856579160200282015b8281111561085657825182559160200191906001019061083b565b506108629291506108b8565b5090565b8280548282559060005260206000209081019282156108ac579160200282015b828111156108ac578251829061089c9082610fec565b5091602001919060010190610886565b506108629291506108cd565b5b8082111561086257600081556001016108b9565b808211156108625760006108e182826108ea565b506001016108cd565b5080546108f690610f61565b6000825580601f10610906575050565b601f01602090049060005260206000209081019061092491906108b8565b50565b634e487b7160e01b600052604160045260246000fd5b604051610120810167ffffffffffffffff8111828210171561096157610961610927565b60405290565b604051601f8201601f1916810167ffffffffffffffff8111828210171561099057610990610927565b604052919050565b600082601f8301126109a957600080fd5b813567ffffffffffffffff8111156109c3576109c3610927565b6109d6601f8201601f1916602001610967565b8181528460208386010111156109eb57600080fd5b816020850160208301376000918101602001919091529392505050565b600067ffffffffffffffff821115610a2257610a22610927565b5060051b60200190565b803560088110610a3b57600080fd5b919050565b600082601f830112610a5157600080fd5b81356020610a66610a6183610a08565b610967565b8083825260208201915060208460051b870101935086841115610a8857600080fd5b602086015b84811015610aa45780358352918301918301610a8d565b509695505050505050565b600082601f830112610ac057600080fd5b81356020610ad0610a6183610a08565b82815260059290921b84018101918181019086841115610aef57600080fd5b8286015b84811015610aa457803567ffffffffffffffff80821115610b145760008081fd5b90880190610120828b03601f1901811315610b2f5760008081fd5b610b3761093d565b8784013581526040610b4a818601610a2c565b8983015260608086013585811115610b625760008081fd5b610b708f8c838a0101610998565b8385015250608091508186013585811115610b8b5760008081fd5b610b998f8c838a0101610998565b82850152505060a08086013585811115610bb35760008081fd5b610bc18f8c838a0101610998565b838501525060c091508186013585811115610bdc5760008081fd5b610bea8f8c838a0101610998565b82850152505060e08086013585811115610c045760008081fd5b610c128f8c838a0101610998565b838501525061010091508186013585811115610c2e5760008081fd5b610c3c8f8c838a0101610998565b82850152505082850135925083831115610c565760008081fd5b610c648d8a85880101610a40565b908201528652505050918301918301610af3565b600082601f830112610c8957600080fd5b81356020610c99610a6183610a08565b82815260059290921b84018101918181019086841115610cb857600080fd5b8286015b84811015610aa457803567ffffffffffffffff811115610cdc5760008081fd5b610cea8986838b0101610998565b845250918301918301610cbc565b600082601f830112610d0957600080fd5b81356020610d19610a6183610a08565b82815260059290921b84018101918181019086841115610d3857600080fd5b8286015b84811015610aa457803567ffffffffffffffff811115610d5c5760008081fd5b610d6a8986838b0101610c78565b845250918301918301610d3c565b600080600080600080600080610100898b031215610d9557600080fd5b883567ffffffffffffffff80821115610dad57600080fd5b610db98c838d01610998565b995060208b0135915080821115610dcf57600080fd5b610ddb8c838d01610aaf565b985060408b0135915080821115610df157600080fd5b610dfd8c838d01610cf8565b975060608b0135915080821115610e1357600080fd5b610e1f8c838d01610cf8565b965060808b0135915080821115610e3557600080fd5b610e418c838d01610cf8565b955060a08b0135915080821115610e5757600080fd5b610e638c838d01610cf8565b945060c08b0135915080821115610e7957600080fd5b610e858c838d01610c78565b935060e08b0135915080821115610e9b57600080fd5b50610ea88b828c01610cf8565b9150509295985092959890939650565b600060208284031215610eca57600080fd5b813567ffffffffffffffff811115610ee157600080fd5b610eed84828501610998565b949350505050565b60005b83811015610f10578181015183820152602001610ef8565b50506000910152565b60008251610f2b818460208701610ef5565b9190910192915050565b634e487b7160e01b600052603260045260246000fd5b634e487b7160e01b600052602160045260246000fd5b600181811c90821680610f7557607f821691505b602082108103610f9557634e487b7160e01b600052602260045260246000fd5b50919050565b601f821115610fe7576000816000526020600020601f850160051c81016020861015610fc45750805b601f850160051c820191505b81811015610fe357828155600101610fd0565b5050505b505050565b815167ffffffffffffffff81111561100657611006610927565b61101a816110148454610f61565b84610f9b565b602080601f83116001811461104f57600084156110375750858301515b600019600386901b1c1916600185901b178555610fe3565b600085815260208120601f198616915b8281101561107e5788860151825594840194600190910190840161105f565b508582101561109c5787850151600019600388901b60f8161c191681555b5050505050600190811b01905550565b69020b1ba34bb34ba3c9d160b51b8152600082516110d181600a850160208701610ef5565b91909101600a0192915050565b60208152600082518060208401526110fd816040850160208701610ef5565b601f01601f19169190910160400192915050565b60006001820161113157634e487b7160e01b600052601160045260246000fd5b506001019056fea2646970667358221220e34a145b35784915f2f9a52d4546e3caa097e388cb9176b716a998bcab8dc16264736f6c63430008180033","opcodes":"PUSH1 0x80 PUSH1 0x40 MSTORE CALLVALUE DUP1 ISZERO PUSH2 0x10 JUMPI PUSH1 0x0 DUP1 REVERT JUMPDEST POP PUSH2 0x116E DUP1 PUSH2 0x20 PUSH1 0x0 CODECOPY PUSH1 0x0 RETURN INVALID PUSH1 0x80 PUSH1 0x40 MSTORE CALLVALUE DUP1 ISZERO PUSH2 0x10 JUMPI PUSH1 0x0 DUP1 REVERT JUMPDEST POP PUSH1 0x4 CALLDATASIZE LT PUSH2 0x36 JUMPI PUSH1 0x0 CALLDATALOAD PUSH1 0xE0 SHR DUP1 PUSH4 0x8E361B56 EQ PUSH2 0x3B JUMPI DUP1 PUSH4 0xCC31DD4F EQ PUSH2 0x50 JUMPI JUMPDEST PUSH1 0x0 DUP1 REVERT JUMPDEST PUSH2 0x4E PUSH2 0x49 CALLDATASIZE PUSH1 0x4 PUSH2 0xD78 JUMP JUMPDEST PUSH2 0x75 JUMP JUMPDEST STOP JUMPDEST PUSH2 0x63 PUSH2 0x5E CALLDATASIZE PUSH1 0x4 PUSH2 0xEB8 JUMP JUMPDEST PUSH2 0x58E JUMP JUMPDEST PUSH1 0x40 MLOAD SWAP1 DUP2 MSTORE PUSH1 0x20 ADD PUSH1 0x40 MLOAD DUP1 SWAP2 SUB SWAP1 RETURN JUMPDEST PUSH1 0x40 MLOAD PUSH32 0x34B903B1C9F516E29BCC70E55A6BC2AC2C43EC324E4A6CFB468F0C027487621C SWAP1 DUP2 SWAP1 PUSH2 0xA7 SWAP1 DUP12 SWAP1 PUSH2 0xF19 JUMP JUMPDEST SWAP1 DUP2 MSTORE PUSH1 0x40 MLOAD SWAP1 DUP2 SWAP1 SUB PUSH1 0x20 ADD SWAP1 KECCAK256 SLOAD PUSH1 0xFF AND ISZERO PUSH2 0x10C JUMPI PUSH1 0x40 MLOAD PUSH3 0x461BCD PUSH1 0xE5 SHL DUP2 MSTORE PUSH1 0x20 PUSH1 0x4 DUP3 ADD MSTORE PUSH1 0x18 PUSH1 0x24 DUP3 ADD MSTORE PUSH32 0x4D6F64656C206E616D6520616C72656164792074616B656E0000000000000000 PUSH1 0x44 DUP3 ADD MSTORE PUSH1 0x64 ADD JUMPDEST PUSH1 0x40 MLOAD DUP1 SWAP2 SUB SWAP1 REVERT JUMPDEST PUSH1 0x1 DUP2 PUSH1 0x0 ADD DUP11 PUSH1 0x40 MLOAD PUSH2 0x120 SWAP2 SWAP1 PUSH2 0xF19 JUMP JUMPDEST SWAP1 DUP2 MSTORE PUSH1 0x40 MLOAD SWAP1 DUP2 SWAP1 SUB PUSH1 0x20 ADD DUP2 KECCAK256 DUP1 SLOAD SWAP3 ISZERO ISZERO PUSH1 0xFF NOT SWAP1 SWAP4 AND SWAP3 SWAP1 SWAP3 OR SWAP1 SWAP2 SSTORE DUP9 MLOAD SWAP1 DUP3 SWAP1 PUSH2 0x151 SWAP1 DUP13 SWAP1 PUSH2 0xF19 JUMP JUMPDEST SWAP1 DUP2 MSTORE PUSH1 0x40 MLOAD SWAP1 DUP2 SWAP1 SUB PUSH1 0x20 ADD SWAP1 KECCAK256 PUSH1 0x1 ADD SSTORE PUSH1 0x0 JUMPDEST DUP9 MLOAD DUP2 LT ISZERO PUSH2 0x417 JUMPI DUP9 DUP2 DUP2 MLOAD DUP2 LT PUSH2 0x182 JUMPI PUSH2 0x182 PUSH2 0xF35 JUMP JUMPDEST PUSH1 0x20 MUL PUSH1 0x20 ADD ADD MLOAD DUP3 PUSH1 0x0 ADD DUP12 PUSH1 0x40 MLOAD PUSH2 0x19C SWAP2 SWAP1 PUSH2 0xF19 JUMP JUMPDEST SWAP1 DUP2 MSTORE PUSH1 0x40 DUP1 MLOAD PUSH1 0x20 SWAP3 DUP2 SWAP1 SUB DUP4 ADD SWAP1 KECCAK256 PUSH1 0x0 DUP6 DUP2 MSTORE PUSH1 0x4 SWAP1 SWAP2 ADD DUP4 MSTORE KECCAK256 DUP3 MLOAD DUP2 SSTORE SWAP1 DUP3 ADD MLOAD PUSH1 0x1 DUP1 DUP4 ADD DUP1 SLOAD SWAP1 SWAP2 PUSH1 0xFF NOT SWAP1 SWAP2 AND SWAP1 DUP4 PUSH1 0x7 DUP2 GT ISZERO PUSH2 0x1E4 JUMPI PUSH2 0x1E4 PUSH2 0xF4B JUMP JUMPDEST MUL OR SWAP1 SSTORE POP PUSH1 0x40 DUP3 ADD MLOAD PUSH1 0x2 DUP3 ADD SWAP1 PUSH2 0x1FD SWAP1 DUP3 PUSH2 0xFEC JUMP JUMPDEST POP PUSH1 0x60 DUP3 ADD MLOAD PUSH1 0x3 DUP3 ADD SWAP1 PUSH2 0x212 SWAP1 DUP3 PUSH2 0xFEC JUMP JUMPDEST POP PUSH1 0x80 DUP3 ADD MLOAD PUSH1 0x4 DUP3 ADD SWAP1 PUSH2 0x227 SWAP1 DUP3 PUSH2 0xFEC JUMP JUMPDEST POP PUSH1 0xA0 DUP3 ADD MLOAD PUSH1 0x5 DUP3 ADD SWAP1 PUSH2 0x23C SWAP1 DUP3 PUSH2 0xFEC JUMP JUMPDEST POP PUSH1 0xC0 DUP3 ADD MLOAD PUSH1 0x6 DUP3 ADD SWAP1 PUSH2 0x251 SWAP1 DUP3 PUSH2 0xFEC JUMP JUMPDEST POP PUSH1 0xE0 DUP3 ADD MLOAD PUSH1 0x7 DUP3 ADD SWAP1 PUSH2 0x266 SWAP1 DUP3 PUSH2 0xFEC JUMP JUMPDEST POP PUSH2 0x100 DUP3 ADD MLOAD DUP1 MLOAD PUSH2 0x283 SWAP2 PUSH1 0x8 DUP5 ADD SWAP2 PUSH1 0x20 SWAP1 SWAP2 ADD SWAP1 PUSH2 0x81B JUMP JUMPDEST POP SWAP1 POP POP DUP8 DUP2 DUP2 MLOAD DUP2 LT PUSH2 0x299 JUMPI PUSH2 0x299 PUSH2 0xF35 JUMP JUMPDEST PUSH1 0x20 MUL PUSH1 0x20 ADD ADD MLOAD DUP3 PUSH1 0x0 ADD DUP12 PUSH1 0x40 MLOAD PUSH2 0x2B3 SWAP2 SWAP1 PUSH2 0xF19 JUMP JUMPDEST SWAP1 DUP2 MSTORE PUSH1 0x20 ADD PUSH1 0x40 MLOAD DUP1 SWAP2 SUB SWAP1 KECCAK256 PUSH1 0x5 ADD PUSH1 0x0 DUP4 DUP2 MSTORE PUSH1 0x20 ADD SWAP1 DUP2 MSTORE PUSH1 0x20 ADD PUSH1 0x0 KECCAK256 SWAP1 DUP1 MLOAD SWAP1 PUSH1 0x20 ADD SWAP1 PUSH2 0x2E8 SWAP3 SWAP2 SWAP1 PUSH2 0x866 JUMP JUMPDEST POP DUP7 DUP2 DUP2 MLOAD DUP2 LT PUSH2 0x2FB JUMPI PUSH2 0x2FB PUSH2 0xF35 JUMP JUMPDEST PUSH1 0x20 MUL PUSH1 0x20 ADD ADD MLOAD DUP3 PUSH1 0x0 ADD DUP12 PUSH1 0x40 MLOAD PUSH2 0x315 SWAP2 SWAP1 PUSH2 0xF19 JUMP JUMPDEST SWAP1 DUP2 MSTORE PUSH1 0x20 ADD PUSH1 0x40 MLOAD DUP1 SWAP2 SUB SWAP1 KECCAK256 PUSH1 0x6 ADD PUSH1 0x0 DUP4 DUP2 MSTORE PUSH1 0x20 ADD SWAP1 DUP2 MSTORE PUSH1 0x20 ADD PUSH1 0x0 KECCAK256 SWAP1 DUP1 MLOAD SWAP1 PUSH1 0x20 ADD SWAP1 PUSH2 0x34A SWAP3 SWAP2 SWAP1 PUSH2 0x866 JUMP JUMPDEST POP DUP6 DUP2 DUP2 MLOAD DUP2 LT PUSH2 0x35D JUMPI PUSH2 0x35D PUSH2 0xF35 JUMP JUMPDEST PUSH1 0x20 MUL PUSH1 0x20 ADD ADD MLOAD DUP3 PUSH1 0x0 ADD DUP12 PUSH1 0x40 MLOAD PUSH2 0x377 SWAP2 SWAP1 PUSH2 0xF19 JUMP JUMPDEST SWAP1 DUP2 MSTORE PUSH1 0x20 ADD PUSH1 0x40 MLOAD DUP1 SWAP2 SUB SWAP1 KECCAK256 PUSH1 0x7 ADD PUSH1 0x0 DUP4 DUP2 MSTORE PUSH1 0x20 ADD SWAP1 DUP2 MSTORE PUSH1 0x20 ADD PUSH1 0x0 KECCAK256 SWAP1 DUP1 MLOAD SWAP1 PUSH1 0x20 ADD SWAP1 PUSH2 0x3AC SWAP3 SWAP2 SWAP1 PUSH2 0x866 JUMP JUMPDEST POP DUP5 DUP2 DUP2 MLOAD DUP2 LT PUSH2 0x3BF JUMPI PUSH2 0x3BF PUSH2 0xF35 JUMP JUMPDEST PUSH1 0x20 MUL PUSH1 0x20 ADD ADD MLOAD DUP3 PUSH1 0x0 ADD DUP12 PUSH1 0x40 MLOAD PUSH2 0x3D9 SWAP2 SWAP1 PUSH2 0xF19 JUMP JUMPDEST SWAP1 DUP2 MSTORE PUSH1 0x20 ADD PUSH1 0x40 MLOAD DUP1 SWAP2 SUB SWAP1 KECCAK256 PUSH1 0x8 ADD PUSH1 0x0 DUP4 DUP2 MSTORE PUSH1 0x20 ADD SWAP1 DUP2 MSTORE PUSH1 0x20 ADD PUSH1 0x0 KECCAK256 SWAP1 DUP1 MLOAD SWAP1 PUSH1 0x20 ADD SWAP1 PUSH2 0x40E SWAP3 SWAP2 SWAP1 PUSH2 0x866 JUMP JUMPDEST POP PUSH1 0x1 ADD PUSH2 0x167 JUMP JUMPDEST POP PUSH1 0x0 JUMPDEST DUP4 MLOAD DUP2 LT ISZERO PUSH2 0x4B2 JUMPI DUP3 DUP2 DUP2 MLOAD DUP2 LT PUSH2 0x436 JUMPI PUSH2 0x436 PUSH2 0xF35 JUMP JUMPDEST PUSH1 0x20 MUL PUSH1 0x20 ADD ADD MLOAD DUP3 PUSH1 0x0 ADD DUP12 PUSH1 0x40 MLOAD PUSH2 0x450 SWAP2 SWAP1 PUSH2 0xF19 JUMP JUMPDEST SWAP1 DUP2 MSTORE PUSH1 0x20 ADD PUSH1 0x40 MLOAD DUP1 SWAP2 SUB SWAP1 KECCAK256 PUSH1 0x9 ADD DUP6 DUP4 DUP2 MLOAD DUP2 LT PUSH2 0x473 JUMPI PUSH2 0x473 PUSH2 0xF35 JUMP JUMPDEST PUSH1 0x20 MUL PUSH1 0x20 ADD ADD MLOAD PUSH1 0x40 MLOAD PUSH2 0x488 SWAP2 SWAP1 PUSH2 0xF19 JUMP JUMPDEST SWAP1 DUP2 MSTORE PUSH1 0x20 ADD PUSH1 0x40 MLOAD DUP1 SWAP2 SUB SWAP1 KECCAK256 SWAP1 DUP1 MLOAD SWAP1 PUSH1 0x20 ADD SWAP1 PUSH2 0x4A9 SWAP3 SWAP2 SWAP1 PUSH2 0x866 JUMP JUMPDEST POP PUSH1 0x1 ADD PUSH2 0x41B JUMP JUMPDEST POP PUSH1 0x0 JUMPDEST DUP9 MLOAD DUP2 LT ISZERO PUSH2 0x54B JUMPI PUSH1 0x0 DUP10 DUP3 DUP2 MLOAD DUP2 LT PUSH2 0x4D3 JUMPI PUSH2 0x4D3 PUSH2 0xF35 JUMP JUMPDEST PUSH1 0x20 MUL PUSH1 0x20 ADD ADD MLOAD PUSH1 0x60 ADD MLOAD PUSH1 0x40 MLOAD PUSH1 0x20 ADD PUSH2 0x4EF SWAP2 SWAP1 PUSH2 0x10AC JUMP JUMPDEST PUSH1 0x40 MLOAD PUSH1 0x20 DUP2 DUP4 SUB SUB DUP2 MSTORE SWAP1 PUSH1 0x40 MSTORE SWAP1 POP DUP1 DUP4 PUSH1 0x0 ADD DUP13 PUSH1 0x40 MLOAD PUSH2 0x513 SWAP2 SWAP1 PUSH2 0xF19 JUMP JUMPDEST SWAP1 DUP2 MSTORE PUSH1 0x20 ADD PUSH1 0x40 MLOAD DUP1 SWAP2 SUB SWAP1 KECCAK256 PUSH1 0xA ADD PUSH1 0x0 DUP5 DUP2 MSTORE PUSH1 0x20 ADD SWAP1 DUP2 MSTORE PUSH1 0x20 ADD PUSH1 0x0 KECCAK256 SWAP1 DUP2 PUSH2 0x541 SWAP2 SWAP1 PUSH2 0xFEC JUMP JUMPDEST POP POP PUSH1 0x1 ADD PUSH2 0x4B6 JUMP JUMPDEST POP PUSH32 0x199AAB2F4D8489F44C22DEF22DDC192F95A7736DDA51493AF0A19361B0964D44 DUP10 PUSH1 0x40 MLOAD PUSH2 0x57B SWAP2 SWAP1 PUSH2 0x10DE JUMP JUMPDEST PUSH1 0x40 MLOAD DUP1 SWAP2 SUB SWAP1 LOG1 POP POP POP POP POP POP POP POP POP JUMP JUMPDEST PUSH1 0x40 MLOAD PUSH1 0x0 SWAP1 PUSH32 0x34B903B1C9F516E29BCC70E55A6BC2AC2C43EC324E4A6CFB468F0C027487621C SWAP1 DUP2 SWAP1 PUSH2 0x5C3 SWAP1 DUP6 SWAP1 PUSH2 0xF19 JUMP JUMPDEST SWAP1 DUP2 MSTORE PUSH1 0x40 MLOAD SWAP1 DUP2 SWAP1 SUB PUSH1 0x20 ADD SWAP1 KECCAK256 SLOAD PUSH1 0xFF AND PUSH2 0x619 JUMPI PUSH1 0x40 MLOAD PUSH3 0x461BCD PUSH1 0xE5 SHL DUP2 MSTORE PUSH1 0x20 PUSH1 0x4 DUP3 ADD MSTORE PUSH1 0x14 PUSH1 0x24 DUP3 ADD MSTORE PUSH20 0x135BD9195B08191BD95CC81B9BDD08195E1A5CDD PUSH1 0x62 SHL PUSH1 0x44 DUP3 ADD MSTORE PUSH1 0x64 ADD PUSH2 0x103 JUMP JUMPDEST PUSH1 0x0 DUP2 PUSH1 0x0 ADD DUP5 PUSH1 0x40 MLOAD PUSH2 0x62D SWAP2 SWAP1 PUSH2 0xF19 JUMP JUMPDEST SWAP1 DUP2 MSTORE PUSH1 0x20 ADD PUSH1 0x40 MLOAD DUP1 SWAP2 SUB SWAP1 KECCAK256 PUSH1 0x2 ADD SLOAD SWAP1 POP PUSH1 0x0 JUMPDEST PUSH1 0x40 MLOAD DUP4 SWAP1 PUSH2 0x654 SWAP1 DUP8 SWAP1 PUSH2 0xF19 JUMP JUMPDEST SWAP1 DUP2 MSTORE PUSH1 0x20 ADD PUSH1 0x40 MLOAD DUP1 SWAP2 SUB SWAP1 KECCAK256 PUSH1 0x1 ADD SLOAD DUP2 LT ISZERO PUSH2 0x7DD JUMPI PUSH1 0x40 MLOAD DUP4 SWAP1 PUSH2 0x67D SWAP1 DUP8 SWAP1 PUSH2 0xF19 JUMP JUMPDEST SWAP1 DUP2 MSTORE PUSH1 0x40 DUP1 MLOAD SWAP2 DUP3 SWAP1 SUB PUSH1 0x20 SWAP1 DUP2 ADD DUP4 KECCAK256 PUSH1 0x0 DUP7 DUP2 MSTORE PUSH1 0x3 SWAP1 SWAP2 ADD DUP3 MSTORE SWAP2 DUP3 KECCAK256 PUSH1 0x2 ADD DUP1 SLOAD PUSH1 0x1 DUP2 ADD DUP3 SSTORE SWAP1 DUP4 MSTORE SWAP1 DUP3 KECCAK256 ADD SSTORE DUP4 SWAP1 PUSH2 0x6BE SWAP1 DUP8 SWAP1 PUSH2 0xF19 JUMP JUMPDEST SWAP1 DUP2 MSTORE PUSH1 0x40 DUP1 MLOAD SWAP2 DUP3 SWAP1 SUB PUSH1 0x20 SWAP1 DUP2 ADD DUP4 KECCAK256 PUSH1 0x0 DUP7 DUP2 MSTORE PUSH1 0x3 SWAP2 DUP3 ADD DUP4 MSTORE SWAP3 DUP4 KECCAK256 ADD DUP1 SLOAD PUSH1 0x1 DUP2 ADD DUP3 SSTORE SWAP1 DUP4 MSTORE SWAP1 DUP3 KECCAK256 ADD SSTORE DUP4 SWAP1 PUSH2 0x6FD SWAP1 DUP8 SWAP1 PUSH2 0xF19 JUMP JUMPDEST SWAP1 DUP2 MSTORE PUSH1 0x40 DUP1 MLOAD SWAP2 DUP3 SWAP1 SUB PUSH1 0x20 SWAP1 DUP2 ADD DUP4 KECCAK256 PUSH1 0x0 DUP7 DUP2 MSTORE PUSH1 0x3 SWAP1 SWAP2 ADD DUP3 MSTORE SWAP2 DUP3 KECCAK256 PUSH1 0x4 ADD DUP1 SLOAD PUSH1 0x1 DUP2 ADD DUP3 SSTORE SWAP1 DUP4 MSTORE SWAP1 DUP3 KECCAK256 ADD DUP2 SWAP1 SSTORE SWAP1 DUP5 SWAP1 PUSH2 0x741 SWAP1 DUP9 SWAP1 PUSH2 0xF19 JUMP JUMPDEST SWAP1 DUP2 MSTORE PUSH1 0x40 DUP1 MLOAD PUSH1 0x20 SWAP3 DUP2 SWAP1 SUB DUP4 ADD SWAP1 KECCAK256 PUSH1 0x0 DUP6 DUP2 MSTORE PUSH1 0x4 SWAP1 SWAP2 ADD SWAP1 SWAP3 MSTORE SWAP1 KECCAK256 PUSH1 0x1 ADD SLOAD PUSH1 0xFF AND PUSH1 0x7 DUP2 GT ISZERO PUSH2 0x779 JUMPI PUSH2 0x779 PUSH2 0xF4B JUMP JUMPDEST SUB PUSH2 0x7D5 JUMPI PUSH1 0x1 DUP4 PUSH1 0x0 ADD DUP7 PUSH1 0x40 MLOAD PUSH2 0x792 SWAP2 SWAP1 PUSH2 0xF19 JUMP JUMPDEST SWAP1 DUP2 MSTORE PUSH1 0x20 ADD PUSH1 0x40 MLOAD DUP1 SWAP2 SUB SWAP1 KECCAK256 PUSH1 0x3 ADD PUSH1 0x0 DUP5 DUP2 MSTORE PUSH1 0x20 ADD SWAP1 DUP2 MSTORE PUSH1 0x20 ADD PUSH1 0x0 KECCAK256 PUSH1 0x2 ADD DUP3 DUP2 SLOAD DUP2 LT PUSH2 0x7C8 JUMPI PUSH2 0x7C8 PUSH2 0xF35 JUMP JUMPDEST PUSH1 0x0 SWAP2 DUP3 MSTORE PUSH1 0x20 SWAP1 SWAP2 KECCAK256 ADD SSTORE JUMPDEST PUSH1 0x1 ADD PUSH2 0x644 JUMP JUMPDEST POP PUSH1 0x40 MLOAD DUP3 SWAP1 PUSH2 0x7EE SWAP1 DUP7 SWAP1 PUSH2 0xF19 JUMP JUMPDEST SWAP1 DUP2 MSTORE PUSH1 0x40 MLOAD SWAP1 DUP2 SWAP1 SUB PUSH1 0x20 ADD SWAP1 KECCAK256 PUSH1 0x2 ADD DUP1 SLOAD SWAP1 PUSH1 0x0 PUSH2 0x80E DUP4 PUSH2 0x1111 JUMP JUMPDEST SWAP1 SWAP2 SSTORE POP SWAP1 SWAP5 SWAP4 POP POP POP POP JUMP JUMPDEST DUP3 DUP1 SLOAD DUP3 DUP3 SSTORE SWAP1 PUSH1 0x0 MSTORE PUSH1 0x20 PUSH1 0x0 KECCAK256 SWAP1 DUP2 ADD SWAP3 DUP3 ISZERO PUSH2 0x856 JUMPI SWAP2 PUSH1 0x20 MUL DUP3 ADD JUMPDEST DUP3 DUP2 GT ISZERO PUSH2 0x856 JUMPI DUP3 MLOAD DUP3 SSTORE SWAP2 PUSH1 0x20 ADD SWAP2 SWAP1 PUSH1 0x1 ADD SWAP1 PUSH2 0x83B JUMP JUMPDEST POP PUSH2 0x862 SWAP3 SWAP2 POP PUSH2 0x8B8 JUMP JUMPDEST POP SWAP1 JUMP JUMPDEST DUP3 DUP1 SLOAD DUP3 DUP3 SSTORE SWAP1 PUSH1 0x0 MSTORE PUSH1 0x20 PUSH1 0x0 KECCAK256 SWAP1 DUP2 ADD SWAP3 DUP3 ISZERO PUSH2 0x8AC JUMPI SWAP2 PUSH1 0x20 MUL DUP3 ADD JUMPDEST DUP3 DUP2 GT ISZERO PUSH2 0x8AC JUMPI DUP3 MLOAD DUP3 SWAP1 PUSH2 0x89C SWAP1 DUP3 PUSH2 0xFEC JUMP JUMPDEST POP SWAP2 PUSH1 0x20 ADD SWAP2 SWAP1 PUSH1 0x1 ADD SWAP1 PUSH2 0x886 JUMP JUMPDEST POP PUSH2 0x862 SWAP3 SWAP2 POP PUSH2 0x8CD JUMP JUMPDEST JUMPDEST DUP1 DUP3 GT ISZERO PUSH2 0x862 JUMPI PUSH1 0x0 DUP2 SSTORE PUSH1 0x1 ADD PUSH2 0x8B9 JUMP JUMPDEST DUP1 DUP3 GT ISZERO PUSH2 0x862 JUMPI PUSH1 0x0 PUSH2 0x8E1 DUP3 DUP3 PUSH2 0x8EA JUMP JUMPDEST POP PUSH1 0x1 ADD PUSH2 0x8CD JUMP JUMPDEST POP DUP1 SLOAD PUSH2 0x8F6 SWAP1 PUSH2 0xF61 JUMP JUMPDEST PUSH1 0x0 DUP3 SSTORE DUP1 PUSH1 0x1F LT PUSH2 0x906 JUMPI POP POP JUMP JUMPDEST PUSH1 0x1F ADD PUSH1 0x20 SWAP1 DIV SWAP1 PUSH1 0x0 MSTORE PUSH1 0x20 PUSH1 0x0 KECCAK256 SWAP1 DUP2 ADD SWAP1 PUSH2 0x924 SWAP2 SWAP1 PUSH2 0x8B8 JUMP JUMPDEST POP JUMP JUMPDEST PUSH4 0x4E487B71 PUSH1 0xE0 SHL PUSH1 0x0 MSTORE PUSH1 0x41 PUSH1 0x4 MSTORE PUSH1 0x24 PUSH1 0x0 REVERT JUMPDEST PUSH1 0x40 MLOAD PUSH2 0x120 DUP2 ADD PUSH8 0xFFFFFFFFFFFFFFFF DUP2 GT DUP3 DUP3 LT OR ISZERO PUSH2 0x961 JUMPI PUSH2 0x961 PUSH2 0x927 JUMP JUMPDEST PUSH1 0x40 MSTORE SWAP1 JUMP JUMPDEST PUSH1 0x40 MLOAD PUSH1 0x1F DUP3 ADD PUSH1 0x1F NOT AND DUP2 ADD PUSH8 0xFFFFFFFFFFFFFFFF DUP2 GT DUP3 DUP3 LT OR ISZERO PUSH2 0x990 JUMPI PUSH2 0x990 PUSH2 0x927 JUMP JUMPDEST PUSH1 0x40 MSTORE SWAP2 SWAP1 POP JUMP JUMPDEST PUSH1 0x0 DUP3 PUSH1 0x1F DUP4 ADD SLT PUSH2 0x9A9 JUMPI PUSH1 0x0 DUP1 REVERT JUMPDEST DUP2 CALLDATALOAD PUSH8 0xFFFFFFFFFFFFFFFF DUP2 GT ISZERO PUSH2 0x9C3 JUMPI PUSH2 0x9C3 PUSH2 0x927 JUMP JUMPDEST PUSH2 0x9D6 PUSH1 0x1F DUP3 ADD PUSH1 0x1F NOT AND PUSH1 0x20 ADD PUSH2 0x967 JUMP JUMPDEST DUP2 DUP2 MSTORE DUP5 PUSH1 0x20 DUP4 DUP7 ADD ADD GT ISZERO PUSH2 0x9EB JUMPI PUSH1 0x0 DUP1 REVERT JUMPDEST DUP2 PUSH1 0x20 DUP6 ADD PUSH1 0x20 DUP4 ADD CALLDATACOPY PUSH1 0x0 SWAP2 DUP2 ADD PUSH1 0x20 ADD SWAP2 SWAP1 SWAP2 MSTORE SWAP4 SWAP3 POP POP POP JUMP JUMPDEST PUSH1 0x0 PUSH8 0xFFFFFFFFFFFFFFFF DUP3 GT ISZERO PUSH2 0xA22 JUMPI PUSH2 0xA22 PUSH2 0x927 JUMP JUMPDEST POP PUSH1 0x5 SHL PUSH1 0x20 ADD SWAP1 JUMP JUMPDEST DUP1 CALLDATALOAD PUSH1 0x8 DUP2 LT PUSH2 0xA3B JUMPI PUSH1 0x0 DUP1 REVERT JUMPDEST SWAP2 SWAP1 POP JUMP JUMPDEST PUSH1 0x0 DUP3 PUSH1 0x1F DUP4 ADD SLT PUSH2 0xA51 JUMPI PUSH1 0x0 DUP1 REVERT JUMPDEST DUP2 CALLDATALOAD PUSH1 0x20 PUSH2 0xA66 PUSH2 0xA61 DUP4 PUSH2 0xA08 JUMP JUMPDEST PUSH2 0x967 JUMP JUMPDEST DUP1 DUP4 DUP3 MSTORE PUSH1 0x20 DUP3 ADD SWAP2 POP PUSH1 0x20 DUP5 PUSH1 0x5 SHL DUP8 ADD ADD SWAP4 POP DUP7 DUP5 GT ISZERO PUSH2 0xA88 JUMPI PUSH1 0x0 DUP1 REVERT JUMPDEST PUSH1 0x20 DUP7 ADD JUMPDEST DUP5 DUP2 LT ISZERO PUSH2 0xAA4 JUMPI DUP1 CALLDATALOAD DUP4 MSTORE SWAP2 DUP4 ADD SWAP2 DUP4 ADD PUSH2 0xA8D JUMP JUMPDEST POP SWAP7 SWAP6 POP POP POP POP POP POP JUMP JUMPDEST PUSH1 0x0 DUP3 PUSH1 0x1F DUP4 ADD SLT PUSH2 0xAC0 JUMPI PUSH1 0x0 DUP1 REVERT JUMPDEST DUP2 CALLDATALOAD PUSH1 0x20 PUSH2 0xAD0 PUSH2 0xA61 DUP4 PUSH2 0xA08 JUMP JUMPDEST DUP3 DUP2 MSTORE PUSH1 0x5 SWAP3 SWAP1 SWAP3 SHL DUP5 ADD DUP2 ADD SWAP2 DUP2 DUP2 ADD SWAP1 DUP7 DUP5 GT ISZERO PUSH2 0xAEF JUMPI PUSH1 0x0 DUP1 REVERT JUMPDEST DUP3 DUP7 ADD JUMPDEST DUP5 DUP2 LT ISZERO PUSH2 0xAA4 JUMPI DUP1 CALLDATALOAD PUSH8 0xFFFFFFFFFFFFFFFF DUP1 DUP3 GT ISZERO PUSH2 0xB14 JUMPI PUSH1 0x0 DUP1 DUP2 REVERT JUMPDEST SWAP1 DUP9 ADD SWAP1 PUSH2 0x120 DUP3 DUP12 SUB PUSH1 0x1F NOT ADD DUP2 SGT ISZERO PUSH2 0xB2F JUMPI PUSH1 0x0 DUP1 DUP2 REVERT JUMPDEST PUSH2 0xB37 PUSH2 0x93D JUMP JUMPDEST DUP8 DUP5 ADD CALLDATALOAD DUP2 MSTORE PUSH1 0x40 PUSH2 0xB4A DUP2 DUP7 ADD PUSH2 0xA2C JUMP JUMPDEST DUP10 DUP4 ADD MSTORE PUSH1 0x60 DUP1 DUP7 ADD CALLDATALOAD DUP6 DUP2 GT ISZERO PUSH2 0xB62 JUMPI PUSH1 0x0 DUP1 DUP2 REVERT JUMPDEST PUSH2 0xB70 DUP16 DUP13 DUP4 DUP11 ADD ADD PUSH2 0x998 JUMP JUMPDEST DUP4 DUP6 ADD MSTORE POP PUSH1 0x80 SWAP2 POP DUP2 DUP7 ADD CALLDATALOAD DUP6 DUP2 GT ISZERO PUSH2 0xB8B JUMPI PUSH1 0x0 DUP1 DUP2 REVERT JUMPDEST PUSH2 0xB99 DUP16 DUP13 DUP4 DUP11 ADD ADD PUSH2 0x998 JUMP JUMPDEST DUP3 DUP6 ADD MSTORE POP POP PUSH1 0xA0 DUP1 DUP7 ADD CALLDATALOAD DUP6 DUP2 GT ISZERO PUSH2 0xBB3 JUMPI PUSH1 0x0 DUP1 DUP2 REVERT JUMPDEST PUSH2 0xBC1 DUP16 DUP13 DUP4 DUP11 ADD ADD PUSH2 0x998 JUMP JUMPDEST DUP4 DUP6 ADD MSTORE POP PUSH1 0xC0 SWAP2 POP DUP2 DUP7 ADD CALLDATALOAD DUP6 DUP2 GT ISZERO PUSH2 0xBDC JUMPI PUSH1 0x0 DUP1 DUP2 REVERT JUMPDEST PUSH2 0xBEA DUP16 DUP13 DUP4 DUP11 ADD ADD PUSH2 0x998 JUMP JUMPDEST DUP3 DUP6 ADD MSTORE POP POP PUSH1 0xE0 DUP1 DUP7 ADD CALLDATALOAD DUP6 DUP2 GT ISZERO PUSH2 0xC04 JUMPI PUSH1 0x0 DUP1 DUP2 REVERT JUMPDEST PUSH2 0xC12 DUP16 DUP13 DUP4 DUP11 ADD ADD PUSH2 0x998 JUMP JUMPDEST DUP4 DUP6 ADD MSTORE POP PUSH2 0x100 SWAP2 POP DUP2 DUP7 ADD CALLDATALOAD DUP6 DUP2 GT ISZERO PUSH2 0xC2E JUMPI PUSH1 0x0 DUP1 DUP2 REVERT JUMPDEST PUSH2 0xC3C DUP16 DUP13 DUP4 DUP11 ADD ADD PUSH2 0x998 JUMP JUMPDEST DUP3 DUP6 ADD MSTORE POP POP DUP3 DUP6 ADD CALLDATALOAD SWAP3 POP DUP4 DUP4 GT ISZERO PUSH2 0xC56 JUMPI PUSH1 0x0 DUP1 DUP2 REVERT JUMPDEST PUSH2 0xC64 DUP14 DUP11 DUP6 DUP9 ADD ADD PUSH2 0xA40 JUMP JUMPDEST SWAP1 DUP3 ADD MSTORE DUP7 MSTORE POP POP POP SWAP2 DUP4 ADD SWAP2 DUP4 ADD PUSH2 0xAF3 JUMP JUMPDEST PUSH1 0x0 DUP3 PUSH1 0x1F DUP4 ADD SLT PUSH2 0xC89 JUMPI PUSH1 0x0 DUP1 REVERT JUMPDEST DUP2 CALLDATALOAD PUSH1 0x20 PUSH2 0xC99 PUSH2 0xA61 DUP4 PUSH2 0xA08 JUMP JUMPDEST DUP3 DUP2 MSTORE PUSH1 0x5 SWAP3 SWAP1 SWAP3 SHL DUP5 ADD DUP2 ADD SWAP2 DUP2 DUP2 ADD SWAP1 DUP7 DUP5 GT ISZERO PUSH2 0xCB8 JUMPI PUSH1 0x0 DUP1 REVERT JUMPDEST DUP3 DUP7 ADD JUMPDEST DUP5 DUP2 LT ISZERO PUSH2 0xAA4 JUMPI DUP1 CALLDATALOAD PUSH8 0xFFFFFFFFFFFFFFFF DUP2 GT ISZERO PUSH2 0xCDC JUMPI PUSH1 0x0 DUP1 DUP2 REVERT JUMPDEST PUSH2 0xCEA DUP10 DUP7 DUP4 DUP12 ADD ADD PUSH2 0x998 JUMP JUMPDEST DUP5 MSTORE POP SWAP2 DUP4 ADD SWAP2 DUP4 ADD PUSH2 0xCBC JUMP JUMPDEST PUSH1 0x0 DUP3 PUSH1 0x1F DUP4 ADD SLT PUSH2 0xD09 JUMPI PUSH1 0x0 DUP1 REVERT JUMPDEST DUP2 CALLDATALOAD PUSH1 0x20 PUSH2 0xD19 PUSH2 0xA61 DUP4 PUSH2 0xA08 JUMP JUMPDEST DUP3 DUP2 MSTORE PUSH1 0x5 SWAP3 SWAP1 SWAP3 SHL DUP5 ADD DUP2 ADD SWAP2 DUP2 DUP2 ADD SWAP1 DUP7 DUP5 GT ISZERO PUSH2 0xD38 JUMPI PUSH1 0x0 DUP1 REVERT JUMPDEST DUP3 DUP7 ADD JUMPDEST DUP5 DUP2 LT ISZERO PUSH2 0xAA4 JUMPI DUP1 CALLDATALOAD PUSH8 0xFFFFFFFFFFFFFFFF DUP2 GT ISZERO PUSH2 0xD5C JUMPI PUSH1 0x0 DUP1 DUP2 REVERT JUMPDEST PUSH2 0xD6A DUP10 DUP7 DUP4 DUP12 ADD ADD PUSH2 0xC78 JUMP JUMPDEST DUP5 MSTORE POP SWAP2 DUP4 ADD SWAP2 DUP4 ADD PUSH2 0xD3C JUMP JUMPDEST PUSH1 0x0 DUP1 PUSH1 0x0 DUP1 PUSH1 0x0 DUP1 PUSH1 0x0 DUP1 PUSH2 0x100 DUP10 DUP12 SUB SLT ISZERO PUSH2 0xD95 JUMPI PUSH1 0x0 DUP1 REVERT JUMPDEST DUP9 CALLDATALOAD PUSH8 0xFFFFFFFFFFFFFFFF DUP1 DUP3 GT ISZERO PUSH2 0xDAD JUMPI PUSH1 0x0 DUP1 REVERT JUMPDEST PUSH2 0xDB9 DUP13 DUP4 DUP14 ADD PUSH2 0x998 JUMP JUMPDEST SWAP10 POP PUSH1 0x20 DUP12 ADD CALLDATALOAD SWAP2 POP DUP1 DUP3 GT ISZERO PUSH2 0xDCF JUMPI PUSH1 0x0 DUP1 REVERT JUMPDEST PUSH2 0xDDB DUP13 DUP4 DUP14 ADD PUSH2 0xAAF JUMP JUMPDEST SWAP9 POP PUSH1 0x40 DUP12 ADD CALLDATALOAD SWAP2 POP DUP1 DUP3 GT ISZERO PUSH2 0xDF1 JUMPI PUSH1 0x0 DUP1 REVERT JUMPDEST PUSH2 0xDFD DUP13 DUP4 DUP14 ADD PUSH2 0xCF8 JUMP JUMPDEST SWAP8 POP PUSH1 0x60 DUP12 ADD CALLDATALOAD SWAP2 POP DUP1 DUP3 GT ISZERO PUSH2 0xE13 JUMPI PUSH1 0x0 DUP1 REVERT JUMPDEST PUSH2 0xE1F DUP13 DUP4 DUP14 ADD PUSH2 0xCF8 JUMP JUMPDEST SWAP7 POP PUSH1 0x80 DUP12 ADD CALLDATALOAD SWAP2 POP DUP1 DUP3 GT ISZERO PUSH2 0xE35 JUMPI PUSH1 0x0 DUP1 REVERT JUMPDEST PUSH2 0xE41 DUP13 DUP4 DUP14 ADD PUSH2 0xCF8 JUMP JUMPDEST SWAP6 POP PUSH1 0xA0 DUP12 ADD CALLDATALOAD SWAP2 POP DUP1 DUP3 GT ISZERO PUSH2 0xE57 JUMPI PUSH1 0x0 DUP1 REVERT JUMPDEST PUSH2 0xE63 DUP13 DUP4 DUP14 ADD PUSH2 0xCF8 JUMP JUMPDEST SWAP5 POP PUSH1 0xC0 DUP12 ADD CALLDATALOAD SWAP2 POP DUP1 DUP3 GT ISZERO PUSH2 0xE79 JUMPI PUSH1 0x0 DUP1 REVERT JUMPDEST PUSH2 0xE85 DUP13 DUP4 DUP14 ADD PUSH2 0xC78 JUMP JUMPDEST SWAP4 POP PUSH1 0xE0 DUP12 ADD CALLDATALOAD SWAP2 POP DUP1 DUP3 GT ISZERO PUSH2 0xE9B JUMPI PUSH1 0x0 DUP1 REVERT JUMPDEST POP PUSH2 0xEA8 DUP12 DUP3 DUP13 ADD PUSH2 0xCF8 JUMP JUMPDEST SWAP2 POP POP SWAP3 SWAP6 SWAP9 POP SWAP3 SWAP6 SWAP9 SWAP1 SWAP4 SWAP7 POP JUMP JUMPDEST PUSH1 0x0 PUSH1 0x20 DUP3 DUP5 SUB SLT ISZERO PUSH2 0xECA JUMPI PUSH1 0x0 DUP1 REVERT JUMPDEST DUP2 CALLDATALOAD PUSH8 0xFFFFFFFFFFFFFFFF DUP2 GT ISZERO PUSH2 0xEE1 JUMPI PUSH1 0x0 DUP1 REVERT JUMPDEST PUSH2 0xEED DUP5 DUP3 DUP6 ADD PUSH2 0x998 JUMP JUMPDEST SWAP5 SWAP4 POP POP POP POP JUMP JUMPDEST PUSH1 0x0 JUMPDEST DUP4 DUP2 LT ISZERO PUSH2 0xF10 JUMPI DUP2 DUP2 ADD MLOAD DUP4 DUP3 ADD MSTORE PUSH1 0x20 ADD PUSH2 0xEF8 JUMP JUMPDEST POP POP PUSH1 0x0 SWAP2 ADD MSTORE JUMP JUMPDEST PUSH1 0x0 DUP3 MLOAD PUSH2 0xF2B DUP2 DUP5 PUSH1 0x20 DUP8 ADD PUSH2 0xEF5 JUMP JUMPDEST SWAP2 SWAP1 SWAP2 ADD SWAP3 SWAP2 POP POP JUMP JUMPDEST PUSH4 0x4E487B71 PUSH1 0xE0 SHL PUSH1 0x0 MSTORE PUSH1 0x32 PUSH1 0x4 MSTORE PUSH1 0x24 PUSH1 0x0 REVERT JUMPDEST PUSH4 0x4E487B71 PUSH1 0xE0 SHL PUSH1 0x0 MSTORE PUSH1 0x21 PUSH1 0x4 MSTORE PUSH1 0x24 PUSH1 0x0 REVERT JUMPDEST PUSH1 0x1 DUP2 DUP2 SHR SWAP1 DUP3 AND DUP1 PUSH2 0xF75 JUMPI PUSH1 0x7F DUP3 AND SWAP2 POP JUMPDEST PUSH1 0x20 DUP3 LT DUP2 SUB PUSH2 0xF95 JUMPI PUSH4 0x4E487B71 PUSH1 0xE0 SHL PUSH1 0x0 MSTORE PUSH1 0x22 PUSH1 0x4 MSTORE PUSH1 0x24 PUSH1 0x0 REVERT JUMPDEST POP SWAP2 SWAP1 POP JUMP JUMPDEST PUSH1 0x1F DUP3 GT ISZERO PUSH2 0xFE7 JUMPI PUSH1 0x0 DUP2 PUSH1 0x0 MSTORE PUSH1 0x20 PUSH1 0x0 KECCAK256 PUSH1 0x1F DUP6 ADD PUSH1 0x5 SHR DUP2 ADD PUSH1 0x20 DUP7 LT ISZERO PUSH2 0xFC4 JUMPI POP DUP1 JUMPDEST PUSH1 0x1F DUP6 ADD PUSH1 0x5 SHR DUP3 ADD SWAP2 POP JUMPDEST DUP2 DUP2 LT ISZERO PUSH2 0xFE3 JUMPI DUP3 DUP2 SSTORE PUSH1 0x1 ADD PUSH2 0xFD0 JUMP JUMPDEST POP POP POP JUMPDEST POP POP POP JUMP JUMPDEST DUP2 MLOAD PUSH8 0xFFFFFFFFFFFFFFFF DUP2 GT ISZERO PUSH2 0x1006 JUMPI PUSH2 0x1006 PUSH2 0x927 JUMP JUMPDEST PUSH2 0x101A DUP2 PUSH2 0x1014 DUP5 SLOAD PUSH2 0xF61 JUMP JUMPDEST DUP5 PUSH2 0xF9B JUMP JUMPDEST PUSH1 0x20 DUP1 PUSH1 0x1F DUP4 GT PUSH1 0x1 DUP2 EQ PUSH2 0x104F JUMPI PUSH1 0x0 DUP5 ISZERO PUSH2 0x1037 JUMPI POP DUP6 DUP4 ADD MLOAD JUMPDEST PUSH1 0x0 NOT PUSH1 0x3 DUP7 SWAP1 SHL SHR NOT AND PUSH1 0x1 DUP6 SWAP1 SHL OR DUP6 SSTORE PUSH2 0xFE3 JUMP JUMPDEST PUSH1 0x0 DUP6 DUP2 MSTORE PUSH1 0x20 DUP2 KECCAK256 PUSH1 0x1F NOT DUP7 AND SWAP2 JUMPDEST DUP3 DUP2 LT ISZERO PUSH2 0x107E JUMPI DUP9 DUP7 ADD MLOAD DUP3 SSTORE SWAP5 DUP5 ADD SWAP5 PUSH1 0x1 SWAP1 SWAP2 ADD SWAP1 DUP5 ADD PUSH2 0x105F JUMP JUMPDEST POP DUP6 DUP3 LT ISZERO PUSH2 0x109C JUMPI DUP8 DUP6 ADD MLOAD PUSH1 0x0 NOT PUSH1 0x3 DUP9 SWAP1 SHL PUSH1 0xF8 AND SHR NOT AND DUP2 SSTORE JUMPDEST POP POP POP POP POP PUSH1 0x1 SWAP1 DUP2 SHL ADD SWAP1 SSTORE POP JUMP JUMPDEST PUSH10 0x20B1BA34BB34BA3C9D1 PUSH1 0xB5 SHL DUP2 MSTORE PUSH1 0x0 DUP3 MLOAD PUSH2 0x10D1 DUP2 PUSH1 0xA DUP6 ADD PUSH1 0x20 DUP8 ADD PUSH2 0xEF5 JUMP JUMPDEST SWAP2 SWAP1 SWAP2 ADD PUSH1 0xA ADD SWAP3 SWAP2 POP POP JUMP JUMPDEST PUSH1 0x20 DUP2 MSTORE PUSH1 0x0 DUP3 MLOAD DUP1 PUSH1 0x20 DUP5 ADD MSTORE PUSH2 0x10FD DUP2 PUSH1 0x40 DUP6 ADD PUSH1 0x20 DUP8 ADD PUSH2 0xEF5 JUMP JUMPDEST PUSH1 0x1F ADD PUSH1 0x1F NOT AND SWAP2 SWAP1 SWAP2 ADD PUSH1 0x40 ADD SWAP3 SWAP2 POP POP JUMP JUMPDEST PUSH1 0x0 PUSH1 0x1 DUP3 ADD PUSH2 0x1131 JUMPI PUSH4 0x4E487B71 PUSH1 0xE0 SHL PUSH1 0x0 MSTORE PUSH1 0x11 PUSH1 0x4 MSTORE PUSH1 0x24 PUSH1 0x0 REVERT JUMPDEST POP PUSH1 0x1 ADD SWAP1 JUMP INVALID LOG2 PUSH5 0x6970667358 0x22 SLT KECCAK256 0xE3 BLOBBASEFEE EQ JUMPDEST CALLDATALOAD PUSH25 0x4915F2F9A52D4546E3CAA097E388CB9176B716A998BCAB8DC1 PUSH3 0x64736F PUSH13 0x63430008180033000000000000 "},"methodIdentifiers":{"addModel(string,(uint256,uint8,string,string,string,string,string,string,uint256[])[],string[][],string[][],string[][],string[][],string[],string[][])":"8e361b56","newInstance(string)":"cc31dd4f"}}}}}