{"contracts/caterPillar/factoryBulkBuyer.sol":{"factoryBulkBuyer":{"abi":[{"inputs":[],"name":"getInstance","outputs":[{"internalType":"address","name":"","type":"address"}],"stateMutability":"view","type":"function"},{"inputs":[{"internalType":"address","name":"parent","type":"address"},{"internalType":"address","name":"globalFactory","type":"address"}],"name":"newInstance","outputs":[{"internalType":"address","name":"","type":"address"}],"stateMutability":"nonpayable","type":"function"},{"inputs":[{"internalType":"address","name":"_worklist","type":"address"}],"name":"setWorklist","outputs":[],"stateMutability":"nonpayable","type":"function"},{"inputs":[{"internalType":"address","name":"processAddress","type":"address"}],"name":"startInstanceExecution","outputs":[],"stateMutability":"nonpayable","type":"function"}],"evm":{"bytecode":{"linkReferences":{},"object":"6080604052600080546001600160a01b031916905534801561002057600080fd5b5061177d806100306000396000f3fe608060405234801561001057600080fd5b506004361061004c5760003560e01c806316ec41f1146100515780634491bdbe14610066578063a0e3402414610096578063de7b5d14146100c5575b600080fd5b61006461005f3660046101ab565b6100d6565b005b6100646100743660046101ab565b600080546001600160a01b0319166001600160a01b0392909216919091179055565b6100a96100a43660046101cd565b610133565b6040516001600160a01b03909116815260200160405180910390f35b6001546001600160a01b03166100a9565b604051633a1cde7560e01b8152600260048201526001600160a01b03821690633a1cde7590602401600060405180830381600087803b15801561011857600080fd5b505af115801561012c573d6000803e3d6000fd5b5050505050565b60008060405161014290610182565b604051809103906000f08015801561015e573d6000803e3d6000fd5b50600180546001600160a01b0319166001600160a01b038316179055949350505050565b6115478061020183390190565b80356001600160a01b03811681146101a657600080fd5b919050565b6000602082840312156101bd57600080fd5b6101c68261018f565b9392505050565b600080604083850312156101e057600080fd5b6101e98361018f565b91506101f76020840161018f565b9050925092905056fe60806040526002600055600060035560006006556000600755600060085560006009556000600a556000600b556000600c556000600d556000600e556000600f5534801561004c57600080fd5b50600180546001600160a01b0319163317905560405161006b906100ad565b604051809103906000f080158015610087573d6000803e3d6000fd5b50600580546001600160a01b0319166001600160a01b03929092169190911790556100ba565b610288806112bf83390190565b6111f6806100c96000396000f3fe608060405234801561001057600080fd5b506004361061014d5760003560e01c80637a6eadeb116100c3578063b7d11d3f1161007c578063b7d11d3f14610276578063b7db7f6d14610289578063be80175714610291578063dc5bcca8146102a4578063e2d6ff95146102ac578063f02637c1146102bf57600080fd5b80637a6eadeb146101fc5780637dc74da91461020f57806384bef679146102225780638f4c0c6f1461023d578063a96035dc14610250578063af332d951461026357600080fd5b8063506b6ab011610115578063506b6ab014610165578063535d36ea146101c757806353848421146101da5780635def08cb146101ed5780636b99255b1461016557806372aaaa46146101f557600080fd5b80631499c5921461015257806321df0da7146101675780632e47fbd51461017e5780633a1cde75146101915780634118c2a0146101a4575b600080fd5b610165610160366004611117565b6102d2565b005b6000545b6040519081526020015b60405180910390f35b61016561018c366004611147565b610305565b61016561019f366004611147565b61038e565b6101b76101b2366004611147565b6104df565b6040519015158152602001610175565b6101b76101d5366004611147565b610551565b6101b76101e8366004611147565b6105af565b61016b61060c565b600061016b565b61016b61020a366004611147565b61064c565b6101b761021d366004611147565b6106f5565b6005546040516001600160a01b039091168152602001610175565b6101b761024b366004611147565b610751565b6101b761025e366004611147565b6107ae565b6101b7610271366004611147565b61080c565b6101b7610284366004611147565b61086d565b61016b6108c9565b61016561029f366004611147565b61096e565b60105461016b565b6101b76102ba366004611147565b6109b0565b6101b76102cd366004611147565b610a0d565b600154336001600160a01b039091160361030257600280546001600160a01b0319166001600160a01b0383161790555b50565b6002546001600160a01b03161561037857600254604051632e47fbd560e01b8152600481018390526001600160a01b0390911690632e47fbd5906024015b600060405180830381600087803b15801561035d57600080fd5b505af1158015610371573d6000803e3d6000fd5b5050505050565b61038061060c565b600080549119909116905550565b60005b806104d957601080549060006103a683611160565b9190505550816002166002036103c6576103bf82610a69565b9150610391565b816004166004036103da576103bf82610b00565b816010166010036103ee576103bf82610b97565b81602016602003610402576103bf82610c2e565b816101001661010003610418576103bf82610cc5565b81610200166102000361042e576103bf82610d5d565b816104001661040003610444576103bf82610df5565b81610800166108000361045a576103bf82610e8d565b816110001661100003610470576103bf82610f25565b816120001661200003610486576103bf82610fbd565b81614000166140000361049c576103bf82611055565b816008166008036104b65760081982166030179150610391565b8160c01660c0036104d15760c0198216610100179150610391565b506001610391565b50600055565b60006008546000036104f357506000919050565b6008546001831b9081168190036105485760088054821916905560005461051c9060801761038e565b604051600481526000805160206111a1833981519152906020015b60405180910390a150600192915050565b50600092915050565b6000600e5460000361056557506000919050565b600e546001831b90811681900361054857600e8054821916905560005461058f906120001761038e565b60405161010081526000805160206111a183398151915290602001610537565b6000600a546000036105c357506000919050565b600a546001831b90811681900361054857600a805482191690556000546105ed906102001761038e565b604051601081526000805160206111a183398151915290602001610537565b60006006819055600781905560088190556009819055600a819055600b819055600c819055600d819055600e819055600f8190558054617ffe1916815590565b60008160010361065e57505060065490565b8160020361066e57505060075490565b8160040361067e57505060085490565b8160080361068e57505060095490565b8160100361069e575050600a5490565b816020036106ae575050600b5490565b816040036106be575050600c5490565b816080036106ce575050600d5490565b81610100036106df575050600e5490565b81610200036106f0575050600f5490565b919050565b600060095460000361070957506000919050565b6009546001831b908116819003610548576009805482191690556000546107329060401761038e565b604051600881526000805160206111a183398151915290602001610537565b6000600d5460000361076557506000919050565b600d546001831b90811681900361054857600d8054821916905560005461078f906110001761038e565b604051608081526000805160206111a183398151915290602001610537565b6000600f546000036107c257506000919050565b600f546001831b90811681900361054857600f805482191690556000546107ec906140001761038e565b60405161020081526000805160206111a183398151915290602001610537565b600060075460000361082057506000919050565b6007546001831b90811681900361054857600780548219169055600060108190555461084e9060081761038e565b604051600281526000805160206111a183398151915290602001610537565b600060065460000361088157506000919050565b6006546001831b908116819003610548576006805482191690556000546108aa9060041761038e565b604051600181526000805160206111a183398151915290602001610537565b60008054600654829190156108df576001821791505b600754156108ee576002821791505b600854156108fd576004821791505b6009541561090c576008821791505b600a541561091b576010821791505b600b541561092a576020821791505b600c5415610939576040821791505b600d5415610948576080821791505b600e541561095857610100821791505b600f541561096857610200821791505b50919050565b6002546001600160a01b0316156103025760025460405163be80175760e01b8152600481018390526001600160a01b039091169063be80175790602401610343565b6000600c546000036109c457506000919050565b600c546001831b90811681900361054857600c805482191690556000546109ee906108001761038e565b6000805160206111a18339815191526040805161053791815260200190565b6000600b54600003610a2157506000919050565b600b546001831b90811681900361054857600b80548219169055600054610a4b906104001761038e565b60405160208082526000805160206111a18339815191529101610537565b60055460408051632a142df560e11b81523060201b63b7d11d3f1790911b600482015260009182916001600160a01b03909116906354285bea906024016020604051808303816000875af1158015610ac5573d6000803e3d6000fd5b505050506040513d601f19601f82011682018060405250810190610ae99190611187565b60068054600190921b909117905550506002191690565b60055460408051632a142df560e11b81523060201b63af332d951790911b600482015260009182916001600160a01b03909116906354285bea906024016020604051808303816000875af1158015610b5c573d6000803e3d6000fd5b505050506040513d601f19601f82011682018060405250810190610b809190611187565b60078054600190921b909117905550506004191690565b60055460408051632a142df560e11b81523060201b634118c2a01790911b600482015260009182916001600160a01b03909116906354285bea906024016020604051808303816000875af1158015610bf3573d6000803e3d6000fd5b505050506040513d601f19601f82011682018060405250810190610c179190611187565b60088054600190921b909117905550506010191690565b60055460408051632a142df560e11b81523060201b637dc74da91790911b600482015260009182916001600160a01b03909116906354285bea906024016020604051808303816000875af1158015610c8a573d6000803e3d6000fd5b505050506040513d601f19601f82011682018060405250810190610cae9190611187565b60098054600190921b909117905550506020191690565b60055460408051632a142df560e11b81523060201b63538484211790911b600482015260009182916001600160a01b03909116906354285bea906024016020604051808303816000875af1158015610d21573d6000803e3d6000fd5b505050506040513d601f19601f82011682018060405250810190610d459190611187565b600a8054600190921b90911790555050610100191690565b60055460408051632a142df560e11b81523060201b63f02637c11790911b600482015260009182916001600160a01b03909116906354285bea906024016020604051808303816000875af1158015610db9573d6000803e3d6000fd5b505050506040513d601f19601f82011682018060405250810190610ddd9190611187565b600b8054600190921b90911790555050610200191690565b60055460408051632a142df560e11b81523060201b63e2d6ff951790911b600482015260009182916001600160a01b03909116906354285bea906024016020604051808303816000875af1158015610e51573d6000803e3d6000fd5b505050506040513d601f19601f82011682018060405250810190610e759190611187565b600c8054600190921b90911790555050610400191690565b60055460408051632a142df560e11b81523060201b638f4c0c6f1790911b600482015260009182916001600160a01b03909116906354285bea906024016020604051808303816000875af1158015610ee9573d6000803e3d6000fd5b505050506040513d601f19601f82011682018060405250810190610f0d9190611187565b600d8054600190921b90911790555050610800191690565b60055460408051632a142df560e11b81523060201b63535d36ea1790911b600482015260009182916001600160a01b03909116906354285bea906024016020604051808303816000875af1158015610f81573d6000803e3d6000fd5b505050506040513d601f19601f82011682018060405250810190610fa59190611187565b600e8054600190921b90911790555050611000191690565b60055460408051632a142df560e11b81523060201b63a96035dc1790911b600482015260009182916001600160a01b03909116906354285bea906024016020604051808303816000875af1158015611019573d6000803e3d6000fd5b505050506040513d601f19601f8201168201806040525081019061103d9190611187565b600f8054600190921b90911790555050612000191690565b6140001981166000908155613ffe82161561107257505060005490565b6002546001600160a01b0316156110ec57600260009054906101000a90046001600160a01b03166001600160a01b0316636b99255b6040518163ffffffff1660e01b8152600401600060405180830381600087803b1580156110d357600080fd5b505af11580156110e7573d6000803e3d6000fd5b505050505b60405161040081526000805160206111a18339815191529060200160405180910390a1505060005490565b60006020828403121561112957600080fd5b81356001600160a01b038116811461114057600080fd5b9392505050565b60006020828403121561115957600080fd5b5035919050565b60006001820161118057634e487b7160e01b600052601160045260246000fd5b5060010190565b60006020828403121561119957600080fd5b505191905056fed14e1275459d597e11394bd4f2705f67625abb817299d3f66faffc080162996da264697066735822122032a73959dd72e2d48fc4f4a9f69d042b66e6462f7a8d599ebdb04ed130d9d9e764736f6c63430008180033608060405234801561001057600080fd5b50610268806100206000396000f3fe608060405234801561001057600080fd5b50600436106100365760003560e01c806354285bea1461003b578063b50c113d146100da575b600080fd5b6100c8610049366004610194565b60008054604080516020808201835286901b63ffffffff80871691909117831b8252600184018555938052517f290decd9548b62a8d60345a988386fc84ba6bc95484008f6362f93160ef3e56383018054640100000000600160c01b039290931c91821691909416176001600160c01b03199091161790915592915050565b60405190815260200160405180910390f35b6100ed6100e83660046101da565b6100ef565b005b60008181548110610102576101026101f3565b9060005260206000200160000160009054906101000a90048060201c6001600160a01b03169063ffffffff16826040518263ffffffff1660e01b815260040161014d91815260200190565b6020604051808303816000875af115801561016c573d6000803e3d6000fd5b505050506040513d601f19601f820116820180604052508101906101909190610209565b5050565b600080602083850312156101a757600080fd5b823567ffffffffffffffff19811681146101c057600080fd5b8060601c925063ffffffff8160401c169150509250929050565b6000602082840312156101ec57600080fd5b5035919050565b634e487b7160e01b600052603260045260246000fd5b60006020828403121561021b57600080fd5b8151801515811461022b57600080fd5b939250505056fea2646970667358221220fdb5b498abec1566eab7c987b2b3c3bc7c72454ae04653098d30d1ff9af289cf64736f6c63430008180033a2646970667358221220a81892a47a407b40a81d281a552a7de6b2fa7bf4bdcaf1b91c48a638f729231e64736f6c63430008180033","opcodes":"PUSH1 0x80 PUSH1 0x40 MSTORE PUSH1 0x0 DUP1 SLOAD PUSH1 0x1 PUSH1 0x1 PUSH1 0xA0 SHL SUB NOT AND SWAP1 SSTORE CALLVALUE DUP1 ISZERO PUSH2 0x20 JUMPI PUSH1 0x0 DUP1 REVERT JUMPDEST POP PUSH2 0x177D DUP1 PUSH2 0x30 PUSH1 0x0 CODECOPY PUSH1 0x0 RETURN INVALID PUSH1 0x80 PUSH1 0x40 MSTORE CALLVALUE DUP1 ISZERO PUSH2 0x10 JUMPI PUSH1 0x0 DUP1 REVERT JUMPDEST POP PUSH1 0x4 CALLDATASIZE LT PUSH2 0x4C JUMPI PUSH1 0x0 CALLDATALOAD PUSH1 0xE0 SHR DUP1 PUSH4 0x16EC41F1 EQ PUSH2 0x51 JUMPI DUP1 PUSH4 0x4491BDBE EQ PUSH2 0x66 JUMPI DUP1 PUSH4 0xA0E34024 EQ PUSH2 0x96 JUMPI DUP1 PUSH4 0xDE7B5D14 EQ PUSH2 0xC5 JUMPI JUMPDEST PUSH1 0x0 DUP1 REVERT JUMPDEST PUSH2 0x64 PUSH2 0x5F CALLDATASIZE PUSH1 0x4 PUSH2 0x1AB JUMP JUMPDEST PUSH2 0xD6 JUMP JUMPDEST STOP JUMPDEST PUSH2 0x64 PUSH2 0x74 CALLDATASIZE PUSH1 0x4 PUSH2 0x1AB JUMP JUMPDEST PUSH1 0x0 DUP1 SLOAD PUSH1 0x1 PUSH1 0x1 PUSH1 0xA0 SHL SUB NOT AND PUSH1 0x1 PUSH1 0x1 PUSH1 0xA0 SHL SUB SWAP3 SWAP1 SWAP3 AND SWAP2 SWAP1 SWAP2 OR SWAP1 SSTORE JUMP JUMPDEST PUSH2 0xA9 PUSH2 0xA4 CALLDATASIZE PUSH1 0x4 PUSH2 0x1CD JUMP JUMPDEST PUSH2 0x133 JUMP JUMPDEST PUSH1 0x40 MLOAD PUSH1 0x1 PUSH1 0x1 PUSH1 0xA0 SHL SUB SWAP1 SWAP2 AND DUP2 MSTORE PUSH1 0x20 ADD PUSH1 0x40 MLOAD DUP1 SWAP2 SUB SWAP1 RETURN JUMPDEST PUSH1 0x1 SLOAD PUSH1 0x1 PUSH1 0x1 PUSH1 0xA0 SHL SUB AND PUSH2 0xA9 JUMP JUMPDEST PUSH1 0x40 MLOAD PUSH4 0x3A1CDE75 PUSH1 0xE0 SHL DUP2 MSTORE PUSH1 0x2 PUSH1 0x4 DUP3 ADD MSTORE PUSH1 0x1 PUSH1 0x1 PUSH1 0xA0 SHL SUB DUP3 AND SWAP1 PUSH4 0x3A1CDE75 SWAP1 PUSH1 0x24 ADD PUSH1 0x0 PUSH1 0x40 MLOAD DUP1 DUP4 SUB DUP2 PUSH1 0x0 DUP8 DUP1 EXTCODESIZE ISZERO DUP1 ISZERO PUSH2 0x118 JUMPI PUSH1 0x0 DUP1 REVERT JUMPDEST POP GAS CALL ISZERO DUP1 ISZERO PUSH2 0x12C JUMPI RETURNDATASIZE PUSH1 0x0 DUP1 RETURNDATACOPY RETURNDATASIZE PUSH1 0x0 REVERT JUMPDEST POP POP POP POP POP JUMP JUMPDEST PUSH1 0x0 DUP1 PUSH1 0x40 MLOAD PUSH2 0x142 SWAP1 PUSH2 0x182 JUMP JUMPDEST PUSH1 0x40 MLOAD DUP1 SWAP2 SUB SWAP1 PUSH1 0x0 CREATE DUP1 ISZERO DUP1 ISZERO PUSH2 0x15E JUMPI RETURNDATASIZE PUSH1 0x0 DUP1 RETURNDATACOPY RETURNDATASIZE PUSH1 0x0 REVERT JUMPDEST POP PUSH1 0x1 DUP1 SLOAD PUSH1 0x1 PUSH1 0x1 PUSH1 0xA0 SHL SUB NOT AND PUSH1 0x1 PUSH1 0x1 PUSH1 0xA0 SHL SUB DUP4 AND OR SWAP1 SSTORE SWAP5 SWAP4 POP POP POP POP JUMP JUMPDEST PUSH2 0x1547 DUP1 PUSH2 0x201 DUP4 CODECOPY ADD SWAP1 JUMP JUMPDEST DUP1 CALLDATALOAD PUSH1 0x1 PUSH1 0x1 PUSH1 0xA0 SHL SUB DUP2 AND DUP2 EQ PUSH2 0x1A6 JUMPI PUSH1 0x0 DUP1 REVERT JUMPDEST SWAP2 SWAP1 POP JUMP JUMPDEST PUSH1 0x0 PUSH1 0x20 DUP3 DUP5 SUB SLT ISZERO PUSH2 0x1BD JUMPI PUSH1 0x0 DUP1 REVERT JUMPDEST PUSH2 0x1C6 DUP3 PUSH2 0x18F JUMP JUMPDEST SWAP4 SWAP3 POP POP POP JUMP JUMPDEST PUSH1 0x0 DUP1 PUSH1 0x40 DUP4 DUP6 SUB SLT ISZERO PUSH2 0x1E0 JUMPI PUSH1 0x0 DUP1 REVERT JUMPDEST PUSH2 0x1E9 DUP4 PUSH2 0x18F JUMP JUMPDEST SWAP2 POP PUSH2 0x1F7 PUSH1 0x20 DUP5 ADD PUSH2 0x18F JUMP JUMPDEST SWAP1 POP SWAP3 POP SWAP3 SWAP1 POP JUMP INVALID PUSH1 0x80 PUSH1 0x40 MSTORE PUSH1 0x2 PUSH1 0x0 SSTORE PUSH1 0x0 PUSH1 0x3 SSTORE PUSH1 0x0 PUSH1 0x6 SSTORE PUSH1 0x0 PUSH1 0x7 SSTORE PUSH1 0x0 PUSH1 0x8 SSTORE PUSH1 0x0 PUSH1 0x9 SSTORE PUSH1 0x0 PUSH1 0xA SSTORE PUSH1 0x0 PUSH1 0xB SSTORE PUSH1 0x0 PUSH1 0xC SSTORE PUSH1 0x0 PUSH1 0xD SSTORE PUSH1 0x0 PUSH1 0xE SSTORE PUSH1 0x0 PUSH1 0xF SSTORE CALLVALUE DUP1 ISZERO PUSH2 0x4C JUMPI PUSH1 0x0 DUP1 REVERT JUMPDEST POP PUSH1 0x1 DUP1 SLOAD PUSH1 0x1 PUSH1 0x1 PUSH1 0xA0 SHL SUB NOT AND CALLER OR SWAP1 SSTORE PUSH1 0x40 MLOAD PUSH2 0x6B SWAP1 PUSH2 0xAD JUMP JUMPDEST PUSH1 0x40 MLOAD DUP1 SWAP2 SUB SWAP1 PUSH1 0x0 CREATE DUP1 ISZERO DUP1 ISZERO PUSH2 0x87 JUMPI RETURNDATASIZE PUSH1 0x0 DUP1 RETURNDATACOPY RETURNDATASIZE PUSH1 0x0 REVERT JUMPDEST POP PUSH1 0x5 DUP1 SLOAD PUSH1 0x1 PUSH1 0x1 PUSH1 0xA0 SHL SUB NOT AND PUSH1 0x1 PUSH1 0x1 PUSH1 0xA0 SHL SUB SWAP3 SWAP1 SWAP3 AND SWAP2 SWAP1 SWAP2 OR SWAP1 SSTORE PUSH2 0xBA JUMP JUMPDEST PUSH2 0x288 DUP1 PUSH2 0x12BF DUP4 CODECOPY ADD SWAP1 JUMP JUMPDEST PUSH2 0x11F6 DUP1 PUSH2 0xC9 PUSH1 0x0 CODECOPY PUSH1 0x0 RETURN INVALID PUSH1 0x80 PUSH1 0x40 MSTORE CALLVALUE DUP1 ISZERO PUSH2 0x10 JUMPI PUSH1 0x0 DUP1 REVERT JUMPDEST POP PUSH1 0x4 CALLDATASIZE LT PUSH2 0x14D JUMPI PUSH1 0x0 CALLDATALOAD PUSH1 0xE0 SHR DUP1 PUSH4 0x7A6EADEB GT PUSH2 0xC3 JUMPI DUP1 PUSH4 0xB7D11D3F GT PUSH2 0x7C JUMPI DUP1 PUSH4 0xB7D11D3F EQ PUSH2 0x276 JUMPI DUP1 PUSH4 0xB7DB7F6D EQ PUSH2 0x289 JUMPI DUP1 PUSH4 0xBE801757 EQ PUSH2 0x291 JUMPI DUP1 PUSH4 0xDC5BCCA8 EQ PUSH2 0x2A4 JUMPI DUP1 PUSH4 0xE2D6FF95 EQ PUSH2 0x2AC JUMPI DUP1 PUSH4 0xF02637C1 EQ PUSH2 0x2BF JUMPI PUSH1 0x0 DUP1 REVERT JUMPDEST DUP1 PUSH4 0x7A6EADEB EQ PUSH2 0x1FC JUMPI DUP1 PUSH4 0x7DC74DA9 EQ PUSH2 0x20F JUMPI DUP1 PUSH4 0x84BEF679 EQ PUSH2 0x222 JUMPI DUP1 PUSH4 0x8F4C0C6F EQ PUSH2 0x23D JUMPI DUP1 PUSH4 0xA96035DC EQ PUSH2 0x250 JUMPI DUP1 PUSH4 0xAF332D95 EQ PUSH2 0x263 JUMPI PUSH1 0x0 DUP1 REVERT JUMPDEST DUP1 PUSH4 0x506B6AB0 GT PUSH2 0x115 JUMPI DUP1 PUSH4 0x506B6AB0 EQ PUSH2 0x165 JUMPI DUP1 PUSH4 0x535D36EA EQ PUSH2 0x1C7 JUMPI DUP1 PUSH4 0x53848421 EQ PUSH2 0x1DA JUMPI DUP1 PUSH4 0x5DEF08CB EQ PUSH2 0x1ED JUMPI DUP1 PUSH4 0x6B99255B EQ PUSH2 0x165 JUMPI DUP1 PUSH4 0x72AAAA46 EQ PUSH2 0x1F5 JUMPI PUSH1 0x0 DUP1 REVERT JUMPDEST DUP1 PUSH4 0x1499C592 EQ PUSH2 0x152 JUMPI DUP1 PUSH4 0x21DF0DA7 EQ PUSH2 0x167 JUMPI DUP1 PUSH4 0x2E47FBD5 EQ PUSH2 0x17E JUMPI DUP1 PUSH4 0x3A1CDE75 EQ PUSH2 0x191 JUMPI DUP1 PUSH4 0x4118C2A0 EQ PUSH2 0x1A4 JUMPI JUMPDEST PUSH1 0x0 DUP1 REVERT JUMPDEST PUSH2 0x165 PUSH2 0x160 CALLDATASIZE PUSH1 0x4 PUSH2 0x1117 JUMP JUMPDEST PUSH2 0x2D2 JUMP JUMPDEST STOP JUMPDEST PUSH1 0x0 SLOAD JUMPDEST PUSH1 0x40 MLOAD SWAP1 DUP2 MSTORE PUSH1 0x20 ADD JUMPDEST PUSH1 0x40 MLOAD DUP1 SWAP2 SUB SWAP1 RETURN JUMPDEST PUSH2 0x165 PUSH2 0x18C CALLDATASIZE PUSH1 0x4 PUSH2 0x1147 JUMP JUMPDEST PUSH2 0x305 JUMP JUMPDEST PUSH2 0x165 PUSH2 0x19F CALLDATASIZE PUSH1 0x4 PUSH2 0x1147 JUMP JUMPDEST PUSH2 0x38E JUMP JUMPDEST PUSH2 0x1B7 PUSH2 0x1B2 CALLDATASIZE PUSH1 0x4 PUSH2 0x1147 JUMP JUMPDEST PUSH2 0x4DF JUMP JUMPDEST PUSH1 0x40 MLOAD SWAP1 ISZERO ISZERO DUP2 MSTORE PUSH1 0x20 ADD PUSH2 0x175 JUMP JUMPDEST PUSH2 0x1B7 PUSH2 0x1D5 CALLDATASIZE PUSH1 0x4 PUSH2 0x1147 JUMP JUMPDEST PUSH2 0x551 JUMP JUMPDEST PUSH2 0x1B7 PUSH2 0x1E8 CALLDATASIZE PUSH1 0x4 PUSH2 0x1147 JUMP JUMPDEST PUSH2 0x5AF JUMP JUMPDEST PUSH2 0x16B PUSH2 0x60C JUMP JUMPDEST PUSH1 0x0 PUSH2 0x16B JUMP JUMPDEST PUSH2 0x16B PUSH2 0x20A CALLDATASIZE PUSH1 0x4 PUSH2 0x1147 JUMP JUMPDEST PUSH2 0x64C JUMP JUMPDEST PUSH2 0x1B7 PUSH2 0x21D CALLDATASIZE PUSH1 0x4 PUSH2 0x1147 JUMP JUMPDEST PUSH2 0x6F5 JUMP JUMPDEST PUSH1 0x5 SLOAD PUSH1 0x40 MLOAD PUSH1 0x1 PUSH1 0x1 PUSH1 0xA0 SHL SUB SWAP1 SWAP2 AND DUP2 MSTORE PUSH1 0x20 ADD PUSH2 0x175 JUMP JUMPDEST PUSH2 0x1B7 PUSH2 0x24B CALLDATASIZE PUSH1 0x4 PUSH2 0x1147 JUMP JUMPDEST PUSH2 0x751 JUMP JUMPDEST PUSH2 0x1B7 PUSH2 0x25E CALLDATASIZE PUSH1 0x4 PUSH2 0x1147 JUMP JUMPDEST PUSH2 0x7AE JUMP JUMPDEST PUSH2 0x1B7 PUSH2 0x271 CALLDATASIZE PUSH1 0x4 PUSH2 0x1147 JUMP JUMPDEST PUSH2 0x80C JUMP JUMPDEST PUSH2 0x1B7 PUSH2 0x284 CALLDATASIZE PUSH1 0x4 PUSH2 0x1147 JUMP JUMPDEST PUSH2 0x86D JUMP JUMPDEST PUSH2 0x16B PUSH2 0x8C9 JUMP JUMPDEST PUSH2 0x165 PUSH2 0x29F CALLDATASIZE PUSH1 0x4 PUSH2 0x1147 JUMP JUMPDEST PUSH2 0x96E JUMP JUMPDEST PUSH1 0x10 SLOAD PUSH2 0x16B JUMP JUMPDEST PUSH2 0x1B7 PUSH2 0x2BA CALLDATASIZE PUSH1 0x4 PUSH2 0x1147 JUMP JUMPDEST PUSH2 0x9B0 JUMP JUMPDEST PUSH2 0x1B7 PUSH2 0x2CD CALLDATASIZE PUSH1 0x4 PUSH2 0x1147 JUMP JUMPDEST PUSH2 0xA0D JUMP JUMPDEST PUSH1 0x1 SLOAD CALLER PUSH1 0x1 PUSH1 0x1 PUSH1 0xA0 SHL SUB SWAP1 SWAP2 AND SUB PUSH2 0x302 JUMPI PUSH1 0x2 DUP1 SLOAD PUSH1 0x1 PUSH1 0x1 PUSH1 0xA0 SHL SUB NOT AND PUSH1 0x1 PUSH1 0x1 PUSH1 0xA0 SHL SUB DUP4 AND OR SWAP1 SSTORE JUMPDEST POP JUMP JUMPDEST PUSH1 0x2 SLOAD PUSH1 0x1 PUSH1 0x1 PUSH1 0xA0 SHL SUB AND ISZERO PUSH2 0x378 JUMPI PUSH1 0x2 SLOAD PUSH1 0x40 MLOAD PUSH4 0x2E47FBD5 PUSH1 0xE0 SHL DUP2 MSTORE PUSH1 0x4 DUP2 ADD DUP4 SWAP1 MSTORE PUSH1 0x1 PUSH1 0x1 PUSH1 0xA0 SHL SUB SWAP1 SWAP2 AND SWAP1 PUSH4 0x2E47FBD5 SWAP1 PUSH1 0x24 ADD JUMPDEST PUSH1 0x0 PUSH1 0x40 MLOAD DUP1 DUP4 SUB DUP2 PUSH1 0x0 DUP8 DUP1 EXTCODESIZE ISZERO DUP1 ISZERO PUSH2 0x35D JUMPI PUSH1 0x0 DUP1 REVERT JUMPDEST POP GAS CALL ISZERO DUP1 ISZERO PUSH2 0x371 JUMPI RETURNDATASIZE PUSH1 0x0 DUP1 RETURNDATACOPY RETURNDATASIZE PUSH1 0x0 REVERT JUMPDEST POP POP POP POP POP JUMP JUMPDEST PUSH2 0x380 PUSH2 0x60C JUMP JUMPDEST PUSH1 0x0 DUP1 SLOAD SWAP2 NOT SWAP1 SWAP2 AND SWAP1 SSTORE POP JUMP JUMPDEST PUSH1 0x0 JUMPDEST DUP1 PUSH2 0x4D9 JUMPI PUSH1 0x10 DUP1 SLOAD SWAP1 PUSH1 0x0 PUSH2 0x3A6 DUP4 PUSH2 0x1160 JUMP JUMPDEST SWAP2 SWAP1 POP SSTORE POP DUP2 PUSH1 0x2 AND PUSH1 0x2 SUB PUSH2 0x3C6 JUMPI PUSH2 0x3BF DUP3 PUSH2 0xA69 JUMP JUMPDEST SWAP2 POP PUSH2 0x391 JUMP JUMPDEST DUP2 PUSH1 0x4 AND PUSH1 0x4 SUB PUSH2 0x3DA JUMPI PUSH2 0x3BF DUP3 PUSH2 0xB00 JUMP JUMPDEST DUP2 PUSH1 0x10 AND PUSH1 0x10 SUB PUSH2 0x3EE JUMPI PUSH2 0x3BF DUP3 PUSH2 0xB97 JUMP JUMPDEST DUP2 PUSH1 0x20 AND PUSH1 0x20 SUB PUSH2 0x402 JUMPI PUSH2 0x3BF DUP3 PUSH2 0xC2E JUMP JUMPDEST DUP2 PUSH2 0x100 AND PUSH2 0x100 SUB PUSH2 0x418 JUMPI PUSH2 0x3BF DUP3 PUSH2 0xCC5 JUMP JUMPDEST DUP2 PUSH2 0x200 AND PUSH2 0x200 SUB PUSH2 0x42E JUMPI PUSH2 0x3BF DUP3 PUSH2 0xD5D JUMP JUMPDEST DUP2 PUSH2 0x400 AND PUSH2 0x400 SUB PUSH2 0x444 JUMPI PUSH2 0x3BF DUP3 PUSH2 0xDF5 JUMP JUMPDEST DUP2 PUSH2 0x800 AND PUSH2 0x800 SUB PUSH2 0x45A JUMPI PUSH2 0x3BF DUP3 PUSH2 0xE8D JUMP JUMPDEST DUP2 PUSH2 0x1000 AND PUSH2 0x1000 SUB PUSH2 0x470 JUMPI PUSH2 0x3BF DUP3 PUSH2 0xF25 JUMP JUMPDEST DUP2 PUSH2 0x2000 AND PUSH2 0x2000 SUB PUSH2 0x486 JUMPI PUSH2 0x3BF DUP3 PUSH2 0xFBD JUMP JUMPDEST DUP2 PUSH2 0x4000 AND PUSH2 0x4000 SUB PUSH2 0x49C JUMPI PUSH2 0x3BF DUP3 PUSH2 0x1055 JUMP JUMPDEST DUP2 PUSH1 0x8 AND PUSH1 0x8 SUB PUSH2 0x4B6 JUMPI PUSH1 0x8 NOT DUP3 AND PUSH1 0x30 OR SWAP2 POP PUSH2 0x391 JUMP JUMPDEST DUP2 PUSH1 0xC0 AND PUSH1 0xC0 SUB PUSH2 0x4D1 JUMPI PUSH1 0xC0 NOT DUP3 AND PUSH2 0x100 OR SWAP2 POP PUSH2 0x391 JUMP JUMPDEST POP PUSH1 0x1 PUSH2 0x391 JUMP JUMPDEST POP PUSH1 0x0 SSTORE JUMP JUMPDEST PUSH1 0x0 PUSH1 0x8 SLOAD PUSH1 0x0 SUB PUSH2 0x4F3 JUMPI POP PUSH1 0x0 SWAP2 SWAP1 POP JUMP JUMPDEST PUSH1 0x8 SLOAD PUSH1 0x1 DUP4 SHL SWAP1 DUP2 AND DUP2 SWAP1 SUB PUSH2 0x548 JUMPI PUSH1 0x8 DUP1 SLOAD DUP3 NOT AND SWAP1 SSTORE PUSH1 0x0 SLOAD PUSH2 0x51C SWAP1 PUSH1 0x80 OR PUSH2 0x38E JUMP JUMPDEST PUSH1 0x40 MLOAD PUSH1 0x4 DUP2 MSTORE PUSH1 0x0 DUP1 MLOAD PUSH1 0x20 PUSH2 0x11A1 DUP4 CODECOPY DUP2 MLOAD SWAP2 MSTORE SWAP1 PUSH1 0x20 ADD JUMPDEST PUSH1 0x40 MLOAD DUP1 SWAP2 SUB SWAP1 LOG1 POP PUSH1 0x1 SWAP3 SWAP2 POP POP JUMP JUMPDEST POP PUSH1 0x0 SWAP3 SWAP2 POP POP JUMP JUMPDEST PUSH1 0x0 PUSH1 0xE SLOAD PUSH1 0x0 SUB PUSH2 0x565 JUMPI POP PUSH1 0x0 SWAP2 SWAP1 POP JUMP JUMPDEST PUSH1 0xE SLOAD PUSH1 0x1 DUP4 SHL SWAP1 DUP2 AND DUP2 SWAP1 SUB PUSH2 0x548 JUMPI PUSH1 0xE DUP1 SLOAD DUP3 NOT AND SWAP1 SSTORE PUSH1 0x0 SLOAD PUSH2 0x58F SWAP1 PUSH2 0x2000 OR PUSH2 0x38E JUMP JUMPDEST PUSH1 0x40 MLOAD PUSH2 0x100 DUP2 MSTORE PUSH1 0x0 DUP1 MLOAD PUSH1 0x20 PUSH2 0x11A1 DUP4 CODECOPY DUP2 MLOAD SWAP2 MSTORE SWAP1 PUSH1 0x20 ADD PUSH2 0x537 JUMP JUMPDEST PUSH1 0x0 PUSH1 0xA SLOAD PUSH1 0x0 SUB PUSH2 0x5C3 JUMPI POP PUSH1 0x0 SWAP2 SWAP1 POP JUMP JUMPDEST PUSH1 0xA SLOAD PUSH1 0x1 DUP4 SHL SWAP1 DUP2 AND DUP2 SWAP1 SUB PUSH2 0x548 JUMPI PUSH1 0xA DUP1 SLOAD DUP3 NOT AND SWAP1 SSTORE PUSH1 0x0 SLOAD PUSH2 0x5ED SWAP1 PUSH2 0x200 OR PUSH2 0x38E JUMP JUMPDEST PUSH1 0x40 MLOAD PUSH1 0x10 DUP2 MSTORE PUSH1 0x0 DUP1 MLOAD PUSH1 0x20 PUSH2 0x11A1 DUP4 CODECOPY DUP2 MLOAD SWAP2 MSTORE SWAP1 PUSH1 0x20 ADD PUSH2 0x537 JUMP JUMPDEST PUSH1 0x0 PUSH1 0x6 DUP2 SWAP1 SSTORE PUSH1 0x7 DUP2 SWAP1 SSTORE PUSH1 0x8 DUP2 SWAP1 SSTORE PUSH1 0x9 DUP2 SWAP1 SSTORE PUSH1 0xA DUP2 SWAP1 SSTORE PUSH1 0xB DUP2 SWAP1 SSTORE PUSH1 0xC DUP2 SWAP1 SSTORE PUSH1 0xD DUP2 SWAP1 SSTORE PUSH1 0xE DUP2 SWAP1 SSTORE PUSH1 0xF DUP2 SWAP1 SSTORE DUP1 SLOAD PUSH2 0x7FFE NOT AND DUP2 SSTORE SWAP1 JUMP JUMPDEST PUSH1 0x0 DUP2 PUSH1 0x1 SUB PUSH2 0x65E JUMPI POP POP PUSH1 0x6 SLOAD SWAP1 JUMP JUMPDEST DUP2 PUSH1 0x2 SUB PUSH2 0x66E JUMPI POP POP PUSH1 0x7 SLOAD SWAP1 JUMP JUMPDEST DUP2 PUSH1 0x4 SUB PUSH2 0x67E JUMPI POP POP PUSH1 0x8 SLOAD SWAP1 JUMP JUMPDEST DUP2 PUSH1 0x8 SUB PUSH2 0x68E JUMPI POP POP PUSH1 0x9 SLOAD SWAP1 JUMP JUMPDEST DUP2 PUSH1 0x10 SUB PUSH2 0x69E JUMPI POP POP PUSH1 0xA SLOAD SWAP1 JUMP JUMPDEST DUP2 PUSH1 0x20 SUB PUSH2 0x6AE JUMPI POP POP PUSH1 0xB SLOAD SWAP1 JUMP JUMPDEST DUP2 PUSH1 0x40 SUB PUSH2 0x6BE JUMPI POP POP PUSH1 0xC SLOAD SWAP1 JUMP JUMPDEST DUP2 PUSH1 0x80 SUB PUSH2 0x6CE JUMPI POP POP PUSH1 0xD SLOAD SWAP1 JUMP JUMPDEST DUP2 PUSH2 0x100 SUB PUSH2 0x6DF JUMPI POP POP PUSH1 0xE SLOAD SWAP1 JUMP JUMPDEST DUP2 PUSH2 0x200 SUB PUSH2 0x6F0 JUMPI POP POP PUSH1 0xF SLOAD SWAP1 JUMP JUMPDEST SWAP2 SWAP1 POP JUMP JUMPDEST PUSH1 0x0 PUSH1 0x9 SLOAD PUSH1 0x0 SUB PUSH2 0x709 JUMPI POP PUSH1 0x0 SWAP2 SWAP1 POP JUMP JUMPDEST PUSH1 0x9 SLOAD PUSH1 0x1 DUP4 SHL SWAP1 DUP2 AND DUP2 SWAP1 SUB PUSH2 0x548 JUMPI PUSH1 0x9 DUP1 SLOAD DUP3 NOT AND SWAP1 SSTORE PUSH1 0x0 SLOAD PUSH2 0x732 SWAP1 PUSH1 0x40 OR PUSH2 0x38E JUMP JUMPDEST PUSH1 0x40 MLOAD PUSH1 0x8 DUP2 MSTORE PUSH1 0x0 DUP1 MLOAD PUSH1 0x20 PUSH2 0x11A1 DUP4 CODECOPY DUP2 MLOAD SWAP2 MSTORE SWAP1 PUSH1 0x20 ADD PUSH2 0x537 JUMP JUMPDEST PUSH1 0x0 PUSH1 0xD SLOAD PUSH1 0x0 SUB PUSH2 0x765 JUMPI POP PUSH1 0x0 SWAP2 SWAP1 POP JUMP JUMPDEST PUSH1 0xD SLOAD PUSH1 0x1 DUP4 SHL SWAP1 DUP2 AND DUP2 SWAP1 SUB PUSH2 0x548 JUMPI PUSH1 0xD DUP1 SLOAD DUP3 NOT AND SWAP1 SSTORE PUSH1 0x0 SLOAD PUSH2 0x78F SWAP1 PUSH2 0x1000 OR PUSH2 0x38E JUMP JUMPDEST PUSH1 0x40 MLOAD PUSH1 0x80 DUP2 MSTORE PUSH1 0x0 DUP1 MLOAD PUSH1 0x20 PUSH2 0x11A1 DUP4 CODECOPY DUP2 MLOAD SWAP2 MSTORE SWAP1 PUSH1 0x20 ADD PUSH2 0x537 JUMP JUMPDEST PUSH1 0x0 PUSH1 0xF SLOAD PUSH1 0x0 SUB PUSH2 0x7C2 JUMPI POP PUSH1 0x0 SWAP2 SWAP1 POP JUMP JUMPDEST PUSH1 0xF SLOAD PUSH1 0x1 DUP4 SHL SWAP1 DUP2 AND DUP2 SWAP1 SUB PUSH2 0x548 JUMPI PUSH1 0xF DUP1 SLOAD DUP3 NOT AND SWAP1 SSTORE PUSH1 0x0 SLOAD PUSH2 0x7EC SWAP1 PUSH2 0x4000 OR PUSH2 0x38E JUMP JUMPDEST PUSH1 0x40 MLOAD PUSH2 0x200 DUP2 MSTORE PUSH1 0x0 DUP1 MLOAD PUSH1 0x20 PUSH2 0x11A1 DUP4 CODECOPY DUP2 MLOAD SWAP2 MSTORE SWAP1 PUSH1 0x20 ADD PUSH2 0x537 JUMP JUMPDEST PUSH1 0x0 PUSH1 0x7 SLOAD PUSH1 0x0 SUB PUSH2 0x820 JUMPI POP PUSH1 0x0 SWAP2 SWAP1 POP JUMP JUMPDEST PUSH1 0x7 SLOAD PUSH1 0x1 DUP4 SHL SWAP1 DUP2 AND DUP2 SWAP1 SUB PUSH2 0x548 JUMPI PUSH1 0x7 DUP1 SLOAD DUP3 NOT AND SWAP1 SSTORE PUSH1 0x0 PUSH1 0x10 DUP2 SWAP1 SSTORE SLOAD PUSH2 0x84E SWAP1 PUSH1 0x8 OR PUSH2 0x38E JUMP JUMPDEST PUSH1 0x40 MLOAD PUSH1 0x2 DUP2 MSTORE PUSH1 0x0 DUP1 MLOAD PUSH1 0x20 PUSH2 0x11A1 DUP4 CODECOPY DUP2 MLOAD SWAP2 MSTORE SWAP1 PUSH1 0x20 ADD PUSH2 0x537 JUMP JUMPDEST PUSH1 0x0 PUSH1 0x6 SLOAD PUSH1 0x0 SUB PUSH2 0x881 JUMPI POP PUSH1 0x0 SWAP2 SWAP1 POP JUMP JUMPDEST PUSH1 0x6 SLOAD PUSH1 0x1 DUP4 SHL SWAP1 DUP2 AND DUP2 SWAP1 SUB PUSH2 0x548 JUMPI PUSH1 0x6 DUP1 SLOAD DUP3 NOT AND SWAP1 SSTORE PUSH1 0x0 SLOAD PUSH2 0x8AA SWAP1 PUSH1 0x4 OR PUSH2 0x38E JUMP JUMPDEST PUSH1 0x40 MLOAD PUSH1 0x1 DUP2 MSTORE PUSH1 0x0 DUP1 MLOAD PUSH1 0x20 PUSH2 0x11A1 DUP4 CODECOPY DUP2 MLOAD SWAP2 MSTORE SWAP1 PUSH1 0x20 ADD PUSH2 0x537 JUMP JUMPDEST PUSH1 0x0 DUP1 SLOAD PUSH1 0x6 SLOAD DUP3 SWAP2 SWAP1 ISZERO PUSH2 0x8DF JUMPI PUSH1 0x1 DUP3 OR SWAP2 POP JUMPDEST PUSH1 0x7 SLOAD ISZERO PUSH2 0x8EE JUMPI PUSH1 0x2 DUP3 OR SWAP2 POP JUMPDEST PUSH1 0x8 SLOAD ISZERO PUSH2 0x8FD JUMPI PUSH1 0x4 DUP3 OR SWAP2 POP JUMPDEST PUSH1 0x9 SLOAD ISZERO PUSH2 0x90C JUMPI PUSH1 0x8 DUP3 OR SWAP2 POP JUMPDEST PUSH1 0xA SLOAD ISZERO PUSH2 0x91B JUMPI PUSH1 0x10 DUP3 OR SWAP2 POP JUMPDEST PUSH1 0xB SLOAD ISZERO PUSH2 0x92A JUMPI PUSH1 0x20 DUP3 OR SWAP2 POP JUMPDEST PUSH1 0xC SLOAD ISZERO PUSH2 0x939 JUMPI PUSH1 0x40 DUP3 OR SWAP2 POP JUMPDEST PUSH1 0xD SLOAD ISZERO PUSH2 0x948 JUMPI PUSH1 0x80 DUP3 OR SWAP2 POP JUMPDEST PUSH1 0xE SLOAD ISZERO PUSH2 0x958 JUMPI PUSH2 0x100 DUP3 OR SWAP2 POP JUMPDEST PUSH1 0xF SLOAD ISZERO PUSH2 0x968 JUMPI PUSH2 0x200 DUP3 OR SWAP2 POP JUMPDEST POP SWAP2 SWAP1 POP JUMP JUMPDEST PUSH1 0x2 SLOAD PUSH1 0x1 PUSH1 0x1 PUSH1 0xA0 SHL SUB AND ISZERO PUSH2 0x302 JUMPI PUSH1 0x2 SLOAD PUSH1 0x40 MLOAD PUSH4 0xBE801757 PUSH1 0xE0 SHL DUP2 MSTORE PUSH1 0x4 DUP2 ADD DUP4 SWAP1 MSTORE PUSH1 0x1 PUSH1 0x1 PUSH1 0xA0 SHL SUB SWAP1 SWAP2 AND SWAP1 PUSH4 0xBE801757 SWAP1 PUSH1 0x24 ADD PUSH2 0x343 JUMP JUMPDEST PUSH1 0x0 PUSH1 0xC SLOAD PUSH1 0x0 SUB PUSH2 0x9C4 JUMPI POP PUSH1 0x0 SWAP2 SWAP1 POP JUMP JUMPDEST PUSH1 0xC SLOAD PUSH1 0x1 DUP4 SHL SWAP1 DUP2 AND DUP2 SWAP1 SUB PUSH2 0x548 JUMPI PUSH1 0xC DUP1 SLOAD DUP3 NOT AND SWAP1 SSTORE PUSH1 0x0 SLOAD PUSH2 0x9EE SWAP1 PUSH2 0x800 OR PUSH2 0x38E JUMP JUMPDEST PUSH1 0x0 DUP1 MLOAD PUSH1 0x20 PUSH2 0x11A1 DUP4 CODECOPY DUP2 MLOAD SWAP2 MSTORE PUSH1 0x40 DUP1 MLOAD PUSH2 0x537 SWAP2 DUP2 MSTORE PUSH1 0x20 ADD SWAP1 JUMP JUMPDEST PUSH1 0x0 PUSH1 0xB SLOAD PUSH1 0x0 SUB PUSH2 0xA21 JUMPI POP PUSH1 0x0 SWAP2 SWAP1 POP JUMP JUMPDEST PUSH1 0xB SLOAD PUSH1 0x1 DUP4 SHL SWAP1 DUP2 AND DUP2 SWAP1 SUB PUSH2 0x548 JUMPI PUSH1 0xB DUP1 SLOAD DUP3 NOT AND SWAP1 SSTORE PUSH1 0x0 SLOAD PUSH2 0xA4B SWAP1 PUSH2 0x400 OR PUSH2 0x38E JUMP JUMPDEST PUSH1 0x40 MLOAD PUSH1 0x20 DUP1 DUP3 MSTORE PUSH1 0x0 DUP1 MLOAD PUSH1 0x20 PUSH2 0x11A1 DUP4 CODECOPY DUP2 MLOAD SWAP2 MSTORE SWAP2 ADD PUSH2 0x537 JUMP JUMPDEST PUSH1 0x5 SLOAD PUSH1 0x40 DUP1 MLOAD PUSH4 0x2A142DF5 PUSH1 0xE1 SHL DUP2 MSTORE ADDRESS PUSH1 0x20 SHL PUSH4 0xB7D11D3F OR SWAP1 SWAP2 SHL PUSH1 0x4 DUP3 ADD MSTORE PUSH1 0x0 SWAP2 DUP3 SWAP2 PUSH1 0x1 PUSH1 0x1 PUSH1 0xA0 SHL SUB SWAP1 SWAP2 AND SWAP1 PUSH4 0x54285BEA SWAP1 PUSH1 0x24 ADD PUSH1 0x20 PUSH1 0x40 MLOAD DUP1 DUP4 SUB DUP2 PUSH1 0x0 DUP8 GAS CALL ISZERO DUP1 ISZERO PUSH2 0xAC5 JUMPI RETURNDATASIZE PUSH1 0x0 DUP1 RETURNDATACOPY RETURNDATASIZE PUSH1 0x0 REVERT JUMPDEST POP POP POP POP PUSH1 0x40 MLOAD RETURNDATASIZE PUSH1 0x1F NOT PUSH1 0x1F DUP3 ADD AND DUP3 ADD DUP1 PUSH1 0x40 MSTORE POP DUP2 ADD SWAP1 PUSH2 0xAE9 SWAP2 SWAP1 PUSH2 0x1187 JUMP JUMPDEST PUSH1 0x6 DUP1 SLOAD PUSH1 0x1 SWAP1 SWAP3 SHL SWAP1 SWAP2 OR SWAP1 SSTORE POP POP PUSH1 0x2 NOT AND SWAP1 JUMP JUMPDEST PUSH1 0x5 SLOAD PUSH1 0x40 DUP1 MLOAD PUSH4 0x2A142DF5 PUSH1 0xE1 SHL DUP2 MSTORE ADDRESS PUSH1 0x20 SHL PUSH4 0xAF332D95 OR SWAP1 SWAP2 SHL PUSH1 0x4 DUP3 ADD MSTORE PUSH1 0x0 SWAP2 DUP3 SWAP2 PUSH1 0x1 PUSH1 0x1 PUSH1 0xA0 SHL SUB SWAP1 SWAP2 AND SWAP1 PUSH4 0x54285BEA SWAP1 PUSH1 0x24 ADD PUSH1 0x20 PUSH1 0x40 MLOAD DUP1 DUP4 SUB DUP2 PUSH1 0x0 DUP8 GAS CALL ISZERO DUP1 ISZERO PUSH2 0xB5C JUMPI RETURNDATASIZE PUSH1 0x0 DUP1 RETURNDATACOPY RETURNDATASIZE PUSH1 0x0 REVERT JUMPDEST POP POP POP POP PUSH1 0x40 MLOAD RETURNDATASIZE PUSH1 0x1F NOT PUSH1 0x1F DUP3 ADD AND DUP3 ADD DUP1 PUSH1 0x40 MSTORE POP DUP2 ADD SWAP1 PUSH2 0xB80 SWAP2 SWAP1 PUSH2 0x1187 JUMP JUMPDEST PUSH1 0x7 DUP1 SLOAD PUSH1 0x1 SWAP1 SWAP3 SHL SWAP1 SWAP2 OR SWAP1 SSTORE POP POP PUSH1 0x4 NOT AND SWAP1 JUMP JUMPDEST PUSH1 0x5 SLOAD PUSH1 0x40 DUP1 MLOAD PUSH4 0x2A142DF5 PUSH1 0xE1 SHL DUP2 MSTORE ADDRESS PUSH1 0x20 SHL PUSH4 0x4118C2A0 OR SWAP1 SWAP2 SHL PUSH1 0x4 DUP3 ADD MSTORE PUSH1 0x0 SWAP2 DUP3 SWAP2 PUSH1 0x1 PUSH1 0x1 PUSH1 0xA0 SHL SUB SWAP1 SWAP2 AND SWAP1 PUSH4 0x54285BEA SWAP1 PUSH1 0x24 ADD PUSH1 0x20 PUSH1 0x40 MLOAD DUP1 DUP4 SUB DUP2 PUSH1 0x0 DUP8 GAS CALL ISZERO DUP1 ISZERO PUSH2 0xBF3 JUMPI RETURNDATASIZE PUSH1 0x0 DUP1 RETURNDATACOPY RETURNDATASIZE PUSH1 0x0 REVERT JUMPDEST POP POP POP POP PUSH1 0x40 MLOAD RETURNDATASIZE PUSH1 0x1F NOT PUSH1 0x1F DUP3 ADD AND DUP3 ADD DUP1 PUSH1 0x40 MSTORE POP DUP2 ADD SWAP1 PUSH2 0xC17 SWAP2 SWAP1 PUSH2 0x1187 JUMP JUMPDEST PUSH1 0x8 DUP1 SLOAD PUSH1 0x1 SWAP1 SWAP3 SHL SWAP1 SWAP2 OR SWAP1 SSTORE POP POP PUSH1 0x10 NOT AND SWAP1 JUMP JUMPDEST PUSH1 0x5 SLOAD PUSH1 0x40 DUP1 MLOAD PUSH4 0x2A142DF5 PUSH1 0xE1 SHL DUP2 MSTORE ADDRESS PUSH1 0x20 SHL PUSH4 0x7DC74DA9 OR SWAP1 SWAP2 SHL PUSH1 0x4 DUP3 ADD MSTORE PUSH1 0x0 SWAP2 DUP3 SWAP2 PUSH1 0x1 PUSH1 0x1 PUSH1 0xA0 SHL SUB SWAP1 SWAP2 AND SWAP1 PUSH4 0x54285BEA SWAP1 PUSH1 0x24 ADD PUSH1 0x20 PUSH1 0x40 MLOAD DUP1 DUP4 SUB DUP2 PUSH1 0x0 DUP8 GAS CALL ISZERO DUP1 ISZERO PUSH2 0xC8A JUMPI RETURNDATASIZE PUSH1 0x0 DUP1 RETURNDATACOPY RETURNDATASIZE PUSH1 0x0 REVERT JUMPDEST POP POP POP POP PUSH1 0x40 MLOAD RETURNDATASIZE PUSH1 0x1F NOT PUSH1 0x1F DUP3 ADD AND DUP3 ADD DUP1 PUSH1 0x40 MSTORE POP DUP2 ADD SWAP1 PUSH2 0xCAE SWAP2 SWAP1 PUSH2 0x1187 JUMP JUMPDEST PUSH1 0x9 DUP1 SLOAD PUSH1 0x1 SWAP1 SWAP3 SHL SWAP1 SWAP2 OR SWAP1 SSTORE POP POP PUSH1 0x20 NOT AND SWAP1 JUMP JUMPDEST PUSH1 0x5 SLOAD PUSH1 0x40 DUP1 MLOAD PUSH4 0x2A142DF5 PUSH1 0xE1 SHL DUP2 MSTORE ADDRESS PUSH1 0x20 SHL PUSH4 0x53848421 OR SWAP1 SWAP2 SHL PUSH1 0x4 DUP3 ADD MSTORE PUSH1 0x0 SWAP2 DUP3 SWAP2 PUSH1 0x1 PUSH1 0x1 PUSH1 0xA0 SHL SUB SWAP1 SWAP2 AND SWAP1 PUSH4 0x54285BEA SWAP1 PUSH1 0x24 ADD PUSH1 0x20 PUSH1 0x40 MLOAD DUP1 DUP4 SUB DUP2 PUSH1 0x0 DUP8 GAS CALL ISZERO DUP1 ISZERO PUSH2 0xD21 JUMPI RETURNDATASIZE PUSH1 0x0 DUP1 RETURNDATACOPY RETURNDATASIZE PUSH1 0x0 REVERT JUMPDEST POP POP POP POP PUSH1 0x40 MLOAD RETURNDATASIZE PUSH1 0x1F NOT PUSH1 0x1F DUP3 ADD AND DUP3 ADD DUP1 PUSH1 0x40 MSTORE POP DUP2 ADD SWAP1 PUSH2 0xD45 SWAP2 SWAP1 PUSH2 0x1187 JUMP JUMPDEST PUSH1 0xA DUP1 SLOAD PUSH1 0x1 SWAP1 SWAP3 SHL SWAP1 SWAP2 OR SWAP1 SSTORE POP POP PUSH2 0x100 NOT AND SWAP1 JUMP JUMPDEST PUSH1 0x5 SLOAD PUSH1 0x40 DUP1 MLOAD PUSH4 0x2A142DF5 PUSH1 0xE1 SHL DUP2 MSTORE ADDRESS PUSH1 0x20 SHL PUSH4 0xF02637C1 OR SWAP1 SWAP2 SHL PUSH1 0x4 DUP3 ADD MSTORE PUSH1 0x0 SWAP2 DUP3 SWAP2 PUSH1 0x1 PUSH1 0x1 PUSH1 0xA0 SHL SUB SWAP1 SWAP2 AND SWAP1 PUSH4 0x54285BEA SWAP1 PUSH1 0x24 ADD PUSH1 0x20 PUSH1 0x40 MLOAD DUP1 DUP4 SUB DUP2 PUSH1 0x0 DUP8 GAS CALL ISZERO DUP1 ISZERO PUSH2 0xDB9 JUMPI RETURNDATASIZE PUSH1 0x0 DUP1 RETURNDATACOPY RETURNDATASIZE PUSH1 0x0 REVERT JUMPDEST POP POP POP POP PUSH1 0x40 MLOAD RETURNDATASIZE PUSH1 0x1F NOT PUSH1 0x1F DUP3 ADD AND DUP3 ADD DUP1 PUSH1 0x40 MSTORE POP DUP2 ADD SWAP1 PUSH2 0xDDD SWAP2 SWAP1 PUSH2 0x1187 JUMP JUMPDEST PUSH1 0xB DUP1 SLOAD PUSH1 0x1 SWAP1 SWAP3 SHL SWAP1 SWAP2 OR SWAP1 SSTORE POP POP PUSH2 0x200 NOT AND SWAP1 JUMP JUMPDEST PUSH1 0x5 SLOAD PUSH1 0x40 DUP1 MLOAD PUSH4 0x2A142DF5 PUSH1 0xE1 SHL DUP2 MSTORE ADDRESS PUSH1 0x20 SHL PUSH4 0xE2D6FF95 OR SWAP1 SWAP2 SHL PUSH1 0x4 DUP3 ADD MSTORE PUSH1 0x0 SWAP2 DUP3 SWAP2 PUSH1 0x1 PUSH1 0x1 PUSH1 0xA0 SHL SUB SWAP1 SWAP2 AND SWAP1 PUSH4 0x54285BEA SWAP1 PUSH1 0x24 ADD PUSH1 0x20 PUSH1 0x40 MLOAD DUP1 DUP4 SUB DUP2 PUSH1 0x0 DUP8 GAS CALL ISZERO DUP1 ISZERO PUSH2 0xE51 JUMPI RETURNDATASIZE PUSH1 0x0 DUP1 RETURNDATACOPY RETURNDATASIZE PUSH1 0x0 REVERT JUMPDEST POP POP POP POP PUSH1 0x40 MLOAD RETURNDATASIZE PUSH1 0x1F NOT PUSH1 0x1F DUP3 ADD AND DUP3 ADD DUP1 PUSH1 0x40 MSTORE POP DUP2 ADD SWAP1 PUSH2 0xE75 SWAP2 SWAP1 PUSH2 0x1187 JUMP JUMPDEST PUSH1 0xC DUP1 SLOAD PUSH1 0x1 SWAP1 SWAP3 SHL SWAP1 SWAP2 OR SWAP1 SSTORE POP POP PUSH2 0x400 NOT AND SWAP1 JUMP JUMPDEST PUSH1 0x5 SLOAD PUSH1 0x40 DUP1 MLOAD PUSH4 0x2A142DF5 PUSH1 0xE1 SHL DUP2 MSTORE ADDRESS PUSH1 0x20 SHL PUSH4 0x8F4C0C6F OR SWAP1 SWAP2 SHL PUSH1 0x4 DUP3 ADD MSTORE PUSH1 0x0 SWAP2 DUP3 SWAP2 PUSH1 0x1 PUSH1 0x1 PUSH1 0xA0 SHL SUB SWAP1 SWAP2 AND SWAP1 PUSH4 0x54285BEA SWAP1 PUSH1 0x24 ADD PUSH1 0x20 PUSH1 0x40 MLOAD DUP1 DUP4 SUB DUP2 PUSH1 0x0 DUP8 GAS CALL ISZERO DUP1 ISZERO PUSH2 0xEE9 JUMPI RETURNDATASIZE PUSH1 0x0 DUP1 RETURNDATACOPY RETURNDATASIZE PUSH1 0x0 REVERT JUMPDEST POP POP POP POP PUSH1 0x40 MLOAD RETURNDATASIZE PUSH1 0x1F NOT PUSH1 0x1F DUP3 ADD AND DUP3 ADD DUP1 PUSH1 0x40 MSTORE POP DUP2 ADD SWAP1 PUSH2 0xF0D SWAP2 SWAP1 PUSH2 0x1187 JUMP JUMPDEST PUSH1 0xD DUP1 SLOAD PUSH1 0x1 SWAP1 SWAP3 SHL SWAP1 SWAP2 OR SWAP1 SSTORE POP POP PUSH2 0x800 NOT AND SWAP1 JUMP JUMPDEST PUSH1 0x5 SLOAD PUSH1 0x40 DUP1 MLOAD PUSH4 0x2A142DF5 PUSH1 0xE1 SHL DUP2 MSTORE ADDRESS PUSH1 0x20 SHL PUSH4 0x535D36EA OR SWAP1 SWAP2 SHL PUSH1 0x4 DUP3 ADD MSTORE PUSH1 0x0 SWAP2 DUP3 SWAP2 PUSH1 0x1 PUSH1 0x1 PUSH1 0xA0 SHL SUB SWAP1 SWAP2 AND SWAP1 PUSH4 0x54285BEA SWAP1 PUSH1 0x24 ADD PUSH1 0x20 PUSH1 0x40 MLOAD DUP1 DUP4 SUB DUP2 PUSH1 0x0 DUP8 GAS CALL ISZERO DUP1 ISZERO PUSH2 0xF81 JUMPI RETURNDATASIZE PUSH1 0x0 DUP1 RETURNDATACOPY RETURNDATASIZE PUSH1 0x0 REVERT JUMPDEST POP POP POP POP PUSH1 0x40 MLOAD RETURNDATASIZE PUSH1 0x1F NOT PUSH1 0x1F DUP3 ADD AND DUP3 ADD DUP1 PUSH1 0x40 MSTORE POP DUP2 ADD SWAP1 PUSH2 0xFA5 SWAP2 SWAP1 PUSH2 0x1187 JUMP JUMPDEST PUSH1 0xE DUP1 SLOAD PUSH1 0x1 SWAP1 SWAP3 SHL SWAP1 SWAP2 OR SWAP1 SSTORE POP POP PUSH2 0x1000 NOT AND SWAP1 JUMP JUMPDEST PUSH1 0x5 SLOAD PUSH1 0x40 DUP1 MLOAD PUSH4 0x2A142DF5 PUSH1 0xE1 SHL DUP2 MSTORE ADDRESS PUSH1 0x20 SHL PUSH4 0xA96035DC OR SWAP1 SWAP2 SHL PUSH1 0x4 DUP3 ADD MSTORE PUSH1 0x0 SWAP2 DUP3 SWAP2 PUSH1 0x1 PUSH1 0x1 PUSH1 0xA0 SHL SUB SWAP1 SWAP2 AND SWAP1 PUSH4 0x54285BEA SWAP1 PUSH1 0x24 ADD PUSH1 0x20 PUSH1 0x40 MLOAD DUP1 DUP4 SUB DUP2 PUSH1 0x0 DUP8 GAS CALL ISZERO DUP1 ISZERO PUSH2 0x1019 JUMPI RETURNDATASIZE PUSH1 0x0 DUP1 RETURNDATACOPY RETURNDATASIZE PUSH1 0x0 REVERT JUMPDEST POP POP POP POP PUSH1 0x40 MLOAD RETURNDATASIZE PUSH1 0x1F NOT PUSH1 0x1F DUP3 ADD AND DUP3 ADD DUP1 PUSH1 0x40 MSTORE POP DUP2 ADD SWAP1 PUSH2 0x103D SWAP2 SWAP1 PUSH2 0x1187 JUMP JUMPDEST PUSH1 0xF DUP1 SLOAD PUSH1 0x1 SWAP1 SWAP3 SHL SWAP1 SWAP2 OR SWAP1 SSTORE POP POP PUSH2 0x2000 NOT AND SWAP1 JUMP JUMPDEST PUSH2 0x4000 NOT DUP2 AND PUSH1 0x0 SWAP1 DUP2 SSTORE PUSH2 0x3FFE DUP3 AND ISZERO PUSH2 0x1072 JUMPI POP POP PUSH1 0x0 SLOAD SWAP1 JUMP JUMPDEST PUSH1 0x2 SLOAD PUSH1 0x1 PUSH1 0x1 PUSH1 0xA0 SHL SUB AND ISZERO PUSH2 0x10EC JUMPI PUSH1 0x2 PUSH1 0x0 SWAP1 SLOAD SWAP1 PUSH2 0x100 EXP SWAP1 DIV PUSH1 0x1 PUSH1 0x1 PUSH1 0xA0 SHL SUB AND PUSH1 0x1 PUSH1 0x1 PUSH1 0xA0 SHL SUB AND PUSH4 0x6B99255B PUSH1 0x40 MLOAD DUP2 PUSH4 0xFFFFFFFF AND PUSH1 0xE0 SHL DUP2 MSTORE PUSH1 0x4 ADD PUSH1 0x0 PUSH1 0x40 MLOAD DUP1 DUP4 SUB DUP2 PUSH1 0x0 DUP8 DUP1 EXTCODESIZE ISZERO DUP1 ISZERO PUSH2 0x10D3 JUMPI PUSH1 0x0 DUP1 REVERT JUMPDEST POP GAS CALL ISZERO DUP1 ISZERO PUSH2 0x10E7 JUMPI RETURNDATASIZE PUSH1 0x0 DUP1 RETURNDATACOPY RETURNDATASIZE PUSH1 0x0 REVERT JUMPDEST POP POP POP POP JUMPDEST PUSH1 0x40 MLOAD PUSH2 0x400 DUP2 MSTORE PUSH1 0x0 DUP1 MLOAD PUSH1 0x20 PUSH2 0x11A1 DUP4 CODECOPY DUP2 MLOAD SWAP2 MSTORE SWAP1 PUSH1 0x20 ADD PUSH1 0x40 MLOAD DUP1 SWAP2 SUB SWAP1 LOG1 POP POP PUSH1 0x0 SLOAD SWAP1 JUMP JUMPDEST PUSH1 0x0 PUSH1 0x20 DUP3 DUP5 SUB SLT ISZERO PUSH2 0x1129 JUMPI PUSH1 0x0 DUP1 REVERT JUMPDEST DUP2 CALLDATALOAD PUSH1 0x1 PUSH1 0x1 PUSH1 0xA0 SHL SUB DUP2 AND DUP2 EQ PUSH2 0x1140 JUMPI PUSH1 0x0 DUP1 REVERT JUMPDEST SWAP4 SWAP3 POP POP POP JUMP JUMPDEST PUSH1 0x0 PUSH1 0x20 DUP3 DUP5 SUB SLT ISZERO PUSH2 0x1159 JUMPI PUSH1 0x0 DUP1 REVERT JUMPDEST POP CALLDATALOAD SWAP2 SWAP1 POP JUMP JUMPDEST PUSH1 0x0 PUSH1 0x1 DUP3 ADD PUSH2 0x1180 JUMPI PUSH4 0x4E487B71 PUSH1 0xE0 SHL PUSH1 0x0 MSTORE PUSH1 0x11 PUSH1 0x4 MSTORE PUSH1 0x24 PUSH1 0x0 REVERT JUMPDEST POP PUSH1 0x1 ADD SWAP1 JUMP JUMPDEST PUSH1 0x0 PUSH1 0x20 DUP3 DUP5 SUB SLT ISZERO PUSH2 0x1199 JUMPI PUSH1 0x0 DUP1 REVERT JUMPDEST POP MLOAD SWAP2 SWAP1 POP JUMP INVALID 0xD1 0x4E SLT PUSH22 0x459D597E11394BD4F2705F67625ABB817299D3F66FAF 0xFC ADDMOD ADD PUSH3 0x996DA2 PUSH5 0x6970667358 0x22 SLT KECCAK256 ORIGIN 0xA7 CODECOPY MSIZE 0xDD PUSH19 0xE2D48FC4F4A9F69D042B66E6462F7A8D599EBD 0xB0 0x4E 0xD1 ADDRESS 0xD9 0xD9 0xE7 PUSH5 0x736F6C6343 STOP ADDMOD XOR STOP CALLER PUSH1 0x80 PUSH1 0x40 MSTORE CALLVALUE DUP1 ISZERO PUSH2 0x10 JUMPI PUSH1 0x0 DUP1 REVERT JUMPDEST POP PUSH2 0x268 DUP1 PUSH2 0x20 PUSH1 0x0 CODECOPY PUSH1 0x0 RETURN INVALID PUSH1 0x80 PUSH1 0x40 MSTORE CALLVALUE DUP1 ISZERO PUSH2 0x10 JUMPI PUSH1 0x0 DUP1 REVERT JUMPDEST POP PUSH1 0x4 CALLDATASIZE LT PUSH2 0x36 JUMPI PUSH1 0x0 CALLDATALOAD PUSH1 0xE0 SHR DUP1 PUSH4 0x54285BEA EQ PUSH2 0x3B JUMPI DUP1 PUSH4 0xB50C113D EQ PUSH2 0xDA JUMPI JUMPDEST PUSH1 0x0 DUP1 REVERT JUMPDEST PUSH2 0xC8 PUSH2 0x49 CALLDATASIZE PUSH1 0x4 PUSH2 0x194 JUMP JUMPDEST PUSH1 0x0 DUP1 SLOAD PUSH1 0x40 DUP1 MLOAD PUSH1 0x20 DUP1 DUP3 ADD DUP4 MSTORE DUP7 SWAP1 SHL PUSH4 0xFFFFFFFF DUP1 DUP8 AND SWAP2 SWAP1 SWAP2 OR DUP4 SHL DUP3 MSTORE PUSH1 0x1 DUP5 ADD DUP6 SSTORE SWAP4 DUP1 MSTORE MLOAD PUSH32 0x290DECD9548B62A8D60345A988386FC84BA6BC95484008F6362F93160EF3E563 DUP4 ADD DUP1 SLOAD PUSH5 0x100000000 PUSH1 0x1 PUSH1 0xC0 SHL SUB SWAP3 SWAP1 SWAP4 SHR SWAP2 DUP3 AND SWAP2 SWAP1 SWAP5 AND OR PUSH1 0x1 PUSH1 0x1 PUSH1 0xC0 SHL SUB NOT SWAP1 SWAP2 AND OR SWAP1 SWAP2 SSTORE SWAP3 SWAP2 POP POP JUMP JUMPDEST PUSH1 0x40 MLOAD SWAP1 DUP2 MSTORE PUSH1 0x20 ADD PUSH1 0x40 MLOAD DUP1 SWAP2 SUB SWAP1 RETURN JUMPDEST PUSH2 0xED PUSH2 0xE8 CALLDATASIZE PUSH1 0x4 PUSH2 0x1DA JUMP JUMPDEST PUSH2 0xEF JUMP JUMPDEST STOP JUMPDEST PUSH1 0x0 DUP2 DUP2 SLOAD DUP2 LT PUSH2 0x102 JUMPI PUSH2 0x102 PUSH2 0x1F3 JUMP JUMPDEST SWAP1 PUSH1 0x0 MSTORE PUSH1 0x20 PUSH1 0x0 KECCAK256 ADD PUSH1 0x0 ADD PUSH1 0x0 SWAP1 SLOAD SWAP1 PUSH2 0x100 EXP SWAP1 DIV DUP1 PUSH1 0x20 SHR PUSH1 0x1 PUSH1 0x1 PUSH1 0xA0 SHL SUB AND SWAP1 PUSH4 0xFFFFFFFF AND DUP3 PUSH1 0x40 MLOAD DUP3 PUSH4 0xFFFFFFFF AND PUSH1 0xE0 SHL DUP2 MSTORE PUSH1 0x4 ADD PUSH2 0x14D SWAP2 DUP2 MSTORE PUSH1 0x20 ADD SWAP1 JUMP JUMPDEST PUSH1 0x20 PUSH1 0x40 MLOAD DUP1 DUP4 SUB DUP2 PUSH1 0x0 DUP8 GAS CALL ISZERO DUP1 ISZERO PUSH2 0x16C JUMPI RETURNDATASIZE PUSH1 0x0 DUP1 RETURNDATACOPY RETURNDATASIZE PUSH1 0x0 REVERT JUMPDEST POP POP POP POP PUSH1 0x40 MLOAD RETURNDATASIZE PUSH1 0x1F NOT PUSH1 0x1F DUP3 ADD AND DUP3 ADD DUP1 PUSH1 0x40 MSTORE POP DUP2 ADD SWAP1 PUSH2 0x190 SWAP2 SWAP1 PUSH2 0x209 JUMP JUMPDEST POP POP JUMP JUMPDEST PUSH1 0x0 DUP1 PUSH1 0x20 DUP4 DUP6 SUB SLT ISZERO PUSH2 0x1A7 JUMPI PUSH1 0x0 DUP1 REVERT JUMPDEST DUP3 CALLDATALOAD PUSH8 0xFFFFFFFFFFFFFFFF NOT DUP2 AND DUP2 EQ PUSH2 0x1C0 JUMPI PUSH1 0x0 DUP1 REVERT JUMPDEST DUP1 PUSH1 0x60 SHR SWAP3 POP PUSH4 0xFFFFFFFF DUP2 PUSH1 0x40 SHR AND SWAP2 POP POP SWAP3 POP SWAP3 SWAP1 POP JUMP JUMPDEST PUSH1 0x0 PUSH1 0x20 DUP3 DUP5 SUB SLT ISZERO PUSH2 0x1EC JUMPI PUSH1 0x0 DUP1 REVERT JUMPDEST POP CALLDATALOAD SWAP2 SWAP1 POP JUMP JUMPDEST PUSH4 0x4E487B71 PUSH1 0xE0 SHL PUSH1 0x0 MSTORE PUSH1 0x32 PUSH1 0x4 MSTORE PUSH1 0x24 PUSH1 0x0 REVERT JUMPDEST PUSH1 0x0 PUSH1 0x20 DUP3 DUP5 SUB SLT ISZERO PUSH2 0x21B JUMPI PUSH1 0x0 DUP1 REVERT JUMPDEST DUP2 MLOAD DUP1 ISZERO ISZERO DUP2 EQ PUSH2 0x22B JUMPI PUSH1 0x0 DUP1 REVERT JUMPDEST SWAP4 SWAP3 POP POP POP JUMP INVALID LOG2 PUSH5 0x6970667358 0x22 SLT KECCAK256 REVERT 0xB5 0xB4 SWAP9 0xAB 0xEC ISZERO PUSH7 0xEAB7C987B2B3C3 0xBC PUSH29 0x72454AE04653098D30D1FF9AF289CF64736F6C63430008180033A26469 PUSH17 0x667358221220A81892A47A407B40A81D28 BYTE SSTORE 0x2A PUSH30 0xE6B2FA7BF4BDCAF1B91C48A638F729231E64736F6C634300081800330000 "},"methodIdentifiers":{"getInstance()":"de7b5d14","newInstance(address,address)":"a0e34024","setWorklist(address)":"4491bdbe","startInstanceExecution(address)":"16ec41f1"}}}}}