{"contracts/caterPillar/Process_0_WorkList.sol":{"Process_0_WorkList":{"abi":[{"inputs":[{"internalType":"uint256","name":"reqId","type":"uint256"}],"name":"DefaultTask_callback","outputs":[],"stateMutability":"nonpayable","type":"function"},{"inputs":[{"internalType":"function (uint256) external returns (bool)","name":"callback","type":"function"}],"name":"DefaultTask_start","outputs":[{"internalType":"uint256","name":"","type":"uint256"}],"stateMutability":"nonpayable","type":"function"}],"evm":{"bytecode":{"linkReferences":{},"object":"608060405234801561001057600080fd5b50610268806100206000396000f3fe608060405234801561001057600080fd5b50600436106100365760003560e01c806354285bea1461003b578063b50c113d146100da575b600080fd5b6100c8610049366004610194565b60008054604080516020808201835286901b63ffffffff80871691909117831b8252600184018555938052517f290decd9548b62a8d60345a988386fc84ba6bc95484008f6362f93160ef3e56383018054640100000000600160c01b039290931c91821691909416176001600160c01b03199091161790915592915050565b60405190815260200160405180910390f35b6100ed6100e83660046101da565b6100ef565b005b60008181548110610102576101026101f3565b9060005260206000200160000160009054906101000a90048060201c6001600160a01b03169063ffffffff16826040518263ffffffff1660e01b815260040161014d91815260200190565b6020604051808303816000875af115801561016c573d6000803e3d6000fd5b505050506040513d601f19601f820116820180604052508101906101909190610209565b5050565b600080602083850312156101a757600080fd5b823567ffffffffffffffff19811681146101c057600080fd5b8060601c925063ffffffff8160401c169150509250929050565b6000602082840312156101ec57600080fd5b5035919050565b634e487b7160e01b600052603260045260246000fd5b60006020828403121561021b57600080fd5b8151801515811461022b57600080fd5b939250505056fea2646970667358221220fdb5b498abec1566eab7c987b2b3c3bc7c72454ae04653098d30d1ff9af289cf64736f6c63430008180033","opcodes":"PUSH1 0x80 PUSH1 0x40 MSTORE CALLVALUE DUP1 ISZERO PUSH2 0x10 JUMPI PUSH1 0x0 DUP1 REVERT JUMPDEST POP PUSH2 0x268 DUP1 PUSH2 0x20 PUSH1 0x0 CODECOPY PUSH1 0x0 RETURN INVALID PUSH1 0x80 PUSH1 0x40 MSTORE CALLVALUE DUP1 ISZERO PUSH2 0x10 JUMPI PUSH1 0x0 DUP1 REVERT JUMPDEST POP PUSH1 0x4 CALLDATASIZE LT PUSH2 0x36 JUMPI PUSH1 0x0 CALLDATALOAD PUSH1 0xE0 SHR DUP1 PUSH4 0x54285BEA EQ PUSH2 0x3B JUMPI DUP1 PUSH4 0xB50C113D EQ PUSH2 0xDA JUMPI JUMPDEST PUSH1 0x0 DUP1 REVERT JUMPDEST PUSH2 0xC8 PUSH2 0x49 CALLDATASIZE PUSH1 0x4 PUSH2 0x194 JUMP JUMPDEST PUSH1 0x0 DUP1 SLOAD PUSH1 0x40 DUP1 MLOAD PUSH1 0x20 DUP1 DUP3 ADD DUP4 MSTORE DUP7 SWAP1 SHL PUSH4 0xFFFFFFFF DUP1 DUP8 AND SWAP2 SWAP1 SWAP2 OR DUP4 SHL DUP3 MSTORE PUSH1 0x1 DUP5 ADD DUP6 SSTORE SWAP4 DUP1 MSTORE MLOAD PUSH32 0x290DECD9548B62A8D60345A988386FC84BA6BC95484008F6362F93160EF3E563 DUP4 ADD DUP1 SLOAD PUSH5 0x100000000 PUSH1 0x1 PUSH1 0xC0 SHL SUB SWAP3 SWAP1 SWAP4 SHR SWAP2 DUP3 AND SWAP2 SWAP1 SWAP5 AND OR PUSH1 0x1 PUSH1 0x1 PUSH1 0xC0 SHL SUB NOT SWAP1 SWAP2 AND OR SWAP1 SWAP2 SSTORE SWAP3 SWAP2 POP POP JUMP JUMPDEST PUSH1 0x40 MLOAD SWAP1 DUP2 MSTORE PUSH1 0x20 ADD PUSH1 0x40 MLOAD DUP1 SWAP2 SUB SWAP1 RETURN JUMPDEST PUSH2 0xED PUSH2 0xE8 CALLDATASIZE PUSH1 0x4 PUSH2 0x1DA JUMP JUMPDEST PUSH2 0xEF JUMP JUMPDEST STOP JUMPDEST PUSH1 0x0 DUP2 DUP2 SLOAD DUP2 LT PUSH2 0x102 JUMPI PUSH2 0x102 PUSH2 0x1F3 JUMP JUMPDEST SWAP1 PUSH1 0x0 MSTORE PUSH1 0x20 PUSH1 0x0 KECCAK256 ADD PUSH1 0x0 ADD PUSH1 0x0 SWAP1 SLOAD SWAP1 PUSH2 0x100 EXP SWAP1 DIV DUP1 PUSH1 0x20 SHR PUSH1 0x1 PUSH1 0x1 PUSH1 0xA0 SHL SUB AND SWAP1 PUSH4 0xFFFFFFFF AND DUP3 PUSH1 0x40 MLOAD DUP3 PUSH4 0xFFFFFFFF AND PUSH1 0xE0 SHL DUP2 MSTORE PUSH1 0x4 ADD PUSH2 0x14D SWAP2 DUP2 MSTORE PUSH1 0x20 ADD SWAP1 JUMP JUMPDEST PUSH1 0x20 PUSH1 0x40 MLOAD DUP1 DUP4 SUB DUP2 PUSH1 0x0 DUP8 GAS CALL ISZERO DUP1 ISZERO PUSH2 0x16C JUMPI RETURNDATASIZE PUSH1 0x0 DUP1 RETURNDATACOPY RETURNDATASIZE PUSH1 0x0 REVERT JUMPDEST POP POP POP POP PUSH1 0x40 MLOAD RETURNDATASIZE PUSH1 0x1F NOT PUSH1 0x1F DUP3 ADD AND DUP3 ADD DUP1 PUSH1 0x40 MSTORE POP DUP2 ADD SWAP1 PUSH2 0x190 SWAP2 SWAP1 PUSH2 0x209 JUMP JUMPDEST POP POP JUMP JUMPDEST PUSH1 0x0 DUP1 PUSH1 0x20 DUP4 DUP6 SUB SLT ISZERO PUSH2 0x1A7 JUMPI PUSH1 0x0 DUP1 REVERT JUMPDEST DUP3 CALLDATALOAD PUSH8 0xFFFFFFFFFFFFFFFF NOT DUP2 AND DUP2 EQ PUSH2 0x1C0 JUMPI PUSH1 0x0 DUP1 REVERT JUMPDEST DUP1 PUSH1 0x60 SHR SWAP3 POP PUSH4 0xFFFFFFFF DUP2 PUSH1 0x40 SHR AND SWAP2 POP POP SWAP3 POP SWAP3 SWAP1 POP JUMP JUMPDEST PUSH1 0x0 PUSH1 0x20 DUP3 DUP5 SUB SLT ISZERO PUSH2 0x1EC JUMPI PUSH1 0x0 DUP1 REVERT JUMPDEST POP CALLDATALOAD SWAP2 SWAP1 POP JUMP JUMPDEST PUSH4 0x4E487B71 PUSH1 0xE0 SHL PUSH1 0x0 MSTORE PUSH1 0x32 PUSH1 0x4 MSTORE PUSH1 0x24 PUSH1 0x0 REVERT JUMPDEST PUSH1 0x0 PUSH1 0x20 DUP3 DUP5 SUB SLT ISZERO PUSH2 0x21B JUMPI PUSH1 0x0 DUP1 REVERT JUMPDEST DUP2 MLOAD DUP1 ISZERO ISZERO DUP2 EQ PUSH2 0x22B JUMPI PUSH1 0x0 DUP1 REVERT JUMPDEST SWAP4 SWAP3 POP POP POP JUMP INVALID LOG2 PUSH5 0x6970667358 0x22 SLT KECCAK256 REVERT 0xB5 0xB4 SWAP9 0xAB 0xEC ISZERO PUSH7 0xEAB7C987B2B3C3 0xBC PUSH29 0x72454AE04653098D30D1FF9AF289CF64736F6C63430008180033000000 "},"methodIdentifiers":{"DefaultTask_callback(uint256)":"b50c113d","DefaultTask_start(function)":"54285bea"}}}}}