{"contracts/monolithic/Zad2Kolab.sol":{"Zad2Kolab":{"abi":[{"inputs":[],"stateMutability":"nonpayable","type":"constructor"},{"anonymous":false,"inputs":[{"indexed":true,"internalType":"address","name":"_from","type":"address"},{"indexed":false,"internalType":"string","name":"_id","type":"string"},{"indexed":false,"internalType":"string","name":"_data","type":"string"},{"indexed":false,"internalType":"string","name":"_timestamp","type":"string"}],"name":"taskExecuted","type":"event"},{"anonymous":false,"inputs":[{"indexed":true,"internalType":"address","name":"_from","type":"address"},{"indexed":false,"internalType":"string","name":"_id","type":"string"},{"indexed":false,"internalType":"string","name":"_timestamp","type":"string"}],"name":"taskExecutionError","type":"event"},{"inputs":[{"internalType":"uint256","name":"","type":"uint256"},{"internalType":"uint256","name":"","type":"uint256"}],"name":"ChildrenOptim","outputs":[{"internalType":"string","name":"","type":"string"}],"stateMutability":"view","type":"function"},{"inputs":[{"internalType":"uint256","name":"_actId","type":"uint256"},{"internalType":"string","name":"_lane","type":"string"},{"internalType":"string","name":"_upd","type":"string"},{"internalType":"string","name":"_timestamp","type":"string"}],"name":"Invoke","outputs":[],"stateMutability":"payable","type":"function"},{"inputs":[{"internalType":"uint256","name":"","type":"uint256"},{"internalType":"uint256","name":"","type":"uint256"}],"name":"MsgInOptim","outputs":[{"internalType":"string","name":"","type":"string"}],"stateMutability":"view","type":"function"},{"inputs":[{"internalType":"uint256","name":"","type":"uint256"},{"internalType":"uint256","name":"","type":"uint256"}],"name":"MsgOutOptim","outputs":[{"internalType":"string","name":"","type":"string"}],"stateMutability":"view","type":"function"},{"inputs":[{"internalType":"uint256","name":"","type":"uint256"},{"internalType":"uint256","name":"","type":"uint256"}],"name":"ParentsOptim","outputs":[{"internalType":"string","name":"","type":"string"}],"stateMutability":"view","type":"function"},{"inputs":[{"internalType":"uint256","name":"","type":"uint256"}],"name":"activities","outputs":[{"internalType":"uint256","name":"id","type":"uint256"},{"internalType":"enum Zad2Kolab.NodeType","name":"nodeType","type":"uint8"},{"internalType":"string","name":"xmlID","type":"string"},{"internalType":"string","name":"name","type":"string"},{"internalType":"string","name":"lane","type":"string"},{"internalType":"string","name":"dataIn","type":"string"},{"internalType":"string","name":"dataOut","type":"string"},{"internalType":"string","name":"timestamp","type":"string"}],"stateMutability":"view","type":"function"},{"inputs":[{"internalType":"uint256","name":"_id","type":"uint256"},{"internalType":"enum Zad2Kolab.NodeType","name":"_type","type":"uint8"},{"internalType":"string","name":"_xmlID","type":"string"},{"internalType":"string","name":"_name","type":"string"},{"internalType":"string","name":"_lane","type":"string"},{"internalType":"string","name":"_data_in","type":"string"},{"internalType":"string","name":"_data_out","type":"string"},{"internalType":"string","name":"_timestamp","type":"string"}],"name":"addActivity","outputs":[],"stateMutability":"nonpayable","type":"function"},{"inputs":[{"internalType":"string","name":"_name","type":"string"},{"internalType":"uint256","name":"_activityIdsLength","type":"uint256"}],"name":"addWorkflowInstance","outputs":[],"stateMutability":"nonpayable","type":"function"},{"inputs":[{"internalType":"address","name":"","type":"address"}],"name":"addresses2lanes","outputs":[{"internalType":"string","name":"","type":"string"}],"stateMutability":"view","type":"function"},{"inputs":[{"internalType":"string","name":"a","type":"string"},{"internalType":"string","name":"b","type":"string"}],"name":"compareStrings","outputs":[{"internalType":"bool","name":"","type":"bool"}],"stateMutability":"pure","type":"function"},{"inputs":[{"internalType":"uint256","name":"num","type":"uint256"},{"internalType":"uint256[]","name":"numbers1","type":"uint256[]"}],"name":"exists1","outputs":[{"internalType":"bool","name":"","type":"bool"}],"stateMutability":"pure","type":"function"},{"inputs":[{"internalType":"uint256","name":"_id","type":"uint256"}],"name":"getActivityDataFromActivityId","outputs":[{"internalType":"uint256","name":"_actId","type":"uint256"},{"internalType":"uint256","name":"_type","type":"uint256"},{"internalType":"string","name":"_xmlID","type":"string"},{"internalType":"string","name":"_name","type":"string"},{"internalType":"string","name":"_dataIn","type":"string"},{"internalType":"string","name":"_dataOut","type":"string"},{"internalType":"string","name":"_lane","type":"string"}],"stateMutability":"view","type":"function"},{"inputs":[{"internalType":"uint256","name":"_id","type":"uint256"}],"name":"getActivityIdsFromWorkflow","outputs":[{"internalType":"uint256[]","name":"","type":"uint256[]"}],"stateMutability":"view","type":"function"},{"inputs":[],"name":"getExecuted","outputs":[{"internalType":"uint256[]","name":"","type":"uint256[]"}],"stateMutability":"view","type":"function"},{"inputs":[],"name":"getIncluded","outputs":[{"internalType":"uint256[]","name":"","type":"uint256[]"}],"stateMutability":"view","type":"function"},{"inputs":[],"name":"getPending","outputs":[{"internalType":"uint256[]","name":"","type":"uint256[]"}],"stateMutability":"view","type":"function"},{"inputs":[{"internalType":"string","name":"_xmlID","type":"string"}],"name":"getPosFromXML","outputs":[{"internalType":"uint256","name":"","type":"uint256"}],"stateMutability":"view","type":"function"},{"inputs":[{"internalType":"uint256","name":"key","type":"uint256"}],"name":"isChildrenOptimNotEmpty","outputs":[{"internalType":"bool","name":"","type":"bool"}],"stateMutability":"view","type":"function"},{"inputs":[{"internalType":"uint256","name":"key","type":"uint256"}],"name":"isMsgInOptimNotEmpty","outputs":[{"internalType":"bool","name":"","type":"bool"}],"stateMutability":"view","type":"function"},{"inputs":[{"internalType":"uint256","name":"key","type":"uint256"}],"name":"isMsgOutOptimNotEmpty","outputs":[{"internalType":"bool","name":"","type":"bool"}],"stateMutability":"view","type":"function"},{"inputs":[{"internalType":"uint256","name":"key","type":"uint256"}],"name":"isParentOptimNotEmpty","outputs":[{"internalType":"bool","name":"","type":"bool"}],"stateMutability":"view","type":"function"},{"inputs":[],"name":"killProcess","outputs":[{"internalType":"uint256","name":"","type":"uint256"}],"stateMutability":"payable","type":"function"},{"inputs":[{"internalType":"string","name":"startXML","type":"string"},{"internalType":"string","name":"triggerXML","type":"string"}],"name":"setActivitiesSegment","outputs":[],"stateMutability":"nonpayable","type":"function"},{"inputs":[{"internalType":"uint256","name":"_actId","type":"uint256"}],"name":"updateChildren","outputs":[],"stateMutability":"payable","type":"function"}],"evm":{"bytecode":{"linkReferences":{},"object":"6080604052600060085560006009553480156200001b57600080fd5b5060408051808201909152600a8152691b5e50dbdb9d1c9858dd60b21b60208201526200004a90602d62005142565b604080516105a081018252600080825260208201819052918101829052606081018290526080810182905260a0810182905260c0810182905260e081018290526101008101829052610120810182905261014081018290526001610160820181905261018082018190526101a082018190526101c08201526101e08101829052610200810182905261022081018290526102408101829052610260810182905261028081018290526102a081018290526102c081018290526102e08101829052610300810182905261032081018290526103408101829052610360810182905261038081018290526103a081018290526103c081018290526103e08101829052610400810182905261042081018290526104408101829052610460810182905261048081018290526104a081018290526104c081018290526104e081018290526105008101829052610520810182905261054081018290526105608101829052610580810191909152620001c390600a90602d62005373565b50604080516105a081018252600080825260208201819052918101829052606081018290526080810182905260a0810182905260c0810182905260e08101829052610100810182905261012081018290526101408101829052610160810182905261018081018290526101a081018290526101c081018290526101e08101829052610200810182905261022081018290526102408101829052610260810182905261028081018290526102a081018290526102c081018290526102e08101829052610300810182905261032081018290526103408101829052610360810182905261038081018290526103a081018290526103c081018290526103e08101829052610400810182905261042081018290526104408101829052610460810182905261048081018290526104a081018290526104c081018290526104e0810182905261050081018290526105208101829052610540810182905261056081018290526105808101919091526200033d90600c90602d62005373565b50604080516105a081018252600080825260208201819052918101829052606081018290526080810182905260a0810182905260c0810182905260e08101829052610100810182905261012081018290526101408101829052610160810182905261018081018290526101a081018290526101c081018290526101e08101829052610200810182905261022081018290526102408101829052610260810182905261028081018290526102a081018290526102c081018290526102e08101829052610300810182905261032081018290526103408101829052610360810182905261038081018290526103a081018290526103c081018290526103e08101829052610400810182905261042081018290526104408101829052610460810182905261048081018290526104a081018290526104c081018290526104e081018290526105008101829052610520810182905261054081018290526105608101829052610580810191909152620004b790600b90602d62005373565b5060408051606081018252600d60208083019182526c4576656e745f30616f6e616d3960981b9383019390935281526000805260039091526200051e907f3617319a054d772f909f7c479a2cebe5066e836a939412e32403c99029b92eff906001620053c8565b5060408051606081018252600d60208083019182526c22bb32b73a2f981bb8353d3d3560991b93830193909352815260008052600490915262000585907f17ef568e3e12ab5b9c7254a8d58478811de00f9e6eb34345acd53bf8fd09d3ec906001620053c8565b5062000651600060046040518060400160405280601081526020016f20b1ba34bb34ba3caf98b9b93430b33560811b81525060405180604001604052806012815260200171506f646e6f73656e6a655f7a61687465766160701b8152506040518060400160405280600781526020016614dd1d59195b9d60ca1b81525060405180602001604052806000815250604051806020016040528060008152506040518060400160405280600a8152602001691899179998979918191960b11b8152506200524060201b60201c565b60408051606081018252600f60208083019182526e476174657761795f3062616974693160881b938301939093528152600160008190526003909252620006bb917fa15bc60c955c405d20d9149c709e2460f1c2d9a497496a7f46004d1772c3054c9190620053c8565b5060408051606081018252600d60208083019182526c115d995b9d17cc1adb4dcc9899609a1b93830193909352815260016000819052600490925262000724917fabd6e7cb50984ff9c2f3e18a2660c3353dadf4e3291deeb275dae2cd1e44fe059190620053c8565b50620007fb600160046040518060400160405280601081526020016f1058dd1a5d9a5d1e57cc0dce59de8dcd60821b8152506040518060400160405280601481526020017f506f6e6f766e6f5f706f70756e6a6176616e6a650000000000000000000000008152506040518060400160405280600781526020016614dd1d59195b9d60ca1b81525060405180602001604052806000815250604051806020016040528060008152506040518060400160405280600a8152602001691899179998979918191960b11b8152506200524060201b60201c565b60408051606081018252600f60208083019182526e08ec2e8caeec2f2be62f0e062c8607608b1b9383019390935281526002600052600390915262000864907fc3a24b0501bd2c13a7e57f2db4369ec4c223447539fc0724a9d55ac4a06ebd4d906001620053c8565b5060408051606081018252600f60208083019182526e476174657761795f307838647a793160881b93830193909352815260026000526004909152620008ce907f91da3fd0782e51c6b3986e9e672fd566868e71f3dbc2d6c2cd6fbb3e361af2a7906001620053c8565b5062000996600260046040518060400160405280601081526020016f1058dd1a5d9a5d1e57cc18588c999cdd60821b8152506040518060400160405280600c81526020016b57616974696e675f74696d6560a01b81525060405180604001604052806009815260200168536c757a62656e696b60b81b81525060405180602001604052806000815250604051806020016040528060008152506040518060400160405280600a8152602001691899179998979918191960b11b8152506200524060201b60201c565b60408051606081018252600f60208083019182526e476174657761795f307838647a793160881b93830193909352815260036000819052909152620009ff907fcbc4e5fb02c3d1de23a9f1e014b4d2ee5aeaea9505df5e855c9210bf472495af906001620053c8565b5060408051606081018252600f60208083019182526e23b0ba32bbb0bcaf981c3a9ab7323760891b9383019390935281526003600052600490915262000a69907f2e174c10e159ea99b867ce3205125c24a42d128804e4070ed6fcc8cc98166aa0906001620053c8565b5062000b42600360046040518060400160405280601081526020016f41637469766974795f316c696866683560801b8152506040518060400160405280602081526020017f50726f7665726176616e6a655f6973707261766e6f7374695f7a61687465766181525060405180604001604052806009815260200168536c757a62656e696b60b81b81525060405180602001604052806000815250604051806020016040528060008152506040518060400160405280600a8152602001691899179998979918191960b11b8152506200524060201b60201c565b60408051606081018252600f60208083019182526e476174657761795f307838647a793160881b9383019390935281526004600052600390915262000bab907f83ec6a1f0257b830b5e016457c9cf1435391bf56cc98f369a58a54fe93772465906001620053c8565b5060408051606081018252600f60208083019182526e23b0ba32bbb0bcaf981c3a9ab7323760891b9383019390935281526004600081905290915262000c15907f1a1e6821cde7d0159c0d293177871e09677b4e42307c7db3ba94f8648a5a050f906001620053c8565b5062000ced6004806040518060400160405280601081526020016f41637469766974795f30313468396f3160801b8152506040518060400160405280601e81526020017f50726f7665726176616e6a655f706f646174616b615f73747564656e7461000081525060405180604001604052806009815260200168536c757a62656e696b60b81b81525060405180602001604052806000815250604051806020016040528060008152506040518060400160405280600a8152602001691899179998979918191960b11b8152506200524060201b60201c565b60408051606081018252600f60208083019182526e476174657761795f31777a76306e3760881b9383019390935281526005600052600390915262000d56907f405aad32e1adbac89bb7f176e338b8fc6e994ca210c9bb7bdca249b465942250906001620053c8565b5060408051606081018252600f60208083019182526e08ec2e8caeec2f2be62f0e062c8607608b1b9383019390935281526005600052600490915262000dc0907f04cde762ef08b6b6c5ded8e8c4c0b3f4e5c9ad7342c88fcc93681b4588b73f05906001620053c8565b5062000e7e600560046040518060400160405280601081526020016f41637469766974795f31366d666c797760801b815250604051806040016040528060028152602001616e6560f01b81525060405180604001604052806009815260200168536c757a62656e696b60b81b81525060405180602001604052806000815250604051806020016040528060008152506040518060400160405280600a8152602001691899179998979918191960b11b8152506200524060201b60201c565b60408051606081018252600f60208083019182526e23b0ba32bbb0bcaf983a39b33719b160891b9383019390935281526006600052600390915262000ee7907fc69056f16cbaa3c616b828e333ab7d3a32310765507f8f58359e99ebb7a885f3906001620053c8565b5060408051606081018252600d60208083019182526c08aeccadce8be62e2c46862f0f609b1b9383019390935281526006600052600490915262000f4f907fc59312466997bb42aaaf719ece141047820e6b34531e1670dc1852a453648f0f906001620053c8565b5062001028600660046040518060400160405280601081526020016f41637469766974795f316a6e3873763360801b8152506040518060400160405280601581526020017f4b6f6d706c65746972616e6a655f7a616874657661000000000000000000000081525060405180604001604052806009815260200168536c757a62656e696b60b81b81525060405180602001604052806000815250604051806020016040528060008152506040518060400160405280600a8152602001691899179998979918191960b11b8152506200524060201b60201c565b60408051606081018252600f60208083019182526e23b0ba32bbb0bcaf983a39b33719b160891b9383019390935281526007600052600390915262001091907ff2c49132ed1cee2a7e75bde50d332a2f81f1d01e5456d8a19d1df09bd561dbd2906001620053c8565b5060408051606081018252600f60208083019182526e476174657761795f31777a76306e3760881b93830193909352815260076000526004909152620010fb907fbeb3bad75134cb432e5707980e3245c52c5998a1125ee30f2f0dbf3925b1e551906001620053c8565b50620011b9600760046040518060400160405280601081526020016f41637469766974795f3164726934713360801b81525060405180604001604052806002815260200161646160f01b81525060405180604001604052806009815260200168536c757a62656e696b60b81b81525060405180602001604052806000815250604051806020016040528060008152506040518060400160405280600a8152602001691899179998979918191960b11b8152506200524060201b60201c565b60408051606081018252600f60208083019182526e476174657761795f306f796e38376560881b9383019390935281526008600052600390915262001222907f85aaa47b6dc46495bb8824fad4583769726fea36efd831a35556690b830a8fbe906001620053c8565b5060408051606081018252600d60208083019182526c115d995b9d17cc5c5a1cd9da0d609a1b938301939093528152600860005260049091526200128a907f2645749a946633740611cfc8178319f0958659d6922e4bf7e3a08b44789f53a4906001620053c8565b5062001362600860046040518060400160405280601081526020016f082c6e8d2ecd2e8f2be60dcd6c8d6ccf60831b8152506040518060400160405280601581526020017f50726f7665726176616e6a655f706f646174616b6100000000000000000000008152506040518060400160405280600881526020016726b2b730b23d32b960c11b81525060405180602001604052806000815250604051806020016040528060008152506040518060400160405280600a8152602001691899179998979918191960b11b8152506200524060201b60201c565b60408051606081018252600d60208083019182526c4576656e745f3132797838697160981b93830193909352815260096000526003909152620013c9907f8a8dc4e5242ea8b1ab1d60606dae757e6c2cca9f92a2cced9f72c19960bcb458906001620053c8565b5060408051606081018252600f60208083019182526e476174657761795f306f796e38376560881b9383019390935281526009600052600490915262001433907f4ad5a04d53b5856f318545bb721f67d3f6d0a5a999f25eec7e20eaeb4c47b933906001620053c8565b50620014fa600960046040518060400160405280601081526020016f41637469766974795f31636f6474686d60801b8152506040518060400160405280600c81526020016b506f747069736976616e6a6560a01b8152506040518060400160405280600881526020016726b2b730b23d32b960c11b81525060405180602001604052806000815250604051806020016040528060008152506040518060400160405280600a8152602001691899179998979918191960b11b8152506200524060201b60201c565b60408051606081018252600d60208083019182526c4576656e745f3131636269393360981b938301939093528152600a600052600390915262001561907f9dcb9783ba5cd0b54745f65f4f918525e461e91888c334e5342cb380ac558d53906001620053c8565b5060408051606081018252600d60208083019182526c115d995b9d17cc595b0c8dd91d609a1b938301939093528152600a6000526004909152620015c9907f5c6b02db8b672415ffad906d7ccee10bd53dbad7d0b29e2bc0e50c93d5f31093906001620053c8565b5062001694600a60046040518060400160405280601081526020016f20b1ba34bb34ba3caf98b0b43437983360811b8152506040518060400160405280600c81526020016b497a7261646a6976616e6a6560a01b81525060405180604001604052806018815260200160008051602062008b0783398151915281525060405180602001604052806000815250604051806020016040528060008152506040518060400160405280600a8152602001691899179998979918191960b11b8152506200524060201b60201c565b60408051606081018252601060208083019182526f20b1ba34bb34ba3caf98b9b93430b33560811b938301939093528152600b6000526003909152620016fe907f2d72af3c1b2b2956e6f694fb741556d5ca9524373974378cdbec16afa8b84164906001620053c8565b50620017ac600b60006040518060400160405280600d81526020016c22bb32b73a2f981bb8353d3d3560991b815250604051806020016040528060008152506040518060400160405280600781526020016614dd1d59195b9d60ca1b81525060405180602001604052806000815250604051806020016040528060008152506040518060400160405280600a8152602001691899179998979918191960b11b8152506200524060201b60201c565b60408051606081018252600f60208083019182526e23b0ba32bbb0bcaf981c3a9ab7323760891b938301939093528152600c600052600390915262001815907fd56a60595ebefebed7f22dcee6c2acc61b06cf8c68e84c88677840365d1ff92b906001620053c8565b5060408051606081018252600d60208083019182526c4576656e745f30616f6e616d3960981b938301939093528152600c60005260059091526200187d907ff907e7e6656fa73566b18c1215272fe9fca2c55c552e62c923e21e000ac4b4e6906001620053c8565b5062001945600c60006040518060400160405280600d81526020016c4576656e745f3161696c68723560981b8152506040518060400160405280600f81526020016e283934b6b63532b7103d30b43a32bb60891b81525060405180604001604052806009815260200168536c757a62656e696b60b81b81525060405180602001604052806000815250604051806020016040528060008152506040518060400160405280600a8152602001691899179998979918191960b11b8152506200524060201b60201c565b60408051606081018252601060208083019182526f082c6e8d2ecd2e8f2be60dcd6c8d6ccf60831b938301939093528152600d6000526003909152620019af907fa8f2d96126c6d0ad63adabaef7bf5cf47f163fb0c218a473d28f62312d197bcf906001620053c8565b5060408051606081018252600d60208083018281526c4576656e745f3063653138333360981b94840194909452928252600052600590915262001a16907f03145c75015e7a856ecd94c41432ef3cb669d6360af23433588937fefdfac825906001620053c8565b5062001add600d60006040518060400160405280600d81526020016c115d995b9d17cc5c5a1cd9da0d609a1b8152506040518060400160405280600f81526020016e283934b6b63532b7103d30b43a32bb60891b8152506040518060400160405280600881526020016726b2b730b23d32b960c11b81525060405180602001604052806000815250604051806020016040528060008152506040518060400160405280600a8152602001691899179998979918191960b11b8152506200524060201b60201c565b60408051606081018252601060208083019182526f20b1ba34bb34ba3caf98b0b43437983360811b938301939093528152600e600052600390915262001b47907fd6ebcc64c739277b117ce359e436534b234b76e914c80ad276abf5b562078939906001620053c8565b5060408051606081018252600d60208083019182526c4576656e745f3132797838697160981b938301939093528152600e600052600590915262001baf907f783638979e3582b3ffd6d53fc06c949ac31d1ac75a5e2c3531fbe1f91045eb53906001620053c8565b5062001c88600e60006040518060400160405280600d81526020016c115d995b9d17cc595b0c8dd91d609a1b8152506040518060400160405280601a81526020017f5072696d6c6a656e207a6168746576207a6120697a726164756100000000000081525060405180604001604052806018815260200160008051602062008b0783398151915281525060405180602001604052806000815250604051806020016040528060008152506040518060400160405280600a8152602001691899179998979918191960b11b8152506200524060201b60201c565b60408051606081018252600f60208083018281526e476174657761795f3062616974693160881b94840194909452928252600052600390915262001cf0907ff60b7f6a315ec68a6ac240e69dca53652b38627f709a2caa217d9e18af4d7a60906001620053c8565b5060408051606081018252601060208083019182526f20b1ba34bb34ba3caf98b9b93430b33560811b938301939093528152600f600052600490915262001d5b907f66b61daf77b854ca6ba000a8d4b340eafcdb71b6583753b4af89fceb54988fff906001620053c8565b5060408051606081018252600d60208083019182526c4576656e745f3161696c68723560981b938301939093528152600f600052600690915262001dc3907ff130046d53bc87538ab17e4752ba5f5082985eecc06ccb932c5a55e8242dd502906001620053c8565b5062001e80600f60036040518060400160405280600d81526020016c4576656e745f30616f6e616d3960981b815250604051806040016040528060068152602001652d30b43a32bb60d11b8152506040518060400160405280600781526020016614dd1d59195b9d60ca1b81525060405180602001604052806000815250604051806020016040528060008152506040518060400160405280600a8152602001691899179998979918191960b11b8152506200524060201b60201c565b60408051606081018252601060208083018281526f1058dd1a5d9a5d1e57cc0dce59de8dcd60821b94840194909452928252600052600390915262001ee9907f47d4745e02b343689a5e7ac121d2a352b7a15c10328a8759fd7d4cf0999002bb906001620053c8565b5060408051606081018252600d60208083019182526c4576656e745f306e387573787360981b9383019390935281526010600052600490915262001f51907f4a597304b2df0a7a7b428b3c24c35ba6373aabebf9972387f5610f74a01b21bd906001620053c8565b5060408051606081018252600d60208083019182526c08aeccadce8be62e2c46862f0f609b1b9383019390935281526010600052600690915262001fb9907f6fac4587033fa036e2426ad0134940d3a683633cc2b2b7862f39195344f163d1906001620053c8565b5062002074601060036040518060400160405280600d81526020016c115d995b9d17cc1adb4dcc9899609a1b815250604051806040016040528060048152602001631cd95b9960e21b8152506040518060400160405280600781526020016614dd1d59195b9d60ca1b81525060405180602001604052806000815250604051806020016040528060008152506040518060400160405280600a8152602001691899179998979918191960b11b8152506200524060201b60201c565b60408051606081018252600f60208083019182526e08ec2e8caeec2f2be62f0e062c8607608b1b93830193909352815260116000526004909152620020dd907fac375bcb880242328180c23d4a918023a12a7caf7cf12b8c4074e4a3f39900a0906001620053c8565b5060408051606081018252600d60208083019182526c115d995b9d17cc1d1a595cd9cd609a1b9383019390935281526011600052600690915262002145907f84a4048ee77615560f9afb39551a46e123dd0dd6c928af241dc565271d032569906001620053c8565b50620021ff601160036040518060400160405280600d81526020016c08aeccadce8be62d872c46edc7609b1b81525060405180606001604052806035815260200162008ad26035913960405180604001604052806009815260200168536c757a62656e696b60b81b81525060405180602001604052806000815250604051806020016040528060008152506040518060400160405280600a8152602001691899179998979918191960b11b8152506200524060201b60201c565b60408051606081018252600d60208083019182526c08aeccadce8be62e2c46862f0f609b1b9383019390935281526012600052600390915262002266907f6a2b6bffaca788160f671fa62d34758b717f75a90ad5a468757c50d61f33c443906001620053c8565b5060408051606081018252600f60208083019182526e476174657761795f31777a76306e3760881b93830193909352815260126000526004909152620022d0907f7f6fa3f34639ea1891363ca773619dbd5f652d7ab50411111dde2f57e3ae13ad906001620053c8565b5060408051606081018252600d60208083019182526c4576656e745f306e387573787360981b9383019390935281526012600052600690915262002338907fee4750d043edce57577a49a1f0c4b389e3b8c38c27dc693bc6b7154c07280771906001620053c8565b50620023f2601260036040518060400160405280600d81526020016c115d995b9d17cc0d8d8d5b9e9d609a1b81525060405180606001604052806026815260200162008aac6026913960405180604001604052806009815260200168536c757a62656e696b60b81b81525060405180602001604052806000815250604051806020016040528060008152506040518060400160405280600a8152602001691899179998979918191960b11b8152506200524060201b60201c565b60408051606081018252600f60208083019182526e476174657761795f303168726a706d60881b938301939093528152601360005260039091526200245b907f8a8166be5f30abeb6c91ee2f07eeb0b2eb14b4d59534d10a1c143964bd617919906001620053c8565b5060408051606081018252600f60208083019182526e23b0ba32bbb0bcaf983a39b33719b160891b93830193909352815260136000526004909152620024c5907f9bbf2ad10217b6212df1939350a047a69b6887b770020d3fa8c328c0653ee987906001620053c8565b5060408051606081018252600d60208083019182526c115d995b9d17cc5c5a1cd9da0d609a1b938301939093528152601360005260069091526200252d907fb72a5233413dd9985e70abb239a7ba917e489fbf2ece87f523c6e26971cc821f906001620053c8565b5062002603601360036040518060400160405280600d81526020016c4576656e745f3063653138333360981b8152506040518060400160405280601781526020017f506f736c6174207a6168746576206d656e61647a65727500000000000000000081525060405180604001604052806009815260200168536c757a62656e696b60b81b81525060405180602001604052806000815250604051806020016040528060008152506040518060400160405280600a8152602001691899179998979918191960b11b8152506200524060201b60201c565b60408051606081018252600d60208083019182526c22bb32b73a2f98b39abbba37b160991b938301939093528152601460005260049091526200266a907ff7deed9399d719bf61dcb1322c056a03a885c275ab093673b0cc182b84bea061906001620053c8565b5060408051606081018252600d60208083019182526c22bb32b73a2f9831b9b7b1b3bb60991b93830193909352815260146000526006909152620026d2907f098d468efb4f874d617491296c759dc9ae46efb517fe36bcf30699ad3f714c0f906001620053c8565b50620027a8601460036040518060400160405280600d81526020016c08aeccadce8be62da6ad4eed0d609b1b8152506040518060400160405280601981526020017f506f736c61746f206f626176657374656e6a65206f202e2e2e0000000000000081525060405180604001604052806009815260200168536c757a62656e696b60b81b81525060405180602001604052806000815250604051806020016040528060008152506040518060400160405280600a8152602001691899179998979918191960b11b8152506200524060201b60201c565b60408051606081018252600d60208083019182526c04576656e745f3035776e76717609c1b938301939093528152601560005260049091526200280f907f1bb30a1647f6f6723cb3a88838ce0319afabe51263fc466f2f669a7a24ad88c6906001620053c8565b5060408051606081018252600d60208083019182526c04576656e745f3030776b35743609c1b9383019390935281526015600052600690915262002877907feda6feebfb4ffb7de2d0dc45a13b92dc953c2ed6ee96fa7fe8179e7c4266747f906001620053c8565b5062002931601560036040518060400160405280600d81526020016c4576656e745f3069697735643360981b81525060405180606001604052806028815260200162008a846028913960405180604001604052806009815260200168536c757a62656e696b60b81b81525060405180602001604052806000815250604051806020016040528060008152506040518060400160405280600a8152602001691899179998979918191960b11b8152506200524060201b60201c565b60408051606081018252600d60208083019182526c4576656e745f303977386b643360981b9383019390935281526016600052600390915262002998907f370c8c7c6215b209793aa720f65163fbeecd5f5114008532ba0649ee23405402906001620053c8565b5060408051606081018252601060208083019182526f41637469766974795f31636f6474686d60801b9383019390935281526016600052600490915262002a03907f87e655ef16e4075af30c6a90c2b439f7dcd2d83a606dafadaee10cffaf918132906001620053c8565b5060408051606081018252600d60208083019182526c115d995b9d17cc595b0c8dd91d609a1b9383019390935281526016600052600690915262002a6b907f7d35cc2b0520994422695eb24e3bf4f74e9cba2704cae72ecd9ec54409a56afb906001620053c8565b5062002b40601660036040518060400160405280600d81526020016c4576656e745f3132797838697160981b8152506040518060400160405280601781526020017f506f736c6174207a6168746576207a6120697a726164750000000000000000008152506040518060400160405280600881526020016726b2b730b23d32b960c11b81525060405180602001604052806000815250604051806020016040528060008152506040518060400160405280600a8152602001691899179998979918191960b11b8152506200524060201b60201c565b60408051606081018252600d60208083019182526c22bb32b73a2f989b3ab9379b3560991b9383019390935281526017600052600390915262002ba7907f0f0519a40093d7edad68f12e2ec868fdf92a03df1cbec3e035c987d6b218f2f4906001620053c8565b5060408051606081018252600f60208083019182526e476174657761795f3062616974693160881b9383019390935281526017600052600490915262002c11907fff624574ceefb6578b3887a7448cf2ca4d120002f646987b0a9b9ad3f6dc2c10906001620053c8565b5060408051606081018252600d60208083019182526c08aeccadce8be62d872c46edc7609b1b9383019390935281526017600052600590915262002c79907f1759eeb783be12e6871ee15567296c25cea65699ad38e9965540ba6254a9037f906001620053c8565b5062002d31601760036040518060400160405280600d81526020016c115d995b9d17cc1d1a595cd9cd609a1b8152506040518060600160405280602e815260200162008b27602e91396040518060400160405280600781526020016614dd1d59195b9d60ca1b81525060405180602001604052806000815250604051806020016040528060008152506040518060400160405280600a8152602001691899179998979918191960b11b8152506200524060201b60201c565b60408051606081018252600d60208083019182526c115d995b9d17cc1adb4dcc9899609a1b9383019390935281526018600052600390915262002d98907fa3ddc4e8d053be09ec661eb04964a206cbd921c2c11fc03088857923bed1485a906001620053c8565b5060408051606081018252600d60208083019182526c115d995b9d17cc0d8d8d5b9e9d609a1b9383019390935281526018600052600590915262002e00907f5cc25df4297f13907c2e8c8bb7612ac7d899f1e24c7e8664c22a89192ac286a7906001620053c8565b5062002eb8601860036040518060400160405280600d81526020016c4576656e745f306e387573787360981b81525060405180606001604052806029815260200162008b55602991396040518060400160405280600781526020016614dd1d59195b9d60ca1b81525060405180602001604052806000815250604051806020016040528060008152506040518060400160405280600a8152602001691899179998979918191960b11b8152506200524060201b60201c565b60408051606081018252600d60208083019182526c4576656e745f306f366969653760981b9383019390935281526019600052600390915262002f1f907fad96411afed98a37aa585ce71717b0782fa4bee47da09d8f483e532128238611906001620053c8565b5060408051606081018252600f60208083019182526e476174657761795f3062616974693160881b9383019390935281526019600052600490915262002f89907feb5726be0cc40daa58a5f8f81528465ddb0c35e1e56e157eca916d69d6c34324906001620053c8565b5060408051606081018252600d60208083019182526c4576656e745f3069697735643360981b9383019390935281526019600052600590915262002ff1907fae2f6b16f0e0ac80673d6caef460ba44e001264158bf422be5bc239018ccc677906001620053c8565b50620030a9601960036040518060400160405280600d81526020016c04576656e745f3030776b35743609c1b81525060405180606001604052806030815260200162008b7e603091396040518060400160405280600781526020016614dd1d59195b9d60ca1b81525060405180602001604052806000815250604051806020016040528060008152506040518060400160405280600a8152602001691899179998979918191960b11b8152506200524060201b60201c565b60408051606081018252600d60208083019182526c115d995b9d17cc0e588d189c9d609a1b938301939093528152601a600052600390915262003110907f68fc0e82119a780903c8e97d959a36d433d1e401ad7b7a461ff2087e524d54a8906001620053c8565b5060408051606081018252600f60208083019182526e476174657761795f3062616974693160881b938301939093528152601a60005260049091526200317a907ff6eb4279aa452568dd287204244d7e29d7ca1bc7a01440f08342bf2599f4b9b6906001620053c8565b5060408051606081018252600d60208083019182526c08aeccadce8be62da6ad4eed0d609b1b938301939093528152601a6000526005909152620031e2907fce1f324a8a5d5daa4a6b2281780ab321637fd4089413dd89c573bbf705027cb9906001620053c8565b50620032b6601a60036040518060400160405280600d81526020016c22bb32b73a2f9831b9b7b1b3bb60991b8152506040518060400160405280601a81526020017f5072696d6c6a656e6f206f626176657374656e6a65206f2e2e2e0000000000008152506040518060400160405280600781526020016614dd1d59195b9d60ca1b81525060405180602001604052806000815250604051806020016040528060008152506040518060400160405280600a8152602001691899179998979918191960b11b8152506200524060201b60201c565b60408051606081018252601060208083019182526f41637469766974795f316a6e3873763360801b938301939093528152601b600052600390915262003320907f925be0b447003e4366d6addf976a9e5448b14e56ca3733fe4a9ca6f86b0dcbd5906001620053c8565b5060408051606081018252600d60208083019182526c115d995b9d17cc0d8d8d5b9e9d609a1b938301939093528152601b600052600490915262003388907fd8906b3e50614809ec86d7bb29bf3c4e8647f5376e87f81687a4a770137f7d59906001620053c8565b5060408051606081018252600d60208083019182526c115d995b9d17cc1adb4dcc9899609a1b938301939093528152601b6000526005909152620033f0907f2c8eed490e2e8e94ab99e89b6202d0db22c83d972d2b78b681fe35c98d2baa33906001620053c8565b50620034c6601b60036040518060400160405280600d81526020016c08aeccadce8be62e2c46862f0f609b1b8152506040518060400160405280601f81526020017f5072696d6c6a656e20706f6e6f766f20706f70756e6a656e207a61687465760081525060405180604001604052806009815260200168536c757a62656e696b60b81b81525060405180602001604052806000815250604051806020016040528060008152506040518060400160405280600a8152602001691899179998979918191960b11b8152506200524060201b60201c565b60408051606081018252600d60208083019182526c08aeccadce8be62da6ad4eed0d609b1b938301939093528152601c60005260039091526200352d907f57023ef7fe58b878582140ea36f22723905ad724896eaf74090fba76c229bd22906001620053c8565b5060408051606081018252600f60208083019182526e476174657761795f303168726a706d60881b938301939093528152601c600052600490915262003597907f69bc8c08a6b955aec2072ca430bac7123bc3539264a736d1a23621b0f0c62f31906001620053c8565b5060408051606081018252600d60208083019182526c22bb32b73a2f989abbb8b6323d60991b938301939093528152601c6000526005909152620035ff907f66eeecffab615cf4c69d47d3aa51576e95b697767264fa754ea36f4e363ea193906001620053c8565b50620036d5601c60036040518060400160405280600d81526020016c22bb32b73a2f98b39abbba37b160991b8152506040518060400160405280601a81526020017f5072696d6c6a656e6f206f626176657374656e6a65206f2e2e2e00000000000081525060405180604001604052806009815260200168536c757a62656e696b60b81b81525060405180602001604052806000815250604051806020016040528060008152506040518060400160405280600a8152602001691899179998979918191960b11b8152506200524060201b60201c565b60408051606081018252600d60208083019182526c4576656e745f3069697735643360981b938301939093528152601d60005260039091526200373c907f4ba0d371c59a4c8176901cb7799ecdd8b41b974be3a1349b5d0a9ff9aaa230d9906001620053c8565b5060408051606081018252600f60208083019182526e476174657761795f303168726a706d60881b938301939093528152601d6000526004909152620037a6907f547911337f50119fe7598b1be3fa84d3d0506ffe5c730db17c43bc74040bbfce906001620053c8565b5060408051606081018252600d60208083019182526c115d995b9d17cc0d1d1b0dcc9b609a1b938301939093528152601d60005260059091526200380e907f348e8fe0716b12afdd2e814ae0b8b1bb9b5c7a197ef418c73b8bdd93bee14de5906001620053c8565b50620038d8601d60036040518060400160405280600d81526020016c04576656e745f3035776e76717609c1b815250604051806040016040528060118152602001705072696d6c6a656e61206b61727469636160781b81525060405180604001604052806009815260200168536c757a62656e696b60b81b81525060405180602001604052806000815250604051806020016040528060008152506040518060400160405280600a8152602001691899179998979918191960b11b8152506200524060201b60201c565b60408051606081018252600d60208083019182526c115d995b9d17cc0d1d1b0dcc9b609a1b938301939093528152601e60005260039091526200393f907f6117fee2f1274e1b392d2c3fe842478040a980d896757f38cbfe2ceebfa9f55f906001620053c8565b5060408051606081018252600d60208083019182526c4576656e745f3132797838697160981b938301939093528152601e6000526004909152620039a7907f9041ee6632bd2142b9cc58f348e0761559f8d964fe48ac6d87dc2b689213e3bb906001620053c8565b5060408051606081018252600d60208083019182526c4576656e745f3131636269393360981b938301939093528152601e600052600590915262003a0f907f3fb1f8b5b572f385df2ff517fa4200d6781fd017f742a2f073e874e0dca7758b906001620053c8565b5062003ad8601e60036040518060400160405280600d81526020016c4576656e745f303977386b643360981b815250604051806040016040528060118152602001705072696d6c6a656e61206b61727469636160781b8152506040518060400160405280600881526020016726b2b730b23d32b960c11b81525060405180602001604052806000815250604051806020016040528060008152506040518060400160405280600a8152602001691899179998979918191960b11b8152506200524060201b60201c565b60408051606081018252600d60208083019182526c115d995b9d17cc1d1a595cd9cd609a1b938301939093528152601f600052600490915262003b3f907f4c55bec45be59a99d441ccb7880f9b68f316b687ab5ac77efc4386a807007768906001620053c8565b5062003bf7601f60016040518060400160405280600d81526020016c22bb32b73a2f989b3ab9379b3560991b81525060405180606001604052806022815260200162008bae602291396040518060400160405280600781526020016614dd1d59195b9d60ca1b81525060405180602001604052806000815250604051806020016040528060008152506040518060400160405280600a8152602001691899179998979918191960b11b8152506200524060201b60201c565b60408051606081018252600d60208083019182526c04576656e745f3030776b35743609c1b9383019390935281526000829052600490915262003c5e907f96648185182926add89ee4d5c354d3f3e8383a8966d4d875bd8575e13aa27a96906001620053c8565b5062003d32602060016040518060400160405280600d81526020016c4576656e745f306f366969653760981b8152506040518060400160405280601d81526020017f4b72616a2075736c6564206f646c61736b6120706f206b6172746963750000008152506040518060400160405280600781526020016614dd1d59195b9d60ca1b81525060405180602001604052806000815250604051806020016040528060008152506040518060400160405280600a8152602001691899179998979918191960b11b8152506200524060201b60201c565b60408051606081018252600d60208083019182526c22bb32b73a2f9831b9b7b1b3bb60991b9383019390935281526021600052600490915262003d99907f1a6a7f21c46330bc6f6a1e986d3ef56bc7833cc3006bfde177cce9f142837659906001620053c8565b5062003e5d602160016040518060400160405280600d81526020016c115d995b9d17cc0e588d189c9d609a1b8152506040518060400160405280600d81526020016c25b930b5103ab9b632b217171760991b8152506040518060400160405280600781526020016614dd1d59195b9d60ca1b81525060405180602001604052806000815250604051806020016040528060008152506040518060400160405280600a8152602001691899179998979918191960b11b8152506200524060201b60201c565b60408051606081018252600f60208083019182526e476174657761795f306f796e38376560881b9383019390935281526022600052600490915262003ec6907f7817f7889f42986426820e39b6be36471d2facb3b03609d32089206107cd0e8a906001620053c8565b5060408051606081018252600d60208083019182526c22bb32b73a2f98b39abbba37b160991b9383019390935281526022600052600690915262003f2e907f08af5381260e66889371782fbe46d40aca6dd5be0ae554320299edbbb452ab6d906001620053c8565b5062003fe7602260016040518060400160405280600d81526020016c22bb32b73a2f989abbb8b6323d60991b81525060405180606001604052806027815260200162008bd0602791396040518060400160405280600881526020016726b2b730b23d32b960c11b81525060405180602001604052806000815250604051806020016040528060008152506040518060400160405280600a8152602001691899179998979918191960b11b8152506200524060201b60201c565b60408051606081018252600d60208083019182526c4576656e745f303977386b643360981b938301939093528152602360005260049091526200404e907fb91c9b6e3cf94511f58867e361a9e0dd6a5c84a5d216d6f87ae5fdb9bf257b2b906001620053c8565b5060408051606081018252600d60208083019182526c04576656e745f3035776e76717609c1b93830193909352815260236000526006909152620040b6907fe48df43c9c2e40abe481a46147d0b2adbaf395b9b6d89ca6749a6ecefa692f3e906001620053c8565b506200418b602360016040518060400160405280600d81526020016c115d995b9d17cc0d1d1b0dcc9b609a1b8152506040518060400160405280601a81526020017f506f736c617461206b61727469636120736c757a62656e696b750000000000008152506040518060400160405280600881526020016726b2b730b23d32b960c11b81525060405180602001604052806000815250604051806020016040528060008152506040518060400160405280600a8152602001691899179998979918191960b11b8152506200524060201b60201c565b60408051606081018252601060208083019182526f20b1ba34bb34ba3caf98b0b43437983360811b93830193909352815260246000526004909152620041f5907f724ad3d24f57aae4bebead5383879105ce62b9d5fa67d4343ae412b59bd7971d906001620053c8565b5060408051606081018252600d60208083019182526c4576656e745f303977386b643360981b938301939093528152602460005260069091526200425d907f1db7b1394727b4ec83580f945ddf3bdf76fcb71f6c6109779c749ee7ec003004906001620053c8565b5062004336602460016040518060400160405280600d81526020016c4576656e745f3131636269393360981b8152506040518060400160405280601981526020017f506f736c617461206b617274696361206d656e61647a6572750000000000000081525060405180604001604052806018815260200160008051602062008b0783398151915281525060405180602001604052806000815250604051806020016040528060008152506040518060400160405280600a8152602001691899179998979918191960b11b8152506200524060201b60201c565b6040805160a081018252600d606082018181526c115d995b9d17cc1d1a595cd9cd609a1b60808401528252825180840184528181526c22bb32b73a2f9831b9b7b1b3bb60991b60208281019190915280840191909152835180850185529182526c04576656e745f3030776b35743609c1b82820152928201526025600052600391829052620043e8917f37e56e4c2b6ed73b31a7a63e641bfee67245b50921806a650aa65bb58a213ba7919062005421565b5060408051608081018252600d8183019081526c4576656e745f30616f6e616d3960981b606083015281528151808301909252601082526f1058dd1a5d9a5d1e57cc0dce59de8dcd60821b60208381019190915280820192909252602560005260049091526200447c907f2b9c662716c34a6b24cd9b4f63fe731a136a5a3399a9750ed5cdee99e40faa3a9060026200546c565b506200452c602560056040518060400160405280600f81526020016e476174657761795f3062616974693160881b815250604051806020016040528060008152506040518060400160405280600781526020016614dd1d59195b9d60ca1b81525060405180602001604052806000815250604051806020016040528060008152506040518060400160405280600a8152602001691899179998979918191960b11b8152506200524060201b60201c565b60408051608081018252600d8183019081526c08aeccadce8be62d872c46edc7609b1b606083015281528151808301909252601082526f41637469766974795f31366d666c797760801b6020838101919091528082019290925260266000526003909152620045bf907f6e80044b428a86ddb5f7277680f16ac528219bbc3f477f367a023fd1680fef059060026200546c565b5060408051606081018252601060208083019182526f1058dd1a5d9a5d1e57cc18588c999cdd60821b938301939093528152602660005260049091526200462a907ff8f9fbe49577efd32b3647a88078df070961ceaa913763423b34eeb65953041b906001620053c8565b50620046dc602660056040518060400160405280600f81526020016e08ec2e8caeec2f2be62f0e062c8607608b1b8152506040518060200160405280600081525060405180604001604052806009815260200168536c757a62656e696b60b81b81525060405180602001604052806000815250604051806020016040528060008152506040518060400160405280600a8152602001691899179998979918191960b11b8152506200524060201b60201c565b60408051608081018252600d8183019081526c115d995b9d17cc0d8d8d5b9e9d609a1b606083015281528151808301909252601082526f41637469766974795f3164726934713360801b60208381019190915280820192909252602760005260039091526200476f907f10f3a17841c6d818ccbb16e4596978865bb77ba586b583c9de26b166e55de8649060026200546c565b5060408051606081018252601060208083019182526f41637469766974795f31366d666c797760801b93830193909352815260276000526004909152620047da907faaded8c7cb956d25d285cba29213c176ec5fc32f3996cb04804f6c9dc496ea72906001620053c8565b50620048b2602760056040518060400160405280600f81526020016e476174657761795f31777a76306e3760881b8152506040518060400160405280601b81526020017f5b4461204a616e6520446f6520646f62726f20706f70756e696f3f000000000081525060405180604001604052806009815260200168536c757a62656e696b60b81b81525060405180602001604052806000815250604051806020016040528060008152506040518060400160405280600a8152602001691899179998979918191960b11b8152506200524060201b60201c565b60408051606081018252600d60208083019182526c4576656e745f3063653138333360981b9383019390935281526028600052600390915262004919907ff787d5ff306ee7ea1d7b35b5cacd5a837646921c113945dbc3a3b6329ce40033906001620053c8565b506040805160808101825260108183018181526f41637469766974795f3164726934713360801b60608401528252825180840190935282526f41637469766974795f316a6e3873763360801b6020838101919091528082019290925260286000526004909152620049ae907f2b634da6ab875d88498f503820d9b51f6eb10d3d2f378c32aef2289b509f3def9060026200546c565b5062004a60602860056040518060400160405280600f81526020016e23b0ba32bbb0bcaf983a39b33719b160891b8152506040518060200160405280600081525060405180604001604052806009815260200168536c757a62656e696b60b81b81525060405180602001604052806000815250604051806020016040528060008152506040518060400160405280600a8152602001691899179998979918191960b11b8152506200524060201b60201c565b60408051608081018252600d8183018181526c22bb32b73a2f98b39abbba37b160991b60608401528252825180840190935282526c04576656e745f3035776e76717609c1b602083810191909152808201929092526029600052600390915262004aee907fa6d60d4ff1c38ae572157a43d1b8579039e4b4cc96e22c75c07379751785fe519060026200546c565b5060408051606081018252600d60208083019182526c4576656e745f3063653138333360981b9383019390935281526029600052600490915262004b56907fda151e1f1eb9b837d3da35d08f1188bdcb6e944aa00ae0cc2fa12060555d939b906001620053c8565b5062004c08602960056040518060400160405280600f81526020016e476174657761795f303168726a706d60881b8152506040518060200160405280600081525060405180604001604052806009815260200168536c757a62656e696b60b81b81525060405180602001604052806000815250604051806020016040528060008152506040518060400160405280600a8152602001691899179998979918191960b11b8152506200524060201b60201c565b60408051608081018252600d8183019081526c22bb32b73a2f989abbb8b6323d60991b606083015281528151808301909252601082526f41637469766974795f31636f6474686d60801b60208381019190915280820192909252602a600052600390915262004c9b907ffbefd6df65b5da21e9f0dc3da2df6dc37be71551086f5aba2b0ad548c47581509060026200546c565b5060408051606081018252601060208083019182526f082c6e8d2ecd2e8f2be60dcd6c8d6ccf60831b938301939093528152602a600052600490915262004d06907f4045736e0d6732881e3d4bd60e2ea0771cee9b1fc6c317a33475d710474b9adc906001620053c8565b5062004ddd602a60056040518060400160405280600f81526020016e476174657761795f306f796e38376560881b8152506040518060400160405280601881526020017f5b4461204a616e6520446f6520737665207520726564753f00000000000000008152506040518060400160405280600881526020016726b2b730b23d32b960c11b81525060405180602001604052806000815250604051806020016040528060008152506040518060400160405280600a8152602001691899179998979918191960b11b8152506200524060201b60201c565b60408051606081018252601060208083019182526f1058dd1a5d9a5d1e57cc18588c999cdd60821b938301939093528152602b600052600390915262004e47907f47bd603b2672149df187087e649a417345c22ebc601af252344b2472b5a5fea8906001620053c8565b506040805160808101825260108183018181526f41637469766974795f30313468396f3160801b60608401528252825180840190935282526f41637469766974795f316c696866683560801b60208381019190915280820192909252602b600052600490915262004edc907f90cda500e35aaf03a1a434c6c35e405898eb7e8c3b95c3a697cd23106146040e9060026200546c565b5062004f8e602b60066040518060400160405280600f81526020016e476174657761795f307838647a793160881b8152506040518060200160405280600081525060405180604001604052806009815260200168536c757a62656e696b60b81b81525060405180602001604052806000815250604051806020016040528060008152506040518060400160405280600a8152602001691899179998979918191960b11b8152506200524060201b60201c565b6040805160808101825260108183018181526f41637469766974795f30313468396f3160801b60608401528252825180840190935282526f41637469766974795f316c696866683560801b60208381019190915280820192909252602c600052600390915262005022907f181ec19a0f957384e4ecbe9410e516ad0fe8cc3e53caac5ffc50eb11e64bf4889060026200546c565b5060408051606081018252600d60208083019182526c4576656e745f3161696c68723560981b938301939093528152602c60005260049091526200508a907fcee00ef6983e77a7e1db3b46722f66f35b443eda730735f8d62ca455b3aed108906001620053c8565b506200513c602c60066040518060400160405280600f81526020016e23b0ba32bbb0bcaf981c3a9ab7323760891b8152506040518060200160405280600081525060405180604001604052806009815260200168536c757a62656e696b60b81b81525060405180602001604052806000815250604051806020016040528060008152506040518060400160405280600a8152602001691899179998979918191960b11b8152506200524060201b60201c565b62005736565b6000816001600160401b038111156200515f576200515f6200556f565b60405190808252806020026020018201604052801562005189578160200160208202803683370190505b50905060005b82811015620051c25780828281518110620051ae57620051ae62005585565b60209081029190910101526001016200518f565b5060408051606081018252600854808252602080830187815283850186905260009283529082905292902081518155915190919060018201906200520790826200562c565b506040820151805162005225916002840191602090910190620054b7565b50506008546200523891506001620056f8565b600855505050565b60405180610100016040528089815260200188600781111562005267576200526762005720565b815260200187815260200186815260200185815260200184815260200183815260200182815250600260008a81526020019081526020016000206000820151816000015560208201518160010160006101000a81548160ff02191690836007811115620052d857620052d862005720565b021790555060408201516002820190620052f390826200562c565b50606082015160038201906200530a90826200562c565b50608082015160048201906200532190826200562c565b5060a082015160058201906200533890826200562c565b5060c082015160068201906200534f90826200562c565b5060e082015160078201906200536690826200562c565b5050505050505050505050565b828054828255906000526020600020908101928215620053b6579160200282015b82811115620053b6578251829060ff1690559160200191906001019062005394565b50620053c4929150620054f5565b5090565b82805482825590600052602060002090810192821562005413579160200282015b828111156200541357825182906200540290826200562c565b5091602001919060010190620053e9565b50620053c49291506200550c565b82805482825590600052602060002090810192821562005413579160200282015b828111156200541357825182906200545b90826200562c565b509160200191906001019062005442565b82805482825590600052602060002090810192821562005413579160200282015b82811115620054135782518290620054a690826200562c565b50916020019190600101906200548d565b828054828255906000526020600020908101928215620053b6579160200282015b82811115620053b6578251825591602001919060010190620054d8565b5b80821115620053c45760008155600101620054f6565b80821115620053c45760006200552382826200552d565b506001016200550c565b5080546200553b906200559b565b6000825580601f106200554c575050565b601f0160209004906000526020600020908101906200556c9190620054f5565b50565b634e487b7160e01b600052604160045260246000fd5b634e487b7160e01b600052603260045260246000fd5b600181811c90821680620055b057607f821691505b602082108103620055d157634e487b7160e01b600052602260045260246000fd5b50919050565b601f82111562005627576000816000526020600020601f850160051c81016020861015620056025750805b601f850160051c820191505b8181101562005623578281556001016200560e565b5050505b505050565b81516001600160401b038111156200564857620056486200556f565b62005660816200565984546200559b565b84620055d7565b602080601f8311600181146200569857600084156200567f5750858301515b600019600386901b1c1916600185901b17855562005623565b600085815260208120601f198616915b82811015620056c957888601518255948401946001909101908401620056a8565b5085821015620056e85787850151600019600388901b60f8161c191681555b5050505050600190811b01905550565b808201808211156200571a57634e487b7160e01b600052601160045260246000fd5b92915050565b634e487b7160e01b600052602160045260246000fd5b61333e80620057466000396000f3fe60806040526004361061014b5760003560e01c806379a42d06116100b657806398d46dfd1161006f57806398d46dfd146103ee578063a58603e01461040e578063af12a5711461042e578063bed34bba14610443578063c29de7ca14610463578063ecd3645e1461048357600080fd5b806379a42d061461033257806386209b871461034857806386f612271461037b57806394d55eaf1461039b57806395755d17146103bb57806397ada366146103ce57600080fd5b80633a3e8a95116101085780633a3e8a951461025f5780634b5ae0771461028e578063581cf028146102a357806359b97b97146102c35780635f03facd146102e357806378660f5e1461031257600080fd5b806309be70b2146101505780630b09c8ce1461017b5780630d1657e8146101ba57806311ae9ed2146101ee57806319dfc19d1461020357806324a4dd9414610230575b600080fd5b34801561015c57600080fd5b506101656104a3565b60405161017291906129b5565b60405180910390f35b34801561018757600080fd5b506101aa6101963660046129f9565b600090815260066020526040902054151590565b6040519015158152602001610172565b3480156101c657600080fd5b506101da6101d53660046129f9565b6104fb565b604051610172989796959493929190612a78565b3480156101fa57600080fd5b50610165610871565b34801561020f57600080fd5b5061022361021e366004612b29565b6108c7565b6040516101729190612b4b565b34801561023c57600080fd5b506101aa61024b3660046129f9565b600090815260036020526040902054151590565b34801561026b57600080fd5b506101aa61027a3660046129f9565b600090815260046020526040902054151590565b6102a161029c3660046129f9565b610980565b005b3480156102af57600080fd5b506102236102be366004612b29565b610a14565b3480156102cf57600080fd5b506101aa6102de366004612bac565b610a30565b3480156102ef57600080fd5b506101aa6102fe3660046129f9565b600090815260056020526040902054151590565b34801561031e57600080fd5b5061016561032d3660046129f9565b610a7b565b61033a610ade565b604051908152602001610172565b34801561035457600080fd5b506103686103633660046129f9565b610af1565b6040516101729796959493929190612c5e565b34801561038757600080fd5b50610223610396366004612cd9565b610e29565b3480156103a757600080fd5b506102236103b6366004612b29565b610e42565b6102a16103c9366004612d72565b610e5e565b3480156103da57600080fd5b5061033a6103e9366004612e04565b61106a565b3480156103fa57600080fd5b506102a1610409366004612e55565b6110e2565b34801561041a57600080fd5b506102a1610429366004612f66565b611203565b34801561043a57600080fd5b506101656112f3565b34801561044f57600080fd5b506101aa61045e366004612fab565b611349565b34801561046f57600080fd5b506102a161047e366004612fab565b6113a2565b34801561048f57600080fd5b5061022361049e366004612b29565b6115fb565b6060600a8054806020026020016040519081016040528092919081815260200182805480156104f157602002820191906000526020600020905b8154815260200190600101908083116104dd575b5050505050905090565b6002602081905260009182526040909120805460018201549282018054919360ff1692916105289061300f565b80601f01602080910402602001604051908101604052809291908181526020018280546105549061300f565b80156105a15780601f10610576576101008083540402835291602001916105a1565b820191906000526020600020905b81548152906001019060200180831161058457829003601f168201915b5050505050908060030180546105b69061300f565b80601f01602080910402602001604051908101604052809291908181526020018280546105e29061300f565b801561062f5780601f106106045761010080835404028352916020019161062f565b820191906000526020600020905b81548152906001019060200180831161061257829003601f168201915b5050505050908060040180546106449061300f565b80601f01602080910402602001604051908101604052809291908181526020018280546106709061300f565b80156106bd5780601f10610692576101008083540402835291602001916106bd565b820191906000526020600020905b8154815290600101906020018083116106a057829003601f168201915b5050505050908060050180546106d29061300f565b80601f01602080910402602001604051908101604052809291908181526020018280546106fe9061300f565b801561074b5780601f106107205761010080835404028352916020019161074b565b820191906000526020600020905b81548152906001019060200180831161072e57829003601f168201915b5050505050908060060180546107609061300f565b80601f016020809104026020016040519081016040528092919081815260200182805461078c9061300f565b80156107d95780601f106107ae576101008083540402835291602001916107d9565b820191906000526020600020905b8154815290600101906020018083116107bc57829003601f168201915b5050505050908060070180546107ee9061300f565b80601f016020809104026020016040519081016040528092919081815260200182805461081a9061300f565b80156108675780601f1061083c57610100808354040283529160200191610867565b820191906000526020600020905b81548152906001019060200180831161084a57829003601f168201915b5050505050905088565b6060600b8054806020026020016040519081016040528092919081815260200182805480156104f157602002820191906000526020600020908154815260200190600101908083116104dd575050505050905090565b600360205281600052604060002081815481106108e357600080fd5b906000526020600020016000915091505080546108ff9061300f565b80601f016020809104026020016040519081016040528092919081815260200182805461092b9061300f565b80156109785780601f1061094d57610100808354040283529160200191610978565b820191906000526020600020905b81548152906001019060200180831161095b57829003601f168201915b505050505081565b600061098c6000610a7b565b6000838152600560209081526040808320546002928390529083206001015493945015159260ff1660078111156109c5576109c5612a12565b149050816109dc576109d78484611617565b610a04565b8180156109e65750805b156109f5576109d784846116fb565b80610a0457610a048484611617565b610a0e8484611719565b50505050565b600560205281600052604060002081815481106108e357600080fd5b6000805b8251811015610a6f5783838281518110610a5057610a50613049565b602002602001015103610a67576001915050610a75565b600101610a34565b50600090505b92915050565b60008181526020818152604091829020600201805483518184028101840190945280845260609392830182828015610ad257602002820191906000526020600020905b815481526020019060010190808311610abe575b50505050509050919050565b6000610aeb600a82612937565b50600090565b600081815260026020526040812080546001909101548291606091829182918291829160ff166007811115610b2857610b28612a12565b60008a8152600260208190526040909120908101805490916003810191600582019160068101916004909101908590610b609061300f565b80601f0160208091040260200160405190810160405280929190818152602001828054610b8c9061300f565b8015610bd95780601f10610bae57610100808354040283529160200191610bd9565b820191906000526020600020905b815481529060010190602001808311610bbc57829003601f168201915b50505050509450838054610bec9061300f565b80601f0160208091040260200160405190810160405280929190818152602001828054610c189061300f565b8015610c655780601f10610c3a57610100808354040283529160200191610c65565b820191906000526020600020905b815481529060010190602001808311610c4857829003601f168201915b50505050509350828054610c789061300f565b80601f0160208091040260200160405190810160405280929190818152602001828054610ca49061300f565b8015610cf15780601f10610cc657610100808354040283529160200191610cf1565b820191906000526020600020905b815481529060010190602001808311610cd457829003601f168201915b50505050509250818054610d049061300f565b80601f0160208091040260200160405190810160405280929190818152602001828054610d309061300f565b8015610d7d5780601f10610d5257610100808354040283529160200191610d7d565b820191906000526020600020905b815481529060010190602001808311610d6057829003601f168201915b50505050509150808054610d909061300f565b80601f0160208091040260200160405190810160405280929190818152602001828054610dbc9061300f565b8015610e095780601f10610dde57610100808354040283529160200191610e09565b820191906000526020600020905b815481529060010190602001808311610dec57829003601f168201915b505050505090509650965096509650965096509650919395979092949650565b600160205260009081526040902080546108ff9061300f565b600460205281600052604060002081815481106108e357600080fd5b60008481526002602052604090206004018054610f03918591610e809061300f565b80601f0160208091040260200160405190810160405280929190818152602001828054610eac9061300f565b8015610ef95780601f10610ece57610100808354040283529160200191610ef9565b820191906000526020600020905b815481529060010190602001808311610edc57829003601f168201915b5050505050611349565b610f0c57600080fd5b600084815260026020526040902060010154610f2a9060ff16611760565b610f3357600080fd5b6000600a8581548110610f4857610f48613049565b906000526020600020015460011490506000600b8681548110610f6d57610f6d613049565b906000526020600020015460011490508180610f865750805b1561106257600560008781526002602052604090206001015460ff166007811115610fb357610fb3612a12565b03610fc657610fc186611823565b611007565b600660008781526002602052604090206001015460ff166007811115610fee57610fee612a12565b03610ffc57610fc1866119f6565b611007868585611d07565b336001600160a01b03167f32e4ea1ee1b7d04aff7692ad7aa9a1db44a16ce2b519efa717ddd98034b9f1c3600260008981526020019081526020016000206002018686604051611059939291906130dc565b60405180910390a25b505050505050565b6000806110776000610a7b565b905060005b81518110156110d7576110c3846002600085858151811061109f5761109f613049565b602002602001015181526020019081526020016000206002018054610e809061300f565b156110cf579392505050565b60010161107c565b506101949392505050565b60405180610100016040528089815260200188600781111561110657611106612a12565b815260200187815260200186815260200185815260200184815260200183815260200182815250600260008a81526020019081526020016000206000820151816000015560208201518160010160006101000a81548160ff0219169083600781111561117457611174612a12565b02179055506040820151600282019061118d9082613167565b50606082015160038201906111a29082613167565b50608082015160048201906111b79082613167565b5060a082015160058201906111cc9082613167565b5060c082015160068201906111e19082613167565b5060e082015160078201906111f69082613167565b5050505050505050505050565b60008167ffffffffffffffff81111561121e5761121e612b65565b604051908082528060200260200182016040528015611247578160200160208202803683370190505b50905060005b8281101561127b578082828151811061126857611268613049565b602090810291909101015260010161124d565b5060408051606081018252600854808252602080830187815283850186905260009283529082905292902081518155915190919060018201906112be9082613167565b50604082015180516112da916002840191602090910190612955565b50506008546112eb91506001613227565b600855505050565b6060600c8054806020026020016040519081016040528092919081815260200182805480156104f157602002820191906000526020600020908154815260200190600101908083116104dd575050505050905090565b60008160405160200161135c9190613248565b60405160208183030381529060405280519060200120836040516020016113839190613248565b6040516020818303038152906040528051906020012014905092915050565b60006113ad8361106a565b90506001600a82815481106113c4576113c4613049565b90600052602060002001819055506000600c82815481106113e7576113e7613049565b90600052602060002001819055506000600b828154811061140a5761140a613049565b906000526020600020018190555060005b60078360405161142b9190613248565b9081526040519081900360200190205481101561158057600061150e6007856040516114579190613248565b9081526020016040518091039020838154811061147657611476613049565b90600052602060002001805461148b9061300f565b80601f01602080910402602001604051908101604052809291908181526020018280546114b79061300f565b80156115045780601f106114d957610100808354040283529160200191611504565b820191906000526020600020905b8154815290600101906020018083116114e757829003601f168201915b505050505061106a565b90506000600a828154811061152557611525613049565b90600052602060002001819055506000600c828154811061154857611548613049565b90600052602060002001819055506000600b828154811061156b5761156b613049565b6000918252602090912001555060010161141b565b50600061158c8361106a565b90506000600a82815481106115a3576115a3613049565b90600052602060002001819055506000600c82815481106115c6576115c6613049565b90600052602060002001819055506000600b82815481106115e9576115e9613049565b60009182526020909120015550505050565b600660205281600052604060002081815481106108e357600080fd5b60005b6000838152600360205260409020548110156116f657600083815260036020526040902080546116ee9184918490811061165657611656613049565b90600052602060002001805461166b9061300f565b80601f01602080910402602001604051908101604052809291908181526020018280546116979061300f565b80156116e45780601f106116b9576101008083540402835291602001916116e4565b820191906000526020600020905b8154815290600101906020018083116116c757829003601f168201915b5050505050611d79565b60010161161a565b505050565b60006117078383611e2d565b905080156116f6576116f68383611617565b60005b6000838152600660205260409020548110156116f657600083815260066020526040902080546117589184918490811061165657611656613049565b60010161171c565b60008082600781111561177557611775612a12565b14806117925750600282600781111561179057611790612a12565b145b806117ae575060038260078111156117ac576117ac612a12565b145b806117ca575060048260078111156117c8576117c8612a12565b145b806117e6575060018260078111156117e4576117e4612a12565b145b806118025750600582600781111561180057611800612a12565b145b80610a755750600682600781111561181c5761181c612a12565b1492915050565b6000600a828154811061183857611838613049565b90600052602060002001819055506001600c828154811061185b5761185b613049565b906000526020600020018190555060006118756000610a7b565b905060005b6000838152600360205260409020548110156116f65760008381526003602052604081208054839081106118b0576118b0613049565b9060005260206000200180546118c59061300f565b80601f01602080910402602001604051908101604052809291908181526020018280546118f19061300f565b801561193e5780601f106119135761010080835404028352916020019161193e565b820191906000526020600020905b81548152906001019060200180831161192157829003601f168201915b5050505050905060005b83518110156119ec5761196b826002600087858151811061109f5761109f613049565b156119e4576001600a85838151811061198657611986613049565b60200260200101518154811061199e5761199e613049565b9060005260206000200181905550600d8482815181106119c0576119c0613049565b602090810291909101810151825460018101845560009384529190922001556119ec565b600101611948565b505060010161187a565b600080611a036000610a7b565b905060005b600084815260046020526040902054811015611b61576000848152600460205260408120805483908110611a3e57611a3e613049565b906000526020600020018054611a539061300f565b80601f0160208091040260200160405190810160405280929190818152602001828054611a7f9061300f565b8015611acc5780601f10611aa157610100808354040283529160200191611acc565b820191906000526020600020905b815481529060010190602001808311611aaf57829003601f168201915b5050505050905060005b8351811015611b5757611af9826002600087858151811061109f5761109f613049565b15611b4f57600c848281518110611b1257611b12613049565b602002602001015181548110611b2a57611b2a613049565b9060005260206000200154600103611b4a57611b47856001613227565b94505b611b57565b600101611ad6565b5050600101611a08565b5060008381526004602052604090205482036116f6576000600a8481548110611b8c57611b8c613049565b90600052602060002001819055506001600c8481548110611baf57611baf613049565b906000526020600020018190555060005b600084815260036020526040902054811015610a0e576000848152600360205260408120805483908110611bf657611bf6613049565b906000526020600020018054611c0b9061300f565b80601f0160208091040260200160405190810160405280929190818152602001828054611c379061300f565b8015611c845780601f10611c5957610100808354040283529160200191611c84565b820191906000526020600020905b815481529060010190602001808311611c6757829003601f168201915b5050505050905060005b8351811015611cfd57611cb1826002600087858151811061109f5761109f613049565b15611cf5576001600a858381518110611ccc57611ccc613049565b602002602001015181548110611ce457611ce4613049565b600091825260209091200155611cfd565b600101611c8e565b5050600101611bc0565b611d12838383611f9d565b611d6c83600d805480602002602001604051908101604052809291908181526020018280548015611d6257602002820191906000526020600020905b815481526020019060010190808311611d4e575b5050505050610a30565b156116f6576116f66120a6565b60005b82518110156116f657611d9f826002600086858151811061109f5761109f613049565b8015611de157506001600c848381518110611dbc57611dbc613049565b602002602001015181548110611dd457611dd4613049565b9060005260206000200154105b15611e25576001600a848381518110611dfc57611dfc613049565b602002602001015181548110611e1457611e14613049565b600091825260209091200155505050565b600101611d7c565b6000805b8251811015610a6f5760008481526005602052604081208054611f049290611e5b57611e5b613049565b906000526020600020018054611e709061300f565b80601f0160208091040260200160405190810160405280929190818152602001828054611e9c9061300f565b8015611ee95780601f10611ebe57610100808354040283529160200191611ee9565b820191906000526020600020905b815481529060010190602001808311611ecc57829003601f168201915b50505050506002600086858151811061109f5761109f613049565b8015611f8657506000600b848381518110611f2157611f21613049565b602002602001015181548110611f3957611f39613049565b90600052602060002001541180611f8657506000600c848381518110611f6157611f61613049565b602002602001015181548110611f7957611f79613049565b9060005260206000200154115b15611f95576001915050610a75565b600101611e31565b600083815260026020526040812060060180546120519190611fbe9061300f565b80601f0160208091040260200160405190810160405280929190818152602001828054611fea9061300f565b80156120375780601f1061200c57610100808354040283529160200191612037565b820191906000526020600020905b81548152906001019060200180831161201a57829003601f168201915b505050505060405180602001604052806000815250611349565b159050600061207a600260008781526020019081526020016000206005018054611fbe9061300f565b159050816120935761208e85858584612108565b61209f565b61209f8585858461249f565b5050505050565b60005b600d548110156120f9576000600a600d83815481106120ca576120ca613049565b9060005260206000200154815481106120e5576120e5613049565b6000918252602090912001556001016120a9565b50612106600d6000612937565b565b801561212b5760008481526002602052604090206005016121298482613167565b505b60006121376000610a7b565b6000868152600660205260408120549192509015159061215787846124df565b9050600061216588856124df565b905060006007600260008b815260200190815260200160002060020160405161218e9190613264565b90815260405190819003602001902054151590508380156121ac5750805b1561230e576000898152600660205260408120805461230992906121d2576121d2613049565b9060005260206000200180546121e79061300f565b80601f01602080910402602001604051908101604052809291908181526020018280546122139061300f565b80156122605780601f1061223557610100808354040283529160200191612260565b820191906000526020600020905b81548152906001019060200180831161224357829003601f168201915b5050505050600260008c815260200190815260200160002060020180546122869061300f565b80601f01602080910402602001604051908101604052809291908181526020018280546122b29061300f565b80156122ff5780601f106122d4576101008083540402835291602001916122ff565b820191906000526020600020905b8154815290600101906020018083116122e257829003601f168201915b50505050506113a2565b612494565b83158061232057508280156123205750815b1561232e5761230989612627565b8261243b576001600c8a8154811061234857612348613049565b90600052602060002001819055506000600a8a8154811061236b5761236b613049565b90600052602060002001819055506123098986600660008d81526020019081526020016000206000815481106123a3576123a3613049565b9060005260206000200180546123b89061300f565b80601f01602080910402602001604051908101604052809291908181526020018280546123e49061300f565b80156124315780601f1061240657610100808354040283529160200191612431565b820191906000526020600020905b81548152906001019060200180831161241457829003601f168201915b50505050506126b1565b336001600160a01b03167ffc98137258110aa472f6dbf39f2051f7045162382f61b13bb1445bdb0a3e8b8a600260008c81526020019081526020016000206002018960405161248b9291906132da565b60405180910390a25b505050505050505050565b600b84815481106124b2576124b2613049565b90600052602060002001546000036124d4576124cf8482856127ab565b610a0e565b610a0e8484846127e3565b600080805b835181101561261f576000858152600560205260409020541561261757600085815260056020526040812080546125cb929061252257612522613049565b9060005260206000200180546125379061300f565b80601f01602080910402602001604051908101604052809291908181526020018280546125639061300f565b80156125b05780601f10612585576101008083540402835291602001916125b0565b820191906000526020600020905b81548152906001019060200180831161259357829003601f168201915b50505050506002600087858151811061109f5761109f613049565b1561261757600c8482815181106125e4576125e4613049565b6020026020010151815481106125fc576125fc613049565b9060005260206000200154600103612617576001915061261f565b6001016124e4565b509392505050565b6000600b828154811061263c5761263c613049565b90600052602060002001819055506000600a828154811061265f5761265f613049565b90600052602060002001819055506001600c828154811061268257612682613049565b600091825260208083209091019290925582815260039091526040902054156126ae576126ae81610980565b50565b60005b600084815260066020526040902054811015610a0e5760005b83518110156127a2576126f0836002600087858151811061109f5761109f613049565b801561273257506001600c85838151811061270d5761270d613049565b60200260200101518154811061272557612725613049565b9060005260206000200154105b1561279a576001600c85838151811061274d5761274d613049565b60200260200101518154811061276557612765613049565b906000526020600020018190555061279584828151811061278857612788613049565b6020026020010151610980565b6127a2565b6001016126cd565b506001016126b4565b81156127ce5760008381526002602052604090206005016127cc8282613167565b505b6001600b8481548110611e1457611e14613049565b60008381526002602052604090206006016127fe8382613167565b50600061280b6000610a7b565b6000858152600660205260408120549192509015159061282b86846124df565b9050600061283987856124df565b905082158061284d575081801561284d5750805b156128605761285b87612627565b61292e565b816128d5576001600b888154811061287a5761287a613049565b90600052602060002001819055506000600a888154811061289d5761289d613049565b906000526020600020018190555061285b8785600660008b81526020019081526020016000206000815481106123a3576123a3613049565b336001600160a01b03167ffc98137258110aa472f6dbf39f2051f7045162382f61b13bb1445bdb0a3e8b8a600260008a8152602001908152602001600020600201876040516129259291906132da565b60405180910390a25b50505050505050565b50805460008255906000526020600020908101906126ae91906129a0565b828054828255906000526020600020908101928215612990579160200282015b82811115612990578251825591602001919060010190612975565b5061299c9291506129a0565b5090565b5b8082111561299c57600081556001016129a1565b6020808252825182820181905260009190848201906040850190845b818110156129ed578351835292840192918401916001016129d1565b50909695505050505050565b600060208284031215612a0b57600080fd5b5035919050565b634e487b7160e01b600052602160045260246000fd5b60005b83811015612a43578181015183820152602001612a2b565b50506000910152565b60008151808452612a64816020860160208601612a28565b601f01601f19169290920160200192915050565b60006101008a835260088a10612a9e57634e487b7160e01b600052602160045260246000fd5b896020840152806040840152612ab68184018a612a4c565b90508281036060840152612aca8189612a4c565b90508281036080840152612ade8188612a4c565b905082810360a0840152612af28187612a4c565b905082810360c0840152612b068186612a4c565b905082810360e0840152612b1a8185612a4c565b9b9a5050505050505050505050565b60008060408385031215612b3c57600080fd5b50508035926020909101359150565b602081526000612b5e6020830184612a4c565b9392505050565b634e487b7160e01b600052604160045260246000fd5b604051601f8201601f1916810167ffffffffffffffff81118282101715612ba457612ba4612b65565b604052919050565b60008060408385031215612bbf57600080fd5b8235915060208084013567ffffffffffffffff80821115612bdf57600080fd5b818601915086601f830112612bf357600080fd5b813581811115612c0557612c05612b65565b8060051b9150612c16848301612b7b565b8181529183018401918481019089841115612c3057600080fd5b938501935b83851015612c4e57843582529385019390850190612c35565b8096505050505050509250929050565b87815286602082015260e060408201526000612c7d60e0830188612a4c565b8281036060840152612c8f8188612a4c565b90508281036080840152612ca38187612a4c565b905082810360a0840152612cb78186612a4c565b905082810360c0840152612ccb8185612a4c565b9a9950505050505050505050565b600060208284031215612ceb57600080fd5b81356001600160a01b0381168114612b5e57600080fd5b600082601f830112612d1357600080fd5b813567ffffffffffffffff811115612d2d57612d2d612b65565b612d40601f8201601f1916602001612b7b565b818152846020838601011115612d5557600080fd5b816020850160208301376000918101602001919091529392505050565b60008060008060808587031215612d8857600080fd5b84359350602085013567ffffffffffffffff80821115612da757600080fd5b612db388838901612d02565b94506040870135915080821115612dc957600080fd5b612dd588838901612d02565b93506060870135915080821115612deb57600080fd5b50612df887828801612d02565b91505092959194509250565b600060208284031215612e1657600080fd5b813567ffffffffffffffff811115612e2d57600080fd5b612e3984828501612d02565b949350505050565b803560088110612e5057600080fd5b919050565b600080600080600080600080610100898b031215612e7257600080fd5b88359750612e8260208a01612e41565b9650604089013567ffffffffffffffff80821115612e9f57600080fd5b612eab8c838d01612d02565b975060608b0135915080821115612ec157600080fd5b612ecd8c838d01612d02565b965060808b0135915080821115612ee357600080fd5b612eef8c838d01612d02565b955060a08b0135915080821115612f0557600080fd5b612f118c838d01612d02565b945060c08b0135915080821115612f2757600080fd5b612f338c838d01612d02565b935060e08b0135915080821115612f4957600080fd5b50612f568b828c01612d02565b9150509295985092959890939650565b60008060408385031215612f7957600080fd5b823567ffffffffffffffff811115612f9057600080fd5b612f9c85828601612d02565b95602094909401359450505050565b60008060408385031215612fbe57600080fd5b823567ffffffffffffffff80821115612fd657600080fd5b612fe286838701612d02565b93506020850135915080821115612ff857600080fd5b5061300585828601612d02565b9150509250929050565b600181811c9082168061302357607f821691505b60208210810361304357634e487b7160e01b600052602260045260246000fd5b50919050565b634e487b7160e01b600052603260045260246000fd5b6000815461306c8161300f565b80855260206001838116801561308957600181146130a3576130d1565b60ff1985168884015283151560051b8801830195506130d1565b866000528260002060005b858110156130c95781548a82018601529083019084016130ae565b890184019650505b505050505092915050565b6060815260006130ef606083018661305f565b82810360208401526131018186612a4c565b905082810360408401526131158185612a4c565b9695505050505050565b601f8211156116f6576000816000526020600020601f850160051c810160208610156131485750805b601f850160051c820191505b8181101561106257828155600101613154565b815167ffffffffffffffff81111561318157613181612b65565b6131958161318f845461300f565b8461311f565b602080601f8311600181146131ca57600084156131b25750858301515b600019600386901b1c1916600185901b178555611062565b600085815260208120601f198616915b828110156131f9578886015182559484019460019091019084016131da565b50858210156132175787850151600019600388901b60f8161c191681555b5050505050600190811b01905550565b80820180821115610a7557634e487b7160e01b600052601160045260246000fd5b6000825161325a818460208701612a28565b9190910192915050565b60008083546132728161300f565b6001828116801561328a576001811461329f576132ce565b60ff19841687528215158302870194506132ce565b8760005260208060002060005b858110156132c55781548a8201529084019082016132ac565b50505082870194505b50929695505050505050565b6040815260006132ed604083018561305f565b82810360208401526132ff8185612a4c565b9594505050505056fea2646970667358221220225cbb13078c4431f7ba154593c9e5aa0e0b8798bf4146b9f13243928c64a47864736f6c63430008180033506f736c61746f206f626176657374656e6a65206461206a65206b61727469636120676f746f7661506f736c6174207a61687465767a6120706f6e6f766e696d20706f70756e6a6176616e6a656d506f736c61746f5f6f626176657374656e6a655f6f5f6f6462696a616e6a755f7a6168746576615f7a626f6720737461726f737469536c757a6261207a6120697a72616475206b61727469636100000000000000005072696d6c6a656e6f206f626176657374656e6a65206f206f6462696a616e6a757a626f6720737461726f7374695072696d6c6a656e207a6168746576207a6120706f6e6f766e696d20706f70756e6a6176616e6a656d5072696d6c6a656e6f206f626176657374656e6a656f20746f6d65206461206a65206b61727469636120676f746f76614b72616a2075736c6564206f6462696a616e6a61207a626f6720737461726f737469506f736c61746f206f626176657374656e6a65206f206f6462696a616e6a75207a616874657661","opcodes":"PUSH1 0x80 PUSH1 0x40 MSTORE PUSH1 0x0 PUSH1 0x8 SSTORE PUSH1 0x0 PUSH1 0x9 SSTORE CALLVALUE DUP1 ISZERO PUSH3 0x1B JUMPI PUSH1 0x0 DUP1 REVERT JUMPDEST POP PUSH1 0x40 DUP1 MLOAD DUP1 DUP3 ADD SWAP1 SWAP2 MSTORE PUSH1 0xA DUP2 MSTORE PUSH10 0x1B5E50DBDB9D1C9858DD PUSH1 0xB2 SHL PUSH1 0x20 DUP3 ADD MSTORE PUSH3 0x4A SWAP1 PUSH1 0x2D PUSH3 0x5142 JUMP JUMPDEST PUSH1 0x40 DUP1 MLOAD PUSH2 0x5A0 DUP2 ADD DUP3 MSTORE PUSH1 0x0 DUP1 DUP3 MSTORE PUSH1 0x20 DUP3 ADD DUP2 SWAP1 MSTORE SWAP2 DUP2 ADD DUP3 SWAP1 MSTORE PUSH1 0x60 DUP2 ADD DUP3 SWAP1 MSTORE PUSH1 0x80 DUP2 ADD DUP3 SWAP1 MSTORE PUSH1 0xA0 DUP2 ADD DUP3 SWAP1 MSTORE PUSH1 0xC0 DUP2 ADD DUP3 SWAP1 MSTORE PUSH1 0xE0 DUP2 ADD DUP3 SWAP1 MSTORE PUSH2 0x100 DUP2 ADD DUP3 SWAP1 MSTORE PUSH2 0x120 DUP2 ADD DUP3 SWAP1 MSTORE PUSH2 0x140 DUP2 ADD DUP3 SWAP1 MSTORE PUSH1 0x1 PUSH2 0x160 DUP3 ADD DUP2 SWAP1 MSTORE PUSH2 0x180 DUP3 ADD DUP2 SWAP1 MSTORE PUSH2 0x1A0 DUP3 ADD DUP2 SWAP1 MSTORE PUSH2 0x1C0 DUP3 ADD MSTORE PUSH2 0x1E0 DUP2 ADD DUP3 SWAP1 MSTORE PUSH2 0x200 DUP2 ADD DUP3 SWAP1 MSTORE PUSH2 0x220 DUP2 ADD DUP3 SWAP1 MSTORE PUSH2 0x240 DUP2 ADD DUP3 SWAP1 MSTORE PUSH2 0x260 DUP2 ADD DUP3 SWAP1 MSTORE PUSH2 0x280 DUP2 ADD DUP3 SWAP1 MSTORE PUSH2 0x2A0 DUP2 ADD DUP3 SWAP1 MSTORE PUSH2 0x2C0 DUP2 ADD DUP3 SWAP1 MSTORE PUSH2 0x2E0 DUP2 ADD DUP3 SWAP1 MSTORE PUSH2 0x300 DUP2 ADD DUP3 SWAP1 MSTORE PUSH2 0x320 DUP2 ADD DUP3 SWAP1 MSTORE PUSH2 0x340 DUP2 ADD DUP3 SWAP1 MSTORE PUSH2 0x360 DUP2 ADD DUP3 SWAP1 MSTORE PUSH2 0x380 DUP2 ADD DUP3 SWAP1 MSTORE PUSH2 0x3A0 DUP2 ADD DUP3 SWAP1 MSTORE PUSH2 0x3C0 DUP2 ADD DUP3 SWAP1 MSTORE PUSH2 0x3E0 DUP2 ADD DUP3 SWAP1 MSTORE PUSH2 0x400 DUP2 ADD DUP3 SWAP1 MSTORE PUSH2 0x420 DUP2 ADD DUP3 SWAP1 MSTORE PUSH2 0x440 DUP2 ADD DUP3 SWAP1 MSTORE PUSH2 0x460 DUP2 ADD DUP3 SWAP1 MSTORE PUSH2 0x480 DUP2 ADD DUP3 SWAP1 MSTORE PUSH2 0x4A0 DUP2 ADD DUP3 SWAP1 MSTORE PUSH2 0x4C0 DUP2 ADD DUP3 SWAP1 MSTORE PUSH2 0x4E0 DUP2 ADD DUP3 SWAP1 MSTORE PUSH2 0x500 DUP2 ADD DUP3 SWAP1 MSTORE PUSH2 0x520 DUP2 ADD DUP3 SWAP1 MSTORE PUSH2 0x540 DUP2 ADD DUP3 SWAP1 MSTORE PUSH2 0x560 DUP2 ADD DUP3 SWAP1 MSTORE PUSH2 0x580 DUP2 ADD SWAP2 SWAP1 SWAP2 MSTORE PUSH3 0x1C3 SWAP1 PUSH1 0xA SWAP1 PUSH1 0x2D PUSH3 0x5373 JUMP JUMPDEST POP PUSH1 0x40 DUP1 MLOAD PUSH2 0x5A0 DUP2 ADD DUP3 MSTORE PUSH1 0x0 DUP1 DUP3 MSTORE PUSH1 0x20 DUP3 ADD DUP2 SWAP1 MSTORE SWAP2 DUP2 ADD DUP3 SWAP1 MSTORE PUSH1 0x60 DUP2 ADD DUP3 SWAP1 MSTORE PUSH1 0x80 DUP2 ADD DUP3 SWAP1 MSTORE PUSH1 0xA0 DUP2 ADD DUP3 SWAP1 MSTORE PUSH1 0xC0 DUP2 ADD DUP3 SWAP1 MSTORE PUSH1 0xE0 DUP2 ADD DUP3 SWAP1 MSTORE PUSH2 0x100 DUP2 ADD DUP3 SWAP1 MSTORE PUSH2 0x120 DUP2 ADD DUP3 SWAP1 MSTORE PUSH2 0x140 DUP2 ADD DUP3 SWAP1 MSTORE PUSH2 0x160 DUP2 ADD DUP3 SWAP1 MSTORE PUSH2 0x180 DUP2 ADD DUP3 SWAP1 MSTORE PUSH2 0x1A0 DUP2 ADD DUP3 SWAP1 MSTORE PUSH2 0x1C0 DUP2 ADD DUP3 SWAP1 MSTORE PUSH2 0x1E0 DUP2 ADD DUP3 SWAP1 MSTORE PUSH2 0x200 DUP2 ADD DUP3 SWAP1 MSTORE PUSH2 0x220 DUP2 ADD DUP3 SWAP1 MSTORE PUSH2 0x240 DUP2 ADD DUP3 SWAP1 MSTORE PUSH2 0x260 DUP2 ADD DUP3 SWAP1 MSTORE PUSH2 0x280 DUP2 ADD DUP3 SWAP1 MSTORE PUSH2 0x2A0 DUP2 ADD DUP3 SWAP1 MSTORE PUSH2 0x2C0 DUP2 ADD DUP3 SWAP1 MSTORE PUSH2 0x2E0 DUP2 ADD DUP3 SWAP1 MSTORE PUSH2 0x300 DUP2 ADD DUP3 SWAP1 MSTORE PUSH2 0x320 DUP2 ADD DUP3 SWAP1 MSTORE PUSH2 0x340 DUP2 ADD DUP3 SWAP1 MSTORE PUSH2 0x360 DUP2 ADD DUP3 SWAP1 MSTORE PUSH2 0x380 DUP2 ADD DUP3 SWAP1 MSTORE PUSH2 0x3A0 DUP2 ADD DUP3 SWAP1 MSTORE PUSH2 0x3C0 DUP2 ADD DUP3 SWAP1 MSTORE PUSH2 0x3E0 DUP2 ADD DUP3 SWAP1 MSTORE PUSH2 0x400 DUP2 ADD DUP3 SWAP1 MSTORE PUSH2 0x420 DUP2 ADD DUP3 SWAP1 MSTORE PUSH2 0x440 DUP2 ADD DUP3 SWAP1 MSTORE PUSH2 0x460 DUP2 ADD DUP3 SWAP1 MSTORE PUSH2 0x480 DUP2 ADD DUP3 SWAP1 MSTORE PUSH2 0x4A0 DUP2 ADD DUP3 SWAP1 MSTORE PUSH2 0x4C0 DUP2 ADD DUP3 SWAP1 MSTORE PUSH2 0x4E0 DUP2 ADD DUP3 SWAP1 MSTORE PUSH2 0x500 DUP2 ADD DUP3 SWAP1 MSTORE PUSH2 0x520 DUP2 ADD DUP3 SWAP1 MSTORE PUSH2 0x540 DUP2 ADD DUP3 SWAP1 MSTORE PUSH2 0x560 DUP2 ADD DUP3 SWAP1 MSTORE PUSH2 0x580 DUP2 ADD SWAP2 SWAP1 SWAP2 MSTORE PUSH3 0x33D SWAP1 PUSH1 0xC SWAP1 PUSH1 0x2D PUSH3 0x5373 JUMP JUMPDEST POP PUSH1 0x40 DUP1 MLOAD PUSH2 0x5A0 DUP2 ADD DUP3 MSTORE PUSH1 0x0 DUP1 DUP3 MSTORE PUSH1 0x20 DUP3 ADD DUP2 SWAP1 MSTORE SWAP2 DUP2 ADD DUP3 SWAP1 MSTORE PUSH1 0x60 DUP2 ADD DUP3 SWAP1 MSTORE PUSH1 0x80 DUP2 ADD DUP3 SWAP1 MSTORE PUSH1 0xA0 DUP2 ADD DUP3 SWAP1 MSTORE PUSH1 0xC0 DUP2 ADD DUP3 SWAP1 MSTORE PUSH1 0xE0 DUP2 ADD DUP3 SWAP1 MSTORE PUSH2 0x100 DUP2 ADD DUP3 SWAP1 MSTORE PUSH2 0x120 DUP2 ADD DUP3 SWAP1 MSTORE PUSH2 0x140 DUP2 ADD DUP3 SWAP1 MSTORE PUSH2 0x160 DUP2 ADD DUP3 SWAP1 MSTORE PUSH2 0x180 DUP2 ADD DUP3 SWAP1 MSTORE PUSH2 0x1A0 DUP2 ADD DUP3 SWAP1 MSTORE PUSH2 0x1C0 DUP2 ADD DUP3 SWAP1 MSTORE PUSH2 0x1E0 DUP2 ADD DUP3 SWAP1 MSTORE PUSH2 0x200 DUP2 ADD DUP3 SWAP1 MSTORE PUSH2 0x220 DUP2 ADD DUP3 SWAP1 MSTORE PUSH2 0x240 DUP2 ADD DUP3 SWAP1 MSTORE PUSH2 0x260 DUP2 ADD DUP3 SWAP1 MSTORE PUSH2 0x280 DUP2 ADD DUP3 SWAP1 MSTORE PUSH2 0x2A0 DUP2 ADD DUP3 SWAP1 MSTORE PUSH2 0x2C0 DUP2 ADD DUP3 SWAP1 MSTORE PUSH2 0x2E0 DUP2 ADD DUP3 SWAP1 MSTORE PUSH2 0x300 DUP2 ADD DUP3 SWAP1 MSTORE PUSH2 0x320 DUP2 ADD DUP3 SWAP1 MSTORE PUSH2 0x340 DUP2 ADD DUP3 SWAP1 MSTORE PUSH2 0x360 DUP2 ADD DUP3 SWAP1 MSTORE PUSH2 0x380 DUP2 ADD DUP3 SWAP1 MSTORE PUSH2 0x3A0 DUP2 ADD DUP3 SWAP1 MSTORE PUSH2 0x3C0 DUP2 ADD DUP3 SWAP1 MSTORE PUSH2 0x3E0 DUP2 ADD DUP3 SWAP1 MSTORE PUSH2 0x400 DUP2 ADD DUP3 SWAP1 MSTORE PUSH2 0x420 DUP2 ADD DUP3 SWAP1 MSTORE PUSH2 0x440 DUP2 ADD DUP3 SWAP1 MSTORE PUSH2 0x460 DUP2 ADD DUP3 SWAP1 MSTORE PUSH2 0x480 DUP2 ADD DUP3 SWAP1 MSTORE PUSH2 0x4A0 DUP2 ADD DUP3 SWAP1 MSTORE PUSH2 0x4C0 DUP2 ADD DUP3 SWAP1 MSTORE PUSH2 0x4E0 DUP2 ADD DUP3 SWAP1 MSTORE PUSH2 0x500 DUP2 ADD DUP3 SWAP1 MSTORE PUSH2 0x520 DUP2 ADD DUP3 SWAP1 MSTORE PUSH2 0x540 DUP2 ADD DUP3 SWAP1 MSTORE PUSH2 0x560 DUP2 ADD DUP3 SWAP1 MSTORE PUSH2 0x580 DUP2 ADD SWAP2 SWAP1 SWAP2 MSTORE PUSH3 0x4B7 SWAP1 PUSH1 0xB SWAP1 PUSH1 0x2D PUSH3 0x5373 JUMP JUMPDEST POP PUSH1 0x40 DUP1 MLOAD PUSH1 0x60 DUP2 ADD DUP3 MSTORE PUSH1 0xD PUSH1 0x20 DUP1 DUP4 ADD SWAP2 DUP3 MSTORE PUSH13 0x4576656E745F30616F6E616D39 PUSH1 0x98 SHL SWAP4 DUP4 ADD SWAP4 SWAP1 SWAP4 MSTORE DUP2 MSTORE PUSH1 0x0 DUP1 MSTORE PUSH1 0x3 SWAP1 SWAP2 MSTORE PUSH3 0x51E SWAP1 PUSH32 0x3617319A054D772F909F7C479A2CEBE5066E836A939412E32403C99029B92EFF SWAP1 PUSH1 0x1 PUSH3 0x53C8 JUMP JUMPDEST POP PUSH1 0x40 DUP1 MLOAD PUSH1 0x60 DUP2 ADD DUP3 MSTORE PUSH1 0xD PUSH1 0x20 DUP1 DUP4 ADD SWAP2 DUP3 MSTORE PUSH13 0x22BB32B73A2F981BB8353D3D35 PUSH1 0x99 SHL SWAP4 DUP4 ADD SWAP4 SWAP1 SWAP4 MSTORE DUP2 MSTORE PUSH1 0x0 DUP1 MSTORE PUSH1 0x4 SWAP1 SWAP2 MSTORE PUSH3 0x585 SWAP1 PUSH32 0x17EF568E3E12AB5B9C7254A8D58478811DE00F9E6EB34345ACD53BF8FD09D3EC SWAP1 PUSH1 0x1 PUSH3 0x53C8 JUMP JUMPDEST POP PUSH3 0x651 PUSH1 0x0 PUSH1 0x4 PUSH1 0x40 MLOAD DUP1 PUSH1 0x40 ADD PUSH1 0x40 MSTORE DUP1 PUSH1 0x10 DUP2 MSTORE PUSH1 0x20 ADD PUSH16 0x20B1BA34BB34BA3CAF98B9B93430B335 PUSH1 0x81 SHL DUP2 MSTORE POP PUSH1 0x40 MLOAD DUP1 PUSH1 0x40 ADD PUSH1 0x40 MSTORE DUP1 PUSH1 0x12 DUP2 MSTORE PUSH1 0x20 ADD PUSH18 0x506F646E6F73656E6A655F7A616874657661 PUSH1 0x70 SHL DUP2 MSTORE POP PUSH1 0x40 MLOAD DUP1 PUSH1 0x40 ADD PUSH1 0x40 MSTORE DUP1 PUSH1 0x7 DUP2 MSTORE PUSH1 0x20 ADD PUSH7 0x14DD1D59195B9D PUSH1 0xCA SHL DUP2 MSTORE POP PUSH1 0x40 MLOAD DUP1 PUSH1 0x20 ADD PUSH1 0x40 MSTORE DUP1 PUSH1 0x0 DUP2 MSTORE POP PUSH1 0x40 MLOAD DUP1 PUSH1 0x20 ADD PUSH1 0x40 MSTORE DUP1 PUSH1 0x0 DUP2 MSTORE POP PUSH1 0x40 MLOAD DUP1 PUSH1 0x40 ADD PUSH1 0x40 MSTORE DUP1 PUSH1 0xA DUP2 MSTORE PUSH1 0x20 ADD PUSH10 0x18991799989799181919 PUSH1 0xB1 SHL DUP2 MSTORE POP PUSH3 0x5240 PUSH1 0x20 SHL PUSH1 0x20 SHR JUMP JUMPDEST PUSH1 0x40 DUP1 MLOAD PUSH1 0x60 DUP2 ADD DUP3 MSTORE PUSH1 0xF PUSH1 0x20 DUP1 DUP4 ADD SWAP2 DUP3 MSTORE PUSH15 0x476174657761795F30626169746931 PUSH1 0x88 SHL SWAP4 DUP4 ADD SWAP4 SWAP1 SWAP4 MSTORE DUP2 MSTORE PUSH1 0x1 PUSH1 0x0 DUP2 SWAP1 MSTORE PUSH1 0x3 SWAP1 SWAP3 MSTORE PUSH3 0x6BB SWAP2 PUSH32 0xA15BC60C955C405D20D9149C709E2460F1C2D9A497496A7F46004D1772C3054C SWAP2 SWAP1 PUSH3 0x53C8 JUMP JUMPDEST POP PUSH1 0x40 DUP1 MLOAD PUSH1 0x60 DUP2 ADD DUP3 MSTORE PUSH1 0xD PUSH1 0x20 DUP1 DUP4 ADD SWAP2 DUP3 MSTORE PUSH13 0x115D995B9D17CC1ADB4DCC9899 PUSH1 0x9A SHL SWAP4 DUP4 ADD SWAP4 SWAP1 SWAP4 MSTORE DUP2 MSTORE PUSH1 0x1 PUSH1 0x0 DUP2 SWAP1 MSTORE PUSH1 0x4 SWAP1 SWAP3 MSTORE PUSH3 0x724 SWAP2 PUSH32 0xABD6E7CB50984FF9C2F3E18A2660C3353DADF4E3291DEEB275DAE2CD1E44FE05 SWAP2 SWAP1 PUSH3 0x53C8 JUMP JUMPDEST POP PUSH3 0x7FB PUSH1 0x1 PUSH1 0x4 PUSH1 0x40 MLOAD DUP1 PUSH1 0x40 ADD PUSH1 0x40 MSTORE DUP1 PUSH1 0x10 DUP2 MSTORE PUSH1 0x20 ADD PUSH16 0x1058DD1A5D9A5D1E57CC0DCE59DE8DCD PUSH1 0x82 SHL DUP2 MSTORE POP PUSH1 0x40 MLOAD DUP1 PUSH1 0x40 ADD PUSH1 0x40 MSTORE DUP1 PUSH1 0x14 DUP2 MSTORE PUSH1 0x20 ADD PUSH32 0x506F6E6F766E6F5F706F70756E6A6176616E6A65000000000000000000000000 DUP2 MSTORE POP PUSH1 0x40 MLOAD DUP1 PUSH1 0x40 ADD PUSH1 0x40 MSTORE DUP1 PUSH1 0x7 DUP2 MSTORE PUSH1 0x20 ADD PUSH7 0x14DD1D59195B9D PUSH1 0xCA SHL DUP2 MSTORE POP PUSH1 0x40 MLOAD DUP1 PUSH1 0x20 ADD PUSH1 0x40 MSTORE DUP1 PUSH1 0x0 DUP2 MSTORE POP PUSH1 0x40 MLOAD DUP1 PUSH1 0x20 ADD PUSH1 0x40 MSTORE DUP1 PUSH1 0x0 DUP2 MSTORE POP PUSH1 0x40 MLOAD DUP1 PUSH1 0x40 ADD PUSH1 0x40 MSTORE DUP1 PUSH1 0xA DUP2 MSTORE PUSH1 0x20 ADD PUSH10 0x18991799989799181919 PUSH1 0xB1 SHL DUP2 MSTORE POP PUSH3 0x5240 PUSH1 0x20 SHL PUSH1 0x20 SHR JUMP JUMPDEST PUSH1 0x40 DUP1 MLOAD PUSH1 0x60 DUP2 ADD DUP3 MSTORE PUSH1 0xF PUSH1 0x20 DUP1 DUP4 ADD SWAP2 DUP3 MSTORE PUSH15 0x8EC2E8CAEEC2F2BE62F0E062C8607 PUSH1 0x8B SHL SWAP4 DUP4 ADD SWAP4 SWAP1 SWAP4 MSTORE DUP2 MSTORE PUSH1 0x2 PUSH1 0x0 MSTORE PUSH1 0x3 SWAP1 SWAP2 MSTORE PUSH3 0x864 SWAP1 PUSH32 0xC3A24B0501BD2C13A7E57F2DB4369EC4C223447539FC0724A9D55AC4A06EBD4D SWAP1 PUSH1 0x1 PUSH3 0x53C8 JUMP JUMPDEST POP PUSH1 0x40 DUP1 MLOAD PUSH1 0x60 DUP2 ADD DUP3 MSTORE PUSH1 0xF PUSH1 0x20 DUP1 DUP4 ADD SWAP2 DUP3 MSTORE PUSH15 0x476174657761795F307838647A7931 PUSH1 0x88 SHL SWAP4 DUP4 ADD SWAP4 SWAP1 SWAP4 MSTORE DUP2 MSTORE PUSH1 0x2 PUSH1 0x0 MSTORE PUSH1 0x4 SWAP1 SWAP2 MSTORE PUSH3 0x8CE SWAP1 PUSH32 0x91DA3FD0782E51C6B3986E9E672FD566868E71F3DBC2D6C2CD6FBB3E361AF2A7 SWAP1 PUSH1 0x1 PUSH3 0x53C8 JUMP JUMPDEST POP PUSH3 0x996 PUSH1 0x2 PUSH1 0x4 PUSH1 0x40 MLOAD DUP1 PUSH1 0x40 ADD PUSH1 0x40 MSTORE DUP1 PUSH1 0x10 DUP2 MSTORE PUSH1 0x20 ADD PUSH16 0x1058DD1A5D9A5D1E57CC18588C999CDD PUSH1 0x82 SHL DUP2 MSTORE POP PUSH1 0x40 MLOAD DUP1 PUSH1 0x40 ADD PUSH1 0x40 MSTORE DUP1 PUSH1 0xC DUP2 MSTORE PUSH1 0x20 ADD PUSH12 0x57616974696E675F74696D65 PUSH1 0xA0 SHL DUP2 MSTORE POP PUSH1 0x40 MLOAD DUP1 PUSH1 0x40 ADD PUSH1 0x40 MSTORE DUP1 PUSH1 0x9 DUP2 MSTORE PUSH1 0x20 ADD PUSH9 0x536C757A62656E696B PUSH1 0xB8 SHL DUP2 MSTORE POP PUSH1 0x40 MLOAD DUP1 PUSH1 0x20 ADD PUSH1 0x40 MSTORE DUP1 PUSH1 0x0 DUP2 MSTORE POP PUSH1 0x40 MLOAD DUP1 PUSH1 0x20 ADD PUSH1 0x40 MSTORE DUP1 PUSH1 0x0 DUP2 MSTORE POP PUSH1 0x40 MLOAD DUP1 PUSH1 0x40 ADD PUSH1 0x40 MSTORE DUP1 PUSH1 0xA DUP2 MSTORE PUSH1 0x20 ADD PUSH10 0x18991799989799181919 PUSH1 0xB1 SHL DUP2 MSTORE POP PUSH3 0x5240 PUSH1 0x20 SHL PUSH1 0x20 SHR JUMP JUMPDEST PUSH1 0x40 DUP1 MLOAD PUSH1 0x60 DUP2 ADD DUP3 MSTORE PUSH1 0xF PUSH1 0x20 DUP1 DUP4 ADD SWAP2 DUP3 MSTORE PUSH15 0x476174657761795F307838647A7931 PUSH1 0x88 SHL SWAP4 DUP4 ADD SWAP4 SWAP1 SWAP4 MSTORE DUP2 MSTORE PUSH1 0x3 PUSH1 0x0 DUP2 SWAP1 MSTORE SWAP1 SWAP2 MSTORE PUSH3 0x9FF SWAP1 PUSH32 0xCBC4E5FB02C3D1DE23A9F1E014B4D2EE5AEAEA9505DF5E855C9210BF472495AF SWAP1 PUSH1 0x1 PUSH3 0x53C8 JUMP JUMPDEST POP PUSH1 0x40 DUP1 MLOAD PUSH1 0x60 DUP2 ADD DUP3 MSTORE PUSH1 0xF PUSH1 0x20 DUP1 DUP4 ADD SWAP2 DUP3 MSTORE PUSH15 0x23B0BA32BBB0BCAF981C3A9AB73237 PUSH1 0x89 SHL SWAP4 DUP4 ADD SWAP4 SWAP1 SWAP4 MSTORE DUP2 MSTORE PUSH1 0x3 PUSH1 0x0 MSTORE PUSH1 0x4 SWAP1 SWAP2 MSTORE PUSH3 0xA69 SWAP1 PUSH32 0x2E174C10E159EA99B867CE3205125C24A42D128804E4070ED6FCC8CC98166AA0 SWAP1 PUSH1 0x1 PUSH3 0x53C8 JUMP JUMPDEST POP PUSH3 0xB42 PUSH1 0x3 PUSH1 0x4 PUSH1 0x40 MLOAD DUP1 PUSH1 0x40 ADD PUSH1 0x40 MSTORE DUP1 PUSH1 0x10 DUP2 MSTORE PUSH1 0x20 ADD PUSH16 0x41637469766974795F316C6968666835 PUSH1 0x80 SHL DUP2 MSTORE POP PUSH1 0x40 MLOAD DUP1 PUSH1 0x40 ADD PUSH1 0x40 MSTORE DUP1 PUSH1 0x20 DUP2 MSTORE PUSH1 0x20 ADD PUSH32 0x50726F7665726176616E6A655F6973707261766E6F7374695F7A616874657661 DUP2 MSTORE POP PUSH1 0x40 MLOAD DUP1 PUSH1 0x40 ADD PUSH1 0x40 MSTORE DUP1 PUSH1 0x9 DUP2 MSTORE PUSH1 0x20 ADD PUSH9 0x536C757A62656E696B PUSH1 0xB8 SHL DUP2 MSTORE POP PUSH1 0x40 MLOAD DUP1 PUSH1 0x20 ADD PUSH1 0x40 MSTORE DUP1 PUSH1 0x0 DUP2 MSTORE POP PUSH1 0x40 MLOAD DUP1 PUSH1 0x20 ADD PUSH1 0x40 MSTORE DUP1 PUSH1 0x0 DUP2 MSTORE POP PUSH1 0x40 MLOAD DUP1 PUSH1 0x40 ADD PUSH1 0x40 MSTORE DUP1 PUSH1 0xA DUP2 MSTORE PUSH1 0x20 ADD PUSH10 0x18991799989799181919 PUSH1 0xB1 SHL DUP2 MSTORE POP PUSH3 0x5240 PUSH1 0x20 SHL PUSH1 0x20 SHR JUMP JUMPDEST PUSH1 0x40 DUP1 MLOAD PUSH1 0x60 DUP2 ADD DUP3 MSTORE PUSH1 0xF PUSH1 0x20 DUP1 DUP4 ADD SWAP2 DUP3 MSTORE PUSH15 0x476174657761795F307838647A7931 PUSH1 0x88 SHL SWAP4 DUP4 ADD SWAP4 SWAP1 SWAP4 MSTORE DUP2 MSTORE PUSH1 0x4 PUSH1 0x0 MSTORE PUSH1 0x3 SWAP1 SWAP2 MSTORE PUSH3 0xBAB SWAP1 PUSH32 0x83EC6A1F0257B830B5E016457C9CF1435391BF56CC98F369A58A54FE93772465 SWAP1 PUSH1 0x1 PUSH3 0x53C8 JUMP JUMPDEST POP PUSH1 0x40 DUP1 MLOAD PUSH1 0x60 DUP2 ADD DUP3 MSTORE PUSH1 0xF PUSH1 0x20 DUP1 DUP4 ADD SWAP2 DUP3 MSTORE PUSH15 0x23B0BA32BBB0BCAF981C3A9AB73237 PUSH1 0x89 SHL SWAP4 DUP4 ADD SWAP4 SWAP1 SWAP4 MSTORE DUP2 MSTORE PUSH1 0x4 PUSH1 0x0 DUP2 SWAP1 MSTORE SWAP1 SWAP2 MSTORE PUSH3 0xC15 SWAP1 PUSH32 0x1A1E6821CDE7D0159C0D293177871E09677B4E42307C7DB3BA94F8648A5A050F SWAP1 PUSH1 0x1 PUSH3 0x53C8 JUMP JUMPDEST POP PUSH3 0xCED PUSH1 0x4 DUP1 PUSH1 0x40 MLOAD DUP1 PUSH1 0x40 ADD PUSH1 0x40 MSTORE DUP1 PUSH1 0x10 DUP2 MSTORE PUSH1 0x20 ADD PUSH16 0x41637469766974795F30313468396F31 PUSH1 0x80 SHL DUP2 MSTORE POP PUSH1 0x40 MLOAD DUP1 PUSH1 0x40 ADD PUSH1 0x40 MSTORE DUP1 PUSH1 0x1E DUP2 MSTORE PUSH1 0x20 ADD PUSH32 0x50726F7665726176616E6A655F706F646174616B615F73747564656E74610000 DUP2 MSTORE POP PUSH1 0x40 MLOAD DUP1 PUSH1 0x40 ADD PUSH1 0x40 MSTORE DUP1 PUSH1 0x9 DUP2 MSTORE PUSH1 0x20 ADD PUSH9 0x536C757A62656E696B PUSH1 0xB8 SHL DUP2 MSTORE POP PUSH1 0x40 MLOAD DUP1 PUSH1 0x20 ADD PUSH1 0x40 MSTORE DUP1 PUSH1 0x0 DUP2 MSTORE POP PUSH1 0x40 MLOAD DUP1 PUSH1 0x20 ADD PUSH1 0x40 MSTORE DUP1 PUSH1 0x0 DUP2 MSTORE POP PUSH1 0x40 MLOAD DUP1 PUSH1 0x40 ADD PUSH1 0x40 MSTORE DUP1 PUSH1 0xA DUP2 MSTORE PUSH1 0x20 ADD PUSH10 0x18991799989799181919 PUSH1 0xB1 SHL DUP2 MSTORE POP PUSH3 0x5240 PUSH1 0x20 SHL PUSH1 0x20 SHR JUMP JUMPDEST PUSH1 0x40 DUP1 MLOAD PUSH1 0x60 DUP2 ADD DUP3 MSTORE PUSH1 0xF PUSH1 0x20 DUP1 DUP4 ADD SWAP2 DUP3 MSTORE PUSH15 0x476174657761795F31777A76306E37 PUSH1 0x88 SHL SWAP4 DUP4 ADD SWAP4 SWAP1 SWAP4 MSTORE DUP2 MSTORE PUSH1 0x5 PUSH1 0x0 MSTORE PUSH1 0x3 SWAP1 SWAP2 MSTORE PUSH3 0xD56 SWAP1 PUSH32 0x405AAD32E1ADBAC89BB7F176E338B8FC6E994CA210C9BB7BDCA249B465942250 SWAP1 PUSH1 0x1 PUSH3 0x53C8 JUMP JUMPDEST POP PUSH1 0x40 DUP1 MLOAD PUSH1 0x60 DUP2 ADD DUP3 MSTORE PUSH1 0xF PUSH1 0x20 DUP1 DUP4 ADD SWAP2 DUP3 MSTORE PUSH15 0x8EC2E8CAEEC2F2BE62F0E062C8607 PUSH1 0x8B SHL SWAP4 DUP4 ADD SWAP4 SWAP1 SWAP4 MSTORE DUP2 MSTORE PUSH1 0x5 PUSH1 0x0 MSTORE PUSH1 0x4 SWAP1 SWAP2 MSTORE PUSH3 0xDC0 SWAP1 PUSH32 0x4CDE762EF08B6B6C5DED8E8C4C0B3F4E5C9AD7342C88FCC93681B4588B73F05 SWAP1 PUSH1 0x1 PUSH3 0x53C8 JUMP JUMPDEST POP PUSH3 0xE7E PUSH1 0x5 PUSH1 0x4 PUSH1 0x40 MLOAD DUP1 PUSH1 0x40 ADD PUSH1 0x40 MSTORE DUP1 PUSH1 0x10 DUP2 MSTORE PUSH1 0x20 ADD PUSH16 0x41637469766974795F31366D666C7977 PUSH1 0x80 SHL DUP2 MSTORE POP PUSH1 0x40 MLOAD DUP1 PUSH1 0x40 ADD PUSH1 0x40 MSTORE DUP1 PUSH1 0x2 DUP2 MSTORE PUSH1 0x20 ADD PUSH2 0x6E65 PUSH1 0xF0 SHL DUP2 MSTORE POP PUSH1 0x40 MLOAD DUP1 PUSH1 0x40 ADD PUSH1 0x40 MSTORE DUP1 PUSH1 0x9 DUP2 MSTORE PUSH1 0x20 ADD PUSH9 0x536C757A62656E696B PUSH1 0xB8 SHL DUP2 MSTORE POP PUSH1 0x40 MLOAD DUP1 PUSH1 0x20 ADD PUSH1 0x40 MSTORE DUP1 PUSH1 0x0 DUP2 MSTORE POP PUSH1 0x40 MLOAD DUP1 PUSH1 0x20 ADD PUSH1 0x40 MSTORE DUP1 PUSH1 0x0 DUP2 MSTORE POP PUSH1 0x40 MLOAD DUP1 PUSH1 0x40 ADD PUSH1 0x40 MSTORE DUP1 PUSH1 0xA DUP2 MSTORE PUSH1 0x20 ADD PUSH10 0x18991799989799181919 PUSH1 0xB1 SHL DUP2 MSTORE POP PUSH3 0x5240 PUSH1 0x20 SHL PUSH1 0x20 SHR JUMP JUMPDEST PUSH1 0x40 DUP1 MLOAD PUSH1 0x60 DUP2 ADD DUP3 MSTORE PUSH1 0xF PUSH1 0x20 DUP1 DUP4 ADD SWAP2 DUP3 MSTORE PUSH15 0x23B0BA32BBB0BCAF983A39B33719B1 PUSH1 0x89 SHL SWAP4 DUP4 ADD SWAP4 SWAP1 SWAP4 MSTORE DUP2 MSTORE PUSH1 0x6 PUSH1 0x0 MSTORE PUSH1 0x3 SWAP1 SWAP2 MSTORE PUSH3 0xEE7 SWAP1 PUSH32 0xC69056F16CBAA3C616B828E333AB7D3A32310765507F8F58359E99EBB7A885F3 SWAP1 PUSH1 0x1 PUSH3 0x53C8 JUMP JUMPDEST POP PUSH1 0x40 DUP1 MLOAD PUSH1 0x60 DUP2 ADD DUP3 MSTORE PUSH1 0xD PUSH1 0x20 DUP1 DUP4 ADD SWAP2 DUP3 MSTORE PUSH13 0x8AECCADCE8BE62E2C46862F0F PUSH1 0x9B SHL SWAP4 DUP4 ADD SWAP4 SWAP1 SWAP4 MSTORE DUP2 MSTORE PUSH1 0x6 PUSH1 0x0 MSTORE PUSH1 0x4 SWAP1 SWAP2 MSTORE PUSH3 0xF4F SWAP1 PUSH32 0xC59312466997BB42AAAF719ECE141047820E6B34531E1670DC1852A453648F0F SWAP1 PUSH1 0x1 PUSH3 0x53C8 JUMP JUMPDEST POP PUSH3 0x1028 PUSH1 0x6 PUSH1 0x4 PUSH1 0x40 MLOAD DUP1 PUSH1 0x40 ADD PUSH1 0x40 MSTORE DUP1 PUSH1 0x10 DUP2 MSTORE PUSH1 0x20 ADD PUSH16 0x41637469766974795F316A6E38737633 PUSH1 0x80 SHL DUP2 MSTORE POP PUSH1 0x40 MLOAD DUP1 PUSH1 0x40 ADD PUSH1 0x40 MSTORE DUP1 PUSH1 0x15 DUP2 MSTORE PUSH1 0x20 ADD PUSH32 0x4B6F6D706C65746972616E6A655F7A6168746576610000000000000000000000 DUP2 MSTORE POP PUSH1 0x40 MLOAD DUP1 PUSH1 0x40 ADD PUSH1 0x40 MSTORE DUP1 PUSH1 0x9 DUP2 MSTORE PUSH1 0x20 ADD PUSH9 0x536C757A62656E696B PUSH1 0xB8 SHL DUP2 MSTORE POP PUSH1 0x40 MLOAD DUP1 PUSH1 0x20 ADD PUSH1 0x40 MSTORE DUP1 PUSH1 0x0 DUP2 MSTORE POP PUSH1 0x40 MLOAD DUP1 PUSH1 0x20 ADD PUSH1 0x40 MSTORE DUP1 PUSH1 0x0 DUP2 MSTORE POP PUSH1 0x40 MLOAD DUP1 PUSH1 0x40 ADD PUSH1 0x40 MSTORE DUP1 PUSH1 0xA DUP2 MSTORE PUSH1 0x20 ADD PUSH10 0x18991799989799181919 PUSH1 0xB1 SHL DUP2 MSTORE POP PUSH3 0x5240 PUSH1 0x20 SHL PUSH1 0x20 SHR JUMP JUMPDEST PUSH1 0x40 DUP1 MLOAD PUSH1 0x60 DUP2 ADD DUP3 MSTORE PUSH1 0xF PUSH1 0x20 DUP1 DUP4 ADD SWAP2 DUP3 MSTORE PUSH15 0x23B0BA32BBB0BCAF983A39B33719B1 PUSH1 0x89 SHL SWAP4 DUP4 ADD SWAP4 SWAP1 SWAP4 MSTORE DUP2 MSTORE PUSH1 0x7 PUSH1 0x0 MSTORE PUSH1 0x3 SWAP1 SWAP2 MSTORE PUSH3 0x1091 SWAP1 PUSH32 0xF2C49132ED1CEE2A7E75BDE50D332A2F81F1D01E5456D8A19D1DF09BD561DBD2 SWAP1 PUSH1 0x1 PUSH3 0x53C8 JUMP JUMPDEST POP PUSH1 0x40 DUP1 MLOAD PUSH1 0x60 DUP2 ADD DUP3 MSTORE PUSH1 0xF PUSH1 0x20 DUP1 DUP4 ADD SWAP2 DUP3 MSTORE PUSH15 0x476174657761795F31777A76306E37 PUSH1 0x88 SHL SWAP4 DUP4 ADD SWAP4 SWAP1 SWAP4 MSTORE DUP2 MSTORE PUSH1 0x7 PUSH1 0x0 MSTORE PUSH1 0x4 SWAP1 SWAP2 MSTORE PUSH3 0x10FB SWAP1 PUSH32 0xBEB3BAD75134CB432E5707980E3245C52C5998A1125EE30F2F0DBF3925B1E551 SWAP1 PUSH1 0x1 PUSH3 0x53C8 JUMP JUMPDEST POP PUSH3 0x11B9 PUSH1 0x7 PUSH1 0x4 PUSH1 0x40 MLOAD DUP1 PUSH1 0x40 ADD PUSH1 0x40 MSTORE DUP1 PUSH1 0x10 DUP2 MSTORE PUSH1 0x20 ADD PUSH16 0x41637469766974795F31647269347133 PUSH1 0x80 SHL DUP2 MSTORE POP PUSH1 0x40 MLOAD DUP1 PUSH1 0x40 ADD PUSH1 0x40 MSTORE DUP1 PUSH1 0x2 DUP2 MSTORE PUSH1 0x20 ADD PUSH2 0x6461 PUSH1 0xF0 SHL DUP2 MSTORE POP PUSH1 0x40 MLOAD DUP1 PUSH1 0x40 ADD PUSH1 0x40 MSTORE DUP1 PUSH1 0x9 DUP2 MSTORE PUSH1 0x20 ADD PUSH9 0x536C757A62656E696B PUSH1 0xB8 SHL DUP2 MSTORE POP PUSH1 0x40 MLOAD DUP1 PUSH1 0x20 ADD PUSH1 0x40 MSTORE DUP1 PUSH1 0x0 DUP2 MSTORE POP PUSH1 0x40 MLOAD DUP1 PUSH1 0x20 ADD PUSH1 0x40 MSTORE DUP1 PUSH1 0x0 DUP2 MSTORE POP PUSH1 0x40 MLOAD DUP1 PUSH1 0x40 ADD PUSH1 0x40 MSTORE DUP1 PUSH1 0xA DUP2 MSTORE PUSH1 0x20 ADD PUSH10 0x18991799989799181919 PUSH1 0xB1 SHL DUP2 MSTORE POP PUSH3 0x5240 PUSH1 0x20 SHL PUSH1 0x20 SHR JUMP JUMPDEST PUSH1 0x40 DUP1 MLOAD PUSH1 0x60 DUP2 ADD DUP3 MSTORE PUSH1 0xF PUSH1 0x20 DUP1 DUP4 ADD SWAP2 DUP3 MSTORE PUSH15 0x476174657761795F306F796E383765 PUSH1 0x88 SHL SWAP4 DUP4 ADD SWAP4 SWAP1 SWAP4 MSTORE DUP2 MSTORE PUSH1 0x8 PUSH1 0x0 MSTORE PUSH1 0x3 SWAP1 SWAP2 MSTORE PUSH3 0x1222 SWAP1 PUSH32 0x85AAA47B6DC46495BB8824FAD4583769726FEA36EFD831A35556690B830A8FBE SWAP1 PUSH1 0x1 PUSH3 0x53C8 JUMP JUMPDEST POP PUSH1 0x40 DUP1 MLOAD PUSH1 0x60 DUP2 ADD DUP3 MSTORE PUSH1 0xD PUSH1 0x20 DUP1 DUP4 ADD SWAP2 DUP3 MSTORE PUSH13 0x115D995B9D17CC5C5A1CD9DA0D PUSH1 0x9A SHL SWAP4 DUP4 ADD SWAP4 SWAP1 SWAP4 MSTORE DUP2 MSTORE PUSH1 0x8 PUSH1 0x0 MSTORE PUSH1 0x4 SWAP1 SWAP2 MSTORE PUSH3 0x128A SWAP1 PUSH32 0x2645749A946633740611CFC8178319F0958659D6922E4BF7E3A08B44789F53A4 SWAP1 PUSH1 0x1 PUSH3 0x53C8 JUMP JUMPDEST POP PUSH3 0x1362 PUSH1 0x8 PUSH1 0x4 PUSH1 0x40 MLOAD DUP1 PUSH1 0x40 ADD PUSH1 0x40 MSTORE DUP1 PUSH1 0x10 DUP2 MSTORE PUSH1 0x20 ADD PUSH16 0x82C6E8D2ECD2E8F2BE60DCD6C8D6CCF PUSH1 0x83 SHL DUP2 MSTORE POP PUSH1 0x40 MLOAD DUP1 PUSH1 0x40 ADD PUSH1 0x40 MSTORE DUP1 PUSH1 0x15 DUP2 MSTORE PUSH1 0x20 ADD PUSH32 0x50726F7665726176616E6A655F706F646174616B610000000000000000000000 DUP2 MSTORE POP PUSH1 0x40 MLOAD DUP1 PUSH1 0x40 ADD PUSH1 0x40 MSTORE DUP1 PUSH1 0x8 DUP2 MSTORE PUSH1 0x20 ADD PUSH8 0x26B2B730B23D32B9 PUSH1 0xC1 SHL DUP2 MSTORE POP PUSH1 0x40 MLOAD DUP1 PUSH1 0x20 ADD PUSH1 0x40 MSTORE DUP1 PUSH1 0x0 DUP2 MSTORE POP PUSH1 0x40 MLOAD DUP1 PUSH1 0x20 ADD PUSH1 0x40 MSTORE DUP1 PUSH1 0x0 DUP2 MSTORE POP PUSH1 0x40 MLOAD DUP1 PUSH1 0x40 ADD PUSH1 0x40 MSTORE DUP1 PUSH1 0xA DUP2 MSTORE PUSH1 0x20 ADD PUSH10 0x18991799989799181919 PUSH1 0xB1 SHL DUP2 MSTORE POP PUSH3 0x5240 PUSH1 0x20 SHL PUSH1 0x20 SHR JUMP JUMPDEST PUSH1 0x40 DUP1 MLOAD PUSH1 0x60 DUP2 ADD DUP3 MSTORE PUSH1 0xD PUSH1 0x20 DUP1 DUP4 ADD SWAP2 DUP3 MSTORE PUSH13 0x4576656E745F31327978386971 PUSH1 0x98 SHL SWAP4 DUP4 ADD SWAP4 SWAP1 SWAP4 MSTORE DUP2 MSTORE PUSH1 0x9 PUSH1 0x0 MSTORE PUSH1 0x3 SWAP1 SWAP2 MSTORE PUSH3 0x13C9 SWAP1 PUSH32 0x8A8DC4E5242EA8B1AB1D60606DAE757E6C2CCA9F92A2CCED9F72C19960BCB458 SWAP1 PUSH1 0x1 PUSH3 0x53C8 JUMP JUMPDEST POP PUSH1 0x40 DUP1 MLOAD PUSH1 0x60 DUP2 ADD DUP3 MSTORE PUSH1 0xF PUSH1 0x20 DUP1 DUP4 ADD SWAP2 DUP3 MSTORE PUSH15 0x476174657761795F306F796E383765 PUSH1 0x88 SHL SWAP4 DUP4 ADD SWAP4 SWAP1 SWAP4 MSTORE DUP2 MSTORE PUSH1 0x9 PUSH1 0x0 MSTORE PUSH1 0x4 SWAP1 SWAP2 MSTORE PUSH3 0x1433 SWAP1 PUSH32 0x4AD5A04D53B5856F318545BB721F67D3F6D0A5A999F25EEC7E20EAEB4C47B933 SWAP1 PUSH1 0x1 PUSH3 0x53C8 JUMP JUMPDEST POP PUSH3 0x14FA PUSH1 0x9 PUSH1 0x4 PUSH1 0x40 MLOAD DUP1 PUSH1 0x40 ADD PUSH1 0x40 MSTORE DUP1 PUSH1 0x10 DUP2 MSTORE PUSH1 0x20 ADD PUSH16 0x41637469766974795F31636F6474686D PUSH1 0x80 SHL DUP2 MSTORE POP PUSH1 0x40 MLOAD DUP1 PUSH1 0x40 ADD PUSH1 0x40 MSTORE DUP1 PUSH1 0xC DUP2 MSTORE PUSH1 0x20 ADD PUSH12 0x506F747069736976616E6A65 PUSH1 0xA0 SHL DUP2 MSTORE POP PUSH1 0x40 MLOAD DUP1 PUSH1 0x40 ADD PUSH1 0x40 MSTORE DUP1 PUSH1 0x8 DUP2 MSTORE PUSH1 0x20 ADD PUSH8 0x26B2B730B23D32B9 PUSH1 0xC1 SHL DUP2 MSTORE POP PUSH1 0x40 MLOAD DUP1 PUSH1 0x20 ADD PUSH1 0x40 MSTORE DUP1 PUSH1 0x0 DUP2 MSTORE POP PUSH1 0x40 MLOAD DUP1 PUSH1 0x20 ADD PUSH1 0x40 MSTORE DUP1 PUSH1 0x0 DUP2 MSTORE POP PUSH1 0x40 MLOAD DUP1 PUSH1 0x40 ADD PUSH1 0x40 MSTORE DUP1 PUSH1 0xA DUP2 MSTORE PUSH1 0x20 ADD PUSH10 0x18991799989799181919 PUSH1 0xB1 SHL DUP2 MSTORE POP PUSH3 0x5240 PUSH1 0x20 SHL PUSH1 0x20 SHR JUMP JUMPDEST PUSH1 0x40 DUP1 MLOAD PUSH1 0x60 DUP2 ADD DUP3 MSTORE PUSH1 0xD PUSH1 0x20 DUP1 DUP4 ADD SWAP2 DUP3 MSTORE PUSH13 0x4576656E745F31316362693933 PUSH1 0x98 SHL SWAP4 DUP4 ADD SWAP4 SWAP1 SWAP4 MSTORE DUP2 MSTORE PUSH1 0xA PUSH1 0x0 MSTORE PUSH1 0x3 SWAP1 SWAP2 MSTORE PUSH3 0x1561 SWAP1 PUSH32 0x9DCB9783BA5CD0B54745F65F4F918525E461E91888C334E5342CB380AC558D53 SWAP1 PUSH1 0x1 PUSH3 0x53C8 JUMP JUMPDEST POP PUSH1 0x40 DUP1 MLOAD PUSH1 0x60 DUP2 ADD DUP3 MSTORE PUSH1 0xD PUSH1 0x20 DUP1 DUP4 ADD SWAP2 DUP3 MSTORE PUSH13 0x115D995B9D17CC595B0C8DD91D PUSH1 0x9A SHL SWAP4 DUP4 ADD SWAP4 SWAP1 SWAP4 MSTORE DUP2 MSTORE PUSH1 0xA PUSH1 0x0 MSTORE PUSH1 0x4 SWAP1 SWAP2 MSTORE PUSH3 0x15C9 SWAP1 PUSH32 0x5C6B02DB8B672415FFAD906D7CCEE10BD53DBAD7D0B29E2BC0E50C93D5F31093 SWAP1 PUSH1 0x1 PUSH3 0x53C8 JUMP JUMPDEST POP PUSH3 0x1694 PUSH1 0xA PUSH1 0x4 PUSH1 0x40 MLOAD DUP1 PUSH1 0x40 ADD PUSH1 0x40 MSTORE DUP1 PUSH1 0x10 DUP2 MSTORE PUSH1 0x20 ADD PUSH16 0x20B1BA34BB34BA3CAF98B0B434379833 PUSH1 0x81 SHL DUP2 MSTORE POP PUSH1 0x40 MLOAD DUP1 PUSH1 0x40 ADD PUSH1 0x40 MSTORE DUP1 PUSH1 0xC DUP2 MSTORE PUSH1 0x20 ADD PUSH12 0x497A7261646A6976616E6A65 PUSH1 0xA0 SHL DUP2 MSTORE POP PUSH1 0x40 MLOAD DUP1 PUSH1 0x40 ADD PUSH1 0x40 MSTORE DUP1 PUSH1 0x18 DUP2 MSTORE PUSH1 0x20 ADD PUSH1 0x0 DUP1 MLOAD PUSH1 0x20 PUSH3 0x8B07 DUP4 CODECOPY DUP2 MLOAD SWAP2 MSTORE DUP2 MSTORE POP PUSH1 0x40 MLOAD DUP1 PUSH1 0x20 ADD PUSH1 0x40 MSTORE DUP1 PUSH1 0x0 DUP2 MSTORE POP PUSH1 0x40 MLOAD DUP1 PUSH1 0x20 ADD PUSH1 0x40 MSTORE DUP1 PUSH1 0x0 DUP2 MSTORE POP PUSH1 0x40 MLOAD DUP1 PUSH1 0x40 ADD PUSH1 0x40 MSTORE DUP1 PUSH1 0xA DUP2 MSTORE PUSH1 0x20 ADD PUSH10 0x18991799989799181919 PUSH1 0xB1 SHL DUP2 MSTORE POP PUSH3 0x5240 PUSH1 0x20 SHL PUSH1 0x20 SHR JUMP JUMPDEST PUSH1 0x40 DUP1 MLOAD PUSH1 0x60 DUP2 ADD DUP3 MSTORE PUSH1 0x10 PUSH1 0x20 DUP1 DUP4 ADD SWAP2 DUP3 MSTORE PUSH16 0x20B1BA34BB34BA3CAF98B9B93430B335 PUSH1 0x81 SHL SWAP4 DUP4 ADD SWAP4 SWAP1 SWAP4 MSTORE DUP2 MSTORE PUSH1 0xB PUSH1 0x0 MSTORE PUSH1 0x3 SWAP1 SWAP2 MSTORE PUSH3 0x16FE SWAP1 PUSH32 0x2D72AF3C1B2B2956E6F694FB741556D5CA9524373974378CDBEC16AFA8B84164 SWAP1 PUSH1 0x1 PUSH3 0x53C8 JUMP JUMPDEST POP PUSH3 0x17AC PUSH1 0xB PUSH1 0x0 PUSH1 0x40 MLOAD DUP1 PUSH1 0x40 ADD PUSH1 0x40 MSTORE DUP1 PUSH1 0xD DUP2 MSTORE PUSH1 0x20 ADD PUSH13 0x22BB32B73A2F981BB8353D3D35 PUSH1 0x99 SHL DUP2 MSTORE POP PUSH1 0x40 MLOAD DUP1 PUSH1 0x20 ADD PUSH1 0x40 MSTORE DUP1 PUSH1 0x0 DUP2 MSTORE POP PUSH1 0x40 MLOAD DUP1 PUSH1 0x40 ADD PUSH1 0x40 MSTORE DUP1 PUSH1 0x7 DUP2 MSTORE PUSH1 0x20 ADD PUSH7 0x14DD1D59195B9D PUSH1 0xCA SHL DUP2 MSTORE POP PUSH1 0x40 MLOAD DUP1 PUSH1 0x20 ADD PUSH1 0x40 MSTORE DUP1 PUSH1 0x0 DUP2 MSTORE POP PUSH1 0x40 MLOAD DUP1 PUSH1 0x20 ADD PUSH1 0x40 MSTORE DUP1 PUSH1 0x0 DUP2 MSTORE POP PUSH1 0x40 MLOAD DUP1 PUSH1 0x40 ADD PUSH1 0x40 MSTORE DUP1 PUSH1 0xA DUP2 MSTORE PUSH1 0x20 ADD PUSH10 0x18991799989799181919 PUSH1 0xB1 SHL DUP2 MSTORE POP PUSH3 0x5240 PUSH1 0x20 SHL PUSH1 0x20 SHR JUMP JUMPDEST PUSH1 0x40 DUP1 MLOAD PUSH1 0x60 DUP2 ADD DUP3 MSTORE PUSH1 0xF PUSH1 0x20 DUP1 DUP4 ADD SWAP2 DUP3 MSTORE PUSH15 0x23B0BA32BBB0BCAF981C3A9AB73237 PUSH1 0x89 SHL SWAP4 DUP4 ADD SWAP4 SWAP1 SWAP4 MSTORE DUP2 MSTORE PUSH1 0xC PUSH1 0x0 MSTORE PUSH1 0x3 SWAP1 SWAP2 MSTORE PUSH3 0x1815 SWAP1 PUSH32 0xD56A60595EBEFEBED7F22DCEE6C2ACC61B06CF8C68E84C88677840365D1FF92B SWAP1 PUSH1 0x1 PUSH3 0x53C8 JUMP JUMPDEST POP PUSH1 0x40 DUP1 MLOAD PUSH1 0x60 DUP2 ADD DUP3 MSTORE PUSH1 0xD PUSH1 0x20 DUP1 DUP4 ADD SWAP2 DUP3 MSTORE PUSH13 0x4576656E745F30616F6E616D39 PUSH1 0x98 SHL SWAP4 DUP4 ADD SWAP4 SWAP1 SWAP4 MSTORE DUP2 MSTORE PUSH1 0xC PUSH1 0x0 MSTORE PUSH1 0x5 SWAP1 SWAP2 MSTORE PUSH3 0x187D SWAP1 PUSH32 0xF907E7E6656FA73566B18C1215272FE9FCA2C55C552E62C923E21E000AC4B4E6 SWAP1 PUSH1 0x1 PUSH3 0x53C8 JUMP JUMPDEST POP PUSH3 0x1945 PUSH1 0xC PUSH1 0x0 PUSH1 0x40 MLOAD DUP1 PUSH1 0x40 ADD PUSH1 0x40 MSTORE DUP1 PUSH1 0xD DUP2 MSTORE PUSH1 0x20 ADD PUSH13 0x4576656E745F3161696C687235 PUSH1 0x98 SHL DUP2 MSTORE POP PUSH1 0x40 MLOAD DUP1 PUSH1 0x40 ADD PUSH1 0x40 MSTORE DUP1 PUSH1 0xF DUP2 MSTORE PUSH1 0x20 ADD PUSH15 0x283934B6B63532B7103D30B43A32BB PUSH1 0x89 SHL DUP2 MSTORE POP PUSH1 0x40 MLOAD DUP1 PUSH1 0x40 ADD PUSH1 0x40 MSTORE DUP1 PUSH1 0x9 DUP2 MSTORE PUSH1 0x20 ADD PUSH9 0x536C757A62656E696B PUSH1 0xB8 SHL DUP2 MSTORE POP PUSH1 0x40 MLOAD DUP1 PUSH1 0x20 ADD PUSH1 0x40 MSTORE DUP1 PUSH1 0x0 DUP2 MSTORE POP PUSH1 0x40 MLOAD DUP1 PUSH1 0x20 ADD PUSH1 0x40 MSTORE DUP1 PUSH1 0x0 DUP2 MSTORE POP PUSH1 0x40 MLOAD DUP1 PUSH1 0x40 ADD PUSH1 0x40 MSTORE DUP1 PUSH1 0xA DUP2 MSTORE PUSH1 0x20 ADD PUSH10 0x18991799989799181919 PUSH1 0xB1 SHL DUP2 MSTORE POP PUSH3 0x5240 PUSH1 0x20 SHL PUSH1 0x20 SHR JUMP JUMPDEST PUSH1 0x40 DUP1 MLOAD PUSH1 0x60 DUP2 ADD DUP3 MSTORE PUSH1 0x10 PUSH1 0x20 DUP1 DUP4 ADD SWAP2 DUP3 MSTORE PUSH16 0x82C6E8D2ECD2E8F2BE60DCD6C8D6CCF PUSH1 0x83 SHL SWAP4 DUP4 ADD SWAP4 SWAP1 SWAP4 MSTORE DUP2 MSTORE PUSH1 0xD PUSH1 0x0 MSTORE PUSH1 0x3 SWAP1 SWAP2 MSTORE PUSH3 0x19AF SWAP1 PUSH32 0xA8F2D96126C6D0AD63ADABAEF7BF5CF47F163FB0C218A473D28F62312D197BCF SWAP1 PUSH1 0x1 PUSH3 0x53C8 JUMP JUMPDEST POP PUSH1 0x40 DUP1 MLOAD PUSH1 0x60 DUP2 ADD DUP3 MSTORE PUSH1 0xD PUSH1 0x20 DUP1 DUP4 ADD DUP3 DUP2 MSTORE PUSH13 0x4576656E745F30636531383333 PUSH1 0x98 SHL SWAP5 DUP5 ADD SWAP5 SWAP1 SWAP5 MSTORE SWAP3 DUP3 MSTORE PUSH1 0x0 MSTORE PUSH1 0x5 SWAP1 SWAP2 MSTORE PUSH3 0x1A16 SWAP1 PUSH32 0x3145C75015E7A856ECD94C41432EF3CB669D6360AF23433588937FEFDFAC825 SWAP1 PUSH1 0x1 PUSH3 0x53C8 JUMP JUMPDEST POP PUSH3 0x1ADD PUSH1 0xD PUSH1 0x0 PUSH1 0x40 MLOAD DUP1 PUSH1 0x40 ADD PUSH1 0x40 MSTORE DUP1 PUSH1 0xD DUP2 MSTORE PUSH1 0x20 ADD PUSH13 0x115D995B9D17CC5C5A1CD9DA0D PUSH1 0x9A SHL DUP2 MSTORE POP PUSH1 0x40 MLOAD DUP1 PUSH1 0x40 ADD PUSH1 0x40 MSTORE DUP1 PUSH1 0xF DUP2 MSTORE PUSH1 0x20 ADD PUSH15 0x283934B6B63532B7103D30B43A32BB PUSH1 0x89 SHL DUP2 MSTORE POP PUSH1 0x40 MLOAD DUP1 PUSH1 0x40 ADD PUSH1 0x40 MSTORE DUP1 PUSH1 0x8 DUP2 MSTORE PUSH1 0x20 ADD PUSH8 0x26B2B730B23D32B9 PUSH1 0xC1 SHL DUP2 MSTORE POP PUSH1 0x40 MLOAD DUP1 PUSH1 0x20 ADD PUSH1 0x40 MSTORE DUP1 PUSH1 0x0 DUP2 MSTORE POP PUSH1 0x40 MLOAD DUP1 PUSH1 0x20 ADD PUSH1 0x40 MSTORE DUP1 PUSH1 0x0 DUP2 MSTORE POP PUSH1 0x40 MLOAD DUP1 PUSH1 0x40 ADD PUSH1 0x40 MSTORE DUP1 PUSH1 0xA DUP2 MSTORE PUSH1 0x20 ADD PUSH10 0x18991799989799181919 PUSH1 0xB1 SHL DUP2 MSTORE POP PUSH3 0x5240 PUSH1 0x20 SHL PUSH1 0x20 SHR JUMP JUMPDEST PUSH1 0x40 DUP1 MLOAD PUSH1 0x60 DUP2 ADD DUP3 MSTORE PUSH1 0x10 PUSH1 0x20 DUP1 DUP4 ADD SWAP2 DUP3 MSTORE PUSH16 0x20B1BA34BB34BA3CAF98B0B434379833 PUSH1 0x81 SHL SWAP4 DUP4 ADD SWAP4 SWAP1 SWAP4 MSTORE DUP2 MSTORE PUSH1 0xE PUSH1 0x0 MSTORE PUSH1 0x3 SWAP1 SWAP2 MSTORE PUSH3 0x1B47 SWAP1 PUSH32 0xD6EBCC64C739277B117CE359E436534B234B76E914C80AD276ABF5B562078939 SWAP1 PUSH1 0x1 PUSH3 0x53C8 JUMP JUMPDEST POP PUSH1 0x40 DUP1 MLOAD PUSH1 0x60 DUP2 ADD DUP3 MSTORE PUSH1 0xD PUSH1 0x20 DUP1 DUP4 ADD SWAP2 DUP3 MSTORE PUSH13 0x4576656E745F31327978386971 PUSH1 0x98 SHL SWAP4 DUP4 ADD SWAP4 SWAP1 SWAP4 MSTORE DUP2 MSTORE PUSH1 0xE PUSH1 0x0 MSTORE PUSH1 0x5 SWAP1 SWAP2 MSTORE PUSH3 0x1BAF SWAP1 PUSH32 0x783638979E3582B3FFD6D53FC06C949AC31D1AC75A5E2C3531FBE1F91045EB53 SWAP1 PUSH1 0x1 PUSH3 0x53C8 JUMP JUMPDEST POP PUSH3 0x1C88 PUSH1 0xE PUSH1 0x0 PUSH1 0x40 MLOAD DUP1 PUSH1 0x40 ADD PUSH1 0x40 MSTORE DUP1 PUSH1 0xD DUP2 MSTORE PUSH1 0x20 ADD PUSH13 0x115D995B9D17CC595B0C8DD91D PUSH1 0x9A SHL DUP2 MSTORE POP PUSH1 0x40 MLOAD DUP1 PUSH1 0x40 ADD PUSH1 0x40 MSTORE DUP1 PUSH1 0x1A DUP2 MSTORE PUSH1 0x20 ADD PUSH32 0x5072696D6C6A656E207A6168746576207A6120697A7261647561000000000000 DUP2 MSTORE POP PUSH1 0x40 MLOAD DUP1 PUSH1 0x40 ADD PUSH1 0x40 MSTORE DUP1 PUSH1 0x18 DUP2 MSTORE PUSH1 0x20 ADD PUSH1 0x0 DUP1 MLOAD PUSH1 0x20 PUSH3 0x8B07 DUP4 CODECOPY DUP2 MLOAD SWAP2 MSTORE DUP2 MSTORE POP PUSH1 0x40 MLOAD DUP1 PUSH1 0x20 ADD PUSH1 0x40 MSTORE DUP1 PUSH1 0x0 DUP2 MSTORE POP PUSH1 0x40 MLOAD DUP1 PUSH1 0x20 ADD PUSH1 0x40 MSTORE DUP1 PUSH1 0x0 DUP2 MSTORE POP PUSH1 0x40 MLOAD DUP1 PUSH1 0x40 ADD PUSH1 0x40 MSTORE DUP1 PUSH1 0xA DUP2 MSTORE PUSH1 0x20 ADD PUSH10 0x18991799989799181919 PUSH1 0xB1 SHL DUP2 MSTORE POP PUSH3 0x5240 PUSH1 0x20 SHL PUSH1 0x20 SHR JUMP JUMPDEST PUSH1 0x40 DUP1 MLOAD PUSH1 0x60 DUP2 ADD DUP3 MSTORE PUSH1 0xF PUSH1 0x20 DUP1 DUP4 ADD DUP3 DUP2 MSTORE PUSH15 0x476174657761795F30626169746931 PUSH1 0x88 SHL SWAP5 DUP5 ADD SWAP5 SWAP1 SWAP5 MSTORE SWAP3 DUP3 MSTORE PUSH1 0x0 MSTORE PUSH1 0x3 SWAP1 SWAP2 MSTORE PUSH3 0x1CF0 SWAP1 PUSH32 0xF60B7F6A315EC68A6AC240E69DCA53652B38627F709A2CAA217D9E18AF4D7A60 SWAP1 PUSH1 0x1 PUSH3 0x53C8 JUMP JUMPDEST POP PUSH1 0x40 DUP1 MLOAD PUSH1 0x60 DUP2 ADD DUP3 MSTORE PUSH1 0x10 PUSH1 0x20 DUP1 DUP4 ADD SWAP2 DUP3 MSTORE PUSH16 0x20B1BA34BB34BA3CAF98B9B93430B335 PUSH1 0x81 SHL SWAP4 DUP4 ADD SWAP4 SWAP1 SWAP4 MSTORE DUP2 MSTORE PUSH1 0xF PUSH1 0x0 MSTORE PUSH1 0x4 SWAP1 SWAP2 MSTORE PUSH3 0x1D5B SWAP1 PUSH32 0x66B61DAF77B854CA6BA000A8D4B340EAFCDB71B6583753B4AF89FCEB54988FFF SWAP1 PUSH1 0x1 PUSH3 0x53C8 JUMP JUMPDEST POP PUSH1 0x40 DUP1 MLOAD PUSH1 0x60 DUP2 ADD DUP3 MSTORE PUSH1 0xD PUSH1 0x20 DUP1 DUP4 ADD SWAP2 DUP3 MSTORE PUSH13 0x4576656E745F3161696C687235 PUSH1 0x98 SHL SWAP4 DUP4 ADD SWAP4 SWAP1 SWAP4 MSTORE DUP2 MSTORE PUSH1 0xF PUSH1 0x0 MSTORE PUSH1 0x6 SWAP1 SWAP2 MSTORE PUSH3 0x1DC3 SWAP1 PUSH32 0xF130046D53BC87538AB17E4752BA5F5082985EECC06CCB932C5A55E8242DD502 SWAP1 PUSH1 0x1 PUSH3 0x53C8 JUMP JUMPDEST POP PUSH3 0x1E80 PUSH1 0xF PUSH1 0x3 PUSH1 0x40 MLOAD DUP1 PUSH1 0x40 ADD PUSH1 0x40 MSTORE DUP1 PUSH1 0xD DUP2 MSTORE PUSH1 0x20 ADD PUSH13 0x4576656E745F30616F6E616D39 PUSH1 0x98 SHL DUP2 MSTORE POP PUSH1 0x40 MLOAD DUP1 PUSH1 0x40 ADD PUSH1 0x40 MSTORE DUP1 PUSH1 0x6 DUP2 MSTORE PUSH1 0x20 ADD PUSH6 0x2D30B43A32BB PUSH1 0xD1 SHL DUP2 MSTORE POP PUSH1 0x40 MLOAD DUP1 PUSH1 0x40 ADD PUSH1 0x40 MSTORE DUP1 PUSH1 0x7 DUP2 MSTORE PUSH1 0x20 ADD PUSH7 0x14DD1D59195B9D PUSH1 0xCA SHL DUP2 MSTORE POP PUSH1 0x40 MLOAD DUP1 PUSH1 0x20 ADD PUSH1 0x40 MSTORE DUP1 PUSH1 0x0 DUP2 MSTORE POP PUSH1 0x40 MLOAD DUP1 PUSH1 0x20 ADD PUSH1 0x40 MSTORE DUP1 PUSH1 0x0 DUP2 MSTORE POP PUSH1 0x40 MLOAD DUP1 PUSH1 0x40 ADD PUSH1 0x40 MSTORE DUP1 PUSH1 0xA DUP2 MSTORE PUSH1 0x20 ADD PUSH10 0x18991799989799181919 PUSH1 0xB1 SHL DUP2 MSTORE POP PUSH3 0x5240 PUSH1 0x20 SHL PUSH1 0x20 SHR JUMP JUMPDEST PUSH1 0x40 DUP1 MLOAD PUSH1 0x60 DUP2 ADD DUP3 MSTORE PUSH1 0x10 PUSH1 0x20 DUP1 DUP4 ADD DUP3 DUP2 MSTORE PUSH16 0x1058DD1A5D9A5D1E57CC0DCE59DE8DCD PUSH1 0x82 SHL SWAP5 DUP5 ADD SWAP5 SWAP1 SWAP5 MSTORE SWAP3 DUP3 MSTORE PUSH1 0x0 MSTORE PUSH1 0x3 SWAP1 SWAP2 MSTORE PUSH3 0x1EE9 SWAP1 PUSH32 0x47D4745E02B343689A5E7AC121D2A352B7A15C10328A8759FD7D4CF0999002BB SWAP1 PUSH1 0x1 PUSH3 0x53C8 JUMP JUMPDEST POP PUSH1 0x40 DUP1 MLOAD PUSH1 0x60 DUP2 ADD DUP3 MSTORE PUSH1 0xD PUSH1 0x20 DUP1 DUP4 ADD SWAP2 DUP3 MSTORE PUSH13 0x4576656E745F306E3875737873 PUSH1 0x98 SHL SWAP4 DUP4 ADD SWAP4 SWAP1 SWAP4 MSTORE DUP2 MSTORE PUSH1 0x10 PUSH1 0x0 MSTORE PUSH1 0x4 SWAP1 SWAP2 MSTORE PUSH3 0x1F51 SWAP1 PUSH32 0x4A597304B2DF0A7A7B428B3C24C35BA6373AABEBF9972387F5610F74A01B21BD SWAP1 PUSH1 0x1 PUSH3 0x53C8 JUMP JUMPDEST POP PUSH1 0x40 DUP1 MLOAD PUSH1 0x60 DUP2 ADD DUP3 MSTORE PUSH1 0xD PUSH1 0x20 DUP1 DUP4 ADD SWAP2 DUP3 MSTORE PUSH13 0x8AECCADCE8BE62E2C46862F0F PUSH1 0x9B SHL SWAP4 DUP4 ADD SWAP4 SWAP1 SWAP4 MSTORE DUP2 MSTORE PUSH1 0x10 PUSH1 0x0 MSTORE PUSH1 0x6 SWAP1 SWAP2 MSTORE PUSH3 0x1FB9 SWAP1 PUSH32 0x6FAC4587033FA036E2426AD0134940D3A683633CC2B2B7862F39195344F163D1 SWAP1 PUSH1 0x1 PUSH3 0x53C8 JUMP JUMPDEST POP PUSH3 0x2074 PUSH1 0x10 PUSH1 0x3 PUSH1 0x40 MLOAD DUP1 PUSH1 0x40 ADD PUSH1 0x40 MSTORE DUP1 PUSH1 0xD DUP2 MSTORE PUSH1 0x20 ADD PUSH13 0x115D995B9D17CC1ADB4DCC9899 PUSH1 0x9A SHL DUP2 MSTORE POP PUSH1 0x40 MLOAD DUP1 PUSH1 0x40 ADD PUSH1 0x40 MSTORE DUP1 PUSH1 0x4 DUP2 MSTORE PUSH1 0x20 ADD PUSH4 0x1CD95B99 PUSH1 0xE2 SHL DUP2 MSTORE POP PUSH1 0x40 MLOAD DUP1 PUSH1 0x40 ADD PUSH1 0x40 MSTORE DUP1 PUSH1 0x7 DUP2 MSTORE PUSH1 0x20 ADD PUSH7 0x14DD1D59195B9D PUSH1 0xCA SHL DUP2 MSTORE POP PUSH1 0x40 MLOAD DUP1 PUSH1 0x20 ADD PUSH1 0x40 MSTORE DUP1 PUSH1 0x0 DUP2 MSTORE POP PUSH1 0x40 MLOAD DUP1 PUSH1 0x20 ADD PUSH1 0x40 MSTORE DUP1 PUSH1 0x0 DUP2 MSTORE POP PUSH1 0x40 MLOAD DUP1 PUSH1 0x40 ADD PUSH1 0x40 MSTORE DUP1 PUSH1 0xA DUP2 MSTORE PUSH1 0x20 ADD PUSH10 0x18991799989799181919 PUSH1 0xB1 SHL DUP2 MSTORE POP PUSH3 0x5240 PUSH1 0x20 SHL PUSH1 0x20 SHR JUMP JUMPDEST PUSH1 0x40 DUP1 MLOAD PUSH1 0x60 DUP2 ADD DUP3 MSTORE PUSH1 0xF PUSH1 0x20 DUP1 DUP4 ADD SWAP2 DUP3 MSTORE PUSH15 0x8EC2E8CAEEC2F2BE62F0E062C8607 PUSH1 0x8B SHL SWAP4 DUP4 ADD SWAP4 SWAP1 SWAP4 MSTORE DUP2 MSTORE PUSH1 0x11 PUSH1 0x0 MSTORE PUSH1 0x4 SWAP1 SWAP2 MSTORE PUSH3 0x20DD SWAP1 PUSH32 0xAC375BCB880242328180C23D4A918023A12A7CAF7CF12B8C4074E4A3F39900A0 SWAP1 PUSH1 0x1 PUSH3 0x53C8 JUMP JUMPDEST POP PUSH1 0x40 DUP1 MLOAD PUSH1 0x60 DUP2 ADD DUP3 MSTORE PUSH1 0xD PUSH1 0x20 DUP1 DUP4 ADD SWAP2 DUP3 MSTORE PUSH13 0x115D995B9D17CC1D1A595CD9CD PUSH1 0x9A SHL SWAP4 DUP4 ADD SWAP4 SWAP1 SWAP4 MSTORE DUP2 MSTORE PUSH1 0x11 PUSH1 0x0 MSTORE PUSH1 0x6 SWAP1 SWAP2 MSTORE PUSH3 0x2145 SWAP1 PUSH32 0x84A4048EE77615560F9AFB39551A46E123DD0DD6C928AF241DC565271D032569 SWAP1 PUSH1 0x1 PUSH3 0x53C8 JUMP JUMPDEST POP PUSH3 0x21FF PUSH1 0x11 PUSH1 0x3 PUSH1 0x40 MLOAD DUP1 PUSH1 0x40 ADD PUSH1 0x40 MSTORE DUP1 PUSH1 0xD DUP2 MSTORE PUSH1 0x20 ADD PUSH13 0x8AECCADCE8BE62D872C46EDC7 PUSH1 0x9B SHL DUP2 MSTORE POP PUSH1 0x40 MLOAD DUP1 PUSH1 0x60 ADD PUSH1 0x40 MSTORE DUP1 PUSH1 0x35 DUP2 MSTORE PUSH1 0x20 ADD PUSH3 0x8AD2 PUSH1 0x35 SWAP2 CODECOPY PUSH1 0x40 MLOAD DUP1 PUSH1 0x40 ADD PUSH1 0x40 MSTORE DUP1 PUSH1 0x9 DUP2 MSTORE PUSH1 0x20 ADD PUSH9 0x536C757A62656E696B PUSH1 0xB8 SHL DUP2 MSTORE POP PUSH1 0x40 MLOAD DUP1 PUSH1 0x20 ADD PUSH1 0x40 MSTORE DUP1 PUSH1 0x0 DUP2 MSTORE POP PUSH1 0x40 MLOAD DUP1 PUSH1 0x20 ADD PUSH1 0x40 MSTORE DUP1 PUSH1 0x0 DUP2 MSTORE POP PUSH1 0x40 MLOAD DUP1 PUSH1 0x40 ADD PUSH1 0x40 MSTORE DUP1 PUSH1 0xA DUP2 MSTORE PUSH1 0x20 ADD PUSH10 0x18991799989799181919 PUSH1 0xB1 SHL DUP2 MSTORE POP PUSH3 0x5240 PUSH1 0x20 SHL PUSH1 0x20 SHR JUMP JUMPDEST PUSH1 0x40 DUP1 MLOAD PUSH1 0x60 DUP2 ADD DUP3 MSTORE PUSH1 0xD PUSH1 0x20 DUP1 DUP4 ADD SWAP2 DUP3 MSTORE PUSH13 0x8AECCADCE8BE62E2C46862F0F PUSH1 0x9B SHL SWAP4 DUP4 ADD SWAP4 SWAP1 SWAP4 MSTORE DUP2 MSTORE PUSH1 0x12 PUSH1 0x0 MSTORE PUSH1 0x3 SWAP1 SWAP2 MSTORE PUSH3 0x2266 SWAP1 PUSH32 0x6A2B6BFFACA788160F671FA62D34758B717F75A90AD5A468757C50D61F33C443 SWAP1 PUSH1 0x1 PUSH3 0x53C8 JUMP JUMPDEST POP PUSH1 0x40 DUP1 MLOAD PUSH1 0x60 DUP2 ADD DUP3 MSTORE PUSH1 0xF PUSH1 0x20 DUP1 DUP4 ADD SWAP2 DUP3 MSTORE PUSH15 0x476174657761795F31777A76306E37 PUSH1 0x88 SHL SWAP4 DUP4 ADD SWAP4 SWAP1 SWAP4 MSTORE DUP2 MSTORE PUSH1 0x12 PUSH1 0x0 MSTORE PUSH1 0x4 SWAP1 SWAP2 MSTORE PUSH3 0x22D0 SWAP1 PUSH32 0x7F6FA3F34639EA1891363CA773619DBD5F652D7AB50411111DDE2F57E3AE13AD SWAP1 PUSH1 0x1 PUSH3 0x53C8 JUMP JUMPDEST POP PUSH1 0x40 DUP1 MLOAD PUSH1 0x60 DUP2 ADD DUP3 MSTORE PUSH1 0xD PUSH1 0x20 DUP1 DUP4 ADD SWAP2 DUP3 MSTORE PUSH13 0x4576656E745F306E3875737873 PUSH1 0x98 SHL SWAP4 DUP4 ADD SWAP4 SWAP1 SWAP4 MSTORE DUP2 MSTORE PUSH1 0x12 PUSH1 0x0 MSTORE PUSH1 0x6 SWAP1 SWAP2 MSTORE PUSH3 0x2338 SWAP1 PUSH32 0xEE4750D043EDCE57577A49A1F0C4B389E3B8C38C27DC693BC6B7154C07280771 SWAP1 PUSH1 0x1 PUSH3 0x53C8 JUMP JUMPDEST POP PUSH3 0x23F2 PUSH1 0x12 PUSH1 0x3 PUSH1 0x40 MLOAD DUP1 PUSH1 0x40 ADD PUSH1 0x40 MSTORE DUP1 PUSH1 0xD DUP2 MSTORE PUSH1 0x20 ADD PUSH13 0x115D995B9D17CC0D8D8D5B9E9D PUSH1 0x9A SHL DUP2 MSTORE POP PUSH1 0x40 MLOAD DUP1 PUSH1 0x60 ADD PUSH1 0x40 MSTORE DUP1 PUSH1 0x26 DUP2 MSTORE PUSH1 0x20 ADD PUSH3 0x8AAC PUSH1 0x26 SWAP2 CODECOPY PUSH1 0x40 MLOAD DUP1 PUSH1 0x40 ADD PUSH1 0x40 MSTORE DUP1 PUSH1 0x9 DUP2 MSTORE PUSH1 0x20 ADD PUSH9 0x536C757A62656E696B PUSH1 0xB8 SHL DUP2 MSTORE POP PUSH1 0x40 MLOAD DUP1 PUSH1 0x20 ADD PUSH1 0x40 MSTORE DUP1 PUSH1 0x0 DUP2 MSTORE POP PUSH1 0x40 MLOAD DUP1 PUSH1 0x20 ADD PUSH1 0x40 MSTORE DUP1 PUSH1 0x0 DUP2 MSTORE POP PUSH1 0x40 MLOAD DUP1 PUSH1 0x40 ADD PUSH1 0x40 MSTORE DUP1 PUSH1 0xA DUP2 MSTORE PUSH1 0x20 ADD PUSH10 0x18991799989799181919 PUSH1 0xB1 SHL DUP2 MSTORE POP PUSH3 0x5240 PUSH1 0x20 SHL PUSH1 0x20 SHR JUMP JUMPDEST PUSH1 0x40 DUP1 MLOAD PUSH1 0x60 DUP2 ADD DUP3 MSTORE PUSH1 0xF PUSH1 0x20 DUP1 DUP4 ADD SWAP2 DUP3 MSTORE PUSH15 0x476174657761795F303168726A706D PUSH1 0x88 SHL SWAP4 DUP4 ADD SWAP4 SWAP1 SWAP4 MSTORE DUP2 MSTORE PUSH1 0x13 PUSH1 0x0 MSTORE PUSH1 0x3 SWAP1 SWAP2 MSTORE PUSH3 0x245B SWAP1 PUSH32 0x8A8166BE5F30ABEB6C91EE2F07EEB0B2EB14B4D59534D10A1C143964BD617919 SWAP1 PUSH1 0x1 PUSH3 0x53C8 JUMP JUMPDEST POP PUSH1 0x40 DUP1 MLOAD PUSH1 0x60 DUP2 ADD DUP3 MSTORE PUSH1 0xF PUSH1 0x20 DUP1 DUP4 ADD SWAP2 DUP3 MSTORE PUSH15 0x23B0BA32BBB0BCAF983A39B33719B1 PUSH1 0x89 SHL SWAP4 DUP4 ADD SWAP4 SWAP1 SWAP4 MSTORE DUP2 MSTORE PUSH1 0x13 PUSH1 0x0 MSTORE PUSH1 0x4 SWAP1 SWAP2 MSTORE PUSH3 0x24C5 SWAP1 PUSH32 0x9BBF2AD10217B6212DF1939350A047A69B6887B770020D3FA8C328C0653EE987 SWAP1 PUSH1 0x1 PUSH3 0x53C8 JUMP JUMPDEST POP PUSH1 0x40 DUP1 MLOAD PUSH1 0x60 DUP2 ADD DUP3 MSTORE PUSH1 0xD PUSH1 0x20 DUP1 DUP4 ADD SWAP2 DUP3 MSTORE PUSH13 0x115D995B9D17CC5C5A1CD9DA0D PUSH1 0x9A SHL SWAP4 DUP4 ADD SWAP4 SWAP1 SWAP4 MSTORE DUP2 MSTORE PUSH1 0x13 PUSH1 0x0 MSTORE PUSH1 0x6 SWAP1 SWAP2 MSTORE PUSH3 0x252D SWAP1 PUSH32 0xB72A5233413DD9985E70ABB239A7BA917E489FBF2ECE87F523C6E26971CC821F SWAP1 PUSH1 0x1 PUSH3 0x53C8 JUMP JUMPDEST POP PUSH3 0x2603 PUSH1 0x13 PUSH1 0x3 PUSH1 0x40 MLOAD DUP1 PUSH1 0x40 ADD PUSH1 0x40 MSTORE DUP1 PUSH1 0xD DUP2 MSTORE PUSH1 0x20 ADD PUSH13 0x4576656E745F30636531383333 PUSH1 0x98 SHL DUP2 MSTORE POP PUSH1 0x40 MLOAD DUP1 PUSH1 0x40 ADD PUSH1 0x40 MSTORE DUP1 PUSH1 0x17 DUP2 MSTORE PUSH1 0x20 ADD PUSH32 0x506F736C6174207A6168746576206D656E61647A657275000000000000000000 DUP2 MSTORE POP PUSH1 0x40 MLOAD DUP1 PUSH1 0x40 ADD PUSH1 0x40 MSTORE DUP1 PUSH1 0x9 DUP2 MSTORE PUSH1 0x20 ADD PUSH9 0x536C757A62656E696B PUSH1 0xB8 SHL DUP2 MSTORE POP PUSH1 0x40 MLOAD DUP1 PUSH1 0x20 ADD PUSH1 0x40 MSTORE DUP1 PUSH1 0x0 DUP2 MSTORE POP PUSH1 0x40 MLOAD DUP1 PUSH1 0x20 ADD PUSH1 0x40 MSTORE DUP1 PUSH1 0x0 DUP2 MSTORE POP PUSH1 0x40 MLOAD DUP1 PUSH1 0x40 ADD PUSH1 0x40 MSTORE DUP1 PUSH1 0xA DUP2 MSTORE PUSH1 0x20 ADD PUSH10 0x18991799989799181919 PUSH1 0xB1 SHL DUP2 MSTORE POP PUSH3 0x5240 PUSH1 0x20 SHL PUSH1 0x20 SHR JUMP JUMPDEST PUSH1 0x40 DUP1 MLOAD PUSH1 0x60 DUP2 ADD DUP3 MSTORE PUSH1 0xD PUSH1 0x20 DUP1 DUP4 ADD SWAP2 DUP3 MSTORE PUSH13 0x22BB32B73A2F98B39ABBBA37B1 PUSH1 0x99 SHL SWAP4 DUP4 ADD SWAP4 SWAP1 SWAP4 MSTORE DUP2 MSTORE PUSH1 0x14 PUSH1 0x0 MSTORE PUSH1 0x4 SWAP1 SWAP2 MSTORE PUSH3 0x266A SWAP1 PUSH32 0xF7DEED9399D719BF61DCB1322C056A03A885C275AB093673B0CC182B84BEA061 SWAP1 PUSH1 0x1 PUSH3 0x53C8 JUMP JUMPDEST POP PUSH1 0x40 DUP1 MLOAD PUSH1 0x60 DUP2 ADD DUP3 MSTORE PUSH1 0xD PUSH1 0x20 DUP1 DUP4 ADD SWAP2 DUP3 MSTORE PUSH13 0x22BB32B73A2F9831B9B7B1B3BB PUSH1 0x99 SHL SWAP4 DUP4 ADD SWAP4 SWAP1 SWAP4 MSTORE DUP2 MSTORE PUSH1 0x14 PUSH1 0x0 MSTORE PUSH1 0x6 SWAP1 SWAP2 MSTORE PUSH3 0x26D2 SWAP1 PUSH32 0x98D468EFB4F874D617491296C759DC9AE46EFB517FE36BCF30699AD3F714C0F SWAP1 PUSH1 0x1 PUSH3 0x53C8 JUMP JUMPDEST POP PUSH3 0x27A8 PUSH1 0x14 PUSH1 0x3 PUSH1 0x40 MLOAD DUP1 PUSH1 0x40 ADD PUSH1 0x40 MSTORE DUP1 PUSH1 0xD DUP2 MSTORE PUSH1 0x20 ADD PUSH13 0x8AECCADCE8BE62DA6AD4EED0D PUSH1 0x9B SHL DUP2 MSTORE POP PUSH1 0x40 MLOAD DUP1 PUSH1 0x40 ADD PUSH1 0x40 MSTORE DUP1 PUSH1 0x19 DUP2 MSTORE PUSH1 0x20 ADD PUSH32 0x506F736C61746F206F626176657374656E6A65206F202E2E2E00000000000000 DUP2 MSTORE POP PUSH1 0x40 MLOAD DUP1 PUSH1 0x40 ADD PUSH1 0x40 MSTORE DUP1 PUSH1 0x9 DUP2 MSTORE PUSH1 0x20 ADD PUSH9 0x536C757A62656E696B PUSH1 0xB8 SHL DUP2 MSTORE POP PUSH1 0x40 MLOAD DUP1 PUSH1 0x20 ADD PUSH1 0x40 MSTORE DUP1 PUSH1 0x0 DUP2 MSTORE POP PUSH1 0x40 MLOAD DUP1 PUSH1 0x20 ADD PUSH1 0x40 MSTORE DUP1 PUSH1 0x0 DUP2 MSTORE POP PUSH1 0x40 MLOAD DUP1 PUSH1 0x40 ADD PUSH1 0x40 MSTORE DUP1 PUSH1 0xA DUP2 MSTORE PUSH1 0x20 ADD PUSH10 0x18991799989799181919 PUSH1 0xB1 SHL DUP2 MSTORE POP PUSH3 0x5240 PUSH1 0x20 SHL PUSH1 0x20 SHR JUMP JUMPDEST PUSH1 0x40 DUP1 MLOAD PUSH1 0x60 DUP2 ADD DUP3 MSTORE PUSH1 0xD PUSH1 0x20 DUP1 DUP4 ADD SWAP2 DUP3 MSTORE PUSH13 0x4576656E745F3035776E76717 PUSH1 0x9C SHL SWAP4 DUP4 ADD SWAP4 SWAP1 SWAP4 MSTORE DUP2 MSTORE PUSH1 0x15 PUSH1 0x0 MSTORE PUSH1 0x4 SWAP1 SWAP2 MSTORE PUSH3 0x280F SWAP1 PUSH32 0x1BB30A1647F6F6723CB3A88838CE0319AFABE51263FC466F2F669A7A24AD88C6 SWAP1 PUSH1 0x1 PUSH3 0x53C8 JUMP JUMPDEST POP PUSH1 0x40 DUP1 MLOAD PUSH1 0x60 DUP2 ADD DUP3 MSTORE PUSH1 0xD PUSH1 0x20 DUP1 DUP4 ADD SWAP2 DUP3 MSTORE PUSH13 0x4576656E745F3030776B35743 PUSH1 0x9C SHL SWAP4 DUP4 ADD SWAP4 SWAP1 SWAP4 MSTORE DUP2 MSTORE PUSH1 0x15 PUSH1 0x0 MSTORE PUSH1 0x6 SWAP1 SWAP2 MSTORE PUSH3 0x2877 SWAP1 PUSH32 0xEDA6FEEBFB4FFB7DE2D0DC45A13B92DC953C2ED6EE96FA7FE8179E7C4266747F SWAP1 PUSH1 0x1 PUSH3 0x53C8 JUMP JUMPDEST POP PUSH3 0x2931 PUSH1 0x15 PUSH1 0x3 PUSH1 0x40 MLOAD DUP1 PUSH1 0x40 ADD PUSH1 0x40 MSTORE DUP1 PUSH1 0xD DUP2 MSTORE PUSH1 0x20 ADD PUSH13 0x4576656E745F30696977356433 PUSH1 0x98 SHL DUP2 MSTORE POP PUSH1 0x40 MLOAD DUP1 PUSH1 0x60 ADD PUSH1 0x40 MSTORE DUP1 PUSH1 0x28 DUP2 MSTORE PUSH1 0x20 ADD PUSH3 0x8A84 PUSH1 0x28 SWAP2 CODECOPY PUSH1 0x40 MLOAD DUP1 PUSH1 0x40 ADD PUSH1 0x40 MSTORE DUP1 PUSH1 0x9 DUP2 MSTORE PUSH1 0x20 ADD PUSH9 0x536C757A62656E696B PUSH1 0xB8 SHL DUP2 MSTORE POP PUSH1 0x40 MLOAD DUP1 PUSH1 0x20 ADD PUSH1 0x40 MSTORE DUP1 PUSH1 0x0 DUP2 MSTORE POP PUSH1 0x40 MLOAD DUP1 PUSH1 0x20 ADD PUSH1 0x40 MSTORE DUP1 PUSH1 0x0 DUP2 MSTORE POP PUSH1 0x40 MLOAD DUP1 PUSH1 0x40 ADD PUSH1 0x40 MSTORE DUP1 PUSH1 0xA DUP2 MSTORE PUSH1 0x20 ADD PUSH10 0x18991799989799181919 PUSH1 0xB1 SHL DUP2 MSTORE POP PUSH3 0x5240 PUSH1 0x20 SHL PUSH1 0x20 SHR JUMP JUMPDEST PUSH1 0x40 DUP1 MLOAD PUSH1 0x60 DUP2 ADD DUP3 MSTORE PUSH1 0xD PUSH1 0x20 DUP1 DUP4 ADD SWAP2 DUP3 MSTORE PUSH13 0x4576656E745F303977386B6433 PUSH1 0x98 SHL SWAP4 DUP4 ADD SWAP4 SWAP1 SWAP4 MSTORE DUP2 MSTORE PUSH1 0x16 PUSH1 0x0 MSTORE PUSH1 0x3 SWAP1 SWAP2 MSTORE PUSH3 0x2998 SWAP1 PUSH32 0x370C8C7C6215B209793AA720F65163FBEECD5F5114008532BA0649EE23405402 SWAP1 PUSH1 0x1 PUSH3 0x53C8 JUMP JUMPDEST POP PUSH1 0x40 DUP1 MLOAD PUSH1 0x60 DUP2 ADD DUP3 MSTORE PUSH1 0x10 PUSH1 0x20 DUP1 DUP4 ADD SWAP2 DUP3 MSTORE PUSH16 0x41637469766974795F31636F6474686D PUSH1 0x80 SHL SWAP4 DUP4 ADD SWAP4 SWAP1 SWAP4 MSTORE DUP2 MSTORE PUSH1 0x16 PUSH1 0x0 MSTORE PUSH1 0x4 SWAP1 SWAP2 MSTORE PUSH3 0x2A03 SWAP1 PUSH32 0x87E655EF16E4075AF30C6A90C2B439F7DCD2D83A606DAFADAEE10CFFAF918132 SWAP1 PUSH1 0x1 PUSH3 0x53C8 JUMP JUMPDEST POP PUSH1 0x40 DUP1 MLOAD PUSH1 0x60 DUP2 ADD DUP3 MSTORE PUSH1 0xD PUSH1 0x20 DUP1 DUP4 ADD SWAP2 DUP3 MSTORE PUSH13 0x115D995B9D17CC595B0C8DD91D PUSH1 0x9A SHL SWAP4 DUP4 ADD SWAP4 SWAP1 SWAP4 MSTORE DUP2 MSTORE PUSH1 0x16 PUSH1 0x0 MSTORE PUSH1 0x6 SWAP1 SWAP2 MSTORE PUSH3 0x2A6B SWAP1 PUSH32 0x7D35CC2B0520994422695EB24E3BF4F74E9CBA2704CAE72ECD9EC54409A56AFB SWAP1 PUSH1 0x1 PUSH3 0x53C8 JUMP JUMPDEST POP PUSH3 0x2B40 PUSH1 0x16 PUSH1 0x3 PUSH1 0x40 MLOAD DUP1 PUSH1 0x40 ADD PUSH1 0x40 MSTORE DUP1 PUSH1 0xD DUP2 MSTORE PUSH1 0x20 ADD PUSH13 0x4576656E745F31327978386971 PUSH1 0x98 SHL DUP2 MSTORE POP PUSH1 0x40 MLOAD DUP1 PUSH1 0x40 ADD PUSH1 0x40 MSTORE DUP1 PUSH1 0x17 DUP2 MSTORE PUSH1 0x20 ADD PUSH32 0x506F736C6174207A6168746576207A6120697A72616475000000000000000000 DUP2 MSTORE POP PUSH1 0x40 MLOAD DUP1 PUSH1 0x40 ADD PUSH1 0x40 MSTORE DUP1 PUSH1 0x8 DUP2 MSTORE PUSH1 0x20 ADD PUSH8 0x26B2B730B23D32B9 PUSH1 0xC1 SHL DUP2 MSTORE POP PUSH1 0x40 MLOAD DUP1 PUSH1 0x20 ADD PUSH1 0x40 MSTORE DUP1 PUSH1 0x0 DUP2 MSTORE POP PUSH1 0x40 MLOAD DUP1 PUSH1 0x20 ADD PUSH1 0x40 MSTORE DUP1 PUSH1 0x0 DUP2 MSTORE POP PUSH1 0x40 MLOAD DUP1 PUSH1 0x40 ADD PUSH1 0x40 MSTORE DUP1 PUSH1 0xA DUP2 MSTORE PUSH1 0x20 ADD PUSH10 0x18991799989799181919 PUSH1 0xB1 SHL DUP2 MSTORE POP PUSH3 0x5240 PUSH1 0x20 SHL PUSH1 0x20 SHR JUMP JUMPDEST PUSH1 0x40 DUP1 MLOAD PUSH1 0x60 DUP2 ADD DUP3 MSTORE PUSH1 0xD PUSH1 0x20 DUP1 DUP4 ADD SWAP2 DUP3 MSTORE PUSH13 0x22BB32B73A2F989B3AB9379B35 PUSH1 0x99 SHL SWAP4 DUP4 ADD SWAP4 SWAP1 SWAP4 MSTORE DUP2 MSTORE PUSH1 0x17 PUSH1 0x0 MSTORE PUSH1 0x3 SWAP1 SWAP2 MSTORE PUSH3 0x2BA7 SWAP1 PUSH32 0xF0519A40093D7EDAD68F12E2EC868FDF92A03DF1CBEC3E035C987D6B218F2F4 SWAP1 PUSH1 0x1 PUSH3 0x53C8 JUMP JUMPDEST POP PUSH1 0x40 DUP1 MLOAD PUSH1 0x60 DUP2 ADD DUP3 MSTORE PUSH1 0xF PUSH1 0x20 DUP1 DUP4 ADD SWAP2 DUP3 MSTORE PUSH15 0x476174657761795F30626169746931 PUSH1 0x88 SHL SWAP4 DUP4 ADD SWAP4 SWAP1 SWAP4 MSTORE DUP2 MSTORE PUSH1 0x17 PUSH1 0x0 MSTORE PUSH1 0x4 SWAP1 SWAP2 MSTORE PUSH3 0x2C11 SWAP1 PUSH32 0xFF624574CEEFB6578B3887A7448CF2CA4D120002F646987B0A9B9AD3F6DC2C10 SWAP1 PUSH1 0x1 PUSH3 0x53C8 JUMP JUMPDEST POP PUSH1 0x40 DUP1 MLOAD PUSH1 0x60 DUP2 ADD DUP3 MSTORE PUSH1 0xD PUSH1 0x20 DUP1 DUP4 ADD SWAP2 DUP3 MSTORE PUSH13 0x8AECCADCE8BE62D872C46EDC7 PUSH1 0x9B SHL SWAP4 DUP4 ADD SWAP4 SWAP1 SWAP4 MSTORE DUP2 MSTORE PUSH1 0x17 PUSH1 0x0 MSTORE PUSH1 0x5 SWAP1 SWAP2 MSTORE PUSH3 0x2C79 SWAP1 PUSH32 0x1759EEB783BE12E6871EE15567296C25CEA65699AD38E9965540BA6254A9037F SWAP1 PUSH1 0x1 PUSH3 0x53C8 JUMP JUMPDEST POP PUSH3 0x2D31 PUSH1 0x17 PUSH1 0x3 PUSH1 0x40 MLOAD DUP1 PUSH1 0x40 ADD PUSH1 0x40 MSTORE DUP1 PUSH1 0xD DUP2 MSTORE PUSH1 0x20 ADD PUSH13 0x115D995B9D17CC1D1A595CD9CD PUSH1 0x9A SHL DUP2 MSTORE POP PUSH1 0x40 MLOAD DUP1 PUSH1 0x60 ADD PUSH1 0x40 MSTORE DUP1 PUSH1 0x2E DUP2 MSTORE PUSH1 0x20 ADD PUSH3 0x8B27 PUSH1 0x2E SWAP2 CODECOPY PUSH1 0x40 MLOAD DUP1 PUSH1 0x40 ADD PUSH1 0x40 MSTORE DUP1 PUSH1 0x7 DUP2 MSTORE PUSH1 0x20 ADD PUSH7 0x14DD1D59195B9D PUSH1 0xCA SHL DUP2 MSTORE POP PUSH1 0x40 MLOAD DUP1 PUSH1 0x20 ADD PUSH1 0x40 MSTORE DUP1 PUSH1 0x0 DUP2 MSTORE POP PUSH1 0x40 MLOAD DUP1 PUSH1 0x20 ADD PUSH1 0x40 MSTORE DUP1 PUSH1 0x0 DUP2 MSTORE POP PUSH1 0x40 MLOAD DUP1 PUSH1 0x40 ADD PUSH1 0x40 MSTORE DUP1 PUSH1 0xA DUP2 MSTORE PUSH1 0x20 ADD PUSH10 0x18991799989799181919 PUSH1 0xB1 SHL DUP2 MSTORE POP PUSH3 0x5240 PUSH1 0x20 SHL PUSH1 0x20 SHR JUMP JUMPDEST PUSH1 0x40 DUP1 MLOAD PUSH1 0x60 DUP2 ADD DUP3 MSTORE PUSH1 0xD PUSH1 0x20 DUP1 DUP4 ADD SWAP2 DUP3 MSTORE PUSH13 0x115D995B9D17CC1ADB4DCC9899 PUSH1 0x9A SHL SWAP4 DUP4 ADD SWAP4 SWAP1 SWAP4 MSTORE DUP2 MSTORE PUSH1 0x18 PUSH1 0x0 MSTORE PUSH1 0x3 SWAP1 SWAP2 MSTORE PUSH3 0x2D98 SWAP1 PUSH32 0xA3DDC4E8D053BE09EC661EB04964A206CBD921C2C11FC03088857923BED1485A SWAP1 PUSH1 0x1 PUSH3 0x53C8 JUMP JUMPDEST POP PUSH1 0x40 DUP1 MLOAD PUSH1 0x60 DUP2 ADD DUP3 MSTORE PUSH1 0xD PUSH1 0x20 DUP1 DUP4 ADD SWAP2 DUP3 MSTORE PUSH13 0x115D995B9D17CC0D8D8D5B9E9D PUSH1 0x9A SHL SWAP4 DUP4 ADD SWAP4 SWAP1 SWAP4 MSTORE DUP2 MSTORE PUSH1 0x18 PUSH1 0x0 MSTORE PUSH1 0x5 SWAP1 SWAP2 MSTORE PUSH3 0x2E00 SWAP1 PUSH32 0x5CC25DF4297F13907C2E8C8BB7612AC7D899F1E24C7E8664C22A89192AC286A7 SWAP1 PUSH1 0x1 PUSH3 0x53C8 JUMP JUMPDEST POP PUSH3 0x2EB8 PUSH1 0x18 PUSH1 0x3 PUSH1 0x40 MLOAD DUP1 PUSH1 0x40 ADD PUSH1 0x40 MSTORE DUP1 PUSH1 0xD DUP2 MSTORE PUSH1 0x20 ADD PUSH13 0x4576656E745F306E3875737873 PUSH1 0x98 SHL DUP2 MSTORE POP PUSH1 0x40 MLOAD DUP1 PUSH1 0x60 ADD PUSH1 0x40 MSTORE DUP1 PUSH1 0x29 DUP2 MSTORE PUSH1 0x20 ADD PUSH3 0x8B55 PUSH1 0x29 SWAP2 CODECOPY PUSH1 0x40 MLOAD DUP1 PUSH1 0x40 ADD PUSH1 0x40 MSTORE DUP1 PUSH1 0x7 DUP2 MSTORE PUSH1 0x20 ADD PUSH7 0x14DD1D59195B9D PUSH1 0xCA SHL DUP2 MSTORE POP PUSH1 0x40 MLOAD DUP1 PUSH1 0x20 ADD PUSH1 0x40 MSTORE DUP1 PUSH1 0x0 DUP2 MSTORE POP PUSH1 0x40 MLOAD DUP1 PUSH1 0x20 ADD PUSH1 0x40 MSTORE DUP1 PUSH1 0x0 DUP2 MSTORE POP PUSH1 0x40 MLOAD DUP1 PUSH1 0x40 ADD PUSH1 0x40 MSTORE DUP1 PUSH1 0xA DUP2 MSTORE PUSH1 0x20 ADD PUSH10 0x18991799989799181919 PUSH1 0xB1 SHL DUP2 MSTORE POP PUSH3 0x5240 PUSH1 0x20 SHL PUSH1 0x20 SHR JUMP JUMPDEST PUSH1 0x40 DUP1 MLOAD PUSH1 0x60 DUP2 ADD DUP3 MSTORE PUSH1 0xD PUSH1 0x20 DUP1 DUP4 ADD SWAP2 DUP3 MSTORE PUSH13 0x4576656E745F306F3669696537 PUSH1 0x98 SHL SWAP4 DUP4 ADD SWAP4 SWAP1 SWAP4 MSTORE DUP2 MSTORE PUSH1 0x19 PUSH1 0x0 MSTORE PUSH1 0x3 SWAP1 SWAP2 MSTORE PUSH3 0x2F1F SWAP1 PUSH32 0xAD96411AFED98A37AA585CE71717B0782FA4BEE47DA09D8F483E532128238611 SWAP1 PUSH1 0x1 PUSH3 0x53C8 JUMP JUMPDEST POP PUSH1 0x40 DUP1 MLOAD PUSH1 0x60 DUP2 ADD DUP3 MSTORE PUSH1 0xF PUSH1 0x20 DUP1 DUP4 ADD SWAP2 DUP3 MSTORE PUSH15 0x476174657761795F30626169746931 PUSH1 0x88 SHL SWAP4 DUP4 ADD SWAP4 SWAP1 SWAP4 MSTORE DUP2 MSTORE PUSH1 0x19 PUSH1 0x0 MSTORE PUSH1 0x4 SWAP1 SWAP2 MSTORE PUSH3 0x2F89 SWAP1 PUSH32 0xEB5726BE0CC40DAA58A5F8F81528465DDB0C35E1E56E157ECA916D69D6C34324 SWAP1 PUSH1 0x1 PUSH3 0x53C8 JUMP JUMPDEST POP PUSH1 0x40 DUP1 MLOAD PUSH1 0x60 DUP2 ADD DUP3 MSTORE PUSH1 0xD PUSH1 0x20 DUP1 DUP4 ADD SWAP2 DUP3 MSTORE PUSH13 0x4576656E745F30696977356433 PUSH1 0x98 SHL SWAP4 DUP4 ADD SWAP4 SWAP1 SWAP4 MSTORE DUP2 MSTORE PUSH1 0x19 PUSH1 0x0 MSTORE PUSH1 0x5 SWAP1 SWAP2 MSTORE PUSH3 0x2FF1 SWAP1 PUSH32 0xAE2F6B16F0E0AC80673D6CAEF460BA44E001264158BF422BE5BC239018CCC677 SWAP1 PUSH1 0x1 PUSH3 0x53C8 JUMP JUMPDEST POP PUSH3 0x30A9 PUSH1 0x19 PUSH1 0x3 PUSH1 0x40 MLOAD DUP1 PUSH1 0x40 ADD PUSH1 0x40 MSTORE DUP1 PUSH1 0xD DUP2 MSTORE PUSH1 0x20 ADD PUSH13 0x4576656E745F3030776B35743 PUSH1 0x9C SHL DUP2 MSTORE POP PUSH1 0x40 MLOAD DUP1 PUSH1 0x60 ADD PUSH1 0x40 MSTORE DUP1 PUSH1 0x30 DUP2 MSTORE PUSH1 0x20 ADD PUSH3 0x8B7E PUSH1 0x30 SWAP2 CODECOPY PUSH1 0x40 MLOAD DUP1 PUSH1 0x40 ADD PUSH1 0x40 MSTORE DUP1 PUSH1 0x7 DUP2 MSTORE PUSH1 0x20 ADD PUSH7 0x14DD1D59195B9D PUSH1 0xCA SHL DUP2 MSTORE POP PUSH1 0x40 MLOAD DUP1 PUSH1 0x20 ADD PUSH1 0x40 MSTORE DUP1 PUSH1 0x0 DUP2 MSTORE POP PUSH1 0x40 MLOAD DUP1 PUSH1 0x20 ADD PUSH1 0x40 MSTORE DUP1 PUSH1 0x0 DUP2 MSTORE POP PUSH1 0x40 MLOAD DUP1 PUSH1 0x40 ADD PUSH1 0x40 MSTORE DUP1 PUSH1 0xA DUP2 MSTORE PUSH1 0x20 ADD PUSH10 0x18991799989799181919 PUSH1 0xB1 SHL DUP2 MSTORE POP PUSH3 0x5240 PUSH1 0x20 SHL PUSH1 0x20 SHR JUMP JUMPDEST PUSH1 0x40 DUP1 MLOAD PUSH1 0x60 DUP2 ADD DUP3 MSTORE PUSH1 0xD PUSH1 0x20 DUP1 DUP4 ADD SWAP2 DUP3 MSTORE PUSH13 0x115D995B9D17CC0E588D189C9D PUSH1 0x9A SHL SWAP4 DUP4 ADD SWAP4 SWAP1 SWAP4 MSTORE DUP2 MSTORE PUSH1 0x1A PUSH1 0x0 MSTORE PUSH1 0x3 SWAP1 SWAP2 MSTORE PUSH3 0x3110 SWAP1 PUSH32 0x68FC0E82119A780903C8E97D959A36D433D1E401AD7B7A461FF2087E524D54A8 SWAP1 PUSH1 0x1 PUSH3 0x53C8 JUMP JUMPDEST POP PUSH1 0x40 DUP1 MLOAD PUSH1 0x60 DUP2 ADD DUP3 MSTORE PUSH1 0xF PUSH1 0x20 DUP1 DUP4 ADD SWAP2 DUP3 MSTORE PUSH15 0x476174657761795F30626169746931 PUSH1 0x88 SHL SWAP4 DUP4 ADD SWAP4 SWAP1 SWAP4 MSTORE DUP2 MSTORE PUSH1 0x1A PUSH1 0x0 MSTORE PUSH1 0x4 SWAP1 SWAP2 MSTORE PUSH3 0x317A SWAP1 PUSH32 0xF6EB4279AA452568DD287204244D7E29D7CA1BC7A01440F08342BF2599F4B9B6 SWAP1 PUSH1 0x1 PUSH3 0x53C8 JUMP JUMPDEST POP PUSH1 0x40 DUP1 MLOAD PUSH1 0x60 DUP2 ADD DUP3 MSTORE PUSH1 0xD PUSH1 0x20 DUP1 DUP4 ADD SWAP2 DUP3 MSTORE PUSH13 0x8AECCADCE8BE62DA6AD4EED0D PUSH1 0x9B SHL SWAP4 DUP4 ADD SWAP4 SWAP1 SWAP4 MSTORE DUP2 MSTORE PUSH1 0x1A PUSH1 0x0 MSTORE PUSH1 0x5 SWAP1 SWAP2 MSTORE PUSH3 0x31E2 SWAP1 PUSH32 0xCE1F324A8A5D5DAA4A6B2281780AB321637FD4089413DD89C573BBF705027CB9 SWAP1 PUSH1 0x1 PUSH3 0x53C8 JUMP JUMPDEST POP PUSH3 0x32B6 PUSH1 0x1A PUSH1 0x3 PUSH1 0x40 MLOAD DUP1 PUSH1 0x40 ADD PUSH1 0x40 MSTORE DUP1 PUSH1 0xD DUP2 MSTORE PUSH1 0x20 ADD PUSH13 0x22BB32B73A2F9831B9B7B1B3BB PUSH1 0x99 SHL DUP2 MSTORE POP PUSH1 0x40 MLOAD DUP1 PUSH1 0x40 ADD PUSH1 0x40 MSTORE DUP1 PUSH1 0x1A DUP2 MSTORE PUSH1 0x20 ADD PUSH32 0x5072696D6C6A656E6F206F626176657374656E6A65206F2E2E2E000000000000 DUP2 MSTORE POP PUSH1 0x40 MLOAD DUP1 PUSH1 0x40 ADD PUSH1 0x40 MSTORE DUP1 PUSH1 0x7 DUP2 MSTORE PUSH1 0x20 ADD PUSH7 0x14DD1D59195B9D PUSH1 0xCA SHL DUP2 MSTORE POP PUSH1 0x40 MLOAD DUP1 PUSH1 0x20 ADD PUSH1 0x40 MSTORE DUP1 PUSH1 0x0 DUP2 MSTORE POP PUSH1 0x40 MLOAD DUP1 PUSH1 0x20 ADD PUSH1 0x40 MSTORE DUP1 PUSH1 0x0 DUP2 MSTORE POP PUSH1 0x40 MLOAD DUP1 PUSH1 0x40 ADD PUSH1 0x40 MSTORE DUP1 PUSH1 0xA DUP2 MSTORE PUSH1 0x20 ADD PUSH10 0x18991799989799181919 PUSH1 0xB1 SHL DUP2 MSTORE POP PUSH3 0x5240 PUSH1 0x20 SHL PUSH1 0x20 SHR JUMP JUMPDEST PUSH1 0x40 DUP1 MLOAD PUSH1 0x60 DUP2 ADD DUP3 MSTORE PUSH1 0x10 PUSH1 0x20 DUP1 DUP4 ADD SWAP2 DUP3 MSTORE PUSH16 0x41637469766974795F316A6E38737633 PUSH1 0x80 SHL SWAP4 DUP4 ADD SWAP4 SWAP1 SWAP4 MSTORE DUP2 MSTORE PUSH1 0x1B PUSH1 0x0 MSTORE PUSH1 0x3 SWAP1 SWAP2 MSTORE PUSH3 0x3320 SWAP1 PUSH32 0x925BE0B447003E4366D6ADDF976A9E5448B14E56CA3733FE4A9CA6F86B0DCBD5 SWAP1 PUSH1 0x1 PUSH3 0x53C8 JUMP JUMPDEST POP PUSH1 0x40 DUP1 MLOAD PUSH1 0x60 DUP2 ADD DUP3 MSTORE PUSH1 0xD PUSH1 0x20 DUP1 DUP4 ADD SWAP2 DUP3 MSTORE PUSH13 0x115D995B9D17CC0D8D8D5B9E9D PUSH1 0x9A SHL SWAP4 DUP4 ADD SWAP4 SWAP1 SWAP4 MSTORE DUP2 MSTORE PUSH1 0x1B PUSH1 0x0 MSTORE PUSH1 0x4 SWAP1 SWAP2 MSTORE PUSH3 0x3388 SWAP1 PUSH32 0xD8906B3E50614809EC86D7BB29BF3C4E8647F5376E87F81687A4A770137F7D59 SWAP1 PUSH1 0x1 PUSH3 0x53C8 JUMP JUMPDEST POP PUSH1 0x40 DUP1 MLOAD PUSH1 0x60 DUP2 ADD DUP3 MSTORE PUSH1 0xD PUSH1 0x20 DUP1 DUP4 ADD SWAP2 DUP3 MSTORE PUSH13 0x115D995B9D17CC1ADB4DCC9899 PUSH1 0x9A SHL SWAP4 DUP4 ADD SWAP4 SWAP1 SWAP4 MSTORE DUP2 MSTORE PUSH1 0x1B PUSH1 0x0 MSTORE PUSH1 0x5 SWAP1 SWAP2 MSTORE PUSH3 0x33F0 SWAP1 PUSH32 0x2C8EED490E2E8E94AB99E89B6202D0DB22C83D972D2B78B681FE35C98D2BAA33 SWAP1 PUSH1 0x1 PUSH3 0x53C8 JUMP JUMPDEST POP PUSH3 0x34C6 PUSH1 0x1B PUSH1 0x3 PUSH1 0x40 MLOAD DUP1 PUSH1 0x40 ADD PUSH1 0x40 MSTORE DUP1 PUSH1 0xD DUP2 MSTORE PUSH1 0x20 ADD PUSH13 0x8AECCADCE8BE62E2C46862F0F PUSH1 0x9B SHL DUP2 MSTORE POP PUSH1 0x40 MLOAD DUP1 PUSH1 0x40 ADD PUSH1 0x40 MSTORE DUP1 PUSH1 0x1F DUP2 MSTORE PUSH1 0x20 ADD PUSH32 0x5072696D6C6A656E20706F6E6F766F20706F70756E6A656E207A616874657600 DUP2 MSTORE POP PUSH1 0x40 MLOAD DUP1 PUSH1 0x40 ADD PUSH1 0x40 MSTORE DUP1 PUSH1 0x9 DUP2 MSTORE PUSH1 0x20 ADD PUSH9 0x536C757A62656E696B PUSH1 0xB8 SHL DUP2 MSTORE POP PUSH1 0x40 MLOAD DUP1 PUSH1 0x20 ADD PUSH1 0x40 MSTORE DUP1 PUSH1 0x0 DUP2 MSTORE POP PUSH1 0x40 MLOAD DUP1 PUSH1 0x20 ADD PUSH1 0x40 MSTORE DUP1 PUSH1 0x0 DUP2 MSTORE POP PUSH1 0x40 MLOAD DUP1 PUSH1 0x40 ADD PUSH1 0x40 MSTORE DUP1 PUSH1 0xA DUP2 MSTORE PUSH1 0x20 ADD PUSH10 0x18991799989799181919 PUSH1 0xB1 SHL DUP2 MSTORE POP PUSH3 0x5240 PUSH1 0x20 SHL PUSH1 0x20 SHR JUMP JUMPDEST PUSH1 0x40 DUP1 MLOAD PUSH1 0x60 DUP2 ADD DUP3 MSTORE PUSH1 0xD PUSH1 0x20 DUP1 DUP4 ADD SWAP2 DUP3 MSTORE PUSH13 0x8AECCADCE8BE62DA6AD4EED0D PUSH1 0x9B SHL SWAP4 DUP4 ADD SWAP4 SWAP1 SWAP4 MSTORE DUP2 MSTORE PUSH1 0x1C PUSH1 0x0 MSTORE PUSH1 0x3 SWAP1 SWAP2 MSTORE PUSH3 0x352D SWAP1 PUSH32 0x57023EF7FE58B878582140EA36F22723905AD724896EAF74090FBA76C229BD22 SWAP1 PUSH1 0x1 PUSH3 0x53C8 JUMP JUMPDEST POP PUSH1 0x40 DUP1 MLOAD PUSH1 0x60 DUP2 ADD DUP3 MSTORE PUSH1 0xF PUSH1 0x20 DUP1 DUP4 ADD SWAP2 DUP3 MSTORE PUSH15 0x476174657761795F303168726A706D PUSH1 0x88 SHL SWAP4 DUP4 ADD SWAP4 SWAP1 SWAP4 MSTORE DUP2 MSTORE PUSH1 0x1C PUSH1 0x0 MSTORE PUSH1 0x4 SWAP1 SWAP2 MSTORE PUSH3 0x3597 SWAP1 PUSH32 0x69BC8C08A6B955AEC2072CA430BAC7123BC3539264A736D1A23621B0F0C62F31 SWAP1 PUSH1 0x1 PUSH3 0x53C8 JUMP JUMPDEST POP PUSH1 0x40 DUP1 MLOAD PUSH1 0x60 DUP2 ADD DUP3 MSTORE PUSH1 0xD PUSH1 0x20 DUP1 DUP4 ADD SWAP2 DUP3 MSTORE PUSH13 0x22BB32B73A2F989ABBB8B6323D PUSH1 0x99 SHL SWAP4 DUP4 ADD SWAP4 SWAP1 SWAP4 MSTORE DUP2 MSTORE PUSH1 0x1C PUSH1 0x0 MSTORE PUSH1 0x5 SWAP1 SWAP2 MSTORE PUSH3 0x35FF SWAP1 PUSH32 0x66EEECFFAB615CF4C69D47D3AA51576E95B697767264FA754EA36F4E363EA193 SWAP1 PUSH1 0x1 PUSH3 0x53C8 JUMP JUMPDEST POP PUSH3 0x36D5 PUSH1 0x1C PUSH1 0x3 PUSH1 0x40 MLOAD DUP1 PUSH1 0x40 ADD PUSH1 0x40 MSTORE DUP1 PUSH1 0xD DUP2 MSTORE PUSH1 0x20 ADD PUSH13 0x22BB32B73A2F98B39ABBBA37B1 PUSH1 0x99 SHL DUP2 MSTORE POP PUSH1 0x40 MLOAD DUP1 PUSH1 0x40 ADD PUSH1 0x40 MSTORE DUP1 PUSH1 0x1A DUP2 MSTORE PUSH1 0x20 ADD PUSH32 0x5072696D6C6A656E6F206F626176657374656E6A65206F2E2E2E000000000000 DUP2 MSTORE POP PUSH1 0x40 MLOAD DUP1 PUSH1 0x40 ADD PUSH1 0x40 MSTORE DUP1 PUSH1 0x9 DUP2 MSTORE PUSH1 0x20 ADD PUSH9 0x536C757A62656E696B PUSH1 0xB8 SHL DUP2 MSTORE POP PUSH1 0x40 MLOAD DUP1 PUSH1 0x20 ADD PUSH1 0x40 MSTORE DUP1 PUSH1 0x0 DUP2 MSTORE POP PUSH1 0x40 MLOAD DUP1 PUSH1 0x20 ADD PUSH1 0x40 MSTORE DUP1 PUSH1 0x0 DUP2 MSTORE POP PUSH1 0x40 MLOAD DUP1 PUSH1 0x40 ADD PUSH1 0x40 MSTORE DUP1 PUSH1 0xA DUP2 MSTORE PUSH1 0x20 ADD PUSH10 0x18991799989799181919 PUSH1 0xB1 SHL DUP2 MSTORE POP PUSH3 0x5240 PUSH1 0x20 SHL PUSH1 0x20 SHR JUMP JUMPDEST PUSH1 0x40 DUP1 MLOAD PUSH1 0x60 DUP2 ADD DUP3 MSTORE PUSH1 0xD PUSH1 0x20 DUP1 DUP4 ADD SWAP2 DUP3 MSTORE PUSH13 0x4576656E745F30696977356433 PUSH1 0x98 SHL SWAP4 DUP4 ADD SWAP4 SWAP1 SWAP4 MSTORE DUP2 MSTORE PUSH1 0x1D PUSH1 0x0 MSTORE PUSH1 0x3 SWAP1 SWAP2 MSTORE PUSH3 0x373C SWAP1 PUSH32 0x4BA0D371C59A4C8176901CB7799ECDD8B41B974BE3A1349B5D0A9FF9AAA230D9 SWAP1 PUSH1 0x1 PUSH3 0x53C8 JUMP JUMPDEST POP PUSH1 0x40 DUP1 MLOAD PUSH1 0x60 DUP2 ADD DUP3 MSTORE PUSH1 0xF PUSH1 0x20 DUP1 DUP4 ADD SWAP2 DUP3 MSTORE PUSH15 0x476174657761795F303168726A706D PUSH1 0x88 SHL SWAP4 DUP4 ADD SWAP4 SWAP1 SWAP4 MSTORE DUP2 MSTORE PUSH1 0x1D PUSH1 0x0 MSTORE PUSH1 0x4 SWAP1 SWAP2 MSTORE PUSH3 0x37A6 SWAP1 PUSH32 0x547911337F50119FE7598B1BE3FA84D3D0506FFE5C730DB17C43BC74040BBFCE SWAP1 PUSH1 0x1 PUSH3 0x53C8 JUMP JUMPDEST POP PUSH1 0x40 DUP1 MLOAD PUSH1 0x60 DUP2 ADD DUP3 MSTORE PUSH1 0xD PUSH1 0x20 DUP1 DUP4 ADD SWAP2 DUP3 MSTORE PUSH13 0x115D995B9D17CC0D1D1B0DCC9B PUSH1 0x9A SHL SWAP4 DUP4 ADD SWAP4 SWAP1 SWAP4 MSTORE DUP2 MSTORE PUSH1 0x1D PUSH1 0x0 MSTORE PUSH1 0x5 SWAP1 SWAP2 MSTORE PUSH3 0x380E SWAP1 PUSH32 0x348E8FE0716B12AFDD2E814AE0B8B1BB9B5C7A197EF418C73B8BDD93BEE14DE5 SWAP1 PUSH1 0x1 PUSH3 0x53C8 JUMP JUMPDEST POP PUSH3 0x38D8 PUSH1 0x1D PUSH1 0x3 PUSH1 0x40 MLOAD DUP1 PUSH1 0x40 ADD PUSH1 0x40 MSTORE DUP1 PUSH1 0xD DUP2 MSTORE PUSH1 0x20 ADD PUSH13 0x4576656E745F3035776E76717 PUSH1 0x9C SHL DUP2 MSTORE POP PUSH1 0x40 MLOAD DUP1 PUSH1 0x40 ADD PUSH1 0x40 MSTORE DUP1 PUSH1 0x11 DUP2 MSTORE PUSH1 0x20 ADD PUSH17 0x5072696D6C6A656E61206B617274696361 PUSH1 0x78 SHL DUP2 MSTORE POP PUSH1 0x40 MLOAD DUP1 PUSH1 0x40 ADD PUSH1 0x40 MSTORE DUP1 PUSH1 0x9 DUP2 MSTORE PUSH1 0x20 ADD PUSH9 0x536C757A62656E696B PUSH1 0xB8 SHL DUP2 MSTORE POP PUSH1 0x40 MLOAD DUP1 PUSH1 0x20 ADD PUSH1 0x40 MSTORE DUP1 PUSH1 0x0 DUP2 MSTORE POP PUSH1 0x40 MLOAD DUP1 PUSH1 0x20 ADD PUSH1 0x40 MSTORE DUP1 PUSH1 0x0 DUP2 MSTORE POP PUSH1 0x40 MLOAD DUP1 PUSH1 0x40 ADD PUSH1 0x40 MSTORE DUP1 PUSH1 0xA DUP2 MSTORE PUSH1 0x20 ADD PUSH10 0x18991799989799181919 PUSH1 0xB1 SHL DUP2 MSTORE POP PUSH3 0x5240 PUSH1 0x20 SHL PUSH1 0x20 SHR JUMP JUMPDEST PUSH1 0x40 DUP1 MLOAD PUSH1 0x60 DUP2 ADD DUP3 MSTORE PUSH1 0xD PUSH1 0x20 DUP1 DUP4 ADD SWAP2 DUP3 MSTORE PUSH13 0x115D995B9D17CC0D1D1B0DCC9B PUSH1 0x9A SHL SWAP4 DUP4 ADD SWAP4 SWAP1 SWAP4 MSTORE DUP2 MSTORE PUSH1 0x1E PUSH1 0x0 MSTORE PUSH1 0x3 SWAP1 SWAP2 MSTORE PUSH3 0x393F SWAP1 PUSH32 0x6117FEE2F1274E1B392D2C3FE842478040A980D896757F38CBFE2CEEBFA9F55F SWAP1 PUSH1 0x1 PUSH3 0x53C8 JUMP JUMPDEST POP PUSH1 0x40 DUP1 MLOAD PUSH1 0x60 DUP2 ADD DUP3 MSTORE PUSH1 0xD PUSH1 0x20 DUP1 DUP4 ADD SWAP2 DUP3 MSTORE PUSH13 0x4576656E745F31327978386971 PUSH1 0x98 SHL SWAP4 DUP4 ADD SWAP4 SWAP1 SWAP4 MSTORE DUP2 MSTORE PUSH1 0x1E PUSH1 0x0 MSTORE PUSH1 0x4 SWAP1 SWAP2 MSTORE PUSH3 0x39A7 SWAP1 PUSH32 0x9041EE6632BD2142B9CC58F348E0761559F8D964FE48AC6D87DC2B689213E3BB SWAP1 PUSH1 0x1 PUSH3 0x53C8 JUMP JUMPDEST POP PUSH1 0x40 DUP1 MLOAD PUSH1 0x60 DUP2 ADD DUP3 MSTORE PUSH1 0xD PUSH1 0x20 DUP1 DUP4 ADD SWAP2 DUP3 MSTORE PUSH13 0x4576656E745F31316362693933 PUSH1 0x98 SHL SWAP4 DUP4 ADD SWAP4 SWAP1 SWAP4 MSTORE DUP2 MSTORE PUSH1 0x1E PUSH1 0x0 MSTORE PUSH1 0x5 SWAP1 SWAP2 MSTORE PUSH3 0x3A0F SWAP1 PUSH32 0x3FB1F8B5B572F385DF2FF517FA4200D6781FD017F742A2F073E874E0DCA7758B SWAP1 PUSH1 0x1 PUSH3 0x53C8 JUMP JUMPDEST POP PUSH3 0x3AD8 PUSH1 0x1E PUSH1 0x3 PUSH1 0x40 MLOAD DUP1 PUSH1 0x40 ADD PUSH1 0x40 MSTORE DUP1 PUSH1 0xD DUP2 MSTORE PUSH1 0x20 ADD PUSH13 0x4576656E745F303977386B6433 PUSH1 0x98 SHL DUP2 MSTORE POP PUSH1 0x40 MLOAD DUP1 PUSH1 0x40 ADD PUSH1 0x40 MSTORE DUP1 PUSH1 0x11 DUP2 MSTORE PUSH1 0x20 ADD PUSH17 0x5072696D6C6A656E61206B617274696361 PUSH1 0x78 SHL DUP2 MSTORE POP PUSH1 0x40 MLOAD DUP1 PUSH1 0x40 ADD PUSH1 0x40 MSTORE DUP1 PUSH1 0x8 DUP2 MSTORE PUSH1 0x20 ADD PUSH8 0x26B2B730B23D32B9 PUSH1 0xC1 SHL DUP2 MSTORE POP PUSH1 0x40 MLOAD DUP1 PUSH1 0x20 ADD PUSH1 0x40 MSTORE DUP1 PUSH1 0x0 DUP2 MSTORE POP PUSH1 0x40 MLOAD DUP1 PUSH1 0x20 ADD PUSH1 0x40 MSTORE DUP1 PUSH1 0x0 DUP2 MSTORE POP PUSH1 0x40 MLOAD DUP1 PUSH1 0x40 ADD PUSH1 0x40 MSTORE DUP1 PUSH1 0xA DUP2 MSTORE PUSH1 0x20 ADD PUSH10 0x18991799989799181919 PUSH1 0xB1 SHL DUP2 MSTORE POP PUSH3 0x5240 PUSH1 0x20 SHL PUSH1 0x20 SHR JUMP JUMPDEST PUSH1 0x40 DUP1 MLOAD PUSH1 0x60 DUP2 ADD DUP3 MSTORE PUSH1 0xD PUSH1 0x20 DUP1 DUP4 ADD SWAP2 DUP3 MSTORE PUSH13 0x115D995B9D17CC1D1A595CD9CD PUSH1 0x9A SHL SWAP4 DUP4 ADD SWAP4 SWAP1 SWAP4 MSTORE DUP2 MSTORE PUSH1 0x1F PUSH1 0x0 MSTORE PUSH1 0x4 SWAP1 SWAP2 MSTORE PUSH3 0x3B3F SWAP1 PUSH32 0x4C55BEC45BE59A99D441CCB7880F9B68F316B687AB5AC77EFC4386A807007768 SWAP1 PUSH1 0x1 PUSH3 0x53C8 JUMP JUMPDEST POP PUSH3 0x3BF7 PUSH1 0x1F PUSH1 0x1 PUSH1 0x40 MLOAD DUP1 PUSH1 0x40 ADD PUSH1 0x40 MSTORE DUP1 PUSH1 0xD DUP2 MSTORE PUSH1 0x20 ADD PUSH13 0x22BB32B73A2F989B3AB9379B35 PUSH1 0x99 SHL DUP2 MSTORE POP PUSH1 0x40 MLOAD DUP1 PUSH1 0x60 ADD PUSH1 0x40 MSTORE DUP1 PUSH1 0x22 DUP2 MSTORE PUSH1 0x20 ADD PUSH3 0x8BAE PUSH1 0x22 SWAP2 CODECOPY PUSH1 0x40 MLOAD DUP1 PUSH1 0x40 ADD PUSH1 0x40 MSTORE DUP1 PUSH1 0x7 DUP2 MSTORE PUSH1 0x20 ADD PUSH7 0x14DD1D59195B9D PUSH1 0xCA SHL DUP2 MSTORE POP PUSH1 0x40 MLOAD DUP1 PUSH1 0x20 ADD PUSH1 0x40 MSTORE DUP1 PUSH1 0x0 DUP2 MSTORE POP PUSH1 0x40 MLOAD DUP1 PUSH1 0x20 ADD PUSH1 0x40 MSTORE DUP1 PUSH1 0x0 DUP2 MSTORE POP PUSH1 0x40 MLOAD DUP1 PUSH1 0x40 ADD PUSH1 0x40 MSTORE DUP1 PUSH1 0xA DUP2 MSTORE PUSH1 0x20 ADD PUSH10 0x18991799989799181919 PUSH1 0xB1 SHL DUP2 MSTORE POP PUSH3 0x5240 PUSH1 0x20 SHL PUSH1 0x20 SHR JUMP JUMPDEST PUSH1 0x40 DUP1 MLOAD PUSH1 0x60 DUP2 ADD DUP3 MSTORE PUSH1 0xD PUSH1 0x20 DUP1 DUP4 ADD SWAP2 DUP3 MSTORE PUSH13 0x4576656E745F3030776B35743 PUSH1 0x9C SHL SWAP4 DUP4 ADD SWAP4 SWAP1 SWAP4 MSTORE DUP2 MSTORE PUSH1 0x0 DUP3 SWAP1 MSTORE PUSH1 0x4 SWAP1 SWAP2 MSTORE PUSH3 0x3C5E SWAP1 PUSH32 0x96648185182926ADD89EE4D5C354D3F3E8383A8966D4D875BD8575E13AA27A96 SWAP1 PUSH1 0x1 PUSH3 0x53C8 JUMP JUMPDEST POP PUSH3 0x3D32 PUSH1 0x20 PUSH1 0x1 PUSH1 0x40 MLOAD DUP1 PUSH1 0x40 ADD PUSH1 0x40 MSTORE DUP1 PUSH1 0xD DUP2 MSTORE PUSH1 0x20 ADD PUSH13 0x4576656E745F306F3669696537 PUSH1 0x98 SHL DUP2 MSTORE POP PUSH1 0x40 MLOAD DUP1 PUSH1 0x40 ADD PUSH1 0x40 MSTORE DUP1 PUSH1 0x1D DUP2 MSTORE PUSH1 0x20 ADD PUSH32 0x4B72616A2075736C6564206F646C61736B6120706F206B617274696375000000 DUP2 MSTORE POP PUSH1 0x40 MLOAD DUP1 PUSH1 0x40 ADD PUSH1 0x40 MSTORE DUP1 PUSH1 0x7 DUP2 MSTORE PUSH1 0x20 ADD PUSH7 0x14DD1D59195B9D PUSH1 0xCA SHL DUP2 MSTORE POP PUSH1 0x40 MLOAD DUP1 PUSH1 0x20 ADD PUSH1 0x40 MSTORE DUP1 PUSH1 0x0 DUP2 MSTORE POP PUSH1 0x40 MLOAD DUP1 PUSH1 0x20 ADD PUSH1 0x40 MSTORE DUP1 PUSH1 0x0 DUP2 MSTORE POP PUSH1 0x40 MLOAD DUP1 PUSH1 0x40 ADD PUSH1 0x40 MSTORE DUP1 PUSH1 0xA DUP2 MSTORE PUSH1 0x20 ADD PUSH10 0x18991799989799181919 PUSH1 0xB1 SHL DUP2 MSTORE POP PUSH3 0x5240 PUSH1 0x20 SHL PUSH1 0x20 SHR JUMP JUMPDEST PUSH1 0x40 DUP1 MLOAD PUSH1 0x60 DUP2 ADD DUP3 MSTORE PUSH1 0xD PUSH1 0x20 DUP1 DUP4 ADD SWAP2 DUP3 MSTORE PUSH13 0x22BB32B73A2F9831B9B7B1B3BB PUSH1 0x99 SHL SWAP4 DUP4 ADD SWAP4 SWAP1 SWAP4 MSTORE DUP2 MSTORE PUSH1 0x21 PUSH1 0x0 MSTORE PUSH1 0x4 SWAP1 SWAP2 MSTORE PUSH3 0x3D99 SWAP1 PUSH32 0x1A6A7F21C46330BC6F6A1E986D3EF56BC7833CC3006BFDE177CCE9F142837659 SWAP1 PUSH1 0x1 PUSH3 0x53C8 JUMP JUMPDEST POP PUSH3 0x3E5D PUSH1 0x21 PUSH1 0x1 PUSH1 0x40 MLOAD DUP1 PUSH1 0x40 ADD PUSH1 0x40 MSTORE DUP1 PUSH1 0xD DUP2 MSTORE PUSH1 0x20 ADD PUSH13 0x115D995B9D17CC0E588D189C9D PUSH1 0x9A SHL DUP2 MSTORE POP PUSH1 0x40 MLOAD DUP1 PUSH1 0x40 ADD PUSH1 0x40 MSTORE DUP1 PUSH1 0xD DUP2 MSTORE PUSH1 0x20 ADD PUSH13 0x25B930B5103AB9B632B2171717 PUSH1 0x99 SHL DUP2 MSTORE POP PUSH1 0x40 MLOAD DUP1 PUSH1 0x40 ADD PUSH1 0x40 MSTORE DUP1 PUSH1 0x7 DUP2 MSTORE PUSH1 0x20 ADD PUSH7 0x14DD1D59195B9D PUSH1 0xCA SHL DUP2 MSTORE POP PUSH1 0x40 MLOAD DUP1 PUSH1 0x20 ADD PUSH1 0x40 MSTORE DUP1 PUSH1 0x0 DUP2 MSTORE POP PUSH1 0x40 MLOAD DUP1 PUSH1 0x20 ADD PUSH1 0x40 MSTORE DUP1 PUSH1 0x0 DUP2 MSTORE POP PUSH1 0x40 MLOAD DUP1 PUSH1 0x40 ADD PUSH1 0x40 MSTORE DUP1 PUSH1 0xA DUP2 MSTORE PUSH1 0x20 ADD PUSH10 0x18991799989799181919 PUSH1 0xB1 SHL DUP2 MSTORE POP PUSH3 0x5240 PUSH1 0x20 SHL PUSH1 0x20 SHR JUMP JUMPDEST PUSH1 0x40 DUP1 MLOAD PUSH1 0x60 DUP2 ADD DUP3 MSTORE PUSH1 0xF PUSH1 0x20 DUP1 DUP4 ADD SWAP2 DUP3 MSTORE PUSH15 0x476174657761795F306F796E383765 PUSH1 0x88 SHL SWAP4 DUP4 ADD SWAP4 SWAP1 SWAP4 MSTORE DUP2 MSTORE PUSH1 0x22 PUSH1 0x0 MSTORE PUSH1 0x4 SWAP1 SWAP2 MSTORE PUSH3 0x3EC6 SWAP1 PUSH32 0x7817F7889F42986426820E39B6BE36471D2FACB3B03609D32089206107CD0E8A SWAP1 PUSH1 0x1 PUSH3 0x53C8 JUMP JUMPDEST POP PUSH1 0x40 DUP1 MLOAD PUSH1 0x60 DUP2 ADD DUP3 MSTORE PUSH1 0xD PUSH1 0x20 DUP1 DUP4 ADD SWAP2 DUP3 MSTORE PUSH13 0x22BB32B73A2F98B39ABBBA37B1 PUSH1 0x99 SHL SWAP4 DUP4 ADD SWAP4 SWAP1 SWAP4 MSTORE DUP2 MSTORE PUSH1 0x22 PUSH1 0x0 MSTORE PUSH1 0x6 SWAP1 SWAP2 MSTORE PUSH3 0x3F2E SWAP1 PUSH32 0x8AF5381260E66889371782FBE46D40ACA6DD5BE0AE554320299EDBBB452AB6D SWAP1 PUSH1 0x1 PUSH3 0x53C8 JUMP JUMPDEST POP PUSH3 0x3FE7 PUSH1 0x22 PUSH1 0x1 PUSH1 0x40 MLOAD DUP1 PUSH1 0x40 ADD PUSH1 0x40 MSTORE DUP1 PUSH1 0xD DUP2 MSTORE PUSH1 0x20 ADD PUSH13 0x22BB32B73A2F989ABBB8B6323D PUSH1 0x99 SHL DUP2 MSTORE POP PUSH1 0x40 MLOAD DUP1 PUSH1 0x60 ADD PUSH1 0x40 MSTORE DUP1 PUSH1 0x27 DUP2 MSTORE PUSH1 0x20 ADD PUSH3 0x8BD0 PUSH1 0x27 SWAP2 CODECOPY PUSH1 0x40 MLOAD DUP1 PUSH1 0x40 ADD PUSH1 0x40 MSTORE DUP1 PUSH1 0x8 DUP2 MSTORE PUSH1 0x20 ADD PUSH8 0x26B2B730B23D32B9 PUSH1 0xC1 SHL DUP2 MSTORE POP PUSH1 0x40 MLOAD DUP1 PUSH1 0x20 ADD PUSH1 0x40 MSTORE DUP1 PUSH1 0x0 DUP2 MSTORE POP PUSH1 0x40 MLOAD DUP1 PUSH1 0x20 ADD PUSH1 0x40 MSTORE DUP1 PUSH1 0x0 DUP2 MSTORE POP PUSH1 0x40 MLOAD DUP1 PUSH1 0x40 ADD PUSH1 0x40 MSTORE DUP1 PUSH1 0xA DUP2 MSTORE PUSH1 0x20 ADD PUSH10 0x18991799989799181919 PUSH1 0xB1 SHL DUP2 MSTORE POP PUSH3 0x5240 PUSH1 0x20 SHL PUSH1 0x20 SHR JUMP JUMPDEST PUSH1 0x40 DUP1 MLOAD PUSH1 0x60 DUP2 ADD DUP3 MSTORE PUSH1 0xD PUSH1 0x20 DUP1 DUP4 ADD SWAP2 DUP3 MSTORE PUSH13 0x4576656E745F303977386B6433 PUSH1 0x98 SHL SWAP4 DUP4 ADD SWAP4 SWAP1 SWAP4 MSTORE DUP2 MSTORE PUSH1 0x23 PUSH1 0x0 MSTORE PUSH1 0x4 SWAP1 SWAP2 MSTORE PUSH3 0x404E SWAP1 PUSH32 0xB91C9B6E3CF94511F58867E361A9E0DD6A5C84A5D216D6F87AE5FDB9BF257B2B SWAP1 PUSH1 0x1 PUSH3 0x53C8 JUMP JUMPDEST POP PUSH1 0x40 DUP1 MLOAD PUSH1 0x60 DUP2 ADD DUP3 MSTORE PUSH1 0xD PUSH1 0x20 DUP1 DUP4 ADD SWAP2 DUP3 MSTORE PUSH13 0x4576656E745F3035776E76717 PUSH1 0x9C SHL SWAP4 DUP4 ADD SWAP4 SWAP1 SWAP4 MSTORE DUP2 MSTORE PUSH1 0x23 PUSH1 0x0 MSTORE PUSH1 0x6 SWAP1 SWAP2 MSTORE PUSH3 0x40B6 SWAP1 PUSH32 0xE48DF43C9C2E40ABE481A46147D0B2ADBAF395B9B6D89CA6749A6ECEFA692F3E SWAP1 PUSH1 0x1 PUSH3 0x53C8 JUMP JUMPDEST POP PUSH3 0x418B PUSH1 0x23 PUSH1 0x1 PUSH1 0x40 MLOAD DUP1 PUSH1 0x40 ADD PUSH1 0x40 MSTORE DUP1 PUSH1 0xD DUP2 MSTORE PUSH1 0x20 ADD PUSH13 0x115D995B9D17CC0D1D1B0DCC9B PUSH1 0x9A SHL DUP2 MSTORE POP PUSH1 0x40 MLOAD DUP1 PUSH1 0x40 ADD PUSH1 0x40 MSTORE DUP1 PUSH1 0x1A DUP2 MSTORE PUSH1 0x20 ADD PUSH32 0x506F736C617461206B61727469636120736C757A62656E696B75000000000000 DUP2 MSTORE POP PUSH1 0x40 MLOAD DUP1 PUSH1 0x40 ADD PUSH1 0x40 MSTORE DUP1 PUSH1 0x8 DUP2 MSTORE PUSH1 0x20 ADD PUSH8 0x26B2B730B23D32B9 PUSH1 0xC1 SHL DUP2 MSTORE POP PUSH1 0x40 MLOAD DUP1 PUSH1 0x20 ADD PUSH1 0x40 MSTORE DUP1 PUSH1 0x0 DUP2 MSTORE POP PUSH1 0x40 MLOAD DUP1 PUSH1 0x20 ADD PUSH1 0x40 MSTORE DUP1 PUSH1 0x0 DUP2 MSTORE POP PUSH1 0x40 MLOAD DUP1 PUSH1 0x40 ADD PUSH1 0x40 MSTORE DUP1 PUSH1 0xA DUP2 MSTORE PUSH1 0x20 ADD PUSH10 0x18991799989799181919 PUSH1 0xB1 SHL DUP2 MSTORE POP PUSH3 0x5240 PUSH1 0x20 SHL PUSH1 0x20 SHR JUMP JUMPDEST PUSH1 0x40 DUP1 MLOAD PUSH1 0x60 DUP2 ADD DUP3 MSTORE PUSH1 0x10 PUSH1 0x20 DUP1 DUP4 ADD SWAP2 DUP3 MSTORE PUSH16 0x20B1BA34BB34BA3CAF98B0B434379833 PUSH1 0x81 SHL SWAP4 DUP4 ADD SWAP4 SWAP1 SWAP4 MSTORE DUP2 MSTORE PUSH1 0x24 PUSH1 0x0 MSTORE PUSH1 0x4 SWAP1 SWAP2 MSTORE PUSH3 0x41F5 SWAP1 PUSH32 0x724AD3D24F57AAE4BEBEAD5383879105CE62B9D5FA67D4343AE412B59BD7971D SWAP1 PUSH1 0x1 PUSH3 0x53C8 JUMP JUMPDEST POP PUSH1 0x40 DUP1 MLOAD PUSH1 0x60 DUP2 ADD DUP3 MSTORE PUSH1 0xD PUSH1 0x20 DUP1 DUP4 ADD SWAP2 DUP3 MSTORE PUSH13 0x4576656E745F303977386B6433 PUSH1 0x98 SHL SWAP4 DUP4 ADD SWAP4 SWAP1 SWAP4 MSTORE DUP2 MSTORE PUSH1 0x24 PUSH1 0x0 MSTORE PUSH1 0x6 SWAP1 SWAP2 MSTORE PUSH3 0x425D SWAP1 PUSH32 0x1DB7B1394727B4EC83580F945DDF3BDF76FCB71F6C6109779C749EE7EC003004 SWAP1 PUSH1 0x1 PUSH3 0x53C8 JUMP JUMPDEST POP PUSH3 0x4336 PUSH1 0x24 PUSH1 0x1 PUSH1 0x40 MLOAD DUP1 PUSH1 0x40 ADD PUSH1 0x40 MSTORE DUP1 PUSH1 0xD DUP2 MSTORE PUSH1 0x20 ADD PUSH13 0x4576656E745F31316362693933 PUSH1 0x98 SHL DUP2 MSTORE POP PUSH1 0x40 MLOAD DUP1 PUSH1 0x40 ADD PUSH1 0x40 MSTORE DUP1 PUSH1 0x19 DUP2 MSTORE PUSH1 0x20 ADD PUSH32 0x506F736C617461206B617274696361206D656E61647A65727500000000000000 DUP2 MSTORE POP PUSH1 0x40 MLOAD DUP1 PUSH1 0x40 ADD PUSH1 0x40 MSTORE DUP1 PUSH1 0x18 DUP2 MSTORE PUSH1 0x20 ADD PUSH1 0x0 DUP1 MLOAD PUSH1 0x20 PUSH3 0x8B07 DUP4 CODECOPY DUP2 MLOAD SWAP2 MSTORE DUP2 MSTORE POP PUSH1 0x40 MLOAD DUP1 PUSH1 0x20 ADD PUSH1 0x40 MSTORE DUP1 PUSH1 0x0 DUP2 MSTORE POP PUSH1 0x40 MLOAD DUP1 PUSH1 0x20 ADD PUSH1 0x40 MSTORE DUP1 PUSH1 0x0 DUP2 MSTORE POP PUSH1 0x40 MLOAD DUP1 PUSH1 0x40 ADD PUSH1 0x40 MSTORE DUP1 PUSH1 0xA DUP2 MSTORE PUSH1 0x20 ADD PUSH10 0x18991799989799181919 PUSH1 0xB1 SHL DUP2 MSTORE POP PUSH3 0x5240 PUSH1 0x20 SHL PUSH1 0x20 SHR JUMP JUMPDEST PUSH1 0x40 DUP1 MLOAD PUSH1 0xA0 DUP2 ADD DUP3 MSTORE PUSH1 0xD PUSH1 0x60 DUP3 ADD DUP2 DUP2 MSTORE PUSH13 0x115D995B9D17CC1D1A595CD9CD PUSH1 0x9A SHL PUSH1 0x80 DUP5 ADD MSTORE DUP3 MSTORE DUP3 MLOAD DUP1 DUP5 ADD DUP5 MSTORE DUP2 DUP2 MSTORE PUSH13 0x22BB32B73A2F9831B9B7B1B3BB PUSH1 0x99 SHL PUSH1 0x20 DUP3 DUP2 ADD SWAP2 SWAP1 SWAP2 MSTORE DUP1 DUP5 ADD SWAP2 SWAP1 SWAP2 MSTORE DUP4 MLOAD DUP1 DUP6 ADD DUP6 MSTORE SWAP2 DUP3 MSTORE PUSH13 0x4576656E745F3030776B35743 PUSH1 0x9C SHL DUP3 DUP3 ADD MSTORE SWAP3 DUP3 ADD MSTORE PUSH1 0x25 PUSH1 0x0 MSTORE PUSH1 0x3 SWAP2 DUP3 SWAP1 MSTORE PUSH3 0x43E8 SWAP2 PUSH32 0x37E56E4C2B6ED73B31A7A63E641BFEE67245B50921806A650AA65BB58A213BA7 SWAP2 SWAP1 PUSH3 0x5421 JUMP JUMPDEST POP PUSH1 0x40 DUP1 MLOAD PUSH1 0x80 DUP2 ADD DUP3 MSTORE PUSH1 0xD DUP2 DUP4 ADD SWAP1 DUP2 MSTORE PUSH13 0x4576656E745F30616F6E616D39 PUSH1 0x98 SHL PUSH1 0x60 DUP4 ADD MSTORE DUP2 MSTORE DUP2 MLOAD DUP1 DUP4 ADD SWAP1 SWAP3 MSTORE PUSH1 0x10 DUP3 MSTORE PUSH16 0x1058DD1A5D9A5D1E57CC0DCE59DE8DCD PUSH1 0x82 SHL PUSH1 0x20 DUP4 DUP2 ADD SWAP2 SWAP1 SWAP2 MSTORE DUP1 DUP3 ADD SWAP3 SWAP1 SWAP3 MSTORE PUSH1 0x25 PUSH1 0x0 MSTORE PUSH1 0x4 SWAP1 SWAP2 MSTORE PUSH3 0x447C SWAP1 PUSH32 0x2B9C662716C34A6B24CD9B4F63FE731A136A5A3399A9750ED5CDEE99E40FAA3A SWAP1 PUSH1 0x2 PUSH3 0x546C JUMP JUMPDEST POP PUSH3 0x452C PUSH1 0x25 PUSH1 0x5 PUSH1 0x40 MLOAD DUP1 PUSH1 0x40 ADD PUSH1 0x40 MSTORE DUP1 PUSH1 0xF DUP2 MSTORE PUSH1 0x20 ADD PUSH15 0x476174657761795F30626169746931 PUSH1 0x88 SHL DUP2 MSTORE POP PUSH1 0x40 MLOAD DUP1 PUSH1 0x20 ADD PUSH1 0x40 MSTORE DUP1 PUSH1 0x0 DUP2 MSTORE POP PUSH1 0x40 MLOAD DUP1 PUSH1 0x40 ADD PUSH1 0x40 MSTORE DUP1 PUSH1 0x7 DUP2 MSTORE PUSH1 0x20 ADD PUSH7 0x14DD1D59195B9D PUSH1 0xCA SHL DUP2 MSTORE POP PUSH1 0x40 MLOAD DUP1 PUSH1 0x20 ADD PUSH1 0x40 MSTORE DUP1 PUSH1 0x0 DUP2 MSTORE POP PUSH1 0x40 MLOAD DUP1 PUSH1 0x20 ADD PUSH1 0x40 MSTORE DUP1 PUSH1 0x0 DUP2 MSTORE POP PUSH1 0x40 MLOAD DUP1 PUSH1 0x40 ADD PUSH1 0x40 MSTORE DUP1 PUSH1 0xA DUP2 MSTORE PUSH1 0x20 ADD PUSH10 0x18991799989799181919 PUSH1 0xB1 SHL DUP2 MSTORE POP PUSH3 0x5240 PUSH1 0x20 SHL PUSH1 0x20 SHR JUMP JUMPDEST PUSH1 0x40 DUP1 MLOAD PUSH1 0x80 DUP2 ADD DUP3 MSTORE PUSH1 0xD DUP2 DUP4 ADD SWAP1 DUP2 MSTORE PUSH13 0x8AECCADCE8BE62D872C46EDC7 PUSH1 0x9B SHL PUSH1 0x60 DUP4 ADD MSTORE DUP2 MSTORE DUP2 MLOAD DUP1 DUP4 ADD SWAP1 SWAP3 MSTORE PUSH1 0x10 DUP3 MSTORE PUSH16 0x41637469766974795F31366D666C7977 PUSH1 0x80 SHL PUSH1 0x20 DUP4 DUP2 ADD SWAP2 SWAP1 SWAP2 MSTORE DUP1 DUP3 ADD SWAP3 SWAP1 SWAP3 MSTORE PUSH1 0x26 PUSH1 0x0 MSTORE PUSH1 0x3 SWAP1 SWAP2 MSTORE PUSH3 0x45BF SWAP1 PUSH32 0x6E80044B428A86DDB5F7277680F16AC528219BBC3F477F367A023FD1680FEF05 SWAP1 PUSH1 0x2 PUSH3 0x546C JUMP JUMPDEST POP PUSH1 0x40 DUP1 MLOAD PUSH1 0x60 DUP2 ADD DUP3 MSTORE PUSH1 0x10 PUSH1 0x20 DUP1 DUP4 ADD SWAP2 DUP3 MSTORE PUSH16 0x1058DD1A5D9A5D1E57CC18588C999CDD PUSH1 0x82 SHL SWAP4 DUP4 ADD SWAP4 SWAP1 SWAP4 MSTORE DUP2 MSTORE PUSH1 0x26 PUSH1 0x0 MSTORE PUSH1 0x4 SWAP1 SWAP2 MSTORE PUSH3 0x462A SWAP1 PUSH32 0xF8F9FBE49577EFD32B3647A88078DF070961CEAA913763423B34EEB65953041B SWAP1 PUSH1 0x1 PUSH3 0x53C8 JUMP JUMPDEST POP PUSH3 0x46DC PUSH1 0x26 PUSH1 0x5 PUSH1 0x40 MLOAD DUP1 PUSH1 0x40 ADD PUSH1 0x40 MSTORE DUP1 PUSH1 0xF DUP2 MSTORE PUSH1 0x20 ADD PUSH15 0x8EC2E8CAEEC2F2BE62F0E062C8607 PUSH1 0x8B SHL DUP2 MSTORE POP PUSH1 0x40 MLOAD DUP1 PUSH1 0x20 ADD PUSH1 0x40 MSTORE DUP1 PUSH1 0x0 DUP2 MSTORE POP PUSH1 0x40 MLOAD DUP1 PUSH1 0x40 ADD PUSH1 0x40 MSTORE DUP1 PUSH1 0x9 DUP2 MSTORE PUSH1 0x20 ADD PUSH9 0x536C757A62656E696B PUSH1 0xB8 SHL DUP2 MSTORE POP PUSH1 0x40 MLOAD DUP1 PUSH1 0x20 ADD PUSH1 0x40 MSTORE DUP1 PUSH1 0x0 DUP2 MSTORE POP PUSH1 0x40 MLOAD DUP1 PUSH1 0x20 ADD PUSH1 0x40 MSTORE DUP1 PUSH1 0x0 DUP2 MSTORE POP PUSH1 0x40 MLOAD DUP1 PUSH1 0x40 ADD PUSH1 0x40 MSTORE DUP1 PUSH1 0xA DUP2 MSTORE PUSH1 0x20 ADD PUSH10 0x18991799989799181919 PUSH1 0xB1 SHL DUP2 MSTORE POP PUSH3 0x5240 PUSH1 0x20 SHL PUSH1 0x20 SHR JUMP JUMPDEST PUSH1 0x40 DUP1 MLOAD PUSH1 0x80 DUP2 ADD DUP3 MSTORE PUSH1 0xD DUP2 DUP4 ADD SWAP1 DUP2 MSTORE PUSH13 0x115D995B9D17CC0D8D8D5B9E9D PUSH1 0x9A SHL PUSH1 0x60 DUP4 ADD MSTORE DUP2 MSTORE DUP2 MLOAD DUP1 DUP4 ADD SWAP1 SWAP3 MSTORE PUSH1 0x10 DUP3 MSTORE PUSH16 0x41637469766974795F31647269347133 PUSH1 0x80 SHL PUSH1 0x20 DUP4 DUP2 ADD SWAP2 SWAP1 SWAP2 MSTORE DUP1 DUP3 ADD SWAP3 SWAP1 SWAP3 MSTORE PUSH1 0x27 PUSH1 0x0 MSTORE PUSH1 0x3 SWAP1 SWAP2 MSTORE PUSH3 0x476F SWAP1 PUSH32 0x10F3A17841C6D818CCBB16E4596978865BB77BA586B583C9DE26B166E55DE864 SWAP1 PUSH1 0x2 PUSH3 0x546C JUMP JUMPDEST POP PUSH1 0x40 DUP1 MLOAD PUSH1 0x60 DUP2 ADD DUP3 MSTORE PUSH1 0x10 PUSH1 0x20 DUP1 DUP4 ADD SWAP2 DUP3 MSTORE PUSH16 0x41637469766974795F31366D666C7977 PUSH1 0x80 SHL SWAP4 DUP4 ADD SWAP4 SWAP1 SWAP4 MSTORE DUP2 MSTORE PUSH1 0x27 PUSH1 0x0 MSTORE PUSH1 0x4 SWAP1 SWAP2 MSTORE PUSH3 0x47DA SWAP1 PUSH32 0xAADED8C7CB956D25D285CBA29213C176EC5FC32F3996CB04804F6C9DC496EA72 SWAP1 PUSH1 0x1 PUSH3 0x53C8 JUMP JUMPDEST POP PUSH3 0x48B2 PUSH1 0x27 PUSH1 0x5 PUSH1 0x40 MLOAD DUP1 PUSH1 0x40 ADD PUSH1 0x40 MSTORE DUP1 PUSH1 0xF DUP2 MSTORE PUSH1 0x20 ADD PUSH15 0x476174657761795F31777A76306E37 PUSH1 0x88 SHL DUP2 MSTORE POP PUSH1 0x40 MLOAD DUP1 PUSH1 0x40 ADD PUSH1 0x40 MSTORE DUP1 PUSH1 0x1B DUP2 MSTORE PUSH1 0x20 ADD PUSH32 0x5B4461204A616E6520446F6520646F62726F20706F70756E696F3F0000000000 DUP2 MSTORE POP PUSH1 0x40 MLOAD DUP1 PUSH1 0x40 ADD PUSH1 0x40 MSTORE DUP1 PUSH1 0x9 DUP2 MSTORE PUSH1 0x20 ADD PUSH9 0x536C757A62656E696B PUSH1 0xB8 SHL DUP2 MSTORE POP PUSH1 0x40 MLOAD DUP1 PUSH1 0x20 ADD PUSH1 0x40 MSTORE DUP1 PUSH1 0x0 DUP2 MSTORE POP PUSH1 0x40 MLOAD DUP1 PUSH1 0x20 ADD PUSH1 0x40 MSTORE DUP1 PUSH1 0x0 DUP2 MSTORE POP PUSH1 0x40 MLOAD DUP1 PUSH1 0x40 ADD PUSH1 0x40 MSTORE DUP1 PUSH1 0xA DUP2 MSTORE PUSH1 0x20 ADD PUSH10 0x18991799989799181919 PUSH1 0xB1 SHL DUP2 MSTORE POP PUSH3 0x5240 PUSH1 0x20 SHL PUSH1 0x20 SHR JUMP JUMPDEST PUSH1 0x40 DUP1 MLOAD PUSH1 0x60 DUP2 ADD DUP3 MSTORE PUSH1 0xD PUSH1 0x20 DUP1 DUP4 ADD SWAP2 DUP3 MSTORE PUSH13 0x4576656E745F30636531383333 PUSH1 0x98 SHL SWAP4 DUP4 ADD SWAP4 SWAP1 SWAP4 MSTORE DUP2 MSTORE PUSH1 0x28 PUSH1 0x0 MSTORE PUSH1 0x3 SWAP1 SWAP2 MSTORE PUSH3 0x4919 SWAP1 PUSH32 0xF787D5FF306EE7EA1D7B35B5CACD5A837646921C113945DBC3A3B6329CE40033 SWAP1 PUSH1 0x1 PUSH3 0x53C8 JUMP JUMPDEST POP PUSH1 0x40 DUP1 MLOAD PUSH1 0x80 DUP2 ADD DUP3 MSTORE PUSH1 0x10 DUP2 DUP4 ADD DUP2 DUP2 MSTORE PUSH16 0x41637469766974795F31647269347133 PUSH1 0x80 SHL PUSH1 0x60 DUP5 ADD MSTORE DUP3 MSTORE DUP3 MLOAD DUP1 DUP5 ADD SWAP1 SWAP4 MSTORE DUP3 MSTORE PUSH16 0x41637469766974795F316A6E38737633 PUSH1 0x80 SHL PUSH1 0x20 DUP4 DUP2 ADD SWAP2 SWAP1 SWAP2 MSTORE DUP1 DUP3 ADD SWAP3 SWAP1 SWAP3 MSTORE PUSH1 0x28 PUSH1 0x0 MSTORE PUSH1 0x4 SWAP1 SWAP2 MSTORE PUSH3 0x49AE SWAP1 PUSH32 0x2B634DA6AB875D88498F503820D9B51F6EB10D3D2F378C32AEF2289B509F3DEF SWAP1 PUSH1 0x2 PUSH3 0x546C JUMP JUMPDEST POP PUSH3 0x4A60 PUSH1 0x28 PUSH1 0x5 PUSH1 0x40 MLOAD DUP1 PUSH1 0x40 ADD PUSH1 0x40 MSTORE DUP1 PUSH1 0xF DUP2 MSTORE PUSH1 0x20 ADD PUSH15 0x23B0BA32BBB0BCAF983A39B33719B1 PUSH1 0x89 SHL DUP2 MSTORE POP PUSH1 0x40 MLOAD DUP1 PUSH1 0x20 ADD PUSH1 0x40 MSTORE DUP1 PUSH1 0x0 DUP2 MSTORE POP PUSH1 0x40 MLOAD DUP1 PUSH1 0x40 ADD PUSH1 0x40 MSTORE DUP1 PUSH1 0x9 DUP2 MSTORE PUSH1 0x20 ADD PUSH9 0x536C757A62656E696B PUSH1 0xB8 SHL DUP2 MSTORE POP PUSH1 0x40 MLOAD DUP1 PUSH1 0x20 ADD PUSH1 0x40 MSTORE DUP1 PUSH1 0x0 DUP2 MSTORE POP PUSH1 0x40 MLOAD DUP1 PUSH1 0x20 ADD PUSH1 0x40 MSTORE DUP1 PUSH1 0x0 DUP2 MSTORE POP PUSH1 0x40 MLOAD DUP1 PUSH1 0x40 ADD PUSH1 0x40 MSTORE DUP1 PUSH1 0xA DUP2 MSTORE PUSH1 0x20 ADD PUSH10 0x18991799989799181919 PUSH1 0xB1 SHL DUP2 MSTORE POP PUSH3 0x5240 PUSH1 0x20 SHL PUSH1 0x20 SHR JUMP JUMPDEST PUSH1 0x40 DUP1 MLOAD PUSH1 0x80 DUP2 ADD DUP3 MSTORE PUSH1 0xD DUP2 DUP4 ADD DUP2 DUP2 MSTORE PUSH13 0x22BB32B73A2F98B39ABBBA37B1 PUSH1 0x99 SHL PUSH1 0x60 DUP5 ADD MSTORE DUP3 MSTORE DUP3 MLOAD DUP1 DUP5 ADD SWAP1 SWAP4 MSTORE DUP3 MSTORE PUSH13 0x4576656E745F3035776E76717 PUSH1 0x9C SHL PUSH1 0x20 DUP4 DUP2 ADD SWAP2 SWAP1 SWAP2 MSTORE DUP1 DUP3 ADD SWAP3 SWAP1 SWAP3 MSTORE PUSH1 0x29 PUSH1 0x0 MSTORE PUSH1 0x3 SWAP1 SWAP2 MSTORE PUSH3 0x4AEE SWAP1 PUSH32 0xA6D60D4FF1C38AE572157A43D1B8579039E4B4CC96E22C75C07379751785FE51 SWAP1 PUSH1 0x2 PUSH3 0x546C JUMP JUMPDEST POP PUSH1 0x40 DUP1 MLOAD PUSH1 0x60 DUP2 ADD DUP3 MSTORE PUSH1 0xD PUSH1 0x20 DUP1 DUP4 ADD SWAP2 DUP3 MSTORE PUSH13 0x4576656E745F30636531383333 PUSH1 0x98 SHL SWAP4 DUP4 ADD SWAP4 SWAP1 SWAP4 MSTORE DUP2 MSTORE PUSH1 0x29 PUSH1 0x0 MSTORE PUSH1 0x4 SWAP1 SWAP2 MSTORE PUSH3 0x4B56 SWAP1 PUSH32 0xDA151E1F1EB9B837D3DA35D08F1188BDCB6E944AA00AE0CC2FA12060555D939B SWAP1 PUSH1 0x1 PUSH3 0x53C8 JUMP JUMPDEST POP PUSH3 0x4C08 PUSH1 0x29 PUSH1 0x5 PUSH1 0x40 MLOAD DUP1 PUSH1 0x40 ADD PUSH1 0x40 MSTORE DUP1 PUSH1 0xF DUP2 MSTORE PUSH1 0x20 ADD PUSH15 0x476174657761795F303168726A706D PUSH1 0x88 SHL DUP2 MSTORE POP PUSH1 0x40 MLOAD DUP1 PUSH1 0x20 ADD PUSH1 0x40 MSTORE DUP1 PUSH1 0x0 DUP2 MSTORE POP PUSH1 0x40 MLOAD DUP1 PUSH1 0x40 ADD PUSH1 0x40 MSTORE DUP1 PUSH1 0x9 DUP2 MSTORE PUSH1 0x20 ADD PUSH9 0x536C757A62656E696B PUSH1 0xB8 SHL DUP2 MSTORE POP PUSH1 0x40 MLOAD DUP1 PUSH1 0x20 ADD PUSH1 0x40 MSTORE DUP1 PUSH1 0x0 DUP2 MSTORE POP PUSH1 0x40 MLOAD DUP1 PUSH1 0x20 ADD PUSH1 0x40 MSTORE DUP1 PUSH1 0x0 DUP2 MSTORE POP PUSH1 0x40 MLOAD DUP1 PUSH1 0x40 ADD PUSH1 0x40 MSTORE DUP1 PUSH1 0xA DUP2 MSTORE PUSH1 0x20 ADD PUSH10 0x18991799989799181919 PUSH1 0xB1 SHL DUP2 MSTORE POP PUSH3 0x5240 PUSH1 0x20 SHL PUSH1 0x20 SHR JUMP JUMPDEST PUSH1 0x40 DUP1 MLOAD PUSH1 0x80 DUP2 ADD DUP3 MSTORE PUSH1 0xD DUP2 DUP4 ADD SWAP1 DUP2 MSTORE PUSH13 0x22BB32B73A2F989ABBB8B6323D PUSH1 0x99 SHL PUSH1 0x60 DUP4 ADD MSTORE DUP2 MSTORE DUP2 MLOAD DUP1 DUP4 ADD SWAP1 SWAP3 MSTORE PUSH1 0x10 DUP3 MSTORE PUSH16 0x41637469766974795F31636F6474686D PUSH1 0x80 SHL PUSH1 0x20 DUP4 DUP2 ADD SWAP2 SWAP1 SWAP2 MSTORE DUP1 DUP3 ADD SWAP3 SWAP1 SWAP3 MSTORE PUSH1 0x2A PUSH1 0x0 MSTORE PUSH1 0x3 SWAP1 SWAP2 MSTORE PUSH3 0x4C9B SWAP1 PUSH32 0xFBEFD6DF65B5DA21E9F0DC3DA2DF6DC37BE71551086F5ABA2B0AD548C4758150 SWAP1 PUSH1 0x2 PUSH3 0x546C JUMP JUMPDEST POP PUSH1 0x40 DUP1 MLOAD PUSH1 0x60 DUP2 ADD DUP3 MSTORE PUSH1 0x10 PUSH1 0x20 DUP1 DUP4 ADD SWAP2 DUP3 MSTORE PUSH16 0x82C6E8D2ECD2E8F2BE60DCD6C8D6CCF PUSH1 0x83 SHL SWAP4 DUP4 ADD SWAP4 SWAP1 SWAP4 MSTORE DUP2 MSTORE PUSH1 0x2A PUSH1 0x0 MSTORE PUSH1 0x4 SWAP1 SWAP2 MSTORE PUSH3 0x4D06 SWAP1 PUSH32 0x4045736E0D6732881E3D4BD60E2EA0771CEE9B1FC6C317A33475D710474B9ADC SWAP1 PUSH1 0x1 PUSH3 0x53C8 JUMP JUMPDEST POP PUSH3 0x4DDD PUSH1 0x2A PUSH1 0x5 PUSH1 0x40 MLOAD DUP1 PUSH1 0x40 ADD PUSH1 0x40 MSTORE DUP1 PUSH1 0xF DUP2 MSTORE PUSH1 0x20 ADD PUSH15 0x476174657761795F306F796E383765 PUSH1 0x88 SHL DUP2 MSTORE POP PUSH1 0x40 MLOAD DUP1 PUSH1 0x40 ADD PUSH1 0x40 MSTORE DUP1 PUSH1 0x18 DUP2 MSTORE PUSH1 0x20 ADD PUSH32 0x5B4461204A616E6520446F6520737665207520726564753F0000000000000000 DUP2 MSTORE POP PUSH1 0x40 MLOAD DUP1 PUSH1 0x40 ADD PUSH1 0x40 MSTORE DUP1 PUSH1 0x8 DUP2 MSTORE PUSH1 0x20 ADD PUSH8 0x26B2B730B23D32B9 PUSH1 0xC1 SHL DUP2 MSTORE POP PUSH1 0x40 MLOAD DUP1 PUSH1 0x20 ADD PUSH1 0x40 MSTORE DUP1 PUSH1 0x0 DUP2 MSTORE POP PUSH1 0x40 MLOAD DUP1 PUSH1 0x20 ADD PUSH1 0x40 MSTORE DUP1 PUSH1 0x0 DUP2 MSTORE POP PUSH1 0x40 MLOAD DUP1 PUSH1 0x40 ADD PUSH1 0x40 MSTORE DUP1 PUSH1 0xA DUP2 MSTORE PUSH1 0x20 ADD PUSH10 0x18991799989799181919 PUSH1 0xB1 SHL DUP2 MSTORE POP PUSH3 0x5240 PUSH1 0x20 SHL PUSH1 0x20 SHR JUMP JUMPDEST PUSH1 0x40 DUP1 MLOAD PUSH1 0x60 DUP2 ADD DUP3 MSTORE PUSH1 0x10 PUSH1 0x20 DUP1 DUP4 ADD SWAP2 DUP3 MSTORE PUSH16 0x1058DD1A5D9A5D1E57CC18588C999CDD PUSH1 0x82 SHL SWAP4 DUP4 ADD SWAP4 SWAP1 SWAP4 MSTORE DUP2 MSTORE PUSH1 0x2B PUSH1 0x0 MSTORE PUSH1 0x3 SWAP1 SWAP2 MSTORE PUSH3 0x4E47 SWAP1 PUSH32 0x47BD603B2672149DF187087E649A417345C22EBC601AF252344B2472B5A5FEA8 SWAP1 PUSH1 0x1 PUSH3 0x53C8 JUMP JUMPDEST POP PUSH1 0x40 DUP1 MLOAD PUSH1 0x80 DUP2 ADD DUP3 MSTORE PUSH1 0x10 DUP2 DUP4 ADD DUP2 DUP2 MSTORE PUSH16 0x41637469766974795F30313468396F31 PUSH1 0x80 SHL PUSH1 0x60 DUP5 ADD MSTORE DUP3 MSTORE DUP3 MLOAD DUP1 DUP5 ADD SWAP1 SWAP4 MSTORE DUP3 MSTORE PUSH16 0x41637469766974795F316C6968666835 PUSH1 0x80 SHL PUSH1 0x20 DUP4 DUP2 ADD SWAP2 SWAP1 SWAP2 MSTORE DUP1 DUP3 ADD SWAP3 SWAP1 SWAP3 MSTORE PUSH1 0x2B PUSH1 0x0 MSTORE PUSH1 0x4 SWAP1 SWAP2 MSTORE PUSH3 0x4EDC SWAP1 PUSH32 0x90CDA500E35AAF03A1A434C6C35E405898EB7E8C3B95C3A697CD23106146040E SWAP1 PUSH1 0x2 PUSH3 0x546C JUMP JUMPDEST POP PUSH3 0x4F8E PUSH1 0x2B PUSH1 0x6 PUSH1 0x40 MLOAD DUP1 PUSH1 0x40 ADD PUSH1 0x40 MSTORE DUP1 PUSH1 0xF DUP2 MSTORE PUSH1 0x20 ADD PUSH15 0x476174657761795F307838647A7931 PUSH1 0x88 SHL DUP2 MSTORE POP PUSH1 0x40 MLOAD DUP1 PUSH1 0x20 ADD PUSH1 0x40 MSTORE DUP1 PUSH1 0x0 DUP2 MSTORE POP PUSH1 0x40 MLOAD DUP1 PUSH1 0x40 ADD PUSH1 0x40 MSTORE DUP1 PUSH1 0x9 DUP2 MSTORE PUSH1 0x20 ADD PUSH9 0x536C757A62656E696B PUSH1 0xB8 SHL DUP2 MSTORE POP PUSH1 0x40 MLOAD DUP1 PUSH1 0x20 ADD PUSH1 0x40 MSTORE DUP1 PUSH1 0x0 DUP2 MSTORE POP PUSH1 0x40 MLOAD DUP1 PUSH1 0x20 ADD PUSH1 0x40 MSTORE DUP1 PUSH1 0x0 DUP2 MSTORE POP PUSH1 0x40 MLOAD DUP1 PUSH1 0x40 ADD PUSH1 0x40 MSTORE DUP1 PUSH1 0xA DUP2 MSTORE PUSH1 0x20 ADD PUSH10 0x18991799989799181919 PUSH1 0xB1 SHL DUP2 MSTORE POP PUSH3 0x5240 PUSH1 0x20 SHL PUSH1 0x20 SHR JUMP JUMPDEST PUSH1 0x40 DUP1 MLOAD PUSH1 0x80 DUP2 ADD DUP3 MSTORE PUSH1 0x10 DUP2 DUP4 ADD DUP2 DUP2 MSTORE PUSH16 0x41637469766974795F30313468396F31 PUSH1 0x80 SHL PUSH1 0x60 DUP5 ADD MSTORE DUP3 MSTORE DUP3 MLOAD DUP1 DUP5 ADD SWAP1 SWAP4 MSTORE DUP3 MSTORE PUSH16 0x41637469766974795F316C6968666835 PUSH1 0x80 SHL PUSH1 0x20 DUP4 DUP2 ADD SWAP2 SWAP1 SWAP2 MSTORE DUP1 DUP3 ADD SWAP3 SWAP1 SWAP3 MSTORE PUSH1 0x2C PUSH1 0x0 MSTORE PUSH1 0x3 SWAP1 SWAP2 MSTORE PUSH3 0x5022 SWAP1 PUSH32 0x181EC19A0F957384E4ECBE9410E516AD0FE8CC3E53CAAC5FFC50EB11E64BF488 SWAP1 PUSH1 0x2 PUSH3 0x546C JUMP JUMPDEST POP PUSH1 0x40 DUP1 MLOAD PUSH1 0x60 DUP2 ADD DUP3 MSTORE PUSH1 0xD PUSH1 0x20 DUP1 DUP4 ADD SWAP2 DUP3 MSTORE PUSH13 0x4576656E745F3161696C687235 PUSH1 0x98 SHL SWAP4 DUP4 ADD SWAP4 SWAP1 SWAP4 MSTORE DUP2 MSTORE PUSH1 0x2C PUSH1 0x0 MSTORE PUSH1 0x4 SWAP1 SWAP2 MSTORE PUSH3 0x508A SWAP1 PUSH32 0xCEE00EF6983E77A7E1DB3B46722F66F35B443EDA730735F8D62CA455B3AED108 SWAP1 PUSH1 0x1 PUSH3 0x53C8 JUMP JUMPDEST POP PUSH3 0x513C PUSH1 0x2C PUSH1 0x6 PUSH1 0x40 MLOAD DUP1 PUSH1 0x40 ADD PUSH1 0x40 MSTORE DUP1 PUSH1 0xF DUP2 MSTORE PUSH1 0x20 ADD PUSH15 0x23B0BA32BBB0BCAF981C3A9AB73237 PUSH1 0x89 SHL DUP2 MSTORE POP PUSH1 0x40 MLOAD DUP1 PUSH1 0x20 ADD PUSH1 0x40 MSTORE DUP1 PUSH1 0x0 DUP2 MSTORE POP PUSH1 0x40 MLOAD DUP1 PUSH1 0x40 ADD PUSH1 0x40 MSTORE DUP1 PUSH1 0x9 DUP2 MSTORE PUSH1 0x20 ADD PUSH9 0x536C757A62656E696B PUSH1 0xB8 SHL DUP2 MSTORE POP PUSH1 0x40 MLOAD DUP1 PUSH1 0x20 ADD PUSH1 0x40 MSTORE DUP1 PUSH1 0x0 DUP2 MSTORE POP PUSH1 0x40 MLOAD DUP1 PUSH1 0x20 ADD PUSH1 0x40 MSTORE DUP1 PUSH1 0x0 DUP2 MSTORE POP PUSH1 0x40 MLOAD DUP1 PUSH1 0x40 ADD PUSH1 0x40 MSTORE DUP1 PUSH1 0xA DUP2 MSTORE PUSH1 0x20 ADD PUSH10 0x18991799989799181919 PUSH1 0xB1 SHL DUP2 MSTORE POP PUSH3 0x5240 PUSH1 0x20 SHL PUSH1 0x20 SHR JUMP JUMPDEST PUSH3 0x5736 JUMP JUMPDEST PUSH1 0x0 DUP2 PUSH1 0x1 PUSH1 0x1 PUSH1 0x40 SHL SUB DUP2 GT ISZERO PUSH3 0x515F JUMPI PUSH3 0x515F PUSH3 0x556F JUMP JUMPDEST PUSH1 0x40 MLOAD SWAP1 DUP1 DUP3 MSTORE DUP1 PUSH1 0x20 MUL PUSH1 0x20 ADD DUP3 ADD PUSH1 0x40 MSTORE DUP1 ISZERO PUSH3 0x5189 JUMPI DUP2 PUSH1 0x20 ADD PUSH1 0x20 DUP3 MUL DUP1 CALLDATASIZE DUP4 CALLDATACOPY ADD SWAP1 POP JUMPDEST POP SWAP1 POP PUSH1 0x0 JUMPDEST DUP3 DUP2 LT ISZERO PUSH3 0x51C2 JUMPI DUP1 DUP3 DUP3 DUP2 MLOAD DUP2 LT PUSH3 0x51AE JUMPI PUSH3 0x51AE PUSH3 0x5585 JUMP JUMPDEST PUSH1 0x20 SWAP1 DUP2 MUL SWAP2 SWAP1 SWAP2 ADD ADD MSTORE PUSH1 0x1 ADD PUSH3 0x518F JUMP JUMPDEST POP PUSH1 0x40 DUP1 MLOAD PUSH1 0x60 DUP2 ADD DUP3 MSTORE PUSH1 0x8 SLOAD DUP1 DUP3 MSTORE PUSH1 0x20 DUP1 DUP4 ADD DUP8 DUP2 MSTORE DUP4 DUP6 ADD DUP7 SWAP1 MSTORE PUSH1 0x0 SWAP3 DUP4 MSTORE SWAP1 DUP3 SWAP1 MSTORE SWAP3 SWAP1 KECCAK256 DUP2 MLOAD DUP2 SSTORE SWAP2 MLOAD SWAP1 SWAP2 SWAP1 PUSH1 0x1 DUP3 ADD SWAP1 PUSH3 0x5207 SWAP1 DUP3 PUSH3 0x562C JUMP JUMPDEST POP PUSH1 0x40 DUP3 ADD MLOAD DUP1 MLOAD PUSH3 0x5225 SWAP2 PUSH1 0x2 DUP5 ADD SWAP2 PUSH1 0x20 SWAP1 SWAP2 ADD SWAP1 PUSH3 0x54B7 JUMP JUMPDEST POP POP PUSH1 0x8 SLOAD PUSH3 0x5238 SWAP2 POP PUSH1 0x1 PUSH3 0x56F8 JUMP JUMPDEST PUSH1 0x8 SSTORE POP POP POP JUMP JUMPDEST PUSH1 0x40 MLOAD DUP1 PUSH2 0x100 ADD PUSH1 0x40 MSTORE DUP1 DUP10 DUP2 MSTORE PUSH1 0x20 ADD DUP9 PUSH1 0x7 DUP2 GT ISZERO PUSH3 0x5267 JUMPI PUSH3 0x5267 PUSH3 0x5720 JUMP JUMPDEST DUP2 MSTORE PUSH1 0x20 ADD DUP8 DUP2 MSTORE PUSH1 0x20 ADD DUP7 DUP2 MSTORE PUSH1 0x20 ADD DUP6 DUP2 MSTORE PUSH1 0x20 ADD DUP5 DUP2 MSTORE PUSH1 0x20 ADD DUP4 DUP2 MSTORE PUSH1 0x20 ADD DUP3 DUP2 MSTORE POP PUSH1 0x2 PUSH1 0x0 DUP11 DUP2 MSTORE PUSH1 0x20 ADD SWAP1 DUP2 MSTORE PUSH1 0x20 ADD PUSH1 0x0 KECCAK256 PUSH1 0x0 DUP3 ADD MLOAD DUP2 PUSH1 0x0 ADD SSTORE PUSH1 0x20 DUP3 ADD MLOAD DUP2 PUSH1 0x1 ADD PUSH1 0x0 PUSH2 0x100 EXP DUP2 SLOAD DUP2 PUSH1 0xFF MUL NOT AND SWAP1 DUP4 PUSH1 0x7 DUP2 GT ISZERO PUSH3 0x52D8 JUMPI PUSH3 0x52D8 PUSH3 0x5720 JUMP JUMPDEST MUL OR SWAP1 SSTORE POP PUSH1 0x40 DUP3 ADD MLOAD PUSH1 0x2 DUP3 ADD SWAP1 PUSH3 0x52F3 SWAP1 DUP3 PUSH3 0x562C JUMP JUMPDEST POP PUSH1 0x60 DUP3 ADD MLOAD PUSH1 0x3 DUP3 ADD SWAP1 PUSH3 0x530A SWAP1 DUP3 PUSH3 0x562C JUMP JUMPDEST POP PUSH1 0x80 DUP3 ADD MLOAD PUSH1 0x4 DUP3 ADD SWAP1 PUSH3 0x5321 SWAP1 DUP3 PUSH3 0x562C JUMP JUMPDEST POP PUSH1 0xA0 DUP3 ADD MLOAD PUSH1 0x5 DUP3 ADD SWAP1 PUSH3 0x5338 SWAP1 DUP3 PUSH3 0x562C JUMP JUMPDEST POP PUSH1 0xC0 DUP3 ADD MLOAD PUSH1 0x6 DUP3 ADD SWAP1 PUSH3 0x534F SWAP1 DUP3 PUSH3 0x562C JUMP JUMPDEST POP PUSH1 0xE0 DUP3 ADD MLOAD PUSH1 0x7 DUP3 ADD SWAP1 PUSH3 0x5366 SWAP1 DUP3 PUSH3 0x562C JUMP JUMPDEST POP POP POP POP POP POP POP POP POP POP POP JUMP JUMPDEST DUP3 DUP1 SLOAD DUP3 DUP3 SSTORE SWAP1 PUSH1 0x0 MSTORE PUSH1 0x20 PUSH1 0x0 KECCAK256 SWAP1 DUP2 ADD SWAP3 DUP3 ISZERO PUSH3 0x53B6 JUMPI SWAP2 PUSH1 0x20 MUL DUP3 ADD JUMPDEST DUP3 DUP2 GT ISZERO PUSH3 0x53B6 JUMPI DUP3 MLOAD DUP3 SWAP1 PUSH1 0xFF AND SWAP1 SSTORE SWAP2 PUSH1 0x20 ADD SWAP2 SWAP1 PUSH1 0x1 ADD SWAP1 PUSH3 0x5394 JUMP JUMPDEST POP PUSH3 0x53C4 SWAP3 SWAP2 POP PUSH3 0x54F5 JUMP JUMPDEST POP SWAP1 JUMP JUMPDEST DUP3 DUP1 SLOAD DUP3 DUP3 SSTORE SWAP1 PUSH1 0x0 MSTORE PUSH1 0x20 PUSH1 0x0 KECCAK256 SWAP1 DUP2 ADD SWAP3 DUP3 ISZERO PUSH3 0x5413 JUMPI SWAP2 PUSH1 0x20 MUL DUP3 ADD JUMPDEST DUP3 DUP2 GT ISZERO PUSH3 0x5413 JUMPI DUP3 MLOAD DUP3 SWAP1 PUSH3 0x5402 SWAP1 DUP3 PUSH3 0x562C JUMP JUMPDEST POP SWAP2 PUSH1 0x20 ADD SWAP2 SWAP1 PUSH1 0x1 ADD SWAP1 PUSH3 0x53E9 JUMP JUMPDEST POP PUSH3 0x53C4 SWAP3 SWAP2 POP PUSH3 0x550C JUMP JUMPDEST DUP3 DUP1 SLOAD DUP3 DUP3 SSTORE SWAP1 PUSH1 0x0 MSTORE PUSH1 0x20 PUSH1 0x0 KECCAK256 SWAP1 DUP2 ADD SWAP3 DUP3 ISZERO PUSH3 0x5413 JUMPI SWAP2 PUSH1 0x20 MUL DUP3 ADD JUMPDEST DUP3 DUP2 GT ISZERO PUSH3 0x5413 JUMPI DUP3 MLOAD DUP3 SWAP1 PUSH3 0x545B SWAP1 DUP3 PUSH3 0x562C JUMP JUMPDEST POP SWAP2 PUSH1 0x20 ADD SWAP2 SWAP1 PUSH1 0x1 ADD SWAP1 PUSH3 0x5442 JUMP JUMPDEST DUP3 DUP1 SLOAD DUP3 DUP3 SSTORE SWAP1 PUSH1 0x0 MSTORE PUSH1 0x20 PUSH1 0x0 KECCAK256 SWAP1 DUP2 ADD SWAP3 DUP3 ISZERO PUSH3 0x5413 JUMPI SWAP2 PUSH1 0x20 MUL DUP3 ADD JUMPDEST DUP3 DUP2 GT ISZERO PUSH3 0x5413 JUMPI DUP3 MLOAD DUP3 SWAP1 PUSH3 0x54A6 SWAP1 DUP3 PUSH3 0x562C JUMP JUMPDEST POP SWAP2 PUSH1 0x20 ADD SWAP2 SWAP1 PUSH1 0x1 ADD SWAP1 PUSH3 0x548D JUMP JUMPDEST DUP3 DUP1 SLOAD DUP3 DUP3 SSTORE SWAP1 PUSH1 0x0 MSTORE PUSH1 0x20 PUSH1 0x0 KECCAK256 SWAP1 DUP2 ADD SWAP3 DUP3 ISZERO PUSH3 0x53B6 JUMPI SWAP2 PUSH1 0x20 MUL DUP3 ADD JUMPDEST DUP3 DUP2 GT ISZERO PUSH3 0x53B6 JUMPI DUP3 MLOAD DUP3 SSTORE SWAP2 PUSH1 0x20 ADD SWAP2 SWAP1 PUSH1 0x1 ADD SWAP1 PUSH3 0x54D8 JUMP JUMPDEST JUMPDEST DUP1 DUP3 GT ISZERO PUSH3 0x53C4 JUMPI PUSH1 0x0 DUP2 SSTORE PUSH1 0x1 ADD PUSH3 0x54F6 JUMP JUMPDEST DUP1 DUP3 GT ISZERO PUSH3 0x53C4 JUMPI PUSH1 0x0 PUSH3 0x5523 DUP3 DUP3 PUSH3 0x552D JUMP JUMPDEST POP PUSH1 0x1 ADD PUSH3 0x550C JUMP JUMPDEST POP DUP1 SLOAD PUSH3 0x553B SWAP1 PUSH3 0x559B JUMP JUMPDEST PUSH1 0x0 DUP3 SSTORE DUP1 PUSH1 0x1F LT PUSH3 0x554C JUMPI POP POP JUMP JUMPDEST PUSH1 0x1F ADD PUSH1 0x20 SWAP1 DIV SWAP1 PUSH1 0x0 MSTORE PUSH1 0x20 PUSH1 0x0 KECCAK256 SWAP1 DUP2 ADD SWAP1 PUSH3 0x556C SWAP2 SWAP1 PUSH3 0x54F5 JUMP JUMPDEST POP JUMP JUMPDEST PUSH4 0x4E487B71 PUSH1 0xE0 SHL PUSH1 0x0 MSTORE PUSH1 0x41 PUSH1 0x4 MSTORE PUSH1 0x24 PUSH1 0x0 REVERT JUMPDEST PUSH4 0x4E487B71 PUSH1 0xE0 SHL PUSH1 0x0 MSTORE PUSH1 0x32 PUSH1 0x4 MSTORE PUSH1 0x24 PUSH1 0x0 REVERT JUMPDEST PUSH1 0x1 DUP2 DUP2 SHR SWAP1 DUP3 AND DUP1 PUSH3 0x55B0 JUMPI PUSH1 0x7F DUP3 AND SWAP2 POP JUMPDEST PUSH1 0x20 DUP3 LT DUP2 SUB PUSH3 0x55D1 JUMPI PUSH4 0x4E487B71 PUSH1 0xE0 SHL PUSH1 0x0 MSTORE PUSH1 0x22 PUSH1 0x4 MSTORE PUSH1 0x24 PUSH1 0x0 REVERT JUMPDEST POP SWAP2 SWAP1 POP JUMP JUMPDEST PUSH1 0x1F DUP3 GT ISZERO PUSH3 0x5627 JUMPI PUSH1 0x0 DUP2 PUSH1 0x0 MSTORE PUSH1 0x20 PUSH1 0x0 KECCAK256 PUSH1 0x1F DUP6 ADD PUSH1 0x5 SHR DUP2 ADD PUSH1 0x20 DUP7 LT ISZERO PUSH3 0x5602 JUMPI POP DUP1 JUMPDEST PUSH1 0x1F DUP6 ADD PUSH1 0x5 SHR DUP3 ADD SWAP2 POP JUMPDEST DUP2 DUP2 LT ISZERO PUSH3 0x5623 JUMPI DUP3 DUP2 SSTORE PUSH1 0x1 ADD PUSH3 0x560E JUMP JUMPDEST POP POP POP JUMPDEST POP POP POP JUMP JUMPDEST DUP2 MLOAD PUSH1 0x1 PUSH1 0x1 PUSH1 0x40 SHL SUB DUP2 GT ISZERO PUSH3 0x5648 JUMPI PUSH3 0x5648 PUSH3 0x556F JUMP JUMPDEST PUSH3 0x5660 DUP2 PUSH3 0x5659 DUP5 SLOAD PUSH3 0x559B JUMP JUMPDEST DUP5 PUSH3 0x55D7 JUMP JUMPDEST PUSH1 0x20 DUP1 PUSH1 0x1F DUP4 GT PUSH1 0x1 DUP2 EQ PUSH3 0x5698 JUMPI PUSH1 0x0 DUP5 ISZERO PUSH3 0x567F JUMPI POP DUP6 DUP4 ADD MLOAD JUMPDEST PUSH1 0x0 NOT PUSH1 0x3 DUP7 SWAP1 SHL SHR NOT AND PUSH1 0x1 DUP6 SWAP1 SHL OR DUP6 SSTORE PUSH3 0x5623 JUMP JUMPDEST PUSH1 0x0 DUP6 DUP2 MSTORE PUSH1 0x20 DUP2 KECCAK256 PUSH1 0x1F NOT DUP7 AND SWAP2 JUMPDEST DUP3 DUP2 LT ISZERO PUSH3 0x56C9 JUMPI DUP9 DUP7 ADD MLOAD DUP3 SSTORE SWAP5 DUP5 ADD SWAP5 PUSH1 0x1 SWAP1 SWAP2 ADD SWAP1 DUP5 ADD PUSH3 0x56A8 JUMP JUMPDEST POP DUP6 DUP3 LT ISZERO PUSH3 0x56E8 JUMPI DUP8 DUP6 ADD MLOAD PUSH1 0x0 NOT PUSH1 0x3 DUP9 SWAP1 SHL PUSH1 0xF8 AND SHR NOT AND DUP2 SSTORE JUMPDEST POP POP POP POP POP PUSH1 0x1 SWAP1 DUP2 SHL ADD SWAP1 SSTORE POP JUMP JUMPDEST DUP1 DUP3 ADD DUP1 DUP3 GT ISZERO PUSH3 0x571A JUMPI PUSH4 0x4E487B71 PUSH1 0xE0 SHL PUSH1 0x0 MSTORE PUSH1 0x11 PUSH1 0x4 MSTORE PUSH1 0x24 PUSH1 0x0 REVERT JUMPDEST SWAP3 SWAP2 POP POP JUMP JUMPDEST PUSH4 0x4E487B71 PUSH1 0xE0 SHL PUSH1 0x0 MSTORE PUSH1 0x21 PUSH1 0x4 MSTORE PUSH1 0x24 PUSH1 0x0 REVERT JUMPDEST PUSH2 0x333E DUP1 PUSH3 0x5746 PUSH1 0x0 CODECOPY PUSH1 0x0 RETURN INVALID PUSH1 0x80 PUSH1 0x40 MSTORE PUSH1 0x4 CALLDATASIZE LT PUSH2 0x14B JUMPI PUSH1 0x0 CALLDATALOAD PUSH1 0xE0 SHR DUP1 PUSH4 0x79A42D06 GT PUSH2 0xB6 JUMPI DUP1 PUSH4 0x98D46DFD GT PUSH2 0x6F JUMPI DUP1 PUSH4 0x98D46DFD EQ PUSH2 0x3EE JUMPI DUP1 PUSH4 0xA58603E0 EQ PUSH2 0x40E JUMPI DUP1 PUSH4 0xAF12A571 EQ PUSH2 0x42E JUMPI DUP1 PUSH4 0xBED34BBA EQ PUSH2 0x443 JUMPI DUP1 PUSH4 0xC29DE7CA EQ PUSH2 0x463 JUMPI DUP1 PUSH4 0xECD3645E EQ PUSH2 0x483 JUMPI PUSH1 0x0 DUP1 REVERT JUMPDEST DUP1 PUSH4 0x79A42D06 EQ PUSH2 0x332 JUMPI DUP1 PUSH4 0x86209B87 EQ PUSH2 0x348 JUMPI DUP1 PUSH4 0x86F61227 EQ PUSH2 0x37B JUMPI DUP1 PUSH4 0x94D55EAF EQ PUSH2 0x39B JUMPI DUP1 PUSH4 0x95755D17 EQ PUSH2 0x3BB JUMPI DUP1 PUSH4 0x97ADA366 EQ PUSH2 0x3CE JUMPI PUSH1 0x0 DUP1 REVERT JUMPDEST DUP1 PUSH4 0x3A3E8A95 GT PUSH2 0x108 JUMPI DUP1 PUSH4 0x3A3E8A95 EQ PUSH2 0x25F JUMPI DUP1 PUSH4 0x4B5AE077 EQ PUSH2 0x28E JUMPI DUP1 PUSH4 0x581CF028 EQ PUSH2 0x2A3 JUMPI DUP1 PUSH4 0x59B97B97 EQ PUSH2 0x2C3 JUMPI DUP1 PUSH4 0x5F03FACD EQ PUSH2 0x2E3 JUMPI DUP1 PUSH4 0x78660F5E EQ PUSH2 0x312 JUMPI PUSH1 0x0 DUP1 REVERT JUMPDEST DUP1 PUSH4 0x9BE70B2 EQ PUSH2 0x150 JUMPI DUP1 PUSH4 0xB09C8CE EQ PUSH2 0x17B JUMPI DUP1 PUSH4 0xD1657E8 EQ PUSH2 0x1BA JUMPI DUP1 PUSH4 0x11AE9ED2 EQ PUSH2 0x1EE JUMPI DUP1 PUSH4 0x19DFC19D EQ PUSH2 0x203 JUMPI DUP1 PUSH4 0x24A4DD94 EQ PUSH2 0x230 JUMPI JUMPDEST PUSH1 0x0 DUP1 REVERT JUMPDEST CALLVALUE DUP1 ISZERO PUSH2 0x15C JUMPI PUSH1 0x0 DUP1 REVERT JUMPDEST POP PUSH2 0x165 PUSH2 0x4A3 JUMP JUMPDEST PUSH1 0x40 MLOAD PUSH2 0x172 SWAP2 SWAP1 PUSH2 0x29B5 JUMP JUMPDEST PUSH1 0x40 MLOAD DUP1 SWAP2 SUB SWAP1 RETURN JUMPDEST CALLVALUE DUP1 ISZERO PUSH2 0x187 JUMPI PUSH1 0x0 DUP1 REVERT JUMPDEST POP PUSH2 0x1AA PUSH2 0x196 CALLDATASIZE PUSH1 0x4 PUSH2 0x29F9 JUMP JUMPDEST PUSH1 0x0 SWAP1 DUP2 MSTORE PUSH1 0x6 PUSH1 0x20 MSTORE PUSH1 0x40 SWAP1 KECCAK256 SLOAD ISZERO ISZERO SWAP1 JUMP JUMPDEST PUSH1 0x40 MLOAD SWAP1 ISZERO ISZERO DUP2 MSTORE PUSH1 0x20 ADD PUSH2 0x172 JUMP JUMPDEST CALLVALUE DUP1 ISZERO PUSH2 0x1C6 JUMPI PUSH1 0x0 DUP1 REVERT JUMPDEST POP PUSH2 0x1DA PUSH2 0x1D5 CALLDATASIZE PUSH1 0x4 PUSH2 0x29F9 JUMP JUMPDEST PUSH2 0x4FB JUMP JUMPDEST PUSH1 0x40 MLOAD PUSH2 0x172 SWAP9 SWAP8 SWAP7 SWAP6 SWAP5 SWAP4 SWAP3 SWAP2 SWAP1 PUSH2 0x2A78 JUMP JUMPDEST CALLVALUE DUP1 ISZERO PUSH2 0x1FA JUMPI PUSH1 0x0 DUP1 REVERT JUMPDEST POP PUSH2 0x165 PUSH2 0x871 JUMP JUMPDEST CALLVALUE DUP1 ISZERO PUSH2 0x20F JUMPI PUSH1 0x0 DUP1 REVERT JUMPDEST POP PUSH2 0x223 PUSH2 0x21E CALLDATASIZE PUSH1 0x4 PUSH2 0x2B29 JUMP JUMPDEST PUSH2 0x8C7 JUMP JUMPDEST PUSH1 0x40 MLOAD PUSH2 0x172 SWAP2 SWAP1 PUSH2 0x2B4B JUMP JUMPDEST CALLVALUE DUP1 ISZERO PUSH2 0x23C JUMPI PUSH1 0x0 DUP1 REVERT JUMPDEST POP PUSH2 0x1AA PUSH2 0x24B CALLDATASIZE PUSH1 0x4 PUSH2 0x29F9 JUMP JUMPDEST PUSH1 0x0 SWAP1 DUP2 MSTORE PUSH1 0x3 PUSH1 0x20 MSTORE PUSH1 0x40 SWAP1 KECCAK256 SLOAD ISZERO ISZERO SWAP1 JUMP JUMPDEST CALLVALUE DUP1 ISZERO PUSH2 0x26B JUMPI PUSH1 0x0 DUP1 REVERT JUMPDEST POP PUSH2 0x1AA PUSH2 0x27A CALLDATASIZE PUSH1 0x4 PUSH2 0x29F9 JUMP JUMPDEST PUSH1 0x0 SWAP1 DUP2 MSTORE PUSH1 0x4 PUSH1 0x20 MSTORE PUSH1 0x40 SWAP1 KECCAK256 SLOAD ISZERO ISZERO SWAP1 JUMP JUMPDEST PUSH2 0x2A1 PUSH2 0x29C CALLDATASIZE PUSH1 0x4 PUSH2 0x29F9 JUMP JUMPDEST PUSH2 0x980 JUMP JUMPDEST STOP JUMPDEST CALLVALUE DUP1 ISZERO PUSH2 0x2AF JUMPI PUSH1 0x0 DUP1 REVERT JUMPDEST POP PUSH2 0x223 PUSH2 0x2BE CALLDATASIZE PUSH1 0x4 PUSH2 0x2B29 JUMP JUMPDEST PUSH2 0xA14 JUMP JUMPDEST CALLVALUE DUP1 ISZERO PUSH2 0x2CF JUMPI PUSH1 0x0 DUP1 REVERT JUMPDEST POP PUSH2 0x1AA PUSH2 0x2DE CALLDATASIZE PUSH1 0x4 PUSH2 0x2BAC JUMP JUMPDEST PUSH2 0xA30 JUMP JUMPDEST CALLVALUE DUP1 ISZERO PUSH2 0x2EF JUMPI PUSH1 0x0 DUP1 REVERT JUMPDEST POP PUSH2 0x1AA PUSH2 0x2FE CALLDATASIZE PUSH1 0x4 PUSH2 0x29F9 JUMP JUMPDEST PUSH1 0x0 SWAP1 DUP2 MSTORE PUSH1 0x5 PUSH1 0x20 MSTORE PUSH1 0x40 SWAP1 KECCAK256 SLOAD ISZERO ISZERO SWAP1 JUMP JUMPDEST CALLVALUE DUP1 ISZERO PUSH2 0x31E JUMPI PUSH1 0x0 DUP1 REVERT JUMPDEST POP PUSH2 0x165 PUSH2 0x32D CALLDATASIZE PUSH1 0x4 PUSH2 0x29F9 JUMP JUMPDEST PUSH2 0xA7B JUMP JUMPDEST PUSH2 0x33A PUSH2 0xADE JUMP JUMPDEST PUSH1 0x40 MLOAD SWAP1 DUP2 MSTORE PUSH1 0x20 ADD PUSH2 0x172 JUMP JUMPDEST CALLVALUE DUP1 ISZERO PUSH2 0x354 JUMPI PUSH1 0x0 DUP1 REVERT JUMPDEST POP PUSH2 0x368 PUSH2 0x363 CALLDATASIZE PUSH1 0x4 PUSH2 0x29F9 JUMP JUMPDEST PUSH2 0xAF1 JUMP JUMPDEST PUSH1 0x40 MLOAD PUSH2 0x172 SWAP8 SWAP7 SWAP6 SWAP5 SWAP4 SWAP3 SWAP2 SWAP1 PUSH2 0x2C5E JUMP JUMPDEST CALLVALUE DUP1 ISZERO PUSH2 0x387 JUMPI PUSH1 0x0 DUP1 REVERT JUMPDEST POP PUSH2 0x223 PUSH2 0x396 CALLDATASIZE PUSH1 0x4 PUSH2 0x2CD9 JUMP JUMPDEST PUSH2 0xE29 JUMP JUMPDEST CALLVALUE DUP1 ISZERO PUSH2 0x3A7 JUMPI PUSH1 0x0 DUP1 REVERT JUMPDEST POP PUSH2 0x223 PUSH2 0x3B6 CALLDATASIZE PUSH1 0x4 PUSH2 0x2B29 JUMP JUMPDEST PUSH2 0xE42 JUMP JUMPDEST PUSH2 0x2A1 PUSH2 0x3C9 CALLDATASIZE PUSH1 0x4 PUSH2 0x2D72 JUMP JUMPDEST PUSH2 0xE5E JUMP JUMPDEST CALLVALUE DUP1 ISZERO PUSH2 0x3DA JUMPI PUSH1 0x0 DUP1 REVERT JUMPDEST POP PUSH2 0x33A PUSH2 0x3E9 CALLDATASIZE PUSH1 0x4 PUSH2 0x2E04 JUMP JUMPDEST PUSH2 0x106A JUMP JUMPDEST CALLVALUE DUP1 ISZERO PUSH2 0x3FA JUMPI PUSH1 0x0 DUP1 REVERT JUMPDEST POP PUSH2 0x2A1 PUSH2 0x409 CALLDATASIZE PUSH1 0x4 PUSH2 0x2E55 JUMP JUMPDEST PUSH2 0x10E2 JUMP JUMPDEST CALLVALUE DUP1 ISZERO PUSH2 0x41A JUMPI PUSH1 0x0 DUP1 REVERT JUMPDEST POP PUSH2 0x2A1 PUSH2 0x429 CALLDATASIZE PUSH1 0x4 PUSH2 0x2F66 JUMP JUMPDEST PUSH2 0x1203 JUMP JUMPDEST CALLVALUE DUP1 ISZERO PUSH2 0x43A JUMPI PUSH1 0x0 DUP1 REVERT JUMPDEST POP PUSH2 0x165 PUSH2 0x12F3 JUMP JUMPDEST CALLVALUE DUP1 ISZERO PUSH2 0x44F JUMPI PUSH1 0x0 DUP1 REVERT JUMPDEST POP PUSH2 0x1AA PUSH2 0x45E CALLDATASIZE PUSH1 0x4 PUSH2 0x2FAB JUMP JUMPDEST PUSH2 0x1349 JUMP JUMPDEST CALLVALUE DUP1 ISZERO PUSH2 0x46F JUMPI PUSH1 0x0 DUP1 REVERT JUMPDEST POP PUSH2 0x2A1 PUSH2 0x47E CALLDATASIZE PUSH1 0x4 PUSH2 0x2FAB JUMP JUMPDEST PUSH2 0x13A2 JUMP JUMPDEST CALLVALUE DUP1 ISZERO PUSH2 0x48F JUMPI PUSH1 0x0 DUP1 REVERT JUMPDEST POP PUSH2 0x223 PUSH2 0x49E CALLDATASIZE PUSH1 0x4 PUSH2 0x2B29 JUMP JUMPDEST PUSH2 0x15FB JUMP JUMPDEST PUSH1 0x60 PUSH1 0xA DUP1 SLOAD DUP1 PUSH1 0x20 MUL PUSH1 0x20 ADD PUSH1 0x40 MLOAD SWAP1 DUP2 ADD PUSH1 0x40 MSTORE DUP1 SWAP3 SWAP2 SWAP1 DUP2 DUP2 MSTORE PUSH1 0x20 ADD DUP3 DUP1 SLOAD DUP1 ISZERO PUSH2 0x4F1 JUMPI PUSH1 0x20 MUL DUP3 ADD SWAP2 SWAP1 PUSH1 0x0 MSTORE PUSH1 0x20 PUSH1 0x0 KECCAK256 SWAP1 JUMPDEST DUP2 SLOAD DUP2 MSTORE PUSH1 0x20 ADD SWAP1 PUSH1 0x1 ADD SWAP1 DUP1 DUP4 GT PUSH2 0x4DD JUMPI JUMPDEST POP POP POP POP POP SWAP1 POP SWAP1 JUMP JUMPDEST PUSH1 0x2 PUSH1 0x20 DUP2 SWAP1 MSTORE PUSH1 0x0 SWAP2 DUP3 MSTORE PUSH1 0x40 SWAP1 SWAP2 KECCAK256 DUP1 SLOAD PUSH1 0x1 DUP3 ADD SLOAD SWAP3 DUP3 ADD DUP1 SLOAD SWAP2 SWAP4 PUSH1 0xFF AND SWAP3 SWAP2 PUSH2 0x528 SWAP1 PUSH2 0x300F JUMP JUMPDEST DUP1 PUSH1 0x1F ADD PUSH1 0x20 DUP1 SWAP2 DIV MUL PUSH1 0x20 ADD PUSH1 0x40 MLOAD SWAP1 DUP2 ADD PUSH1 0x40 MSTORE DUP1 SWAP3 SWAP2 SWAP1 DUP2 DUP2 MSTORE PUSH1 0x20 ADD DUP3 DUP1 SLOAD PUSH2 0x554 SWAP1 PUSH2 0x300F JUMP JUMPDEST DUP1 ISZERO PUSH2 0x5A1 JUMPI DUP1 PUSH1 0x1F LT PUSH2 0x576 JUMPI PUSH2 0x100 DUP1 DUP4 SLOAD DIV MUL DUP4 MSTORE SWAP2 PUSH1 0x20 ADD SWAP2 PUSH2 0x5A1 JUMP JUMPDEST DUP3 ADD SWAP2 SWAP1 PUSH1 0x0 MSTORE PUSH1 0x20 PUSH1 0x0 KECCAK256 SWAP1 JUMPDEST DUP2 SLOAD DUP2 MSTORE SWAP1 PUSH1 0x1 ADD SWAP1 PUSH1 0x20 ADD DUP1 DUP4 GT PUSH2 0x584 JUMPI DUP3 SWAP1 SUB PUSH1 0x1F AND DUP3 ADD SWAP2 JUMPDEST POP POP POP POP POP SWAP1 DUP1 PUSH1 0x3 ADD DUP1 SLOAD PUSH2 0x5B6 SWAP1 PUSH2 0x300F JUMP JUMPDEST DUP1 PUSH1 0x1F ADD PUSH1 0x20 DUP1 SWAP2 DIV MUL PUSH1 0x20 ADD PUSH1 0x40 MLOAD SWAP1 DUP2 ADD PUSH1 0x40 MSTORE DUP1 SWAP3 SWAP2 SWAP1 DUP2 DUP2 MSTORE PUSH1 0x20 ADD DUP3 DUP1 SLOAD PUSH2 0x5E2 SWAP1 PUSH2 0x300F JUMP JUMPDEST DUP1 ISZERO PUSH2 0x62F JUMPI DUP1 PUSH1 0x1F LT PUSH2 0x604 JUMPI PUSH2 0x100 DUP1 DUP4 SLOAD DIV MUL DUP4 MSTORE SWAP2 PUSH1 0x20 ADD SWAP2 PUSH2 0x62F JUMP JUMPDEST DUP3 ADD SWAP2 SWAP1 PUSH1 0x0 MSTORE PUSH1 0x20 PUSH1 0x0 KECCAK256 SWAP1 JUMPDEST DUP2 SLOAD DUP2 MSTORE SWAP1 PUSH1 0x1 ADD SWAP1 PUSH1 0x20 ADD DUP1 DUP4 GT PUSH2 0x612 JUMPI DUP3 SWAP1 SUB PUSH1 0x1F AND DUP3 ADD SWAP2 JUMPDEST POP POP POP POP POP SWAP1 DUP1 PUSH1 0x4 ADD DUP1 SLOAD PUSH2 0x644 SWAP1 PUSH2 0x300F JUMP JUMPDEST DUP1 PUSH1 0x1F ADD PUSH1 0x20 DUP1 SWAP2 DIV MUL PUSH1 0x20 ADD PUSH1 0x40 MLOAD SWAP1 DUP2 ADD PUSH1 0x40 MSTORE DUP1 SWAP3 SWAP2 SWAP1 DUP2 DUP2 MSTORE PUSH1 0x20 ADD DUP3 DUP1 SLOAD PUSH2 0x670 SWAP1 PUSH2 0x300F JUMP JUMPDEST DUP1 ISZERO PUSH2 0x6BD JUMPI DUP1 PUSH1 0x1F LT PUSH2 0x692 JUMPI PUSH2 0x100 DUP1 DUP4 SLOAD DIV MUL DUP4 MSTORE SWAP2 PUSH1 0x20 ADD SWAP2 PUSH2 0x6BD JUMP JUMPDEST DUP3 ADD SWAP2 SWAP1 PUSH1 0x0 MSTORE PUSH1 0x20 PUSH1 0x0 KECCAK256 SWAP1 JUMPDEST DUP2 SLOAD DUP2 MSTORE SWAP1 PUSH1 0x1 ADD SWAP1 PUSH1 0x20 ADD DUP1 DUP4 GT PUSH2 0x6A0 JUMPI DUP3 SWAP1 SUB PUSH1 0x1F AND DUP3 ADD SWAP2 JUMPDEST POP POP POP POP POP SWAP1 DUP1 PUSH1 0x5 ADD DUP1 SLOAD PUSH2 0x6D2 SWAP1 PUSH2 0x300F JUMP JUMPDEST DUP1 PUSH1 0x1F ADD PUSH1 0x20 DUP1 SWAP2 DIV MUL PUSH1 0x20 ADD PUSH1 0x40 MLOAD SWAP1 DUP2 ADD PUSH1 0x40 MSTORE DUP1 SWAP3 SWAP2 SWAP1 DUP2 DUP2 MSTORE PUSH1 0x20 ADD DUP3 DUP1 SLOAD PUSH2 0x6FE SWAP1 PUSH2 0x300F JUMP JUMPDEST DUP1 ISZERO PUSH2 0x74B JUMPI DUP1 PUSH1 0x1F LT PUSH2 0x720 JUMPI PUSH2 0x100 DUP1 DUP4 SLOAD DIV MUL DUP4 MSTORE SWAP2 PUSH1 0x20 ADD SWAP2 PUSH2 0x74B JUMP JUMPDEST DUP3 ADD SWAP2 SWAP1 PUSH1 0x0 MSTORE PUSH1 0x20 PUSH1 0x0 KECCAK256 SWAP1 JUMPDEST DUP2 SLOAD DUP2 MSTORE SWAP1 PUSH1 0x1 ADD SWAP1 PUSH1 0x20 ADD DUP1 DUP4 GT PUSH2 0x72E JUMPI DUP3 SWAP1 SUB PUSH1 0x1F AND DUP3 ADD SWAP2 JUMPDEST POP POP POP POP POP SWAP1 DUP1 PUSH1 0x6 ADD DUP1 SLOAD PUSH2 0x760 SWAP1 PUSH2 0x300F JUMP JUMPDEST DUP1 PUSH1 0x1F ADD PUSH1 0x20 DUP1 SWAP2 DIV MUL PUSH1 0x20 ADD PUSH1 0x40 MLOAD SWAP1 DUP2 ADD PUSH1 0x40 MSTORE DUP1 SWAP3 SWAP2 SWAP1 DUP2 DUP2 MSTORE PUSH1 0x20 ADD DUP3 DUP1 SLOAD PUSH2 0x78C SWAP1 PUSH2 0x300F JUMP JUMPDEST DUP1 ISZERO PUSH2 0x7D9 JUMPI DUP1 PUSH1 0x1F LT PUSH2 0x7AE JUMPI PUSH2 0x100 DUP1 DUP4 SLOAD DIV MUL DUP4 MSTORE SWAP2 PUSH1 0x20 ADD SWAP2 PUSH2 0x7D9 JUMP JUMPDEST DUP3 ADD SWAP2 SWAP1 PUSH1 0x0 MSTORE PUSH1 0x20 PUSH1 0x0 KECCAK256 SWAP1 JUMPDEST DUP2 SLOAD DUP2 MSTORE SWAP1 PUSH1 0x1 ADD SWAP1 PUSH1 0x20 ADD DUP1 DUP4 GT PUSH2 0x7BC JUMPI DUP3 SWAP1 SUB PUSH1 0x1F AND DUP3 ADD SWAP2 JUMPDEST POP POP POP POP POP SWAP1 DUP1 PUSH1 0x7 ADD DUP1 SLOAD PUSH2 0x7EE SWAP1 PUSH2 0x300F JUMP JUMPDEST DUP1 PUSH1 0x1F ADD PUSH1 0x20 DUP1 SWAP2 DIV MUL PUSH1 0x20 ADD PUSH1 0x40 MLOAD SWAP1 DUP2 ADD PUSH1 0x40 MSTORE DUP1 SWAP3 SWAP2 SWAP1 DUP2 DUP2 MSTORE PUSH1 0x20 ADD DUP3 DUP1 SLOAD PUSH2 0x81A SWAP1 PUSH2 0x300F JUMP JUMPDEST DUP1 ISZERO PUSH2 0x867 JUMPI DUP1 PUSH1 0x1F LT PUSH2 0x83C JUMPI PUSH2 0x100 DUP1 DUP4 SLOAD DIV MUL DUP4 MSTORE SWAP2 PUSH1 0x20 ADD SWAP2 PUSH2 0x867 JUMP JUMPDEST DUP3 ADD SWAP2 SWAP1 PUSH1 0x0 MSTORE PUSH1 0x20 PUSH1 0x0 KECCAK256 SWAP1 JUMPDEST DUP2 SLOAD DUP2 MSTORE SWAP1 PUSH1 0x1 ADD SWAP1 PUSH1 0x20 ADD DUP1 DUP4 GT PUSH2 0x84A JUMPI DUP3 SWAP1 SUB PUSH1 0x1F AND DUP3 ADD SWAP2 JUMPDEST POP POP POP POP POP SWAP1 POP DUP9 JUMP JUMPDEST PUSH1 0x60 PUSH1 0xB DUP1 SLOAD DUP1 PUSH1 0x20 MUL PUSH1 0x20 ADD PUSH1 0x40 MLOAD SWAP1 DUP2 ADD PUSH1 0x40 MSTORE DUP1 SWAP3 SWAP2 SWAP1 DUP2 DUP2 MSTORE PUSH1 0x20 ADD DUP3 DUP1 SLOAD DUP1 ISZERO PUSH2 0x4F1 JUMPI PUSH1 0x20 MUL DUP3 ADD SWAP2 SWAP1 PUSH1 0x0 MSTORE PUSH1 0x20 PUSH1 0x0 KECCAK256 SWAP1 DUP2 SLOAD DUP2 MSTORE PUSH1 0x20 ADD SWAP1 PUSH1 0x1 ADD SWAP1 DUP1 DUP4 GT PUSH2 0x4DD JUMPI POP POP POP POP POP SWAP1 POP SWAP1 JUMP JUMPDEST PUSH1 0x3 PUSH1 0x20 MSTORE DUP2 PUSH1 0x0 MSTORE PUSH1 0x40 PUSH1 0x0 KECCAK256 DUP2 DUP2 SLOAD DUP2 LT PUSH2 0x8E3 JUMPI PUSH1 0x0 DUP1 REVERT JUMPDEST SWAP1 PUSH1 0x0 MSTORE PUSH1 0x20 PUSH1 0x0 KECCAK256 ADD PUSH1 0x0 SWAP2 POP SWAP2 POP POP DUP1 SLOAD PUSH2 0x8FF SWAP1 PUSH2 0x300F JUMP JUMPDEST DUP1 PUSH1 0x1F ADD PUSH1 0x20 DUP1 SWAP2 DIV MUL PUSH1 0x20 ADD PUSH1 0x40 MLOAD SWAP1 DUP2 ADD PUSH1 0x40 MSTORE DUP1 SWAP3 SWAP2 SWAP1 DUP2 DUP2 MSTORE PUSH1 0x20 ADD DUP3 DUP1 SLOAD PUSH2 0x92B SWAP1 PUSH2 0x300F JUMP JUMPDEST DUP1 ISZERO PUSH2 0x978 JUMPI DUP1 PUSH1 0x1F LT PUSH2 0x94D JUMPI PUSH2 0x100 DUP1 DUP4 SLOAD DIV MUL DUP4 MSTORE SWAP2 PUSH1 0x20 ADD SWAP2 PUSH2 0x978 JUMP JUMPDEST DUP3 ADD SWAP2 SWAP1 PUSH1 0x0 MSTORE PUSH1 0x20 PUSH1 0x0 KECCAK256 SWAP1 JUMPDEST DUP2 SLOAD DUP2 MSTORE SWAP1 PUSH1 0x1 ADD SWAP1 PUSH1 0x20 ADD DUP1 DUP4 GT PUSH2 0x95B JUMPI DUP3 SWAP1 SUB PUSH1 0x1F AND DUP3 ADD SWAP2 JUMPDEST POP POP POP POP POP DUP2 JUMP JUMPDEST PUSH1 0x0 PUSH2 0x98C PUSH1 0x0 PUSH2 0xA7B JUMP JUMPDEST PUSH1 0x0 DUP4 DUP2 MSTORE PUSH1 0x5 PUSH1 0x20 SWAP1 DUP2 MSTORE PUSH1 0x40 DUP1 DUP4 KECCAK256 SLOAD PUSH1 0x2 SWAP3 DUP4 SWAP1 MSTORE SWAP1 DUP4 KECCAK256 PUSH1 0x1 ADD SLOAD SWAP4 SWAP5 POP ISZERO ISZERO SWAP3 PUSH1 0xFF AND PUSH1 0x7 DUP2 GT ISZERO PUSH2 0x9C5 JUMPI PUSH2 0x9C5 PUSH2 0x2A12 JUMP JUMPDEST EQ SWAP1 POP DUP2 PUSH2 0x9DC JUMPI PUSH2 0x9D7 DUP5 DUP5 PUSH2 0x1617 JUMP JUMPDEST PUSH2 0xA04 JUMP JUMPDEST DUP2 DUP1 ISZERO PUSH2 0x9E6 JUMPI POP DUP1 JUMPDEST ISZERO PUSH2 0x9F5 JUMPI PUSH2 0x9D7 DUP5 DUP5 PUSH2 0x16FB JUMP JUMPDEST DUP1 PUSH2 0xA04 JUMPI PUSH2 0xA04 DUP5 DUP5 PUSH2 0x1617 JUMP JUMPDEST PUSH2 0xA0E DUP5 DUP5 PUSH2 0x1719 JUMP JUMPDEST POP POP POP POP JUMP JUMPDEST PUSH1 0x5 PUSH1 0x20 MSTORE DUP2 PUSH1 0x0 MSTORE PUSH1 0x40 PUSH1 0x0 KECCAK256 DUP2 DUP2 SLOAD DUP2 LT PUSH2 0x8E3 JUMPI PUSH1 0x0 DUP1 REVERT JUMPDEST PUSH1 0x0 DUP1 JUMPDEST DUP3 MLOAD DUP2 LT ISZERO PUSH2 0xA6F JUMPI DUP4 DUP4 DUP3 DUP2 MLOAD DUP2 LT PUSH2 0xA50 JUMPI PUSH2 0xA50 PUSH2 0x3049 JUMP JUMPDEST PUSH1 0x20 MUL PUSH1 0x20 ADD ADD MLOAD SUB PUSH2 0xA67 JUMPI PUSH1 0x1 SWAP2 POP POP PUSH2 0xA75 JUMP JUMPDEST PUSH1 0x1 ADD PUSH2 0xA34 JUMP JUMPDEST POP PUSH1 0x0 SWAP1 POP JUMPDEST SWAP3 SWAP2 POP POP JUMP JUMPDEST PUSH1 0x0 DUP2 DUP2 MSTORE PUSH1 0x20 DUP2 DUP2 MSTORE PUSH1 0x40 SWAP2 DUP3 SWAP1 KECCAK256 PUSH1 0x2 ADD DUP1 SLOAD DUP4 MLOAD DUP2 DUP5 MUL DUP2 ADD DUP5 ADD SWAP1 SWAP5 MSTORE DUP1 DUP5 MSTORE PUSH1 0x60 SWAP4 SWAP3 DUP4 ADD DUP3 DUP3 DUP1 ISZERO PUSH2 0xAD2 JUMPI PUSH1 0x20 MUL DUP3 ADD SWAP2 SWAP1 PUSH1 0x0 MSTORE PUSH1 0x20 PUSH1 0x0 KECCAK256 SWAP1 JUMPDEST DUP2 SLOAD DUP2 MSTORE PUSH1 0x20 ADD SWAP1 PUSH1 0x1 ADD SWAP1 DUP1 DUP4 GT PUSH2 0xABE JUMPI JUMPDEST POP POP POP POP POP SWAP1 POP SWAP2 SWAP1 POP JUMP JUMPDEST PUSH1 0x0 PUSH2 0xAEB PUSH1 0xA DUP3 PUSH2 0x2937 JUMP JUMPDEST POP PUSH1 0x0 SWAP1 JUMP JUMPDEST PUSH1 0x0 DUP2 DUP2 MSTORE PUSH1 0x2 PUSH1 0x20 MSTORE PUSH1 0x40 DUP2 KECCAK256 DUP1 SLOAD PUSH1 0x1 SWAP1 SWAP2 ADD SLOAD DUP3 SWAP2 PUSH1 0x60 SWAP2 DUP3 SWAP2 DUP3 SWAP2 DUP3 SWAP2 DUP3 SWAP2 PUSH1 0xFF AND PUSH1 0x7 DUP2 GT ISZERO PUSH2 0xB28 JUMPI PUSH2 0xB28 PUSH2 0x2A12 JUMP JUMPDEST PUSH1 0x0 DUP11 DUP2 MSTORE PUSH1 0x2 PUSH1 0x20 DUP2 SWAP1 MSTORE PUSH1 0x40 SWAP1 SWAP2 KECCAK256 SWAP1 DUP2 ADD DUP1 SLOAD SWAP1 SWAP2 PUSH1 0x3 DUP2 ADD SWAP2 PUSH1 0x5 DUP3 ADD SWAP2 PUSH1 0x6 DUP2 ADD SWAP2 PUSH1 0x4 SWAP1 SWAP2 ADD SWAP1 DUP6 SWAP1 PUSH2 0xB60 SWAP1 PUSH2 0x300F JUMP JUMPDEST DUP1 PUSH1 0x1F ADD PUSH1 0x20 DUP1 SWAP2 DIV MUL PUSH1 0x20 ADD PUSH1 0x40 MLOAD SWAP1 DUP2 ADD PUSH1 0x40 MSTORE DUP1 SWAP3 SWAP2 SWAP1 DUP2 DUP2 MSTORE PUSH1 0x20 ADD DUP3 DUP1 SLOAD PUSH2 0xB8C SWAP1 PUSH2 0x300F JUMP JUMPDEST DUP1 ISZERO PUSH2 0xBD9 JUMPI DUP1 PUSH1 0x1F LT PUSH2 0xBAE JUMPI PUSH2 0x100 DUP1 DUP4 SLOAD DIV MUL DUP4 MSTORE SWAP2 PUSH1 0x20 ADD SWAP2 PUSH2 0xBD9 JUMP JUMPDEST DUP3 ADD SWAP2 SWAP1 PUSH1 0x0 MSTORE PUSH1 0x20 PUSH1 0x0 KECCAK256 SWAP1 JUMPDEST DUP2 SLOAD DUP2 MSTORE SWAP1 PUSH1 0x1 ADD SWAP1 PUSH1 0x20 ADD DUP1 DUP4 GT PUSH2 0xBBC JUMPI DUP3 SWAP1 SUB PUSH1 0x1F AND DUP3 ADD SWAP2 JUMPDEST POP POP POP POP POP SWAP5 POP DUP4 DUP1 SLOAD PUSH2 0xBEC SWAP1 PUSH2 0x300F JUMP JUMPDEST DUP1 PUSH1 0x1F ADD PUSH1 0x20 DUP1 SWAP2 DIV MUL PUSH1 0x20 ADD PUSH1 0x40 MLOAD SWAP1 DUP2 ADD PUSH1 0x40 MSTORE DUP1 SWAP3 SWAP2 SWAP1 DUP2 DUP2 MSTORE PUSH1 0x20 ADD DUP3 DUP1 SLOAD PUSH2 0xC18 SWAP1 PUSH2 0x300F JUMP JUMPDEST DUP1 ISZERO PUSH2 0xC65 JUMPI DUP1 PUSH1 0x1F LT PUSH2 0xC3A JUMPI PUSH2 0x100 DUP1 DUP4 SLOAD DIV MUL DUP4 MSTORE SWAP2 PUSH1 0x20 ADD SWAP2 PUSH2 0xC65 JUMP JUMPDEST DUP3 ADD SWAP2 SWAP1 PUSH1 0x0 MSTORE PUSH1 0x20 PUSH1 0x0 KECCAK256 SWAP1 JUMPDEST DUP2 SLOAD DUP2 MSTORE SWAP1 PUSH1 0x1 ADD SWAP1 PUSH1 0x20 ADD DUP1 DUP4 GT PUSH2 0xC48 JUMPI DUP3 SWAP1 SUB PUSH1 0x1F AND DUP3 ADD SWAP2 JUMPDEST POP POP POP POP POP SWAP4 POP DUP3 DUP1 SLOAD PUSH2 0xC78 SWAP1 PUSH2 0x300F JUMP JUMPDEST DUP1 PUSH1 0x1F ADD PUSH1 0x20 DUP1 SWAP2 DIV MUL PUSH1 0x20 ADD PUSH1 0x40 MLOAD SWAP1 DUP2 ADD PUSH1 0x40 MSTORE DUP1 SWAP3 SWAP2 SWAP1 DUP2 DUP2 MSTORE PUSH1 0x20 ADD DUP3 DUP1 SLOAD PUSH2 0xCA4 SWAP1 PUSH2 0x300F JUMP JUMPDEST DUP1 ISZERO PUSH2 0xCF1 JUMPI DUP1 PUSH1 0x1F LT PUSH2 0xCC6 JUMPI PUSH2 0x100 DUP1 DUP4 SLOAD DIV MUL DUP4 MSTORE SWAP2 PUSH1 0x20 ADD SWAP2 PUSH2 0xCF1 JUMP JUMPDEST DUP3 ADD SWAP2 SWAP1 PUSH1 0x0 MSTORE PUSH1 0x20 PUSH1 0x0 KECCAK256 SWAP1 JUMPDEST DUP2 SLOAD DUP2 MSTORE SWAP1 PUSH1 0x1 ADD SWAP1 PUSH1 0x20 ADD DUP1 DUP4 GT PUSH2 0xCD4 JUMPI DUP3 SWAP1 SUB PUSH1 0x1F AND DUP3 ADD SWAP2 JUMPDEST POP POP POP POP POP SWAP3 POP DUP2 DUP1 SLOAD PUSH2 0xD04 SWAP1 PUSH2 0x300F JUMP JUMPDEST DUP1 PUSH1 0x1F ADD PUSH1 0x20 DUP1 SWAP2 DIV MUL PUSH1 0x20 ADD PUSH1 0x40 MLOAD SWAP1 DUP2 ADD PUSH1 0x40 MSTORE DUP1 SWAP3 SWAP2 SWAP1 DUP2 DUP2 MSTORE PUSH1 0x20 ADD DUP3 DUP1 SLOAD PUSH2 0xD30 SWAP1 PUSH2 0x300F JUMP JUMPDEST DUP1 ISZERO PUSH2 0xD7D JUMPI DUP1 PUSH1 0x1F LT PUSH2 0xD52 JUMPI PUSH2 0x100 DUP1 DUP4 SLOAD DIV MUL DUP4 MSTORE SWAP2 PUSH1 0x20 ADD SWAP2 PUSH2 0xD7D JUMP JUMPDEST DUP3 ADD SWAP2 SWAP1 PUSH1 0x0 MSTORE PUSH1 0x20 PUSH1 0x0 KECCAK256 SWAP1 JUMPDEST DUP2 SLOAD DUP2 MSTORE SWAP1 PUSH1 0x1 ADD SWAP1 PUSH1 0x20 ADD DUP1 DUP4 GT PUSH2 0xD60 JUMPI DUP3 SWAP1 SUB PUSH1 0x1F AND DUP3 ADD SWAP2 JUMPDEST POP POP POP POP POP SWAP2 POP DUP1 DUP1 SLOAD PUSH2 0xD90 SWAP1 PUSH2 0x300F JUMP JUMPDEST DUP1 PUSH1 0x1F ADD PUSH1 0x20 DUP1 SWAP2 DIV MUL PUSH1 0x20 ADD PUSH1 0x40 MLOAD SWAP1 DUP2 ADD PUSH1 0x40 MSTORE DUP1 SWAP3 SWAP2 SWAP1 DUP2 DUP2 MSTORE PUSH1 0x20 ADD DUP3 DUP1 SLOAD PUSH2 0xDBC SWAP1 PUSH2 0x300F JUMP JUMPDEST DUP1 ISZERO PUSH2 0xE09 JUMPI DUP1 PUSH1 0x1F LT PUSH2 0xDDE JUMPI PUSH2 0x100 DUP1 DUP4 SLOAD DIV MUL DUP4 MSTORE SWAP2 PUSH1 0x20 ADD SWAP2 PUSH2 0xE09 JUMP JUMPDEST DUP3 ADD SWAP2 SWAP1 PUSH1 0x0 MSTORE PUSH1 0x20 PUSH1 0x0 KECCAK256 SWAP1 JUMPDEST DUP2 SLOAD DUP2 MSTORE SWAP1 PUSH1 0x1 ADD SWAP1 PUSH1 0x20 ADD DUP1 DUP4 GT PUSH2 0xDEC JUMPI DUP3 SWAP1 SUB PUSH1 0x1F AND DUP3 ADD SWAP2 JUMPDEST POP POP POP POP POP SWAP1 POP SWAP7 POP SWAP7 POP SWAP7 POP SWAP7 POP SWAP7 POP SWAP7 POP SWAP7 POP SWAP2 SWAP4 SWAP6 SWAP8 SWAP1 SWAP3 SWAP5 SWAP7 POP JUMP JUMPDEST PUSH1 0x1 PUSH1 0x20 MSTORE PUSH1 0x0 SWAP1 DUP2 MSTORE PUSH1 0x40 SWAP1 KECCAK256 DUP1 SLOAD PUSH2 0x8FF SWAP1 PUSH2 0x300F JUMP JUMPDEST PUSH1 0x4 PUSH1 0x20 MSTORE DUP2 PUSH1 0x0 MSTORE PUSH1 0x40 PUSH1 0x0 KECCAK256 DUP2 DUP2 SLOAD DUP2 LT PUSH2 0x8E3 JUMPI PUSH1 0x0 DUP1 REVERT JUMPDEST PUSH1 0x0 DUP5 DUP2 MSTORE PUSH1 0x2 PUSH1 0x20 MSTORE PUSH1 0x40 SWAP1 KECCAK256 PUSH1 0x4 ADD DUP1 SLOAD PUSH2 0xF03 SWAP2 DUP6 SWAP2 PUSH2 0xE80 SWAP1 PUSH2 0x300F JUMP JUMPDEST DUP1 PUSH1 0x1F ADD PUSH1 0x20 DUP1 SWAP2 DIV MUL PUSH1 0x20 ADD PUSH1 0x40 MLOAD SWAP1 DUP2 ADD PUSH1 0x40 MSTORE DUP1 SWAP3 SWAP2 SWAP1 DUP2 DUP2 MSTORE PUSH1 0x20 ADD DUP3 DUP1 SLOAD PUSH2 0xEAC SWAP1 PUSH2 0x300F JUMP JUMPDEST DUP1 ISZERO PUSH2 0xEF9 JUMPI DUP1 PUSH1 0x1F LT PUSH2 0xECE JUMPI PUSH2 0x100 DUP1 DUP4 SLOAD DIV MUL DUP4 MSTORE SWAP2 PUSH1 0x20 ADD SWAP2 PUSH2 0xEF9 JUMP JUMPDEST DUP3 ADD SWAP2 SWAP1 PUSH1 0x0 MSTORE PUSH1 0x20 PUSH1 0x0 KECCAK256 SWAP1 JUMPDEST DUP2 SLOAD DUP2 MSTORE SWAP1 PUSH1 0x1 ADD SWAP1 PUSH1 0x20 ADD DUP1 DUP4 GT PUSH2 0xEDC JUMPI DUP3 SWAP1 SUB PUSH1 0x1F AND DUP3 ADD SWAP2 JUMPDEST POP POP POP POP POP PUSH2 0x1349 JUMP JUMPDEST PUSH2 0xF0C JUMPI PUSH1 0x0 DUP1 REVERT JUMPDEST PUSH1 0x0 DUP5 DUP2 MSTORE PUSH1 0x2 PUSH1 0x20 MSTORE PUSH1 0x40 SWAP1 KECCAK256 PUSH1 0x1 ADD SLOAD PUSH2 0xF2A SWAP1 PUSH1 0xFF AND PUSH2 0x1760 JUMP JUMPDEST PUSH2 0xF33 JUMPI PUSH1 0x0 DUP1 REVERT JUMPDEST PUSH1 0x0 PUSH1 0xA DUP6 DUP2 SLOAD DUP2 LT PUSH2 0xF48 JUMPI PUSH2 0xF48 PUSH2 0x3049 JUMP JUMPDEST SWAP1 PUSH1 0x0 MSTORE PUSH1 0x20 PUSH1 0x0 KECCAK256 ADD SLOAD PUSH1 0x1 EQ SWAP1 POP PUSH1 0x0 PUSH1 0xB DUP7 DUP2 SLOAD DUP2 LT PUSH2 0xF6D JUMPI PUSH2 0xF6D PUSH2 0x3049 JUMP JUMPDEST SWAP1 PUSH1 0x0 MSTORE PUSH1 0x20 PUSH1 0x0 KECCAK256 ADD SLOAD PUSH1 0x1 EQ SWAP1 POP DUP2 DUP1 PUSH2 0xF86 JUMPI POP DUP1 JUMPDEST ISZERO PUSH2 0x1062 JUMPI PUSH1 0x5 PUSH1 0x0 DUP8 DUP2 MSTORE PUSH1 0x2 PUSH1 0x20 MSTORE PUSH1 0x40 SWAP1 KECCAK256 PUSH1 0x1 ADD SLOAD PUSH1 0xFF AND PUSH1 0x7 DUP2 GT ISZERO PUSH2 0xFB3 JUMPI PUSH2 0xFB3 PUSH2 0x2A12 JUMP JUMPDEST SUB PUSH2 0xFC6 JUMPI PUSH2 0xFC1 DUP7 PUSH2 0x1823 JUMP JUMPDEST PUSH2 0x1007 JUMP JUMPDEST PUSH1 0x6 PUSH1 0x0 DUP8 DUP2 MSTORE PUSH1 0x2 PUSH1 0x20 MSTORE PUSH1 0x40 SWAP1 KECCAK256 PUSH1 0x1 ADD SLOAD PUSH1 0xFF AND PUSH1 0x7 DUP2 GT ISZERO PUSH2 0xFEE JUMPI PUSH2 0xFEE PUSH2 0x2A12 JUMP JUMPDEST SUB PUSH2 0xFFC JUMPI PUSH2 0xFC1 DUP7 PUSH2 0x19F6 JUMP JUMPDEST PUSH2 0x1007 DUP7 DUP6 DUP6 PUSH2 0x1D07 JUMP JUMPDEST CALLER PUSH1 0x1 PUSH1 0x1 PUSH1 0xA0 SHL SUB AND PUSH32 0x32E4EA1EE1B7D04AFF7692AD7AA9A1DB44A16CE2B519EFA717DDD98034B9F1C3 PUSH1 0x2 PUSH1 0x0 DUP10 DUP2 MSTORE PUSH1 0x20 ADD SWAP1 DUP2 MSTORE PUSH1 0x20 ADD PUSH1 0x0 KECCAK256 PUSH1 0x2 ADD DUP7 DUP7 PUSH1 0x40 MLOAD PUSH2 0x1059 SWAP4 SWAP3 SWAP2 SWAP1 PUSH2 0x30DC JUMP JUMPDEST PUSH1 0x40 MLOAD DUP1 SWAP2 SUB SWAP1 LOG2 JUMPDEST POP POP POP POP POP POP JUMP JUMPDEST PUSH1 0x0 DUP1 PUSH2 0x1077 PUSH1 0x0 PUSH2 0xA7B JUMP JUMPDEST SWAP1 POP PUSH1 0x0 JUMPDEST DUP2 MLOAD DUP2 LT ISZERO PUSH2 0x10D7 JUMPI PUSH2 0x10C3 DUP5 PUSH1 0x2 PUSH1 0x0 DUP6 DUP6 DUP2 MLOAD DUP2 LT PUSH2 0x109F JUMPI PUSH2 0x109F PUSH2 0x3049 JUMP JUMPDEST PUSH1 0x20 MUL PUSH1 0x20 ADD ADD MLOAD DUP2 MSTORE PUSH1 0x20 ADD SWAP1 DUP2 MSTORE PUSH1 0x20 ADD PUSH1 0x0 KECCAK256 PUSH1 0x2 ADD DUP1 SLOAD PUSH2 0xE80 SWAP1 PUSH2 0x300F JUMP JUMPDEST ISZERO PUSH2 0x10CF JUMPI SWAP4 SWAP3 POP POP POP JUMP JUMPDEST PUSH1 0x1 ADD PUSH2 0x107C JUMP JUMPDEST POP PUSH2 0x194 SWAP4 SWAP3 POP POP POP JUMP JUMPDEST PUSH1 0x40 MLOAD DUP1 PUSH2 0x100 ADD PUSH1 0x40 MSTORE DUP1 DUP10 DUP2 MSTORE PUSH1 0x20 ADD DUP9 PUSH1 0x7 DUP2 GT ISZERO PUSH2 0x1106 JUMPI PUSH2 0x1106 PUSH2 0x2A12 JUMP JUMPDEST DUP2 MSTORE PUSH1 0x20 ADD DUP8 DUP2 MSTORE PUSH1 0x20 ADD DUP7 DUP2 MSTORE PUSH1 0x20 ADD DUP6 DUP2 MSTORE PUSH1 0x20 ADD DUP5 DUP2 MSTORE PUSH1 0x20 ADD DUP4 DUP2 MSTORE PUSH1 0x20 ADD DUP3 DUP2 MSTORE POP PUSH1 0x2 PUSH1 0x0 DUP11 DUP2 MSTORE PUSH1 0x20 ADD SWAP1 DUP2 MSTORE PUSH1 0x20 ADD PUSH1 0x0 KECCAK256 PUSH1 0x0 DUP3 ADD MLOAD DUP2 PUSH1 0x0 ADD SSTORE PUSH1 0x20 DUP3 ADD MLOAD DUP2 PUSH1 0x1 ADD PUSH1 0x0 PUSH2 0x100 EXP DUP2 SLOAD DUP2 PUSH1 0xFF MUL NOT AND SWAP1 DUP4 PUSH1 0x7 DUP2 GT ISZERO PUSH2 0x1174 JUMPI PUSH2 0x1174 PUSH2 0x2A12 JUMP JUMPDEST MUL OR SWAP1 SSTORE POP PUSH1 0x40 DUP3 ADD MLOAD PUSH1 0x2 DUP3 ADD SWAP1 PUSH2 0x118D SWAP1 DUP3 PUSH2 0x3167 JUMP JUMPDEST POP PUSH1 0x60 DUP3 ADD MLOAD PUSH1 0x3 DUP3 ADD SWAP1 PUSH2 0x11A2 SWAP1 DUP3 PUSH2 0x3167 JUMP JUMPDEST POP PUSH1 0x80 DUP3 ADD MLOAD PUSH1 0x4 DUP3 ADD SWAP1 PUSH2 0x11B7 SWAP1 DUP3 PUSH2 0x3167 JUMP JUMPDEST POP PUSH1 0xA0 DUP3 ADD MLOAD PUSH1 0x5 DUP3 ADD SWAP1 PUSH2 0x11CC SWAP1 DUP3 PUSH2 0x3167 JUMP JUMPDEST POP PUSH1 0xC0 DUP3 ADD MLOAD PUSH1 0x6 DUP3 ADD SWAP1 PUSH2 0x11E1 SWAP1 DUP3 PUSH2 0x3167 JUMP JUMPDEST POP PUSH1 0xE0 DUP3 ADD MLOAD PUSH1 0x7 DUP3 ADD SWAP1 PUSH2 0x11F6 SWAP1 DUP3 PUSH2 0x3167 JUMP JUMPDEST POP POP POP POP POP POP POP POP POP POP POP JUMP JUMPDEST PUSH1 0x0 DUP2 PUSH8 0xFFFFFFFFFFFFFFFF DUP2 GT ISZERO PUSH2 0x121E JUMPI PUSH2 0x121E PUSH2 0x2B65 JUMP JUMPDEST PUSH1 0x40 MLOAD SWAP1 DUP1 DUP3 MSTORE DUP1 PUSH1 0x20 MUL PUSH1 0x20 ADD DUP3 ADD PUSH1 0x40 MSTORE DUP1 ISZERO PUSH2 0x1247 JUMPI DUP2 PUSH1 0x20 ADD PUSH1 0x20 DUP3 MUL DUP1 CALLDATASIZE DUP4 CALLDATACOPY ADD SWAP1 POP JUMPDEST POP SWAP1 POP PUSH1 0x0 JUMPDEST DUP3 DUP2 LT ISZERO PUSH2 0x127B JUMPI DUP1 DUP3 DUP3 DUP2 MLOAD DUP2 LT PUSH2 0x1268 JUMPI PUSH2 0x1268 PUSH2 0x3049 JUMP JUMPDEST PUSH1 0x20 SWAP1 DUP2 MUL SWAP2 SWAP1 SWAP2 ADD ADD MSTORE PUSH1 0x1 ADD PUSH2 0x124D JUMP JUMPDEST POP PUSH1 0x40 DUP1 MLOAD PUSH1 0x60 DUP2 ADD DUP3 MSTORE PUSH1 0x8 SLOAD DUP1 DUP3 MSTORE PUSH1 0x20 DUP1 DUP4 ADD DUP8 DUP2 MSTORE DUP4 DUP6 ADD DUP7 SWAP1 MSTORE PUSH1 0x0 SWAP3 DUP4 MSTORE SWAP1 DUP3 SWAP1 MSTORE SWAP3 SWAP1 KECCAK256 DUP2 MLOAD DUP2 SSTORE SWAP2 MLOAD SWAP1 SWAP2 SWAP1 PUSH1 0x1 DUP3 ADD SWAP1 PUSH2 0x12BE SWAP1 DUP3 PUSH2 0x3167 JUMP JUMPDEST POP PUSH1 0x40 DUP3 ADD MLOAD DUP1 MLOAD PUSH2 0x12DA SWAP2 PUSH1 0x2 DUP5 ADD SWAP2 PUSH1 0x20 SWAP1 SWAP2 ADD SWAP1 PUSH2 0x2955 JUMP JUMPDEST POP POP PUSH1 0x8 SLOAD PUSH2 0x12EB SWAP2 POP PUSH1 0x1 PUSH2 0x3227 JUMP JUMPDEST PUSH1 0x8 SSTORE POP POP POP JUMP JUMPDEST PUSH1 0x60 PUSH1 0xC DUP1 SLOAD DUP1 PUSH1 0x20 MUL PUSH1 0x20 ADD PUSH1 0x40 MLOAD SWAP1 DUP2 ADD PUSH1 0x40 MSTORE DUP1 SWAP3 SWAP2 SWAP1 DUP2 DUP2 MSTORE PUSH1 0x20 ADD DUP3 DUP1 SLOAD DUP1 ISZERO PUSH2 0x4F1 JUMPI PUSH1 0x20 MUL DUP3 ADD SWAP2 SWAP1 PUSH1 0x0 MSTORE PUSH1 0x20 PUSH1 0x0 KECCAK256 SWAP1 DUP2 SLOAD DUP2 MSTORE PUSH1 0x20 ADD SWAP1 PUSH1 0x1 ADD SWAP1 DUP1 DUP4 GT PUSH2 0x4DD JUMPI POP POP POP POP POP SWAP1 POP SWAP1 JUMP JUMPDEST PUSH1 0x0 DUP2 PUSH1 0x40 MLOAD PUSH1 0x20 ADD PUSH2 0x135C SWAP2 SWAP1 PUSH2 0x3248 JUMP JUMPDEST PUSH1 0x40 MLOAD PUSH1 0x20 DUP2 DUP4 SUB SUB DUP2 MSTORE SWAP1 PUSH1 0x40 MSTORE DUP1 MLOAD SWAP1 PUSH1 0x20 ADD KECCAK256 DUP4 PUSH1 0x40 MLOAD PUSH1 0x20 ADD PUSH2 0x1383 SWAP2 SWAP1 PUSH2 0x3248 JUMP JUMPDEST PUSH1 0x40 MLOAD PUSH1 0x20 DUP2 DUP4 SUB SUB DUP2 MSTORE SWAP1 PUSH1 0x40 MSTORE DUP1 MLOAD SWAP1 PUSH1 0x20 ADD KECCAK256 EQ SWAP1 POP SWAP3 SWAP2 POP POP JUMP JUMPDEST PUSH1 0x0 PUSH2 0x13AD DUP4 PUSH2 0x106A JUMP JUMPDEST SWAP1 POP PUSH1 0x1 PUSH1 0xA DUP3 DUP2 SLOAD DUP2 LT PUSH2 0x13C4 JUMPI PUSH2 0x13C4 PUSH2 0x3049 JUMP JUMPDEST SWAP1 PUSH1 0x0 MSTORE PUSH1 0x20 PUSH1 0x0 KECCAK256 ADD DUP2 SWAP1 SSTORE POP PUSH1 0x0 PUSH1 0xC DUP3 DUP2 SLOAD DUP2 LT PUSH2 0x13E7 JUMPI PUSH2 0x13E7 PUSH2 0x3049 JUMP JUMPDEST SWAP1 PUSH1 0x0 MSTORE PUSH1 0x20 PUSH1 0x0 KECCAK256 ADD DUP2 SWAP1 SSTORE POP PUSH1 0x0 PUSH1 0xB DUP3 DUP2 SLOAD DUP2 LT PUSH2 0x140A JUMPI PUSH2 0x140A PUSH2 0x3049 JUMP JUMPDEST SWAP1 PUSH1 0x0 MSTORE PUSH1 0x20 PUSH1 0x0 KECCAK256 ADD DUP2 SWAP1 SSTORE POP PUSH1 0x0 JUMPDEST PUSH1 0x7 DUP4 PUSH1 0x40 MLOAD PUSH2 0x142B SWAP2 SWAP1 PUSH2 0x3248 JUMP JUMPDEST SWAP1 DUP2 MSTORE PUSH1 0x40 MLOAD SWAP1 DUP2 SWAP1 SUB PUSH1 0x20 ADD SWAP1 KECCAK256 SLOAD DUP2 LT ISZERO PUSH2 0x1580 JUMPI PUSH1 0x0 PUSH2 0x150E PUSH1 0x7 DUP6 PUSH1 0x40 MLOAD PUSH2 0x1457 SWAP2 SWAP1 PUSH2 0x3248 JUMP JUMPDEST SWAP1 DUP2 MSTORE PUSH1 0x20 ADD PUSH1 0x40 MLOAD DUP1 SWAP2 SUB SWAP1 KECCAK256 DUP4 DUP2 SLOAD DUP2 LT PUSH2 0x1476 JUMPI PUSH2 0x1476 PUSH2 0x3049 JUMP JUMPDEST SWAP1 PUSH1 0x0 MSTORE PUSH1 0x20 PUSH1 0x0 KECCAK256 ADD DUP1 SLOAD PUSH2 0x148B SWAP1 PUSH2 0x300F JUMP JUMPDEST DUP1 PUSH1 0x1F ADD PUSH1 0x20 DUP1 SWAP2 DIV MUL PUSH1 0x20 ADD PUSH1 0x40 MLOAD SWAP1 DUP2 ADD PUSH1 0x40 MSTORE DUP1 SWAP3 SWAP2 SWAP1 DUP2 DUP2 MSTORE PUSH1 0x20 ADD DUP3 DUP1 SLOAD PUSH2 0x14B7 SWAP1 PUSH2 0x300F JUMP JUMPDEST DUP1 ISZERO PUSH2 0x1504 JUMPI DUP1 PUSH1 0x1F LT PUSH2 0x14D9 JUMPI PUSH2 0x100 DUP1 DUP4 SLOAD DIV MUL DUP4 MSTORE SWAP2 PUSH1 0x20 ADD SWAP2 PUSH2 0x1504 JUMP JUMPDEST DUP3 ADD SWAP2 SWAP1 PUSH1 0x0 MSTORE PUSH1 0x20 PUSH1 0x0 KECCAK256 SWAP1 JUMPDEST DUP2 SLOAD DUP2 MSTORE SWAP1 PUSH1 0x1 ADD SWAP1 PUSH1 0x20 ADD DUP1 DUP4 GT PUSH2 0x14E7 JUMPI DUP3 SWAP1 SUB PUSH1 0x1F AND DUP3 ADD SWAP2 JUMPDEST POP POP POP POP POP PUSH2 0x106A JUMP JUMPDEST SWAP1 POP PUSH1 0x0 PUSH1 0xA DUP3 DUP2 SLOAD DUP2 LT PUSH2 0x1525 JUMPI PUSH2 0x1525 PUSH2 0x3049 JUMP JUMPDEST SWAP1 PUSH1 0x0 MSTORE PUSH1 0x20 PUSH1 0x0 KECCAK256 ADD DUP2 SWAP1 SSTORE POP PUSH1 0x0 PUSH1 0xC DUP3 DUP2 SLOAD DUP2 LT PUSH2 0x1548 JUMPI PUSH2 0x1548 PUSH2 0x3049 JUMP JUMPDEST SWAP1 PUSH1 0x0 MSTORE PUSH1 0x20 PUSH1 0x0 KECCAK256 ADD DUP2 SWAP1 SSTORE POP PUSH1 0x0 PUSH1 0xB DUP3 DUP2 SLOAD DUP2 LT PUSH2 0x156B JUMPI PUSH2 0x156B PUSH2 0x3049 JUMP JUMPDEST PUSH1 0x0 SWAP2 DUP3 MSTORE PUSH1 0x20 SWAP1 SWAP2 KECCAK256 ADD SSTORE POP PUSH1 0x1 ADD PUSH2 0x141B JUMP JUMPDEST POP PUSH1 0x0 PUSH2 0x158C DUP4 PUSH2 0x106A JUMP JUMPDEST SWAP1 POP PUSH1 0x0 PUSH1 0xA DUP3 DUP2 SLOAD DUP2 LT PUSH2 0x15A3 JUMPI PUSH2 0x15A3 PUSH2 0x3049 JUMP JUMPDEST SWAP1 PUSH1 0x0 MSTORE PUSH1 0x20 PUSH1 0x0 KECCAK256 ADD DUP2 SWAP1 SSTORE POP PUSH1 0x0 PUSH1 0xC DUP3 DUP2 SLOAD DUP2 LT PUSH2 0x15C6 JUMPI PUSH2 0x15C6 PUSH2 0x3049 JUMP JUMPDEST SWAP1 PUSH1 0x0 MSTORE PUSH1 0x20 PUSH1 0x0 KECCAK256 ADD DUP2 SWAP1 SSTORE POP PUSH1 0x0 PUSH1 0xB DUP3 DUP2 SLOAD DUP2 LT PUSH2 0x15E9 JUMPI PUSH2 0x15E9 PUSH2 0x3049 JUMP JUMPDEST PUSH1 0x0 SWAP2 DUP3 MSTORE PUSH1 0x20 SWAP1 SWAP2 KECCAK256 ADD SSTORE POP POP POP POP JUMP JUMPDEST PUSH1 0x6 PUSH1 0x20 MSTORE DUP2 PUSH1 0x0 MSTORE PUSH1 0x40 PUSH1 0x0 KECCAK256 DUP2 DUP2 SLOAD DUP2 LT PUSH2 0x8E3 JUMPI PUSH1 0x0 DUP1 REVERT JUMPDEST PUSH1 0x0 JUMPDEST PUSH1 0x0 DUP4 DUP2 MSTORE PUSH1 0x3 PUSH1 0x20 MSTORE PUSH1 0x40 SWAP1 KECCAK256 SLOAD DUP2 LT ISZERO PUSH2 0x16F6 JUMPI PUSH1 0x0 DUP4 DUP2 MSTORE PUSH1 0x3 PUSH1 0x20 MSTORE PUSH1 0x40 SWAP1 KECCAK256 DUP1 SLOAD PUSH2 0x16EE SWAP2 DUP5 SWAP2 DUP5 SWAP1 DUP2 LT PUSH2 0x1656 JUMPI PUSH2 0x1656 PUSH2 0x3049 JUMP JUMPDEST SWAP1 PUSH1 0x0 MSTORE PUSH1 0x20 PUSH1 0x0 KECCAK256 ADD DUP1 SLOAD PUSH2 0x166B SWAP1 PUSH2 0x300F JUMP JUMPDEST DUP1 PUSH1 0x1F ADD PUSH1 0x20 DUP1 SWAP2 DIV MUL PUSH1 0x20 ADD PUSH1 0x40 MLOAD SWAP1 DUP2 ADD PUSH1 0x40 MSTORE DUP1 SWAP3 SWAP2 SWAP1 DUP2 DUP2 MSTORE PUSH1 0x20 ADD DUP3 DUP1 SLOAD PUSH2 0x1697 SWAP1 PUSH2 0x300F JUMP JUMPDEST DUP1 ISZERO PUSH2 0x16E4 JUMPI DUP1 PUSH1 0x1F LT PUSH2 0x16B9 JUMPI PUSH2 0x100 DUP1 DUP4 SLOAD DIV MUL DUP4 MSTORE SWAP2 PUSH1 0x20 ADD SWAP2 PUSH2 0x16E4 JUMP JUMPDEST DUP3 ADD SWAP2 SWAP1 PUSH1 0x0 MSTORE PUSH1 0x20 PUSH1 0x0 KECCAK256 SWAP1 JUMPDEST DUP2 SLOAD DUP2 MSTORE SWAP1 PUSH1 0x1 ADD SWAP1 PUSH1 0x20 ADD DUP1 DUP4 GT PUSH2 0x16C7 JUMPI DUP3 SWAP1 SUB PUSH1 0x1F AND DUP3 ADD SWAP2 JUMPDEST POP POP POP POP POP PUSH2 0x1D79 JUMP JUMPDEST PUSH1 0x1 ADD PUSH2 0x161A JUMP JUMPDEST POP POP POP JUMP JUMPDEST PUSH1 0x0 PUSH2 0x1707 DUP4 DUP4 PUSH2 0x1E2D JUMP JUMPDEST SWAP1 POP DUP1 ISZERO PUSH2 0x16F6 JUMPI PUSH2 0x16F6 DUP4 DUP4 PUSH2 0x1617 JUMP JUMPDEST PUSH1 0x0 JUMPDEST PUSH1 0x0 DUP4 DUP2 MSTORE PUSH1 0x6 PUSH1 0x20 MSTORE PUSH1 0x40 SWAP1 KECCAK256 SLOAD DUP2 LT ISZERO PUSH2 0x16F6 JUMPI PUSH1 0x0 DUP4 DUP2 MSTORE PUSH1 0x6 PUSH1 0x20 MSTORE PUSH1 0x40 SWAP1 KECCAK256 DUP1 SLOAD PUSH2 0x1758 SWAP2 DUP5 SWAP2 DUP5 SWAP1 DUP2 LT PUSH2 0x1656 JUMPI PUSH2 0x1656 PUSH2 0x3049 JUMP JUMPDEST PUSH1 0x1 ADD PUSH2 0x171C JUMP JUMPDEST PUSH1 0x0 DUP1 DUP3 PUSH1 0x7 DUP2 GT ISZERO PUSH2 0x1775 JUMPI PUSH2 0x1775 PUSH2 0x2A12 JUMP JUMPDEST EQ DUP1 PUSH2 0x1792 JUMPI POP PUSH1 0x2 DUP3 PUSH1 0x7 DUP2 GT ISZERO PUSH2 0x1790 JUMPI PUSH2 0x1790 PUSH2 0x2A12 JUMP JUMPDEST EQ JUMPDEST DUP1 PUSH2 0x17AE JUMPI POP PUSH1 0x3 DUP3 PUSH1 0x7 DUP2 GT ISZERO PUSH2 0x17AC JUMPI PUSH2 0x17AC PUSH2 0x2A12 JUMP JUMPDEST EQ JUMPDEST DUP1 PUSH2 0x17CA JUMPI POP PUSH1 0x4 DUP3 PUSH1 0x7 DUP2 GT ISZERO PUSH2 0x17C8 JUMPI PUSH2 0x17C8 PUSH2 0x2A12 JUMP JUMPDEST EQ JUMPDEST DUP1 PUSH2 0x17E6 JUMPI POP PUSH1 0x1 DUP3 PUSH1 0x7 DUP2 GT ISZERO PUSH2 0x17E4 JUMPI PUSH2 0x17E4 PUSH2 0x2A12 JUMP JUMPDEST EQ JUMPDEST DUP1 PUSH2 0x1802 JUMPI POP PUSH1 0x5 DUP3 PUSH1 0x7 DUP2 GT ISZERO PUSH2 0x1800 JUMPI PUSH2 0x1800 PUSH2 0x2A12 JUMP JUMPDEST EQ JUMPDEST DUP1 PUSH2 0xA75 JUMPI POP PUSH1 0x6 DUP3 PUSH1 0x7 DUP2 GT ISZERO PUSH2 0x181C JUMPI PUSH2 0x181C PUSH2 0x2A12 JUMP JUMPDEST EQ SWAP3 SWAP2 POP POP JUMP JUMPDEST PUSH1 0x0 PUSH1 0xA DUP3 DUP2 SLOAD DUP2 LT PUSH2 0x1838 JUMPI PUSH2 0x1838 PUSH2 0x3049 JUMP JUMPDEST SWAP1 PUSH1 0x0 MSTORE PUSH1 0x20 PUSH1 0x0 KECCAK256 ADD DUP2 SWAP1 SSTORE POP PUSH1 0x1 PUSH1 0xC DUP3 DUP2 SLOAD DUP2 LT PUSH2 0x185B JUMPI PUSH2 0x185B PUSH2 0x3049 JUMP JUMPDEST SWAP1 PUSH1 0x0 MSTORE PUSH1 0x20 PUSH1 0x0 KECCAK256 ADD DUP2 SWAP1 SSTORE POP PUSH1 0x0 PUSH2 0x1875 PUSH1 0x0 PUSH2 0xA7B JUMP JUMPDEST SWAP1 POP PUSH1 0x0 JUMPDEST PUSH1 0x0 DUP4 DUP2 MSTORE PUSH1 0x3 PUSH1 0x20 MSTORE PUSH1 0x40 SWAP1 KECCAK256 SLOAD DUP2 LT ISZERO PUSH2 0x16F6 JUMPI PUSH1 0x0 DUP4 DUP2 MSTORE PUSH1 0x3 PUSH1 0x20 MSTORE PUSH1 0x40 DUP2 KECCAK256 DUP1 SLOAD DUP4 SWAP1 DUP2 LT PUSH2 0x18B0 JUMPI PUSH2 0x18B0 PUSH2 0x3049 JUMP JUMPDEST SWAP1 PUSH1 0x0 MSTORE PUSH1 0x20 PUSH1 0x0 KECCAK256 ADD DUP1 SLOAD PUSH2 0x18C5 SWAP1 PUSH2 0x300F JUMP JUMPDEST DUP1 PUSH1 0x1F ADD PUSH1 0x20 DUP1 SWAP2 DIV MUL PUSH1 0x20 ADD PUSH1 0x40 MLOAD SWAP1 DUP2 ADD PUSH1 0x40 MSTORE DUP1 SWAP3 SWAP2 SWAP1 DUP2 DUP2 MSTORE PUSH1 0x20 ADD DUP3 DUP1 SLOAD PUSH2 0x18F1 SWAP1 PUSH2 0x300F JUMP JUMPDEST DUP1 ISZERO PUSH2 0x193E JUMPI DUP1 PUSH1 0x1F LT PUSH2 0x1913 JUMPI PUSH2 0x100 DUP1 DUP4 SLOAD DIV MUL DUP4 MSTORE SWAP2 PUSH1 0x20 ADD SWAP2 PUSH2 0x193E JUMP JUMPDEST DUP3 ADD SWAP2 SWAP1 PUSH1 0x0 MSTORE PUSH1 0x20 PUSH1 0x0 KECCAK256 SWAP1 JUMPDEST DUP2 SLOAD DUP2 MSTORE SWAP1 PUSH1 0x1 ADD SWAP1 PUSH1 0x20 ADD DUP1 DUP4 GT PUSH2 0x1921 JUMPI DUP3 SWAP1 SUB PUSH1 0x1F AND DUP3 ADD SWAP2 JUMPDEST POP POP POP POP POP SWAP1 POP PUSH1 0x0 JUMPDEST DUP4 MLOAD DUP2 LT ISZERO PUSH2 0x19EC JUMPI PUSH2 0x196B DUP3 PUSH1 0x2 PUSH1 0x0 DUP8 DUP6 DUP2 MLOAD DUP2 LT PUSH2 0x109F JUMPI PUSH2 0x109F PUSH2 0x3049 JUMP JUMPDEST ISZERO PUSH2 0x19E4 JUMPI PUSH1 0x1 PUSH1 0xA DUP6 DUP4 DUP2 MLOAD DUP2 LT PUSH2 0x1986 JUMPI PUSH2 0x1986 PUSH2 0x3049 JUMP JUMPDEST PUSH1 0x20 MUL PUSH1 0x20 ADD ADD MLOAD DUP2 SLOAD DUP2 LT PUSH2 0x199E JUMPI PUSH2 0x199E PUSH2 0x3049 JUMP JUMPDEST SWAP1 PUSH1 0x0 MSTORE PUSH1 0x20 PUSH1 0x0 KECCAK256 ADD DUP2 SWAP1 SSTORE POP PUSH1 0xD DUP5 DUP3 DUP2 MLOAD DUP2 LT PUSH2 0x19C0 JUMPI PUSH2 0x19C0 PUSH2 0x3049 JUMP JUMPDEST PUSH1 0x20 SWAP1 DUP2 MUL SWAP2 SWAP1 SWAP2 ADD DUP2 ADD MLOAD DUP3 SLOAD PUSH1 0x1 DUP2 ADD DUP5 SSTORE PUSH1 0x0 SWAP4 DUP5 MSTORE SWAP2 SWAP1 SWAP3 KECCAK256 ADD SSTORE PUSH2 0x19EC JUMP JUMPDEST PUSH1 0x1 ADD PUSH2 0x1948 JUMP JUMPDEST POP POP PUSH1 0x1 ADD PUSH2 0x187A JUMP JUMPDEST PUSH1 0x0 DUP1 PUSH2 0x1A03 PUSH1 0x0 PUSH2 0xA7B JUMP JUMPDEST SWAP1 POP PUSH1 0x0 JUMPDEST PUSH1 0x0 DUP5 DUP2 MSTORE PUSH1 0x4 PUSH1 0x20 MSTORE PUSH1 0x40 SWAP1 KECCAK256 SLOAD DUP2 LT ISZERO PUSH2 0x1B61 JUMPI PUSH1 0x0 DUP5 DUP2 MSTORE PUSH1 0x4 PUSH1 0x20 MSTORE PUSH1 0x40 DUP2 KECCAK256 DUP1 SLOAD DUP4 SWAP1 DUP2 LT PUSH2 0x1A3E JUMPI PUSH2 0x1A3E PUSH2 0x3049 JUMP JUMPDEST SWAP1 PUSH1 0x0 MSTORE PUSH1 0x20 PUSH1 0x0 KECCAK256 ADD DUP1 SLOAD PUSH2 0x1A53 SWAP1 PUSH2 0x300F JUMP JUMPDEST DUP1 PUSH1 0x1F ADD PUSH1 0x20 DUP1 SWAP2 DIV MUL PUSH1 0x20 ADD PUSH1 0x40 MLOAD SWAP1 DUP2 ADD PUSH1 0x40 MSTORE DUP1 SWAP3 SWAP2 SWAP1 DUP2 DUP2 MSTORE PUSH1 0x20 ADD DUP3 DUP1 SLOAD PUSH2 0x1A7F SWAP1 PUSH2 0x300F JUMP JUMPDEST DUP1 ISZERO PUSH2 0x1ACC JUMPI DUP1 PUSH1 0x1F LT PUSH2 0x1AA1 JUMPI PUSH2 0x100 DUP1 DUP4 SLOAD DIV MUL DUP4 MSTORE SWAP2 PUSH1 0x20 ADD SWAP2 PUSH2 0x1ACC JUMP JUMPDEST DUP3 ADD SWAP2 SWAP1 PUSH1 0x0 MSTORE PUSH1 0x20 PUSH1 0x0 KECCAK256 SWAP1 JUMPDEST DUP2 SLOAD DUP2 MSTORE SWAP1 PUSH1 0x1 ADD SWAP1 PUSH1 0x20 ADD DUP1 DUP4 GT PUSH2 0x1AAF JUMPI DUP3 SWAP1 SUB PUSH1 0x1F AND DUP3 ADD SWAP2 JUMPDEST POP POP POP POP POP SWAP1 POP PUSH1 0x0 JUMPDEST DUP4 MLOAD DUP2 LT ISZERO PUSH2 0x1B57 JUMPI PUSH2 0x1AF9 DUP3 PUSH1 0x2 PUSH1 0x0 DUP8 DUP6 DUP2 MLOAD DUP2 LT PUSH2 0x109F JUMPI PUSH2 0x109F PUSH2 0x3049 JUMP JUMPDEST ISZERO PUSH2 0x1B4F JUMPI PUSH1 0xC DUP5 DUP3 DUP2 MLOAD DUP2 LT PUSH2 0x1B12 JUMPI PUSH2 0x1B12 PUSH2 0x3049 JUMP JUMPDEST PUSH1 0x20 MUL PUSH1 0x20 ADD ADD MLOAD DUP2 SLOAD DUP2 LT PUSH2 0x1B2A JUMPI PUSH2 0x1B2A PUSH2 0x3049 JUMP JUMPDEST SWAP1 PUSH1 0x0 MSTORE PUSH1 0x20 PUSH1 0x0 KECCAK256 ADD SLOAD PUSH1 0x1 SUB PUSH2 0x1B4A JUMPI PUSH2 0x1B47 DUP6 PUSH1 0x1 PUSH2 0x3227 JUMP JUMPDEST SWAP5 POP JUMPDEST PUSH2 0x1B57 JUMP JUMPDEST PUSH1 0x1 ADD PUSH2 0x1AD6 JUMP JUMPDEST POP POP PUSH1 0x1 ADD PUSH2 0x1A08 JUMP JUMPDEST POP PUSH1 0x0 DUP4 DUP2 MSTORE PUSH1 0x4 PUSH1 0x20 MSTORE PUSH1 0x40 SWAP1 KECCAK256 SLOAD DUP3 SUB PUSH2 0x16F6 JUMPI PUSH1 0x0 PUSH1 0xA DUP5 DUP2 SLOAD DUP2 LT PUSH2 0x1B8C JUMPI PUSH2 0x1B8C PUSH2 0x3049 JUMP JUMPDEST SWAP1 PUSH1 0x0 MSTORE PUSH1 0x20 PUSH1 0x0 KECCAK256 ADD DUP2 SWAP1 SSTORE POP PUSH1 0x1 PUSH1 0xC DUP5 DUP2 SLOAD DUP2 LT PUSH2 0x1BAF JUMPI PUSH2 0x1BAF PUSH2 0x3049 JUMP JUMPDEST SWAP1 PUSH1 0x0 MSTORE PUSH1 0x20 PUSH1 0x0 KECCAK256 ADD DUP2 SWAP1 SSTORE POP PUSH1 0x0 JUMPDEST PUSH1 0x0 DUP5 DUP2 MSTORE PUSH1 0x3 PUSH1 0x20 MSTORE PUSH1 0x40 SWAP1 KECCAK256 SLOAD DUP2 LT ISZERO PUSH2 0xA0E JUMPI PUSH1 0x0 DUP5 DUP2 MSTORE PUSH1 0x3 PUSH1 0x20 MSTORE PUSH1 0x40 DUP2 KECCAK256 DUP1 SLOAD DUP4 SWAP1 DUP2 LT PUSH2 0x1BF6 JUMPI PUSH2 0x1BF6 PUSH2 0x3049 JUMP JUMPDEST SWAP1 PUSH1 0x0 MSTORE PUSH1 0x20 PUSH1 0x0 KECCAK256 ADD DUP1 SLOAD PUSH2 0x1C0B SWAP1 PUSH2 0x300F JUMP JUMPDEST DUP1 PUSH1 0x1F ADD PUSH1 0x20 DUP1 SWAP2 DIV MUL PUSH1 0x20 ADD PUSH1 0x40 MLOAD SWAP1 DUP2 ADD PUSH1 0x40 MSTORE DUP1 SWAP3 SWAP2 SWAP1 DUP2 DUP2 MSTORE PUSH1 0x20 ADD DUP3 DUP1 SLOAD PUSH2 0x1C37 SWAP1 PUSH2 0x300F JUMP JUMPDEST DUP1 ISZERO PUSH2 0x1C84 JUMPI DUP1 PUSH1 0x1F LT PUSH2 0x1C59 JUMPI PUSH2 0x100 DUP1 DUP4 SLOAD DIV MUL DUP4 MSTORE SWAP2 PUSH1 0x20 ADD SWAP2 PUSH2 0x1C84 JUMP JUMPDEST DUP3 ADD SWAP2 SWAP1 PUSH1 0x0 MSTORE PUSH1 0x20 PUSH1 0x0 KECCAK256 SWAP1 JUMPDEST DUP2 SLOAD DUP2 MSTORE SWAP1 PUSH1 0x1 ADD SWAP1 PUSH1 0x20 ADD DUP1 DUP4 GT PUSH2 0x1C67 JUMPI DUP3 SWAP1 SUB PUSH1 0x1F AND DUP3 ADD SWAP2 JUMPDEST POP POP POP POP POP SWAP1 POP PUSH1 0x0 JUMPDEST DUP4 MLOAD DUP2 LT ISZERO PUSH2 0x1CFD JUMPI PUSH2 0x1CB1 DUP3 PUSH1 0x2 PUSH1 0x0 DUP8 DUP6 DUP2 MLOAD DUP2 LT PUSH2 0x109F JUMPI PUSH2 0x109F PUSH2 0x3049 JUMP JUMPDEST ISZERO PUSH2 0x1CF5 JUMPI PUSH1 0x1 PUSH1 0xA DUP6 DUP4 DUP2 MLOAD DUP2 LT PUSH2 0x1CCC JUMPI PUSH2 0x1CCC PUSH2 0x3049 JUMP JUMPDEST PUSH1 0x20 MUL PUSH1 0x20 ADD ADD MLOAD DUP2 SLOAD DUP2 LT PUSH2 0x1CE4 JUMPI PUSH2 0x1CE4 PUSH2 0x3049 JUMP JUMPDEST PUSH1 0x0 SWAP2 DUP3 MSTORE PUSH1 0x20 SWAP1 SWAP2 KECCAK256 ADD SSTORE PUSH2 0x1CFD JUMP JUMPDEST PUSH1 0x1 ADD PUSH2 0x1C8E JUMP JUMPDEST POP POP PUSH1 0x1 ADD PUSH2 0x1BC0 JUMP JUMPDEST PUSH2 0x1D12 DUP4 DUP4 DUP4 PUSH2 0x1F9D JUMP JUMPDEST PUSH2 0x1D6C DUP4 PUSH1 0xD DUP1 SLOAD DUP1 PUSH1 0x20 MUL PUSH1 0x20 ADD PUSH1 0x40 MLOAD SWAP1 DUP2 ADD PUSH1 0x40 MSTORE DUP1 SWAP3 SWAP2 SWAP1 DUP2 DUP2 MSTORE PUSH1 0x20 ADD DUP3 DUP1 SLOAD DUP1 ISZERO PUSH2 0x1D62 JUMPI PUSH1 0x20 MUL DUP3 ADD SWAP2 SWAP1 PUSH1 0x0 MSTORE PUSH1 0x20 PUSH1 0x0 KECCAK256 SWAP1 JUMPDEST DUP2 SLOAD DUP2 MSTORE PUSH1 0x20 ADD SWAP1 PUSH1 0x1 ADD SWAP1 DUP1 DUP4 GT PUSH2 0x1D4E JUMPI JUMPDEST POP POP POP POP POP PUSH2 0xA30 JUMP JUMPDEST ISZERO PUSH2 0x16F6 JUMPI PUSH2 0x16F6 PUSH2 0x20A6 JUMP JUMPDEST PUSH1 0x0 JUMPDEST DUP3 MLOAD DUP2 LT ISZERO PUSH2 0x16F6 JUMPI PUSH2 0x1D9F DUP3 PUSH1 0x2 PUSH1 0x0 DUP7 DUP6 DUP2 MLOAD DUP2 LT PUSH2 0x109F JUMPI PUSH2 0x109F PUSH2 0x3049 JUMP JUMPDEST DUP1 ISZERO PUSH2 0x1DE1 JUMPI POP PUSH1 0x1 PUSH1 0xC DUP5 DUP4 DUP2 MLOAD DUP2 LT PUSH2 0x1DBC JUMPI PUSH2 0x1DBC PUSH2 0x3049 JUMP JUMPDEST PUSH1 0x20 MUL PUSH1 0x20 ADD ADD MLOAD DUP2 SLOAD DUP2 LT PUSH2 0x1DD4 JUMPI PUSH2 0x1DD4 PUSH2 0x3049 JUMP JUMPDEST SWAP1 PUSH1 0x0 MSTORE PUSH1 0x20 PUSH1 0x0 KECCAK256 ADD SLOAD LT JUMPDEST ISZERO PUSH2 0x1E25 JUMPI PUSH1 0x1 PUSH1 0xA DUP5 DUP4 DUP2 MLOAD DUP2 LT PUSH2 0x1DFC JUMPI PUSH2 0x1DFC PUSH2 0x3049 JUMP JUMPDEST PUSH1 0x20 MUL PUSH1 0x20 ADD ADD MLOAD DUP2 SLOAD DUP2 LT PUSH2 0x1E14 JUMPI PUSH2 0x1E14 PUSH2 0x3049 JUMP JUMPDEST PUSH1 0x0 SWAP2 DUP3 MSTORE PUSH1 0x20 SWAP1 SWAP2 KECCAK256 ADD SSTORE POP POP POP JUMP JUMPDEST PUSH1 0x1 ADD PUSH2 0x1D7C JUMP JUMPDEST PUSH1 0x0 DUP1 JUMPDEST DUP3 MLOAD DUP2 LT ISZERO PUSH2 0xA6F JUMPI PUSH1 0x0 DUP5 DUP2 MSTORE PUSH1 0x5 PUSH1 0x20 MSTORE PUSH1 0x40 DUP2 KECCAK256 DUP1 SLOAD PUSH2 0x1F04 SWAP3 SWAP1 PUSH2 0x1E5B JUMPI PUSH2 0x1E5B PUSH2 0x3049 JUMP JUMPDEST SWAP1 PUSH1 0x0 MSTORE PUSH1 0x20 PUSH1 0x0 KECCAK256 ADD DUP1 SLOAD PUSH2 0x1E70 SWAP1 PUSH2 0x300F JUMP JUMPDEST DUP1 PUSH1 0x1F ADD PUSH1 0x20 DUP1 SWAP2 DIV MUL PUSH1 0x20 ADD PUSH1 0x40 MLOAD SWAP1 DUP2 ADD PUSH1 0x40 MSTORE DUP1 SWAP3 SWAP2 SWAP1 DUP2 DUP2 MSTORE PUSH1 0x20 ADD DUP3 DUP1 SLOAD PUSH2 0x1E9C SWAP1 PUSH2 0x300F JUMP JUMPDEST DUP1 ISZERO PUSH2 0x1EE9 JUMPI DUP1 PUSH1 0x1F LT PUSH2 0x1EBE JUMPI PUSH2 0x100 DUP1 DUP4 SLOAD DIV MUL DUP4 MSTORE SWAP2 PUSH1 0x20 ADD SWAP2 PUSH2 0x1EE9 JUMP JUMPDEST DUP3 ADD SWAP2 SWAP1 PUSH1 0x0 MSTORE PUSH1 0x20 PUSH1 0x0 KECCAK256 SWAP1 JUMPDEST DUP2 SLOAD DUP2 MSTORE SWAP1 PUSH1 0x1 ADD SWAP1 PUSH1 0x20 ADD DUP1 DUP4 GT PUSH2 0x1ECC JUMPI DUP3 SWAP1 SUB PUSH1 0x1F AND DUP3 ADD SWAP2 JUMPDEST POP POP POP POP POP PUSH1 0x2 PUSH1 0x0 DUP7 DUP6 DUP2 MLOAD DUP2 LT PUSH2 0x109F JUMPI PUSH2 0x109F PUSH2 0x3049 JUMP JUMPDEST DUP1 ISZERO PUSH2 0x1F86 JUMPI POP PUSH1 0x0 PUSH1 0xB DUP5 DUP4 DUP2 MLOAD DUP2 LT PUSH2 0x1F21 JUMPI PUSH2 0x1F21 PUSH2 0x3049 JUMP JUMPDEST PUSH1 0x20 MUL PUSH1 0x20 ADD ADD MLOAD DUP2 SLOAD DUP2 LT PUSH2 0x1F39 JUMPI PUSH2 0x1F39 PUSH2 0x3049 JUMP JUMPDEST SWAP1 PUSH1 0x0 MSTORE PUSH1 0x20 PUSH1 0x0 KECCAK256 ADD SLOAD GT DUP1 PUSH2 0x1F86 JUMPI POP PUSH1 0x0 PUSH1 0xC DUP5 DUP4 DUP2 MLOAD DUP2 LT PUSH2 0x1F61 JUMPI PUSH2 0x1F61 PUSH2 0x3049 JUMP JUMPDEST PUSH1 0x20 MUL PUSH1 0x20 ADD ADD MLOAD DUP2 SLOAD DUP2 LT PUSH2 0x1F79 JUMPI PUSH2 0x1F79 PUSH2 0x3049 JUMP JUMPDEST SWAP1 PUSH1 0x0 MSTORE PUSH1 0x20 PUSH1 0x0 KECCAK256 ADD SLOAD GT JUMPDEST ISZERO PUSH2 0x1F95 JUMPI PUSH1 0x1 SWAP2 POP POP PUSH2 0xA75 JUMP JUMPDEST PUSH1 0x1 ADD PUSH2 0x1E31 JUMP JUMPDEST PUSH1 0x0 DUP4 DUP2 MSTORE PUSH1 0x2 PUSH1 0x20 MSTORE PUSH1 0x40 DUP2 KECCAK256 PUSH1 0x6 ADD DUP1 SLOAD PUSH2 0x2051 SWAP2 SWAP1 PUSH2 0x1FBE SWAP1 PUSH2 0x300F JUMP JUMPDEST DUP1 PUSH1 0x1F ADD PUSH1 0x20 DUP1 SWAP2 DIV MUL PUSH1 0x20 ADD PUSH1 0x40 MLOAD SWAP1 DUP2 ADD PUSH1 0x40 MSTORE DUP1 SWAP3 SWAP2 SWAP1 DUP2 DUP2 MSTORE PUSH1 0x20 ADD DUP3 DUP1 SLOAD PUSH2 0x1FEA SWAP1 PUSH2 0x300F JUMP JUMPDEST DUP1 ISZERO PUSH2 0x2037 JUMPI DUP1 PUSH1 0x1F LT PUSH2 0x200C JUMPI PUSH2 0x100 DUP1 DUP4 SLOAD DIV MUL DUP4 MSTORE SWAP2 PUSH1 0x20 ADD SWAP2 PUSH2 0x2037 JUMP JUMPDEST DUP3 ADD SWAP2 SWAP1 PUSH1 0x0 MSTORE PUSH1 0x20 PUSH1 0x0 KECCAK256 SWAP1 JUMPDEST DUP2 SLOAD DUP2 MSTORE SWAP1 PUSH1 0x1 ADD SWAP1 PUSH1 0x20 ADD DUP1 DUP4 GT PUSH2 0x201A JUMPI DUP3 SWAP1 SUB PUSH1 0x1F AND DUP3 ADD SWAP2 JUMPDEST POP POP POP POP POP PUSH1 0x40 MLOAD DUP1 PUSH1 0x20 ADD PUSH1 0x40 MSTORE DUP1 PUSH1 0x0 DUP2 MSTORE POP PUSH2 0x1349 JUMP JUMPDEST ISZERO SWAP1 POP PUSH1 0x0 PUSH2 0x207A PUSH1 0x2 PUSH1 0x0 DUP8 DUP2 MSTORE PUSH1 0x20 ADD SWAP1 DUP2 MSTORE PUSH1 0x20 ADD PUSH1 0x0 KECCAK256 PUSH1 0x5 ADD DUP1 SLOAD PUSH2 0x1FBE SWAP1 PUSH2 0x300F JUMP JUMPDEST ISZERO SWAP1 POP DUP2 PUSH2 0x2093 JUMPI PUSH2 0x208E DUP6 DUP6 DUP6 DUP5 PUSH2 0x2108 JUMP JUMPDEST PUSH2 0x209F JUMP JUMPDEST PUSH2 0x209F DUP6 DUP6 DUP6 DUP5 PUSH2 0x249F JUMP JUMPDEST POP POP POP POP POP JUMP JUMPDEST PUSH1 0x0 JUMPDEST PUSH1 0xD SLOAD DUP2 LT ISZERO PUSH2 0x20F9 JUMPI PUSH1 0x0 PUSH1 0xA PUSH1 0xD DUP4 DUP2 SLOAD DUP2 LT PUSH2 0x20CA JUMPI PUSH2 0x20CA PUSH2 0x3049 JUMP JUMPDEST SWAP1 PUSH1 0x0 MSTORE PUSH1 0x20 PUSH1 0x0 KECCAK256 ADD SLOAD DUP2 SLOAD DUP2 LT PUSH2 0x20E5 JUMPI PUSH2 0x20E5 PUSH2 0x3049 JUMP JUMPDEST PUSH1 0x0 SWAP2 DUP3 MSTORE PUSH1 0x20 SWAP1 SWAP2 KECCAK256 ADD SSTORE PUSH1 0x1 ADD PUSH2 0x20A9 JUMP JUMPDEST POP PUSH2 0x2106 PUSH1 0xD PUSH1 0x0 PUSH2 0x2937 JUMP JUMPDEST JUMP JUMPDEST DUP1 ISZERO PUSH2 0x212B JUMPI PUSH1 0x0 DUP5 DUP2 MSTORE PUSH1 0x2 PUSH1 0x20 MSTORE PUSH1 0x40 SWAP1 KECCAK256 PUSH1 0x5 ADD PUSH2 0x2129 DUP5 DUP3 PUSH2 0x3167 JUMP JUMPDEST POP JUMPDEST PUSH1 0x0 PUSH2 0x2137 PUSH1 0x0 PUSH2 0xA7B JUMP JUMPDEST PUSH1 0x0 DUP7 DUP2 MSTORE PUSH1 0x6 PUSH1 0x20 MSTORE PUSH1 0x40 DUP2 KECCAK256 SLOAD SWAP2 SWAP3 POP SWAP1 ISZERO ISZERO SWAP1 PUSH2 0x2157 DUP8 DUP5 PUSH2 0x24DF JUMP JUMPDEST SWAP1 POP PUSH1 0x0 PUSH2 0x2165 DUP9 DUP6 PUSH2 0x24DF JUMP JUMPDEST SWAP1 POP PUSH1 0x0 PUSH1 0x7 PUSH1 0x2 PUSH1 0x0 DUP12 DUP2 MSTORE PUSH1 0x20 ADD SWAP1 DUP2 MSTORE PUSH1 0x20 ADD PUSH1 0x0 KECCAK256 PUSH1 0x2 ADD PUSH1 0x40 MLOAD PUSH2 0x218E SWAP2 SWAP1 PUSH2 0x3264 JUMP JUMPDEST SWAP1 DUP2 MSTORE PUSH1 0x40 MLOAD SWAP1 DUP2 SWAP1 SUB PUSH1 0x20 ADD SWAP1 KECCAK256 SLOAD ISZERO ISZERO SWAP1 POP DUP4 DUP1 ISZERO PUSH2 0x21AC JUMPI POP DUP1 JUMPDEST ISZERO PUSH2 0x230E JUMPI PUSH1 0x0 DUP10 DUP2 MSTORE PUSH1 0x6 PUSH1 0x20 MSTORE PUSH1 0x40 DUP2 KECCAK256 DUP1 SLOAD PUSH2 0x2309 SWAP3 SWAP1 PUSH2 0x21D2 JUMPI PUSH2 0x21D2 PUSH2 0x3049 JUMP JUMPDEST SWAP1 PUSH1 0x0 MSTORE PUSH1 0x20 PUSH1 0x0 KECCAK256 ADD DUP1 SLOAD PUSH2 0x21E7 SWAP1 PUSH2 0x300F JUMP JUMPDEST DUP1 PUSH1 0x1F ADD PUSH1 0x20 DUP1 SWAP2 DIV MUL PUSH1 0x20 ADD PUSH1 0x40 MLOAD SWAP1 DUP2 ADD PUSH1 0x40 MSTORE DUP1 SWAP3 SWAP2 SWAP1 DUP2 DUP2 MSTORE PUSH1 0x20 ADD DUP3 DUP1 SLOAD PUSH2 0x2213 SWAP1 PUSH2 0x300F JUMP JUMPDEST DUP1 ISZERO PUSH2 0x2260 JUMPI DUP1 PUSH1 0x1F LT PUSH2 0x2235 JUMPI PUSH2 0x100 DUP1 DUP4 SLOAD DIV MUL DUP4 MSTORE SWAP2 PUSH1 0x20 ADD SWAP2 PUSH2 0x2260 JUMP JUMPDEST DUP3 ADD SWAP2 SWAP1 PUSH1 0x0 MSTORE PUSH1 0x20 PUSH1 0x0 KECCAK256 SWAP1 JUMPDEST DUP2 SLOAD DUP2 MSTORE SWAP1 PUSH1 0x1 ADD SWAP1 PUSH1 0x20 ADD DUP1 DUP4 GT PUSH2 0x2243 JUMPI DUP3 SWAP1 SUB PUSH1 0x1F AND DUP3 ADD SWAP2 JUMPDEST POP POP POP POP POP PUSH1 0x2 PUSH1 0x0 DUP13 DUP2 MSTORE PUSH1 0x20 ADD SWAP1 DUP2 MSTORE PUSH1 0x20 ADD PUSH1 0x0 KECCAK256 PUSH1 0x2 ADD DUP1 SLOAD PUSH2 0x2286 SWAP1 PUSH2 0x300F JUMP JUMPDEST DUP1 PUSH1 0x1F ADD PUSH1 0x20 DUP1 SWAP2 DIV MUL PUSH1 0x20 ADD PUSH1 0x40 MLOAD SWAP1 DUP2 ADD PUSH1 0x40 MSTORE DUP1 SWAP3 SWAP2 SWAP1 DUP2 DUP2 MSTORE PUSH1 0x20 ADD DUP3 DUP1 SLOAD PUSH2 0x22B2 SWAP1 PUSH2 0x300F JUMP JUMPDEST DUP1 ISZERO PUSH2 0x22FF JUMPI DUP1 PUSH1 0x1F LT PUSH2 0x22D4 JUMPI PUSH2 0x100 DUP1 DUP4 SLOAD DIV MUL DUP4 MSTORE SWAP2 PUSH1 0x20 ADD SWAP2 PUSH2 0x22FF JUMP JUMPDEST DUP3 ADD SWAP2 SWAP1 PUSH1 0x0 MSTORE PUSH1 0x20 PUSH1 0x0 KECCAK256 SWAP1 JUMPDEST DUP2 SLOAD DUP2 MSTORE SWAP1 PUSH1 0x1 ADD SWAP1 PUSH1 0x20 ADD DUP1 DUP4 GT PUSH2 0x22E2 JUMPI DUP3 SWAP1 SUB PUSH1 0x1F AND DUP3 ADD SWAP2 JUMPDEST POP POP POP POP POP PUSH2 0x13A2 JUMP JUMPDEST PUSH2 0x2494 JUMP JUMPDEST DUP4 ISZERO DUP1 PUSH2 0x2320 JUMPI POP DUP3 DUP1 ISZERO PUSH2 0x2320 JUMPI POP DUP2 JUMPDEST ISZERO PUSH2 0x232E JUMPI PUSH2 0x2309 DUP10 PUSH2 0x2627 JUMP JUMPDEST DUP3 PUSH2 0x243B JUMPI PUSH1 0x1 PUSH1 0xC DUP11 DUP2 SLOAD DUP2 LT PUSH2 0x2348 JUMPI PUSH2 0x2348 PUSH2 0x3049 JUMP JUMPDEST SWAP1 PUSH1 0x0 MSTORE PUSH1 0x20 PUSH1 0x0 KECCAK256 ADD DUP2 SWAP1 SSTORE POP PUSH1 0x0 PUSH1 0xA DUP11 DUP2 SLOAD DUP2 LT PUSH2 0x236B JUMPI PUSH2 0x236B PUSH2 0x3049 JUMP JUMPDEST SWAP1 PUSH1 0x0 MSTORE PUSH1 0x20 PUSH1 0x0 KECCAK256 ADD DUP2 SWAP1 SSTORE POP PUSH2 0x2309 DUP10 DUP7 PUSH1 0x6 PUSH1 0x0 DUP14 DUP2 MSTORE PUSH1 0x20 ADD SWAP1 DUP2 MSTORE PUSH1 0x20 ADD PUSH1 0x0 KECCAK256 PUSH1 0x0 DUP2 SLOAD DUP2 LT PUSH2 0x23A3 JUMPI PUSH2 0x23A3 PUSH2 0x3049 JUMP JUMPDEST SWAP1 PUSH1 0x0 MSTORE PUSH1 0x20 PUSH1 0x0 KECCAK256 ADD DUP1 SLOAD PUSH2 0x23B8 SWAP1 PUSH2 0x300F JUMP JUMPDEST DUP1 PUSH1 0x1F ADD PUSH1 0x20 DUP1 SWAP2 DIV MUL PUSH1 0x20 ADD PUSH1 0x40 MLOAD SWAP1 DUP2 ADD PUSH1 0x40 MSTORE DUP1 SWAP3 SWAP2 SWAP1 DUP2 DUP2 MSTORE PUSH1 0x20 ADD DUP3 DUP1 SLOAD PUSH2 0x23E4 SWAP1 PUSH2 0x300F JUMP JUMPDEST DUP1 ISZERO PUSH2 0x2431 JUMPI DUP1 PUSH1 0x1F LT PUSH2 0x2406 JUMPI PUSH2 0x100 DUP1 DUP4 SLOAD DIV MUL DUP4 MSTORE SWAP2 PUSH1 0x20 ADD SWAP2 PUSH2 0x2431 JUMP JUMPDEST DUP3 ADD SWAP2 SWAP1 PUSH1 0x0 MSTORE PUSH1 0x20 PUSH1 0x0 KECCAK256 SWAP1 JUMPDEST DUP2 SLOAD DUP2 MSTORE SWAP1 PUSH1 0x1 ADD SWAP1 PUSH1 0x20 ADD DUP1 DUP4 GT PUSH2 0x2414 JUMPI DUP3 SWAP1 SUB PUSH1 0x1F AND DUP3 ADD SWAP2 JUMPDEST POP POP POP POP POP PUSH2 0x26B1 JUMP JUMPDEST CALLER PUSH1 0x1 PUSH1 0x1 PUSH1 0xA0 SHL SUB AND PUSH32 0xFC98137258110AA472F6DBF39F2051F7045162382F61B13BB1445BDB0A3E8B8A PUSH1 0x2 PUSH1 0x0 DUP13 DUP2 MSTORE PUSH1 0x20 ADD SWAP1 DUP2 MSTORE PUSH1 0x20 ADD PUSH1 0x0 KECCAK256 PUSH1 0x2 ADD DUP10 PUSH1 0x40 MLOAD PUSH2 0x248B SWAP3 SWAP2 SWAP1 PUSH2 0x32DA JUMP JUMPDEST PUSH1 0x40 MLOAD DUP1 SWAP2 SUB SWAP1 LOG2 JUMPDEST POP POP POP POP POP POP POP POP POP JUMP JUMPDEST PUSH1 0xB DUP5 DUP2 SLOAD DUP2 LT PUSH2 0x24B2 JUMPI PUSH2 0x24B2 PUSH2 0x3049 JUMP JUMPDEST SWAP1 PUSH1 0x0 MSTORE PUSH1 0x20 PUSH1 0x0 KECCAK256 ADD SLOAD PUSH1 0x0 SUB PUSH2 0x24D4 JUMPI PUSH2 0x24CF DUP5 DUP3 DUP6 PUSH2 0x27AB JUMP JUMPDEST PUSH2 0xA0E JUMP JUMPDEST PUSH2 0xA0E DUP5 DUP5 DUP5 PUSH2 0x27E3 JUMP JUMPDEST PUSH1 0x0 DUP1 DUP1 JUMPDEST DUP4 MLOAD DUP2 LT ISZERO PUSH2 0x261F JUMPI PUSH1 0x0 DUP6 DUP2 MSTORE PUSH1 0x5 PUSH1 0x20 MSTORE PUSH1 0x40 SWAP1 KECCAK256 SLOAD ISZERO PUSH2 0x2617 JUMPI PUSH1 0x0 DUP6 DUP2 MSTORE PUSH1 0x5 PUSH1 0x20 MSTORE PUSH1 0x40 DUP2 KECCAK256 DUP1 SLOAD PUSH2 0x25CB SWAP3 SWAP1 PUSH2 0x2522 JUMPI PUSH2 0x2522 PUSH2 0x3049 JUMP JUMPDEST SWAP1 PUSH1 0x0 MSTORE PUSH1 0x20 PUSH1 0x0 KECCAK256 ADD DUP1 SLOAD PUSH2 0x2537 SWAP1 PUSH2 0x300F JUMP JUMPDEST DUP1 PUSH1 0x1F ADD PUSH1 0x20 DUP1 SWAP2 DIV MUL PUSH1 0x20 ADD PUSH1 0x40 MLOAD SWAP1 DUP2 ADD PUSH1 0x40 MSTORE DUP1 SWAP3 SWAP2 SWAP1 DUP2 DUP2 MSTORE PUSH1 0x20 ADD DUP3 DUP1 SLOAD PUSH2 0x2563 SWAP1 PUSH2 0x300F JUMP JUMPDEST DUP1 ISZERO PUSH2 0x25B0 JUMPI DUP1 PUSH1 0x1F LT PUSH2 0x2585 JUMPI PUSH2 0x100 DUP1 DUP4 SLOAD DIV MUL DUP4 MSTORE SWAP2 PUSH1 0x20 ADD SWAP2 PUSH2 0x25B0 JUMP JUMPDEST DUP3 ADD SWAP2 SWAP1 PUSH1 0x0 MSTORE PUSH1 0x20 PUSH1 0x0 KECCAK256 SWAP1 JUMPDEST DUP2 SLOAD DUP2 MSTORE SWAP1 PUSH1 0x1 ADD SWAP1 PUSH1 0x20 ADD DUP1 DUP4 GT PUSH2 0x2593 JUMPI DUP3 SWAP1 SUB PUSH1 0x1F AND DUP3 ADD SWAP2 JUMPDEST POP POP POP POP POP PUSH1 0x2 PUSH1 0x0 DUP8 DUP6 DUP2 MLOAD DUP2 LT PUSH2 0x109F JUMPI PUSH2 0x109F PUSH2 0x3049 JUMP JUMPDEST ISZERO PUSH2 0x2617 JUMPI PUSH1 0xC DUP5 DUP3 DUP2 MLOAD DUP2 LT PUSH2 0x25E4 JUMPI PUSH2 0x25E4 PUSH2 0x3049 JUMP JUMPDEST PUSH1 0x20 MUL PUSH1 0x20 ADD ADD MLOAD DUP2 SLOAD DUP2 LT PUSH2 0x25FC JUMPI PUSH2 0x25FC PUSH2 0x3049 JUMP JUMPDEST SWAP1 PUSH1 0x0 MSTORE PUSH1 0x20 PUSH1 0x0 KECCAK256 ADD SLOAD PUSH1 0x1 SUB PUSH2 0x2617 JUMPI PUSH1 0x1 SWAP2 POP PUSH2 0x261F JUMP JUMPDEST PUSH1 0x1 ADD PUSH2 0x24E4 JUMP JUMPDEST POP SWAP4 SWAP3 POP POP POP JUMP JUMPDEST PUSH1 0x0 PUSH1 0xB DUP3 DUP2 SLOAD DUP2 LT PUSH2 0x263C JUMPI PUSH2 0x263C PUSH2 0x3049 JUMP JUMPDEST SWAP1 PUSH1 0x0 MSTORE PUSH1 0x20 PUSH1 0x0 KECCAK256 ADD DUP2 SWAP1 SSTORE POP PUSH1 0x0 PUSH1 0xA DUP3 DUP2 SLOAD DUP2 LT PUSH2 0x265F JUMPI PUSH2 0x265F PUSH2 0x3049 JUMP JUMPDEST SWAP1 PUSH1 0x0 MSTORE PUSH1 0x20 PUSH1 0x0 KECCAK256 ADD DUP2 SWAP1 SSTORE POP PUSH1 0x1 PUSH1 0xC DUP3 DUP2 SLOAD DUP2 LT PUSH2 0x2682 JUMPI PUSH2 0x2682 PUSH2 0x3049 JUMP JUMPDEST PUSH1 0x0 SWAP2 DUP3 MSTORE PUSH1 0x20 DUP1 DUP4 KECCAK256 SWAP1 SWAP2 ADD SWAP3 SWAP1 SWAP3 SSTORE DUP3 DUP2 MSTORE PUSH1 0x3 SWAP1 SWAP2 MSTORE PUSH1 0x40 SWAP1 KECCAK256 SLOAD ISZERO PUSH2 0x26AE JUMPI PUSH2 0x26AE DUP2 PUSH2 0x980 JUMP JUMPDEST POP JUMP JUMPDEST PUSH1 0x0 JUMPDEST PUSH1 0x0 DUP5 DUP2 MSTORE PUSH1 0x6 PUSH1 0x20 MSTORE PUSH1 0x40 SWAP1 KECCAK256 SLOAD DUP2 LT ISZERO PUSH2 0xA0E JUMPI PUSH1 0x0 JUMPDEST DUP4 MLOAD DUP2 LT ISZERO PUSH2 0x27A2 JUMPI PUSH2 0x26F0 DUP4 PUSH1 0x2 PUSH1 0x0 DUP8 DUP6 DUP2 MLOAD DUP2 LT PUSH2 0x109F JUMPI PUSH2 0x109F PUSH2 0x3049 JUMP JUMPDEST DUP1 ISZERO PUSH2 0x2732 JUMPI POP PUSH1 0x1 PUSH1 0xC DUP6 DUP4 DUP2 MLOAD DUP2 LT PUSH2 0x270D JUMPI PUSH2 0x270D PUSH2 0x3049 JUMP JUMPDEST PUSH1 0x20 MUL PUSH1 0x20 ADD ADD MLOAD DUP2 SLOAD DUP2 LT PUSH2 0x2725 JUMPI PUSH2 0x2725 PUSH2 0x3049 JUMP JUMPDEST SWAP1 PUSH1 0x0 MSTORE PUSH1 0x20 PUSH1 0x0 KECCAK256 ADD SLOAD LT JUMPDEST ISZERO PUSH2 0x279A JUMPI PUSH1 0x1 PUSH1 0xC DUP6 DUP4 DUP2 MLOAD DUP2 LT PUSH2 0x274D JUMPI PUSH2 0x274D PUSH2 0x3049 JUMP JUMPDEST PUSH1 0x20 MUL PUSH1 0x20 ADD ADD MLOAD DUP2 SLOAD DUP2 LT PUSH2 0x2765 JUMPI PUSH2 0x2765 PUSH2 0x3049 JUMP JUMPDEST SWAP1 PUSH1 0x0 MSTORE PUSH1 0x20 PUSH1 0x0 KECCAK256 ADD DUP2 SWAP1 SSTORE POP PUSH2 0x2795 DUP5 DUP3 DUP2 MLOAD DUP2 LT PUSH2 0x2788 JUMPI PUSH2 0x2788 PUSH2 0x3049 JUMP JUMPDEST PUSH1 0x20 MUL PUSH1 0x20 ADD ADD MLOAD PUSH2 0x980 JUMP JUMPDEST PUSH2 0x27A2 JUMP JUMPDEST PUSH1 0x1 ADD PUSH2 0x26CD JUMP JUMPDEST POP PUSH1 0x1 ADD PUSH2 0x26B4 JUMP JUMPDEST DUP2 ISZERO PUSH2 0x27CE JUMPI PUSH1 0x0 DUP4 DUP2 MSTORE PUSH1 0x2 PUSH1 0x20 MSTORE PUSH1 0x40 SWAP1 KECCAK256 PUSH1 0x5 ADD PUSH2 0x27CC DUP3 DUP3 PUSH2 0x3167 JUMP JUMPDEST POP JUMPDEST PUSH1 0x1 PUSH1 0xB DUP5 DUP2 SLOAD DUP2 LT PUSH2 0x1E14 JUMPI PUSH2 0x1E14 PUSH2 0x3049 JUMP JUMPDEST PUSH1 0x0 DUP4 DUP2 MSTORE PUSH1 0x2 PUSH1 0x20 MSTORE PUSH1 0x40 SWAP1 KECCAK256 PUSH1 0x6 ADD PUSH2 0x27FE DUP4 DUP3 PUSH2 0x3167 JUMP JUMPDEST POP PUSH1 0x0 PUSH2 0x280B PUSH1 0x0 PUSH2 0xA7B JUMP JUMPDEST PUSH1 0x0 DUP6 DUP2 MSTORE PUSH1 0x6 PUSH1 0x20 MSTORE PUSH1 0x40 DUP2 KECCAK256 SLOAD SWAP2 SWAP3 POP SWAP1 ISZERO ISZERO SWAP1 PUSH2 0x282B DUP7 DUP5 PUSH2 0x24DF JUMP JUMPDEST SWAP1 POP PUSH1 0x0 PUSH2 0x2839 DUP8 DUP6 PUSH2 0x24DF JUMP JUMPDEST SWAP1 POP DUP3 ISZERO DUP1 PUSH2 0x284D JUMPI POP DUP2 DUP1 ISZERO PUSH2 0x284D JUMPI POP DUP1 JUMPDEST ISZERO PUSH2 0x2860 JUMPI PUSH2 0x285B DUP8 PUSH2 0x2627 JUMP JUMPDEST PUSH2 0x292E JUMP JUMPDEST DUP2 PUSH2 0x28D5 JUMPI PUSH1 0x1 PUSH1 0xB DUP9 DUP2 SLOAD DUP2 LT PUSH2 0x287A JUMPI PUSH2 0x287A PUSH2 0x3049 JUMP JUMPDEST SWAP1 PUSH1 0x0 MSTORE PUSH1 0x20 PUSH1 0x0 KECCAK256 ADD DUP2 SWAP1 SSTORE POP PUSH1 0x0 PUSH1 0xA DUP9 DUP2 SLOAD DUP2 LT PUSH2 0x289D JUMPI PUSH2 0x289D PUSH2 0x3049 JUMP JUMPDEST SWAP1 PUSH1 0x0 MSTORE PUSH1 0x20 PUSH1 0x0 KECCAK256 ADD DUP2 SWAP1 SSTORE POP PUSH2 0x285B DUP8 DUP6 PUSH1 0x6 PUSH1 0x0 DUP12 DUP2 MSTORE PUSH1 0x20 ADD SWAP1 DUP2 MSTORE PUSH1 0x20 ADD PUSH1 0x0 KECCAK256 PUSH1 0x0 DUP2 SLOAD DUP2 LT PUSH2 0x23A3 JUMPI PUSH2 0x23A3 PUSH2 0x3049 JUMP JUMPDEST CALLER PUSH1 0x1 PUSH1 0x1 PUSH1 0xA0 SHL SUB AND PUSH32 0xFC98137258110AA472F6DBF39F2051F7045162382F61B13BB1445BDB0A3E8B8A PUSH1 0x2 PUSH1 0x0 DUP11 DUP2 MSTORE PUSH1 0x20 ADD SWAP1 DUP2 MSTORE PUSH1 0x20 ADD PUSH1 0x0 KECCAK256 PUSH1 0x2 ADD DUP8 PUSH1 0x40 MLOAD PUSH2 0x2925 SWAP3 SWAP2 SWAP1 PUSH2 0x32DA JUMP JUMPDEST PUSH1 0x40 MLOAD DUP1 SWAP2 SUB SWAP1 LOG2 JUMPDEST POP POP POP POP POP POP POP JUMP JUMPDEST POP DUP1 SLOAD PUSH1 0x0 DUP3 SSTORE SWAP1 PUSH1 0x0 MSTORE PUSH1 0x20 PUSH1 0x0 KECCAK256 SWAP1 DUP2 ADD SWAP1 PUSH2 0x26AE SWAP2 SWAP1 PUSH2 0x29A0 JUMP JUMPDEST DUP3 DUP1 SLOAD DUP3 DUP3 SSTORE SWAP1 PUSH1 0x0 MSTORE PUSH1 0x20 PUSH1 0x0 KECCAK256 SWAP1 DUP2 ADD SWAP3 DUP3 ISZERO PUSH2 0x2990 JUMPI SWAP2 PUSH1 0x20 MUL DUP3 ADD JUMPDEST DUP3 DUP2 GT ISZERO PUSH2 0x2990 JUMPI DUP3 MLOAD DUP3 SSTORE SWAP2 PUSH1 0x20 ADD SWAP2 SWAP1 PUSH1 0x1 ADD SWAP1 PUSH2 0x2975 JUMP JUMPDEST POP PUSH2 0x299C SWAP3 SWAP2 POP PUSH2 0x29A0 JUMP JUMPDEST POP SWAP1 JUMP JUMPDEST JUMPDEST DUP1 DUP3 GT ISZERO PUSH2 0x299C JUMPI PUSH1 0x0 DUP2 SSTORE PUSH1 0x1 ADD PUSH2 0x29A1 JUMP JUMPDEST PUSH1 0x20 DUP1 DUP3 MSTORE DUP3 MLOAD DUP3 DUP3 ADD DUP2 SWAP1 MSTORE PUSH1 0x0 SWAP2 SWAP1 DUP5 DUP3 ADD SWAP1 PUSH1 0x40 DUP6 ADD SWAP1 DUP5 JUMPDEST DUP2 DUP2 LT ISZERO PUSH2 0x29ED JUMPI DUP4 MLOAD DUP4 MSTORE SWAP3 DUP5 ADD SWAP3 SWAP2 DUP5 ADD SWAP2 PUSH1 0x1 ADD PUSH2 0x29D1 JUMP JUMPDEST POP SWAP1 SWAP7 SWAP6 POP POP POP POP POP POP JUMP JUMPDEST PUSH1 0x0 PUSH1 0x20 DUP3 DUP5 SUB SLT ISZERO PUSH2 0x2A0B JUMPI PUSH1 0x0 DUP1 REVERT JUMPDEST POP CALLDATALOAD SWAP2 SWAP1 POP JUMP JUMPDEST PUSH4 0x4E487B71 PUSH1 0xE0 SHL PUSH1 0x0 MSTORE PUSH1 0x21 PUSH1 0x4 MSTORE PUSH1 0x24 PUSH1 0x0 REVERT JUMPDEST PUSH1 0x0 JUMPDEST DUP4 DUP2 LT ISZERO PUSH2 0x2A43 JUMPI DUP2 DUP2 ADD MLOAD DUP4 DUP3 ADD MSTORE PUSH1 0x20 ADD PUSH2 0x2A2B JUMP JUMPDEST POP POP PUSH1 0x0 SWAP2 ADD MSTORE JUMP JUMPDEST PUSH1 0x0 DUP2 MLOAD DUP1 DUP5 MSTORE PUSH2 0x2A64 DUP2 PUSH1 0x20 DUP7 ADD PUSH1 0x20 DUP7 ADD PUSH2 0x2A28 JUMP JUMPDEST PUSH1 0x1F ADD PUSH1 0x1F NOT AND SWAP3 SWAP1 SWAP3 ADD PUSH1 0x20 ADD SWAP3 SWAP2 POP POP JUMP JUMPDEST PUSH1 0x0 PUSH2 0x100 DUP11 DUP4 MSTORE PUSH1 0x8 DUP11 LT PUSH2 0x2A9E JUMPI PUSH4 0x4E487B71 PUSH1 0xE0 SHL PUSH1 0x0 MSTORE PUSH1 0x21 PUSH1 0x4 MSTORE PUSH1 0x24 PUSH1 0x0 REVERT JUMPDEST DUP10 PUSH1 0x20 DUP5 ADD MSTORE DUP1 PUSH1 0x40 DUP5 ADD MSTORE PUSH2 0x2AB6 DUP2 DUP5 ADD DUP11 PUSH2 0x2A4C JUMP JUMPDEST SWAP1 POP DUP3 DUP2 SUB PUSH1 0x60 DUP5 ADD MSTORE PUSH2 0x2ACA DUP2 DUP10 PUSH2 0x2A4C JUMP JUMPDEST SWAP1 POP DUP3 DUP2 SUB PUSH1 0x80 DUP5 ADD MSTORE PUSH2 0x2ADE DUP2 DUP9 PUSH2 0x2A4C JUMP JUMPDEST SWAP1 POP DUP3 DUP2 SUB PUSH1 0xA0 DUP5 ADD MSTORE PUSH2 0x2AF2 DUP2 DUP8 PUSH2 0x2A4C JUMP JUMPDEST SWAP1 POP DUP3 DUP2 SUB PUSH1 0xC0 DUP5 ADD MSTORE PUSH2 0x2B06 DUP2 DUP7 PUSH2 0x2A4C JUMP JUMPDEST SWAP1 POP DUP3 DUP2 SUB PUSH1 0xE0 DUP5 ADD MSTORE PUSH2 0x2B1A DUP2 DUP6 PUSH2 0x2A4C JUMP JUMPDEST SWAP12 SWAP11 POP POP POP POP POP POP POP POP POP POP POP JUMP JUMPDEST PUSH1 0x0 DUP1 PUSH1 0x40 DUP4 DUP6 SUB SLT ISZERO PUSH2 0x2B3C JUMPI PUSH1 0x0 DUP1 REVERT JUMPDEST POP POP DUP1 CALLDATALOAD SWAP3 PUSH1 0x20 SWAP1 SWAP2 ADD CALLDATALOAD SWAP2 POP JUMP JUMPDEST PUSH1 0x20 DUP2 MSTORE PUSH1 0x0 PUSH2 0x2B5E PUSH1 0x20 DUP4 ADD DUP5 PUSH2 0x2A4C JUMP JUMPDEST SWAP4 SWAP3 POP POP POP JUMP JUMPDEST PUSH4 0x4E487B71 PUSH1 0xE0 SHL PUSH1 0x0 MSTORE PUSH1 0x41 PUSH1 0x4 MSTORE PUSH1 0x24 PUSH1 0x0 REVERT JUMPDEST PUSH1 0x40 MLOAD PUSH1 0x1F DUP3 ADD PUSH1 0x1F NOT AND DUP2 ADD PUSH8 0xFFFFFFFFFFFFFFFF DUP2 GT DUP3 DUP3 LT OR ISZERO PUSH2 0x2BA4 JUMPI PUSH2 0x2BA4 PUSH2 0x2B65 JUMP JUMPDEST PUSH1 0x40 MSTORE SWAP2 SWAP1 POP JUMP JUMPDEST PUSH1 0x0 DUP1 PUSH1 0x40 DUP4 DUP6 SUB SLT ISZERO PUSH2 0x2BBF JUMPI PUSH1 0x0 DUP1 REVERT JUMPDEST DUP3 CALLDATALOAD SWAP2 POP PUSH1 0x20 DUP1 DUP5 ADD CALLDATALOAD PUSH8 0xFFFFFFFFFFFFFFFF DUP1 DUP3 GT ISZERO PUSH2 0x2BDF JUMPI PUSH1 0x0 DUP1 REVERT JUMPDEST DUP2 DUP7 ADD SWAP2 POP DUP7 PUSH1 0x1F DUP4 ADD SLT PUSH2 0x2BF3 JUMPI PUSH1 0x0 DUP1 REVERT JUMPDEST DUP2 CALLDATALOAD DUP2 DUP2 GT ISZERO PUSH2 0x2C05 JUMPI PUSH2 0x2C05 PUSH2 0x2B65 JUMP JUMPDEST DUP1 PUSH1 0x5 SHL SWAP2 POP PUSH2 0x2C16 DUP5 DUP4 ADD PUSH2 0x2B7B JUMP JUMPDEST DUP2 DUP2 MSTORE SWAP2 DUP4 ADD DUP5 ADD SWAP2 DUP5 DUP2 ADD SWAP1 DUP10 DUP5 GT ISZERO PUSH2 0x2C30 JUMPI PUSH1 0x0 DUP1 REVERT JUMPDEST SWAP4 DUP6 ADD SWAP4 JUMPDEST DUP4 DUP6 LT ISZERO PUSH2 0x2C4E JUMPI DUP5 CALLDATALOAD DUP3 MSTORE SWAP4 DUP6 ADD SWAP4 SWAP1 DUP6 ADD SWAP1 PUSH2 0x2C35 JUMP JUMPDEST DUP1 SWAP7 POP POP POP POP POP POP POP SWAP3 POP SWAP3 SWAP1 POP JUMP JUMPDEST DUP8 DUP2 MSTORE DUP7 PUSH1 0x20 DUP3 ADD MSTORE PUSH1 0xE0 PUSH1 0x40 DUP3 ADD MSTORE PUSH1 0x0 PUSH2 0x2C7D PUSH1 0xE0 DUP4 ADD DUP9 PUSH2 0x2A4C JUMP JUMPDEST DUP3 DUP2 SUB PUSH1 0x60 DUP5 ADD MSTORE PUSH2 0x2C8F DUP2 DUP9 PUSH2 0x2A4C JUMP JUMPDEST SWAP1 POP DUP3 DUP2 SUB PUSH1 0x80 DUP5 ADD MSTORE PUSH2 0x2CA3 DUP2 DUP8 PUSH2 0x2A4C JUMP JUMPDEST SWAP1 POP DUP3 DUP2 SUB PUSH1 0xA0 DUP5 ADD MSTORE PUSH2 0x2CB7 DUP2 DUP7 PUSH2 0x2A4C JUMP JUMPDEST SWAP1 POP DUP3 DUP2 SUB PUSH1 0xC0 DUP5 ADD MSTORE PUSH2 0x2CCB DUP2 DUP6 PUSH2 0x2A4C JUMP JUMPDEST SWAP11 SWAP10 POP POP POP POP POP POP POP POP POP POP JUMP JUMPDEST PUSH1 0x0 PUSH1 0x20 DUP3 DUP5 SUB SLT ISZERO PUSH2 0x2CEB JUMPI PUSH1 0x0 DUP1 REVERT JUMPDEST DUP2 CALLDATALOAD PUSH1 0x1 PUSH1 0x1 PUSH1 0xA0 SHL SUB DUP2 AND DUP2 EQ PUSH2 0x2B5E JUMPI PUSH1 0x0 DUP1 REVERT JUMPDEST PUSH1 0x0 DUP3 PUSH1 0x1F DUP4 ADD SLT PUSH2 0x2D13 JUMPI PUSH1 0x0 DUP1 REVERT JUMPDEST DUP2 CALLDATALOAD PUSH8 0xFFFFFFFFFFFFFFFF DUP2 GT ISZERO PUSH2 0x2D2D JUMPI PUSH2 0x2D2D PUSH2 0x2B65 JUMP JUMPDEST PUSH2 0x2D40 PUSH1 0x1F DUP3 ADD PUSH1 0x1F NOT AND PUSH1 0x20 ADD PUSH2 0x2B7B JUMP JUMPDEST DUP2 DUP2 MSTORE DUP5 PUSH1 0x20 DUP4 DUP7 ADD ADD GT ISZERO PUSH2 0x2D55 JUMPI PUSH1 0x0 DUP1 REVERT JUMPDEST DUP2 PUSH1 0x20 DUP6 ADD PUSH1 0x20 DUP4 ADD CALLDATACOPY PUSH1 0x0 SWAP2 DUP2 ADD PUSH1 0x20 ADD SWAP2 SWAP1 SWAP2 MSTORE SWAP4 SWAP3 POP POP POP JUMP JUMPDEST PUSH1 0x0 DUP1 PUSH1 0x0 DUP1 PUSH1 0x80 DUP6 DUP8 SUB SLT ISZERO PUSH2 0x2D88 JUMPI PUSH1 0x0 DUP1 REVERT JUMPDEST DUP5 CALLDATALOAD SWAP4 POP PUSH1 0x20 DUP6 ADD CALLDATALOAD PUSH8 0xFFFFFFFFFFFFFFFF DUP1 DUP3 GT ISZERO PUSH2 0x2DA7 JUMPI PUSH1 0x0 DUP1 REVERT JUMPDEST PUSH2 0x2DB3 DUP9 DUP4 DUP10 ADD PUSH2 0x2D02 JUMP JUMPDEST SWAP5 POP PUSH1 0x40 DUP8 ADD CALLDATALOAD SWAP2 POP DUP1 DUP3 GT ISZERO PUSH2 0x2DC9 JUMPI PUSH1 0x0 DUP1 REVERT JUMPDEST PUSH2 0x2DD5 DUP9 DUP4 DUP10 ADD PUSH2 0x2D02 JUMP JUMPDEST SWAP4 POP PUSH1 0x60 DUP8 ADD CALLDATALOAD SWAP2 POP DUP1 DUP3 GT ISZERO PUSH2 0x2DEB JUMPI PUSH1 0x0 DUP1 REVERT JUMPDEST POP PUSH2 0x2DF8 DUP8 DUP3 DUP9 ADD PUSH2 0x2D02 JUMP JUMPDEST SWAP2 POP POP SWAP3 SWAP6 SWAP2 SWAP5 POP SWAP3 POP JUMP JUMPDEST PUSH1 0x0 PUSH1 0x20 DUP3 DUP5 SUB SLT ISZERO PUSH2 0x2E16 JUMPI PUSH1 0x0 DUP1 REVERT JUMPDEST DUP2 CALLDATALOAD PUSH8 0xFFFFFFFFFFFFFFFF DUP2 GT ISZERO PUSH2 0x2E2D JUMPI PUSH1 0x0 DUP1 REVERT JUMPDEST PUSH2 0x2E39 DUP5 DUP3 DUP6 ADD PUSH2 0x2D02 JUMP JUMPDEST SWAP5 SWAP4 POP POP POP POP JUMP JUMPDEST DUP1 CALLDATALOAD PUSH1 0x8 DUP2 LT PUSH2 0x2E50 JUMPI PUSH1 0x0 DUP1 REVERT JUMPDEST SWAP2 SWAP1 POP JUMP JUMPDEST PUSH1 0x0 DUP1 PUSH1 0x0 DUP1 PUSH1 0x0 DUP1 PUSH1 0x0 DUP1 PUSH2 0x100 DUP10 DUP12 SUB SLT ISZERO PUSH2 0x2E72 JUMPI PUSH1 0x0 DUP1 REVERT JUMPDEST DUP9 CALLDATALOAD SWAP8 POP PUSH2 0x2E82 PUSH1 0x20 DUP11 ADD PUSH2 0x2E41 JUMP JUMPDEST SWAP7 POP PUSH1 0x40 DUP10 ADD CALLDATALOAD PUSH8 0xFFFFFFFFFFFFFFFF DUP1 DUP3 GT ISZERO PUSH2 0x2E9F JUMPI PUSH1 0x0 DUP1 REVERT JUMPDEST PUSH2 0x2EAB DUP13 DUP4 DUP14 ADD PUSH2 0x2D02 JUMP JUMPDEST SWAP8 POP PUSH1 0x60 DUP12 ADD CALLDATALOAD SWAP2 POP DUP1 DUP3 GT ISZERO PUSH2 0x2EC1 JUMPI PUSH1 0x0 DUP1 REVERT JUMPDEST PUSH2 0x2ECD DUP13 DUP4 DUP14 ADD PUSH2 0x2D02 JUMP JUMPDEST SWAP7 POP PUSH1 0x80 DUP12 ADD CALLDATALOAD SWAP2 POP DUP1 DUP3 GT ISZERO PUSH2 0x2EE3 JUMPI PUSH1 0x0 DUP1 REVERT JUMPDEST PUSH2 0x2EEF DUP13 DUP4 DUP14 ADD PUSH2 0x2D02 JUMP JUMPDEST SWAP6 POP PUSH1 0xA0 DUP12 ADD CALLDATALOAD SWAP2 POP DUP1 DUP3 GT ISZERO PUSH2 0x2F05 JUMPI PUSH1 0x0 DUP1 REVERT JUMPDEST PUSH2 0x2F11 DUP13 DUP4 DUP14 ADD PUSH2 0x2D02 JUMP JUMPDEST SWAP5 POP PUSH1 0xC0 DUP12 ADD CALLDATALOAD SWAP2 POP DUP1 DUP3 GT ISZERO PUSH2 0x2F27 JUMPI PUSH1 0x0 DUP1 REVERT JUMPDEST PUSH2 0x2F33 DUP13 DUP4 DUP14 ADD PUSH2 0x2D02 JUMP JUMPDEST SWAP4 POP PUSH1 0xE0 DUP12 ADD CALLDATALOAD SWAP2 POP DUP1 DUP3 GT ISZERO PUSH2 0x2F49 JUMPI PUSH1 0x0 DUP1 REVERT JUMPDEST POP PUSH2 0x2F56 DUP12 DUP3 DUP13 ADD PUSH2 0x2D02 JUMP JUMPDEST SWAP2 POP POP SWAP3 SWAP6 SWAP9 POP SWAP3 SWAP6 SWAP9 SWAP1 SWAP4 SWAP7 POP JUMP JUMPDEST PUSH1 0x0 DUP1 PUSH1 0x40 DUP4 DUP6 SUB SLT ISZERO PUSH2 0x2F79 JUMPI PUSH1 0x0 DUP1 REVERT JUMPDEST DUP3 CALLDATALOAD PUSH8 0xFFFFFFFFFFFFFFFF DUP2 GT ISZERO PUSH2 0x2F90 JUMPI PUSH1 0x0 DUP1 REVERT JUMPDEST PUSH2 0x2F9C DUP6 DUP3 DUP7 ADD PUSH2 0x2D02 JUMP JUMPDEST SWAP6 PUSH1 0x20 SWAP5 SWAP1 SWAP5 ADD CALLDATALOAD SWAP5 POP POP POP POP JUMP JUMPDEST PUSH1 0x0 DUP1 PUSH1 0x40 DUP4 DUP6 SUB SLT ISZERO PUSH2 0x2FBE JUMPI PUSH1 0x0 DUP1 REVERT JUMPDEST DUP3 CALLDATALOAD PUSH8 0xFFFFFFFFFFFFFFFF DUP1 DUP3 GT ISZERO PUSH2 0x2FD6 JUMPI PUSH1 0x0 DUP1 REVERT JUMPDEST PUSH2 0x2FE2 DUP7 DUP4 DUP8 ADD PUSH2 0x2D02 JUMP JUMPDEST SWAP4 POP PUSH1 0x20 DUP6 ADD CALLDATALOAD SWAP2 POP DUP1 DUP3 GT ISZERO PUSH2 0x2FF8 JUMPI PUSH1 0x0 DUP1 REVERT JUMPDEST POP PUSH2 0x3005 DUP6 DUP3 DUP7 ADD PUSH2 0x2D02 JUMP JUMPDEST SWAP2 POP POP SWAP3 POP SWAP3 SWAP1 POP JUMP JUMPDEST PUSH1 0x1 DUP2 DUP2 SHR SWAP1 DUP3 AND DUP1 PUSH2 0x3023 JUMPI PUSH1 0x7F DUP3 AND SWAP2 POP JUMPDEST PUSH1 0x20 DUP3 LT DUP2 SUB PUSH2 0x3043 JUMPI PUSH4 0x4E487B71 PUSH1 0xE0 SHL PUSH1 0x0 MSTORE PUSH1 0x22 PUSH1 0x4 MSTORE PUSH1 0x24 PUSH1 0x0 REVERT JUMPDEST POP SWAP2 SWAP1 POP JUMP JUMPDEST PUSH4 0x4E487B71 PUSH1 0xE0 SHL PUSH1 0x0 MSTORE PUSH1 0x32 PUSH1 0x4 MSTORE PUSH1 0x24 PUSH1 0x0 REVERT JUMPDEST PUSH1 0x0 DUP2 SLOAD PUSH2 0x306C DUP2 PUSH2 0x300F JUMP JUMPDEST DUP1 DUP6 MSTORE PUSH1 0x20 PUSH1 0x1 DUP4 DUP2 AND DUP1 ISZERO PUSH2 0x3089 JUMPI PUSH1 0x1 DUP2 EQ PUSH2 0x30A3 JUMPI PUSH2 0x30D1 JUMP JUMPDEST PUSH1 0xFF NOT DUP6 AND DUP9 DUP5 ADD MSTORE DUP4 ISZERO ISZERO PUSH1 0x5 SHL DUP9 ADD DUP4 ADD SWAP6 POP PUSH2 0x30D1 JUMP JUMPDEST DUP7 PUSH1 0x0 MSTORE DUP3 PUSH1 0x0 KECCAK256 PUSH1 0x0 JUMPDEST DUP6 DUP2 LT ISZERO PUSH2 0x30C9 JUMPI DUP2 SLOAD DUP11 DUP3 ADD DUP7 ADD MSTORE SWAP1 DUP4 ADD SWAP1 DUP5 ADD PUSH2 0x30AE JUMP JUMPDEST DUP10 ADD DUP5 ADD SWAP7 POP POP JUMPDEST POP POP POP POP POP SWAP3 SWAP2 POP POP JUMP JUMPDEST PUSH1 0x60 DUP2 MSTORE PUSH1 0x0 PUSH2 0x30EF PUSH1 0x60 DUP4 ADD DUP7 PUSH2 0x305F JUMP JUMPDEST DUP3 DUP2 SUB PUSH1 0x20 DUP5 ADD MSTORE PUSH2 0x3101 DUP2 DUP7 PUSH2 0x2A4C JUMP JUMPDEST SWAP1 POP DUP3 DUP2 SUB PUSH1 0x40 DUP5 ADD MSTORE PUSH2 0x3115 DUP2 DUP6 PUSH2 0x2A4C JUMP JUMPDEST SWAP7 SWAP6 POP POP POP POP POP POP JUMP JUMPDEST PUSH1 0x1F DUP3 GT ISZERO PUSH2 0x16F6 JUMPI PUSH1 0x0 DUP2 PUSH1 0x0 MSTORE PUSH1 0x20 PUSH1 0x0 KECCAK256 PUSH1 0x1F DUP6 ADD PUSH1 0x5 SHR DUP2 ADD PUSH1 0x20 DUP7 LT ISZERO PUSH2 0x3148 JUMPI POP DUP1 JUMPDEST PUSH1 0x1F DUP6 ADD PUSH1 0x5 SHR DUP3 ADD SWAP2 POP JUMPDEST DUP2 DUP2 LT ISZERO PUSH2 0x1062 JUMPI DUP3 DUP2 SSTORE PUSH1 0x1 ADD PUSH2 0x3154 JUMP JUMPDEST DUP2 MLOAD PUSH8 0xFFFFFFFFFFFFFFFF DUP2 GT ISZERO PUSH2 0x3181 JUMPI PUSH2 0x3181 PUSH2 0x2B65 JUMP JUMPDEST PUSH2 0x3195 DUP2 PUSH2 0x318F DUP5 SLOAD PUSH2 0x300F JUMP JUMPDEST DUP5 PUSH2 0x311F JUMP JUMPDEST PUSH1 0x20 DUP1 PUSH1 0x1F DUP4 GT PUSH1 0x1 DUP2 EQ PUSH2 0x31CA JUMPI PUSH1 0x0 DUP5 ISZERO PUSH2 0x31B2 JUMPI POP DUP6 DUP4 ADD MLOAD JUMPDEST PUSH1 0x0 NOT PUSH1 0x3 DUP7 SWAP1 SHL SHR NOT AND PUSH1 0x1 DUP6 SWAP1 SHL OR DUP6 SSTORE PUSH2 0x1062 JUMP JUMPDEST PUSH1 0x0 DUP6 DUP2 MSTORE PUSH1 0x20 DUP2 KECCAK256 PUSH1 0x1F NOT DUP7 AND SWAP2 JUMPDEST DUP3 DUP2 LT ISZERO PUSH2 0x31F9 JUMPI DUP9 DUP7 ADD MLOAD DUP3 SSTORE SWAP5 DUP5 ADD SWAP5 PUSH1 0x1 SWAP1 SWAP2 ADD SWAP1 DUP5 ADD PUSH2 0x31DA JUMP JUMPDEST POP DUP6 DUP3 LT ISZERO PUSH2 0x3217 JUMPI DUP8 DUP6 ADD MLOAD PUSH1 0x0 NOT PUSH1 0x3 DUP9 SWAP1 SHL PUSH1 0xF8 AND SHR NOT AND DUP2 SSTORE JUMPDEST POP POP POP POP POP PUSH1 0x1 SWAP1 DUP2 SHL ADD SWAP1 SSTORE POP JUMP JUMPDEST DUP1 DUP3 ADD DUP1 DUP3 GT ISZERO PUSH2 0xA75 JUMPI PUSH4 0x4E487B71 PUSH1 0xE0 SHL PUSH1 0x0 MSTORE PUSH1 0x11 PUSH1 0x4 MSTORE PUSH1 0x24 PUSH1 0x0 REVERT JUMPDEST PUSH1 0x0 DUP3 MLOAD PUSH2 0x325A DUP2 DUP5 PUSH1 0x20 DUP8 ADD PUSH2 0x2A28 JUMP JUMPDEST SWAP2 SWAP1 SWAP2 ADD SWAP3 SWAP2 POP POP JUMP JUMPDEST PUSH1 0x0 DUP1 DUP4 SLOAD PUSH2 0x3272 DUP2 PUSH2 0x300F JUMP JUMPDEST PUSH1 0x1 DUP3 DUP2 AND DUP1 ISZERO PUSH2 0x328A JUMPI PUSH1 0x1 DUP2 EQ PUSH2 0x329F JUMPI PUSH2 0x32CE JUMP JUMPDEST PUSH1 0xFF NOT DUP5 AND DUP8 MSTORE DUP3 ISZERO ISZERO DUP4 MUL DUP8 ADD SWAP5 POP PUSH2 0x32CE JUMP JUMPDEST DUP8 PUSH1 0x0 MSTORE PUSH1 0x20 DUP1 PUSH1 0x0 KECCAK256 PUSH1 0x0 JUMPDEST DUP6 DUP2 LT ISZERO PUSH2 0x32C5 JUMPI DUP2 SLOAD DUP11 DUP3 ADD MSTORE SWAP1 DUP5 ADD SWAP1 DUP3 ADD PUSH2 0x32AC JUMP JUMPDEST POP POP POP DUP3 DUP8 ADD SWAP5 POP JUMPDEST POP SWAP3 SWAP7 SWAP6 POP POP POP POP POP POP JUMP JUMPDEST PUSH1 0x40 DUP2 MSTORE PUSH1 0x0 PUSH2 0x32ED PUSH1 0x40 DUP4 ADD DUP6 PUSH2 0x305F JUMP JUMPDEST DUP3 DUP2 SUB PUSH1 0x20 DUP5 ADD MSTORE PUSH2 0x32FF DUP2 DUP6 PUSH2 0x2A4C JUMP JUMPDEST SWAP6 SWAP5 POP POP POP POP POP JUMP INVALID LOG2 PUSH5 0x6970667358 0x22 SLT KECCAK256 0x22 TLOAD 0xBB SGT SMOD DUP13 PREVRANDAO BALANCE 0xF7 0xBA ISZERO GASLIMIT SWAP4 0xC9 0xE5 0xAA 0xE SIGNEXTEND DUP8 SWAP9 0xBF COINBASE CHAINID 0xB9 CALL ORIGIN NUMBER SWAP3 DUP13 PUSH5 0xA47864736F PUSH13 0x63430008180033506F736C6174 PUSH16 0x206F626176657374656E6A6520646120 PUSH11 0x65206B6172746963612067 PUSH16 0x746F7661506F736C6174207A61687465 PUSH23 0x7A6120706F6E6F766E696D20706F70756E6A6176616E6A PUSH6 0x6D506F736C61 PUSH21 0x6F5F6F626176657374656E6A655F6F5F6F6462696A PUSH2 0x6E6A PUSH22 0x5F7A6168746576615F7A626F6720737461726F737469 MSTORE8 PUSH13 0x757A6261207A6120697A726164 PUSH22 0x206B61727469636100000000000000005072696D6C6A PUSH6 0x6E6F206F6261 PUSH23 0x657374656E6A65206F206F6462696A616E6A757A626F67 KECCAK256 PUSH20 0x7461726F7374695072696D6C6A656E207A616874 PUSH6 0x76207A612070 PUSH16 0x6E6F766E696D20706F70756E6A617661 PUSH15 0x6A656D5072696D6C6A656E6F206F62 PUSH2 0x7665 PUSH20 0x74656E6A656F20746F6D65206461206A65206B61 PUSH19 0x7469636120676F746F76614B72616A2075736C PUSH6 0x64206F646269 PUSH11 0x616E6A61207A626F672073 PUSH21 0x61726F737469506F736C61746F206F626176657374 PUSH6 0x6E6A65206F20 PUSH16 0x6462696A616E6A75207A616874657661 "},"methodIdentifiers":{"ChildrenOptim(uint256,uint256)":"19dfc19d","Invoke(uint256,string,string,string)":"95755d17","MsgInOptim(uint256,uint256)":"581cf028","MsgOutOptim(uint256,uint256)":"ecd3645e","ParentsOptim(uint256,uint256)":"94d55eaf","activities(uint256)":"0d1657e8","addActivity(uint256,uint8,string,string,string,string,string,string)":"98d46dfd","addWorkflowInstance(string,uint256)":"a58603e0","addresses2lanes(address)":"86f61227","compareStrings(string,string)":"bed34bba","exists1(uint256,uint256[])":"59b97b97","getActivityDataFromActivityId(uint256)":"86209b87","getActivityIdsFromWorkflow(uint256)":"78660f5e","getExecuted()":"af12a571","getIncluded()":"09be70b2","getPending()":"11ae9ed2","getPosFromXML(string)":"97ada366","isChildrenOptimNotEmpty(uint256)":"24a4dd94","isMsgInOptimNotEmpty(uint256)":"5f03facd","isMsgOutOptimNotEmpty(uint256)":"0b09c8ce","isParentOptimNotEmpty(uint256)":"3a3e8a95","killProcess()":"79a42d06","setActivitiesSegment(string,string)":"c29de7ca","updateChildren(uint256)":"4b5ae077"}}}}}