{"contracts/facets/Process/ModelFactoryFacetV2.sol":{"ModelFactoryFacetV2":{"abi":[{"anonymous":false,"inputs":[{"indexed":false,"internalType":"string","name":"pName","type":"string"}],"name":"newModelFactory","type":"event"},{"inputs":[{"internalType":"string","name":"_name","type":"string"},{"components":[{"internalType":"uint256","name":"id","type":"uint256"},{"internalType":"enum LibApp.NodeType","name":"nodeType","type":"uint8"},{"internalType":"string","name":"xmlID","type":"string"},{"internalType":"string","name":"name","type":"string"},{"internalType":"string","name":"lane","type":"string"},{"internalType":"string","name":"dataIn","type":"string"},{"internalType":"string","name":"dataOut","type":"string"},{"internalType":"string","name":"timestamp","type":"string"}],"internalType":"struct LibApp.Activity[]","name":"_activities","type":"tuple[]"},{"internalType":"string[][]","name":"_tabChildrenOptim","type":"string[][]"},{"internalType":"string[][]","name":"_tabParentsOptim","type":"string[][]"},{"internalType":"string[][]","name":"_msgInOptim","type":"string[][]"},{"internalType":"string[][]","name":"_msgOutOptim","type":"string[][]"},{"internalType":"string[]","name":"_keyReplay","type":"string[]"},{"internalType":"string[][]","name":"_valueReplay","type":"string[][]"}],"name":"addModel","outputs":[],"stateMutability":"nonpayable","type":"function"}],"evm":{"bytecode":{"linkReferences":{},"object":"608060405234801561001057600080fd5b50610da4806100206000396000f3fe608060405234801561001057600080fd5b506004361061002b5760003560e01c80638d30bf3c14610030575b600080fd5b61004361003e366004610a44565b610045565b005b6040805180820190915260068152654d6f64656c5f60d01b60208201527f34b903b1c9f516e29bcc70e55a6bc2ac2c43ec324e4a6cfb468f0c027487621c908990600160005b8251811015610100578351811015806100ea57508281815181106100b1576100b1610b84565b602001015160f81c60f81b6001600160f81b0319168482815181106100d8576100d8610b84565b01602001516001600160f81b03191614155b156100f85760009150610100565b60010161008b565b508061015f5760405162461bcd60e51b815260206004820152602360248201527f4d6f64656c206e616d65206d757374207374617274207769746820274d6f64656044820152626c5f2760e81b60648201526084015b60405180910390fd5b604051849061016f908e90610bbe565b9081526040519081900360200190205460ff16156101c75760405162461bcd60e51b81526020600482015260156024820152742730b6b29034b99030b63932b0b23c903a30b5b2b760591b6044820152606401610156565b6001846000018d6040516101db9190610bbe565b908152604051908190036020018120805492151560ff19909316929092179091558b5190859061020c908f90610bbe565b9081526040519081900360200190206001015560005b6040518590610232908f90610bbe565b9081526020016040518091039020600101548110156104d5578b818151811061025d5761025d610b84565b6020026020010151856000018e6040516102779190610bbe565b908152604080516020928190038301902060008581526004909101835220825181559082015160018083018054909160ff19909116908360078111156102bf576102bf610bda565b0217905550604082015160028201906102d89082610c7b565b50606082015160038201906102ed9082610c7b565b50608082015160048201906103029082610c7b565b5060a082015160058201906103179082610c7b565b5060c0820151600682019061032c9082610c7b565b5060e082015160078201906103419082610c7b565b509050508a818151811061035757610357610b84565b6020026020010151856000018e6040516103719190610bbe565b9081526020016040518091039020600501600083815260200190815260200160002090805190602001906103a69291906105b6565b508981815181106103b9576103b9610b84565b6020026020010151856000018e6040516103d39190610bbe565b9081526020016040518091039020600601600083815260200190815260200160002090805190602001906104089291906105b6565b5088818151811061041b5761041b610b84565b6020026020010151856000018e6040516104359190610bbe565b90815260200160405180910390206007016000838152602001908152602001600020908051906020019061046a9291906105b6565b5087818151811061047d5761047d610b84565b6020026020010151856000018e6040516104979190610bbe565b9081526020016040518091039020600801600083815260200190815260200160002090805190602001906104cc9291906105b6565b50600101610222565b5060005b8651811015610570578581815181106104f4576104f4610b84565b6020026020010151856000018e60405161050e9190610bbe565b908152602001604051809103902060090188838151811061053157610531610b84565b60200260200101516040516105469190610bbe565b908152602001604051809103902090805190602001906105679291906105b6565b506001016104d9565b507f199aab2f4d8489f44c22def22ddc192f95a7736dda51493af0a19361b0964d448c6040516105a09190610d3b565b60405180910390a1505050505050505050505050565b8280548282559060005260206000209081019282156105fc579160200282015b828111156105fc57825182906105ec9082610c7b565b50916020019190600101906105d6565b5061060892915061060c565b5090565b808211156106085760006106208282610629565b5060010161060c565b50805461063590610bf0565b6000825580601f10610645575050565b601f0160209004906000526020600020908101906106639190610666565b50565b5b808211156106085760008155600101610667565b634e487b7160e01b600052604160045260246000fd5b604051610100810167ffffffffffffffff811182821017156106b5576106b561067b565b60405290565b604051601f8201601f1916810167ffffffffffffffff811182821017156106e4576106e461067b565b604052919050565b600082601f8301126106fd57600080fd5b813567ffffffffffffffff8111156107175761071761067b565b61072a601f8201601f19166020016106bb565b81815284602083860101111561073f57600080fd5b816020850160208301376000918101602001919091529392505050565b600067ffffffffffffffff8211156107765761077661067b565b5060051b60200190565b80356008811061078f57600080fd5b919050565b600082601f8301126107a557600080fd5b813560206107ba6107b58361075c565b6106bb565b82815260059290921b840181019181810190868411156107d957600080fd5b8286015b8481101561093957803567ffffffffffffffff808211156107fe5760008081fd5b90880190610100828b03601f19018113156108195760008081fd5b610821610691565b8784013581526040610834818601610780565b898301526060808601358581111561084c5760008081fd5b61085a8f8c838a01016106ec565b83850152506080915081860135858111156108755760008081fd5b6108838f8c838a01016106ec565b82850152505060a0808601358581111561089d5760008081fd5b6108ab8f8c838a01016106ec565b838501525060c0915081860135858111156108c65760008081fd5b6108d48f8c838a01016106ec565b82850152505060e080860135858111156108ee5760008081fd5b6108fc8f8c838a01016106ec565b848401525092850135928484111561091657600091508182fd5b6109248e8b868901016106ec565b908301525086525050509183019183016107dd565b509695505050505050565b600082601f83011261095557600080fd5b813560206109656107b58361075c565b82815260059290921b8401810191818101908684111561098457600080fd5b8286015b8481101561093957803567ffffffffffffffff8111156109a85760008081fd5b6109b68986838b01016106ec565b845250918301918301610988565b600082601f8301126109d557600080fd5b813560206109e56107b58361075c565b82815260059290921b84018101918181019086841115610a0457600080fd5b8286015b8481101561093957803567ffffffffffffffff811115610a285760008081fd5b610a368986838b0101610944565b845250918301918301610a08565b600080600080600080600080610100898b031215610a6157600080fd5b883567ffffffffffffffff80821115610a7957600080fd5b610a858c838d016106ec565b995060208b0135915080821115610a9b57600080fd5b610aa78c838d01610794565b985060408b0135915080821115610abd57600080fd5b610ac98c838d016109c4565b975060608b0135915080821115610adf57600080fd5b610aeb8c838d016109c4565b965060808b0135915080821115610b0157600080fd5b610b0d8c838d016109c4565b955060a08b0135915080821115610b2357600080fd5b610b2f8c838d016109c4565b945060c08b0135915080821115610b4557600080fd5b610b518c838d01610944565b935060e08b0135915080821115610b6757600080fd5b50610b748b828c016109c4565b9150509295985092959890939650565b634e487b7160e01b600052603260045260246000fd5b60005b83811015610bb5578181015183820152602001610b9d565b50506000910152565b60008251610bd0818460208701610b9a565b9190910192915050565b634e487b7160e01b600052602160045260246000fd5b600181811c90821680610c0457607f821691505b602082108103610c2457634e487b7160e01b600052602260045260246000fd5b50919050565b601f821115610c76576000816000526020600020601f850160051c81016020861015610c535750805b601f850160051c820191505b81811015610c7257828155600101610c5f565b5050505b505050565b815167ffffffffffffffff811115610c9557610c9561067b565b610ca981610ca38454610bf0565b84610c2a565b602080601f831160018114610cde5760008415610cc65750858301515b600019600386901b1c1916600185901b178555610c72565b600085815260208120601f198616915b82811015610d0d57888601518255948401946001909101908401610cee565b5085821015610d2b5787850151600019600388901b60f8161c191681555b5050505050600190811b01905550565b6020815260008251806020840152610d5a816040850160208701610b9a565b601f01601f1916919091016040019291505056fea2646970667358221220676ca20bf02a06b2c9c3ef6f5b6f1f4c8cd76f13d1424af12482e44ba5a52b1d64736f6c63430008180033","opcodes":"PUSH1 0x80 PUSH1 0x40 MSTORE CALLVALUE DUP1 ISZERO PUSH2 0x10 JUMPI PUSH1 0x0 DUP1 REVERT JUMPDEST POP PUSH2 0xDA4 DUP1 PUSH2 0x20 PUSH1 0x0 CODECOPY PUSH1 0x0 RETURN INVALID PUSH1 0x80 PUSH1 0x40 MSTORE CALLVALUE DUP1 ISZERO PUSH2 0x10 JUMPI PUSH1 0x0 DUP1 REVERT JUMPDEST POP PUSH1 0x4 CALLDATASIZE LT PUSH2 0x2B JUMPI PUSH1 0x0 CALLDATALOAD PUSH1 0xE0 SHR DUP1 PUSH4 0x8D30BF3C EQ PUSH2 0x30 JUMPI JUMPDEST PUSH1 0x0 DUP1 REVERT JUMPDEST PUSH2 0x43 PUSH2 0x3E CALLDATASIZE PUSH1 0x4 PUSH2 0xA44 JUMP JUMPDEST PUSH2 0x45 JUMP JUMPDEST STOP JUMPDEST PUSH1 0x40 DUP1 MLOAD DUP1 DUP3 ADD SWAP1 SWAP2 MSTORE PUSH1 0x6 DUP2 MSTORE PUSH6 0x4D6F64656C5F PUSH1 0xD0 SHL PUSH1 0x20 DUP3 ADD MSTORE PUSH32 0x34B903B1C9F516E29BCC70E55A6BC2AC2C43EC324E4A6CFB468F0C027487621C SWAP1 DUP10 SWAP1 PUSH1 0x1 PUSH1 0x0 JUMPDEST DUP3 MLOAD DUP2 LT ISZERO PUSH2 0x100 JUMPI DUP4 MLOAD DUP2 LT ISZERO DUP1 PUSH2 0xEA JUMPI POP DUP3 DUP2 DUP2 MLOAD DUP2 LT PUSH2 0xB1 JUMPI PUSH2 0xB1 PUSH2 0xB84 JUMP JUMPDEST PUSH1 0x20 ADD ADD MLOAD PUSH1 0xF8 SHR PUSH1 0xF8 SHL PUSH1 0x1 PUSH1 0x1 PUSH1 0xF8 SHL SUB NOT AND DUP5 DUP3 DUP2 MLOAD DUP2 LT PUSH2 0xD8 JUMPI PUSH2 0xD8 PUSH2 0xB84 JUMP JUMPDEST ADD PUSH1 0x20 ADD MLOAD PUSH1 0x1 PUSH1 0x1 PUSH1 0xF8 SHL SUB NOT AND EQ ISZERO JUMPDEST ISZERO PUSH2 0xF8 JUMPI PUSH1 0x0 SWAP2 POP PUSH2 0x100 JUMP JUMPDEST PUSH1 0x1 ADD PUSH2 0x8B JUMP JUMPDEST POP DUP1 PUSH2 0x15F JUMPI PUSH1 0x40 MLOAD PUSH3 0x461BCD PUSH1 0xE5 SHL DUP2 MSTORE PUSH1 0x20 PUSH1 0x4 DUP3 ADD MSTORE PUSH1 0x23 PUSH1 0x24 DUP3 ADD MSTORE PUSH32 0x4D6F64656C206E616D65206D757374207374617274207769746820274D6F6465 PUSH1 0x44 DUP3 ADD MSTORE PUSH3 0x6C5F27 PUSH1 0xE8 SHL PUSH1 0x64 DUP3 ADD MSTORE PUSH1 0x84 ADD JUMPDEST PUSH1 0x40 MLOAD DUP1 SWAP2 SUB SWAP1 REVERT JUMPDEST PUSH1 0x40 MLOAD DUP5 SWAP1 PUSH2 0x16F SWAP1 DUP15 SWAP1 PUSH2 0xBBE JUMP JUMPDEST SWAP1 DUP2 MSTORE PUSH1 0x40 MLOAD SWAP1 DUP2 SWAP1 SUB PUSH1 0x20 ADD SWAP1 KECCAK256 SLOAD PUSH1 0xFF AND ISZERO PUSH2 0x1C7 JUMPI PUSH1 0x40 MLOAD PUSH3 0x461BCD PUSH1 0xE5 SHL DUP2 MSTORE PUSH1 0x20 PUSH1 0x4 DUP3 ADD MSTORE PUSH1 0x15 PUSH1 0x24 DUP3 ADD MSTORE PUSH21 0x2730B6B29034B99030B63932B0B23C903A30B5B2B7 PUSH1 0x59 SHL PUSH1 0x44 DUP3 ADD MSTORE PUSH1 0x64 ADD PUSH2 0x156 JUMP JUMPDEST PUSH1 0x1 DUP5 PUSH1 0x0 ADD DUP14 PUSH1 0x40 MLOAD PUSH2 0x1DB SWAP2 SWAP1 PUSH2 0xBBE JUMP JUMPDEST SWAP1 DUP2 MSTORE PUSH1 0x40 MLOAD SWAP1 DUP2 SWAP1 SUB PUSH1 0x20 ADD DUP2 KECCAK256 DUP1 SLOAD SWAP3 ISZERO ISZERO PUSH1 0xFF NOT SWAP1 SWAP4 AND SWAP3 SWAP1 SWAP3 OR SWAP1 SWAP2 SSTORE DUP12 MLOAD SWAP1 DUP6 SWAP1 PUSH2 0x20C SWAP1 DUP16 SWAP1 PUSH2 0xBBE JUMP JUMPDEST SWAP1 DUP2 MSTORE PUSH1 0x40 MLOAD SWAP1 DUP2 SWAP1 SUB PUSH1 0x20 ADD SWAP1 KECCAK256 PUSH1 0x1 ADD SSTORE PUSH1 0x0 JUMPDEST PUSH1 0x40 MLOAD DUP6 SWAP1 PUSH2 0x232 SWAP1 DUP16 SWAP1 PUSH2 0xBBE JUMP JUMPDEST SWAP1 DUP2 MSTORE PUSH1 0x20 ADD PUSH1 0x40 MLOAD DUP1 SWAP2 SUB SWAP1 KECCAK256 PUSH1 0x1 ADD SLOAD DUP2 LT ISZERO PUSH2 0x4D5 JUMPI DUP12 DUP2 DUP2 MLOAD DUP2 LT PUSH2 0x25D JUMPI PUSH2 0x25D PUSH2 0xB84 JUMP JUMPDEST PUSH1 0x20 MUL PUSH1 0x20 ADD ADD MLOAD DUP6 PUSH1 0x0 ADD DUP15 PUSH1 0x40 MLOAD PUSH2 0x277 SWAP2 SWAP1 PUSH2 0xBBE JUMP JUMPDEST SWAP1 DUP2 MSTORE PUSH1 0x40 DUP1 MLOAD PUSH1 0x20 SWAP3 DUP2 SWAP1 SUB DUP4 ADD SWAP1 KECCAK256 PUSH1 0x0 DUP6 DUP2 MSTORE PUSH1 0x4 SWAP1 SWAP2 ADD DUP4 MSTORE KECCAK256 DUP3 MLOAD DUP2 SSTORE SWAP1 DUP3 ADD MLOAD PUSH1 0x1 DUP1 DUP4 ADD DUP1 SLOAD SWAP1 SWAP2 PUSH1 0xFF NOT SWAP1 SWAP2 AND SWAP1 DUP4 PUSH1 0x7 DUP2 GT ISZERO PUSH2 0x2BF JUMPI PUSH2 0x2BF PUSH2 0xBDA JUMP JUMPDEST MUL OR SWAP1 SSTORE POP PUSH1 0x40 DUP3 ADD MLOAD PUSH1 0x2 DUP3 ADD SWAP1 PUSH2 0x2D8 SWAP1 DUP3 PUSH2 0xC7B JUMP JUMPDEST POP PUSH1 0x60 DUP3 ADD MLOAD PUSH1 0x3 DUP3 ADD SWAP1 PUSH2 0x2ED SWAP1 DUP3 PUSH2 0xC7B JUMP JUMPDEST POP PUSH1 0x80 DUP3 ADD MLOAD PUSH1 0x4 DUP3 ADD SWAP1 PUSH2 0x302 SWAP1 DUP3 PUSH2 0xC7B JUMP JUMPDEST POP PUSH1 0xA0 DUP3 ADD MLOAD PUSH1 0x5 DUP3 ADD SWAP1 PUSH2 0x317 SWAP1 DUP3 PUSH2 0xC7B JUMP JUMPDEST POP PUSH1 0xC0 DUP3 ADD MLOAD PUSH1 0x6 DUP3 ADD SWAP1 PUSH2 0x32C SWAP1 DUP3 PUSH2 0xC7B JUMP JUMPDEST POP PUSH1 0xE0 DUP3 ADD MLOAD PUSH1 0x7 DUP3 ADD SWAP1 PUSH2 0x341 SWAP1 DUP3 PUSH2 0xC7B JUMP JUMPDEST POP SWAP1 POP POP DUP11 DUP2 DUP2 MLOAD DUP2 LT PUSH2 0x357 JUMPI PUSH2 0x357 PUSH2 0xB84 JUMP JUMPDEST PUSH1 0x20 MUL PUSH1 0x20 ADD ADD MLOAD DUP6 PUSH1 0x0 ADD DUP15 PUSH1 0x40 MLOAD PUSH2 0x371 SWAP2 SWAP1 PUSH2 0xBBE JUMP JUMPDEST SWAP1 DUP2 MSTORE PUSH1 0x20 ADD PUSH1 0x40 MLOAD DUP1 SWAP2 SUB SWAP1 KECCAK256 PUSH1 0x5 ADD PUSH1 0x0 DUP4 DUP2 MSTORE PUSH1 0x20 ADD SWAP1 DUP2 MSTORE PUSH1 0x20 ADD PUSH1 0x0 KECCAK256 SWAP1 DUP1 MLOAD SWAP1 PUSH1 0x20 ADD SWAP1 PUSH2 0x3A6 SWAP3 SWAP2 SWAP1 PUSH2 0x5B6 JUMP JUMPDEST POP DUP10 DUP2 DUP2 MLOAD DUP2 LT PUSH2 0x3B9 JUMPI PUSH2 0x3B9 PUSH2 0xB84 JUMP JUMPDEST PUSH1 0x20 MUL PUSH1 0x20 ADD ADD MLOAD DUP6 PUSH1 0x0 ADD DUP15 PUSH1 0x40 MLOAD PUSH2 0x3D3 SWAP2 SWAP1 PUSH2 0xBBE JUMP JUMPDEST SWAP1 DUP2 MSTORE PUSH1 0x20 ADD PUSH1 0x40 MLOAD DUP1 SWAP2 SUB SWAP1 KECCAK256 PUSH1 0x6 ADD PUSH1 0x0 DUP4 DUP2 MSTORE PUSH1 0x20 ADD SWAP1 DUP2 MSTORE PUSH1 0x20 ADD PUSH1 0x0 KECCAK256 SWAP1 DUP1 MLOAD SWAP1 PUSH1 0x20 ADD SWAP1 PUSH2 0x408 SWAP3 SWAP2 SWAP1 PUSH2 0x5B6 JUMP JUMPDEST POP DUP9 DUP2 DUP2 MLOAD DUP2 LT PUSH2 0x41B JUMPI PUSH2 0x41B PUSH2 0xB84 JUMP JUMPDEST PUSH1 0x20 MUL PUSH1 0x20 ADD ADD MLOAD DUP6 PUSH1 0x0 ADD DUP15 PUSH1 0x40 MLOAD PUSH2 0x435 SWAP2 SWAP1 PUSH2 0xBBE JUMP JUMPDEST SWAP1 DUP2 MSTORE PUSH1 0x20 ADD PUSH1 0x40 MLOAD DUP1 SWAP2 SUB SWAP1 KECCAK256 PUSH1 0x7 ADD PUSH1 0x0 DUP4 DUP2 MSTORE PUSH1 0x20 ADD SWAP1 DUP2 MSTORE PUSH1 0x20 ADD PUSH1 0x0 KECCAK256 SWAP1 DUP1 MLOAD SWAP1 PUSH1 0x20 ADD SWAP1 PUSH2 0x46A SWAP3 SWAP2 SWAP1 PUSH2 0x5B6 JUMP JUMPDEST POP DUP8 DUP2 DUP2 MLOAD DUP2 LT PUSH2 0x47D JUMPI PUSH2 0x47D PUSH2 0xB84 JUMP JUMPDEST PUSH1 0x20 MUL PUSH1 0x20 ADD ADD MLOAD DUP6 PUSH1 0x0 ADD DUP15 PUSH1 0x40 MLOAD PUSH2 0x497 SWAP2 SWAP1 PUSH2 0xBBE JUMP JUMPDEST SWAP1 DUP2 MSTORE PUSH1 0x20 ADD PUSH1 0x40 MLOAD DUP1 SWAP2 SUB SWAP1 KECCAK256 PUSH1 0x8 ADD PUSH1 0x0 DUP4 DUP2 MSTORE PUSH1 0x20 ADD SWAP1 DUP2 MSTORE PUSH1 0x20 ADD PUSH1 0x0 KECCAK256 SWAP1 DUP1 MLOAD SWAP1 PUSH1 0x20 ADD SWAP1 PUSH2 0x4CC SWAP3 SWAP2 SWAP1 PUSH2 0x5B6 JUMP JUMPDEST POP PUSH1 0x1 ADD PUSH2 0x222 JUMP JUMPDEST POP PUSH1 0x0 JUMPDEST DUP7 MLOAD DUP2 LT ISZERO PUSH2 0x570 JUMPI DUP6 DUP2 DUP2 MLOAD DUP2 LT PUSH2 0x4F4 JUMPI PUSH2 0x4F4 PUSH2 0xB84 JUMP JUMPDEST PUSH1 0x20 MUL PUSH1 0x20 ADD ADD MLOAD DUP6 PUSH1 0x0 ADD DUP15 PUSH1 0x40 MLOAD PUSH2 0x50E SWAP2 SWAP1 PUSH2 0xBBE JUMP JUMPDEST SWAP1 DUP2 MSTORE PUSH1 0x20 ADD PUSH1 0x40 MLOAD DUP1 SWAP2 SUB SWAP1 KECCAK256 PUSH1 0x9 ADD DUP9 DUP4 DUP2 MLOAD DUP2 LT PUSH2 0x531 JUMPI PUSH2 0x531 PUSH2 0xB84 JUMP JUMPDEST PUSH1 0x20 MUL PUSH1 0x20 ADD ADD MLOAD PUSH1 0x40 MLOAD PUSH2 0x546 SWAP2 SWAP1 PUSH2 0xBBE JUMP JUMPDEST SWAP1 DUP2 MSTORE PUSH1 0x20 ADD PUSH1 0x40 MLOAD DUP1 SWAP2 SUB SWAP1 KECCAK256 SWAP1 DUP1 MLOAD SWAP1 PUSH1 0x20 ADD SWAP1 PUSH2 0x567 SWAP3 SWAP2 SWAP1 PUSH2 0x5B6 JUMP JUMPDEST POP PUSH1 0x1 ADD PUSH2 0x4D9 JUMP JUMPDEST POP PUSH32 0x199AAB2F4D8489F44C22DEF22DDC192F95A7736DDA51493AF0A19361B0964D44 DUP13 PUSH1 0x40 MLOAD PUSH2 0x5A0 SWAP2 SWAP1 PUSH2 0xD3B JUMP JUMPDEST PUSH1 0x40 MLOAD DUP1 SWAP2 SUB SWAP1 LOG1 POP POP POP POP POP POP POP POP POP POP POP POP JUMP JUMPDEST DUP3 DUP1 SLOAD DUP3 DUP3 SSTORE SWAP1 PUSH1 0x0 MSTORE PUSH1 0x20 PUSH1 0x0 KECCAK256 SWAP1 DUP2 ADD SWAP3 DUP3 ISZERO PUSH2 0x5FC JUMPI SWAP2 PUSH1 0x20 MUL DUP3 ADD JUMPDEST DUP3 DUP2 GT ISZERO PUSH2 0x5FC JUMPI DUP3 MLOAD DUP3 SWAP1 PUSH2 0x5EC SWAP1 DUP3 PUSH2 0xC7B JUMP JUMPDEST POP SWAP2 PUSH1 0x20 ADD SWAP2 SWAP1 PUSH1 0x1 ADD SWAP1 PUSH2 0x5D6 JUMP JUMPDEST POP PUSH2 0x608 SWAP3 SWAP2 POP PUSH2 0x60C JUMP JUMPDEST POP SWAP1 JUMP JUMPDEST DUP1 DUP3 GT ISZERO PUSH2 0x608 JUMPI PUSH1 0x0 PUSH2 0x620 DUP3 DUP3 PUSH2 0x629 JUMP JUMPDEST POP PUSH1 0x1 ADD PUSH2 0x60C JUMP JUMPDEST POP DUP1 SLOAD PUSH2 0x635 SWAP1 PUSH2 0xBF0 JUMP JUMPDEST PUSH1 0x0 DUP3 SSTORE DUP1 PUSH1 0x1F LT PUSH2 0x645 JUMPI POP POP JUMP JUMPDEST PUSH1 0x1F ADD PUSH1 0x20 SWAP1 DIV SWAP1 PUSH1 0x0 MSTORE PUSH1 0x20 PUSH1 0x0 KECCAK256 SWAP1 DUP2 ADD SWAP1 PUSH2 0x663 SWAP2 SWAP1 PUSH2 0x666 JUMP JUMPDEST POP JUMP JUMPDEST JUMPDEST DUP1 DUP3 GT ISZERO PUSH2 0x608 JUMPI PUSH1 0x0 DUP2 SSTORE PUSH1 0x1 ADD PUSH2 0x667 JUMP JUMPDEST PUSH4 0x4E487B71 PUSH1 0xE0 SHL PUSH1 0x0 MSTORE PUSH1 0x41 PUSH1 0x4 MSTORE PUSH1 0x24 PUSH1 0x0 REVERT JUMPDEST PUSH1 0x40 MLOAD PUSH2 0x100 DUP2 ADD PUSH8 0xFFFFFFFFFFFFFFFF DUP2 GT DUP3 DUP3 LT OR ISZERO PUSH2 0x6B5 JUMPI PUSH2 0x6B5 PUSH2 0x67B JUMP JUMPDEST PUSH1 0x40 MSTORE SWAP1 JUMP JUMPDEST PUSH1 0x40 MLOAD PUSH1 0x1F DUP3 ADD PUSH1 0x1F NOT AND DUP2 ADD PUSH8 0xFFFFFFFFFFFFFFFF DUP2 GT DUP3 DUP3 LT OR ISZERO PUSH2 0x6E4 JUMPI PUSH2 0x6E4 PUSH2 0x67B JUMP JUMPDEST PUSH1 0x40 MSTORE SWAP2 SWAP1 POP JUMP JUMPDEST PUSH1 0x0 DUP3 PUSH1 0x1F DUP4 ADD SLT PUSH2 0x6FD JUMPI PUSH1 0x0 DUP1 REVERT JUMPDEST DUP2 CALLDATALOAD PUSH8 0xFFFFFFFFFFFFFFFF DUP2 GT ISZERO PUSH2 0x717 JUMPI PUSH2 0x717 PUSH2 0x67B JUMP JUMPDEST PUSH2 0x72A PUSH1 0x1F DUP3 ADD PUSH1 0x1F NOT AND PUSH1 0x20 ADD PUSH2 0x6BB JUMP JUMPDEST DUP2 DUP2 MSTORE DUP5 PUSH1 0x20 DUP4 DUP7 ADD ADD GT ISZERO PUSH2 0x73F JUMPI PUSH1 0x0 DUP1 REVERT JUMPDEST DUP2 PUSH1 0x20 DUP6 ADD PUSH1 0x20 DUP4 ADD CALLDATACOPY PUSH1 0x0 SWAP2 DUP2 ADD PUSH1 0x20 ADD SWAP2 SWAP1 SWAP2 MSTORE SWAP4 SWAP3 POP POP POP JUMP JUMPDEST PUSH1 0x0 PUSH8 0xFFFFFFFFFFFFFFFF DUP3 GT ISZERO PUSH2 0x776 JUMPI PUSH2 0x776 PUSH2 0x67B JUMP JUMPDEST POP PUSH1 0x5 SHL PUSH1 0x20 ADD SWAP1 JUMP JUMPDEST DUP1 CALLDATALOAD PUSH1 0x8 DUP2 LT PUSH2 0x78F JUMPI PUSH1 0x0 DUP1 REVERT JUMPDEST SWAP2 SWAP1 POP JUMP JUMPDEST PUSH1 0x0 DUP3 PUSH1 0x1F DUP4 ADD SLT PUSH2 0x7A5 JUMPI PUSH1 0x0 DUP1 REVERT JUMPDEST DUP2 CALLDATALOAD PUSH1 0x20 PUSH2 0x7BA PUSH2 0x7B5 DUP4 PUSH2 0x75C JUMP JUMPDEST PUSH2 0x6BB JUMP JUMPDEST DUP3 DUP2 MSTORE PUSH1 0x5 SWAP3 SWAP1 SWAP3 SHL DUP5 ADD DUP2 ADD SWAP2 DUP2 DUP2 ADD SWAP1 DUP7 DUP5 GT ISZERO PUSH2 0x7D9 JUMPI PUSH1 0x0 DUP1 REVERT JUMPDEST DUP3 DUP7 ADD JUMPDEST DUP5 DUP2 LT ISZERO PUSH2 0x939 JUMPI DUP1 CALLDATALOAD PUSH8 0xFFFFFFFFFFFFFFFF DUP1 DUP3 GT ISZERO PUSH2 0x7FE JUMPI PUSH1 0x0 DUP1 DUP2 REVERT JUMPDEST SWAP1 DUP9 ADD SWAP1 PUSH2 0x100 DUP3 DUP12 SUB PUSH1 0x1F NOT ADD DUP2 SGT ISZERO PUSH2 0x819 JUMPI PUSH1 0x0 DUP1 DUP2 REVERT JUMPDEST PUSH2 0x821 PUSH2 0x691 JUMP JUMPDEST DUP8 DUP5 ADD CALLDATALOAD DUP2 MSTORE PUSH1 0x40 PUSH2 0x834 DUP2 DUP7 ADD PUSH2 0x780 JUMP JUMPDEST DUP10 DUP4 ADD MSTORE PUSH1 0x60 DUP1 DUP7 ADD CALLDATALOAD DUP6 DUP2 GT ISZERO PUSH2 0x84C JUMPI PUSH1 0x0 DUP1 DUP2 REVERT JUMPDEST PUSH2 0x85A DUP16 DUP13 DUP4 DUP11 ADD ADD PUSH2 0x6EC JUMP JUMPDEST DUP4 DUP6 ADD MSTORE POP PUSH1 0x80 SWAP2 POP DUP2 DUP7 ADD CALLDATALOAD DUP6 DUP2 GT ISZERO PUSH2 0x875 JUMPI PUSH1 0x0 DUP1 DUP2 REVERT JUMPDEST PUSH2 0x883 DUP16 DUP13 DUP4 DUP11 ADD ADD PUSH2 0x6EC JUMP JUMPDEST DUP3 DUP6 ADD MSTORE POP POP PUSH1 0xA0 DUP1 DUP7 ADD CALLDATALOAD DUP6 DUP2 GT ISZERO PUSH2 0x89D JUMPI PUSH1 0x0 DUP1 DUP2 REVERT JUMPDEST PUSH2 0x8AB DUP16 DUP13 DUP4 DUP11 ADD ADD PUSH2 0x6EC JUMP JUMPDEST DUP4 DUP6 ADD MSTORE POP PUSH1 0xC0 SWAP2 POP DUP2 DUP7 ADD CALLDATALOAD DUP6 DUP2 GT ISZERO PUSH2 0x8C6 JUMPI PUSH1 0x0 DUP1 DUP2 REVERT JUMPDEST PUSH2 0x8D4 DUP16 DUP13 DUP4 DUP11 ADD ADD PUSH2 0x6EC JUMP JUMPDEST DUP3 DUP6 ADD MSTORE POP POP PUSH1 0xE0 DUP1 DUP7 ADD CALLDATALOAD DUP6 DUP2 GT ISZERO PUSH2 0x8EE JUMPI PUSH1 0x0 DUP1 DUP2 REVERT JUMPDEST PUSH2 0x8FC DUP16 DUP13 DUP4 DUP11 ADD ADD PUSH2 0x6EC JUMP JUMPDEST DUP5 DUP5 ADD MSTORE POP SWAP3 DUP6 ADD CALLDATALOAD SWAP3 DUP5 DUP5 GT ISZERO PUSH2 0x916 JUMPI PUSH1 0x0 SWAP2 POP DUP2 DUP3 REVERT JUMPDEST PUSH2 0x924 DUP15 DUP12 DUP7 DUP10 ADD ADD PUSH2 0x6EC JUMP JUMPDEST SWAP1 DUP4 ADD MSTORE POP DUP7 MSTORE POP POP POP SWAP2 DUP4 ADD SWAP2 DUP4 ADD PUSH2 0x7DD JUMP JUMPDEST POP SWAP7 SWAP6 POP POP POP POP POP POP JUMP JUMPDEST PUSH1 0x0 DUP3 PUSH1 0x1F DUP4 ADD SLT PUSH2 0x955 JUMPI PUSH1 0x0 DUP1 REVERT JUMPDEST DUP2 CALLDATALOAD PUSH1 0x20 PUSH2 0x965 PUSH2 0x7B5 DUP4 PUSH2 0x75C JUMP JUMPDEST DUP3 DUP2 MSTORE PUSH1 0x5 SWAP3 SWAP1 SWAP3 SHL DUP5 ADD DUP2 ADD SWAP2 DUP2 DUP2 ADD SWAP1 DUP7 DUP5 GT ISZERO PUSH2 0x984 JUMPI PUSH1 0x0 DUP1 REVERT JUMPDEST DUP3 DUP7 ADD JUMPDEST DUP5 DUP2 LT ISZERO PUSH2 0x939 JUMPI DUP1 CALLDATALOAD PUSH8 0xFFFFFFFFFFFFFFFF DUP2 GT ISZERO PUSH2 0x9A8 JUMPI PUSH1 0x0 DUP1 DUP2 REVERT JUMPDEST PUSH2 0x9B6 DUP10 DUP7 DUP4 DUP12 ADD ADD PUSH2 0x6EC JUMP JUMPDEST DUP5 MSTORE POP SWAP2 DUP4 ADD SWAP2 DUP4 ADD PUSH2 0x988 JUMP JUMPDEST PUSH1 0x0 DUP3 PUSH1 0x1F DUP4 ADD SLT PUSH2 0x9D5 JUMPI PUSH1 0x0 DUP1 REVERT JUMPDEST DUP2 CALLDATALOAD PUSH1 0x20 PUSH2 0x9E5 PUSH2 0x7B5 DUP4 PUSH2 0x75C JUMP JUMPDEST DUP3 DUP2 MSTORE PUSH1 0x5 SWAP3 SWAP1 SWAP3 SHL DUP5 ADD DUP2 ADD SWAP2 DUP2 DUP2 ADD SWAP1 DUP7 DUP5 GT ISZERO PUSH2 0xA04 JUMPI PUSH1 0x0 DUP1 REVERT JUMPDEST DUP3 DUP7 ADD JUMPDEST DUP5 DUP2 LT ISZERO PUSH2 0x939 JUMPI DUP1 CALLDATALOAD PUSH8 0xFFFFFFFFFFFFFFFF DUP2 GT ISZERO PUSH2 0xA28 JUMPI PUSH1 0x0 DUP1 DUP2 REVERT JUMPDEST PUSH2 0xA36 DUP10 DUP7 DUP4 DUP12 ADD ADD PUSH2 0x944 JUMP JUMPDEST DUP5 MSTORE POP SWAP2 DUP4 ADD SWAP2 DUP4 ADD PUSH2 0xA08 JUMP JUMPDEST PUSH1 0x0 DUP1 PUSH1 0x0 DUP1 PUSH1 0x0 DUP1 PUSH1 0x0 DUP1 PUSH2 0x100 DUP10 DUP12 SUB SLT ISZERO PUSH2 0xA61 JUMPI PUSH1 0x0 DUP1 REVERT JUMPDEST DUP9 CALLDATALOAD PUSH8 0xFFFFFFFFFFFFFFFF DUP1 DUP3 GT ISZERO PUSH2 0xA79 JUMPI PUSH1 0x0 DUP1 REVERT JUMPDEST PUSH2 0xA85 DUP13 DUP4 DUP14 ADD PUSH2 0x6EC JUMP JUMPDEST SWAP10 POP PUSH1 0x20 DUP12 ADD CALLDATALOAD SWAP2 POP DUP1 DUP3 GT ISZERO PUSH2 0xA9B JUMPI PUSH1 0x0 DUP1 REVERT JUMPDEST PUSH2 0xAA7 DUP13 DUP4 DUP14 ADD PUSH2 0x794 JUMP JUMPDEST SWAP9 POP PUSH1 0x40 DUP12 ADD CALLDATALOAD SWAP2 POP DUP1 DUP3 GT ISZERO PUSH2 0xABD JUMPI PUSH1 0x0 DUP1 REVERT JUMPDEST PUSH2 0xAC9 DUP13 DUP4 DUP14 ADD PUSH2 0x9C4 JUMP JUMPDEST SWAP8 POP PUSH1 0x60 DUP12 ADD CALLDATALOAD SWAP2 POP DUP1 DUP3 GT ISZERO PUSH2 0xADF JUMPI PUSH1 0x0 DUP1 REVERT JUMPDEST PUSH2 0xAEB DUP13 DUP4 DUP14 ADD PUSH2 0x9C4 JUMP JUMPDEST SWAP7 POP PUSH1 0x80 DUP12 ADD CALLDATALOAD SWAP2 POP DUP1 DUP3 GT ISZERO PUSH2 0xB01 JUMPI PUSH1 0x0 DUP1 REVERT JUMPDEST PUSH2 0xB0D DUP13 DUP4 DUP14 ADD PUSH2 0x9C4 JUMP JUMPDEST SWAP6 POP PUSH1 0xA0 DUP12 ADD CALLDATALOAD SWAP2 POP DUP1 DUP3 GT ISZERO PUSH2 0xB23 JUMPI PUSH1 0x0 DUP1 REVERT JUMPDEST PUSH2 0xB2F DUP13 DUP4 DUP14 ADD PUSH2 0x9C4 JUMP JUMPDEST SWAP5 POP PUSH1 0xC0 DUP12 ADD CALLDATALOAD SWAP2 POP DUP1 DUP3 GT ISZERO PUSH2 0xB45 JUMPI PUSH1 0x0 DUP1 REVERT JUMPDEST PUSH2 0xB51 DUP13 DUP4 DUP14 ADD PUSH2 0x944 JUMP JUMPDEST SWAP4 POP PUSH1 0xE0 DUP12 ADD CALLDATALOAD SWAP2 POP DUP1 DUP3 GT ISZERO PUSH2 0xB67 JUMPI PUSH1 0x0 DUP1 REVERT JUMPDEST POP PUSH2 0xB74 DUP12 DUP3 DUP13 ADD PUSH2 0x9C4 JUMP JUMPDEST SWAP2 POP POP SWAP3 SWAP6 SWAP9 POP SWAP3 SWAP6 SWAP9 SWAP1 SWAP4 SWAP7 POP JUMP JUMPDEST PUSH4 0x4E487B71 PUSH1 0xE0 SHL PUSH1 0x0 MSTORE PUSH1 0x32 PUSH1 0x4 MSTORE PUSH1 0x24 PUSH1 0x0 REVERT JUMPDEST PUSH1 0x0 JUMPDEST DUP4 DUP2 LT ISZERO PUSH2 0xBB5 JUMPI DUP2 DUP2 ADD MLOAD DUP4 DUP3 ADD MSTORE PUSH1 0x20 ADD PUSH2 0xB9D JUMP JUMPDEST POP POP PUSH1 0x0 SWAP2 ADD MSTORE JUMP JUMPDEST PUSH1 0x0 DUP3 MLOAD PUSH2 0xBD0 DUP2 DUP5 PUSH1 0x20 DUP8 ADD PUSH2 0xB9A JUMP JUMPDEST SWAP2 SWAP1 SWAP2 ADD SWAP3 SWAP2 POP POP JUMP JUMPDEST PUSH4 0x4E487B71 PUSH1 0xE0 SHL PUSH1 0x0 MSTORE PUSH1 0x21 PUSH1 0x4 MSTORE PUSH1 0x24 PUSH1 0x0 REVERT JUMPDEST PUSH1 0x1 DUP2 DUP2 SHR SWAP1 DUP3 AND DUP1 PUSH2 0xC04 JUMPI PUSH1 0x7F DUP3 AND SWAP2 POP JUMPDEST PUSH1 0x20 DUP3 LT DUP2 SUB PUSH2 0xC24 JUMPI PUSH4 0x4E487B71 PUSH1 0xE0 SHL PUSH1 0x0 MSTORE PUSH1 0x22 PUSH1 0x4 MSTORE PUSH1 0x24 PUSH1 0x0 REVERT JUMPDEST POP SWAP2 SWAP1 POP JUMP JUMPDEST PUSH1 0x1F DUP3 GT ISZERO PUSH2 0xC76 JUMPI PUSH1 0x0 DUP2 PUSH1 0x0 MSTORE PUSH1 0x20 PUSH1 0x0 KECCAK256 PUSH1 0x1F DUP6 ADD PUSH1 0x5 SHR DUP2 ADD PUSH1 0x20 DUP7 LT ISZERO PUSH2 0xC53 JUMPI POP DUP1 JUMPDEST PUSH1 0x1F DUP6 ADD PUSH1 0x5 SHR DUP3 ADD SWAP2 POP JUMPDEST DUP2 DUP2 LT ISZERO PUSH2 0xC72 JUMPI DUP3 DUP2 SSTORE PUSH1 0x1 ADD PUSH2 0xC5F JUMP JUMPDEST POP POP POP JUMPDEST POP POP POP JUMP JUMPDEST DUP2 MLOAD PUSH8 0xFFFFFFFFFFFFFFFF DUP2 GT ISZERO PUSH2 0xC95 JUMPI PUSH2 0xC95 PUSH2 0x67B JUMP JUMPDEST PUSH2 0xCA9 DUP2 PUSH2 0xCA3 DUP5 SLOAD PUSH2 0xBF0 JUMP JUMPDEST DUP5 PUSH2 0xC2A JUMP JUMPDEST PUSH1 0x20 DUP1 PUSH1 0x1F DUP4 GT PUSH1 0x1 DUP2 EQ PUSH2 0xCDE JUMPI PUSH1 0x0 DUP5 ISZERO PUSH2 0xCC6 JUMPI POP DUP6 DUP4 ADD MLOAD JUMPDEST PUSH1 0x0 NOT PUSH1 0x3 DUP7 SWAP1 SHL SHR NOT AND PUSH1 0x1 DUP6 SWAP1 SHL OR DUP6 SSTORE PUSH2 0xC72 JUMP JUMPDEST PUSH1 0x0 DUP6 DUP2 MSTORE PUSH1 0x20 DUP2 KECCAK256 PUSH1 0x1F NOT DUP7 AND SWAP2 JUMPDEST DUP3 DUP2 LT ISZERO PUSH2 0xD0D JUMPI DUP9 DUP7 ADD MLOAD DUP3 SSTORE SWAP5 DUP5 ADD SWAP5 PUSH1 0x1 SWAP1 SWAP2 ADD SWAP1 DUP5 ADD PUSH2 0xCEE JUMP JUMPDEST POP DUP6 DUP3 LT ISZERO PUSH2 0xD2B JUMPI DUP8 DUP6 ADD MLOAD PUSH1 0x0 NOT PUSH1 0x3 DUP9 SWAP1 SHL PUSH1 0xF8 AND SHR NOT AND DUP2 SSTORE JUMPDEST POP POP POP POP POP PUSH1 0x1 SWAP1 DUP2 SHL ADD SWAP1 SSTORE POP JUMP JUMPDEST PUSH1 0x20 DUP2 MSTORE PUSH1 0x0 DUP3 MLOAD DUP1 PUSH1 0x20 DUP5 ADD MSTORE PUSH2 0xD5A DUP2 PUSH1 0x40 DUP6 ADD PUSH1 0x20 DUP8 ADD PUSH2 0xB9A JUMP JUMPDEST PUSH1 0x1F ADD PUSH1 0x1F NOT AND SWAP2 SWAP1 SWAP2 ADD PUSH1 0x40 ADD SWAP3 SWAP2 POP POP JUMP INVALID LOG2 PUSH5 0x6970667358 0x22 SLT KECCAK256 PUSH8 0x6CA20BF02A06B2C9 0xC3 0xEF PUSH16 0x5B6F1F4C8CD76F13D1424AF12482E44B 0xA5 0xA5 0x2B SAR PUSH5 0x736F6C6343 STOP ADDMOD XOR STOP CALLER "},"methodIdentifiers":{"addModel(string,(uint256,uint8,string,string,string,string,string,string)[],string[][],string[][],string[][],string[][],string[],string[][])":"8d30bf3c"}}}}}