{"contracts/upgradeInitializers/DiamondInit.sol":{"DiamondInit":{"abi":[{"anonymous":false,"inputs":[{"indexed":false,"internalType":"uint256","name":"_zone","type":"uint256"}],"name":"testInit","type":"event"},{"inputs":[],"name":"init","outputs":[],"stateMutability":"nonpayable","type":"function"}],"evm":{"bytecode":{"linkReferences":{},"object":"608060405234801561001057600080fd5b50610149806100206000396000f3fe608060405234801561001057600080fd5b506004361061002b5760003560e01c8063e1c7392a14610030575b600080fd5b6101117fc8fcad8db84d3cc18b4c41d551ea0ee66dd599cde068d998e57d5e09332c131f6020527f699d9daa71b280d05a152715774afa0a81a312594b2d731d6b0b2552b7d6f69f8054600160ff1991821681179092557ff97e938d8af42f52387bb74b8b526fda8f184cc2aa534340a8d75a88fbecc77580548216831790557f65d510a5d8f7ef134ec444f7f34ee808c8eeb5177cdfd16be0c40fe1ab43369580548216831790556307f5828d60e41b6000527f5622121b47b8cd0120c4efe45dd5483242f54a3d49bd7679be565d47694918c380549091169091179055565b00fea2646970667358221220d400d9823256cbe275a0be609950e060e84920fe0b5af6c51c563d4a9fffe9d664736f6c63430008180033","opcodes":"PUSH1 0x80 PUSH1 0x40 MSTORE CALLVALUE DUP1 ISZERO PUSH2 0x10 JUMPI PUSH1 0x0 DUP1 REVERT JUMPDEST POP PUSH2 0x149 DUP1 PUSH2 0x20 PUSH1 0x0 CODECOPY PUSH1 0x0 RETURN INVALID PUSH1 0x80 PUSH1 0x40 MSTORE CALLVALUE DUP1 ISZERO PUSH2 0x10 JUMPI PUSH1 0x0 DUP1 REVERT JUMPDEST POP PUSH1 0x4 CALLDATASIZE LT PUSH2 0x2B JUMPI PUSH1 0x0 CALLDATALOAD PUSH1 0xE0 SHR DUP1 PUSH4 0xE1C7392A EQ PUSH2 0x30 JUMPI JUMPDEST PUSH1 0x0 DUP1 REVERT JUMPDEST PUSH2 0x111 PUSH32 0xC8FCAD8DB84D3CC18B4C41D551EA0EE66DD599CDE068D998E57D5E09332C131F PUSH1 0x20 MSTORE PUSH32 0x699D9DAA71B280D05A152715774AFA0A81A312594B2D731D6B0B2552B7D6F69F DUP1 SLOAD PUSH1 0x1 PUSH1 0xFF NOT SWAP2 DUP3 AND DUP2 OR SWAP1 SWAP3 SSTORE PUSH32 0xF97E938D8AF42F52387BB74B8B526FDA8F184CC2AA534340A8D75A88FBECC775 DUP1 SLOAD DUP3 AND DUP4 OR SWAP1 SSTORE PUSH32 0x65D510A5D8F7EF134EC444F7F34EE808C8EEB5177CDFD16BE0C40FE1AB433695 DUP1 SLOAD DUP3 AND DUP4 OR SWAP1 SSTORE PUSH4 0x7F5828D PUSH1 0xE4 SHL PUSH1 0x0 MSTORE PUSH32 0x5622121B47B8CD0120C4EFE45DD5483242F54A3D49BD7679BE565D47694918C3 DUP1 SLOAD SWAP1 SWAP2 AND SWAP1 SWAP2 OR SWAP1 SSTORE JUMP JUMPDEST STOP INVALID LOG2 PUSH5 0x6970667358 0x22 SLT KECCAK256 0xD4 STOP 0xD9 DUP3 ORIGIN JUMP 0xCB 0xE2 PUSH22 0xA0BE609950E060E84920FE0B5AF6C51C563D4A9FFFE9 0xD6 PUSH5 0x736F6C6343 STOP ADDMOD XOR STOP CALLER "},"methodIdentifiers":{"init()":"e1c7392a"}}}}}