{"contracts/facets/Process/ModelFactoryFacet.sol":{"ModelFactoryFacet":{"abi":[{"anonymous":false,"inputs":[{"indexed":false,"internalType":"string","name":"pName","type":"string"},{"indexed":false,"internalType":"uint256","name":"_id","type":"uint256"}],"name":"instanceId","type":"event"},{"anonymous":false,"inputs":[{"indexed":false,"internalType":"string","name":"pName","type":"string"}],"name":"modelUpdated","type":"event"},{"anonymous":false,"inputs":[{"indexed":false,"internalType":"string","name":"pName","type":"string"}],"name":"newModelFactory","type":"event"},{"inputs":[{"internalType":"string","name":"_name","type":"string"},{"components":[{"internalType":"uint256","name":"id","type":"uint256"},{"internalType":"enum LibApp.NodeType","name":"nodeType","type":"uint8"},{"internalType":"string","name":"xmlID","type":"string"},{"internalType":"string","name":"name","type":"string"},{"internalType":"string","name":"lane","type":"string"},{"internalType":"string","name":"dataIn","type":"string"},{"internalType":"string","name":"dataOut","type":"string"},{"internalType":"string","name":"timestamp","type":"string"}],"internalType":"struct LibApp.Activity[]","name":"_activities","type":"tuple[]"},{"internalType":"string[][]","name":"_tabChildrenOptim","type":"string[][]"},{"internalType":"string[][]","name":"_tabParentsOptim","type":"string[][]"},{"internalType":"string[][]","name":"_msgInOptim","type":"string[][]"},{"internalType":"string[][]","name":"_msgOutOptim","type":"string[][]"},{"internalType":"string[]","name":"_keyReplay","type":"string[]"},{"internalType":"string[][]","name":"_valueReplay","type":"string[][]"}],"name":"addModel","outputs":[],"stateMutability":"nonpayable","type":"function"},{"inputs":[{"internalType":"string","name":"_name","type":"string"}],"name":"newInstance","outputs":[{"internalType":"uint256","name":"","type":"uint256"}],"stateMutability":"nonpayable","type":"function"},{"inputs":[{"internalType":"string","name":"_name","type":"string"},{"internalType":"string","name":"_operation","type":"string"},{"internalType":"uint256","name":"_index","type":"uint256"},{"components":[{"internalType":"uint256","name":"id","type":"uint256"},{"internalType":"enum LibApp.NodeType","name":"nodeType","type":"uint8"},{"internalType":"string","name":"xmlID","type":"string"},{"internalType":"string","name":"name","type":"string"},{"internalType":"string","name":"lane","type":"string"},{"internalType":"string","name":"dataIn","type":"string"},{"internalType":"string","name":"dataOut","type":"string"},{"internalType":"string","name":"timestamp","type":"string"}],"internalType":"struct LibApp.Activity[]","name":"_newActivities","type":"tuple[]"},{"internalType":"string[][]","name":"_newChildrenOptim","type":"string[][]"},{"internalType":"string[][]","name":"_newParentsOptim","type":"string[][]"},{"internalType":"string[][]","name":"_newMsgInOptim","type":"string[][]"},{"internalType":"string[][]","name":"_newMsgOutOptim","type":"string[][]"}],"name":"updateModel","outputs":[],"stateMutability":"nonpayable","type":"function"}],"evm":{"bytecode":{"linkReferences":{},"object":"608060405234801561001057600080fd5b50611b2b806100206000396000f3fe608060405234801561001057600080fd5b50600436106100415760003560e01c80638d30bf3c14610046578063cc2f5ba11461005b578063cc31dd4f1461006e575b600080fd5b610059610054366004611613565b610093565b005b610059610069366004611753565b61050e565b61008161007c366004611845565b610de4565b60405190815260200160405180910390f35b6040517f34b903b1c9f516e29bcc70e55a6bc2ac2c43ec324e4a6cfb468f0c027487621c9081906100c5908b906118a6565b9081526040519081900360200190205460ff16156101225760405162461bcd60e51b81526020600482015260156024820152742730b6b29034b99030b63932b0b23c903a30b5b2b760591b60448201526064015b60405180910390fd5b6001816000018a60405161013691906118a6565b908152604051908190036020018120805492151560ff19909316929092179091558851908290610167908c906118a6565b9081526040519081900360200190206001015560005b604051829061018d908c906118a6565b908152602001604051809103902060010154811015610430578881815181106101b8576101b86118c2565b6020026020010151826000018b6040516101d291906118a6565b908152604080516020928190038301902060008581526004909101835220825181559082015160018083018054909160ff199091169083600781111561021a5761021a6118d8565b0217905550604082015160028201906102339082611979565b50606082015160038201906102489082611979565b506080820151600482019061025d9082611979565b5060a082015160058201906102729082611979565b5060c082015160068201906102879082611979565b5060e0820151600782019061029c9082611979565b509050508781815181106102b2576102b26118c2565b6020026020010151826000018b6040516102cc91906118a6565b908152602001604051809103902060050160008381526020019081526020016000209080519060200190610301929190611185565b50868181518110610314576103146118c2565b6020026020010151826000018b60405161032e91906118a6565b908152602001604051809103902060060160008381526020019081526020016000209080519060200190610363929190611185565b50858181518110610376576103766118c2565b6020026020010151826000018b60405161039091906118a6565b9081526020016040518091039020600701600083815260200190815260200160002090805190602001906103c5929190611185565b508481815181106103d8576103d86118c2565b6020026020010151826000018b6040516103f291906118a6565b908152602001604051809103902060080160008381526020019081526020016000209080519060200190610427929190611185565b5060010161017d565b5060005b83518110156104cb5782818151811061044f5761044f6118c2565b6020026020010151826000018b60405161046991906118a6565b908152602001604051809103902060090185838151811061048c5761048c6118c2565b60200260200101516040516104a191906118a6565b908152602001604051809103902090805190602001906104c2929190611185565b50600101610434565b507f199aab2f4d8489f44c22def22ddc192f95a7736dda51493af0a19361b0964d44896040516104fb9190611a65565b60405180910390a1505050505050505050565b6040517f34b903b1c9f516e29bcc70e55a6bc2ac2c43ec324e4a6cfb468f0c027487621c908190610540908b906118a6565b9081526040519081900360200190205460ff1661059b5760405162461bcd60e51b8152602060048201526019602482015278151a1a5cc8135bd9195b08191bd95cc81b9bdd08195e1a5cdd603a1b6044820152606401610119565b60408051808201909152600381526218591960ea1b6020918201528851908901207fb0a57447b6dcc818642398b290ce53bb707fe81d9338401cebb04a277901ac9701610951576000816000018a6040516105f691906118a6565b90815260200160405180910390206001015490508651826000018b60405161061e91906118a6565b9081526020016040518091039020600101600082825461063e9190611a8e565b90915550600090505b875181101561091357878181518110610662576106626118c2565b6020026020010151836000018c60405161067c91906118a6565b908152604051908190036020019020600401600061069a8486611a8e565b8152602080820192909252604001600020825181559082015160018083018054909160ff19909116908360078111156106d5576106d56118d8565b0217905550604082015160028201906106ee9082611979565b50606082015160038201906107039082611979565b50608082015160048201906107189082611979565b5060a0820151600582019061072d9082611979565b5060c082015160068201906107429082611979565b5060e082015160078201906107579082611979565b5090505086818151811061076d5761076d6118c2565b6020026020010151836000018c60405161078791906118a6565b90815260405190819003602001902060050160006107a58486611a8e565b815260200190815260200160002090805190602001906107c6929190611185565b508581815181106107d9576107d96118c2565b6020026020010151836000018c6040516107f391906118a6565b90815260405190819003602001902060060160006108118486611a8e565b81526020019081526020016000209080519060200190610832929190611185565b50848181518110610845576108456118c2565b6020026020010151836000018c60405161085f91906118a6565b908152604051908190036020019020600701600061087d8486611a8e565b8152602001908152602001600020908051906020019061089e929190611185565b508381815181106108b1576108b16118c2565b6020026020010151836000018c6040516108cb91906118a6565b90815260405190819003602001902060080160006108e98486611a8e565b8152602001908152602001600020908051906020019061090a929190611185565b50600101610647565b507f54ee93927b07f20107a2424f1a0f254dd437de5d3ce8e462f19efe7ffbd431a08a6040516109439190611a65565b60405180910390a150610dd9565b60408051808201909152600681526572656d6f766560d01b6020918201528851908901207f722d85e6144db689f59b6f572ccbbd5ab4a3c37afbf9769b48bc774017cba74201610a375760405181906109ab908b906118a6565b90815260200160405180910390206001015487106109fb5760405162461bcd60e51b815260206004820152600d60248201526c092dcecc2d8d2c840d2dcc8caf609b1b6044820152606401610119565b7f54ee93927b07f20107a2424f1a0f254dd437de5d3ce8e462f19efe7ffbd431a089604051610a2a9190611a65565b60405180910390a1610dd9565b6040805180820190915260078152667265706c61636560c81b6020918201528851908901207fac5637f7f0236e46a8017ce707388b25bf76f92aa3527588a1f6a125fed063cf01610d98576040518190610a92908b906118a6565b9081526020016040518091039020600101548710610ae25760405162461bcd60e51b815260206004820152600d60248201526c092dcecc2d8d2c840d2dcc8caf609b1b6044820152606401610119565b85600081518110610af557610af56118c2565b6020026020010151816000018a604051610b0f91906118a6565b908152604080516020928190038301902060008b81526004909101835220825181559082015160018083018054909160ff1990911690836007811115610b5757610b576118d8565b021790555060408201516002820190610b709082611979565b5060608201516003820190610b859082611979565b5060808201516004820190610b9a9082611979565b5060a08201516005820190610baf9082611979565b5060c08201516006820190610bc49082611979565b5060e08201516007820190610bd99082611979565b5090505084600081518110610bf057610bf06118c2565b6020026020010151816000018a604051610c0a91906118a6565b908152602001604051809103902060050160008981526020019081526020016000209080519060200190610c3f929190611185565b5083600081518110610c5357610c536118c2565b6020026020010151816000018a604051610c6d91906118a6565b908152602001604051809103902060060160008981526020019081526020016000209080519060200190610ca2929190611185565b5082600081518110610cb657610cb66118c2565b6020026020010151816000018a604051610cd091906118a6565b908152602001604051809103902060070160008981526020019081526020016000209080519060200190610d05929190611185565b5081600081518110610d1957610d196118c2565b6020026020010151816000018a604051610d3391906118a6565b908152602001604051809103902060080160008981526020019081526020016000209080519060200190610d68929190611185565b507f54ee93927b07f20107a2424f1a0f254dd437de5d3ce8e462f19efe7ffbd431a089604051610a2a9190611a65565b60405162461bcd60e51b8152602060048201526016602482015275496e76616c6964206f7065726174696f6e207479706560501b6044820152606401610119565b505050505050505050565b6040516000907f34b903b1c9f516e29bcc70e55a6bc2ac2c43ec324e4a6cfb468f0c027487621c908190610e199085906118a6565b9081526040519081900360200190205460ff16610e745760405162461bcd60e51b8152602060048201526019602482015278151a1a5cc8135bd9195b08191bd95cc81b9bdd08195e1a5cdd603a1b6044820152606401610119565b60005b6040518290610e879086906118a6565b9081526020016040518091039020600101548110156110bf576040518290610eb09086906118a6565b908152602001604051809103902060030160008360000186604051610ed591906118a6565b9081526040805160209281900383019020600290810154845283830194909452918201600090812090930180546001810182559084529083200191909155518290610f219086906118a6565b908152602001604051809103902060030160008360000186604051610f4691906118a6565b9081526040805160209281900383019020600201548352828201939093529082016000908120600301805460018101825590825291812090910155518290610f8f9086906118a6565b908152602001604051809103902060030160008360000186604051610fb491906118a6565b90815260408051602092819003830190206002015483528282019390935291016000908120600401805460018101825590825291812090910181905560405183906110009087906118a6565b90815260408051602092819003830190206000858152600490910190925290206001015460ff166007811115611038576110386118d8565b036110b7576001826000018560405161105191906118a6565b90815260200160405180910390206003016000846000018760405161107691906118a6565b908152602001604051809103902060020154815260200190815260200160002060020182815481106110aa576110aa6118c2565b6000918252602090912001555b600101610e77565b507f52d8ec9f5b057948b669476918c4b9c4a4a69a1f1500704f7eb9428b7231272d8382600001856040516110f491906118a6565b908152604051908190036020018120600201546111119291611aa7565b60405180910390a160405181906111299085906118a6565b908152604051908190036020019020600201805490600061114983611ac9565b91905055506001816000018460405161116291906118a6565b90815260200160405180910390206002015461117e9190611ae2565b9392505050565b8280548282559060005260206000209081019282156111cb579160200282015b828111156111cb57825182906111bb9082611979565b50916020019190600101906111a5565b506111d79291506111db565b5090565b808211156111d75760006111ef82826111f8565b506001016111db565b508054611204906118ee565b6000825580601f10611214575050565b601f0160209004906000526020600020908101906112329190611235565b50565b5b808211156111d75760008155600101611236565b634e487b7160e01b600052604160045260246000fd5b604051610100810167ffffffffffffffff811182821017156112845761128461124a565b60405290565b604051601f8201601f1916810167ffffffffffffffff811182821017156112b3576112b361124a565b604052919050565b600082601f8301126112cc57600080fd5b813567ffffffffffffffff8111156112e6576112e661124a565b6112f9601f8201601f191660200161128a565b81815284602083860101111561130e57600080fd5b816020850160208301376000918101602001919091529392505050565b600067ffffffffffffffff8211156113455761134561124a565b5060051b60200190565b80356008811061135e57600080fd5b919050565b600082601f83011261137457600080fd5b813560206113896113848361132b565b61128a565b82815260059290921b840181019181810190868411156113a857600080fd5b8286015b8481101561150857803567ffffffffffffffff808211156113cd5760008081fd5b90880190610100828b03601f19018113156113e85760008081fd5b6113f0611260565b878401358152604061140381860161134f565b898301526060808601358581111561141b5760008081fd5b6114298f8c838a01016112bb565b83850152506080915081860135858111156114445760008081fd5b6114528f8c838a01016112bb565b82850152505060a0808601358581111561146c5760008081fd5b61147a8f8c838a01016112bb565b838501525060c0915081860135858111156114955760008081fd5b6114a38f8c838a01016112bb565b82850152505060e080860135858111156114bd5760008081fd5b6114cb8f8c838a01016112bb565b84840152509285013592848411156114e557600091508182fd5b6114f38e8b868901016112bb565b908301525086525050509183019183016113ac565b509695505050505050565b600082601f83011261152457600080fd5b813560206115346113848361132b565b82815260059290921b8401810191818101908684111561155357600080fd5b8286015b8481101561150857803567ffffffffffffffff8111156115775760008081fd5b6115858986838b01016112bb565b845250918301918301611557565b600082601f8301126115a457600080fd5b813560206115b46113848361132b565b82815260059290921b840181019181810190868411156115d357600080fd5b8286015b8481101561150857803567ffffffffffffffff8111156115f75760008081fd5b6116058986838b0101611513565b8452509183019183016115d7565b600080600080600080600080610100898b03121561163057600080fd5b883567ffffffffffffffff8082111561164857600080fd5b6116548c838d016112bb565b995060208b013591508082111561166a57600080fd5b6116768c838d01611363565b985060408b013591508082111561168c57600080fd5b6116988c838d01611593565b975060608b01359150808211156116ae57600080fd5b6116ba8c838d01611593565b965060808b01359150808211156116d057600080fd5b6116dc8c838d01611593565b955060a08b01359150808211156116f257600080fd5b6116fe8c838d01611593565b945060c08b013591508082111561171457600080fd5b6117208c838d01611513565b935060e08b013591508082111561173657600080fd5b506117438b828c01611593565b9150509295985092959890939650565b600080600080600080600080610100898b03121561177057600080fd5b883567ffffffffffffffff8082111561178857600080fd5b6117948c838d016112bb565b995060208b01359150808211156117aa57600080fd5b6117b68c838d016112bb565b985060408b0135975060608b01359150808211156117d357600080fd5b6117df8c838d01611363565b965060808b01359150808211156117f557600080fd5b6118018c838d01611593565b955060a08b013591508082111561181757600080fd5b6118238c838d01611593565b945060c08b013591508082111561183957600080fd5b6117208c838d01611593565b60006020828403121561185757600080fd5b813567ffffffffffffffff81111561186e57600080fd5b61187a848285016112bb565b949350505050565b60005b8381101561189d578181015183820152602001611885565b50506000910152565b600082516118b8818460208701611882565b9190910192915050565b634e487b7160e01b600052603260045260246000fd5b634e487b7160e01b600052602160045260246000fd5b600181811c9082168061190257607f821691505b60208210810361192257634e487b7160e01b600052602260045260246000fd5b50919050565b601f821115611974576000816000526020600020601f850160051c810160208610156119515750805b601f850160051c820191505b818110156119705782815560010161195d565b5050505b505050565b815167ffffffffffffffff8111156119935761199361124a565b6119a7816119a184546118ee565b84611928565b602080601f8311600181146119dc57600084156119c45750858301515b600019600386901b1c1916600185901b178555611970565b600085815260208120601f198616915b82811015611a0b578886015182559484019460019091019084016119ec565b5085821015611a295787850151600019600388901b60f8161c191681555b5050505050600190811b01905550565b60008151808452611a51816020860160208601611882565b601f01601f19169290920160200192915050565b60208152600061117e6020830184611a39565b634e487b7160e01b600052601160045260246000fd5b80820180821115611aa157611aa1611a78565b92915050565b604081526000611aba6040830185611a39565b90508260208301529392505050565b600060018201611adb57611adb611a78565b5060010190565b81810381811115611aa157611aa1611a7856fea2646970667358221220036b4166df9ec1d406beaaa7d336cb3f50cfcf24a4f64a0901af6dc2672e73a264736f6c63430008180033","opcodes":"PUSH1 0x80 PUSH1 0x40 MSTORE CALLVALUE DUP1 ISZERO PUSH2 0x10 JUMPI PUSH1 0x0 DUP1 REVERT JUMPDEST POP PUSH2 0x1B2B DUP1 PUSH2 0x20 PUSH1 0x0 CODECOPY PUSH1 0x0 RETURN INVALID PUSH1 0x80 PUSH1 0x40 MSTORE CALLVALUE DUP1 ISZERO PUSH2 0x10 JUMPI PUSH1 0x0 DUP1 REVERT JUMPDEST POP PUSH1 0x4 CALLDATASIZE LT PUSH2 0x41 JUMPI PUSH1 0x0 CALLDATALOAD PUSH1 0xE0 SHR DUP1 PUSH4 0x8D30BF3C EQ PUSH2 0x46 JUMPI DUP1 PUSH4 0xCC2F5BA1 EQ PUSH2 0x5B JUMPI DUP1 PUSH4 0xCC31DD4F EQ PUSH2 0x6E JUMPI JUMPDEST PUSH1 0x0 DUP1 REVERT JUMPDEST PUSH2 0x59 PUSH2 0x54 CALLDATASIZE PUSH1 0x4 PUSH2 0x1613 JUMP JUMPDEST PUSH2 0x93 JUMP JUMPDEST STOP JUMPDEST PUSH2 0x59 PUSH2 0x69 CALLDATASIZE PUSH1 0x4 PUSH2 0x1753 JUMP JUMPDEST PUSH2 0x50E JUMP JUMPDEST PUSH2 0x81 PUSH2 0x7C CALLDATASIZE PUSH1 0x4 PUSH2 0x1845 JUMP JUMPDEST PUSH2 0xDE4 JUMP JUMPDEST PUSH1 0x40 MLOAD SWAP1 DUP2 MSTORE PUSH1 0x20 ADD PUSH1 0x40 MLOAD DUP1 SWAP2 SUB SWAP1 RETURN JUMPDEST PUSH1 0x40 MLOAD PUSH32 0x34B903B1C9F516E29BCC70E55A6BC2AC2C43EC324E4A6CFB468F0C027487621C SWAP1 DUP2 SWAP1 PUSH2 0xC5 SWAP1 DUP12 SWAP1 PUSH2 0x18A6 JUMP JUMPDEST SWAP1 DUP2 MSTORE PUSH1 0x40 MLOAD SWAP1 DUP2 SWAP1 SUB PUSH1 0x20 ADD SWAP1 KECCAK256 SLOAD PUSH1 0xFF AND ISZERO PUSH2 0x122 JUMPI PUSH1 0x40 MLOAD PUSH3 0x461BCD PUSH1 0xE5 SHL DUP2 MSTORE PUSH1 0x20 PUSH1 0x4 DUP3 ADD MSTORE PUSH1 0x15 PUSH1 0x24 DUP3 ADD MSTORE PUSH21 0x2730B6B29034B99030B63932B0B23C903A30B5B2B7 PUSH1 0x59 SHL PUSH1 0x44 DUP3 ADD MSTORE PUSH1 0x64 ADD JUMPDEST PUSH1 0x40 MLOAD DUP1 SWAP2 SUB SWAP1 REVERT JUMPDEST PUSH1 0x1 DUP2 PUSH1 0x0 ADD DUP11 PUSH1 0x40 MLOAD PUSH2 0x136 SWAP2 SWAP1 PUSH2 0x18A6 JUMP JUMPDEST SWAP1 DUP2 MSTORE PUSH1 0x40 MLOAD SWAP1 DUP2 SWAP1 SUB PUSH1 0x20 ADD DUP2 KECCAK256 DUP1 SLOAD SWAP3 ISZERO ISZERO PUSH1 0xFF NOT SWAP1 SWAP4 AND SWAP3 SWAP1 SWAP3 OR SWAP1 SWAP2 SSTORE DUP9 MLOAD SWAP1 DUP3 SWAP1 PUSH2 0x167 SWAP1 DUP13 SWAP1 PUSH2 0x18A6 JUMP JUMPDEST SWAP1 DUP2 MSTORE PUSH1 0x40 MLOAD SWAP1 DUP2 SWAP1 SUB PUSH1 0x20 ADD SWAP1 KECCAK256 PUSH1 0x1 ADD SSTORE PUSH1 0x0 JUMPDEST PUSH1 0x40 MLOAD DUP3 SWAP1 PUSH2 0x18D SWAP1 DUP13 SWAP1 PUSH2 0x18A6 JUMP JUMPDEST SWAP1 DUP2 MSTORE PUSH1 0x20 ADD PUSH1 0x40 MLOAD DUP1 SWAP2 SUB SWAP1 KECCAK256 PUSH1 0x1 ADD SLOAD DUP2 LT ISZERO PUSH2 0x430 JUMPI DUP9 DUP2 DUP2 MLOAD DUP2 LT PUSH2 0x1B8 JUMPI PUSH2 0x1B8 PUSH2 0x18C2 JUMP JUMPDEST PUSH1 0x20 MUL PUSH1 0x20 ADD ADD MLOAD DUP3 PUSH1 0x0 ADD DUP12 PUSH1 0x40 MLOAD PUSH2 0x1D2 SWAP2 SWAP1 PUSH2 0x18A6 JUMP JUMPDEST SWAP1 DUP2 MSTORE PUSH1 0x40 DUP1 MLOAD PUSH1 0x20 SWAP3 DUP2 SWAP1 SUB DUP4 ADD SWAP1 KECCAK256 PUSH1 0x0 DUP6 DUP2 MSTORE PUSH1 0x4 SWAP1 SWAP2 ADD DUP4 MSTORE KECCAK256 DUP3 MLOAD DUP2 SSTORE SWAP1 DUP3 ADD MLOAD PUSH1 0x1 DUP1 DUP4 ADD DUP1 SLOAD SWAP1 SWAP2 PUSH1 0xFF NOT SWAP1 SWAP2 AND SWAP1 DUP4 PUSH1 0x7 DUP2 GT ISZERO PUSH2 0x21A JUMPI PUSH2 0x21A PUSH2 0x18D8 JUMP JUMPDEST MUL OR SWAP1 SSTORE POP PUSH1 0x40 DUP3 ADD MLOAD PUSH1 0x2 DUP3 ADD SWAP1 PUSH2 0x233 SWAP1 DUP3 PUSH2 0x1979 JUMP JUMPDEST POP PUSH1 0x60 DUP3 ADD MLOAD PUSH1 0x3 DUP3 ADD SWAP1 PUSH2 0x248 SWAP1 DUP3 PUSH2 0x1979 JUMP JUMPDEST POP PUSH1 0x80 DUP3 ADD MLOAD PUSH1 0x4 DUP3 ADD SWAP1 PUSH2 0x25D SWAP1 DUP3 PUSH2 0x1979 JUMP JUMPDEST POP PUSH1 0xA0 DUP3 ADD MLOAD PUSH1 0x5 DUP3 ADD SWAP1 PUSH2 0x272 SWAP1 DUP3 PUSH2 0x1979 JUMP JUMPDEST POP PUSH1 0xC0 DUP3 ADD MLOAD PUSH1 0x6 DUP3 ADD SWAP1 PUSH2 0x287 SWAP1 DUP3 PUSH2 0x1979 JUMP JUMPDEST POP PUSH1 0xE0 DUP3 ADD MLOAD PUSH1 0x7 DUP3 ADD SWAP1 PUSH2 0x29C SWAP1 DUP3 PUSH2 0x1979 JUMP JUMPDEST POP SWAP1 POP POP DUP8 DUP2 DUP2 MLOAD DUP2 LT PUSH2 0x2B2 JUMPI PUSH2 0x2B2 PUSH2 0x18C2 JUMP JUMPDEST PUSH1 0x20 MUL PUSH1 0x20 ADD ADD MLOAD DUP3 PUSH1 0x0 ADD DUP12 PUSH1 0x40 MLOAD PUSH2 0x2CC SWAP2 SWAP1 PUSH2 0x18A6 JUMP JUMPDEST SWAP1 DUP2 MSTORE PUSH1 0x20 ADD PUSH1 0x40 MLOAD DUP1 SWAP2 SUB SWAP1 KECCAK256 PUSH1 0x5 ADD PUSH1 0x0 DUP4 DUP2 MSTORE PUSH1 0x20 ADD SWAP1 DUP2 MSTORE PUSH1 0x20 ADD PUSH1 0x0 KECCAK256 SWAP1 DUP1 MLOAD SWAP1 PUSH1 0x20 ADD SWAP1 PUSH2 0x301 SWAP3 SWAP2 SWAP1 PUSH2 0x1185 JUMP JUMPDEST POP DUP7 DUP2 DUP2 MLOAD DUP2 LT PUSH2 0x314 JUMPI PUSH2 0x314 PUSH2 0x18C2 JUMP JUMPDEST PUSH1 0x20 MUL PUSH1 0x20 ADD ADD MLOAD DUP3 PUSH1 0x0 ADD DUP12 PUSH1 0x40 MLOAD PUSH2 0x32E SWAP2 SWAP1 PUSH2 0x18A6 JUMP JUMPDEST SWAP1 DUP2 MSTORE PUSH1 0x20 ADD PUSH1 0x40 MLOAD DUP1 SWAP2 SUB SWAP1 KECCAK256 PUSH1 0x6 ADD PUSH1 0x0 DUP4 DUP2 MSTORE PUSH1 0x20 ADD SWAP1 DUP2 MSTORE PUSH1 0x20 ADD PUSH1 0x0 KECCAK256 SWAP1 DUP1 MLOAD SWAP1 PUSH1 0x20 ADD SWAP1 PUSH2 0x363 SWAP3 SWAP2 SWAP1 PUSH2 0x1185 JUMP JUMPDEST POP DUP6 DUP2 DUP2 MLOAD DUP2 LT PUSH2 0x376 JUMPI PUSH2 0x376 PUSH2 0x18C2 JUMP JUMPDEST PUSH1 0x20 MUL PUSH1 0x20 ADD ADD MLOAD DUP3 PUSH1 0x0 ADD DUP12 PUSH1 0x40 MLOAD PUSH2 0x390 SWAP2 SWAP1 PUSH2 0x18A6 JUMP JUMPDEST SWAP1 DUP2 MSTORE PUSH1 0x20 ADD PUSH1 0x40 MLOAD DUP1 SWAP2 SUB SWAP1 KECCAK256 PUSH1 0x7 ADD PUSH1 0x0 DUP4 DUP2 MSTORE PUSH1 0x20 ADD SWAP1 DUP2 MSTORE PUSH1 0x20 ADD PUSH1 0x0 KECCAK256 SWAP1 DUP1 MLOAD SWAP1 PUSH1 0x20 ADD SWAP1 PUSH2 0x3C5 SWAP3 SWAP2 SWAP1 PUSH2 0x1185 JUMP JUMPDEST POP DUP5 DUP2 DUP2 MLOAD DUP2 LT PUSH2 0x3D8 JUMPI PUSH2 0x3D8 PUSH2 0x18C2 JUMP JUMPDEST PUSH1 0x20 MUL PUSH1 0x20 ADD ADD MLOAD DUP3 PUSH1 0x0 ADD DUP12 PUSH1 0x40 MLOAD PUSH2 0x3F2 SWAP2 SWAP1 PUSH2 0x18A6 JUMP JUMPDEST SWAP1 DUP2 MSTORE PUSH1 0x20 ADD PUSH1 0x40 MLOAD DUP1 SWAP2 SUB SWAP1 KECCAK256 PUSH1 0x8 ADD PUSH1 0x0 DUP4 DUP2 MSTORE PUSH1 0x20 ADD SWAP1 DUP2 MSTORE PUSH1 0x20 ADD PUSH1 0x0 KECCAK256 SWAP1 DUP1 MLOAD SWAP1 PUSH1 0x20 ADD SWAP1 PUSH2 0x427 SWAP3 SWAP2 SWAP1 PUSH2 0x1185 JUMP JUMPDEST POP PUSH1 0x1 ADD PUSH2 0x17D JUMP JUMPDEST POP PUSH1 0x0 JUMPDEST DUP4 MLOAD DUP2 LT ISZERO PUSH2 0x4CB JUMPI DUP3 DUP2 DUP2 MLOAD DUP2 LT PUSH2 0x44F JUMPI PUSH2 0x44F PUSH2 0x18C2 JUMP JUMPDEST PUSH1 0x20 MUL PUSH1 0x20 ADD ADD MLOAD DUP3 PUSH1 0x0 ADD DUP12 PUSH1 0x40 MLOAD PUSH2 0x469 SWAP2 SWAP1 PUSH2 0x18A6 JUMP JUMPDEST SWAP1 DUP2 MSTORE PUSH1 0x20 ADD PUSH1 0x40 MLOAD DUP1 SWAP2 SUB SWAP1 KECCAK256 PUSH1 0x9 ADD DUP6 DUP4 DUP2 MLOAD DUP2 LT PUSH2 0x48C JUMPI PUSH2 0x48C PUSH2 0x18C2 JUMP JUMPDEST PUSH1 0x20 MUL PUSH1 0x20 ADD ADD MLOAD PUSH1 0x40 MLOAD PUSH2 0x4A1 SWAP2 SWAP1 PUSH2 0x18A6 JUMP JUMPDEST SWAP1 DUP2 MSTORE PUSH1 0x20 ADD PUSH1 0x40 MLOAD DUP1 SWAP2 SUB SWAP1 KECCAK256 SWAP1 DUP1 MLOAD SWAP1 PUSH1 0x20 ADD SWAP1 PUSH2 0x4C2 SWAP3 SWAP2 SWAP1 PUSH2 0x1185 JUMP JUMPDEST POP PUSH1 0x1 ADD PUSH2 0x434 JUMP JUMPDEST POP PUSH32 0x199AAB2F4D8489F44C22DEF22DDC192F95A7736DDA51493AF0A19361B0964D44 DUP10 PUSH1 0x40 MLOAD PUSH2 0x4FB SWAP2 SWAP1 PUSH2 0x1A65 JUMP JUMPDEST PUSH1 0x40 MLOAD DUP1 SWAP2 SUB SWAP1 LOG1 POP POP POP POP POP POP POP POP POP JUMP JUMPDEST PUSH1 0x40 MLOAD PUSH32 0x34B903B1C9F516E29BCC70E55A6BC2AC2C43EC324E4A6CFB468F0C027487621C SWAP1 DUP2 SWAP1 PUSH2 0x540 SWAP1 DUP12 SWAP1 PUSH2 0x18A6 JUMP JUMPDEST SWAP1 DUP2 MSTORE PUSH1 0x40 MLOAD SWAP1 DUP2 SWAP1 SUB PUSH1 0x20 ADD SWAP1 KECCAK256 SLOAD PUSH1 0xFF AND PUSH2 0x59B JUMPI PUSH1 0x40 MLOAD PUSH3 0x461BCD PUSH1 0xE5 SHL DUP2 MSTORE PUSH1 0x20 PUSH1 0x4 DUP3 ADD MSTORE PUSH1 0x19 PUSH1 0x24 DUP3 ADD MSTORE PUSH25 0x151A1A5CC8135BD9195B08191BD95CC81B9BDD08195E1A5CDD PUSH1 0x3A SHL PUSH1 0x44 DUP3 ADD MSTORE PUSH1 0x64 ADD PUSH2 0x119 JUMP JUMPDEST PUSH1 0x40 DUP1 MLOAD DUP1 DUP3 ADD SWAP1 SWAP2 MSTORE PUSH1 0x3 DUP2 MSTORE PUSH3 0x185919 PUSH1 0xEA SHL PUSH1 0x20 SWAP2 DUP3 ADD MSTORE DUP9 MLOAD SWAP1 DUP10 ADD KECCAK256 PUSH32 0xB0A57447B6DCC818642398B290CE53BB707FE81D9338401CEBB04A277901AC97 ADD PUSH2 0x951 JUMPI PUSH1 0x0 DUP2 PUSH1 0x0 ADD DUP11 PUSH1 0x40 MLOAD PUSH2 0x5F6 SWAP2 SWAP1 PUSH2 0x18A6 JUMP JUMPDEST SWAP1 DUP2 MSTORE PUSH1 0x20 ADD PUSH1 0x40 MLOAD DUP1 SWAP2 SUB SWAP1 KECCAK256 PUSH1 0x1 ADD SLOAD SWAP1 POP DUP7 MLOAD DUP3 PUSH1 0x0 ADD DUP12 PUSH1 0x40 MLOAD PUSH2 0x61E SWAP2 SWAP1 PUSH2 0x18A6 JUMP JUMPDEST SWAP1 DUP2 MSTORE PUSH1 0x20 ADD PUSH1 0x40 MLOAD DUP1 SWAP2 SUB SWAP1 KECCAK256 PUSH1 0x1 ADD PUSH1 0x0 DUP3 DUP3 SLOAD PUSH2 0x63E SWAP2 SWAP1 PUSH2 0x1A8E JUMP JUMPDEST SWAP1 SWAP2 SSTORE POP PUSH1 0x0 SWAP1 POP JUMPDEST DUP8 MLOAD DUP2 LT ISZERO PUSH2 0x913 JUMPI DUP8 DUP2 DUP2 MLOAD DUP2 LT PUSH2 0x662 JUMPI PUSH2 0x662 PUSH2 0x18C2 JUMP JUMPDEST PUSH1 0x20 MUL PUSH1 0x20 ADD ADD MLOAD DUP4 PUSH1 0x0 ADD DUP13 PUSH1 0x40 MLOAD PUSH2 0x67C SWAP2 SWAP1 PUSH2 0x18A6 JUMP JUMPDEST SWAP1 DUP2 MSTORE PUSH1 0x40 MLOAD SWAP1 DUP2 SWAP1 SUB PUSH1 0x20 ADD SWAP1 KECCAK256 PUSH1 0x4 ADD PUSH1 0x0 PUSH2 0x69A DUP5 DUP7 PUSH2 0x1A8E JUMP JUMPDEST DUP2 MSTORE PUSH1 0x20 DUP1 DUP3 ADD SWAP3 SWAP1 SWAP3 MSTORE PUSH1 0x40 ADD PUSH1 0x0 KECCAK256 DUP3 MLOAD DUP2 SSTORE SWAP1 DUP3 ADD MLOAD PUSH1 0x1 DUP1 DUP4 ADD DUP1 SLOAD SWAP1 SWAP2 PUSH1 0xFF NOT SWAP1 SWAP2 AND SWAP1 DUP4 PUSH1 0x7 DUP2 GT ISZERO PUSH2 0x6D5 JUMPI PUSH2 0x6D5 PUSH2 0x18D8 JUMP JUMPDEST MUL OR SWAP1 SSTORE POP PUSH1 0x40 DUP3 ADD MLOAD PUSH1 0x2 DUP3 ADD SWAP1 PUSH2 0x6EE SWAP1 DUP3 PUSH2 0x1979 JUMP JUMPDEST POP PUSH1 0x60 DUP3 ADD MLOAD PUSH1 0x3 DUP3 ADD SWAP1 PUSH2 0x703 SWAP1 DUP3 PUSH2 0x1979 JUMP JUMPDEST POP PUSH1 0x80 DUP3 ADD MLOAD PUSH1 0x4 DUP3 ADD SWAP1 PUSH2 0x718 SWAP1 DUP3 PUSH2 0x1979 JUMP JUMPDEST POP PUSH1 0xA0 DUP3 ADD MLOAD PUSH1 0x5 DUP3 ADD SWAP1 PUSH2 0x72D SWAP1 DUP3 PUSH2 0x1979 JUMP JUMPDEST POP PUSH1 0xC0 DUP3 ADD MLOAD PUSH1 0x6 DUP3 ADD SWAP1 PUSH2 0x742 SWAP1 DUP3 PUSH2 0x1979 JUMP JUMPDEST POP PUSH1 0xE0 DUP3 ADD MLOAD PUSH1 0x7 DUP3 ADD SWAP1 PUSH2 0x757 SWAP1 DUP3 PUSH2 0x1979 JUMP JUMPDEST POP SWAP1 POP POP DUP7 DUP2 DUP2 MLOAD DUP2 LT PUSH2 0x76D JUMPI PUSH2 0x76D PUSH2 0x18C2 JUMP JUMPDEST PUSH1 0x20 MUL PUSH1 0x20 ADD ADD MLOAD DUP4 PUSH1 0x0 ADD DUP13 PUSH1 0x40 MLOAD PUSH2 0x787 SWAP2 SWAP1 PUSH2 0x18A6 JUMP JUMPDEST SWAP1 DUP2 MSTORE PUSH1 0x40 MLOAD SWAP1 DUP2 SWAP1 SUB PUSH1 0x20 ADD SWAP1 KECCAK256 PUSH1 0x5 ADD PUSH1 0x0 PUSH2 0x7A5 DUP5 DUP7 PUSH2 0x1A8E JUMP JUMPDEST DUP2 MSTORE PUSH1 0x20 ADD SWAP1 DUP2 MSTORE PUSH1 0x20 ADD PUSH1 0x0 KECCAK256 SWAP1 DUP1 MLOAD SWAP1 PUSH1 0x20 ADD SWAP1 PUSH2 0x7C6 SWAP3 SWAP2 SWAP1 PUSH2 0x1185 JUMP JUMPDEST POP DUP6 DUP2 DUP2 MLOAD DUP2 LT PUSH2 0x7D9 JUMPI PUSH2 0x7D9 PUSH2 0x18C2 JUMP JUMPDEST PUSH1 0x20 MUL PUSH1 0x20 ADD ADD MLOAD DUP4 PUSH1 0x0 ADD DUP13 PUSH1 0x40 MLOAD PUSH2 0x7F3 SWAP2 SWAP1 PUSH2 0x18A6 JUMP JUMPDEST SWAP1 DUP2 MSTORE PUSH1 0x40 MLOAD SWAP1 DUP2 SWAP1 SUB PUSH1 0x20 ADD SWAP1 KECCAK256 PUSH1 0x6 ADD PUSH1 0x0 PUSH2 0x811 DUP5 DUP7 PUSH2 0x1A8E JUMP JUMPDEST DUP2 MSTORE PUSH1 0x20 ADD SWAP1 DUP2 MSTORE PUSH1 0x20 ADD PUSH1 0x0 KECCAK256 SWAP1 DUP1 MLOAD SWAP1 PUSH1 0x20 ADD SWAP1 PUSH2 0x832 SWAP3 SWAP2 SWAP1 PUSH2 0x1185 JUMP JUMPDEST POP DUP5 DUP2 DUP2 MLOAD DUP2 LT PUSH2 0x845 JUMPI PUSH2 0x845 PUSH2 0x18C2 JUMP JUMPDEST PUSH1 0x20 MUL PUSH1 0x20 ADD ADD MLOAD DUP4 PUSH1 0x0 ADD DUP13 PUSH1 0x40 MLOAD PUSH2 0x85F SWAP2 SWAP1 PUSH2 0x18A6 JUMP JUMPDEST SWAP1 DUP2 MSTORE PUSH1 0x40 MLOAD SWAP1 DUP2 SWAP1 SUB PUSH1 0x20 ADD SWAP1 KECCAK256 PUSH1 0x7 ADD PUSH1 0x0 PUSH2 0x87D DUP5 DUP7 PUSH2 0x1A8E JUMP JUMPDEST DUP2 MSTORE PUSH1 0x20 ADD SWAP1 DUP2 MSTORE PUSH1 0x20 ADD PUSH1 0x0 KECCAK256 SWAP1 DUP1 MLOAD SWAP1 PUSH1 0x20 ADD SWAP1 PUSH2 0x89E SWAP3 SWAP2 SWAP1 PUSH2 0x1185 JUMP JUMPDEST POP DUP4 DUP2 DUP2 MLOAD DUP2 LT PUSH2 0x8B1 JUMPI PUSH2 0x8B1 PUSH2 0x18C2 JUMP JUMPDEST PUSH1 0x20 MUL PUSH1 0x20 ADD ADD MLOAD DUP4 PUSH1 0x0 ADD DUP13 PUSH1 0x40 MLOAD PUSH2 0x8CB SWAP2 SWAP1 PUSH2 0x18A6 JUMP JUMPDEST SWAP1 DUP2 MSTORE PUSH1 0x40 MLOAD SWAP1 DUP2 SWAP1 SUB PUSH1 0x20 ADD SWAP1 KECCAK256 PUSH1 0x8 ADD PUSH1 0x0 PUSH2 0x8E9 DUP5 DUP7 PUSH2 0x1A8E JUMP JUMPDEST DUP2 MSTORE PUSH1 0x20 ADD SWAP1 DUP2 MSTORE PUSH1 0x20 ADD PUSH1 0x0 KECCAK256 SWAP1 DUP1 MLOAD SWAP1 PUSH1 0x20 ADD SWAP1 PUSH2 0x90A SWAP3 SWAP2 SWAP1 PUSH2 0x1185 JUMP JUMPDEST POP PUSH1 0x1 ADD PUSH2 0x647 JUMP JUMPDEST POP PUSH32 0x54EE93927B07F20107A2424F1A0F254DD437DE5D3CE8E462F19EFE7FFBD431A0 DUP11 PUSH1 0x40 MLOAD PUSH2 0x943 SWAP2 SWAP1 PUSH2 0x1A65 JUMP JUMPDEST PUSH1 0x40 MLOAD DUP1 SWAP2 SUB SWAP1 LOG1 POP PUSH2 0xDD9 JUMP JUMPDEST PUSH1 0x40 DUP1 MLOAD DUP1 DUP3 ADD SWAP1 SWAP2 MSTORE PUSH1 0x6 DUP2 MSTORE PUSH6 0x72656D6F7665 PUSH1 0xD0 SHL PUSH1 0x20 SWAP2 DUP3 ADD MSTORE DUP9 MLOAD SWAP1 DUP10 ADD KECCAK256 PUSH32 0x722D85E6144DB689F59B6F572CCBBD5AB4A3C37AFBF9769B48BC774017CBA742 ADD PUSH2 0xA37 JUMPI PUSH1 0x40 MLOAD DUP2 SWAP1 PUSH2 0x9AB SWAP1 DUP12 SWAP1 PUSH2 0x18A6 JUMP JUMPDEST SWAP1 DUP2 MSTORE PUSH1 0x20 ADD PUSH1 0x40 MLOAD DUP1 SWAP2 SUB SWAP1 KECCAK256 PUSH1 0x1 ADD SLOAD DUP8 LT PUSH2 0x9FB JUMPI PUSH1 0x40 MLOAD PUSH3 0x461BCD PUSH1 0xE5 SHL DUP2 MSTORE PUSH1 0x20 PUSH1 0x4 DUP3 ADD MSTORE PUSH1 0xD PUSH1 0x24 DUP3 ADD MSTORE PUSH13 0x92DCECC2D8D2C840D2DCC8CAF PUSH1 0x9B SHL PUSH1 0x44 DUP3 ADD MSTORE PUSH1 0x64 ADD PUSH2 0x119 JUMP JUMPDEST PUSH32 0x54EE93927B07F20107A2424F1A0F254DD437DE5D3CE8E462F19EFE7FFBD431A0 DUP10 PUSH1 0x40 MLOAD PUSH2 0xA2A SWAP2 SWAP1 PUSH2 0x1A65 JUMP JUMPDEST PUSH1 0x40 MLOAD DUP1 SWAP2 SUB SWAP1 LOG1 PUSH2 0xDD9 JUMP JUMPDEST PUSH1 0x40 DUP1 MLOAD DUP1 DUP3 ADD SWAP1 SWAP2 MSTORE PUSH1 0x7 DUP2 MSTORE PUSH7 0x7265706C616365 PUSH1 0xC8 SHL PUSH1 0x20 SWAP2 DUP3 ADD MSTORE DUP9 MLOAD SWAP1 DUP10 ADD KECCAK256 PUSH32 0xAC5637F7F0236E46A8017CE707388B25BF76F92AA3527588A1F6A125FED063CF ADD PUSH2 0xD98 JUMPI PUSH1 0x40 MLOAD DUP2 SWAP1 PUSH2 0xA92 SWAP1 DUP12 SWAP1 PUSH2 0x18A6 JUMP JUMPDEST SWAP1 DUP2 MSTORE PUSH1 0x20 ADD PUSH1 0x40 MLOAD DUP1 SWAP2 SUB SWAP1 KECCAK256 PUSH1 0x1 ADD SLOAD DUP8 LT PUSH2 0xAE2 JUMPI PUSH1 0x40 MLOAD PUSH3 0x461BCD PUSH1 0xE5 SHL DUP2 MSTORE PUSH1 0x20 PUSH1 0x4 DUP3 ADD MSTORE PUSH1 0xD PUSH1 0x24 DUP3 ADD MSTORE PUSH13 0x92DCECC2D8D2C840D2DCC8CAF PUSH1 0x9B SHL PUSH1 0x44 DUP3 ADD MSTORE PUSH1 0x64 ADD PUSH2 0x119 JUMP JUMPDEST DUP6 PUSH1 0x0 DUP2 MLOAD DUP2 LT PUSH2 0xAF5 JUMPI PUSH2 0xAF5 PUSH2 0x18C2 JUMP JUMPDEST PUSH1 0x20 MUL PUSH1 0x20 ADD ADD MLOAD DUP2 PUSH1 0x0 ADD DUP11 PUSH1 0x40 MLOAD PUSH2 0xB0F SWAP2 SWAP1 PUSH2 0x18A6 JUMP JUMPDEST SWAP1 DUP2 MSTORE PUSH1 0x40 DUP1 MLOAD PUSH1 0x20 SWAP3 DUP2 SWAP1 SUB DUP4 ADD SWAP1 KECCAK256 PUSH1 0x0 DUP12 DUP2 MSTORE PUSH1 0x4 SWAP1 SWAP2 ADD DUP4 MSTORE KECCAK256 DUP3 MLOAD DUP2 SSTORE SWAP1 DUP3 ADD MLOAD PUSH1 0x1 DUP1 DUP4 ADD DUP1 SLOAD SWAP1 SWAP2 PUSH1 0xFF NOT SWAP1 SWAP2 AND SWAP1 DUP4 PUSH1 0x7 DUP2 GT ISZERO PUSH2 0xB57 JUMPI PUSH2 0xB57 PUSH2 0x18D8 JUMP JUMPDEST MUL OR SWAP1 SSTORE POP PUSH1 0x40 DUP3 ADD MLOAD PUSH1 0x2 DUP3 ADD SWAP1 PUSH2 0xB70 SWAP1 DUP3 PUSH2 0x1979 JUMP JUMPDEST POP PUSH1 0x60 DUP3 ADD MLOAD PUSH1 0x3 DUP3 ADD SWAP1 PUSH2 0xB85 SWAP1 DUP3 PUSH2 0x1979 JUMP JUMPDEST POP PUSH1 0x80 DUP3 ADD MLOAD PUSH1 0x4 DUP3 ADD SWAP1 PUSH2 0xB9A SWAP1 DUP3 PUSH2 0x1979 JUMP JUMPDEST POP PUSH1 0xA0 DUP3 ADD MLOAD PUSH1 0x5 DUP3 ADD SWAP1 PUSH2 0xBAF SWAP1 DUP3 PUSH2 0x1979 JUMP JUMPDEST POP PUSH1 0xC0 DUP3 ADD MLOAD PUSH1 0x6 DUP3 ADD SWAP1 PUSH2 0xBC4 SWAP1 DUP3 PUSH2 0x1979 JUMP JUMPDEST POP PUSH1 0xE0 DUP3 ADD MLOAD PUSH1 0x7 DUP3 ADD SWAP1 PUSH2 0xBD9 SWAP1 DUP3 PUSH2 0x1979 JUMP JUMPDEST POP SWAP1 POP POP DUP5 PUSH1 0x0 DUP2 MLOAD DUP2 LT PUSH2 0xBF0 JUMPI PUSH2 0xBF0 PUSH2 0x18C2 JUMP JUMPDEST PUSH1 0x20 MUL PUSH1 0x20 ADD ADD MLOAD DUP2 PUSH1 0x0 ADD DUP11 PUSH1 0x40 MLOAD PUSH2 0xC0A SWAP2 SWAP1 PUSH2 0x18A6 JUMP JUMPDEST SWAP1 DUP2 MSTORE PUSH1 0x20 ADD PUSH1 0x40 MLOAD DUP1 SWAP2 SUB SWAP1 KECCAK256 PUSH1 0x5 ADD PUSH1 0x0 DUP10 DUP2 MSTORE PUSH1 0x20 ADD SWAP1 DUP2 MSTORE PUSH1 0x20 ADD PUSH1 0x0 KECCAK256 SWAP1 DUP1 MLOAD SWAP1 PUSH1 0x20 ADD SWAP1 PUSH2 0xC3F SWAP3 SWAP2 SWAP1 PUSH2 0x1185 JUMP JUMPDEST POP DUP4 PUSH1 0x0 DUP2 MLOAD DUP2 LT PUSH2 0xC53 JUMPI PUSH2 0xC53 PUSH2 0x18C2 JUMP JUMPDEST PUSH1 0x20 MUL PUSH1 0x20 ADD ADD MLOAD DUP2 PUSH1 0x0 ADD DUP11 PUSH1 0x40 MLOAD PUSH2 0xC6D SWAP2 SWAP1 PUSH2 0x18A6 JUMP JUMPDEST SWAP1 DUP2 MSTORE PUSH1 0x20 ADD PUSH1 0x40 MLOAD DUP1 SWAP2 SUB SWAP1 KECCAK256 PUSH1 0x6 ADD PUSH1 0x0 DUP10 DUP2 MSTORE PUSH1 0x20 ADD SWAP1 DUP2 MSTORE PUSH1 0x20 ADD PUSH1 0x0 KECCAK256 SWAP1 DUP1 MLOAD SWAP1 PUSH1 0x20 ADD SWAP1 PUSH2 0xCA2 SWAP3 SWAP2 SWAP1 PUSH2 0x1185 JUMP JUMPDEST POP DUP3 PUSH1 0x0 DUP2 MLOAD DUP2 LT PUSH2 0xCB6 JUMPI PUSH2 0xCB6 PUSH2 0x18C2 JUMP JUMPDEST PUSH1 0x20 MUL PUSH1 0x20 ADD ADD MLOAD DUP2 PUSH1 0x0 ADD DUP11 PUSH1 0x40 MLOAD PUSH2 0xCD0 SWAP2 SWAP1 PUSH2 0x18A6 JUMP JUMPDEST SWAP1 DUP2 MSTORE PUSH1 0x20 ADD PUSH1 0x40 MLOAD DUP1 SWAP2 SUB SWAP1 KECCAK256 PUSH1 0x7 ADD PUSH1 0x0 DUP10 DUP2 MSTORE PUSH1 0x20 ADD SWAP1 DUP2 MSTORE PUSH1 0x20 ADD PUSH1 0x0 KECCAK256 SWAP1 DUP1 MLOAD SWAP1 PUSH1 0x20 ADD SWAP1 PUSH2 0xD05 SWAP3 SWAP2 SWAP1 PUSH2 0x1185 JUMP JUMPDEST POP DUP2 PUSH1 0x0 DUP2 MLOAD DUP2 LT PUSH2 0xD19 JUMPI PUSH2 0xD19 PUSH2 0x18C2 JUMP JUMPDEST PUSH1 0x20 MUL PUSH1 0x20 ADD ADD MLOAD DUP2 PUSH1 0x0 ADD DUP11 PUSH1 0x40 MLOAD PUSH2 0xD33 SWAP2 SWAP1 PUSH2 0x18A6 JUMP JUMPDEST SWAP1 DUP2 MSTORE PUSH1 0x20 ADD PUSH1 0x40 MLOAD DUP1 SWAP2 SUB SWAP1 KECCAK256 PUSH1 0x8 ADD PUSH1 0x0 DUP10 DUP2 MSTORE PUSH1 0x20 ADD SWAP1 DUP2 MSTORE PUSH1 0x20 ADD PUSH1 0x0 KECCAK256 SWAP1 DUP1 MLOAD SWAP1 PUSH1 0x20 ADD SWAP1 PUSH2 0xD68 SWAP3 SWAP2 SWAP1 PUSH2 0x1185 JUMP JUMPDEST POP PUSH32 0x54EE93927B07F20107A2424F1A0F254DD437DE5D3CE8E462F19EFE7FFBD431A0 DUP10 PUSH1 0x40 MLOAD PUSH2 0xA2A SWAP2 SWAP1 PUSH2 0x1A65 JUMP JUMPDEST PUSH1 0x40 MLOAD PUSH3 0x461BCD PUSH1 0xE5 SHL DUP2 MSTORE PUSH1 0x20 PUSH1 0x4 DUP3 ADD MSTORE PUSH1 0x16 PUSH1 0x24 DUP3 ADD MSTORE PUSH22 0x496E76616C6964206F7065726174696F6E2074797065 PUSH1 0x50 SHL PUSH1 0x44 DUP3 ADD MSTORE PUSH1 0x64 ADD PUSH2 0x119 JUMP JUMPDEST POP POP POP POP POP POP POP POP POP JUMP JUMPDEST PUSH1 0x40 MLOAD PUSH1 0x0 SWAP1 PUSH32 0x34B903B1C9F516E29BCC70E55A6BC2AC2C43EC324E4A6CFB468F0C027487621C SWAP1 DUP2 SWAP1 PUSH2 0xE19 SWAP1 DUP6 SWAP1 PUSH2 0x18A6 JUMP JUMPDEST SWAP1 DUP2 MSTORE PUSH1 0x40 MLOAD SWAP1 DUP2 SWAP1 SUB PUSH1 0x20 ADD SWAP1 KECCAK256 SLOAD PUSH1 0xFF AND PUSH2 0xE74 JUMPI PUSH1 0x40 MLOAD PUSH3 0x461BCD PUSH1 0xE5 SHL DUP2 MSTORE PUSH1 0x20 PUSH1 0x4 DUP3 ADD MSTORE PUSH1 0x19 PUSH1 0x24 DUP3 ADD MSTORE PUSH25 0x151A1A5CC8135BD9195B08191BD95CC81B9BDD08195E1A5CDD PUSH1 0x3A SHL PUSH1 0x44 DUP3 ADD MSTORE PUSH1 0x64 ADD PUSH2 0x119 JUMP JUMPDEST PUSH1 0x0 JUMPDEST PUSH1 0x40 MLOAD DUP3 SWAP1 PUSH2 0xE87 SWAP1 DUP7 SWAP1 PUSH2 0x18A6 JUMP JUMPDEST SWAP1 DUP2 MSTORE PUSH1 0x20 ADD PUSH1 0x40 MLOAD DUP1 SWAP2 SUB SWAP1 KECCAK256 PUSH1 0x1 ADD SLOAD DUP2 LT ISZERO PUSH2 0x10BF JUMPI PUSH1 0x40 MLOAD DUP3 SWAP1 PUSH2 0xEB0 SWAP1 DUP7 SWAP1 PUSH2 0x18A6 JUMP JUMPDEST SWAP1 DUP2 MSTORE PUSH1 0x20 ADD PUSH1 0x40 MLOAD DUP1 SWAP2 SUB SWAP1 KECCAK256 PUSH1 0x3 ADD PUSH1 0x0 DUP4 PUSH1 0x0 ADD DUP7 PUSH1 0x40 MLOAD PUSH2 0xED5 SWAP2 SWAP1 PUSH2 0x18A6 JUMP JUMPDEST SWAP1 DUP2 MSTORE PUSH1 0x40 DUP1 MLOAD PUSH1 0x20 SWAP3 DUP2 SWAP1 SUB DUP4 ADD SWAP1 KECCAK256 PUSH1 0x2 SWAP1 DUP2 ADD SLOAD DUP5 MSTORE DUP4 DUP4 ADD SWAP5 SWAP1 SWAP5 MSTORE SWAP2 DUP3 ADD PUSH1 0x0 SWAP1 DUP2 KECCAK256 SWAP1 SWAP4 ADD DUP1 SLOAD PUSH1 0x1 DUP2 ADD DUP3 SSTORE SWAP1 DUP5 MSTORE SWAP1 DUP4 KECCAK256 ADD SWAP2 SWAP1 SWAP2 SSTORE MLOAD DUP3 SWAP1 PUSH2 0xF21 SWAP1 DUP7 SWAP1 PUSH2 0x18A6 JUMP JUMPDEST SWAP1 DUP2 MSTORE PUSH1 0x20 ADD PUSH1 0x40 MLOAD DUP1 SWAP2 SUB SWAP1 KECCAK256 PUSH1 0x3 ADD PUSH1 0x0 DUP4 PUSH1 0x0 ADD DUP7 PUSH1 0x40 MLOAD PUSH2 0xF46 SWAP2 SWAP1 PUSH2 0x18A6 JUMP JUMPDEST SWAP1 DUP2 MSTORE PUSH1 0x40 DUP1 MLOAD PUSH1 0x20 SWAP3 DUP2 SWAP1 SUB DUP4 ADD SWAP1 KECCAK256 PUSH1 0x2 ADD SLOAD DUP4 MSTORE DUP3 DUP3 ADD SWAP4 SWAP1 SWAP4 MSTORE SWAP1 DUP3 ADD PUSH1 0x0 SWAP1 DUP2 KECCAK256 PUSH1 0x3 ADD DUP1 SLOAD PUSH1 0x1 DUP2 ADD DUP3 SSTORE SWAP1 DUP3 MSTORE SWAP2 DUP2 KECCAK256 SWAP1 SWAP2 ADD SSTORE MLOAD DUP3 SWAP1 PUSH2 0xF8F SWAP1 DUP7 SWAP1 PUSH2 0x18A6 JUMP JUMPDEST SWAP1 DUP2 MSTORE PUSH1 0x20 ADD PUSH1 0x40 MLOAD DUP1 SWAP2 SUB SWAP1 KECCAK256 PUSH1 0x3 ADD PUSH1 0x0 DUP4 PUSH1 0x0 ADD DUP7 PUSH1 0x40 MLOAD PUSH2 0xFB4 SWAP2 SWAP1 PUSH2 0x18A6 JUMP JUMPDEST SWAP1 DUP2 MSTORE PUSH1 0x40 DUP1 MLOAD PUSH1 0x20 SWAP3 DUP2 SWAP1 SUB DUP4 ADD SWAP1 KECCAK256 PUSH1 0x2 ADD SLOAD DUP4 MSTORE DUP3 DUP3 ADD SWAP4 SWAP1 SWAP4 MSTORE SWAP2 ADD PUSH1 0x0 SWAP1 DUP2 KECCAK256 PUSH1 0x4 ADD DUP1 SLOAD PUSH1 0x1 DUP2 ADD DUP3 SSTORE SWAP1 DUP3 MSTORE SWAP2 DUP2 KECCAK256 SWAP1 SWAP2 ADD DUP2 SWAP1 SSTORE PUSH1 0x40 MLOAD DUP4 SWAP1 PUSH2 0x1000 SWAP1 DUP8 SWAP1 PUSH2 0x18A6 JUMP JUMPDEST SWAP1 DUP2 MSTORE PUSH1 0x40 DUP1 MLOAD PUSH1 0x20 SWAP3 DUP2 SWAP1 SUB DUP4 ADD SWAP1 KECCAK256 PUSH1 0x0 DUP6 DUP2 MSTORE PUSH1 0x4 SWAP1 SWAP2 ADD SWAP1 SWAP3 MSTORE SWAP1 KECCAK256 PUSH1 0x1 ADD SLOAD PUSH1 0xFF AND PUSH1 0x7 DUP2 GT ISZERO PUSH2 0x1038 JUMPI PUSH2 0x1038 PUSH2 0x18D8 JUMP JUMPDEST SUB PUSH2 0x10B7 JUMPI PUSH1 0x1 DUP3 PUSH1 0x0 ADD DUP6 PUSH1 0x40 MLOAD PUSH2 0x1051 SWAP2 SWAP1 PUSH2 0x18A6 JUMP JUMPDEST SWAP1 DUP2 MSTORE PUSH1 0x20 ADD PUSH1 0x40 MLOAD DUP1 SWAP2 SUB SWAP1 KECCAK256 PUSH1 0x3 ADD PUSH1 0x0 DUP5 PUSH1 0x0 ADD DUP8 PUSH1 0x40 MLOAD PUSH2 0x1076 SWAP2 SWAP1 PUSH2 0x18A6 JUMP JUMPDEST SWAP1 DUP2 MSTORE PUSH1 0x20 ADD PUSH1 0x40 MLOAD DUP1 SWAP2 SUB SWAP1 KECCAK256 PUSH1 0x2 ADD SLOAD DUP2 MSTORE PUSH1 0x20 ADD SWAP1 DUP2 MSTORE PUSH1 0x20 ADD PUSH1 0x0 KECCAK256 PUSH1 0x2 ADD DUP3 DUP2 SLOAD DUP2 LT PUSH2 0x10AA JUMPI PUSH2 0x10AA PUSH2 0x18C2 JUMP JUMPDEST PUSH1 0x0 SWAP2 DUP3 MSTORE PUSH1 0x20 SWAP1 SWAP2 KECCAK256 ADD SSTORE JUMPDEST PUSH1 0x1 ADD PUSH2 0xE77 JUMP JUMPDEST POP PUSH32 0x52D8EC9F5B057948B669476918C4B9C4A4A69A1F1500704F7EB9428B7231272D DUP4 DUP3 PUSH1 0x0 ADD DUP6 PUSH1 0x40 MLOAD PUSH2 0x10F4 SWAP2 SWAP1 PUSH2 0x18A6 JUMP JUMPDEST SWAP1 DUP2 MSTORE PUSH1 0x40 MLOAD SWAP1 DUP2 SWAP1 SUB PUSH1 0x20 ADD DUP2 KECCAK256 PUSH1 0x2 ADD SLOAD PUSH2 0x1111 SWAP3 SWAP2 PUSH2 0x1AA7 JUMP JUMPDEST PUSH1 0x40 MLOAD DUP1 SWAP2 SUB SWAP1 LOG1 PUSH1 0x40 MLOAD DUP2 SWAP1 PUSH2 0x1129 SWAP1 DUP6 SWAP1 PUSH2 0x18A6 JUMP JUMPDEST SWAP1 DUP2 MSTORE PUSH1 0x40 MLOAD SWAP1 DUP2 SWAP1 SUB PUSH1 0x20 ADD SWAP1 KECCAK256 PUSH1 0x2 ADD DUP1 SLOAD SWAP1 PUSH1 0x0 PUSH2 0x1149 DUP4 PUSH2 0x1AC9 JUMP JUMPDEST SWAP2 SWAP1 POP SSTORE POP PUSH1 0x1 DUP2 PUSH1 0x0 ADD DUP5 PUSH1 0x40 MLOAD PUSH2 0x1162 SWAP2 SWAP1 PUSH2 0x18A6 JUMP JUMPDEST SWAP1 DUP2 MSTORE PUSH1 0x20 ADD PUSH1 0x40 MLOAD DUP1 SWAP2 SUB SWAP1 KECCAK256 PUSH1 0x2 ADD SLOAD PUSH2 0x117E SWAP2 SWAP1 PUSH2 0x1AE2 JUMP JUMPDEST SWAP4 SWAP3 POP POP POP JUMP JUMPDEST DUP3 DUP1 SLOAD DUP3 DUP3 SSTORE SWAP1 PUSH1 0x0 MSTORE PUSH1 0x20 PUSH1 0x0 KECCAK256 SWAP1 DUP2 ADD SWAP3 DUP3 ISZERO PUSH2 0x11CB JUMPI SWAP2 PUSH1 0x20 MUL DUP3 ADD JUMPDEST DUP3 DUP2 GT ISZERO PUSH2 0x11CB JUMPI DUP3 MLOAD DUP3 SWAP1 PUSH2 0x11BB SWAP1 DUP3 PUSH2 0x1979 JUMP JUMPDEST POP SWAP2 PUSH1 0x20 ADD SWAP2 SWAP1 PUSH1 0x1 ADD SWAP1 PUSH2 0x11A5 JUMP JUMPDEST POP PUSH2 0x11D7 SWAP3 SWAP2 POP PUSH2 0x11DB JUMP JUMPDEST POP SWAP1 JUMP JUMPDEST DUP1 DUP3 GT ISZERO PUSH2 0x11D7 JUMPI PUSH1 0x0 PUSH2 0x11EF DUP3 DUP3 PUSH2 0x11F8 JUMP JUMPDEST POP PUSH1 0x1 ADD PUSH2 0x11DB JUMP JUMPDEST POP DUP1 SLOAD PUSH2 0x1204 SWAP1 PUSH2 0x18EE JUMP JUMPDEST PUSH1 0x0 DUP3 SSTORE DUP1 PUSH1 0x1F LT PUSH2 0x1214 JUMPI POP POP JUMP JUMPDEST PUSH1 0x1F ADD PUSH1 0x20 SWAP1 DIV SWAP1 PUSH1 0x0 MSTORE PUSH1 0x20 PUSH1 0x0 KECCAK256 SWAP1 DUP2 ADD SWAP1 PUSH2 0x1232 SWAP2 SWAP1 PUSH2 0x1235 JUMP JUMPDEST POP JUMP JUMPDEST JUMPDEST DUP1 DUP3 GT ISZERO PUSH2 0x11D7 JUMPI PUSH1 0x0 DUP2 SSTORE PUSH1 0x1 ADD PUSH2 0x1236 JUMP JUMPDEST PUSH4 0x4E487B71 PUSH1 0xE0 SHL PUSH1 0x0 MSTORE PUSH1 0x41 PUSH1 0x4 MSTORE PUSH1 0x24 PUSH1 0x0 REVERT JUMPDEST PUSH1 0x40 MLOAD PUSH2 0x100 DUP2 ADD PUSH8 0xFFFFFFFFFFFFFFFF DUP2 GT DUP3 DUP3 LT OR ISZERO PUSH2 0x1284 JUMPI PUSH2 0x1284 PUSH2 0x124A JUMP JUMPDEST PUSH1 0x40 MSTORE SWAP1 JUMP JUMPDEST PUSH1 0x40 MLOAD PUSH1 0x1F DUP3 ADD PUSH1 0x1F NOT AND DUP2 ADD PUSH8 0xFFFFFFFFFFFFFFFF DUP2 GT DUP3 DUP3 LT OR ISZERO PUSH2 0x12B3 JUMPI PUSH2 0x12B3 PUSH2 0x124A JUMP JUMPDEST PUSH1 0x40 MSTORE SWAP2 SWAP1 POP JUMP JUMPDEST PUSH1 0x0 DUP3 PUSH1 0x1F DUP4 ADD SLT PUSH2 0x12CC JUMPI PUSH1 0x0 DUP1 REVERT JUMPDEST DUP2 CALLDATALOAD PUSH8 0xFFFFFFFFFFFFFFFF DUP2 GT ISZERO PUSH2 0x12E6 JUMPI PUSH2 0x12E6 PUSH2 0x124A JUMP JUMPDEST PUSH2 0x12F9 PUSH1 0x1F DUP3 ADD PUSH1 0x1F NOT AND PUSH1 0x20 ADD PUSH2 0x128A JUMP JUMPDEST DUP2 DUP2 MSTORE DUP5 PUSH1 0x20 DUP4 DUP7 ADD ADD GT ISZERO PUSH2 0x130E JUMPI PUSH1 0x0 DUP1 REVERT JUMPDEST DUP2 PUSH1 0x20 DUP6 ADD PUSH1 0x20 DUP4 ADD CALLDATACOPY PUSH1 0x0 SWAP2 DUP2 ADD PUSH1 0x20 ADD SWAP2 SWAP1 SWAP2 MSTORE SWAP4 SWAP3 POP POP POP JUMP JUMPDEST PUSH1 0x0 PUSH8 0xFFFFFFFFFFFFFFFF DUP3 GT ISZERO PUSH2 0x1345 JUMPI PUSH2 0x1345 PUSH2 0x124A JUMP JUMPDEST POP PUSH1 0x5 SHL PUSH1 0x20 ADD SWAP1 JUMP JUMPDEST DUP1 CALLDATALOAD PUSH1 0x8 DUP2 LT PUSH2 0x135E JUMPI PUSH1 0x0 DUP1 REVERT JUMPDEST SWAP2 SWAP1 POP JUMP JUMPDEST PUSH1 0x0 DUP3 PUSH1 0x1F DUP4 ADD SLT PUSH2 0x1374 JUMPI PUSH1 0x0 DUP1 REVERT JUMPDEST DUP2 CALLDATALOAD PUSH1 0x20 PUSH2 0x1389 PUSH2 0x1384 DUP4 PUSH2 0x132B JUMP JUMPDEST PUSH2 0x128A JUMP JUMPDEST DUP3 DUP2 MSTORE PUSH1 0x5 SWAP3 SWAP1 SWAP3 SHL DUP5 ADD DUP2 ADD SWAP2 DUP2 DUP2 ADD SWAP1 DUP7 DUP5 GT ISZERO PUSH2 0x13A8 JUMPI PUSH1 0x0 DUP1 REVERT JUMPDEST DUP3 DUP7 ADD JUMPDEST DUP5 DUP2 LT ISZERO PUSH2 0x1508 JUMPI DUP1 CALLDATALOAD PUSH8 0xFFFFFFFFFFFFFFFF DUP1 DUP3 GT ISZERO PUSH2 0x13CD JUMPI PUSH1 0x0 DUP1 DUP2 REVERT JUMPDEST SWAP1 DUP9 ADD SWAP1 PUSH2 0x100 DUP3 DUP12 SUB PUSH1 0x1F NOT ADD DUP2 SGT ISZERO PUSH2 0x13E8 JUMPI PUSH1 0x0 DUP1 DUP2 REVERT JUMPDEST PUSH2 0x13F0 PUSH2 0x1260 JUMP JUMPDEST DUP8 DUP5 ADD CALLDATALOAD DUP2 MSTORE PUSH1 0x40 PUSH2 0x1403 DUP2 DUP7 ADD PUSH2 0x134F JUMP JUMPDEST DUP10 DUP4 ADD MSTORE PUSH1 0x60 DUP1 DUP7 ADD CALLDATALOAD DUP6 DUP2 GT ISZERO PUSH2 0x141B JUMPI PUSH1 0x0 DUP1 DUP2 REVERT JUMPDEST PUSH2 0x1429 DUP16 DUP13 DUP4 DUP11 ADD ADD PUSH2 0x12BB JUMP JUMPDEST DUP4 DUP6 ADD MSTORE POP PUSH1 0x80 SWAP2 POP DUP2 DUP7 ADD CALLDATALOAD DUP6 DUP2 GT ISZERO PUSH2 0x1444 JUMPI PUSH1 0x0 DUP1 DUP2 REVERT JUMPDEST PUSH2 0x1452 DUP16 DUP13 DUP4 DUP11 ADD ADD PUSH2 0x12BB JUMP JUMPDEST DUP3 DUP6 ADD MSTORE POP POP PUSH1 0xA0 DUP1 DUP7 ADD CALLDATALOAD DUP6 DUP2 GT ISZERO PUSH2 0x146C JUMPI PUSH1 0x0 DUP1 DUP2 REVERT JUMPDEST PUSH2 0x147A DUP16 DUP13 DUP4 DUP11 ADD ADD PUSH2 0x12BB JUMP JUMPDEST DUP4 DUP6 ADD MSTORE POP PUSH1 0xC0 SWAP2 POP DUP2 DUP7 ADD CALLDATALOAD DUP6 DUP2 GT ISZERO PUSH2 0x1495 JUMPI PUSH1 0x0 DUP1 DUP2 REVERT JUMPDEST PUSH2 0x14A3 DUP16 DUP13 DUP4 DUP11 ADD ADD PUSH2 0x12BB JUMP JUMPDEST DUP3 DUP6 ADD MSTORE POP POP PUSH1 0xE0 DUP1 DUP7 ADD CALLDATALOAD DUP6 DUP2 GT ISZERO PUSH2 0x14BD JUMPI PUSH1 0x0 DUP1 DUP2 REVERT JUMPDEST PUSH2 0x14CB DUP16 DUP13 DUP4 DUP11 ADD ADD PUSH2 0x12BB JUMP JUMPDEST DUP5 DUP5 ADD MSTORE POP SWAP3 DUP6 ADD CALLDATALOAD SWAP3 DUP5 DUP5 GT ISZERO PUSH2 0x14E5 JUMPI PUSH1 0x0 SWAP2 POP DUP2 DUP3 REVERT JUMPDEST PUSH2 0x14F3 DUP15 DUP12 DUP7 DUP10 ADD ADD PUSH2 0x12BB JUMP JUMPDEST SWAP1 DUP4 ADD MSTORE POP DUP7 MSTORE POP POP POP SWAP2 DUP4 ADD SWAP2 DUP4 ADD PUSH2 0x13AC JUMP JUMPDEST POP SWAP7 SWAP6 POP POP POP POP POP POP JUMP JUMPDEST PUSH1 0x0 DUP3 PUSH1 0x1F DUP4 ADD SLT PUSH2 0x1524 JUMPI PUSH1 0x0 DUP1 REVERT JUMPDEST DUP2 CALLDATALOAD PUSH1 0x20 PUSH2 0x1534 PUSH2 0x1384 DUP4 PUSH2 0x132B JUMP JUMPDEST DUP3 DUP2 MSTORE PUSH1 0x5 SWAP3 SWAP1 SWAP3 SHL DUP5 ADD DUP2 ADD SWAP2 DUP2 DUP2 ADD SWAP1 DUP7 DUP5 GT ISZERO PUSH2 0x1553 JUMPI PUSH1 0x0 DUP1 REVERT JUMPDEST DUP3 DUP7 ADD JUMPDEST DUP5 DUP2 LT ISZERO PUSH2 0x1508 JUMPI DUP1 CALLDATALOAD PUSH8 0xFFFFFFFFFFFFFFFF DUP2 GT ISZERO PUSH2 0x1577 JUMPI PUSH1 0x0 DUP1 DUP2 REVERT JUMPDEST PUSH2 0x1585 DUP10 DUP7 DUP4 DUP12 ADD ADD PUSH2 0x12BB JUMP JUMPDEST DUP5 MSTORE POP SWAP2 DUP4 ADD SWAP2 DUP4 ADD PUSH2 0x1557 JUMP JUMPDEST PUSH1 0x0 DUP3 PUSH1 0x1F DUP4 ADD SLT PUSH2 0x15A4 JUMPI PUSH1 0x0 DUP1 REVERT JUMPDEST DUP2 CALLDATALOAD PUSH1 0x20 PUSH2 0x15B4 PUSH2 0x1384 DUP4 PUSH2 0x132B JUMP JUMPDEST DUP3 DUP2 MSTORE PUSH1 0x5 SWAP3 SWAP1 SWAP3 SHL DUP5 ADD DUP2 ADD SWAP2 DUP2 DUP2 ADD SWAP1 DUP7 DUP5 GT ISZERO PUSH2 0x15D3 JUMPI PUSH1 0x0 DUP1 REVERT JUMPDEST DUP3 DUP7 ADD JUMPDEST DUP5 DUP2 LT ISZERO PUSH2 0x1508 JUMPI DUP1 CALLDATALOAD PUSH8 0xFFFFFFFFFFFFFFFF DUP2 GT ISZERO PUSH2 0x15F7 JUMPI PUSH1 0x0 DUP1 DUP2 REVERT JUMPDEST PUSH2 0x1605 DUP10 DUP7 DUP4 DUP12 ADD ADD PUSH2 0x1513 JUMP JUMPDEST DUP5 MSTORE POP SWAP2 DUP4 ADD SWAP2 DUP4 ADD PUSH2 0x15D7 JUMP JUMPDEST PUSH1 0x0 DUP1 PUSH1 0x0 DUP1 PUSH1 0x0 DUP1 PUSH1 0x0 DUP1 PUSH2 0x100 DUP10 DUP12 SUB SLT ISZERO PUSH2 0x1630 JUMPI PUSH1 0x0 DUP1 REVERT JUMPDEST DUP9 CALLDATALOAD PUSH8 0xFFFFFFFFFFFFFFFF DUP1 DUP3 GT ISZERO PUSH2 0x1648 JUMPI PUSH1 0x0 DUP1 REVERT JUMPDEST PUSH2 0x1654 DUP13 DUP4 DUP14 ADD PUSH2 0x12BB JUMP JUMPDEST SWAP10 POP PUSH1 0x20 DUP12 ADD CALLDATALOAD SWAP2 POP DUP1 DUP3 GT ISZERO PUSH2 0x166A JUMPI PUSH1 0x0 DUP1 REVERT JUMPDEST PUSH2 0x1676 DUP13 DUP4 DUP14 ADD PUSH2 0x1363 JUMP JUMPDEST SWAP9 POP PUSH1 0x40 DUP12 ADD CALLDATALOAD SWAP2 POP DUP1 DUP3 GT ISZERO PUSH2 0x168C JUMPI PUSH1 0x0 DUP1 REVERT JUMPDEST PUSH2 0x1698 DUP13 DUP4 DUP14 ADD PUSH2 0x1593 JUMP JUMPDEST SWAP8 POP PUSH1 0x60 DUP12 ADD CALLDATALOAD SWAP2 POP DUP1 DUP3 GT ISZERO PUSH2 0x16AE JUMPI PUSH1 0x0 DUP1 REVERT JUMPDEST PUSH2 0x16BA DUP13 DUP4 DUP14 ADD PUSH2 0x1593 JUMP JUMPDEST SWAP7 POP PUSH1 0x80 DUP12 ADD CALLDATALOAD SWAP2 POP DUP1 DUP3 GT ISZERO PUSH2 0x16D0 JUMPI PUSH1 0x0 DUP1 REVERT JUMPDEST PUSH2 0x16DC DUP13 DUP4 DUP14 ADD PUSH2 0x1593 JUMP JUMPDEST SWAP6 POP PUSH1 0xA0 DUP12 ADD CALLDATALOAD SWAP2 POP DUP1 DUP3 GT ISZERO PUSH2 0x16F2 JUMPI PUSH1 0x0 DUP1 REVERT JUMPDEST PUSH2 0x16FE DUP13 DUP4 DUP14 ADD PUSH2 0x1593 JUMP JUMPDEST SWAP5 POP PUSH1 0xC0 DUP12 ADD CALLDATALOAD SWAP2 POP DUP1 DUP3 GT ISZERO PUSH2 0x1714 JUMPI PUSH1 0x0 DUP1 REVERT JUMPDEST PUSH2 0x1720 DUP13 DUP4 DUP14 ADD PUSH2 0x1513 JUMP JUMPDEST SWAP4 POP PUSH1 0xE0 DUP12 ADD CALLDATALOAD SWAP2 POP DUP1 DUP3 GT ISZERO PUSH2 0x1736 JUMPI PUSH1 0x0 DUP1 REVERT JUMPDEST POP PUSH2 0x1743 DUP12 DUP3 DUP13 ADD PUSH2 0x1593 JUMP JUMPDEST SWAP2 POP POP SWAP3 SWAP6 SWAP9 POP SWAP3 SWAP6 SWAP9 SWAP1 SWAP4 SWAP7 POP JUMP JUMPDEST PUSH1 0x0 DUP1 PUSH1 0x0 DUP1 PUSH1 0x0 DUP1 PUSH1 0x0 DUP1 PUSH2 0x100 DUP10 DUP12 SUB SLT ISZERO PUSH2 0x1770 JUMPI PUSH1 0x0 DUP1 REVERT JUMPDEST DUP9 CALLDATALOAD PUSH8 0xFFFFFFFFFFFFFFFF DUP1 DUP3 GT ISZERO PUSH2 0x1788 JUMPI PUSH1 0x0 DUP1 REVERT JUMPDEST PUSH2 0x1794 DUP13 DUP4 DUP14 ADD PUSH2 0x12BB JUMP JUMPDEST SWAP10 POP PUSH1 0x20 DUP12 ADD CALLDATALOAD SWAP2 POP DUP1 DUP3 GT ISZERO PUSH2 0x17AA JUMPI PUSH1 0x0 DUP1 REVERT JUMPDEST PUSH2 0x17B6 DUP13 DUP4 DUP14 ADD PUSH2 0x12BB JUMP JUMPDEST SWAP9 POP PUSH1 0x40 DUP12 ADD CALLDATALOAD SWAP8 POP PUSH1 0x60 DUP12 ADD CALLDATALOAD SWAP2 POP DUP1 DUP3 GT ISZERO PUSH2 0x17D3 JUMPI PUSH1 0x0 DUP1 REVERT JUMPDEST PUSH2 0x17DF DUP13 DUP4 DUP14 ADD PUSH2 0x1363 JUMP JUMPDEST SWAP7 POP PUSH1 0x80 DUP12 ADD CALLDATALOAD SWAP2 POP DUP1 DUP3 GT ISZERO PUSH2 0x17F5 JUMPI PUSH1 0x0 DUP1 REVERT JUMPDEST PUSH2 0x1801 DUP13 DUP4 DUP14 ADD PUSH2 0x1593 JUMP JUMPDEST SWAP6 POP PUSH1 0xA0 DUP12 ADD CALLDATALOAD SWAP2 POP DUP1 DUP3 GT ISZERO PUSH2 0x1817 JUMPI PUSH1 0x0 DUP1 REVERT JUMPDEST PUSH2 0x1823 DUP13 DUP4 DUP14 ADD PUSH2 0x1593 JUMP JUMPDEST SWAP5 POP PUSH1 0xC0 DUP12 ADD CALLDATALOAD SWAP2 POP DUP1 DUP3 GT ISZERO PUSH2 0x1839 JUMPI PUSH1 0x0 DUP1 REVERT JUMPDEST PUSH2 0x1720 DUP13 DUP4 DUP14 ADD PUSH2 0x1593 JUMP JUMPDEST PUSH1 0x0 PUSH1 0x20 DUP3 DUP5 SUB SLT ISZERO PUSH2 0x1857 JUMPI PUSH1 0x0 DUP1 REVERT JUMPDEST DUP2 CALLDATALOAD PUSH8 0xFFFFFFFFFFFFFFFF DUP2 GT ISZERO PUSH2 0x186E JUMPI PUSH1 0x0 DUP1 REVERT JUMPDEST PUSH2 0x187A DUP5 DUP3 DUP6 ADD PUSH2 0x12BB JUMP JUMPDEST SWAP5 SWAP4 POP POP POP POP JUMP JUMPDEST PUSH1 0x0 JUMPDEST DUP4 DUP2 LT ISZERO PUSH2 0x189D JUMPI DUP2 DUP2 ADD MLOAD DUP4 DUP3 ADD MSTORE PUSH1 0x20 ADD PUSH2 0x1885 JUMP JUMPDEST POP POP PUSH1 0x0 SWAP2 ADD MSTORE JUMP JUMPDEST PUSH1 0x0 DUP3 MLOAD PUSH2 0x18B8 DUP2 DUP5 PUSH1 0x20 DUP8 ADD PUSH2 0x1882 JUMP JUMPDEST SWAP2 SWAP1 SWAP2 ADD SWAP3 SWAP2 POP POP JUMP JUMPDEST PUSH4 0x4E487B71 PUSH1 0xE0 SHL PUSH1 0x0 MSTORE PUSH1 0x32 PUSH1 0x4 MSTORE PUSH1 0x24 PUSH1 0x0 REVERT JUMPDEST PUSH4 0x4E487B71 PUSH1 0xE0 SHL PUSH1 0x0 MSTORE PUSH1 0x21 PUSH1 0x4 MSTORE PUSH1 0x24 PUSH1 0x0 REVERT JUMPDEST PUSH1 0x1 DUP2 DUP2 SHR SWAP1 DUP3 AND DUP1 PUSH2 0x1902 JUMPI PUSH1 0x7F DUP3 AND SWAP2 POP JUMPDEST PUSH1 0x20 DUP3 LT DUP2 SUB PUSH2 0x1922 JUMPI PUSH4 0x4E487B71 PUSH1 0xE0 SHL PUSH1 0x0 MSTORE PUSH1 0x22 PUSH1 0x4 MSTORE PUSH1 0x24 PUSH1 0x0 REVERT JUMPDEST POP SWAP2 SWAP1 POP JUMP JUMPDEST PUSH1 0x1F DUP3 GT ISZERO PUSH2 0x1974 JUMPI PUSH1 0x0 DUP2 PUSH1 0x0 MSTORE PUSH1 0x20 PUSH1 0x0 KECCAK256 PUSH1 0x1F DUP6 ADD PUSH1 0x5 SHR DUP2 ADD PUSH1 0x20 DUP7 LT ISZERO PUSH2 0x1951 JUMPI POP DUP1 JUMPDEST PUSH1 0x1F DUP6 ADD PUSH1 0x5 SHR DUP3 ADD SWAP2 POP JUMPDEST DUP2 DUP2 LT ISZERO PUSH2 0x1970 JUMPI DUP3 DUP2 SSTORE PUSH1 0x1 ADD PUSH2 0x195D JUMP JUMPDEST POP POP POP JUMPDEST POP POP POP JUMP JUMPDEST DUP2 MLOAD PUSH8 0xFFFFFFFFFFFFFFFF DUP2 GT ISZERO PUSH2 0x1993 JUMPI PUSH2 0x1993 PUSH2 0x124A JUMP JUMPDEST PUSH2 0x19A7 DUP2 PUSH2 0x19A1 DUP5 SLOAD PUSH2 0x18EE JUMP JUMPDEST DUP5 PUSH2 0x1928 JUMP JUMPDEST PUSH1 0x20 DUP1 PUSH1 0x1F DUP4 GT PUSH1 0x1 DUP2 EQ PUSH2 0x19DC JUMPI PUSH1 0x0 DUP5 ISZERO PUSH2 0x19C4 JUMPI POP DUP6 DUP4 ADD MLOAD JUMPDEST PUSH1 0x0 NOT PUSH1 0x3 DUP7 SWAP1 SHL SHR NOT AND PUSH1 0x1 DUP6 SWAP1 SHL OR DUP6 SSTORE PUSH2 0x1970 JUMP JUMPDEST PUSH1 0x0 DUP6 DUP2 MSTORE PUSH1 0x20 DUP2 KECCAK256 PUSH1 0x1F NOT DUP7 AND SWAP2 JUMPDEST DUP3 DUP2 LT ISZERO PUSH2 0x1A0B JUMPI DUP9 DUP7 ADD MLOAD DUP3 SSTORE SWAP5 DUP5 ADD SWAP5 PUSH1 0x1 SWAP1 SWAP2 ADD SWAP1 DUP5 ADD PUSH2 0x19EC JUMP JUMPDEST POP DUP6 DUP3 LT ISZERO PUSH2 0x1A29 JUMPI DUP8 DUP6 ADD MLOAD PUSH1 0x0 NOT PUSH1 0x3 DUP9 SWAP1 SHL PUSH1 0xF8 AND SHR NOT AND DUP2 SSTORE JUMPDEST POP POP POP POP POP PUSH1 0x1 SWAP1 DUP2 SHL ADD SWAP1 SSTORE POP JUMP JUMPDEST PUSH1 0x0 DUP2 MLOAD DUP1 DUP5 MSTORE PUSH2 0x1A51 DUP2 PUSH1 0x20 DUP7 ADD PUSH1 0x20 DUP7 ADD PUSH2 0x1882 JUMP JUMPDEST PUSH1 0x1F ADD PUSH1 0x1F NOT AND SWAP3 SWAP1 SWAP3 ADD PUSH1 0x20 ADD SWAP3 SWAP2 POP POP JUMP JUMPDEST PUSH1 0x20 DUP2 MSTORE PUSH1 0x0 PUSH2 0x117E PUSH1 0x20 DUP4 ADD DUP5 PUSH2 0x1A39 JUMP JUMPDEST PUSH4 0x4E487B71 PUSH1 0xE0 SHL PUSH1 0x0 MSTORE PUSH1 0x11 PUSH1 0x4 MSTORE PUSH1 0x24 PUSH1 0x0 REVERT JUMPDEST DUP1 DUP3 ADD DUP1 DUP3 GT ISZERO PUSH2 0x1AA1 JUMPI PUSH2 0x1AA1 PUSH2 0x1A78 JUMP JUMPDEST SWAP3 SWAP2 POP POP JUMP JUMPDEST PUSH1 0x40 DUP2 MSTORE PUSH1 0x0 PUSH2 0x1ABA PUSH1 0x40 DUP4 ADD DUP6 PUSH2 0x1A39 JUMP JUMPDEST SWAP1 POP DUP3 PUSH1 0x20 DUP4 ADD MSTORE SWAP4 SWAP3 POP POP POP JUMP JUMPDEST PUSH1 0x0 PUSH1 0x1 DUP3 ADD PUSH2 0x1ADB JUMPI PUSH2 0x1ADB PUSH2 0x1A78 JUMP JUMPDEST POP PUSH1 0x1 ADD SWAP1 JUMP JUMPDEST DUP2 DUP2 SUB DUP2 DUP2 GT ISZERO PUSH2 0x1AA1 JUMPI PUSH2 0x1AA1 PUSH2 0x1A78 JUMP INVALID LOG2 PUSH5 0x6970667358 0x22 SLT KECCAK256 SUB PUSH12 0x4166DF9EC1D406BEAAA7D336 0xCB EXTCODEHASH POP 0xCF 0xCF 0x24 LOG4 0xF6 BLOBBASEFEE MULMOD ADD 0xAF PUSH14 0xC2672E73A264736F6C6343000818 STOP CALLER "},"methodIdentifiers":{"addModel(string,(uint256,uint8,string,string,string,string,string,string)[],string[][],string[][],string[][],string[][],string[],string[][])":"8d30bf3c","newInstance(string)":"cc31dd4f","updateModel(string,string,uint256,(uint256,uint8,string,string,string,string,string,string)[],string[][],string[][],string[][],string[][])":"cc2f5ba1"}}}}}