{
  "_format": "hh-sol-artifact-1",
  "contractName": "OrderToCashV1",
  "sourceName": "contracts/monolithic/OrderToCashV1.sol",
  "abi": [
    {
      "inputs": [],
      "stateMutability": "nonpayable",
      "type": "constructor"
    },
    {
      "anonymous": false,
      "inputs": [
        {
          "indexed": true,
          "internalType": "address",
          "name": "_from",
          "type": "address"
        },
        {
          "indexed": false,
          "internalType": "string",
          "name": "_id",
          "type": "string"
        },
        {
          "indexed": false,
          "internalType": "string",
          "name": "_data",
          "type": "string"
        },
        {
          "indexed": false,
          "internalType": "string",
          "name": "_timestamp",
          "type": "string"
        }
      ],
      "name": "taskExecuted",
      "type": "event"
    },
    {
      "anonymous": false,
      "inputs": [
        {
          "indexed": true,
          "internalType": "address",
          "name": "_from",
          "type": "address"
        },
        {
          "indexed": false,
          "internalType": "string",
          "name": "_id",
          "type": "string"
        },
        {
          "indexed": false,
          "internalType": "string",
          "name": "_timestamp",
          "type": "string"
        }
      ],
      "name": "taskExecutionError",
      "type": "event"
    },
    {
      "inputs": [
        {
          "internalType": "uint256",
          "name": "",
          "type": "uint256"
        },
        {
          "internalType": "uint256",
          "name": "",
          "type": "uint256"
        }
      ],
      "name": "ChildrenOptim",
      "outputs": [
        {
          "internalType": "string",
          "name": "",
          "type": "string"
        }
      ],
      "stateMutability": "view",
      "type": "function"
    },
    {
      "inputs": [
        {
          "internalType": "uint256",
          "name": "_actId",
          "type": "uint256"
        },
        {
          "internalType": "string",
          "name": "_lane",
          "type": "string"
        },
        {
          "internalType": "string",
          "name": "_upd",
          "type": "string"
        },
        {
          "internalType": "string",
          "name": "_timestamp",
          "type": "string"
        }
      ],
      "name": "Invoke",
      "outputs": [],
      "stateMutability": "payable",
      "type": "function"
    },
    {
      "inputs": [
        {
          "internalType": "uint256",
          "name": "",
          "type": "uint256"
        },
        {
          "internalType": "uint256",
          "name": "",
          "type": "uint256"
        }
      ],
      "name": "MsgInOptim",
      "outputs": [
        {
          "internalType": "string",
          "name": "",
          "type": "string"
        }
      ],
      "stateMutability": "view",
      "type": "function"
    },
    {
      "inputs": [
        {
          "internalType": "uint256",
          "name": "",
          "type": "uint256"
        },
        {
          "internalType": "uint256",
          "name": "",
          "type": "uint256"
        }
      ],
      "name": "MsgOutOptim",
      "outputs": [
        {
          "internalType": "string",
          "name": "",
          "type": "string"
        }
      ],
      "stateMutability": "view",
      "type": "function"
    },
    {
      "inputs": [
        {
          "internalType": "uint256",
          "name": "",
          "type": "uint256"
        },
        {
          "internalType": "uint256",
          "name": "",
          "type": "uint256"
        }
      ],
      "name": "ParentsOptim",
      "outputs": [
        {
          "internalType": "string",
          "name": "",
          "type": "string"
        }
      ],
      "stateMutability": "view",
      "type": "function"
    },
    {
      "inputs": [
        {
          "internalType": "uint256",
          "name": "",
          "type": "uint256"
        }
      ],
      "name": "activities",
      "outputs": [
        {
          "internalType": "uint256",
          "name": "id",
          "type": "uint256"
        },
        {
          "internalType": "enum OrderToCashV1.NodeType",
          "name": "nodeType",
          "type": "uint8"
        },
        {
          "internalType": "string",
          "name": "xmlID",
          "type": "string"
        },
        {
          "internalType": "string",
          "name": "name",
          "type": "string"
        },
        {
          "internalType": "string",
          "name": "lane",
          "type": "string"
        },
        {
          "internalType": "string",
          "name": "dataIn",
          "type": "string"
        },
        {
          "internalType": "string",
          "name": "dataOut",
          "type": "string"
        },
        {
          "internalType": "string",
          "name": "timestamp",
          "type": "string"
        }
      ],
      "stateMutability": "view",
      "type": "function"
    },
    {
      "inputs": [
        {
          "internalType": "uint256",
          "name": "_id",
          "type": "uint256"
        },
        {
          "internalType": "enum OrderToCashV1.NodeType",
          "name": "_type",
          "type": "uint8"
        },
        {
          "internalType": "string",
          "name": "_xmlID",
          "type": "string"
        },
        {
          "internalType": "string",
          "name": "_name",
          "type": "string"
        },
        {
          "internalType": "string",
          "name": "_lane",
          "type": "string"
        },
        {
          "internalType": "string",
          "name": "_data_in",
          "type": "string"
        },
        {
          "internalType": "string",
          "name": "_data_out",
          "type": "string"
        },
        {
          "internalType": "string",
          "name": "_timestamp",
          "type": "string"
        }
      ],
      "name": "addActivity",
      "outputs": [],
      "stateMutability": "nonpayable",
      "type": "function"
    },
    {
      "inputs": [
        {
          "internalType": "string",
          "name": "_name",
          "type": "string"
        },
        {
          "internalType": "uint256",
          "name": "_activityIdsLength",
          "type": "uint256"
        }
      ],
      "name": "addWorkflowInstance",
      "outputs": [],
      "stateMutability": "nonpayable",
      "type": "function"
    },
    {
      "inputs": [
        {
          "internalType": "address",
          "name": "",
          "type": "address"
        }
      ],
      "name": "addresses2lanes",
      "outputs": [
        {
          "internalType": "string",
          "name": "",
          "type": "string"
        }
      ],
      "stateMutability": "view",
      "type": "function"
    },
    {
      "inputs": [
        {
          "internalType": "string",
          "name": "a",
          "type": "string"
        },
        {
          "internalType": "string",
          "name": "b",
          "type": "string"
        }
      ],
      "name": "compareStrings",
      "outputs": [
        {
          "internalType": "bool",
          "name": "",
          "type": "bool"
        }
      ],
      "stateMutability": "pure",
      "type": "function"
    },
    {
      "inputs": [
        {
          "internalType": "uint256",
          "name": "num",
          "type": "uint256"
        },
        {
          "internalType": "uint256[]",
          "name": "numbers1",
          "type": "uint256[]"
        }
      ],
      "name": "exists1",
      "outputs": [
        {
          "internalType": "bool",
          "name": "",
          "type": "bool"
        }
      ],
      "stateMutability": "pure",
      "type": "function"
    },
    {
      "inputs": [
        {
          "internalType": "uint256",
          "name": "_id",
          "type": "uint256"
        }
      ],
      "name": "getActivityDataFromActivityId",
      "outputs": [
        {
          "internalType": "uint256",
          "name": "_actId",
          "type": "uint256"
        },
        {
          "internalType": "uint256",
          "name": "_type",
          "type": "uint256"
        },
        {
          "internalType": "string",
          "name": "_xmlID",
          "type": "string"
        },
        {
          "internalType": "string",
          "name": "_name",
          "type": "string"
        },
        {
          "internalType": "string",
          "name": "_dataIn",
          "type": "string"
        },
        {
          "internalType": "string",
          "name": "_dataOut",
          "type": "string"
        },
        {
          "internalType": "string",
          "name": "_lane",
          "type": "string"
        }
      ],
      "stateMutability": "view",
      "type": "function"
    },
    {
      "inputs": [
        {
          "internalType": "uint256",
          "name": "_id",
          "type": "uint256"
        }
      ],
      "name": "getActivityIdsFromWorkflow",
      "outputs": [
        {
          "internalType": "uint256[]",
          "name": "",
          "type": "uint256[]"
        }
      ],
      "stateMutability": "view",
      "type": "function"
    },
    {
      "inputs": [],
      "name": "getExecuted",
      "outputs": [
        {
          "internalType": "uint256[]",
          "name": "",
          "type": "uint256[]"
        }
      ],
      "stateMutability": "view",
      "type": "function"
    },
    {
      "inputs": [],
      "name": "getIncluded",
      "outputs": [
        {
          "internalType": "uint256[]",
          "name": "",
          "type": "uint256[]"
        }
      ],
      "stateMutability": "view",
      "type": "function"
    },
    {
      "inputs": [],
      "name": "getPending",
      "outputs": [
        {
          "internalType": "uint256[]",
          "name": "",
          "type": "uint256[]"
        }
      ],
      "stateMutability": "view",
      "type": "function"
    },
    {
      "inputs": [
        {
          "internalType": "string",
          "name": "_xmlID",
          "type": "string"
        }
      ],
      "name": "getPosFromXML",
      "outputs": [
        {
          "internalType": "uint256",
          "name": "",
          "type": "uint256"
        }
      ],
      "stateMutability": "view",
      "type": "function"
    },
    {
      "inputs": [
        {
          "internalType": "uint256",
          "name": "key",
          "type": "uint256"
        }
      ],
      "name": "isChildrenOptimNotEmpty",
      "outputs": [
        {
          "internalType": "bool",
          "name": "",
          "type": "bool"
        }
      ],
      "stateMutability": "view",
      "type": "function"
    },
    {
      "inputs": [
        {
          "internalType": "uint256",
          "name": "key",
          "type": "uint256"
        }
      ],
      "name": "isMsgInOptimNotEmpty",
      "outputs": [
        {
          "internalType": "bool",
          "name": "",
          "type": "bool"
        }
      ],
      "stateMutability": "view",
      "type": "function"
    },
    {
      "inputs": [
        {
          "internalType": "uint256",
          "name": "key",
          "type": "uint256"
        }
      ],
      "name": "isMsgOutOptimNotEmpty",
      "outputs": [
        {
          "internalType": "bool",
          "name": "",
          "type": "bool"
        }
      ],
      "stateMutability": "view",
      "type": "function"
    },
    {
      "inputs": [
        {
          "internalType": "uint256",
          "name": "key",
          "type": "uint256"
        }
      ],
      "name": "isParentOptimNotEmpty",
      "outputs": [
        {
          "internalType": "bool",
          "name": "",
          "type": "bool"
        }
      ],
      "stateMutability": "view",
      "type": "function"
    },
    {
      "inputs": [],
      "name": "killProcess",
      "outputs": [
        {
          "internalType": "uint256",
          "name": "",
          "type": "uint256"
        }
      ],
      "stateMutability": "payable",
      "type": "function"
    },
    {
      "inputs": [
        {
          "internalType": "string",
          "name": "startXML",
          "type": "string"
        },
        {
          "internalType": "string",
          "name": "triggerXML",
          "type": "string"
        }
      ],
      "name": "setActivitiesSegment",
      "outputs": [],
      "stateMutability": "nonpayable",
      "type": "function"
    },
    {
      "inputs": [
        {
          "internalType": "uint256",
          "name": "_actId",
          "type": "uint256"
        }
      ],
      "name": "updateChildren",
      "outputs": [],
      "stateMutability": "payable",
      "type": "function"
    }
  ],
  "bytecode": "0x6080604052600060085560006009553480156200001b57600080fd5b5060408051808201909152600a8152691b5e50dbdb9d1c9858dd60b21b60208201526200004a906015620022cc565b604080516102a081018252600080825260208201819052918101829052606081018290526080810182905260a0810182905260c0810182905260e08101829052610100810182905260016101208201526101408101829052610160810182905261018081018290526101a081018290526101c081018290526101e0810182905261020081018290526102208101829052610240810182905261026081018290526102808101919091526200010390600a906015620024fd565b50604080516102a081018252600080825260208201819052918101829052606081018290526080810182905260a0810182905260c0810182905260e08101829052610100810182905261012081018290526101408101829052610160810182905261018081018290526101a081018290526101c081018290526101e081018290526102008101829052610220810182905261024081018290526102608101829052610280810191909152620001bd90600c906015620024fd565b50604080516102a081018252600080825260208201819052918101829052606081018290526080810182905260a0810182905260c0810182905260e08101829052610100810182905261012081018290526101408101829052610160810182905261018081018290526101a081018290526101c081018290526101e0810182905261020081018290526102208101829052610240810182905261026081018290526102808101919091526200027790600b906015620024fd565b5060408051606081018252601060208083019182526f041637469766974795f3061666a3566360841b938301939093528152600080526003909152620002e1907f3617319a054d772f909f7c479a2cebe5066e836a939412e32403c99029b92eff90600162002552565b5060408051606081018252600d60208083019182526c4576656e745f3035677336617760981b93830193909352815260008052600490915262000348907f17ef568e3e12ab5b9c7254a8d58478811de00f9e6eb34345acd53bf8fd09d3ec90600162002552565b506200040e600060046040518060400160405280601081526020016f41637469766974795f30366a7237366160801b815250604051806040016040528060088152602001675375626d6974504f60c01b8152506040518060400160405280600b81526020016a09ee4c8cae4a89e86c2e6d60ab1b81525060405180602001604052806000815250604051806020016040528060008152506040518060400160405280600a8152602001691899179998979918191960b11b815250620023ca60201b60201c565b60408051606081018252600f60208083019182526e476174657761795f316a6c32326b7760881b93830193909352815260016000819052600390925262000478917fa15bc60c955c405d20d9149c709e2460f1c2d9a497496a7f46004d1772c3054c919062002552565b5060408051606081018252601060208083019182526f41637469766974795f30366a7237366160801b938301939093528152600160008190526004909252620004e4917fabd6e7cb50984ff9c2f3e18a2660c3353dadf4e3291deeb275dae2cd1e44fe05919062002552565b50620005ac600160046040518060400160405280601081526020016f041637469766974795f3061666a3566360841b8152506040518060400160405280600a81526020016956616c6964617465504f60b01b8152506040518060400160405280600b81526020016a09ee4c8cae4a89e86c2e6d60ab1b81525060405180602001604052806000815250604051806020016040528060008152506040518060400160405280600a8152602001691899179998979918191960b11b815250620023ca60201b60201c565b60408051606081018252600f60208083019182526e11d85d195dd85e57cc18d9995d5a0d608a1b9383019390935281526002600052600390915262000615907fc3a24b0501bd2c13a7e57f2db4369ec4c223447539fc0724a9d55ac4a06ebd4d90600162002552565b5060408051606081018252600f60208083019182526e476174657761795f316a6c32326b7760881b938301939093528152600260005260049091526200067f907f91da3fd0782e51c6b3986e9e672fd566868e71f3dbc2d6c2cd6fbb3e361af2a790600162002552565b506200074a600260046040518060400160405280601081526020016f041637469766974795f307079333465760841b8152506040518060400160405280600d81526020016c11dbdbd91cd4da1a5c1b595b9d609a1b8152506040518060400160405280600b81526020016a09ee4c8cae4a89e86c2e6d60ab1b81525060405180602001604052806000815250604051806020016040528060008152506040518060400160405280600a8152602001691899179998979918191960b11b815250620023ca60201b60201c565b60408051606081018252600f60208083019182526e08ec2e8caeec2f2be6260e8ec60f4f608b1b93830193909352815260036000819052909152620007b3907fcbc4e5fb02c3d1de23a9f1e014b4d2ee5aeaea9505df5e855c9210bf472495af90600162002552565b5060408051606081018252600f60208083019182526e11d85d195dd85e57cc18d9995d5a0d608a1b938301939093528152600360005260049091526200081d907f2e174c10e159ea99b867ce3205125c24a42d128804e4070ed6fcc8cc98166aa090600162002552565b50620008f8600360046040518060400160405280601081526020016f41637469766974795f30316d6363687360801b8152506040518060400160405280601781526020017f4973737565496e766f696365466f72437573746f6d65720000000000000000008152506040518060400160405280600b81526020016a09ee4c8cae4a89e86c2e6d60ab1b81525060405180602001604052806000815250604051806020016040528060008152506040518060400160405280600a8152602001691899179998979918191960b11b815250620023ca60201b60201c565b60408051606081018252600f60208083019182526e23b0ba32bbb0bcaf981b3b1a9a1b3360891b9383019390935281526004600052600390915262000961907f83ec6a1f0257b830b5e016457c9cf1435391bf56cc98f369a58a54fe9377246590600162002552565b5060408051606081018252600f60208083019182526e08ec2e8caeec2f2be6260e8ec60f4f608b1b93830193909352815260046000819052909152620009cb907f1a1e6821cde7d0159c0d293177871e09677b4e42307c7db3ba94f8648a5a050f90600162002552565b5062000aa56004806040518060400160405280601081526020016f20b1ba34bb34ba3caf98999a193b37b160811b8152506040518060400160405280601981526020017f417070726f76656e766f69636546726f6d537570706c696572000000000000008152506040518060400160405280600b81526020016a09ee4c8cae4a89e86c2e6d60ab1b81525060405180602001604052806000815250604051806020016040528060008152506040518060400160405280600a8152602001691899179998979918191960b11b815250620023ca60201b60201c565b60408051606081018252600f60208083019182526e08ec2e8caeec2f2be6260e8ec60f4f608b1b9383019390935281526005600052600390915262000b0e907f405aad32e1adbac89bb7f176e338b8fc6e994ca210c9bb7bdca249b46594225090600162002552565b5060408051606081018252600f60208083019182526e23b0ba32bbb0bcaf981b3b1a9a1b3360891b9383019390935281526005600052600490915262000b78907f04cde762ef08b6b6c5ded8e8c4c0b3f4e5c9ad7342c88fcc93681b4588b73f0590600162002552565b5062000c53600560046040518060400160405280601081526020016f41637469766974795f31776f746c647960801b8152506040518060400160405280601781526020017f526573656e64496e766f696365546f437573746f6d65720000000000000000008152506040518060400160405280600b81526020016a09ee4c8cae4a89e86c2e6d60ab1b81525060405180602001604052806000815250604051806020016040528060008152506040518060400160405280600a8152602001691899179998979918191960b11b815250620023ca60201b60201c565b60408051606081018252600f60208083019182526e476174657761795f3131346362676560881b9383019390935281526006600052600390915262000cbc907fc69056f16cbaa3c616b828e333ab7d3a32310765507f8f58359e99ebb7a885f390600162002552565b5060408051606081018252600f60208083019182526e11d85d195dd85e57cc18d9995d5a0d608a1b9383019390935281526006600052600490915262000d26907fc59312466997bb42aaaf719ece141047820e6b34531e1670dc1852a453648f0f90600162002552565b5062000e01600660046040518060400160405280601081526020016f1058dd1a5d9a5d1e57cc19dccd1ccdcd60821b8152506040518060400160405280601781526020017f4973737565496e766f696365466f72537570706c6965720000000000000000008152506040518060400160405280600b81526020016a09ee4c8cae4a89e86c2e6d60ab1b81525060405180602001604052806000815250604051806020016040528060008152506040518060400160405280600a8152602001691899179998979918191960b11b815250620023ca60201b60201c565b60408051606081018252600f60208083019182526e11d85d195dd85e57cc1b9bdc5b5c9b608a1b9383019390935281526007600052600390915262000e6a907ff2c49132ed1cee2a7e75bde50d332a2f81f1d01e5456d8a19d1df09bd561dbd290600162002552565b5060408051606081018252600f60208083019182526e476174657761795f3131346362676560881b9383019390935281526007600052600490915262000ed4907fbeb3bad75134cb432e5707980e3245c52c5998a1125ee30f2f0dbf3925b1e55190600162002552565b5062000faf600760046040518060400160405280601081526020016f41637469766974795f3165637271336b60801b8152506040518060400160405280601981526020017f417070726f7665496e766f69636546726f6d43617272696572000000000000008152506040518060400160405280600b81526020016a09ee4c8cae4a89e86c2e6d60ab1b81525060405180602001604052806000815250604051806020016040528060008152506040518060400160405280600a8152602001691899179998979918191960b11b815250620023ca60201b60201c565b60408051606081018252600f60208083019182526e476174657761795f3131346362676560881b9383019390935281526008600052600390915262001018907f85aaa47b6dc46495bb8824fad4583769726fea36efd831a35556690b830a8fbe90600162002552565b5060408051606081018252600f60208083019182526e11d85d195dd85e57cc1b9bdc5b5c9b608a1b9383019390935281526008600052600490915262001082907f2645749a946633740611cfc8178319f0958659d6922e4bf7e3a08b44789f53a490600162002552565b506200115d600860046040518060400160405280601081526020016f20b1ba34bb34ba3caf989c1c3a1932bd60811b8152506040518060400160405280601781526020017f526573656e64496e766f696365546f537570706c6965720000000000000000008152506040518060400160405280600b81526020016a09ee4c8cae4a89e86c2e6d60ab1b81525060405180602001604052806000815250604051806020016040528060008152506040518060400160405280600a8152602001691899179998979918191960b11b815250620023ca60201b60201c565b60408051606081018252601060208083019182526f41637469766974795f30366a7237366160801b93830193909352815260096000526003909152620011c7907f8a8dc4e5242ea8b1ab1d60606dae757e6c2cca9f92a2cced9f72c19960bcb45890600162002552565b506200128b600960006040518060400160405280600d81526020016c4576656e745f3035677336617760981b815250604051806040016040528060098152602001681413d0dc99585d195960ba1b8152506040518060400160405280600b81526020016a09ee4c8cae4a89e86c2e6d60ab1b81525060405180602001604052806000815250604051806020016040528060008152506040518060400160405280600a8152602001691899179998979918191960b11b815250620023ca60201b60201c565b60408051606081018252600d60208083019182526c4576656e745f31793032666a6160981b938301939093528152600a6000526003909152620012f2907f9dcb9783ba5cd0b54745f65f4f918525e461e91888c334e5342cb380ac558d5390600162002552565b50620013ca600a60036040518060400160405280600d81526020016c04576656e745f3035686978713609c1b8152506040518060400160405280601681526020017f506f43616e63656c6c6174696f6e5265636569766564000000000000000000008152506040518060400160405280600b81526020016a09ee4c8cae4a89e86c2e6d60ab1b81525060405180602001604052806000815250604051806020016040528060008152506040518060400160405280600a8152602001691899179998979918191960b11b815250620023ca60201b60201c565b60408051606081018252600f60208083019182526e476174657761795f316a6c32326b7760881b938301939093528152600b600052600490915262001433907f0c1469ad586d86b6976c45826d7ae56d76ee516e37a2bccffbe904b74dbae7ea90600162002552565b50620014f8600b60016040518060400160405280600d81526020016c4576656e745f31383837696a7960981b8152506040518060400160405280600a8152602001691413d4995a9958dd195960b21b8152506040518060400160405280600b81526020016a09ee4c8cae4a89e86c2e6d60ab1b81525060405180602001604052806000815250604051806020016040528060008152506040518060400160405280600a8152602001691899179998979918191960b11b815250620023ca60201b60201c565b60408051606081018252600f60208083019182526e23b0ba32bbb0bcaf981b3b1a9a1b3360891b938301939093528152600c600052600490915262001561907f140aabff1a85df08546c9a350c79ae18341bde4a2cef5d2fd460885c0128ce2690600162002552565b506200162b600c60016040518060400160405280600d81526020016c115d995b9d17cc195e999c9e1b609a1b8152506040518060400160405280600f81526020016e125b9d9bda58d95058d8d95c1d1959608a1b8152506040518060400160405280600b81526020016a09ee4c8cae4a89e86c2e6d60ab1b81525060405180602001604052806000815250604051806020016040528060008152506040518060400160405280600a8152602001691899179998979918191960b11b815250620023ca60201b60201c565b60408051606081018252600f60208083019182526e11d85d195dd85e57cc1b9bdc5b5c9b608a1b938301939093528152600d600052600490915262001694907fa5022b2bfd144bf9103d80168549b5df7c72ab60bd51bf71a02a08d844853b4a90600162002552565b506200176c600d60016040518060400160405280600d81526020016c22bb32b73a2f983bb1b23a3b9960991b8152506040518060400160405280601581526020017f496e766f696365506169644279537570706c69657200000000000000000000008152506040518060400160405280600b81526020016a09ee4c8cae4a89e86c2e6d60ab1b81525060405180602001604052806000815250604051806020016040528060008152506040518060400160405280600a8152602001691899179998979918191960b11b815250620023ca60201b60201c565b60408051606081018252600d60208083019182526c04576656e745f3035686978713609c1b938301939093528152600e6000526004909152620017d3907feb3e677499e881fe1bdbc344a49c412138038a9f40883b6dc68f713aab48352390600162002552565b5062001899600e60016040518060400160405280600d81526020016c4576656e745f31793032666a6160981b8152506040518060400160405280600b81526020016a1413d0d85b98d95b1b195960aa1b8152506040518060400160405280600b81526020016a09ee4c8cae4a89e86c2e6d60ab1b81525060405180602001604052806000815250604051806020016040528060008152506040518060400160405280600a8152602001691899179998979918191960b11b815250620023ca60201b60201c565b60408051608081018252600d8183019081526c4576656e745f31383837696a7960981b606083015281528151808301909252601082526f041637469766974795f307079333465760841b60208381019190915280820192909252600f60005260039091526200192c907ff60b7f6a315ec68a6ac240e69dca53652b38627f709a2caa217d9e18af4d7a60906002620025ab565b5060408051606081018252601060208083019182526f041637469766974795f3061666a3566360841b938301939093528152600f600052600490915262001997907f66b61daf77b854ca6ba000a8d4b340eafcdb71b6583753b4af89fceb54988fff90600162002552565b5062001a4b600f60056040518060400160405280600f81526020016e476174657761795f316a6c32326b7760881b815250604051806020016040528060008152506040518060400160405280600b81526020016a09ee4c8cae4a89e86c2e6d60ab1b81525060405180602001604052806000815250604051806020016040528060008152506040518060400160405280600a8152602001691899179998979918191960b11b815250620023ca60201b60201c565b6040805160808101825260108183018181526f41637469766974795f30316d6363687360801b6060840152825282518084019093528083526f1058dd1a5d9a5d1e57cc19dccd1ccdcd60821b60208481019190915280830193909352600052600390915262001ade907f47d4745e02b343689a5e7ac121d2a352b7a15c10328a8759fd7d4cf0999002bb906002620025ab565b5060408051606081018252601060208083018281526f041637469766974795f307079333465760841b94840194909452928252600052600490915262001b48907f4a597304b2df0a7a7b428b3c24c35ba6373aabebf9972387f5610f74a01b21bd90600162002552565b5062001bfc601060056040518060400160405280600f81526020016e11d85d195dd85e57cc18d9995d5a0d608a1b815250604051806020016040528060008152506040518060400160405280600b81526020016a09ee4c8cae4a89e86c2e6d60ab1b81525060405180602001604052806000815250604051806020016040528060008152506040518060400160405280600a8152602001691899179998979918191960b11b815250620023ca60201b60201c565b60408051606081018252601060208083019182526f20b1ba34bb34ba3caf98999a193b37b160811b9383019390935281526011600052600390915262001c66907ffc111d09a6e2f0958402cbe16a5aef32c9d8ddb9a4df7271140de57bfed6525a90600162002552565b506040805160808101825260108183018181526f41637469766974795f30316d6363687360801b60608401528252825180840190935282526f41637469766974795f31776f746c647960801b602083810191909152808201929092526011600052600490915262001cfb907fac375bcb880242328180c23d4a918023a12a7caf7cf12b8c4074e4a3f39900a0906002620025ab565b5062001daf601160056040518060400160405280600f81526020016e08ec2e8caeec2f2be6260e8ec60f4f608b1b815250604051806020016040528060008152506040518060400160405280600b81526020016a09ee4c8cae4a89e86c2e6d60ab1b81525060405180602001604052806000815250604051806020016040528060008152506040518060400160405280600a8152602001691899179998979918191960b11b815250620023ca60201b60201c565b60408051608081018252600d8183019081526c115d995b9d17cc195e999c9e1b609a1b606083015281528151808301909252601082526f41637469766974795f31776f746c647960801b602083810191909152808201929092526012600052600390915262001e42907f6a2b6bffaca788160f671fa62d34758b717f75a90ad5a468757c50d61f33c443906002620025ab565b5060408051606081018252601060208083019182526f20b1ba34bb34ba3caf98999a193b37b160811b9383019390935281526012600052600490915262001ead907f7f6fa3f34639ea1891363ca773619dbd5f652d7ab50411111dde2f57e3ae13ad90600162002552565b5062001f61601260056040518060400160405280600f81526020016e23b0ba32bbb0bcaf981b3b1a9a1b3360891b815250604051806020016040528060008152506040518060400160405280600b81526020016a09ee4c8cae4a89e86c2e6d60ab1b81525060405180602001604052806000815250604051806020016040528060008152506040518060400160405280600a8152602001691899179998979918191960b11b815250620023ca60201b60201c565b60408051606081018252601060208083019182526f41637469766974795f3165637271336b60801b9383019390935281526013600052600390915262001fcb907f8a8166be5f30abeb6c91ee2f07eeb0b2eb14b4d59534d10a1c143964bd61791990600162002552565b506040805160808101825260108183018181526f1058dd1a5d9a5d1e57cc19dccd1ccdcd60821b60608401528252825180840190935282526f20b1ba34bb34ba3caf989c1c3a1932bd60811b602083810191909152808201929092526013600052600490915262002060907f9bbf2ad10217b6212df1939350a047a69b6887b770020d3fa8c328c0653ee987906002620025ab565b5062002114601360056040518060400160405280600f81526020016e476174657761795f3131346362676560881b815250604051806020016040528060008152506040518060400160405280600b81526020016a09ee4c8cae4a89e86c2e6d60ab1b81525060405180602001604052806000815250604051806020016040528060008152506040518060400160405280600a8152602001691899179998979918191960b11b815250620023ca60201b60201c565b60408051608081018252600d8183019081526c22bb32b73a2f983bb1b23a3b9960991b606083015281528151808301909252601082526f20b1ba34bb34ba3caf989c1c3a1932bd60811b6020838101919091528082019290925260146000526003909152620021a7907f0ffe031ee7f67944a037276fd51f48fcc2fe05a729c43144606bc8777da8014f906002620025ab565b5060408051606081018252601060208083019182526f41637469766974795f3165637271336b60801b9383019390935281526014600052600490915262002212907ff7deed9399d719bf61dcb1322c056a03a885c275ab093673b0cc182b84bea06190600162002552565b50620022c6601460056040518060400160405280600f81526020016e11d85d195dd85e57cc1b9bdc5b5c9b608a1b815250604051806020016040528060008152506040518060400160405280600b81526020016a09ee4c8cae4a89e86c2e6d60ab1b81525060405180602001604052806000815250604051806020016040528060008152506040518060400160405280600a8152602001691899179998979918191960b11b815250620023ca60201b60201c565b62002875565b6000816001600160401b03811115620022e957620022e9620026ae565b60405190808252806020026020018201604052801562002313578160200160208202803683370190505b50905060005b828110156200234c5780828281518110620023385762002338620026c4565b602090810291909101015260010162002319565b5060408051606081018252600854808252602080830187815283850186905260009283529082905292902081518155915190919060018201906200239190826200276b565b5060408201518051620023af916002840191602090910190620025f6565b5050600854620023c29150600162002837565b600855505050565b604051806101000160405280898152602001886007811115620023f157620023f16200285f565b815260200187815260200186815260200185815260200184815260200183815260200182815250600260008a81526020019081526020016000206000820151816000015560208201518160010160006101000a81548160ff021916908360078111156200246257620024626200285f565b0217905550604082015160028201906200247d90826200276b565b50606082015160038201906200249490826200276b565b5060808201516004820190620024ab90826200276b565b5060a08201516005820190620024c290826200276b565b5060c08201516006820190620024d990826200276b565b5060e08201516007820190620024f090826200276b565b5050505050505050505050565b82805482825590600052602060002090810192821562002540579160200282015b8281111562002540578251829060ff169055916020019190600101906200251e565b506200254e92915062002634565b5090565b8280548282559060005260206000209081019282156200259d579160200282015b828111156200259d57825182906200258c90826200276b565b509160200191906001019062002573565b506200254e9291506200264b565b8280548282559060005260206000209081019282156200259d579160200282015b828111156200259d5782518290620025e590826200276b565b5091602001919060010190620025cc565b82805482825590600052602060002090810192821562002540579160200282015b828111156200254057825182559160200191906001019062002617565b5b808211156200254e576000815560010162002635565b808211156200254e5760006200266282826200266c565b506001016200264b565b5080546200267a90620026da565b6000825580601f106200268b575050565b601f016020900490600052602060002090810190620026ab919062002634565b50565b634e487b7160e01b600052604160045260246000fd5b634e487b7160e01b600052603260045260246000fd5b600181811c90821680620026ef57607f821691505b6020821081036200271057634e487b7160e01b600052602260045260246000fd5b50919050565b601f82111562002766576000816000526020600020601f850160051c81016020861015620027415750805b601f850160051c820191505b8181101562002762578281556001016200274d565b5050505b505050565b81516001600160401b03811115620027875762002787620026ae565b6200279f81620027988454620026da565b8462002716565b602080601f831160018114620027d75760008415620027be5750858301515b600019600386901b1c1916600185901b17855562002762565b600085815260208120601f198616915b828110156200280857888601518255948401946001909101908401620027e7565b5085821015620028275787850151600019600388901b60f8161c191681555b5050505050600190811b01905550565b808201808211156200285957634e487b7160e01b600052601160045260246000fd5b92915050565b634e487b7160e01b600052602160045260246000fd5b61333e80620028856000396000f3fe60806040526004361061014b5760003560e01c806379a42d06116100b657806398d46dfd1161006f57806398d46dfd146103ee578063a58603e01461040e578063af12a5711461042e578063bed34bba14610443578063c29de7ca14610463578063ecd3645e1461048357600080fd5b806379a42d061461033257806386209b871461034857806386f612271461037b57806394d55eaf1461039b57806395755d17146103bb57806397ada366146103ce57600080fd5b80633a3e8a95116101085780633a3e8a951461025f5780634b5ae0771461028e578063581cf028146102a357806359b97b97146102c35780635f03facd146102e357806378660f5e1461031257600080fd5b806309be70b2146101505780630b09c8ce1461017b5780630d1657e8146101ba57806311ae9ed2146101ee57806319dfc19d1461020357806324a4dd9414610230575b600080fd5b34801561015c57600080fd5b506101656104a3565b60405161017291906129b5565b60405180910390f35b34801561018757600080fd5b506101aa6101963660046129f9565b600090815260066020526040902054151590565b6040519015158152602001610172565b3480156101c657600080fd5b506101da6101d53660046129f9565b6104fb565b604051610172989796959493929190612a78565b3480156101fa57600080fd5b50610165610871565b34801561020f57600080fd5b5061022361021e366004612b29565b6108c7565b6040516101729190612b4b565b34801561023c57600080fd5b506101aa61024b3660046129f9565b600090815260036020526040902054151590565b34801561026b57600080fd5b506101aa61027a3660046129f9565b600090815260046020526040902054151590565b6102a161029c3660046129f9565b610980565b005b3480156102af57600080fd5b506102236102be366004612b29565b610a14565b3480156102cf57600080fd5b506101aa6102de366004612bac565b610a30565b3480156102ef57600080fd5b506101aa6102fe3660046129f9565b600090815260056020526040902054151590565b34801561031e57600080fd5b5061016561032d3660046129f9565b610a7b565b61033a610ade565b604051908152602001610172565b34801561035457600080fd5b506103686103633660046129f9565b610af1565b6040516101729796959493929190612c5e565b34801561038757600080fd5b50610223610396366004612cd9565b610e29565b3480156103a757600080fd5b506102236103b6366004612b29565b610e42565b6102a16103c9366004612d72565b610e5e565b3480156103da57600080fd5b5061033a6103e9366004612e04565b61106a565b3480156103fa57600080fd5b506102a1610409366004612e55565b6110e2565b34801561041a57600080fd5b506102a1610429366004612f66565b611203565b34801561043a57600080fd5b506101656112f3565b34801561044f57600080fd5b506101aa61045e366004612fab565b611349565b34801561046f57600080fd5b506102a161047e366004612fab565b6113a2565b34801561048f57600080fd5b5061022361049e366004612b29565b6115fb565b6060600a8054806020026020016040519081016040528092919081815260200182805480156104f157602002820191906000526020600020905b8154815260200190600101908083116104dd575b5050505050905090565b6002602081905260009182526040909120805460018201549282018054919360ff1692916105289061300f565b80601f01602080910402602001604051908101604052809291908181526020018280546105549061300f565b80156105a15780601f10610576576101008083540402835291602001916105a1565b820191906000526020600020905b81548152906001019060200180831161058457829003601f168201915b5050505050908060030180546105b69061300f565b80601f01602080910402602001604051908101604052809291908181526020018280546105e29061300f565b801561062f5780601f106106045761010080835404028352916020019161062f565b820191906000526020600020905b81548152906001019060200180831161061257829003601f168201915b5050505050908060040180546106449061300f565b80601f01602080910402602001604051908101604052809291908181526020018280546106709061300f565b80156106bd5780601f10610692576101008083540402835291602001916106bd565b820191906000526020600020905b8154815290600101906020018083116106a057829003601f168201915b5050505050908060050180546106d29061300f565b80601f01602080910402602001604051908101604052809291908181526020018280546106fe9061300f565b801561074b5780601f106107205761010080835404028352916020019161074b565b820191906000526020600020905b81548152906001019060200180831161072e57829003601f168201915b5050505050908060060180546107609061300f565b80601f016020809104026020016040519081016040528092919081815260200182805461078c9061300f565b80156107d95780601f106107ae576101008083540402835291602001916107d9565b820191906000526020600020905b8154815290600101906020018083116107bc57829003601f168201915b5050505050908060070180546107ee9061300f565b80601f016020809104026020016040519081016040528092919081815260200182805461081a9061300f565b80156108675780601f1061083c57610100808354040283529160200191610867565b820191906000526020600020905b81548152906001019060200180831161084a57829003601f168201915b5050505050905088565b6060600b8054806020026020016040519081016040528092919081815260200182805480156104f157602002820191906000526020600020908154815260200190600101908083116104dd575050505050905090565b600360205281600052604060002081815481106108e357600080fd5b906000526020600020016000915091505080546108ff9061300f565b80601f016020809104026020016040519081016040528092919081815260200182805461092b9061300f565b80156109785780601f1061094d57610100808354040283529160200191610978565b820191906000526020600020905b81548152906001019060200180831161095b57829003601f168201915b505050505081565b600061098c6000610a7b565b6000838152600560209081526040808320546002928390529083206001015493945015159260ff1660078111156109c5576109c5612a12565b149050816109dc576109d78484611617565b610a04565b8180156109e65750805b156109f5576109d784846116fb565b80610a0457610a048484611617565b610a0e8484611719565b50505050565b600560205281600052604060002081815481106108e357600080fd5b6000805b8251811015610a6f5783838281518110610a5057610a50613049565b602002602001015103610a67576001915050610a75565b600101610a34565b50600090505b92915050565b60008181526020818152604091829020600201805483518184028101840190945280845260609392830182828015610ad257602002820191906000526020600020905b815481526020019060010190808311610abe575b50505050509050919050565b6000610aeb600a82612937565b50600090565b600081815260026020526040812080546001909101548291606091829182918291829160ff166007811115610b2857610b28612a12565b60008a8152600260208190526040909120908101805490916003810191600582019160068101916004909101908590610b609061300f565b80601f0160208091040260200160405190810160405280929190818152602001828054610b8c9061300f565b8015610bd95780601f10610bae57610100808354040283529160200191610bd9565b820191906000526020600020905b815481529060010190602001808311610bbc57829003601f168201915b50505050509450838054610bec9061300f565b80601f0160208091040260200160405190810160405280929190818152602001828054610c189061300f565b8015610c655780601f10610c3a57610100808354040283529160200191610c65565b820191906000526020600020905b815481529060010190602001808311610c4857829003601f168201915b50505050509350828054610c789061300f565b80601f0160208091040260200160405190810160405280929190818152602001828054610ca49061300f565b8015610cf15780601f10610cc657610100808354040283529160200191610cf1565b820191906000526020600020905b815481529060010190602001808311610cd457829003601f168201915b50505050509250818054610d049061300f565b80601f0160208091040260200160405190810160405280929190818152602001828054610d309061300f565b8015610d7d5780601f10610d5257610100808354040283529160200191610d7d565b820191906000526020600020905b815481529060010190602001808311610d6057829003601f168201915b50505050509150808054610d909061300f565b80601f0160208091040260200160405190810160405280929190818152602001828054610dbc9061300f565b8015610e095780601f10610dde57610100808354040283529160200191610e09565b820191906000526020600020905b815481529060010190602001808311610dec57829003601f168201915b505050505090509650965096509650965096509650919395979092949650565b600160205260009081526040902080546108ff9061300f565b600460205281600052604060002081815481106108e357600080fd5b60008481526002602052604090206004018054610f03918591610e809061300f565b80601f0160208091040260200160405190810160405280929190818152602001828054610eac9061300f565b8015610ef95780601f10610ece57610100808354040283529160200191610ef9565b820191906000526020600020905b815481529060010190602001808311610edc57829003601f168201915b5050505050611349565b610f0c57600080fd5b600084815260026020526040902060010154610f2a9060ff16611760565b610f3357600080fd5b6000600a8581548110610f4857610f48613049565b906000526020600020015460011490506000600b8681548110610f6d57610f6d613049565b906000526020600020015460011490508180610f865750805b1561106257600560008781526002602052604090206001015460ff166007811115610fb357610fb3612a12565b03610fc657610fc186611823565b611007565b600660008781526002602052604090206001015460ff166007811115610fee57610fee612a12565b03610ffc57610fc1866119f6565b611007868585611d07565b336001600160a01b03167f32e4ea1ee1b7d04aff7692ad7aa9a1db44a16ce2b519efa717ddd98034b9f1c3600260008981526020019081526020016000206002018686604051611059939291906130dc565b60405180910390a25b505050505050565b6000806110776000610a7b565b905060005b81518110156110d7576110c3846002600085858151811061109f5761109f613049565b602002602001015181526020019081526020016000206002018054610e809061300f565b156110cf579392505050565b60010161107c565b506101949392505050565b60405180610100016040528089815260200188600781111561110657611106612a12565b815260200187815260200186815260200185815260200184815260200183815260200182815250600260008a81526020019081526020016000206000820151816000015560208201518160010160006101000a81548160ff0219169083600781111561117457611174612a12565b02179055506040820151600282019061118d9082613167565b50606082015160038201906111a29082613167565b50608082015160048201906111b79082613167565b5060a082015160058201906111cc9082613167565b5060c082015160068201906111e19082613167565b5060e082015160078201906111f69082613167565b5050505050505050505050565b60008167ffffffffffffffff81111561121e5761121e612b65565b604051908082528060200260200182016040528015611247578160200160208202803683370190505b50905060005b8281101561127b578082828151811061126857611268613049565b602090810291909101015260010161124d565b5060408051606081018252600854808252602080830187815283850186905260009283529082905292902081518155915190919060018201906112be9082613167565b50604082015180516112da916002840191602090910190612955565b50506008546112eb91506001613227565b600855505050565b6060600c8054806020026020016040519081016040528092919081815260200182805480156104f157602002820191906000526020600020908154815260200190600101908083116104dd575050505050905090565b60008160405160200161135c9190613248565b60405160208183030381529060405280519060200120836040516020016113839190613248565b6040516020818303038152906040528051906020012014905092915050565b60006113ad8361106a565b90506001600a82815481106113c4576113c4613049565b90600052602060002001819055506000600c82815481106113e7576113e7613049565b90600052602060002001819055506000600b828154811061140a5761140a613049565b906000526020600020018190555060005b60078360405161142b9190613248565b9081526040519081900360200190205481101561158057600061150e6007856040516114579190613248565b9081526020016040518091039020838154811061147657611476613049565b90600052602060002001805461148b9061300f565b80601f01602080910402602001604051908101604052809291908181526020018280546114b79061300f565b80156115045780601f106114d957610100808354040283529160200191611504565b820191906000526020600020905b8154815290600101906020018083116114e757829003601f168201915b505050505061106a565b90506000600a828154811061152557611525613049565b90600052602060002001819055506000600c828154811061154857611548613049565b90600052602060002001819055506000600b828154811061156b5761156b613049565b6000918252602090912001555060010161141b565b50600061158c8361106a565b90506000600a82815481106115a3576115a3613049565b90600052602060002001819055506000600c82815481106115c6576115c6613049565b90600052602060002001819055506000600b82815481106115e9576115e9613049565b60009182526020909120015550505050565b600660205281600052604060002081815481106108e357600080fd5b60005b6000838152600360205260409020548110156116f657600083815260036020526040902080546116ee9184918490811061165657611656613049565b90600052602060002001805461166b9061300f565b80601f01602080910402602001604051908101604052809291908181526020018280546116979061300f565b80156116e45780601f106116b9576101008083540402835291602001916116e4565b820191906000526020600020905b8154815290600101906020018083116116c757829003601f168201915b5050505050611d79565b60010161161a565b505050565b60006117078383611e2d565b905080156116f6576116f68383611617565b60005b6000838152600660205260409020548110156116f657600083815260066020526040902080546117589184918490811061165657611656613049565b60010161171c565b60008082600781111561177557611775612a12565b14806117925750600282600781111561179057611790612a12565b145b806117ae575060038260078111156117ac576117ac612a12565b145b806117ca575060048260078111156117c8576117c8612a12565b145b806117e6575060018260078111156117e4576117e4612a12565b145b806118025750600582600781111561180057611800612a12565b145b80610a755750600682600781111561181c5761181c612a12565b1492915050565b6000600a828154811061183857611838613049565b90600052602060002001819055506001600c828154811061185b5761185b613049565b906000526020600020018190555060006118756000610a7b565b905060005b6000838152600360205260409020548110156116f65760008381526003602052604081208054839081106118b0576118b0613049565b9060005260206000200180546118c59061300f565b80601f01602080910402602001604051908101604052809291908181526020018280546118f19061300f565b801561193e5780601f106119135761010080835404028352916020019161193e565b820191906000526020600020905b81548152906001019060200180831161192157829003601f168201915b5050505050905060005b83518110156119ec5761196b826002600087858151811061109f5761109f613049565b156119e4576001600a85838151811061198657611986613049565b60200260200101518154811061199e5761199e613049565b9060005260206000200181905550600d8482815181106119c0576119c0613049565b602090810291909101810151825460018101845560009384529190922001556119ec565b600101611948565b505060010161187a565b600080611a036000610a7b565b905060005b600084815260046020526040902054811015611b61576000848152600460205260408120805483908110611a3e57611a3e613049565b906000526020600020018054611a539061300f565b80601f0160208091040260200160405190810160405280929190818152602001828054611a7f9061300f565b8015611acc5780601f10611aa157610100808354040283529160200191611acc565b820191906000526020600020905b815481529060010190602001808311611aaf57829003601f168201915b5050505050905060005b8351811015611b5757611af9826002600087858151811061109f5761109f613049565b15611b4f57600c848281518110611b1257611b12613049565b602002602001015181548110611b2a57611b2a613049565b9060005260206000200154600103611b4a57611b47856001613227565b94505b611b57565b600101611ad6565b5050600101611a08565b5060008381526004602052604090205482036116f6576000600a8481548110611b8c57611b8c613049565b90600052602060002001819055506001600c8481548110611baf57611baf613049565b906000526020600020018190555060005b600084815260036020526040902054811015610a0e576000848152600360205260408120805483908110611bf657611bf6613049565b906000526020600020018054611c0b9061300f565b80601f0160208091040260200160405190810160405280929190818152602001828054611c379061300f565b8015611c845780601f10611c5957610100808354040283529160200191611c84565b820191906000526020600020905b815481529060010190602001808311611c6757829003601f168201915b5050505050905060005b8351811015611cfd57611cb1826002600087858151811061109f5761109f613049565b15611cf5576001600a858381518110611ccc57611ccc613049565b602002602001015181548110611ce457611ce4613049565b600091825260209091200155611cfd565b600101611c8e565b5050600101611bc0565b611d12838383611f9d565b611d6c83600d805480602002602001604051908101604052809291908181526020018280548015611d6257602002820191906000526020600020905b815481526020019060010190808311611d4e575b5050505050610a30565b156116f6576116f66120a6565b60005b82518110156116f657611d9f826002600086858151811061109f5761109f613049565b8015611de157506001600c848381518110611dbc57611dbc613049565b602002602001015181548110611dd457611dd4613049565b9060005260206000200154105b15611e25576001600a848381518110611dfc57611dfc613049565b602002602001015181548110611e1457611e14613049565b600091825260209091200155505050565b600101611d7c565b6000805b8251811015610a6f5760008481526005602052604081208054611f049290611e5b57611e5b613049565b906000526020600020018054611e709061300f565b80601f0160208091040260200160405190810160405280929190818152602001828054611e9c9061300f565b8015611ee95780601f10611ebe57610100808354040283529160200191611ee9565b820191906000526020600020905b815481529060010190602001808311611ecc57829003601f168201915b50505050506002600086858151811061109f5761109f613049565b8015611f8657506000600b848381518110611f2157611f21613049565b602002602001015181548110611f3957611f39613049565b90600052602060002001541180611f8657506000600c848381518110611f6157611f61613049565b602002602001015181548110611f7957611f79613049565b9060005260206000200154115b15611f95576001915050610a75565b600101611e31565b600083815260026020526040812060060180546120519190611fbe9061300f565b80601f0160208091040260200160405190810160405280929190818152602001828054611fea9061300f565b80156120375780601f1061200c57610100808354040283529160200191612037565b820191906000526020600020905b81548152906001019060200180831161201a57829003601f168201915b505050505060405180602001604052806000815250611349565b159050600061207a600260008781526020019081526020016000206005018054611fbe9061300f565b159050816120935761208e85858584612108565b61209f565b61209f8585858461249f565b5050505050565b60005b600d548110156120f9576000600a600d83815481106120ca576120ca613049565b9060005260206000200154815481106120e5576120e5613049565b6000918252602090912001556001016120a9565b50612106600d6000612937565b565b801561212b5760008481526002602052604090206005016121298482613167565b505b60006121376000610a7b565b6000868152600660205260408120549192509015159061215787846124df565b9050600061216588856124df565b905060006007600260008b815260200190815260200160002060020160405161218e9190613264565b90815260405190819003602001902054151590508380156121ac5750805b1561230e576000898152600660205260408120805461230992906121d2576121d2613049565b9060005260206000200180546121e79061300f565b80601f01602080910402602001604051908101604052809291908181526020018280546122139061300f565b80156122605780601f1061223557610100808354040283529160200191612260565b820191906000526020600020905b81548152906001019060200180831161224357829003601f168201915b5050505050600260008c815260200190815260200160002060020180546122869061300f565b80601f01602080910402602001604051908101604052809291908181526020018280546122b29061300f565b80156122ff5780601f106122d4576101008083540402835291602001916122ff565b820191906000526020600020905b8154815290600101906020018083116122e257829003601f168201915b50505050506113a2565b612494565b83158061232057508280156123205750815b1561232e5761230989612627565b8261243b576001600c8a8154811061234857612348613049565b90600052602060002001819055506000600a8a8154811061236b5761236b613049565b90600052602060002001819055506123098986600660008d81526020019081526020016000206000815481106123a3576123a3613049565b9060005260206000200180546123b89061300f565b80601f01602080910402602001604051908101604052809291908181526020018280546123e49061300f565b80156124315780601f1061240657610100808354040283529160200191612431565b820191906000526020600020905b81548152906001019060200180831161241457829003601f168201915b50505050506126b1565b336001600160a01b03167ffc98137258110aa472f6dbf39f2051f7045162382f61b13bb1445bdb0a3e8b8a600260008c81526020019081526020016000206002018960405161248b9291906132da565b60405180910390a25b505050505050505050565b600b84815481106124b2576124b2613049565b90600052602060002001546000036124d4576124cf8482856127ab565b610a0e565b610a0e8484846127e3565b600080805b835181101561261f576000858152600560205260409020541561261757600085815260056020526040812080546125cb929061252257612522613049565b9060005260206000200180546125379061300f565b80601f01602080910402602001604051908101604052809291908181526020018280546125639061300f565b80156125b05780601f10612585576101008083540402835291602001916125b0565b820191906000526020600020905b81548152906001019060200180831161259357829003601f168201915b50505050506002600087858151811061109f5761109f613049565b1561261757600c8482815181106125e4576125e4613049565b6020026020010151815481106125fc576125fc613049565b9060005260206000200154600103612617576001915061261f565b6001016124e4565b509392505050565b6000600b828154811061263c5761263c613049565b90600052602060002001819055506000600a828154811061265f5761265f613049565b90600052602060002001819055506001600c828154811061268257612682613049565b600091825260208083209091019290925582815260039091526040902054156126ae576126ae81610980565b50565b60005b600084815260066020526040902054811015610a0e5760005b83518110156127a2576126f0836002600087858151811061109f5761109f613049565b801561273257506001600c85838151811061270d5761270d613049565b60200260200101518154811061272557612725613049565b9060005260206000200154105b1561279a576001600c85838151811061274d5761274d613049565b60200260200101518154811061276557612765613049565b906000526020600020018190555061279584828151811061278857612788613049565b6020026020010151610980565b6127a2565b6001016126cd565b506001016126b4565b81156127ce5760008381526002602052604090206005016127cc8282613167565b505b6001600b8481548110611e1457611e14613049565b60008381526002602052604090206006016127fe8382613167565b50600061280b6000610a7b565b6000858152600660205260408120549192509015159061282b86846124df565b9050600061283987856124df565b905082158061284d575081801561284d5750805b156128605761285b87612627565b61292e565b816128d5576001600b888154811061287a5761287a613049565b90600052602060002001819055506000600a888154811061289d5761289d613049565b906000526020600020018190555061285b8785600660008b81526020019081526020016000206000815481106123a3576123a3613049565b336001600160a01b03167ffc98137258110aa472f6dbf39f2051f7045162382f61b13bb1445bdb0a3e8b8a600260008a8152602001908152602001600020600201876040516129259291906132da565b60405180910390a25b50505050505050565b50805460008255906000526020600020908101906126ae91906129a0565b828054828255906000526020600020908101928215612990579160200282015b82811115612990578251825591602001919060010190612975565b5061299c9291506129a0565b5090565b5b8082111561299c57600081556001016129a1565b6020808252825182820181905260009190848201906040850190845b818110156129ed578351835292840192918401916001016129d1565b50909695505050505050565b600060208284031215612a0b57600080fd5b5035919050565b634e487b7160e01b600052602160045260246000fd5b60005b83811015612a43578181015183820152602001612a2b565b50506000910152565b60008151808452612a64816020860160208601612a28565b601f01601f19169290920160200192915050565b60006101008a835260088a10612a9e57634e487b7160e01b600052602160045260246000fd5b896020840152806040840152612ab68184018a612a4c565b90508281036060840152612aca8189612a4c565b90508281036080840152612ade8188612a4c565b905082810360a0840152612af28187612a4c565b905082810360c0840152612b068186612a4c565b905082810360e0840152612b1a8185612a4c565b9b9a5050505050505050505050565b60008060408385031215612b3c57600080fd5b50508035926020909101359150565b602081526000612b5e6020830184612a4c565b9392505050565b634e487b7160e01b600052604160045260246000fd5b604051601f8201601f1916810167ffffffffffffffff81118282101715612ba457612ba4612b65565b604052919050565b60008060408385031215612bbf57600080fd5b8235915060208084013567ffffffffffffffff80821115612bdf57600080fd5b818601915086601f830112612bf357600080fd5b813581811115612c0557612c05612b65565b8060051b9150612c16848301612b7b565b8181529183018401918481019089841115612c3057600080fd5b938501935b83851015612c4e57843582529385019390850190612c35565b8096505050505050509250929050565b87815286602082015260e060408201526000612c7d60e0830188612a4c565b8281036060840152612c8f8188612a4c565b90508281036080840152612ca38187612a4c565b905082810360a0840152612cb78186612a4c565b905082810360c0840152612ccb8185612a4c565b9a9950505050505050505050565b600060208284031215612ceb57600080fd5b81356001600160a01b0381168114612b5e57600080fd5b600082601f830112612d1357600080fd5b813567ffffffffffffffff811115612d2d57612d2d612b65565b612d40601f8201601f1916602001612b7b565b818152846020838601011115612d5557600080fd5b816020850160208301376000918101602001919091529392505050565b60008060008060808587031215612d8857600080fd5b84359350602085013567ffffffffffffffff80821115612da757600080fd5b612db388838901612d02565b94506040870135915080821115612dc957600080fd5b612dd588838901612d02565b93506060870135915080821115612deb57600080fd5b50612df887828801612d02565b91505092959194509250565b600060208284031215612e1657600080fd5b813567ffffffffffffffff811115612e2d57600080fd5b612e3984828501612d02565b949350505050565b803560088110612e5057600080fd5b919050565b600080600080600080600080610100898b031215612e7257600080fd5b88359750612e8260208a01612e41565b9650604089013567ffffffffffffffff80821115612e9f57600080fd5b612eab8c838d01612d02565b975060608b0135915080821115612ec157600080fd5b612ecd8c838d01612d02565b965060808b0135915080821115612ee357600080fd5b612eef8c838d01612d02565b955060a08b0135915080821115612f0557600080fd5b612f118c838d01612d02565b945060c08b0135915080821115612f2757600080fd5b612f338c838d01612d02565b935060e08b0135915080821115612f4957600080fd5b50612f568b828c01612d02565b9150509295985092959890939650565b60008060408385031215612f7957600080fd5b823567ffffffffffffffff811115612f9057600080fd5b612f9c85828601612d02565b95602094909401359450505050565b60008060408385031215612fbe57600080fd5b823567ffffffffffffffff80821115612fd657600080fd5b612fe286838701612d02565b93506020850135915080821115612ff857600080fd5b5061300585828601612d02565b9150509250929050565b600181811c9082168061302357607f821691505b60208210810361304357634e487b7160e01b600052602260045260246000fd5b50919050565b634e487b7160e01b600052603260045260246000fd5b6000815461306c8161300f565b80855260206001838116801561308957600181146130a3576130d1565b60ff1985168884015283151560051b8801830195506130d1565b866000528260002060005b858110156130c95781548a82018601529083019084016130ae565b890184019650505b505050505092915050565b6060815260006130ef606083018661305f565b82810360208401526131018186612a4c565b905082810360408401526131158185612a4c565b9695505050505050565b601f8211156116f6576000816000526020600020601f850160051c810160208610156131485750805b601f850160051c820191505b8181101561106257828155600101613154565b815167ffffffffffffffff81111561318157613181612b65565b6131958161318f845461300f565b8461311f565b602080601f8311600181146131ca57600084156131b25750858301515b600019600386901b1c1916600185901b178555611062565b600085815260208120601f198616915b828110156131f9578886015182559484019460019091019084016131da565b50858210156132175787850151600019600388901b60f8161c191681555b5050505050600190811b01905550565b80820180821115610a7557634e487b7160e01b600052601160045260246000fd5b6000825161325a818460208701612a28565b9190910192915050565b60008083546132728161300f565b6001828116801561328a576001811461329f576132ce565b60ff19841687528215158302870194506132ce565b8760005260208060002060005b858110156132c55781548a8201529084019082016132ac565b50505082870194505b50929695505050505050565b6040815260006132ed604083018561305f565b82810360208401526132ff8185612a4c565b9594505050505056fea26469706673582212201dea9b969c296c5e67b2f41bac8e24bd9ac05f908675380392681d4dd93471e964736f6c63430008180033",
  "linkReferences": {},
  "deployedLinkReferences": {}
}