{
  "_format": "hh-sol-artifact-1",
  "contractName": "DiamondInit",
  "sourceName": "contracts/upgradeInitializers/DiamondInit.sol",
  "abi": [
    {
      "anonymous": false,
      "inputs": [
        {
          "indexed": false,
          "internalType": "uint256",
          "name": "_zone",
          "type": "uint256"
        }
      ],
      "name": "testInit",
      "type": "event"
    },
    {
      "inputs": [],
      "name": "init",
      "outputs": [],
      "stateMutability": "nonpayable",
      "type": "function"
    },
    {
      "inputs": [],
      "name": "initProcessus",
      "outputs": [],
      "stateMutability": "nonpayable",
      "type": "function"
    },
    {
      "inputs": [],
      "name": "initProcessus3",
      "outputs": [],
      "stateMutability": "nonpayable",
      "type": "function"
    }
  ],
  "bytecode": "0x608060405234801561001057600080fd5b50611b66806100206000396000f3fe608060405234801561001057600080fd5b50600436106100415760003560e01c806304db0d4514610046578063abfa1c1514610050578063e1c7392a14610058575b600080fd5b61004e610139565b005b61004e610e94565b61004e7fc8fcad8db84d3cc18b4c41d551ea0ee66dd599cde068d998e57d5e09332c131f6020527f699d9daa71b280d05a152715774afa0a81a312594b2d731d6b0b2552b7d6f69f8054600160ff1991821681179092557ff97e938d8af42f52387bb74b8b526fda8f184cc2aa534340a8d75a88fbecc77580548216831790557f65d510a5d8f7ef134ec444f7f34ee808c8eeb5177cdfd16be0c40fe1ab43369580548216831790556307f5828d60e41b6000527f5622121b47b8cd0120c4efe45dd5483242f54a3d49bd7679be565d47694918c380549091169091179055565b7fc8fcad8db84d3cc18b4c41d551ea0ee66dd599cde068d998e57d5e09332c13215460408051600880825261012082019092527fc8fcad8db84d3cc18b4c41d551ea0ee66dd599cde068d998e57d5e09332c131c926001600160a01b0316916000919060208201610100803683370190505090506001816002815181106101c2576101c26112f3565b60209081029190910101526040805160088082526101208201909252600091816020016020820280368337505060408051600880825261012082019092529293506000929150602082016101008036833701905050604080516001808252818301909252919250606091600091816020015b60608152602001906001900390816102345790505090506040518060400160405280600d81526020016c115d995b9d17cc0dddcc4d990d609a1b81525081600081518110610284576102846112f3565b6020908102919091010152604080516001808252818301909252600091816020015b60608152602001906001900390816102a657505060408051600680825260e08201909252919250602082015b60608152602001906001900390816102d257905050816000815181106102fa576102fa6112f3565b60200260200101819052506040518060400160405280600d81526020016c4576656e745f316a727971317760981b8152508160008151811061033e5761033e6112f3565b6020026020010151600081518110610358576103586112f3565b60200260200101819052506040518060400160405280600d81526020016c115d995b9d17cc5e188c9c5a5b609a1b8152508160008151811061039c5761039c6112f3565b60200260200101516001815181106103b6576103b66112f3565b60200260200101819052506040518060400160405280601081526020016f1058dd1a5d9a5d1e57cc1a9c1d1ad88d60821b815250816000815181106103fd576103fd6112f3565b6020026020010151600281518110610417576104176112f3565b60200260200101819052506040518060400160405280600f81526020016e11d85d195dd85e57cc0ddc5a0d5e8d608a1b8152508160008151811061045d5761045d6112f3565b6020026020010151600381518110610477576104776112f3565b60200260200101819052506040518060400160405280600d81526020016c115d995b9d17cc0dddcc4d990d609a1b815250816000815181106104bb576104bb6112f3565b60200260200101516004815181106104d5576104d56112f3565b60200260200101819052506040518060400160405280600d81526020016c04576656e745f306d393074753609c1b81525081600081518110610519576105196112f3565b6020026020010151600581518110610533576105336112f3565b60209081029190910101526040516396213cf760e01b81526001600160a01b038816906396213cf790610575906008908a908a908a9089908990600401611495565b600060405180830381600087803b15801561058f57600080fd5b505af11580156105a3573d6000803e3d6000fd5b5060009250600191506105b39050565b6040519080825280602002602001820160405280156105e657816020015b60608152602001906001900390816105d15790505b5060408051600180825281830190925291925060009190816020015b606081526020019060019003908161060257505060408051600180825281830190925291925060009190602082015b606081526020019060019003908161063157505060408051600180825281830190925291925060009190602082015b60608152602001906001900390816106605790505090506040518060400160405280600d81526020016c4576656e745f316a727971317760981b815250846000815181106106b0576106b06112f3565b60200260200101819052506040518060400160405280600d81526020016c4576656e745f316d396a62716160981b815250836000815181106106f4576106f46112f3565b60200260200101819052506040518060400160405280600d81526020016c115d995b9d17cc0dddcc4d990d609a1b81525082600081518110610738576107386112f3565b602090810291909101015260058c015460405163b46af00960e01b81526001600160a01b039091169063b46af00990610780906000906004908990899089908f908501611556565b600060405180830381600087803b15801561079a57600080fd5b505af11580156107ae573d6000803e3d6000fd5b505050506040518060400160405280600f81526020016e11d85d195dd85e57cc0ddc5a0d5e8d608a1b815250846000815181106107ed576107ed6112f3565b60200260200101819052506040518060400160405280600d81526020016c115d995b9d17cc5e188c9c5a5b609a1b81525083600081518110610831576108316112f3565b602090810291909101015260058c015460405163b46af00960e01b81526001600160a01b039091169063b46af0099061087990600190600490899089908e9081908501611689565b600060405180830381600087803b15801561089357600080fd5b505af11580156108a7573d6000803e3d6000fd5b505050506040518060400160405280601081526020016f20b1ba34bb34ba3caf989ab719333abb60811b815250846000815181106108e7576108e76112f3565b602090810291909101015260058c015460405163b46af00960e01b81526001600160a01b039091169063b46af009906109309060029060009089908d9081908190600401611726565b600060405180830381600087803b15801561094a57600080fd5b505af115801561095e573d6000803e3d6000fd5b505050506040518060400160405280601081526020016f1058dd1a5d9a5d1e57cc1a9c1d1ad88d60821b8152508460008151811061099e5761099e6112f3565b60200260200101819052506040518060400160405280600d81526020016c4576656e745f316a727971317760981b815250826000815181106109e2576109e26112f3565b602090810291909101015260058c015460405163b46af00960e01b81526001600160a01b039091169063b46af00990610a2b9060039060029089908d9089908290600401611793565b600060405180830381600087803b158015610a4557600080fd5b505af1158015610a59573d6000803e3d6000fd5b505050506040518060400160405280601081526020016f20b1ba34bb34ba3caf989ab719333abb60811b81525083600081518110610a9957610a996112f3565b60200260200101819052506040518060400160405280600d81526020016c115d995b9d17cc5e188c9c5a5b609a1b81525081600081518110610add57610add6112f3565b602090810291909101015260058c015460405163b46af00960e01b81526001600160a01b039091169063b46af00990610b25906004906001908c908990829089908601611800565b600060405180830381600087803b158015610b3f57600080fd5b505af1158015610b53573d6000803e3d6000fd5b505050506040518060400160405280600f81526020016e11d85d195dd85e57cc0ddc5a0d5e8d608a1b81525083600081518110610b9257610b926112f3565b60200260200101819052506040518060400160405280601081526020016f20b1ba34bb34ba3caf989ab719333abb60811b81525081600081518110610bd957610bd96112f3565b60209081029190910101526005808d015460405163b46af00960e01b81526001600160a01b039091169163b46af00991610c2191906001908c90899082908990600401611867565b600060405180830381600087803b158015610c3b57600080fd5b505af1158015610c4f573d6000803e3d6000fd5b505050506040518060400160405280601081526020016f20b1ba34bb34ba3caf989ab719333abb60811b81525083600081518110610c8f57610c8f6112f3565b602090810291909101015260058c015460405163b46af00960e01b81526001600160a01b039091169063b46af00990610cd8906006906001908c908990829081906004016118ce565b600060405180830381600087803b158015610cf257600080fd5b505af1158015610d06573d6000803e3d6000fd5b5060029250610d13915050565b604051908082528060200260200182016040528015610d4657816020015b6060815260200190600190039081610d315790505b5093506040518060400160405280600d81526020016c115d995b9d17cc0dddcc4d990d609a1b81525084600081518110610d8257610d826112f3565b60200260200101819052506040518060400160405280600d81526020016c04576656e745f306d393074753609c1b81525084600181518110610dc657610dc66112f3565b60200260200101819052506040518060400160405280601081526020016f1058dd1a5d9a5d1e57cc1a9c1d1ad88d60821b81525083600081518110610e0d57610e0d6112f3565b60209081029190910101526005808d015460405163b46af00960e01b81526001600160a01b039091169163b46af00991610e5491600791899089908e908190600401611935565b600060405180830381600087803b158015610e6e57600080fd5b505af1158015610e82573d6000803e3d6000fd5b50505050505050505050505050505050565b604080516003808252608082019092527fc8fcad8db84d3cc18b4c41d551ea0ee66dd599cde068d998e57d5e09332c131c916000919060208201606080368337019050509050600181600181518110610eef57610eef6112f3565b602090810291909101015260408051600380825260808201909252600091816020016020820280368337505060408051600380825260808201909252929350600092915060208201606080368337019050506040805160008082526020820190925291925060609181610f72565b6060815260200190600190039081610f5d5790505b50604080516000808252602082019092529192509081610fa2565b6060815260200190600190039081610f8d5790505b5060058801546040516396213cf760e01b81529192506001600160a01b0316906396213cf790610fe1906003908a908a908a9089908990600401611495565b600060405180830381600087803b158015610ffb57600080fd5b505af115801561100f573d6000803e3d6000fd5b50600092506001915061101f9050565b60405190808252806020026020018201604052801561105257816020015b606081526020019060019003908161103d5790505b5060408051600180825281830190925291925060009190816020015b606081526020019060019003908161106e5790505090506040518060400160405280600d81526020016c22bb32b73a2f983b19b438b2b760991b815250826000815181106110be576110be6112f3565b60200260200101819052506040518060400160405280600c81526020016b53746172744576656e745f3160a01b81525081600081518110611101576111016112f3565b6020908102919091010152600589015460405163b46af00960e01b81526001600160a01b039091169063b46af0099061114990600090600490879087908c908190850161199e565b600060405180830381600087803b15801561116357600080fd5b505af1158015611177573d6000803e3d6000fd5b505050506040518060400160405280601081526020016f20b1ba34bb34ba3caf983b3a1b393bb560811b815250826000815181106111b7576111b76112f3565b6020908102919091010152600589015460405163b46af00960e01b81526001600160a01b039091169063b46af009906111ff9060019060049087908b90819081908501611a51565b600060405180830381600087803b15801561121957600080fd5b505af115801561122d573d6000803e3d6000fd5b505050506040518060400160405280601081526020016f20b1ba34bb34ba3caf983b3a1b393bb560811b8152508160008151811061126d5761126d6112f3565b6020908102919091010152600589015460405163b46af00960e01b81526001600160a01b039091169063b46af009906112b6906002906000908a90879082908190600401611ad9565b600060405180830381600087803b1580156112d057600080fd5b505af11580156112e4573d6000803e3d6000fd5b50505050505050505050505050565b634e487b7160e01b600052603260045260246000fd5b60008151808452602080850194506020840160005b8381101561133a5781518752958201959082019060010161131e565b509495945050505050565b600082825180855260208086019550808260051b8401018186016000805b858110156113bf57601f1980888603018b5283518051808752845b81811015611399578281018901518882018a0152880161137e565b5086810188018590529b87019b601f019091169094018501935091840191600101611363565b509198975050505050505050565b6000828251808552602080860195506005818360051b85010182870160005b8581101561148757601f1987840381018b5282518051808652908701908786019080881b8701890160005b8281101561147057858983030184528451805180845260005b8181101561144b578281018e01518582018f01528d01611430565b5060008482018e0152958c0195948c0194601f0187169092018b019150600101611417565b509d89019d965050509286019250506001016113ec565b509098975050505050505050565b60e0815260006114bf60e08301600a8152691b5e50dbdb9d1c9858dd60b21b602082015260400190565b88602084015282810360408401526114d78189611309565b905082810360608401526114eb8188611309565b905082810360808401526114ff8187611309565b905082810360a08401526115138186611345565b905082810360c084015261152781856113cd565b9998505050505050505050565b6008811061155257634e487b7160e01b600052602160045260246000fd5b9052565b600061018088835261156b6020840189611534565b80604084015261159a818401601081526f20b1ba34bb34ba3caf989ab719333abb60811b602082015260400190565b838103606085015260118152701499585b1a5cd85d1a5bdb941c9bda995d607a1b60208201529050604081015b8381036080850152600b81526a427572656175457475646560a81b60208201529050604081015b83810360a0850152600081529050602081015b83810360c0850181905260008252602080820160e0870152600a90830152691899179998979918191960b11b6040830152606090810161010086015201905061164a8188611345565b905082810361012084015261165f8187611345565b90508281036101408401526116748186611345565b90508281036101608401526115278185611345565b600061018088835261169e6020840189611534565b8060408401526116cd818401601081526f1058dd1a5d9a5d1e57cc1a9c1d1ad88d60821b602082015260400190565b8381036060850152600f81526e566572696669636174696f6e734e3160881b60208201529050604081015b8381036080850152600e81526d5665726966696361746575724e3160901b60208201529050604081016115ee565b600061018088835261173b6020840189611534565b806040840152611767818401600d81526c4576656e745f316d396a62716160981b602082015260400190565b8381036060850152600c81526b1cdd185c9d141c9bda9958dd60a21b60208201529050604081016115c7565b60006101808883526117a86020840189611534565b8060408401526117d4818401600d81526c115d995b9d17cc5e188c9c5a5b609a1b602082015260400190565b8381036060850152600c81526b3932b1b2b4bb32a737ba34b360a11b60208201529050604081016116f8565b60006101808883526118156020840189611534565b806040840152611841818401600d81526c4576656e745f316a727971317760981b602082015260400190565b838103606085015260068152656e6f7469667960d01b60208201529050604081016115c7565b600061018088835261187c6020840189611534565b8060408401526118a8818401600d81526c115d995b9d17cc0dddcc4d990d609a1b602082015260400190565b838103606085015260068152657265706c617960d01b60208201529050604081016116f8565b60006101808883526118e36020840189611534565b80604084015261190f818401600d81526c04576656e745f306d393074753609c1b602082015260400190565b838103606085015260068152650ccd2dcd2e6d60d31b60208201529050604081016116f8565b600061018088835261194a6020840189611534565b806040840152611978818401600f81526e11d85d195dd85e57cc0ddc5a0d5e8d608a1b602082015260400190565b8381036060850152600681526563686f6f736560d01b60208201529050604081016116f8565b60006101808883526119b36020840189611534565b8060408401526119e2818401601081526f20b1ba34bb34ba3caf983b3a1b393bb560811b602082015260400190565b83810360608501526002815261413160f01b6020820152905060408101838103608085015260068152654c616e65204160d01b602082015290506040810183810360a085015260118152707b646174614f626a6563743a787878787d60781b6020820152905060408101611601565b6000610180888352611a666020840189611534565b806040840152611a95818401601081526f41637469766974795f3076686b35376360801b602082015260400190565b83810360608501526002815261209960f11b60208201529050604081015b838103608085015260068152654c616e65204160d01b60208201529050604081016115ee565b6000610180888352611aee6020840189611534565b806040840152611b19818401600c81526b53746172744576656e745f3160a01b602082015260400190565b838103606085015260008152905060208101611ab356fea264697066735822122079c68fff6b548fe708653a26d845223a4e17073e5e68880b44d76bf4933ece6564736f6c63430008180033",
  "linkReferences": {},
  "deployedLinkReferences": {}
}